{
	"Bootcamp_flat.sol": {
		"bootCamp": {
			"abi": [
				{
					"anonymous": false,
					"inputs": [
						{
							"indexed": false,
							"internalType": "address",
							"name": "sender",
							"type": "address"
						},
						{
							"indexed": false,
							"internalType": "address",
							"name": "reciever",
							"type": "address"
						},
						{
							"indexed": false,
							"internalType": "uint256",
							"name": "amount",
							"type": "uint256"
						},
						{
							"indexed": false,
							"internalType": "uint256",
							"name": "time",
							"type": "uint256"
						},
						{
							"indexed": false,
							"internalType": "bool",
							"name": "status",
							"type": "bool"
						}
					],
					"name": "TransferFee",
					"type": "event"
				},
				{
					"inputs": [],
					"name": "GetBalance",
					"outputs": [
						{
							"internalType": "uint256",
							"name": "",
							"type": "uint256"
						}
					],
					"stateMutability": "view",
					"type": "function"
				},
				{
					"inputs": [],
					"name": "Send",
					"outputs": [],
					"stateMutability": "payable",
					"type": "function"
				},
				{
					"inputs": [
						{
							"internalType": "uint256",
							"name": "_input",
							"type": "uint256"
						}
					],
					"name": "errorHandling",
					"outputs": [],
					"stateMutability": "nonpayable",
					"type": "function"
				},
				{
					"inputs": [
						{
							"internalType": "address",
							"name": "_from",
							"type": "address"
						},
						{
							"internalType": "address",
							"name": "_to",
							"type": "address"
						},
						{
							"internalType": "uint256",
							"name": "_amount",
							"type": "uint256"
						}
					],
					"name": "finalTransfer",
					"outputs": [],
					"stateMutability": "nonpayable",
					"type": "function"
				},
				{
					"inputs": [
						{
							"internalType": "string",
							"name": "_input",
							"type": "string"
						}
					],
					"name": "hash",
					"outputs": [
						{
							"internalType": "bytes32",
							"name": "",
							"type": "bytes32"
						}
					],
					"stateMutability": "view",
					"type": "function"
				},
				{
					"inputs": [
						{
							"internalType": "string",
							"name": "_input",
							"type": "string"
						}
					],
					"name": "hash2",
					"outputs": [
						{
							"internalType": "uint256",
							"name": "",
							"type": "uint256"
						}
					],
					"stateMutability": "view",
					"type": "function"
				},
				{
					"inputs": [
						{
							"internalType": "address",
							"name": "_adrs",
							"type": "address"
						}
					],
					"name": "keywords",
					"outputs": [
						{
							"internalType": "uint256",
							"name": "",
							"type": "uint256"
						}
					],
					"stateMutability": "view",
					"type": "function"
				},
				{
					"inputs": [],
					"name": "logTransaction",
					"outputs": [],
					"stateMutability": "nonpayable",
					"type": "function"
				},
				{
					"inputs": [],
					"name": "pushArray",
					"outputs": [
						{
							"internalType": "uint256",
							"name": "",
							"type": "uint256"
						}
					],
					"stateMutability": "nonpayable",
					"type": "function"
				},
				{
					"inputs": [
						{
							"internalType": "string",
							"name": "_name",
							"type": "string"
						}
					],
					"name": "sample",
					"outputs": [
						{
							"internalType": "string",
							"name": "",
							"type": "string"
						}
					],
					"stateMutability": "view",
					"type": "function"
				},
				{
					"inputs": [],
					"name": "testArray",
					"outputs": [
						{
							"internalType": "uint256",
							"name": "",
							"type": "uint256"
						}
					],
					"stateMutability": "pure",
					"type": "function"
				},
				{
					"inputs": [],
					"name": "testLibrary",
					"outputs": [
						{
							"internalType": "uint256",
							"name": "",
							"type": "uint256"
						}
					],
					"stateMutability": "nonpayable",
					"type": "function"
				},
				{
					"inputs": [],
					"name": "testMapping",
					"outputs": [],
					"stateMutability": "nonpayable",
					"type": "function"
				},
				{
					"inputs": [
						{
							"internalType": "uint256",
							"name": "_id",
							"type": "uint256"
						}
					],
					"name": "testNested",
					"outputs": [],
					"stateMutability": "nonpayable",
					"type": "function"
				},
				{
					"inputs": [],
					"name": "testStruct",
					"outputs": [],
					"stateMutability": "nonpayable",
					"type": "function"
				},
				{
					"inputs": [
						{
							"internalType": "address",
							"name": "_adrs",
							"type": "address"
						},
						{
							"internalType": "uint256",
							"name": "_amount",
							"type": "uint256"
						}
					],
					"name": "transferTo",
					"outputs": [],
					"stateMutability": "payable",
					"type": "function"
				}
			],
			"devdoc": {
				"kind": "dev",
				"methods": {},
				"version": 1
			},
			"evm": {
				"assembly": "    /* \"Bootcamp_flat.sol\":64:4455  contract bootCamp{\r... */\n  mstore(0x40, 0x80)\n    /* \"Bootcamp_flat.sol\":133:148  string str = \"\" */\n  mload(0x40)\n  dup1\n  0x20\n  add\n  0x40\n  mstore\n  dup1\n  0x00\n  dup2\n  mstore\n  pop\n  0x02\n  swap1\n  dup1\n  mload\n  swap1\n  0x20\n  add\n  swap1\n  tag_1\n  swap3\n  swap2\n  swap1\n  tag_2\n  jump\t// in\ntag_1:\n  pop\n    /* \"Bootcamp_flat.sol\":64:4455  contract bootCamp{\r... */\n  callvalue\n  dup1\n  iszero\n  tag_3\n  jumpi\n  0x00\n  dup1\n  revert\ntag_3:\n  pop\n  jump(tag_4)\ntag_2:\n  dup3\n  dup1\n  sload\n  tag_5\n  swap1\n  tag_6\n  jump\t// in\ntag_5:\n  swap1\n  0x00\n  mstore\n  keccak256(0x00, 0x20)\n  swap1\n  0x1f\n  add\n  0x20\n  swap1\n  div\n  dup2\n  add\n  swap3\n  dup3\n  tag_8\n  jumpi\n  0x00\n  dup6\n  sstore\n  jump(tag_7)\ntag_8:\n  dup3\n  0x1f\n  lt\n  tag_9\n  jumpi\n  dup1\n  mload\n  not(0xff)\n  and\n  dup4\n  dup1\n  add\n  or\n  dup6\n  sstore\n  jump(tag_7)\ntag_9:\n  dup3\n  dup1\n  add\n  0x01\n  add\n  dup6\n  sstore\n  dup3\n  iszero\n  tag_7\n  jumpi\n  swap2\n  dup3\n  add\ntag_10:\n  dup3\n  dup2\n  gt\n  iszero\n  tag_11\n  jumpi\n  dup3\n  mload\n  dup3\n  sstore\n  swap2\n  0x20\n  add\n  swap2\n  swap1\n  0x01\n  add\n  swap1\n  jump(tag_10)\ntag_11:\ntag_7:\n  pop\n  swap1\n  pop\n  tag_12\n  swap2\n  swap1\n  tag_13\n  jump\t// in\ntag_12:\n  pop\n  swap1\n  jump\t// out\ntag_13:\ntag_14:\n  dup1\n  dup3\n  gt\n  iszero\n  tag_15\n  jumpi\n  0x00\n  dup2\n  0x00\n  swap1\n  sstore\n  pop\n  0x01\n  add\n  jump(tag_14)\ntag_15:\n  pop\n  swap1\n  jump\t// out\n    /* \"#utility.yul\":7:327   */\ntag_6:\n    /* \"#utility.yul\":51:57   */\n  0x00\n    /* \"#utility.yul\":88:89   */\n  0x02\n    /* \"#utility.yul\":82:86   */\n  dup3\n    /* \"#utility.yul\":78:90   */\n  div\n    /* \"#utility.yul\":68:90   */\n  swap1\n  pop\n    /* \"#utility.yul\":135:136   */\n  0x01\n    /* \"#utility.yul\":129:133   */\n  dup3\n    /* \"#utility.yul\":125:137   */\n  and\n    /* \"#utility.yul\":156:174   */\n  dup1\n    /* \"#utility.yul\":146:227   */\n  tag_18\n  jumpi\n    /* \"#utility.yul\":212:216   */\n  0x7f\n    /* \"#utility.yul\":204:210   */\n  dup3\n    /* \"#utility.yul\":200:217   */\n  and\n    /* \"#utility.yul\":190:217   */\n  swap2\n  pop\n    /* \"#utility.yul\":146:227   */\ntag_18:\n    /* \"#utility.yul\":274:276   */\n  0x20\n    /* \"#utility.yul\":266:272   */\n  dup3\n    /* \"#utility.yul\":263:277   */\n  lt\n    /* \"#utility.yul\":243:261   */\n  dup2\n    /* \"#utility.yul\":240:278   */\n  eq\n    /* \"#utility.yul\":237:321   */\n  iszero\n  tag_19\n  jumpi\n    /* \"#utility.yul\":293:311   */\n  tag_20\n  tag_21\n  jump\t// in\ntag_20:\n    /* \"#utility.yul\":237:321   */\ntag_19:\n    /* \"#utility.yul\":58:327   */\n  pop\n    /* \"#utility.yul\":7:327   */\n  swap2\n  swap1\n  pop\n  jump\t// out\n    /* \"#utility.yul\":333:513   */\ntag_21:\n    /* \"#utility.yul\":381:458   */\n  0x4e487b7100000000000000000000000000000000000000000000000000000000\n    /* \"#utility.yul\":378:379   */\n  0x00\n    /* \"#utility.yul\":371:459   */\n  mstore\n    /* \"#utility.yul\":478:482   */\n  0x22\n    /* \"#utility.yul\":475:476   */\n  0x04\n    /* \"#utility.yul\":468:483   */\n  mstore\n    /* \"#utility.yul\":502:506   */\n  0x24\n    /* \"#utility.yul\":499:500   */\n  0x00\n    /* \"#utility.yul\":492:507   */\n  revert\n    /* \"Bootcamp_flat.sol\":64:4455  contract bootCamp{\r... */\ntag_4:\n  dataSize(sub_0)\n  dup1\n  dataOffset(sub_0)\n  0x00\n  codecopy\n  0x00\n  return\nstop\n\nsub_0: assembly {\n        /* \"Bootcamp_flat.sol\":64:4455  contract bootCamp{\r... */\n      mstore(0x40, 0x80)\n      jumpi(tag_1, lt(calldatasize, 0x04))\n      shr(0xe0, calldataload(0x00))\n      dup1\n      0x9b0e317c\n      gt\n      tag_18\n      jumpi\n      dup1\n      0xb411ee94\n      gt\n      tag_19\n      jumpi\n      dup1\n      0xb411ee94\n      eq\n      tag_14\n      jumpi\n      dup1\n      0xc250d683\n      eq\n      tag_15\n      jumpi\n      dup1\n      0xf06f7828\n      eq\n      tag_16\n      jumpi\n      dup1\n      0xf8f8a912\n      eq\n      tag_17\n      jumpi\n      jump(tag_1)\n    tag_19:\n      dup1\n      0x9b0e317c\n      eq\n      tag_10\n      jumpi\n      dup1\n      0x9de444d9\n      eq\n      tag_11\n      jumpi\n      dup1\n      0xa323e6a0\n      eq\n      tag_12\n      jumpi\n      dup1\n      0xaf67ac3f\n      eq\n      tag_13\n      jumpi\n      jump(tag_1)\n    tag_18:\n      dup1\n      0x43c2f4c1\n      gt\n      tag_20\n      jumpi\n      dup1\n      0x43c2f4c1\n      eq\n      tag_6\n      jumpi\n      dup1\n      0x503a37b1\n      eq\n      tag_7\n      jumpi\n      dup1\n      0x8b547d0e\n      eq\n      tag_8\n      jumpi\n      dup1\n      0x92d282c1\n      eq\n      tag_9\n      jumpi\n      jump(tag_1)\n    tag_20:\n      dup1\n      0x0f15491e\n      eq\n      tag_2\n      jumpi\n      dup1\n      0x2283bffd\n      eq\n      tag_3\n      jumpi\n      dup1\n      0x2becdd80\n      eq\n      tag_4\n      jumpi\n      dup1\n      0x2ccb1b30\n      eq\n      tag_5\n      jumpi\n    tag_1:\n      0x00\n      dup1\n      revert\n        /* \"Bootcamp_flat.sol\":4028:4115  function testLibrary() public returns(uint){\r... */\n    tag_2:\n      callvalue\n      dup1\n      iszero\n      tag_21\n      jumpi\n      0x00\n      dup1\n      revert\n    tag_21:\n      pop\n      tag_22\n      tag_23\n      jump\t// in\n    tag_22:\n      mload(0x40)\n      tag_24\n      swap2\n      swap1\n      tag_25\n      jump\t// in\n    tag_24:\n      mload(0x40)\n      dup1\n      swap2\n      sub\n      swap1\n      return\n        /* \"Bootcamp_flat.sol\":486:759  function testArray() public pure returns (uint){\r... */\n    tag_3:\n      callvalue\n      dup1\n      iszero\n      tag_26\n      jumpi\n      0x00\n      dup1\n      revert\n    tag_26:\n      pop\n      tag_27\n      tag_28\n      jump\t// in\n    tag_27:\n      mload(0x40)\n      tag_29\n      swap2\n      swap1\n      tag_25\n      jump\t// in\n    tag_29:\n      mload(0x40)\n      dup1\n      swap2\n      sub\n      swap1\n      return\n        /* \"Bootcamp_flat.sol\":3420:3550  function hash2(string memory _input) public view returns (uint256){\r... */\n    tag_4:\n      callvalue\n      dup1\n      iszero\n      tag_30\n      jumpi\n      0x00\n      dup1\n      revert\n    tag_30:\n      pop\n      tag_31\n      0x04\n      dup1\n      calldatasize\n      sub\n      dup2\n      add\n      swap1\n      tag_32\n      swap2\n      swap1\n      tag_33\n      jump\t// in\n    tag_32:\n      tag_34\n      jump\t// in\n    tag_31:\n      mload(0x40)\n      tag_35\n      swap2\n      swap1\n      tag_25\n      jump\t// in\n    tag_35:\n      mload(0x40)\n      dup1\n      swap2\n      sub\n      swap1\n      return\n        /* \"Bootcamp_flat.sol\":2845:2958  function transferTo(address _adrs,uint _amount) public payable{\r... */\n    tag_5:\n      tag_36\n      0x04\n      dup1\n      calldatasize\n      sub\n      dup2\n      add\n      swap1\n      tag_37\n      swap2\n      swap1\n      tag_38\n      jump\t// in\n    tag_37:\n      tag_39\n      jump\t// in\n    tag_36:\n      stop\n        /* \"Bootcamp_flat.sol\":1905:2158  function testNested(uint _id) public{\r... */\n    tag_6:\n      callvalue\n      dup1\n      iszero\n      tag_40\n      jumpi\n      0x00\n      dup1\n      revert\n    tag_40:\n      pop\n      tag_41\n      0x04\n      dup1\n      calldatasize\n      sub\n      dup2\n      add\n      swap1\n      tag_42\n      swap2\n      swap1\n      tag_43\n      jump\t// in\n    tag_42:\n      tag_44\n      jump\t// in\n    tag_41:\n      stop\n        /* \"Bootcamp_flat.sol\":2164:2837  function keywords(address _adrs) public view returns(uint){\r... */\n    tag_7:\n      callvalue\n      dup1\n      iszero\n      tag_45\n      jumpi\n      0x00\n      dup1\n      revert\n    tag_45:\n      pop\n      tag_46\n      0x04\n      dup1\n      calldatasize\n      sub\n      dup2\n      add\n      swap1\n      tag_47\n      swap2\n      swap1\n      tag_48\n      jump\t// in\n    tag_47:\n      tag_49\n      jump\t// in\n    tag_46:\n      mload(0x40)\n      tag_50\n      swap2\n      swap1\n      tag_25\n      jump\t// in\n    tag_50:\n      mload(0x40)\n      dup1\n      swap2\n      sub\n      swap1\n      return\n        /* \"Bootcamp_flat.sol\":1270:1487  function testMapping() public{\r... */\n    tag_8:\n      callvalue\n      dup1\n      iszero\n      tag_51\n      jumpi\n      0x00\n      dup1\n      revert\n    tag_51:\n      pop\n      tag_52\n      tag_53\n      jump\t// in\n    tag_52:\n      stop\n        /* \"Bootcamp_flat.sol\":1025:1123  function Send() payable public{\r... */\n    tag_9:\n      tag_54\n      tag_55\n      jump\t// in\n    tag_54:\n      stop\n        /* \"Bootcamp_flat.sol\":3084:3273  function testStruct() public{\r... */\n    tag_10:\n      callvalue\n      dup1\n      iszero\n      tag_56\n      jumpi\n      0x00\n      dup1\n      revert\n    tag_56:\n      pop\n      tag_57\n      tag_58\n      jump\t// in\n    tag_57:\n      stop\n        /* \"Bootcamp_flat.sol\":1542:1793  function logTransaction() public{\r... */\n    tag_11:\n      callvalue\n      dup1\n      iszero\n      tag_59\n      jumpi\n      0x00\n      dup1\n      revert\n    tag_59:\n      pop\n      tag_60\n      tag_61\n      jump\t// in\n    tag_60:\n      stop\n        /* \"Bootcamp_flat.sol\":4220:4452  function finalTransfer (address _from,address _to,uint _amount) public {\r... */\n    tag_12:\n      callvalue\n      dup1\n      iszero\n      tag_62\n      jumpi\n      0x00\n      dup1\n      revert\n    tag_62:\n      pop\n      tag_63\n      0x04\n      dup1\n      calldatasize\n      sub\n      dup2\n      add\n      swap1\n      tag_64\n      swap2\n      swap1\n      tag_65\n      jump\t// in\n    tag_64:\n      tag_66\n      jump\t// in\n    tag_63:\n      stop\n        /* \"Bootcamp_flat.sol\":783:1017  function pushArray() public returns (uint){\r... */\n    tag_13:\n      callvalue\n      dup1\n      iszero\n      tag_67\n      jumpi\n      0x00\n      dup1\n      revert\n    tag_67:\n      pop\n      tag_68\n      tag_69\n      jump\t// in\n    tag_68:\n      mload(0x40)\n      tag_70\n      swap2\n      swap1\n      tag_25\n      jump\t// in\n    tag_70:\n      mload(0x40)\n      dup1\n      swap2\n      sub\n      swap1\n      return\n        /* \"Bootcamp_flat.sol\":3281:3407  function hash(string memory _input) public view returns (bytes32){\r... */\n    tag_14:\n      callvalue\n      dup1\n      iszero\n      tag_71\n      jumpi\n      0x00\n      dup1\n      revert\n    tag_71:\n      pop\n      tag_72\n      0x04\n      dup1\n      calldatasize\n      sub\n      dup2\n      add\n      swap1\n      tag_73\n      swap2\n      swap1\n      tag_33\n      jump\t// in\n    tag_73:\n      tag_74\n      jump\t// in\n    tag_72:\n      mload(0x40)\n      tag_75\n      swap2\n      swap1\n      tag_76\n      jump\t// in\n    tag_75:\n      mload(0x40)\n      dup1\n      swap2\n      sub\n      swap1\n      return\n        /* \"Bootcamp_flat.sol\":3558:4020  function errorHandling(uint _input) public {\r... */\n    tag_15:\n      callvalue\n      dup1\n      iszero\n      tag_77\n      jumpi\n      0x00\n      dup1\n      revert\n    tag_77:\n      pop\n      tag_78\n      0x04\n      dup1\n      calldatasize\n      sub\n      dup2\n      add\n      swap1\n      tag_79\n      swap2\n      swap1\n      tag_43\n      jump\t// in\n    tag_79:\n      tag_80\n      jump\t// in\n    tag_78:\n      stop\n        /* \"Bootcamp_flat.sol\":377:480  function sample(string memory _name) public view returns (string memory){\r... */\n    tag_16:\n      callvalue\n      dup1\n      iszero\n      tag_81\n      jumpi\n      0x00\n      dup1\n      revert\n    tag_81:\n      pop\n      tag_82\n      0x04\n      dup1\n      calldatasize\n      sub\n      dup2\n      add\n      swap1\n      tag_83\n      swap2\n      swap1\n      tag_33\n      jump\t// in\n    tag_83:\n      tag_84\n      jump\t// in\n    tag_82:\n      mload(0x40)\n      tag_85\n      swap2\n      swap1\n      tag_86\n      jump\t// in\n    tag_85:\n      mload(0x40)\n      dup1\n      swap2\n      sub\n      swap1\n      return\n        /* \"Bootcamp_flat.sol\":1803:1899  function GetBalance() public view returns(uint){  \r... */\n    tag_17:\n      callvalue\n      dup1\n      iszero\n      tag_87\n      jumpi\n      0x00\n      dup1\n      revert\n    tag_87:\n      pop\n      tag_88\n      tag_89\n      jump\t// in\n    tag_88:\n      mload(0x40)\n      tag_90\n      swap2\n      swap1\n      tag_25\n      jump\t// in\n    tag_90:\n      mload(0x40)\n      dup1\n      swap2\n      sub\n      swap1\n      return\n        /* \"Bootcamp_flat.sol\":4028:4115  function testLibrary() public returns(uint){\r... */\n    tag_23:\n        /* \"Bootcamp_flat.sol\":4066:4070  uint */\n      0x00\n        /* \"Bootcamp_flat.sol\":4088:4096  fullMath */\n      linkerSymbol(\"6062f5f2748a4c5f897673528d0966eae7fe52340a2d229bc2447d788838e4bb\")\n        /* \"Bootcamp_flat.sol\":4088:4100  fullMath.add */\n      0x771602f7\n        /* \"Bootcamp_flat.sol\":4101:4103  10 */\n      0x0a\n        /* \"Bootcamp_flat.sol\":4104:4106  20 */\n      0x14\n        /* \"Bootcamp_flat.sol\":4088:4107  fullMath.add(10,20) */\n      mload(0x40)\n      dup4\n      0xffffffff\n      and\n      0xe0\n      shl\n      dup2\n      mstore\n      0x04\n      add\n      tag_92\n      swap3\n      swap2\n      swap1\n      tag_93\n      jump\t// in\n    tag_92:\n      0x20\n      mload(0x40)\n      dup1\n      dup4\n      sub\n      dup2\n      dup7\n      dup1\n      extcodesize\n      iszero\n      dup1\n      iszero\n      tag_94\n      jumpi\n      0x00\n      dup1\n      revert\n    tag_94:\n      pop\n      gas\n      delegatecall\n      iszero\n      dup1\n      iszero\n      tag_96\n      jumpi\n      returndatasize\n      0x00\n      dup1\n      returndatacopy\n      revert(0x00, returndatasize)\n    tag_96:\n      pop\n      pop\n      pop\n      pop\n      mload(0x40)\n      returndatasize\n      not(0x1f)\n      0x1f\n      dup3\n      add\n      and\n      dup3\n      add\n      dup1\n      0x40\n      mstore\n      pop\n      dup2\n      add\n      swap1\n      tag_97\n      swap2\n      swap1\n      tag_98\n      jump\t// in\n    tag_97:\n        /* \"Bootcamp_flat.sol\":4081:4107  return fullMath.add(10,20) */\n      swap1\n      pop\n        /* \"Bootcamp_flat.sol\":4028:4115  function testLibrary() public returns(uint){\r... */\n      swap1\n      jump\t// out\n        /* \"Bootcamp_flat.sol\":486:759  function testArray() public pure returns (uint){\r... */\n    tag_28:\n        /* \"Bootcamp_flat.sol\":528:532  uint */\n      0x00\n        /* \"Bootcamp_flat.sol\":544:561  uint[3] memory ar */\n      tag_100\n      tag_101\n      jump\t// in\n    tag_100:\n        /* \"Bootcamp_flat.sol\":580:581  1 */\n      0x01\n        /* \"Bootcamp_flat.sol\":572:574  ar */\n      dup2\n        /* \"Bootcamp_flat.sol\":575:576  0 */\n      0x00\n        /* \"Bootcamp_flat.sol\":572:577  ar[0] */\n      0x03\n      dup2\n      lt\n      tag_102\n      jumpi\n      tag_103\n      tag_104\n      jump\t// in\n    tag_103:\n    tag_102:\n      0x20\n      mul\n      add\n        /* \"Bootcamp_flat.sol\":572:581  ar[0] = 1 */\n      dup2\n      dup2\n      mstore\n      pop\n      pop\n        /* \"Bootcamp_flat.sol\":600:601  2 */\n      0x02\n        /* \"Bootcamp_flat.sol\":592:594  ar */\n      dup2\n        /* \"Bootcamp_flat.sol\":595:596  1 */\n      0x01\n        /* \"Bootcamp_flat.sol\":592:597  ar[1] */\n      0x03\n      dup2\n      lt\n      tag_105\n      jumpi\n      tag_106\n      tag_104\n      jump\t// in\n    tag_106:\n    tag_105:\n      0x20\n      mul\n      add\n        /* \"Bootcamp_flat.sol\":592:601  ar[1] = 2 */\n      dup2\n      dup2\n      mstore\n      pop\n      pop\n        /* \"Bootcamp_flat.sol\":620:621  3 */\n      0x03\n        /* \"Bootcamp_flat.sol\":612:614  ar */\n      dup2\n        /* \"Bootcamp_flat.sol\":615:616  2 */\n      0x02\n        /* \"Bootcamp_flat.sol\":612:617  ar[2] */\n      0x03\n      dup2\n      lt\n      tag_107\n      jumpi\n      tag_108\n      tag_104\n      jump\t// in\n    tag_108:\n    tag_107:\n      0x20\n      mul\n      add\n        /* \"Bootcamp_flat.sol\":612:621  ar[2] = 3 */\n      dup2\n      dup2\n      mstore\n      pop\n      pop\n        /* \"Bootcamp_flat.sol\":632:643  uint output */\n      0x00\n        /* \"Bootcamp_flat.sol\":662:668  uint i */\n      dup1\n        /* \"Bootcamp_flat.sol\":658:728  for(uint i=0;i<=ar.length;i++){\r... */\n    tag_109:\n        /* \"Bootcamp_flat.sol\":674:683  ar.length */\n      0x03\n        /* \"Bootcamp_flat.sol\":671:672  i */\n      dup2\n        /* \"Bootcamp_flat.sol\":671:683  i<=ar.length */\n      gt\n        /* \"Bootcamp_flat.sol\":658:728  for(uint i=0;i<=ar.length;i++){\r... */\n      tag_110\n      jumpi\n        /* \"Bootcamp_flat.sol\":715:716  5 */\n      0x05\n        /* \"Bootcamp_flat.sol\":713:714  i */\n      dup2\n        /* \"Bootcamp_flat.sol\":713:716  i*5 */\n      tag_112\n      swap2\n      swap1\n      tag_113\n      jump\t// in\n    tag_112:\n        /* \"Bootcamp_flat.sol\":704:716  output+= i*5 */\n      dup3\n      tag_114\n      swap2\n      swap1\n      tag_115\n      jump\t// in\n    tag_114:\n      swap2\n      pop\n        /* \"Bootcamp_flat.sol\":684:687  i++ */\n      dup1\n      dup1\n      tag_116\n      swap1\n      tag_117\n      jump\t// in\n    tag_116:\n      swap2\n      pop\n      pop\n        /* \"Bootcamp_flat.sol\":658:728  for(uint i=0;i<=ar.length;i++){\r... */\n      jump(tag_109)\n    tag_110:\n      pop\n        /* \"Bootcamp_flat.sol\":745:751  output */\n      dup1\n        /* \"Bootcamp_flat.sol\":738:751  return output */\n      swap3\n      pop\n      pop\n      pop\n        /* \"Bootcamp_flat.sol\":486:759  function testArray() public pure returns (uint){\r... */\n      swap1\n      jump\t// out\n        /* \"Bootcamp_flat.sol\":3420:3550  function hash2(string memory _input) public view returns (uint256){\r... */\n    tag_34:\n        /* \"Bootcamp_flat.sol\":3478:3485  uint256 */\n      0x00\n        /* \"Bootcamp_flat.sol\":3533:3539  _input */\n      dup2\n        /* \"Bootcamp_flat.sol\":3522:3540  abi.encode(_input) */\n      add(0x20, mload(0x40))\n      tag_119\n      swap2\n      swap1\n      tag_86\n      jump\t// in\n    tag_119:\n      mload(0x40)\n      0x20\n      dup2\n      dup4\n      sub\n      sub\n      dup2\n      mstore\n      swap1\n      0x40\n      mstore\n        /* \"Bootcamp_flat.sol\":3512:3541  keccak256(abi.encode(_input)) */\n      dup1\n      mload\n      swap1\n      0x20\n      add\n      keccak256\n        /* \"Bootcamp_flat.sol\":3504:3542  uint256(keccak256(abi.encode(_input))) */\n      0x00\n      shr\n        /* \"Bootcamp_flat.sol\":3497:3542  return uint256(keccak256(abi.encode(_input))) */\n      swap1\n      pop\n        /* \"Bootcamp_flat.sol\":3420:3550  function hash2(string memory _input) public view returns (uint256){\r... */\n      swap2\n      swap1\n      pop\n      jump\t// out\n        /* \"Bootcamp_flat.sol\":2845:2958  function transferTo(address _adrs,uint _amount) public payable{\r... */\n    tag_39:\n        /* \"Bootcamp_flat.sol\":2926:2931  _adrs */\n      dup2\n        /* \"Bootcamp_flat.sol\":2918:2941  payable(_adrs).transfer */\n      0xffffffffffffffffffffffffffffffffffffffff\n      and\n        /* \"Bootcamp_flat.sol\":2918:2950  payable(_adrs).transfer(_amount) */\n      0x08fc\n        /* \"Bootcamp_flat.sol\":2942:2949  _amount */\n      dup3\n        /* \"Bootcamp_flat.sol\":2918:2950  payable(_adrs).transfer(_amount) */\n      swap1\n      dup2\n      iszero\n      mul\n      swap1\n      mload(0x40)\n      0x00\n      mload(0x40)\n      dup1\n      dup4\n      sub\n      dup2\n      dup6\n      dup9\n      dup9\n      call\n      swap4\n      pop\n      pop\n      pop\n      pop\n      iszero\n      dup1\n      iszero\n      tag_122\n      jumpi\n      returndatasize\n      0x00\n      dup1\n      returndatacopy\n      revert(0x00, returndatasize)\n    tag_122:\n      pop\n        /* \"Bootcamp_flat.sol\":2845:2958  function transferTo(address _adrs,uint _amount) public payable{\r... */\n      pop\n      pop\n      jump\t// out\n        /* \"Bootcamp_flat.sol\":1905:2158  function testNested(uint _id) public{\r... */\n    tag_44:\n        /* \"Bootcamp_flat.sol\":1983:1986  100 */\n      0x64\n        /* \"Bootcamp_flat.sol\":1952:1963  balanceList */\n      0x05\n        /* \"Bootcamp_flat.sol\":1952:1968  balanceList[_id] */\n      0x00\n        /* \"Bootcamp_flat.sol\":1964:1967  _id */\n      dup4\n        /* \"Bootcamp_flat.sol\":1952:1968  balanceList[_id] */\n      dup2\n      mstore\n      0x20\n      add\n      swap1\n      dup2\n      mstore\n      0x20\n      add\n      0x00\n      keccak256\n        /* \"Bootcamp_flat.sol\":1952:1980  balanceList[_id][msg.sender] */\n      0x00\n        /* \"Bootcamp_flat.sol\":1969:1979  msg.sender */\n      caller\n        /* \"Bootcamp_flat.sol\":1952:1980  balanceList[_id][msg.sender] */\n      0xffffffffffffffffffffffffffffffffffffffff\n      and\n      0xffffffffffffffffffffffffffffffffffffffff\n      and\n      dup2\n      mstore\n      0x20\n      add\n      swap1\n      dup2\n      mstore\n      0x20\n      add\n      0x00\n      keccak256\n        /* \"Bootcamp_flat.sol\":1952:1986  balanceList[_id][msg.sender] = 100 */\n      dup2\n      swap1\n      sstore\n      pop\n        /* \"Bootcamp_flat.sol\":2006:2017  balanceList */\n      0x05\n        /* \"Bootcamp_flat.sol\":2006:2022  balanceList[_id] */\n      0x00\n        /* \"Bootcamp_flat.sol\":2018:2021  _id */\n      dup3\n        /* \"Bootcamp_flat.sol\":2006:2022  balanceList[_id] */\n      dup2\n      mstore\n      0x20\n      add\n      swap1\n      dup2\n      mstore\n      0x20\n      add\n      0x00\n      keccak256\n        /* \"Bootcamp_flat.sol\":2006:2034  balanceList[_id][msg.sender] */\n      0x00\n        /* \"Bootcamp_flat.sol\":2023:2033  msg.sender */\n      caller\n        /* \"Bootcamp_flat.sol\":2006:2034  balanceList[_id][msg.sender] */\n      0xffffffffffffffffffffffffffffffffffffffff\n      and\n      0xffffffffffffffffffffffffffffffffffffffff\n      and\n      dup2\n      mstore\n      0x20\n      add\n      swap1\n      dup2\n      mstore\n      0x20\n      add\n      0x00\n      keccak256\n      pop\n        /* \"Bootcamp_flat.sol\":2083:2086  200 */\n      0xc8\n        /* \"Bootcamp_flat.sol\":2052:2063  balanceList */\n      0x05\n        /* \"Bootcamp_flat.sol\":2052:2068  balanceList[_id] */\n      0x00\n        /* \"Bootcamp_flat.sol\":2064:2067  _id */\n      dup4\n        /* \"Bootcamp_flat.sol\":2052:2068  balanceList[_id] */\n      dup2\n      mstore\n      0x20\n      add\n      swap1\n      dup2\n      mstore\n      0x20\n      add\n      0x00\n      keccak256\n        /* \"Bootcamp_flat.sol\":2052:2080  balanceList[_id][msg.sender] */\n      0x00\n        /* \"Bootcamp_flat.sol\":2069:2079  msg.sender */\n      caller\n        /* \"Bootcamp_flat.sol\":2052:2080  balanceList[_id][msg.sender] */\n      0xffffffffffffffffffffffffffffffffffffffff\n      and\n      0xffffffffffffffffffffffffffffffffffffffff\n      and\n      dup2\n      mstore\n      0x20\n      add\n      swap1\n      dup2\n      mstore\n      0x20\n      add\n      0x00\n      keccak256\n        /* \"Bootcamp_flat.sol\":2052:2086  balanceList[_id][msg.sender] = 200 */\n      dup2\n      swap1\n      sstore\n      pop\n        /* \"Bootcamp_flat.sol\":2113:2124  balanceList */\n      0x05\n        /* \"Bootcamp_flat.sol\":2113:2129  balanceList[_id] */\n      0x00\n        /* \"Bootcamp_flat.sol\":2125:2128  _id */\n      dup3\n        /* \"Bootcamp_flat.sol\":2113:2129  balanceList[_id] */\n      dup2\n      mstore\n      0x20\n      add\n      swap1\n      dup2\n      mstore\n      0x20\n      add\n      0x00\n      keccak256\n        /* \"Bootcamp_flat.sol\":2113:2141  balanceList[_id][msg.sender] */\n      0x00\n        /* \"Bootcamp_flat.sol\":2130:2140  msg.sender */\n      caller\n        /* \"Bootcamp_flat.sol\":2113:2141  balanceList[_id][msg.sender] */\n      0xffffffffffffffffffffffffffffffffffffffff\n      and\n      0xffffffffffffffffffffffffffffffffffffffff\n      and\n      dup2\n      mstore\n      0x20\n      add\n      swap1\n      dup2\n      mstore\n      0x20\n      add\n      0x00\n      keccak256\n        /* \"Bootcamp_flat.sol\":2106:2141  delete balanceList[_id][msg.sender] */\n      0x00\n      swap1\n      sstore\n        /* \"Bootcamp_flat.sol\":1905:2158  function testNested(uint _id) public{\r... */\n      pop\n      jump\t// out\n        /* \"Bootcamp_flat.sol\":2164:2837  function keywords(address _adrs) public view returns(uint){\r... */\n    tag_49:\n        /* \"Bootcamp_flat.sol\":2217:2221  uint */\n      0x00\n        /* \"Bootcamp_flat.sol\":2815:2822  balance */\n      0x04\n        /* \"Bootcamp_flat.sol\":2815:2829  balance[_adrs] */\n      0x00\n        /* \"Bootcamp_flat.sol\":2823:2828  _adrs */\n      dup4\n        /* \"Bootcamp_flat.sol\":2815:2829  balance[_adrs] */\n      0xffffffffffffffffffffffffffffffffffffffff\n      and\n      0xffffffffffffffffffffffffffffffffffffffff\n      and\n      dup2\n      mstore\n      0x20\n      add\n      swap1\n      dup2\n      mstore\n      0x20\n      add\n      0x00\n      keccak256\n      sload\n        /* \"Bootcamp_flat.sol\":2808:2829  return balance[_adrs] */\n      swap1\n      pop\n        /* \"Bootcamp_flat.sol\":2164:2837  function keywords(address _adrs) public view returns(uint){\r... */\n      swap2\n      swap1\n      pop\n      jump\t// out\n        /* \"Bootcamp_flat.sol\":1270:1487  function testMapping() public{\r... */\n    tag_53:\n        /* \"Bootcamp_flat.sol\":1332:1336  1000 */\n      0x03e8\n        /* \"Bootcamp_flat.sol\":1310:1317  balance */\n      0x04\n        /* \"Bootcamp_flat.sol\":1310:1329  balance[msg.sender] */\n      0x00\n        /* \"Bootcamp_flat.sol\":1318:1328  msg.sender */\n      caller\n        /* \"Bootcamp_flat.sol\":1310:1329  balance[msg.sender] */\n      0xffffffffffffffffffffffffffffffffffffffff\n      and\n      0xffffffffffffffffffffffffffffffffffffffff\n      and\n      dup2\n      mstore\n      0x20\n      add\n      swap1\n      dup2\n      mstore\n      0x20\n      add\n      0x00\n      keccak256\n        /* \"Bootcamp_flat.sol\":1310:1336  balance[msg.sender] = 1000 */\n      dup2\n      swap1\n      sstore\n      pop\n        /* \"Bootcamp_flat.sol\":1356:1363  balance */\n      0x04\n        /* \"Bootcamp_flat.sol\":1356:1375  balance[msg.sender] */\n      0x00\n        /* \"Bootcamp_flat.sol\":1364:1374  msg.sender */\n      caller\n        /* \"Bootcamp_flat.sol\":1356:1375  balance[msg.sender] */\n      0xffffffffffffffffffffffffffffffffffffffff\n      and\n      0xffffffffffffffffffffffffffffffffffffffff\n      and\n      dup2\n      mstore\n      0x20\n      add\n      swap1\n      dup2\n      mstore\n      0x20\n      add\n      0x00\n      keccak256\n      pop\n        /* \"Bootcamp_flat.sol\":1422:1425  800 */\n      0x0320\n        /* \"Bootcamp_flat.sol\":1400:1407  balance */\n      0x04\n        /* \"Bootcamp_flat.sol\":1400:1419  balance[msg.sender] */\n      0x00\n        /* \"Bootcamp_flat.sol\":1408:1418  msg.sender */\n      caller\n        /* \"Bootcamp_flat.sol\":1400:1419  balance[msg.sender] */\n      0xffffffffffffffffffffffffffffffffffffffff\n      and\n      0xffffffffffffffffffffffffffffffffffffffff\n      and\n      dup2\n      mstore\n      0x20\n      add\n      swap1\n      dup2\n      mstore\n      0x20\n      add\n      0x00\n      keccak256\n        /* \"Bootcamp_flat.sol\":1400:1425  balance[msg.sender] = 800 */\n      dup2\n      swap1\n      sstore\n      pop\n        /* \"Bootcamp_flat.sol\":1451:1458  balance */\n      0x04\n        /* \"Bootcamp_flat.sol\":1451:1470  balance[msg.sender] */\n      0x00\n        /* \"Bootcamp_flat.sol\":1459:1469  msg.sender */\n      caller\n        /* \"Bootcamp_flat.sol\":1451:1470  balance[msg.sender] */\n      0xffffffffffffffffffffffffffffffffffffffff\n      and\n      0xffffffffffffffffffffffffffffffffffffffff\n      and\n      dup2\n      mstore\n      0x20\n      add\n      swap1\n      dup2\n      mstore\n      0x20\n      add\n      0x00\n      keccak256\n        /* \"Bootcamp_flat.sol\":1444:1470  delete balance[msg.sender] */\n      0x00\n      swap1\n      sstore\n        /* \"Bootcamp_flat.sol\":1270:1487  function testMapping() public{\r... */\n      jump\t// out\n        /* \"Bootcamp_flat.sol\":1025:1123  function Send() payable public{\r... */\n    tag_55:\n        /* \"Bootcamp_flat.sol\":1080:1087  1 ether */\n      0x0de0b6b3a7640000\n        /* \"Bootcamp_flat.sol\":1069:1078  msg.value */\n      callvalue\n        /* \"Bootcamp_flat.sol\":1069:1087  msg.value <1 ether */\n      lt\n        /* \"Bootcamp_flat.sol\":1066:1115  if(msg.value <1 ether) revert(\"Not Enough Money\") */\n      iszero\n      tag_127\n      jumpi\n        /* \"Bootcamp_flat.sol\":1089:1115  revert(\"Not Enough Money\") */\n      mload(0x40)\n      0x08c379a000000000000000000000000000000000000000000000000000000000\n      dup2\n      mstore\n      0x04\n      add\n      tag_128\n      swap1\n      tag_129\n      jump\t// in\n    tag_128:\n      mload(0x40)\n      dup1\n      swap2\n      sub\n      swap1\n      revert\n        /* \"Bootcamp_flat.sol\":1066:1115  if(msg.value <1 ether) revert(\"Not Enough Money\") */\n    tag_127:\n        /* \"Bootcamp_flat.sol\":1025:1123  function Send() payable public{\r... */\n      jump\t// out\n        /* \"Bootcamp_flat.sol\":3084:3273  function testStruct() public{\r... */\n    tag_58:\n        /* \"Bootcamp_flat.sol\":3123:3140  Student memory st */\n      tag_131\n      tag_132\n      jump\t// in\n    tag_131:\n        /* \"Bootcamp_flat.sol\":3159:3162  100 */\n      0x64\n        /* \"Bootcamp_flat.sol\":3151:3153  st */\n      dup2\n        /* \"Bootcamp_flat.sol\":3151:3156  st.id */\n      0x00\n      add\n        /* \"Bootcamp_flat.sol\":3151:3162  st.id = 100 */\n      dup2\n      dup2\n      mstore\n      pop\n      pop\n        /* \"Bootcamp_flat.sol\":3173:3188  st.name = \"ALI\" */\n      mload(0x40)\n      dup1\n      0x40\n      add\n      0x40\n      mstore\n      dup1\n      0x03\n      dup2\n      mstore\n      0x20\n      add\n      0x414c490000000000000000000000000000000000000000000000000000000000\n      dup2\n      mstore\n      pop\n        /* \"Bootcamp_flat.sol\":3173:3175  st */\n      dup2\n        /* \"Bootcamp_flat.sol\":3173:3180  st.name */\n      0x20\n      add\n        /* \"Bootcamp_flat.sol\":3173:3188  st.name = \"ALI\" */\n      dup2\n      swap1\n      mstore\n      pop\n        /* \"Bootcamp_flat.sol\":3208:3210  20 */\n      0x14\n        /* \"Bootcamp_flat.sol\":3199:3201  st */\n      dup2\n        /* \"Bootcamp_flat.sol\":3199:3205  st.age */\n      0x40\n      add\n        /* \"Bootcamp_flat.sol\":3199:3210  st.age = 20 */\n      dup2\n      dup2\n      mstore\n      pop\n      pop\n        /* \"Bootcamp_flat.sol\":3223:3241  Student memory st2 */\n      0x00\n        /* \"Bootcamp_flat.sol\":3244:3265  Student(101,\"SAM\",22) */\n      mload(0x40)\n      dup1\n      0x60\n      add\n      0x40\n      mstore\n      dup1\n        /* \"Bootcamp_flat.sol\":3252:3255  101 */\n      0x65\n        /* \"Bootcamp_flat.sol\":3244:3265  Student(101,\"SAM\",22) */\n      dup2\n      mstore\n      0x20\n      add\n      mload(0x40)\n      dup1\n      0x40\n      add\n      0x40\n      mstore\n      dup1\n      0x03\n      dup2\n      mstore\n      0x20\n      add\n      0x53414d0000000000000000000000000000000000000000000000000000000000\n      dup2\n      mstore\n      pop\n      dup2\n      mstore\n      0x20\n      add\n        /* \"Bootcamp_flat.sol\":3262:3264  22 */\n      0x16\n        /* \"Bootcamp_flat.sol\":3244:3265  Student(101,\"SAM\",22) */\n      dup2\n      mstore\n      pop\n        /* \"Bootcamp_flat.sol\":3223:3265  Student memory st2 = Student(101,\"SAM\",22) */\n      swap1\n      pop\n        /* \"Bootcamp_flat.sol\":3112:3273  {\r... */\n      pop\n      pop\n        /* \"Bootcamp_flat.sol\":3084:3273  function testStruct() public{\r... */\n      jump\t// out\n        /* \"Bootcamp_flat.sol\":1542:1793  function logTransaction() public{\r... */\n    tag_61:\n        /* \"Bootcamp_flat.sol\":1615:1618  100 */\n      0x64\n        /* \"Bootcamp_flat.sol\":1585:1597  transactions */\n      0x06\n        /* \"Bootcamp_flat.sol\":1585:1609  transactions[msg.sender] */\n      0x00\n        /* \"Bootcamp_flat.sol\":1598:1608  msg.sender */\n      caller\n        /* \"Bootcamp_flat.sol\":1585:1609  transactions[msg.sender] */\n      0xffffffffffffffffffffffffffffffffffffffff\n      and\n      0xffffffffffffffffffffffffffffffffffffffff\n      and\n      dup2\n      mstore\n      0x20\n      add\n      swap1\n      dup2\n      mstore\n      0x20\n      add\n      0x00\n      keccak256\n        /* \"Bootcamp_flat.sol\":1610:1611  0 */\n      0x00\n        /* \"Bootcamp_flat.sol\":1585:1612  transactions[msg.sender][0] */\n      dup2\n      sload\n      dup2\n      lt\n      tag_134\n      jumpi\n      tag_135\n      tag_104\n      jump\t// in\n    tag_135:\n    tag_134:\n      swap1\n      0x00\n      mstore\n      keccak256(0x00, 0x20)\n      add\n        /* \"Bootcamp_flat.sol\":1585:1618  transactions[msg.sender][0] = 100 */\n      dup2\n      swap1\n      sstore\n      pop\n        /* \"Bootcamp_flat.sol\":1638:1650  transactions */\n      0x06\n        /* \"Bootcamp_flat.sol\":1638:1662  transactions[msg.sender] */\n      0x00\n        /* \"Bootcamp_flat.sol\":1651:1661  msg.sender */\n      caller\n        /* \"Bootcamp_flat.sol\":1638:1662  transactions[msg.sender] */\n      0xffffffffffffffffffffffffffffffffffffffff\n      and\n      0xffffffffffffffffffffffffffffffffffffffff\n      and\n      dup2\n      mstore\n      0x20\n      add\n      swap1\n      dup2\n      mstore\n      0x20\n      add\n      0x00\n      keccak256\n        /* \"Bootcamp_flat.sol\":1663:1664  0 */\n      0x00\n        /* \"Bootcamp_flat.sol\":1638:1665  transactions[msg.sender][0] */\n      dup2\n      sload\n      dup2\n      lt\n      tag_137\n      jumpi\n      tag_138\n      tag_104\n      jump\t// in\n    tag_138:\n    tag_137:\n      swap1\n      0x00\n      mstore\n      pop(keccak256(0x00, 0x20))\n      pop\n        /* \"Bootcamp_flat.sol\":1719:1722  200 */\n      0xc8\n        /* \"Bootcamp_flat.sol\":1689:1701  transactions */\n      0x06\n        /* \"Bootcamp_flat.sol\":1689:1713  transactions[msg.sender] */\n      0x00\n        /* \"Bootcamp_flat.sol\":1702:1712  msg.sender */\n      caller\n        /* \"Bootcamp_flat.sol\":1689:1713  transactions[msg.sender] */\n      0xffffffffffffffffffffffffffffffffffffffff\n      and\n      0xffffffffffffffffffffffffffffffffffffffff\n      and\n      dup2\n      mstore\n      0x20\n      add\n      swap1\n      dup2\n      mstore\n      0x20\n      add\n      0x00\n      keccak256\n        /* \"Bootcamp_flat.sol\":1714:1715  0 */\n      0x00\n        /* \"Bootcamp_flat.sol\":1689:1716  transactions[msg.sender][0] */\n      dup2\n      sload\n      dup2\n      lt\n      tag_140\n      jumpi\n      tag_141\n      tag_104\n      jump\t// in\n    tag_141:\n    tag_140:\n      swap1\n      0x00\n      mstore\n      keccak256(0x00, 0x20)\n      add\n        /* \"Bootcamp_flat.sol\":1689:1722  transactions[msg.sender][0] = 200 */\n      dup2\n      swap1\n      sstore\n      pop\n        /* \"Bootcamp_flat.sol\":1749:1761  transactions */\n      0x06\n        /* \"Bootcamp_flat.sol\":1749:1773  transactions[msg.sender] */\n      0x00\n        /* \"Bootcamp_flat.sol\":1762:1772  msg.sender */\n      caller\n        /* \"Bootcamp_flat.sol\":1749:1773  transactions[msg.sender] */\n      0xffffffffffffffffffffffffffffffffffffffff\n      and\n      0xffffffffffffffffffffffffffffffffffffffff\n      and\n      dup2\n      mstore\n      0x20\n      add\n      swap1\n      dup2\n      mstore\n      0x20\n      add\n      0x00\n      keccak256\n        /* \"Bootcamp_flat.sol\":1774:1775  0 */\n      0x00\n        /* \"Bootcamp_flat.sol\":1749:1776  transactions[msg.sender][0] */\n      dup2\n      sload\n      dup2\n      lt\n      tag_143\n      jumpi\n      tag_144\n      tag_104\n      jump\t// in\n    tag_144:\n    tag_143:\n      swap1\n      0x00\n      mstore\n      keccak256(0x00, 0x20)\n      add\n        /* \"Bootcamp_flat.sol\":1742:1776  delete transactions[msg.sender][0] */\n      0x00\n      swap1\n      sstore\n        /* \"Bootcamp_flat.sol\":1542:1793  function logTransaction() public{\r... */\n      jump\t// out\n        /* \"Bootcamp_flat.sol\":4220:4452  function finalTransfer (address _from,address _to,uint _amount) public {\r... */\n    tag_66:\n        /* \"Bootcamp_flat.sol\":4393:4444  TransferFee(_from,_to,_amount,block.timestamp,true) */\n      0x3eba86eb3c0ea121e35980d4acae6eb9f1cdf0bf7c0c08443798cfd6e5299de3\n        /* \"Bootcamp_flat.sol\":4405:4410  _from */\n      dup4\n        /* \"Bootcamp_flat.sol\":4411:4414  _to */\n      dup4\n        /* \"Bootcamp_flat.sol\":4415:4422  _amount */\n      dup4\n        /* \"Bootcamp_flat.sol\":4423:4438  block.timestamp */\n      timestamp\n        /* \"Bootcamp_flat.sol\":4439:4443  true */\n      0x01\n        /* \"Bootcamp_flat.sol\":4393:4444  TransferFee(_from,_to,_amount,block.timestamp,true) */\n      mload(0x40)\n      tag_147\n      swap6\n      swap5\n      swap4\n      swap3\n      swap2\n      swap1\n      tag_148\n      jump\t// in\n    tag_147:\n      mload(0x40)\n      dup1\n      swap2\n      sub\n      swap1\n      log1\n        /* \"Bootcamp_flat.sol\":4220:4452  function finalTransfer (address _from,address _to,uint _amount) public {\r... */\n      pop\n      pop\n      pop\n      jump\t// out\n        /* \"Bootcamp_flat.sol\":783:1017  function pushArray() public returns (uint){\r... */\n    tag_69:\n        /* \"Bootcamp_flat.sol\":820:824  uint */\n      0x00\n        /* \"Bootcamp_flat.sol\":836:840  test */\n      0x03\n        /* \"Bootcamp_flat.sol\":846:848  10 */\n      0x0a\n        /* \"Bootcamp_flat.sol\":836:849  test.push(10) */\n      swap1\n      dup1\n      0x01\n      dup2\n      sload\n      add\n      dup1\n      dup3\n      sstore\n      dup1\n      swap2\n      pop\n      pop\n      0x01\n      swap1\n      sub\n      swap1\n      0x00\n      mstore\n      keccak256(0x00, 0x20)\n      add\n      0x00\n      swap1\n      swap2\n      swap1\n      swap2\n      swap1\n      swap2\n      pop\n      sstore\n        /* \"Bootcamp_flat.sol\":860:864  test */\n      0x03\n        /* \"Bootcamp_flat.sol\":870:872  20 */\n      0x14\n        /* \"Bootcamp_flat.sol\":860:873  test.push(20) */\n      swap1\n      dup1\n      0x01\n      dup2\n      sload\n      add\n      dup1\n      dup3\n      sstore\n      dup1\n      swap2\n      pop\n      pop\n      0x01\n      swap1\n      sub\n      swap1\n      0x00\n      mstore\n      keccak256(0x00, 0x20)\n      add\n      0x00\n      swap1\n      swap2\n      swap1\n      swap2\n      swap1\n      swap2\n      pop\n      sstore\n        /* \"Bootcamp_flat.sol\":884:895  uint output */\n      0x00\n        /* \"Bootcamp_flat.sol\":914:920  uint i */\n      dup1\n        /* \"Bootcamp_flat.sol\":910:986  for(uint i=0;i<=test.length;i++){\r... */\n    tag_152:\n        /* \"Bootcamp_flat.sol\":926:930  test */\n      0x03\n        /* \"Bootcamp_flat.sol\":926:937  test.length */\n      dup1\n      sload\n      swap1\n      pop\n        /* \"Bootcamp_flat.sol\":923:924  i */\n      dup2\n        /* \"Bootcamp_flat.sol\":923:937  i<=test.length */\n      gt\n        /* \"Bootcamp_flat.sol\":910:986  for(uint i=0;i<=test.length;i++){\r... */\n      tag_153\n      jumpi\n        /* \"Bootcamp_flat.sol\":967:971  test */\n      0x03\n        /* \"Bootcamp_flat.sol\":972:973  i */\n      dup2\n        /* \"Bootcamp_flat.sol\":967:974  test[i] */\n      dup2\n      sload\n      dup2\n      lt\n      tag_155\n      jumpi\n      tag_156\n      tag_104\n      jump\t// in\n    tag_156:\n    tag_155:\n      swap1\n      0x00\n      mstore\n      keccak256(0x00, 0x20)\n      add\n      sload\n        /* \"Bootcamp_flat.sol\":958:974  output+= test[i] */\n      dup3\n      tag_158\n      swap2\n      swap1\n      tag_115\n      jump\t// in\n    tag_158:\n      swap2\n      pop\n        /* \"Bootcamp_flat.sol\":938:941  i++ */\n      dup1\n      dup1\n      tag_159\n      swap1\n      tag_117\n      jump\t// in\n    tag_159:\n      swap2\n      pop\n      pop\n        /* \"Bootcamp_flat.sol\":910:986  for(uint i=0;i<=test.length;i++){\r... */\n      jump(tag_152)\n    tag_153:\n      pop\n        /* \"Bootcamp_flat.sol\":1003:1009  output */\n      dup1\n        /* \"Bootcamp_flat.sol\":996:1009  return output */\n      swap2\n      pop\n      pop\n        /* \"Bootcamp_flat.sol\":783:1017  function pushArray() public returns (uint){\r... */\n      swap1\n      jump\t// out\n        /* \"Bootcamp_flat.sol\":3281:3407  function hash(string memory _input) public view returns (bytes32){\r... */\n    tag_74:\n        /* \"Bootcamp_flat.sol\":3338:3345  bytes32 */\n      0x00\n        /* \"Bootcamp_flat.sol\":3391:3397  _input */\n      dup2\n        /* \"Bootcamp_flat.sol\":3374:3398  abi.encodePacked(_input) */\n      add(0x20, mload(0x40))\n      tag_161\n      swap2\n      swap1\n      tag_162\n      jump\t// in\n    tag_161:\n      mload(0x40)\n      0x20\n      dup2\n      dup4\n      sub\n      sub\n      dup2\n      mstore\n      swap1\n      0x40\n      mstore\n        /* \"Bootcamp_flat.sol\":3364:3399  keccak256(abi.encodePacked(_input)) */\n      dup1\n      mload\n      swap1\n      0x20\n      add\n      keccak256\n        /* \"Bootcamp_flat.sol\":3357:3399  return keccak256(abi.encodePacked(_input)) */\n      swap1\n      pop\n        /* \"Bootcamp_flat.sol\":3281:3407  function hash(string memory _input) public view returns (bytes32){\r... */\n      swap2\n      swap1\n      pop\n      jump\t// out\n        /* \"Bootcamp_flat.sol\":3558:4020  function errorHandling(uint _input) public {\r... */\n    tag_80:\n        /* \"Bootcamp_flat.sol\":4000:4001  5 */\n      0x05\n        /* \"Bootcamp_flat.sol\":3991:3997  _input */\n      dup2\n        /* \"Bootcamp_flat.sol\":3991:4001  _input > 5 */\n      gt\n        /* \"Bootcamp_flat.sol\":3984:4002  assert(_input > 5) */\n      tag_164\n      jumpi\n      tag_165\n      tag_166\n      jump\t// in\n    tag_165:\n    tag_164:\n        /* \"Bootcamp_flat.sol\":3558:4020  function errorHandling(uint _input) public {\r... */\n      pop\n      jump\t// out\n        /* \"Bootcamp_flat.sol\":377:480  function sample(string memory _name) public view returns (string memory){\r... */\n    tag_84:\n        /* \"Bootcamp_flat.sol\":435:448  string memory */\n      0x60\n        /* \"Bootcamp_flat.sol\":467:472  _name */\n      dup2\n        /* \"Bootcamp_flat.sol\":460:472  return _name */\n      swap1\n      pop\n        /* \"Bootcamp_flat.sol\":377:480  function sample(string memory _name) public view returns (string memory){\r... */\n      swap2\n      swap1\n      pop\n      jump\t// out\n        /* \"Bootcamp_flat.sol\":1803:1899  function GetBalance() public view returns(uint){  \r... */\n    tag_89:\n        /* \"Bootcamp_flat.sol\":1845:1849  uint */\n      0x00\n        /* \"Bootcamp_flat.sol\":1870:1891  address(this).balance */\n      selfbalance\n        /* \"Bootcamp_flat.sol\":1863:1891  return address(this).balance */\n      swap1\n      pop\n        /* \"Bootcamp_flat.sol\":1803:1899  function GetBalance() public view returns(uint){  \r... */\n      swap1\n      jump\t// out\n    tag_101:\n      mload(0x40)\n      dup1\n      0x60\n      add\n      0x40\n      mstore\n      dup1\n      0x03\n      swap1\n      0x20\n      dup3\n      mul\n      dup1\n      calldatasize\n      dup4\n      calldatacopy\n      dup1\n      dup3\n      add\n      swap2\n      pop\n      pop\n      swap1\n      pop\n      pop\n      swap1\n      jump\t// out\n    tag_132:\n      mload(0x40)\n      dup1\n      0x60\n      add\n      0x40\n      mstore\n      dup1\n      0x00\n      dup2\n      mstore\n      0x20\n      add\n      0x60\n      dup2\n      mstore\n      0x20\n      add\n      0x00\n      dup2\n      mstore\n      pop\n      swap1\n      jump\t// out\n        /* \"#utility.yul\":7:419   */\n    tag_170:\n        /* \"#utility.yul\":85:90   */\n      0x00\n        /* \"#utility.yul\":110:176   */\n      tag_172\n        /* \"#utility.yul\":126:175   */\n      tag_173\n        /* \"#utility.yul\":168:174   */\n      dup5\n        /* \"#utility.yul\":126:175   */\n      tag_174\n      jump\t// in\n    tag_173:\n        /* \"#utility.yul\":110:176   */\n      tag_175\n      jump\t// in\n    tag_172:\n        /* \"#utility.yul\":101:176   */\n      swap1\n      pop\n        /* \"#utility.yul\":199:205   */\n      dup3\n        /* \"#utility.yul\":192:197   */\n      dup2\n        /* \"#utility.yul\":185:206   */\n      mstore\n        /* \"#utility.yul\":237:241   */\n      0x20\n        /* \"#utility.yul\":230:235   */\n      dup2\n        /* \"#utility.yul\":226:242   */\n      add\n        /* \"#utility.yul\":275:278   */\n      dup5\n        /* \"#utility.yul\":266:272   */\n      dup5\n        /* \"#utility.yul\":261:264   */\n      dup5\n        /* \"#utility.yul\":257:273   */\n      add\n        /* \"#utility.yul\":254:279   */\n      gt\n        /* \"#utility.yul\":251:363   */\n      iszero\n      tag_176\n      jumpi\n        /* \"#utility.yul\":282:361   */\n      tag_177\n      tag_178\n      jump\t// in\n    tag_177:\n        /* \"#utility.yul\":251:363   */\n    tag_176:\n        /* \"#utility.yul\":372:413   */\n      tag_179\n        /* \"#utility.yul\":406:412   */\n      dup5\n        /* \"#utility.yul\":401:404   */\n      dup3\n        /* \"#utility.yul\":396:399   */\n      dup6\n        /* \"#utility.yul\":372:413   */\n      tag_180\n      jump\t// in\n    tag_179:\n        /* \"#utility.yul\":91:419   */\n      pop\n        /* \"#utility.yul\":7:419   */\n      swap4\n      swap3\n      pop\n      pop\n      pop\n      jump\t// out\n        /* \"#utility.yul\":425:564   */\n    tag_181:\n        /* \"#utility.yul\":471:476   */\n      0x00\n        /* \"#utility.yul\":509:515   */\n      dup2\n        /* \"#utility.yul\":496:516   */\n      calldataload\n        /* \"#utility.yul\":487:516   */\n      swap1\n      pop\n        /* \"#utility.yul\":525:558   */\n      tag_183\n        /* \"#utility.yul\":552:557   */\n      dup2\n        /* \"#utility.yul\":525:558   */\n      tag_184\n      jump\t// in\n    tag_183:\n        /* \"#utility.yul\":425:564   */\n      swap3\n      swap2\n      pop\n      pop\n      jump\t// out\n        /* \"#utility.yul\":584:924   */\n    tag_185:\n        /* \"#utility.yul\":640:645   */\n      0x00\n        /* \"#utility.yul\":689:692   */\n      dup3\n        /* \"#utility.yul\":682:686   */\n      0x1f\n        /* \"#utility.yul\":674:680   */\n      dup4\n        /* \"#utility.yul\":670:687   */\n      add\n        /* \"#utility.yul\":666:693   */\n      slt\n        /* \"#utility.yul\":656:778   */\n      tag_187\n      jumpi\n        /* \"#utility.yul\":697:776   */\n      tag_188\n      tag_189\n      jump\t// in\n    tag_188:\n        /* \"#utility.yul\":656:778   */\n    tag_187:\n        /* \"#utility.yul\":814:820   */\n      dup2\n        /* \"#utility.yul\":801:821   */\n      calldataload\n        /* \"#utility.yul\":839:918   */\n      tag_190\n        /* \"#utility.yul\":914:917   */\n      dup5\n        /* \"#utility.yul\":906:912   */\n      dup3\n        /* \"#utility.yul\":899:903   */\n      0x20\n        /* \"#utility.yul\":891:897   */\n      dup7\n        /* \"#utility.yul\":887:904   */\n      add\n        /* \"#utility.yul\":839:918   */\n      tag_170\n      jump\t// in\n    tag_190:\n        /* \"#utility.yul\":830:918   */\n      swap2\n      pop\n        /* \"#utility.yul\":646:924   */\n      pop\n        /* \"#utility.yul\":584:924   */\n      swap3\n      swap2\n      pop\n      pop\n      jump\t// out\n        /* \"#utility.yul\":930:1069   */\n    tag_191:\n        /* \"#utility.yul\":976:981   */\n      0x00\n        /* \"#utility.yul\":1014:1020   */\n      dup2\n        /* \"#utility.yul\":1001:1021   */\n      calldataload\n        /* \"#utility.yul\":992:1021   */\n      swap1\n      pop\n        /* \"#utility.yul\":1030:1063   */\n      tag_193\n        /* \"#utility.yul\":1057:1062   */\n      dup2\n        /* \"#utility.yul\":1030:1063   */\n      tag_194\n      jump\t// in\n    tag_193:\n        /* \"#utility.yul\":930:1069   */\n      swap3\n      swap2\n      pop\n      pop\n      jump\t// out\n        /* \"#utility.yul\":1075:1218   */\n    tag_195:\n        /* \"#utility.yul\":1132:1137   */\n      0x00\n        /* \"#utility.yul\":1163:1169   */\n      dup2\n        /* \"#utility.yul\":1157:1170   */\n      mload\n        /* \"#utility.yul\":1148:1170   */\n      swap1\n      pop\n        /* \"#utility.yul\":1179:1212   */\n      tag_197\n        /* \"#utility.yul\":1206:1211   */\n      dup2\n        /* \"#utility.yul\":1179:1212   */\n      tag_194\n      jump\t// in\n    tag_197:\n        /* \"#utility.yul\":1075:1218   */\n      swap3\n      swap2\n      pop\n      pop\n      jump\t// out\n        /* \"#utility.yul\":1224:1553   */\n    tag_48:\n        /* \"#utility.yul\":1283:1289   */\n      0x00\n        /* \"#utility.yul\":1332:1334   */\n      0x20\n        /* \"#utility.yul\":1320:1329   */\n      dup3\n        /* \"#utility.yul\":1311:1318   */\n      dup5\n        /* \"#utility.yul\":1307:1330   */\n      sub\n        /* \"#utility.yul\":1303:1335   */\n      slt\n        /* \"#utility.yul\":1300:1419   */\n      iszero\n      tag_199\n      jumpi\n        /* \"#utility.yul\":1338:1417   */\n      tag_200\n      tag_201\n      jump\t// in\n    tag_200:\n        /* \"#utility.yul\":1300:1419   */\n    tag_199:\n        /* \"#utility.yul\":1458:1459   */\n      0x00\n        /* \"#utility.yul\":1483:1536   */\n      tag_202\n        /* \"#utility.yul\":1528:1535   */\n      dup5\n        /* \"#utility.yul\":1519:1525   */\n      dup3\n        /* \"#utility.yul\":1508:1517   */\n      dup6\n        /* \"#utility.yul\":1504:1526   */\n      add\n        /* \"#utility.yul\":1483:1536   */\n      tag_181\n      jump\t// in\n    tag_202:\n        /* \"#utility.yul\":1473:1536   */\n      swap2\n      pop\n        /* \"#utility.yul\":1429:1546   */\n      pop\n        /* \"#utility.yul\":1224:1553   */\n      swap3\n      swap2\n      pop\n      pop\n      jump\t// out\n        /* \"#utility.yul\":1559:2178   */\n    tag_65:\n        /* \"#utility.yul\":1636:1642   */\n      0x00\n        /* \"#utility.yul\":1644:1650   */\n      dup1\n        /* \"#utility.yul\":1652:1658   */\n      0x00\n        /* \"#utility.yul\":1701:1703   */\n      0x60\n        /* \"#utility.yul\":1689:1698   */\n      dup5\n        /* \"#utility.yul\":1680:1687   */\n      dup7\n        /* \"#utility.yul\":1676:1699   */\n      sub\n        /* \"#utility.yul\":1672:1704   */\n      slt\n        /* \"#utility.yul\":1669:1788   */\n      iszero\n      tag_204\n      jumpi\n        /* \"#utility.yul\":1707:1786   */\n      tag_205\n      tag_201\n      jump\t// in\n    tag_205:\n        /* \"#utility.yul\":1669:1788   */\n    tag_204:\n        /* \"#utility.yul\":1827:1828   */\n      0x00\n        /* \"#utility.yul\":1852:1905   */\n      tag_206\n        /* \"#utility.yul\":1897:1904   */\n      dup7\n        /* \"#utility.yul\":1888:1894   */\n      dup3\n        /* \"#utility.yul\":1877:1886   */\n      dup8\n        /* \"#utility.yul\":1873:1895   */\n      add\n        /* \"#utility.yul\":1852:1905   */\n      tag_181\n      jump\t// in\n    tag_206:\n        /* \"#utility.yul\":1842:1905   */\n      swap4\n      pop\n        /* \"#utility.yul\":1798:1915   */\n      pop\n        /* \"#utility.yul\":1954:1956   */\n      0x20\n        /* \"#utility.yul\":1980:2033   */\n      tag_207\n        /* \"#utility.yul\":2025:2032   */\n      dup7\n        /* \"#utility.yul\":2016:2022   */\n      dup3\n        /* \"#utility.yul\":2005:2014   */\n      dup8\n        /* \"#utility.yul\":2001:2023   */\n      add\n        /* \"#utility.yul\":1980:2033   */\n      tag_181\n      jump\t// in\n    tag_207:\n        /* \"#utility.yul\":1970:2033   */\n      swap3\n      pop\n        /* \"#utility.yul\":1925:2043   */\n      pop\n        /* \"#utility.yul\":2082:2084   */\n      0x40\n        /* \"#utility.yul\":2108:2161   */\n      tag_208\n        /* \"#utility.yul\":2153:2160   */\n      dup7\n        /* \"#utility.yul\":2144:2150   */\n      dup3\n        /* \"#utility.yul\":2133:2142   */\n      dup8\n        /* \"#utility.yul\":2129:2151   */\n      add\n        /* \"#utility.yul\":2108:2161   */\n      tag_191\n      jump\t// in\n    tag_208:\n        /* \"#utility.yul\":2098:2161   */\n      swap2\n      pop\n        /* \"#utility.yul\":2053:2171   */\n      pop\n        /* \"#utility.yul\":1559:2178   */\n      swap3\n      pop\n      swap3\n      pop\n      swap3\n      jump\t// out\n        /* \"#utility.yul\":2184:2658   */\n    tag_38:\n        /* \"#utility.yul\":2252:2258   */\n      0x00\n        /* \"#utility.yul\":2260:2266   */\n      dup1\n        /* \"#utility.yul\":2309:2311   */\n      0x40\n        /* \"#utility.yul\":2297:2306   */\n      dup4\n        /* \"#utility.yul\":2288:2295   */\n      dup6\n        /* \"#utility.yul\":2284:2307   */\n      sub\n        /* \"#utility.yul\":2280:2312   */\n      slt\n        /* \"#utility.yul\":2277:2396   */\n      iszero\n      tag_210\n      jumpi\n        /* \"#utility.yul\":2315:2394   */\n      tag_211\n      tag_201\n      jump\t// in\n    tag_211:\n        /* \"#utility.yul\":2277:2396   */\n    tag_210:\n        /* \"#utility.yul\":2435:2436   */\n      0x00\n        /* \"#utility.yul\":2460:2513   */\n      tag_212\n        /* \"#utility.yul\":2505:2512   */\n      dup6\n        /* \"#utility.yul\":2496:2502   */\n      dup3\n        /* \"#utility.yul\":2485:2494   */\n      dup7\n        /* \"#utility.yul\":2481:2503   */\n      add\n        /* \"#utility.yul\":2460:2513   */\n      tag_181\n      jump\t// in\n    tag_212:\n        /* \"#utility.yul\":2450:2513   */\n      swap3\n      pop\n        /* \"#utility.yul\":2406:2523   */\n      pop\n        /* \"#utility.yul\":2562:2564   */\n      0x20\n        /* \"#utility.yul\":2588:2641   */\n      tag_213\n        /* \"#utility.yul\":2633:2640   */\n      dup6\n        /* \"#utility.yul\":2624:2630   */\n      dup3\n        /* \"#utility.yul\":2613:2622   */\n      dup7\n        /* \"#utility.yul\":2609:2631   */\n      add\n        /* \"#utility.yul\":2588:2641   */\n      tag_191\n      jump\t// in\n    tag_213:\n        /* \"#utility.yul\":2578:2641   */\n      swap2\n      pop\n        /* \"#utility.yul\":2533:2651   */\n      pop\n        /* \"#utility.yul\":2184:2658   */\n      swap3\n      pop\n      swap3\n      swap1\n      pop\n      jump\t// out\n        /* \"#utility.yul\":2664:3173   */\n    tag_33:\n        /* \"#utility.yul\":2733:2739   */\n      0x00\n        /* \"#utility.yul\":2782:2784   */\n      0x20\n        /* \"#utility.yul\":2770:2779   */\n      dup3\n        /* \"#utility.yul\":2761:2768   */\n      dup5\n        /* \"#utility.yul\":2757:2780   */\n      sub\n        /* \"#utility.yul\":2753:2785   */\n      slt\n        /* \"#utility.yul\":2750:2869   */\n      iszero\n      tag_215\n      jumpi\n        /* \"#utility.yul\":2788:2867   */\n      tag_216\n      tag_201\n      jump\t// in\n    tag_216:\n        /* \"#utility.yul\":2750:2869   */\n    tag_215:\n        /* \"#utility.yul\":2936:2937   */\n      0x00\n        /* \"#utility.yul\":2925:2934   */\n      dup3\n        /* \"#utility.yul\":2921:2938   */\n      add\n        /* \"#utility.yul\":2908:2939   */\n      calldataload\n        /* \"#utility.yul\":2966:2984   */\n      0xffffffffffffffff\n        /* \"#utility.yul\":2958:2964   */\n      dup2\n        /* \"#utility.yul\":2955:2985   */\n      gt\n        /* \"#utility.yul\":2952:3069   */\n      iszero\n      tag_217\n      jumpi\n        /* \"#utility.yul\":2988:3067   */\n      tag_218\n      tag_219\n      jump\t// in\n    tag_218:\n        /* \"#utility.yul\":2952:3069   */\n    tag_217:\n        /* \"#utility.yul\":3093:3156   */\n      tag_220\n        /* \"#utility.yul\":3148:3155   */\n      dup5\n        /* \"#utility.yul\":3139:3145   */\n      dup3\n        /* \"#utility.yul\":3128:3137   */\n      dup6\n        /* \"#utility.yul\":3124:3146   */\n      add\n        /* \"#utility.yul\":3093:3156   */\n      tag_185\n      jump\t// in\n    tag_220:\n        /* \"#utility.yul\":3083:3156   */\n      swap2\n      pop\n        /* \"#utility.yul\":2879:3166   */\n      pop\n        /* \"#utility.yul\":2664:3173   */\n      swap3\n      swap2\n      pop\n      pop\n      jump\t// out\n        /* \"#utility.yul\":3179:3508   */\n    tag_43:\n        /* \"#utility.yul\":3238:3244   */\n      0x00\n        /* \"#utility.yul\":3287:3289   */\n      0x20\n        /* \"#utility.yul\":3275:3284   */\n      dup3\n        /* \"#utility.yul\":3266:3273   */\n      dup5\n        /* \"#utility.yul\":3262:3285   */\n      sub\n        /* \"#utility.yul\":3258:3290   */\n      slt\n        /* \"#utility.yul\":3255:3374   */\n      iszero\n      tag_222\n      jumpi\n        /* \"#utility.yul\":3293:3372   */\n      tag_223\n      tag_201\n      jump\t// in\n    tag_223:\n        /* \"#utility.yul\":3255:3374   */\n    tag_222:\n        /* \"#utility.yul\":3413:3414   */\n      0x00\n        /* \"#utility.yul\":3438:3491   */\n      tag_224\n        /* \"#utility.yul\":3483:3490   */\n      dup5\n        /* \"#utility.yul\":3474:3480   */\n      dup3\n        /* \"#utility.yul\":3463:3472   */\n      dup6\n        /* \"#utility.yul\":3459:3481   */\n      add\n        /* \"#utility.yul\":3438:3491   */\n      tag_191\n      jump\t// in\n    tag_224:\n        /* \"#utility.yul\":3428:3491   */\n      swap2\n      pop\n        /* \"#utility.yul\":3384:3501   */\n      pop\n        /* \"#utility.yul\":3179:3508   */\n      swap3\n      swap2\n      pop\n      pop\n      jump\t// out\n        /* \"#utility.yul\":3514:3865   */\n    tag_98:\n        /* \"#utility.yul\":3584:3590   */\n      0x00\n        /* \"#utility.yul\":3633:3635   */\n      0x20\n        /* \"#utility.yul\":3621:3630   */\n      dup3\n        /* \"#utility.yul\":3612:3619   */\n      dup5\n        /* \"#utility.yul\":3608:3631   */\n      sub\n        /* \"#utility.yul\":3604:3636   */\n      slt\n        /* \"#utility.yul\":3601:3720   */\n      iszero\n      tag_226\n      jumpi\n        /* \"#utility.yul\":3639:3718   */\n      tag_227\n      tag_201\n      jump\t// in\n    tag_227:\n        /* \"#utility.yul\":3601:3720   */\n    tag_226:\n        /* \"#utility.yul\":3759:3760   */\n      0x00\n        /* \"#utility.yul\":3784:3848   */\n      tag_228\n        /* \"#utility.yul\":3840:3847   */\n      dup5\n        /* \"#utility.yul\":3831:3837   */\n      dup3\n        /* \"#utility.yul\":3820:3829   */\n      dup6\n        /* \"#utility.yul\":3816:3838   */\n      add\n        /* \"#utility.yul\":3784:3848   */\n      tag_195\n      jump\t// in\n    tag_228:\n        /* \"#utility.yul\":3774:3848   */\n      swap2\n      pop\n        /* \"#utility.yul\":3730:3858   */\n      pop\n        /* \"#utility.yul\":3514:3865   */\n      swap3\n      swap2\n      pop\n      pop\n      jump\t// out\n        /* \"#utility.yul\":3871:3989   */\n    tag_229:\n        /* \"#utility.yul\":3958:3982   */\n      tag_231\n        /* \"#utility.yul\":3976:3981   */\n      dup2\n        /* \"#utility.yul\":3958:3982   */\n      tag_232\n      jump\t// in\n    tag_231:\n        /* \"#utility.yul\":3953:3956   */\n      dup3\n        /* \"#utility.yul\":3946:3983   */\n      mstore\n        /* \"#utility.yul\":3871:3989   */\n      pop\n      pop\n      jump\t// out\n        /* \"#utility.yul\":3995:4104   */\n    tag_233:\n        /* \"#utility.yul\":4076:4097   */\n      tag_235\n        /* \"#utility.yul\":4091:4096   */\n      dup2\n        /* \"#utility.yul\":4076:4097   */\n      tag_236\n      jump\t// in\n    tag_235:\n        /* \"#utility.yul\":4071:4074   */\n      dup3\n        /* \"#utility.yul\":4064:4098   */\n      mstore\n        /* \"#utility.yul\":3995:4104   */\n      pop\n      pop\n      jump\t// out\n        /* \"#utility.yul\":4110:4228   */\n    tag_237:\n        /* \"#utility.yul\":4197:4221   */\n      tag_239\n        /* \"#utility.yul\":4215:4220   */\n      dup2\n        /* \"#utility.yul\":4197:4221   */\n      tag_240\n      jump\t// in\n    tag_239:\n        /* \"#utility.yul\":4192:4195   */\n      dup3\n        /* \"#utility.yul\":4185:4222   */\n      mstore\n        /* \"#utility.yul\":4110:4228   */\n      pop\n      pop\n      jump\t// out\n        /* \"#utility.yul\":4234:4391   */\n    tag_241:\n        /* \"#utility.yul\":4338:4384   */\n      tag_243\n        /* \"#utility.yul\":4378:4383   */\n      dup2\n        /* \"#utility.yul\":4338:4384   */\n      tag_244\n      jump\t// in\n    tag_243:\n        /* \"#utility.yul\":4333:4336   */\n      dup3\n        /* \"#utility.yul\":4326:4385   */\n      mstore\n        /* \"#utility.yul\":4234:4391   */\n      pop\n      pop\n      jump\t// out\n        /* \"#utility.yul\":4397:4554   */\n    tag_245:\n        /* \"#utility.yul\":4501:4547   */\n      tag_247\n        /* \"#utility.yul\":4541:4546   */\n      dup2\n        /* \"#utility.yul\":4501:4547   */\n      tag_248\n      jump\t// in\n    tag_247:\n        /* \"#utility.yul\":4496:4499   */\n      dup3\n        /* \"#utility.yul\":4489:4548   */\n      mstore\n        /* \"#utility.yul\":4397:4554   */\n      pop\n      pop\n      jump\t// out\n        /* \"#utility.yul\":4560:4924   */\n    tag_249:\n        /* \"#utility.yul\":4648:4651   */\n      0x00\n        /* \"#utility.yul\":4676:4715   */\n      tag_251\n        /* \"#utility.yul\":4709:4714   */\n      dup3\n        /* \"#utility.yul\":4676:4715   */\n      tag_252\n      jump\t// in\n    tag_251:\n        /* \"#utility.yul\":4731:4802   */\n      tag_253\n        /* \"#utility.yul\":4795:4801   */\n      dup2\n        /* \"#utility.yul\":4790:4793   */\n      dup6\n        /* \"#utility.yul\":4731:4802   */\n      tag_254\n      jump\t// in\n    tag_253:\n        /* \"#utility.yul\":4724:4802   */\n      swap4\n      pop\n        /* \"#utility.yul\":4811:4863   */\n      tag_255\n        /* \"#utility.yul\":4856:4862   */\n      dup2\n        /* \"#utility.yul\":4851:4854   */\n      dup6\n        /* \"#utility.yul\":4844:4848   */\n      0x20\n        /* \"#utility.yul\":4837:4842   */\n      dup7\n        /* \"#utility.yul\":4833:4849   */\n      add\n        /* \"#utility.yul\":4811:4863   */\n      tag_256\n      jump\t// in\n    tag_255:\n        /* \"#utility.yul\":4888:4917   */\n      tag_257\n        /* \"#utility.yul\":4910:4916   */\n      dup2\n        /* \"#utility.yul\":4888:4917   */\n      tag_258\n      jump\t// in\n    tag_257:\n        /* \"#utility.yul\":4883:4886   */\n      dup5\n        /* \"#utility.yul\":4879:4918   */\n      add\n        /* \"#utility.yul\":4872:4918   */\n      swap2\n      pop\n        /* \"#utility.yul\":4652:4924   */\n      pop\n        /* \"#utility.yul\":4560:4924   */\n      swap3\n      swap2\n      pop\n      pop\n      jump\t// out\n        /* \"#utility.yul\":4930:5307   */\n    tag_259:\n        /* \"#utility.yul\":5036:5039   */\n      0x00\n        /* \"#utility.yul\":5064:5103   */\n      tag_261\n        /* \"#utility.yul\":5097:5102   */\n      dup3\n        /* \"#utility.yul\":5064:5103   */\n      tag_252\n      jump\t// in\n    tag_261:\n        /* \"#utility.yul\":5119:5208   */\n      tag_262\n        /* \"#utility.yul\":5201:5207   */\n      dup2\n        /* \"#utility.yul\":5196:5199   */\n      dup6\n        /* \"#utility.yul\":5119:5208   */\n      tag_263\n      jump\t// in\n    tag_262:\n        /* \"#utility.yul\":5112:5208   */\n      swap4\n      pop\n        /* \"#utility.yul\":5217:5269   */\n      tag_264\n        /* \"#utility.yul\":5262:5268   */\n      dup2\n        /* \"#utility.yul\":5257:5260   */\n      dup6\n        /* \"#utility.yul\":5250:5254   */\n      0x20\n        /* \"#utility.yul\":5243:5248   */\n      dup7\n        /* \"#utility.yul\":5239:5255   */\n      add\n        /* \"#utility.yul\":5217:5269   */\n      tag_256\n      jump\t// in\n    tag_264:\n        /* \"#utility.yul\":5294:5300   */\n      dup1\n        /* \"#utility.yul\":5289:5292   */\n      dup5\n        /* \"#utility.yul\":5285:5301   */\n      add\n        /* \"#utility.yul\":5278:5301   */\n      swap2\n      pop\n        /* \"#utility.yul\":5040:5307   */\n      pop\n        /* \"#utility.yul\":4930:5307   */\n      swap3\n      swap2\n      pop\n      pop\n      jump\t// out\n        /* \"#utility.yul\":5313:5679   */\n    tag_265:\n        /* \"#utility.yul\":5455:5458   */\n      0x00\n        /* \"#utility.yul\":5476:5543   */\n      tag_267\n        /* \"#utility.yul\":5540:5542   */\n      0x10\n        /* \"#utility.yul\":5535:5538   */\n      dup4\n        /* \"#utility.yul\":5476:5543   */\n      tag_254\n      jump\t// in\n    tag_267:\n        /* \"#utility.yul\":5469:5543   */\n      swap2\n      pop\n        /* \"#utility.yul\":5552:5645   */\n      tag_268\n        /* \"#utility.yul\":5641:5644   */\n      dup3\n        /* \"#utility.yul\":5552:5645   */\n      tag_269\n      jump\t// in\n    tag_268:\n        /* \"#utility.yul\":5670:5672   */\n      0x20\n        /* \"#utility.yul\":5665:5668   */\n      dup3\n        /* \"#utility.yul\":5661:5673   */\n      add\n        /* \"#utility.yul\":5654:5673   */\n      swap1\n      pop\n        /* \"#utility.yul\":5313:5679   */\n      swap2\n      swap1\n      pop\n      jump\t// out\n        /* \"#utility.yul\":5685:5803   */\n    tag_270:\n        /* \"#utility.yul\":5772:5796   */\n      tag_272\n        /* \"#utility.yul\":5790:5795   */\n      dup2\n        /* \"#utility.yul\":5772:5796   */\n      tag_273\n      jump\t// in\n    tag_272:\n        /* \"#utility.yul\":5767:5770   */\n      dup3\n        /* \"#utility.yul\":5760:5797   */\n      mstore\n        /* \"#utility.yul\":5685:5803   */\n      pop\n      pop\n      jump\t// out\n        /* \"#utility.yul\":5809:6084   */\n    tag_162:\n        /* \"#utility.yul\":5941:5944   */\n      0x00\n        /* \"#utility.yul\":5963:6058   */\n      tag_275\n        /* \"#utility.yul\":6054:6057   */\n      dup3\n        /* \"#utility.yul\":6045:6051   */\n      dup5\n        /* \"#utility.yul\":5963:6058   */\n      tag_259\n      jump\t// in\n    tag_275:\n        /* \"#utility.yul\":5956:6058   */\n      swap2\n      pop\n        /* \"#utility.yul\":6075:6078   */\n      dup2\n        /* \"#utility.yul\":6068:6078   */\n      swap1\n      pop\n        /* \"#utility.yul\":5809:6084   */\n      swap3\n      swap2\n      pop\n      pop\n      jump\t// out\n        /* \"#utility.yul\":6090:6742   */\n    tag_148:\n        /* \"#utility.yul\":6289:6293   */\n      0x00\n        /* \"#utility.yul\":6327:6330   */\n      0xa0\n        /* \"#utility.yul\":6316:6325   */\n      dup3\n        /* \"#utility.yul\":6312:6331   */\n      add\n        /* \"#utility.yul\":6304:6331   */\n      swap1\n      pop\n        /* \"#utility.yul\":6341:6412   */\n      tag_277\n        /* \"#utility.yul\":6409:6410   */\n      0x00\n        /* \"#utility.yul\":6398:6407   */\n      dup4\n        /* \"#utility.yul\":6394:6411   */\n      add\n        /* \"#utility.yul\":6385:6391   */\n      dup9\n        /* \"#utility.yul\":6341:6412   */\n      tag_229\n      jump\t// in\n    tag_277:\n        /* \"#utility.yul\":6422:6494   */\n      tag_278\n        /* \"#utility.yul\":6490:6492   */\n      0x20\n        /* \"#utility.yul\":6479:6488   */\n      dup4\n        /* \"#utility.yul\":6475:6493   */\n      add\n        /* \"#utility.yul\":6466:6472   */\n      dup8\n        /* \"#utility.yul\":6422:6494   */\n      tag_229\n      jump\t// in\n    tag_278:\n        /* \"#utility.yul\":6504:6576   */\n      tag_279\n        /* \"#utility.yul\":6572:6574   */\n      0x40\n        /* \"#utility.yul\":6561:6570   */\n      dup4\n        /* \"#utility.yul\":6557:6575   */\n      add\n        /* \"#utility.yul\":6548:6554   */\n      dup7\n        /* \"#utility.yul\":6504:6576   */\n      tag_270\n      jump\t// in\n    tag_279:\n        /* \"#utility.yul\":6586:6658   */\n      tag_280\n        /* \"#utility.yul\":6654:6656   */\n      0x60\n        /* \"#utility.yul\":6643:6652   */\n      dup4\n        /* \"#utility.yul\":6639:6657   */\n      add\n        /* \"#utility.yul\":6630:6636   */\n      dup6\n        /* \"#utility.yul\":6586:6658   */\n      tag_270\n      jump\t// in\n    tag_280:\n        /* \"#utility.yul\":6668:6735   */\n      tag_281\n        /* \"#utility.yul\":6730:6733   */\n      0x80\n        /* \"#utility.yul\":6719:6728   */\n      dup4\n        /* \"#utility.yul\":6715:6734   */\n      add\n        /* \"#utility.yul\":6706:6712   */\n      dup5\n        /* \"#utility.yul\":6668:6735   */\n      tag_233\n      jump\t// in\n    tag_281:\n        /* \"#utility.yul\":6090:6742   */\n      swap7\n      swap6\n      pop\n      pop\n      pop\n      pop\n      pop\n      pop\n      jump\t// out\n        /* \"#utility.yul\":6748:6970   */\n    tag_76:\n        /* \"#utility.yul\":6841:6845   */\n      0x00\n        /* \"#utility.yul\":6879:6881   */\n      0x20\n        /* \"#utility.yul\":6868:6877   */\n      dup3\n        /* \"#utility.yul\":6864:6882   */\n      add\n        /* \"#utility.yul\":6856:6882   */\n      swap1\n      pop\n        /* \"#utility.yul\":6892:6963   */\n      tag_283\n        /* \"#utility.yul\":6960:6961   */\n      0x00\n        /* \"#utility.yul\":6949:6958   */\n      dup4\n        /* \"#utility.yul\":6945:6962   */\n      add\n        /* \"#utility.yul\":6936:6942   */\n      dup5\n        /* \"#utility.yul\":6892:6963   */\n      tag_237\n      jump\t// in\n    tag_283:\n        /* \"#utility.yul\":6748:6970   */\n      swap3\n      swap2\n      pop\n      pop\n      jump\t// out\n        /* \"#utility.yul\":6976:7368   */\n    tag_93:\n        /* \"#utility.yul\":7123:7127   */\n      0x00\n        /* \"#utility.yul\":7161:7163   */\n      0x40\n        /* \"#utility.yul\":7150:7159   */\n      dup3\n        /* \"#utility.yul\":7146:7164   */\n      add\n        /* \"#utility.yul\":7138:7164   */\n      swap1\n      pop\n        /* \"#utility.yul\":7174:7262   */\n      tag_285\n        /* \"#utility.yul\":7259:7260   */\n      0x00\n        /* \"#utility.yul\":7248:7257   */\n      dup4\n        /* \"#utility.yul\":7244:7261   */\n      add\n        /* \"#utility.yul\":7235:7241   */\n      dup6\n        /* \"#utility.yul\":7174:7262   */\n      tag_241\n      jump\t// in\n    tag_285:\n        /* \"#utility.yul\":7272:7361   */\n      tag_286\n        /* \"#utility.yul\":7357:7359   */\n      0x20\n        /* \"#utility.yul\":7346:7355   */\n      dup4\n        /* \"#utility.yul\":7342:7360   */\n      add\n        /* \"#utility.yul\":7333:7339   */\n      dup5\n        /* \"#utility.yul\":7272:7361   */\n      tag_245\n      jump\t// in\n    tag_286:\n        /* \"#utility.yul\":6976:7368   */\n      swap4\n      swap3\n      pop\n      pop\n      pop\n      jump\t// out\n        /* \"#utility.yul\":7374:7687   */\n    tag_86:\n        /* \"#utility.yul\":7487:7491   */\n      0x00\n        /* \"#utility.yul\":7525:7527   */\n      0x20\n        /* \"#utility.yul\":7514:7523   */\n      dup3\n        /* \"#utility.yul\":7510:7528   */\n      add\n        /* \"#utility.yul\":7502:7528   */\n      swap1\n      pop\n        /* \"#utility.yul\":7574:7583   */\n      dup2\n        /* \"#utility.yul\":7568:7572   */\n      dup2\n        /* \"#utility.yul\":7564:7584   */\n      sub\n        /* \"#utility.yul\":7560:7561   */\n      0x00\n        /* \"#utility.yul\":7549:7558   */\n      dup4\n        /* \"#utility.yul\":7545:7562   */\n      add\n        /* \"#utility.yul\":7538:7585   */\n      mstore\n        /* \"#utility.yul\":7602:7680   */\n      tag_288\n        /* \"#utility.yul\":7675:7679   */\n      dup2\n        /* \"#utility.yul\":7666:7672   */\n      dup5\n        /* \"#utility.yul\":7602:7680   */\n      tag_249\n      jump\t// in\n    tag_288:\n        /* \"#utility.yul\":7594:7680   */\n      swap1\n      pop\n        /* \"#utility.yul\":7374:7687   */\n      swap3\n      swap2\n      pop\n      pop\n      jump\t// out\n        /* \"#utility.yul\":7693:8112   */\n    tag_129:\n        /* \"#utility.yul\":7859:7863   */\n      0x00\n        /* \"#utility.yul\":7897:7899   */\n      0x20\n        /* \"#utility.yul\":7886:7895   */\n      dup3\n        /* \"#utility.yul\":7882:7900   */\n      add\n        /* \"#utility.yul\":7874:7900   */\n      swap1\n      pop\n        /* \"#utility.yul\":7946:7955   */\n      dup2\n        /* \"#utility.yul\":7940:7944   */\n      dup2\n        /* \"#utility.yul\":7936:7956   */\n      sub\n        /* \"#utility.yul\":7932:7933   */\n      0x00\n        /* \"#utility.yul\":7921:7930   */\n      dup4\n        /* \"#utility.yul\":7917:7934   */\n      add\n        /* \"#utility.yul\":7910:7957   */\n      mstore\n        /* \"#utility.yul\":7974:8105   */\n      tag_290\n        /* \"#utility.yul\":8100:8104   */\n      dup2\n        /* \"#utility.yul\":7974:8105   */\n      tag_265\n      jump\t// in\n    tag_290:\n        /* \"#utility.yul\":7966:8105   */\n      swap1\n      pop\n        /* \"#utility.yul\":7693:8112   */\n      swap2\n      swap1\n      pop\n      jump\t// out\n        /* \"#utility.yul\":8118:8340   */\n    tag_25:\n        /* \"#utility.yul\":8211:8215   */\n      0x00\n        /* \"#utility.yul\":8249:8251   */\n      0x20\n        /* \"#utility.yul\":8238:8247   */\n      dup3\n        /* \"#utility.yul\":8234:8252   */\n      add\n        /* \"#utility.yul\":8226:8252   */\n      swap1\n      pop\n        /* \"#utility.yul\":8262:8333   */\n      tag_292\n        /* \"#utility.yul\":8330:8331   */\n      0x00\n        /* \"#utility.yul\":8319:8328   */\n      dup4\n        /* \"#utility.yul\":8315:8332   */\n      add\n        /* \"#utility.yul\":8306:8312   */\n      dup5\n        /* \"#utility.yul\":8262:8333   */\n      tag_270\n      jump\t// in\n    tag_292:\n        /* \"#utility.yul\":8118:8340   */\n      swap3\n      swap2\n      pop\n      pop\n      jump\t// out\n        /* \"#utility.yul\":8346:8475   */\n    tag_175:\n        /* \"#utility.yul\":8380:8386   */\n      0x00\n        /* \"#utility.yul\":8407:8427   */\n      tag_294\n      tag_295\n      jump\t// in\n    tag_294:\n        /* \"#utility.yul\":8397:8427   */\n      swap1\n      pop\n        /* \"#utility.yul\":8436:8469   */\n      tag_296\n        /* \"#utility.yul\":8464:8468   */\n      dup3\n        /* \"#utility.yul\":8456:8462   */\n      dup3\n        /* \"#utility.yul\":8436:8469   */\n      tag_297\n      jump\t// in\n    tag_296:\n        /* \"#utility.yul\":8346:8475   */\n      swap2\n      swap1\n      pop\n      jump\t// out\n        /* \"#utility.yul\":8481:8556   */\n    tag_295:\n        /* \"#utility.yul\":8514:8520   */\n      0x00\n        /* \"#utility.yul\":8547:8549   */\n      0x40\n        /* \"#utility.yul\":8541:8550   */\n      mload\n        /* \"#utility.yul\":8531:8550   */\n      swap1\n      pop\n        /* \"#utility.yul\":8481:8556   */\n      swap1\n      jump\t// out\n        /* \"#utility.yul\":8562:8870   */\n    tag_174:\n        /* \"#utility.yul\":8624:8628   */\n      0x00\n        /* \"#utility.yul\":8714:8732   */\n      0xffffffffffffffff\n        /* \"#utility.yul\":8706:8712   */\n      dup3\n        /* \"#utility.yul\":8703:8733   */\n      gt\n        /* \"#utility.yul\":8700:8756   */\n      iszero\n      tag_300\n      jumpi\n        /* \"#utility.yul\":8736:8754   */\n      tag_301\n      tag_302\n      jump\t// in\n    tag_301:\n        /* \"#utility.yul\":8700:8756   */\n    tag_300:\n        /* \"#utility.yul\":8774:8803   */\n      tag_303\n        /* \"#utility.yul\":8796:8802   */\n      dup3\n        /* \"#utility.yul\":8774:8803   */\n      tag_258\n      jump\t// in\n    tag_303:\n        /* \"#utility.yul\":8766:8803   */\n      swap1\n      pop\n        /* \"#utility.yul\":8858:8862   */\n      0x20\n        /* \"#utility.yul\":8852:8856   */\n      dup2\n        /* \"#utility.yul\":8848:8863   */\n      add\n        /* \"#utility.yul\":8840:8863   */\n      swap1\n      pop\n        /* \"#utility.yul\":8562:8870   */\n      swap2\n      swap1\n      pop\n      jump\t// out\n        /* \"#utility.yul\":8876:8975   */\n    tag_252:\n        /* \"#utility.yul\":8928:8934   */\n      0x00\n        /* \"#utility.yul\":8962:8967   */\n      dup2\n        /* \"#utility.yul\":8956:8968   */\n      mload\n        /* \"#utility.yul\":8946:8968   */\n      swap1\n      pop\n        /* \"#utility.yul\":8876:8975   */\n      swap2\n      swap1\n      pop\n      jump\t// out\n        /* \"#utility.yul\":8981:9150   */\n    tag_254:\n        /* \"#utility.yul\":9065:9076   */\n      0x00\n        /* \"#utility.yul\":9099:9105   */\n      dup3\n        /* \"#utility.yul\":9094:9097   */\n      dup3\n        /* \"#utility.yul\":9087:9106   */\n      mstore\n        /* \"#utility.yul\":9139:9143   */\n      0x20\n        /* \"#utility.yul\":9134:9137   */\n      dup3\n        /* \"#utility.yul\":9130:9144   */\n      add\n        /* \"#utility.yul\":9115:9144   */\n      swap1\n      pop\n        /* \"#utility.yul\":8981:9150   */\n      swap3\n      swap2\n      pop\n      pop\n      jump\t// out\n        /* \"#utility.yul\":9156:9304   */\n    tag_263:\n        /* \"#utility.yul\":9258:9269   */\n      0x00\n        /* \"#utility.yul\":9295:9298   */\n      dup2\n        /* \"#utility.yul\":9280:9298   */\n      swap1\n      pop\n        /* \"#utility.yul\":9156:9304   */\n      swap3\n      swap2\n      pop\n      pop\n      jump\t// out\n        /* \"#utility.yul\":9310:9615   */\n    tag_115:\n        /* \"#utility.yul\":9350:9353   */\n      0x00\n        /* \"#utility.yul\":9369:9389   */\n      tag_308\n        /* \"#utility.yul\":9387:9388   */\n      dup3\n        /* \"#utility.yul\":9369:9389   */\n      tag_273\n      jump\t// in\n    tag_308:\n        /* \"#utility.yul\":9364:9389   */\n      swap2\n      pop\n        /* \"#utility.yul\":9403:9423   */\n      tag_309\n        /* \"#utility.yul\":9421:9422   */\n      dup4\n        /* \"#utility.yul\":9403:9423   */\n      tag_273\n      jump\t// in\n    tag_309:\n        /* \"#utility.yul\":9398:9423   */\n      swap3\n      pop\n        /* \"#utility.yul\":9557:9558   */\n      dup3\n        /* \"#utility.yul\":9489:9555   */\n      0xffffffffffffffffffffffffffffffffffffffffffffffffffffffffffffffff\n        /* \"#utility.yul\":9485:9559   */\n      sub\n        /* \"#utility.yul\":9482:9483   */\n      dup3\n        /* \"#utility.yul\":9479:9560   */\n      gt\n        /* \"#utility.yul\":9476:9583   */\n      iszero\n      tag_310\n      jumpi\n        /* \"#utility.yul\":9563:9581   */\n      tag_311\n      tag_312\n      jump\t// in\n    tag_311:\n        /* \"#utility.yul\":9476:9583   */\n    tag_310:\n        /* \"#utility.yul\":9607:9608   */\n      dup3\n        /* \"#utility.yul\":9604:9605   */\n      dup3\n        /* \"#utility.yul\":9600:9609   */\n      add\n        /* \"#utility.yul\":9593:9609   */\n      swap1\n      pop\n        /* \"#utility.yul\":9310:9615   */\n      swap3\n      swap2\n      pop\n      pop\n      jump\t// out\n        /* \"#utility.yul\":9621:9969   */\n    tag_113:\n        /* \"#utility.yul\":9661:9668   */\n      0x00\n        /* \"#utility.yul\":9684:9704   */\n      tag_314\n        /* \"#utility.yul\":9702:9703   */\n      dup3\n        /* \"#utility.yul\":9684:9704   */\n      tag_273\n      jump\t// in\n    tag_314:\n        /* \"#utility.yul\":9679:9704   */\n      swap2\n      pop\n        /* \"#utility.yul\":9718:9738   */\n      tag_315\n        /* \"#utility.yul\":9736:9737   */\n      dup4\n        /* \"#utility.yul\":9718:9738   */\n      tag_273\n      jump\t// in\n    tag_315:\n        /* \"#utility.yul\":9713:9738   */\n      swap3\n      pop\n        /* \"#utility.yul\":9906:9907   */\n      dup2\n        /* \"#utility.yul\":9838:9904   */\n      0xffffffffffffffffffffffffffffffffffffffffffffffffffffffffffffffff\n        /* \"#utility.yul\":9834:9908   */\n      div\n        /* \"#utility.yul\":9831:9832   */\n      dup4\n        /* \"#utility.yul\":9828:9909   */\n      gt\n        /* \"#utility.yul\":9823:9824   */\n      dup3\n        /* \"#utility.yul\":9816:9825   */\n      iszero\n        /* \"#utility.yul\":9809:9826   */\n      iszero\n        /* \"#utility.yul\":9805:9910   */\n      and\n        /* \"#utility.yul\":9802:9933   */\n      iszero\n      tag_316\n      jumpi\n        /* \"#utility.yul\":9913:9931   */\n      tag_317\n      tag_312\n      jump\t// in\n    tag_317:\n        /* \"#utility.yul\":9802:9933   */\n    tag_316:\n        /* \"#utility.yul\":9961:9962   */\n      dup3\n        /* \"#utility.yul\":9958:9959   */\n      dup3\n        /* \"#utility.yul\":9954:9963   */\n      mul\n        /* \"#utility.yul\":9943:9963   */\n      swap1\n      pop\n        /* \"#utility.yul\":9621:9969   */\n      swap3\n      swap2\n      pop\n      pop\n      jump\t// out\n        /* \"#utility.yul\":9975:10071   */\n    tag_232:\n        /* \"#utility.yul\":10012:10019   */\n      0x00\n        /* \"#utility.yul\":10041:10065   */\n      tag_319\n        /* \"#utility.yul\":10059:10064   */\n      dup3\n        /* \"#utility.yul\":10041:10065   */\n      tag_320\n      jump\t// in\n    tag_319:\n        /* \"#utility.yul\":10030:10065   */\n      swap1\n      pop\n        /* \"#utility.yul\":9975:10071   */\n      swap2\n      swap1\n      pop\n      jump\t// out\n        /* \"#utility.yul\":10077:10167   */\n    tag_236:\n        /* \"#utility.yul\":10111:10118   */\n      0x00\n        /* \"#utility.yul\":10154:10159   */\n      dup2\n        /* \"#utility.yul\":10147:10160   */\n      iszero\n        /* \"#utility.yul\":10140:10161   */\n      iszero\n        /* \"#utility.yul\":10129:10161   */\n      swap1\n      pop\n        /* \"#utility.yul\":10077:10167   */\n      swap2\n      swap1\n      pop\n      jump\t// out\n        /* \"#utility.yul\":10173:10250   */\n    tag_240:\n        /* \"#utility.yul\":10210:10217   */\n      0x00\n        /* \"#utility.yul\":10239:10244   */\n      dup2\n        /* \"#utility.yul\":10228:10244   */\n      swap1\n      pop\n        /* \"#utility.yul\":10173:10250   */\n      swap2\n      swap1\n      pop\n      jump\t// out\n        /* \"#utility.yul\":10256:10382   */\n    tag_320:\n        /* \"#utility.yul\":10293:10300   */\n      0x00\n        /* \"#utility.yul\":10333:10375   */\n      0xffffffffffffffffffffffffffffffffffffffff\n        /* \"#utility.yul\":10326:10331   */\n      dup3\n        /* \"#utility.yul\":10322:10376   */\n      and\n        /* \"#utility.yul\":10311:10376   */\n      swap1\n      pop\n        /* \"#utility.yul\":10256:10382   */\n      swap2\n      swap1\n      pop\n      jump\t// out\n        /* \"#utility.yul\":10388:10465   */\n    tag_273:\n        /* \"#utility.yul\":10425:10432   */\n      0x00\n        /* \"#utility.yul\":10454:10459   */\n      dup2\n        /* \"#utility.yul\":10443:10459   */\n      swap1\n      pop\n        /* \"#utility.yul\":10388:10465   */\n      swap2\n      swap1\n      pop\n      jump\t// out\n        /* \"#utility.yul\":10471:10593   */\n    tag_244:\n        /* \"#utility.yul\":10530:10539   */\n      0x00\n        /* \"#utility.yul\":10563:10587   */\n      tag_326\n        /* \"#utility.yul\":10581:10586   */\n      dup3\n        /* \"#utility.yul\":10563:10587   */\n      tag_273\n      jump\t// in\n    tag_326:\n        /* \"#utility.yul\":10550:10587   */\n      swap1\n      pop\n        /* \"#utility.yul\":10471:10593   */\n      swap2\n      swap1\n      pop\n      jump\t// out\n        /* \"#utility.yul\":10599:10721   */\n    tag_248:\n        /* \"#utility.yul\":10658:10667   */\n      0x00\n        /* \"#utility.yul\":10691:10715   */\n      tag_328\n        /* \"#utility.yul\":10709:10714   */\n      dup3\n        /* \"#utility.yul\":10691:10715   */\n      tag_273\n      jump\t// in\n    tag_328:\n        /* \"#utility.yul\":10678:10715   */\n      swap1\n      pop\n        /* \"#utility.yul\":10599:10721   */\n      swap2\n      swap1\n      pop\n      jump\t// out\n        /* \"#utility.yul\":10727:10881   */\n    tag_180:\n        /* \"#utility.yul\":10811:10817   */\n      dup3\n        /* \"#utility.yul\":10806:10809   */\n      dup2\n        /* \"#utility.yul\":10801:10804   */\n      dup4\n        /* \"#utility.yul\":10788:10818   */\n      calldatacopy\n        /* \"#utility.yul\":10873:10874   */\n      0x00\n        /* \"#utility.yul\":10864:10870   */\n      dup4\n        /* \"#utility.yul\":10859:10862   */\n      dup4\n        /* \"#utility.yul\":10855:10871   */\n      add\n        /* \"#utility.yul\":10848:10875   */\n      mstore\n        /* \"#utility.yul\":10727:10881   */\n      pop\n      pop\n      pop\n      jump\t// out\n        /* \"#utility.yul\":10887:11194   */\n    tag_256:\n        /* \"#utility.yul\":10955:10956   */\n      0x00\n        /* \"#utility.yul\":10965:11078   */\n    tag_331:\n        /* \"#utility.yul\":10979:10985   */\n      dup4\n        /* \"#utility.yul\":10976:10977   */\n      dup2\n        /* \"#utility.yul\":10973:10986   */\n      lt\n        /* \"#utility.yul\":10965:11078   */\n      iszero\n      tag_333\n      jumpi\n        /* \"#utility.yul\":11064:11065   */\n      dup1\n        /* \"#utility.yul\":11059:11062   */\n      dup3\n        /* \"#utility.yul\":11055:11066   */\n      add\n        /* \"#utility.yul\":11049:11067   */\n      mload\n        /* \"#utility.yul\":11045:11046   */\n      dup2\n        /* \"#utility.yul\":11040:11043   */\n      dup5\n        /* \"#utility.yul\":11036:11047   */\n      add\n        /* \"#utility.yul\":11029:11068   */\n      mstore\n        /* \"#utility.yul\":11001:11003   */\n      0x20\n        /* \"#utility.yul\":10998:10999   */\n      dup2\n        /* \"#utility.yul\":10994:11004   */\n      add\n        /* \"#utility.yul\":10989:11004   */\n      swap1\n      pop\n        /* \"#utility.yul\":10965:11078   */\n      jump(tag_331)\n    tag_333:\n        /* \"#utility.yul\":11096:11102   */\n      dup4\n        /* \"#utility.yul\":11093:11094   */\n      dup2\n        /* \"#utility.yul\":11090:11103   */\n      gt\n        /* \"#utility.yul\":11087:11188   */\n      iszero\n      tag_334\n      jumpi\n        /* \"#utility.yul\":11176:11177   */\n      0x00\n        /* \"#utility.yul\":11167:11173   */\n      dup5\n        /* \"#utility.yul\":11162:11165   */\n      dup5\n        /* \"#utility.yul\":11158:11174   */\n      add\n        /* \"#utility.yul\":11151:11178   */\n      mstore\n        /* \"#utility.yul\":11087:11188   */\n    tag_334:\n        /* \"#utility.yul\":10936:11194   */\n      pop\n        /* \"#utility.yul\":10887:11194   */\n      pop\n      pop\n      pop\n      jump\t// out\n        /* \"#utility.yul\":11200:11481   */\n    tag_297:\n        /* \"#utility.yul\":11283:11310   */\n      tag_336\n        /* \"#utility.yul\":11305:11309   */\n      dup3\n        /* \"#utility.yul\":11283:11310   */\n      tag_258\n      jump\t// in\n    tag_336:\n        /* \"#utility.yul\":11275:11281   */\n      dup2\n        /* \"#utility.yul\":11271:11311   */\n      add\n        /* \"#utility.yul\":11413:11419   */\n      dup2\n        /* \"#utility.yul\":11401:11411   */\n      dup2\n        /* \"#utility.yul\":11398:11420   */\n      lt\n        /* \"#utility.yul\":11377:11395   */\n      0xffffffffffffffff\n        /* \"#utility.yul\":11365:11375   */\n      dup3\n        /* \"#utility.yul\":11362:11396   */\n      gt\n        /* \"#utility.yul\":11359:11421   */\n      or\n        /* \"#utility.yul\":11356:11444   */\n      iszero\n      tag_337\n      jumpi\n        /* \"#utility.yul\":11424:11442   */\n      tag_338\n      tag_302\n      jump\t// in\n    tag_338:\n        /* \"#utility.yul\":11356:11444   */\n    tag_337:\n        /* \"#utility.yul\":11464:11474   */\n      dup1\n        /* \"#utility.yul\":11460:11462   */\n      0x40\n        /* \"#utility.yul\":11453:11475   */\n      mstore\n        /* \"#utility.yul\":11243:11481   */\n      pop\n        /* \"#utility.yul\":11200:11481   */\n      pop\n      pop\n      jump\t// out\n        /* \"#utility.yul\":11487:11720   */\n    tag_117:\n        /* \"#utility.yul\":11526:11529   */\n      0x00\n        /* \"#utility.yul\":11549:11573   */\n      tag_340\n        /* \"#utility.yul\":11567:11572   */\n      dup3\n        /* \"#utility.yul\":11549:11573   */\n      tag_273\n      jump\t// in\n    tag_340:\n        /* \"#utility.yul\":11540:11573   */\n      swap2\n      pop\n        /* \"#utility.yul\":11595:11661   */\n      0xffffffffffffffffffffffffffffffffffffffffffffffffffffffffffffffff\n        /* \"#utility.yul\":11588:11593   */\n      dup3\n        /* \"#utility.yul\":11585:11662   */\n      eq\n        /* \"#utility.yul\":11582:11685   */\n      iszero\n      tag_341\n      jumpi\n        /* \"#utility.yul\":11665:11683   */\n      tag_342\n      tag_312\n      jump\t// in\n    tag_342:\n        /* \"#utility.yul\":11582:11685   */\n    tag_341:\n        /* \"#utility.yul\":11712:11713   */\n      0x01\n        /* \"#utility.yul\":11705:11710   */\n      dup3\n        /* \"#utility.yul\":11701:11714   */\n      add\n        /* \"#utility.yul\":11694:11714   */\n      swap1\n      pop\n        /* \"#utility.yul\":11487:11720   */\n      swap2\n      swap1\n      pop\n      jump\t// out\n        /* \"#utility.yul\":11726:11906   */\n    tag_166:\n        /* \"#utility.yul\":11774:11851   */\n      0x4e487b7100000000000000000000000000000000000000000000000000000000\n        /* \"#utility.yul\":11771:11772   */\n      0x00\n        /* \"#utility.yul\":11764:11852   */\n      mstore\n        /* \"#utility.yul\":11871:11875   */\n      0x01\n        /* \"#utility.yul\":11868:11869   */\n      0x04\n        /* \"#utility.yul\":11861:11876   */\n      mstore\n        /* \"#utility.yul\":11895:11899   */\n      0x24\n        /* \"#utility.yul\":11892:11893   */\n      0x00\n        /* \"#utility.yul\":11885:11900   */\n      revert\n        /* \"#utility.yul\":11912:12092   */\n    tag_312:\n        /* \"#utility.yul\":11960:12037   */\n      0x4e487b7100000000000000000000000000000000000000000000000000000000\n        /* \"#utility.yul\":11957:11958   */\n      0x00\n        /* \"#utility.yul\":11950:12038   */\n      mstore\n        /* \"#utility.yul\":12057:12061   */\n      0x11\n        /* \"#utility.yul\":12054:12055   */\n      0x04\n        /* \"#utility.yul\":12047:12062   */\n      mstore\n        /* \"#utility.yul\":12081:12085   */\n      0x24\n        /* \"#utility.yul\":12078:12079   */\n      0x00\n        /* \"#utility.yul\":12071:12086   */\n      revert\n        /* \"#utility.yul\":12098:12278   */\n    tag_104:\n        /* \"#utility.yul\":12146:12223   */\n      0x4e487b7100000000000000000000000000000000000000000000000000000000\n        /* \"#utility.yul\":12143:12144   */\n      0x00\n        /* \"#utility.yul\":12136:12224   */\n      mstore\n        /* \"#utility.yul\":12243:12247   */\n      0x32\n        /* \"#utility.yul\":12240:12241   */\n      0x04\n        /* \"#utility.yul\":12233:12248   */\n      mstore\n        /* \"#utility.yul\":12267:12271   */\n      0x24\n        /* \"#utility.yul\":12264:12265   */\n      0x00\n        /* \"#utility.yul\":12257:12272   */\n      revert\n        /* \"#utility.yul\":12284:12464   */\n    tag_302:\n        /* \"#utility.yul\":12332:12409   */\n      0x4e487b7100000000000000000000000000000000000000000000000000000000\n        /* \"#utility.yul\":12329:12330   */\n      0x00\n        /* \"#utility.yul\":12322:12410   */\n      mstore\n        /* \"#utility.yul\":12429:12433   */\n      0x41\n        /* \"#utility.yul\":12426:12427   */\n      0x04\n        /* \"#utility.yul\":12419:12434   */\n      mstore\n        /* \"#utility.yul\":12453:12457   */\n      0x24\n        /* \"#utility.yul\":12450:12451   */\n      0x00\n        /* \"#utility.yul\":12443:12458   */\n      revert\n        /* \"#utility.yul\":12470:12587   */\n    tag_189:\n        /* \"#utility.yul\":12579:12580   */\n      0x00\n        /* \"#utility.yul\":12576:12577   */\n      dup1\n        /* \"#utility.yul\":12569:12581   */\n      revert\n        /* \"#utility.yul\":12593:12710   */\n    tag_178:\n        /* \"#utility.yul\":12702:12703   */\n      0x00\n        /* \"#utility.yul\":12699:12700   */\n      dup1\n        /* \"#utility.yul\":12692:12704   */\n      revert\n        /* \"#utility.yul\":12716:12833   */\n    tag_219:\n        /* \"#utility.yul\":12825:12826   */\n      0x00\n        /* \"#utility.yul\":12822:12823   */\n      dup1\n        /* \"#utility.yul\":12815:12827   */\n      revert\n        /* \"#utility.yul\":12839:12956   */\n    tag_201:\n        /* \"#utility.yul\":12948:12949   */\n      0x00\n        /* \"#utility.yul\":12945:12946   */\n      dup1\n        /* \"#utility.yul\":12938:12950   */\n      revert\n        /* \"#utility.yul\":12962:13064   */\n    tag_258:\n        /* \"#utility.yul\":13003:13009   */\n      0x00\n        /* \"#utility.yul\":13054:13056   */\n      0x1f\n        /* \"#utility.yul\":13050:13057   */\n      not\n        /* \"#utility.yul\":13045:13047   */\n      0x1f\n        /* \"#utility.yul\":13038:13043   */\n      dup4\n        /* \"#utility.yul\":13034:13048   */\n      add\n        /* \"#utility.yul\":13030:13058   */\n      and\n        /* \"#utility.yul\":13020:13058   */\n      swap1\n      pop\n        /* \"#utility.yul\":12962:13064   */\n      swap2\n      swap1\n      pop\n      jump\t// out\n        /* \"#utility.yul\":13070:13236   */\n    tag_269:\n        /* \"#utility.yul\":13210:13228   */\n      0x4e6f7420456e6f756768204d6f6e657900000000000000000000000000000000\n        /* \"#utility.yul\":13206:13207   */\n      0x00\n        /* \"#utility.yul\":13198:13204   */\n      dup3\n        /* \"#utility.yul\":13194:13208   */\n      add\n        /* \"#utility.yul\":13187:13229   */\n      mstore\n        /* \"#utility.yul\":13070:13236   */\n      pop\n      jump\t// out\n        /* \"#utility.yul\":13242:13364   */\n    tag_184:\n        /* \"#utility.yul\":13315:13339   */\n      tag_354\n        /* \"#utility.yul\":13333:13338   */\n      dup2\n        /* \"#utility.yul\":13315:13339   */\n      tag_232\n      jump\t// in\n    tag_354:\n        /* \"#utility.yul\":13308:13313   */\n      dup2\n        /* \"#utility.yul\":13305:13340   */\n      eq\n        /* \"#utility.yul\":13295:13358   */\n      tag_355\n      jumpi\n        /* \"#utility.yul\":13354:13355   */\n      0x00\n        /* \"#utility.yul\":13351:13352   */\n      dup1\n        /* \"#utility.yul\":13344:13356   */\n      revert\n        /* \"#utility.yul\":13295:13358   */\n    tag_355:\n        /* \"#utility.yul\":13242:13364   */\n      pop\n      jump\t// out\n        /* \"#utility.yul\":13370:13492   */\n    tag_194:\n        /* \"#utility.yul\":13443:13467   */\n      tag_357\n        /* \"#utility.yul\":13461:13466   */\n      dup2\n        /* \"#utility.yul\":13443:13467   */\n      tag_273\n      jump\t// in\n    tag_357:\n        /* \"#utility.yul\":13436:13441   */\n      dup2\n        /* \"#utility.yul\":13433:13468   */\n      eq\n        /* \"#utility.yul\":13423:13486   */\n      tag_358\n      jumpi\n        /* \"#utility.yul\":13482:13483   */\n      0x00\n        /* \"#utility.yul\":13479:13480   */\n      dup1\n        /* \"#utility.yul\":13472:13484   */\n      revert\n        /* \"#utility.yul\":13423:13486   */\n    tag_358:\n        /* \"#utility.yul\":13370:13492   */\n      pop\n      jump\t// out\n\n    auxdata: 0xa2646970667358221220f4c53319fd6e26fe62e990d72564aff132e9617ba34b4ebaf5f2b33f9718574c64736f6c63430008070033\n}\n",
				"bytecode": {
					"linkReferences": {
						"Bootcamp_flat.sol": {
							"fullMath": [
								{
									"length": 20,
									"start": 1255
								}
							]
						}
					},
					"object": "608060405260405180602001604052806000815250600290805190602001906200002b92919062000040565b503480156200003957600080fd5b5062000155565b8280546200004e90620000f0565b90600052602060002090601f016020900481019282620000725760008555620000be565b82601f106200008d57805160ff1916838001178555620000be565b82800160010185558215620000be579182015b82811115620000bd578251825591602001919060010190620000a0565b5b509050620000cd9190620000d1565b5090565b5b80821115620000ec576000816000905550600101620000d2565b5090565b600060028204905060018216806200010957607f821691505b6020821081141562000120576200011f62000126565b5b50919050565b7f4e487b7100000000000000000000000000000000000000000000000000000000600052602260045260246000fd5b6113c780620001656000396000f3fe6080604052600436106100f35760003560e01c80639b0e317c1161008a578063b411ee9411610059578063b411ee94146102b0578063c250d683146102ed578063f06f782814610316578063f8f8a91214610353576100f3565b80639b0e317c1461022e5780639de444d914610245578063a323e6a01461025c578063af67ac3f14610285576100f3565b806343c2f4c1116100c657806343c2f4c1146101a7578063503a37b1146101d05780638b547d0e1461020d57806392d282c114610224576100f3565b80630f15491e146100f85780632283bffd146101235780632becdd801461014e5780632ccb1b301461018b575b600080fd5b34801561010457600080fd5b5061010d61037e565b60405161011a9190610fdf565b60405180910390f35b34801561012f57600080fd5b50610138610410565b6040516101459190610fdf565b60405180910390f35b34801561015a57600080fd5b5061017560048036038101906101709190610d65565b6104b9565b6040516101829190610fdf565b60405180910390f35b6101a560048036038101906101a09190610d25565b6104ec565b005b3480156101b357600080fd5b506101ce60048036038101906101c99190610dae565b610537565b005b3480156101dc57600080fd5b506101f760048036038101906101f29190610ca5565b61068b565b6040516102049190610fdf565b60405180910390f35b34801561021957600080fd5b506102226106d4565b005b61022c6107e5565b005b34801561023a57600080fd5b50610243610832565b005b34801561025157600080fd5b5061025a6108e8565b005b34801561026857600080fd5b50610283600480360381019061027e9190610cd2565b610a6b565b005b34801561029157600080fd5b5061029a610ab0565b6040516102a79190610fdf565b60405180910390f35b3480156102bc57600080fd5b506102d760048036038101906102d29190610d65565b610b5d565b6040516102e49190610f59565b60405180910390f35b3480156102f957600080fd5b50610314600480360381019061030f9190610dae565b610b8d565b005b34801561032257600080fd5b5061033d60048036038101906103389190610d65565b610ba1565b60405161034a9190610f9d565b60405180910390f35b34801561035f57600080fd5b50610368610bab565b6040516103759190610fdf565b60405180910390f35b600073__$6062f5f2748a4c5f897673528d0966eae7$__63771602f7600a60146040518363ffffffff1660e01b81526004016103bb929190610f74565b60206040518083038186803b1580156103d357600080fd5b505af41580156103e7573d6000803e3d6000fd5b505050506040513d601f19601f8201168201806040525081019061040b9190610ddb565b905090565b600061041a610bb3565b6001816000600381106104305761042f6112b7565b5b60200201818152505060028160016003811061044f5761044e6112b7565b5b60200201818152505060038160026003811061046e5761046d6112b7565b5b6020020181815250506000805b600381116104b05760058161049091906110cd565b8261049b9190611077565b915080806104a890611210565b91505061047b565b50809250505090565b6000816040516020016104cc9190610f9d565b6040516020818303038152906040528051906020012060001c9050919050565b8173ffffffffffffffffffffffffffffffffffffffff166108fc829081150290604051600060405180830381858888f19350505050158015610532573d6000803e3d6000fd5b505050565b60646005600083815260200190815260200160002060003373ffffffffffffffffffffffffffffffffffffffff1673ffffffffffffffffffffffffffffffffffffffff168152602001908152602001600020819055506005600082815260200190815260200160002060003373ffffffffffffffffffffffffffffffffffffffff1673ffffffffffffffffffffffffffffffffffffffff1681526020019081526020016000205060c86005600083815260200190815260200160002060003373ffffffffffffffffffffffffffffffffffffffff1673ffffffffffffffffffffffffffffffffffffffff168152602001908152602001600020819055506005600082815260200190815260200160002060003373ffffffffffffffffffffffffffffffffffffffff1673ffffffffffffffffffffffffffffffffffffffff1681526020019081526020016000206000905550565b6000600460008373ffffffffffffffffffffffffffffffffffffffff1673ffffffffffffffffffffffffffffffffffffffff168152602001908152602001600020549050919050565b6103e8600460003373ffffffffffffffffffffffffffffffffffffffff1673ffffffffffffffffffffffffffffffffffffffff16815260200190815260200160002081905550600460003373ffffffffffffffffffffffffffffffffffffffff1673ffffffffffffffffffffffffffffffffffffffff16815260200190815260200160002050610320600460003373ffffffffffffffffffffffffffffffffffffffff1673ffffffffffffffffffffffffffffffffffffffff16815260200190815260200160002081905550600460003373ffffffffffffffffffffffffffffffffffffffff1673ffffffffffffffffffffffffffffffffffffffff16815260200190815260200160002060009055565b670de0b6b3a7640000341015610830576040517f08c379a000000000000000000000000000000000000000000000000000000000815260040161082790610fbf565b60405180910390fd5b565b61083a610bd5565b60648160000181815250506040518060400160405280600381526020017f414c4900000000000000000000000000000000000000000000000000000000008152508160200181905250601481604001818152505060006040518060600160405280606581526020016040518060400160405280600381526020017f53414d00000000000000000000000000000000000000000000000000000000008152508152602001601681525090505050565b6064600660003373ffffffffffffffffffffffffffffffffffffffff1673ffffffffffffffffffffffffffffffffffffffff16815260200190815260200160002060008154811061093c5761093b6112b7565b5b9060005260206000200181905550600660003373ffffffffffffffffffffffffffffffffffffffff1673ffffffffffffffffffffffffffffffffffffffff16815260200190815260200160002060008154811061099c5761099b6112b7565b5b906000526020600020505060c8600660003373ffffffffffffffffffffffffffffffffffffffff1673ffffffffffffffffffffffffffffffffffffffff1681526020019081526020016000206000815481106109fb576109fa6112b7565b5b9060005260206000200181905550600660003373ffffffffffffffffffffffffffffffffffffffff1673ffffffffffffffffffffffffffffffffffffffff168152602001908152602001600020600081548110610a5b57610a5a6112b7565b5b9060005260206000200160009055565b7f3eba86eb3c0ea121e35980d4acae6eb9f1cdf0bf7c0c08443798cfd6e5299de3838383426001604051610aa3959493929190610f06565b60405180910390a1505050565b60006003600a90806001815401808255809150506001900390600052602060002001600090919091909150556003601490806001815401808255809150506001900390600052602060002001600090919091909150556000805b6003805490508111610b555760038181548110610b2a57610b296112b7565b5b906000526020600020015482610b409190611077565b91508080610b4d90611210565b915050610b0a565b508091505090565b600081604051602001610b709190610eef565b604051602081830303815290604052805190602001209050919050565b60058111610b9e57610b9d611259565b5b50565b6060819050919050565b600047905090565b6040518060600160405280600390602082028036833780820191505090505090565b60405180606001604052806000815260200160608152602001600081525090565b6000610c09610c048461101f565b610ffa565b905082815260208101848484011115610c2557610c2461131a565b5b610c3084828561119d565b509392505050565b600081359050610c4781611363565b92915050565b600082601f830112610c6257610c61611315565b5b8135610c72848260208601610bf6565b91505092915050565b600081359050610c8a8161137a565b92915050565b600081519050610c9f8161137a565b92915050565b600060208284031215610cbb57610cba611324565b5b6000610cc984828501610c38565b91505092915050565b600080600060608486031215610ceb57610cea611324565b5b6000610cf986828701610c38565b9350506020610d0a86828701610c38565b9250506040610d1b86828701610c7b565b9150509250925092565b60008060408385031215610d3c57610d3b611324565b5b6000610d4a85828601610c38565b9250506020610d5b85828601610c7b565b9150509250929050565b600060208284031215610d7b57610d7a611324565b5b600082013567ffffffffffffffff811115610d9957610d9861131f565b5b610da584828501610c4d565b91505092915050565b600060208284031215610dc457610dc3611324565b5b6000610dd284828501610c7b565b91505092915050565b600060208284031215610df157610df0611324565b5b6000610dff84828501610c90565b91505092915050565b610e1181611127565b82525050565b610e2081611139565b82525050565b610e2f81611145565b82525050565b610e3e81611179565b82525050565b610e4d8161118b565b82525050565b6000610e5e82611050565b610e68818561105b565b9350610e788185602086016111ac565b610e8181611329565b840191505092915050565b6000610e9782611050565b610ea1818561106c565b9350610eb18185602086016111ac565b80840191505092915050565b6000610eca60108361105b565b9150610ed58261133a565b602082019050919050565b610ee98161116f565b82525050565b6000610efb8284610e8c565b915081905092915050565b600060a082019050610f1b6000830188610e08565b610f286020830187610e08565b610f356040830186610ee0565b610f426060830185610ee0565b610f4f6080830184610e17565b9695505050505050565b6000602082019050610f6e6000830184610e26565b92915050565b6000604082019050610f896000830185610e35565b610f966020830184610e44565b9392505050565b60006020820190508181036000830152610fb78184610e53565b905092915050565b60006020820190508181036000830152610fd881610ebd565b9050919050565b6000602082019050610ff46000830184610ee0565b92915050565b6000611004611015565b905061101082826111df565b919050565b6000604051905090565b600067ffffffffffffffff82111561103a576110396112e6565b5b61104382611329565b9050602081019050919050565b600081519050919050565b600082825260208201905092915050565b600081905092915050565b60006110828261116f565b915061108d8361116f565b9250827fffffffffffffffffffffffffffffffffffffffffffffffffffffffffffffffff038211156110c2576110c1611288565b5b828201905092915050565b60006110d88261116f565b91506110e38361116f565b9250817fffffffffffffffffffffffffffffffffffffffffffffffffffffffffffffffff048311821515161561111c5761111b611288565b5b828202905092915050565b60006111328261114f565b9050919050565b60008115159050919050565b6000819050919050565b600073ffffffffffffffffffffffffffffffffffffffff82169050919050565b6000819050919050565b60006111848261116f565b9050919050565b60006111968261116f565b9050919050565b82818337600083830152505050565b60005b838110156111ca5780820151818401526020810190506111af565b838111156111d9576000848401525b50505050565b6111e882611329565b810181811067ffffffffffffffff82111715611207576112066112e6565b5b80604052505050565b600061121b8261116f565b91507fffffffffffffffffffffffffffffffffffffffffffffffffffffffffffffffff82141561124e5761124d611288565b5b600182019050919050565b7f4e487b7100000000000000000000000000000000000000000000000000000000600052600160045260246000fd5b7f4e487b7100000000000000000000000000000000000000000000000000000000600052601160045260246000fd5b7f4e487b7100000000000000000000000000000000000000000000000000000000600052603260045260246000fd5b7f4e487b7100000000000000000000000000000000000000000000000000000000600052604160045260246000fd5b600080fd5b600080fd5b600080fd5b600080fd5b6000601f19601f8301169050919050565b7f4e6f7420456e6f756768204d6f6e657900000000000000000000000000000000600082015250565b61136c81611127565b811461137757600080fd5b50565b6113838161116f565b811461138e57600080fd5b5056fea2646970667358221220f4c53319fd6e26fe62e990d72564aff132e9617ba34b4ebaf5f2b33f9718574c64736f6c63430008070033",
					"opcodes": "PUSH1 0x80 PUSH1 0x40 MSTORE PUSH1 0x40 MLOAD DUP1 PUSH1 0x20 ADD PUSH1 0x40 MSTORE DUP1 PUSH1 0x0 DUP2 MSTORE POP PUSH1 0x2 SWAP1 DUP1 MLOAD SWAP1 PUSH1 0x20 ADD SWAP1 PUSH3 0x2B SWAP3 SWAP2 SWAP1 PUSH3 0x40 JUMP JUMPDEST POP CALLVALUE DUP1 ISZERO PUSH3 0x39 JUMPI PUSH1 0x0 DUP1 REVERT JUMPDEST POP PUSH3 0x155 JUMP JUMPDEST DUP3 DUP1 SLOAD PUSH3 0x4E SWAP1 PUSH3 0xF0 JUMP JUMPDEST SWAP1 PUSH1 0x0 MSTORE PUSH1 0x20 PUSH1 0x0 KECCAK256 SWAP1 PUSH1 0x1F ADD PUSH1 0x20 SWAP1 DIV DUP2 ADD SWAP3 DUP3 PUSH3 0x72 JUMPI PUSH1 0x0 DUP6 SSTORE PUSH3 0xBE JUMP JUMPDEST DUP3 PUSH1 0x1F LT PUSH3 0x8D JUMPI DUP1 MLOAD PUSH1 0xFF NOT AND DUP4 DUP1 ADD OR DUP6 SSTORE PUSH3 0xBE JUMP JUMPDEST DUP3 DUP1 ADD PUSH1 0x1 ADD DUP6 SSTORE DUP3 ISZERO PUSH3 0xBE JUMPI SWAP2 DUP3 ADD JUMPDEST DUP3 DUP2 GT ISZERO PUSH3 0xBD JUMPI DUP3 MLOAD DUP3 SSTORE SWAP2 PUSH1 0x20 ADD SWAP2 SWAP1 PUSH1 0x1 ADD SWAP1 PUSH3 0xA0 JUMP JUMPDEST JUMPDEST POP SWAP1 POP PUSH3 0xCD SWAP2 SWAP1 PUSH3 0xD1 JUMP JUMPDEST POP SWAP1 JUMP JUMPDEST JUMPDEST DUP1 DUP3 GT ISZERO PUSH3 0xEC JUMPI PUSH1 0x0 DUP2 PUSH1 0x0 SWAP1 SSTORE POP PUSH1 0x1 ADD PUSH3 0xD2 JUMP JUMPDEST POP SWAP1 JUMP JUMPDEST PUSH1 0x0 PUSH1 0x2 DUP3 DIV SWAP1 POP PUSH1 0x1 DUP3 AND DUP1 PUSH3 0x109 JUMPI PUSH1 0x7F DUP3 AND SWAP2 POP JUMPDEST PUSH1 0x20 DUP3 LT DUP2 EQ ISZERO PUSH3 0x120 JUMPI PUSH3 0x11F PUSH3 0x126 JUMP JUMPDEST JUMPDEST POP SWAP2 SWAP1 POP JUMP JUMPDEST PUSH32 0x4E487B7100000000000000000000000000000000000000000000000000000000 PUSH1 0x0 MSTORE PUSH1 0x22 PUSH1 0x4 MSTORE PUSH1 0x24 PUSH1 0x0 REVERT JUMPDEST PUSH2 0x13C7 DUP1 PUSH3 0x165 PUSH1 0x0 CODECOPY PUSH1 0x0 RETURN INVALID PUSH1 0x80 PUSH1 0x40 MSTORE PUSH1 0x4 CALLDATASIZE LT PUSH2 0xF3 JUMPI PUSH1 0x0 CALLDATALOAD PUSH1 0xE0 SHR DUP1 PUSH4 0x9B0E317C GT PUSH2 0x8A JUMPI DUP1 PUSH4 0xB411EE94 GT PUSH2 0x59 JUMPI DUP1 PUSH4 0xB411EE94 EQ PUSH2 0x2B0 JUMPI DUP1 PUSH4 0xC250D683 EQ PUSH2 0x2ED JUMPI DUP1 PUSH4 0xF06F7828 EQ PUSH2 0x316 JUMPI DUP1 PUSH4 0xF8F8A912 EQ PUSH2 0x353 JUMPI PUSH2 0xF3 JUMP JUMPDEST DUP1 PUSH4 0x9B0E317C EQ PUSH2 0x22E JUMPI DUP1 PUSH4 0x9DE444D9 EQ PUSH2 0x245 JUMPI DUP1 PUSH4 0xA323E6A0 EQ PUSH2 0x25C JUMPI DUP1 PUSH4 0xAF67AC3F EQ PUSH2 0x285 JUMPI PUSH2 0xF3 JUMP JUMPDEST DUP1 PUSH4 0x43C2F4C1 GT PUSH2 0xC6 JUMPI DUP1 PUSH4 0x43C2F4C1 EQ PUSH2 0x1A7 JUMPI DUP1 PUSH4 0x503A37B1 EQ PUSH2 0x1D0 JUMPI DUP1 PUSH4 0x8B547D0E EQ PUSH2 0x20D JUMPI DUP1 PUSH4 0x92D282C1 EQ PUSH2 0x224 JUMPI PUSH2 0xF3 JUMP JUMPDEST DUP1 PUSH4 0xF15491E EQ PUSH2 0xF8 JUMPI DUP1 PUSH4 0x2283BFFD EQ PUSH2 0x123 JUMPI DUP1 PUSH4 0x2BECDD80 EQ PUSH2 0x14E JUMPI DUP1 PUSH4 0x2CCB1B30 EQ PUSH2 0x18B JUMPI JUMPDEST PUSH1 0x0 DUP1 REVERT JUMPDEST CALLVALUE DUP1 ISZERO PUSH2 0x104 JUMPI PUSH1 0x0 DUP1 REVERT JUMPDEST POP PUSH2 0x10D PUSH2 0x37E JUMP JUMPDEST PUSH1 0x40 MLOAD PUSH2 0x11A SWAP2 SWAP1 PUSH2 0xFDF JUMP JUMPDEST PUSH1 0x40 MLOAD DUP1 SWAP2 SUB SWAP1 RETURN JUMPDEST CALLVALUE DUP1 ISZERO PUSH2 0x12F JUMPI PUSH1 0x0 DUP1 REVERT JUMPDEST POP PUSH2 0x138 PUSH2 0x410 JUMP JUMPDEST PUSH1 0x40 MLOAD PUSH2 0x145 SWAP2 SWAP1 PUSH2 0xFDF JUMP JUMPDEST PUSH1 0x40 MLOAD DUP1 SWAP2 SUB SWAP1 RETURN JUMPDEST CALLVALUE DUP1 ISZERO PUSH2 0x15A JUMPI PUSH1 0x0 DUP1 REVERT JUMPDEST POP PUSH2 0x175 PUSH1 0x4 DUP1 CALLDATASIZE SUB DUP2 ADD SWAP1 PUSH2 0x170 SWAP2 SWAP1 PUSH2 0xD65 JUMP JUMPDEST PUSH2 0x4B9 JUMP JUMPDEST PUSH1 0x40 MLOAD PUSH2 0x182 SWAP2 SWAP1 PUSH2 0xFDF JUMP JUMPDEST PUSH1 0x40 MLOAD DUP1 SWAP2 SUB SWAP1 RETURN JUMPDEST PUSH2 0x1A5 PUSH1 0x4 DUP1 CALLDATASIZE SUB DUP2 ADD SWAP1 PUSH2 0x1A0 SWAP2 SWAP1 PUSH2 0xD25 JUMP JUMPDEST PUSH2 0x4EC JUMP JUMPDEST STOP JUMPDEST CALLVALUE DUP1 ISZERO PUSH2 0x1B3 JUMPI PUSH1 0x0 DUP1 REVERT JUMPDEST POP PUSH2 0x1CE PUSH1 0x4 DUP1 CALLDATASIZE SUB DUP2 ADD SWAP1 PUSH2 0x1C9 SWAP2 SWAP1 PUSH2 0xDAE JUMP JUMPDEST PUSH2 0x537 JUMP JUMPDEST STOP JUMPDEST CALLVALUE DUP1 ISZERO PUSH2 0x1DC JUMPI PUSH1 0x0 DUP1 REVERT JUMPDEST POP PUSH2 0x1F7 PUSH1 0x4 DUP1 CALLDATASIZE SUB DUP2 ADD SWAP1 PUSH2 0x1F2 SWAP2 SWAP1 PUSH2 0xCA5 JUMP JUMPDEST PUSH2 0x68B JUMP JUMPDEST PUSH1 0x40 MLOAD PUSH2 0x204 SWAP2 SWAP1 PUSH2 0xFDF JUMP JUMPDEST PUSH1 0x40 MLOAD DUP1 SWAP2 SUB SWAP1 RETURN JUMPDEST CALLVALUE DUP1 ISZERO PUSH2 0x219 JUMPI PUSH1 0x0 DUP1 REVERT JUMPDEST POP PUSH2 0x222 PUSH2 0x6D4 JUMP JUMPDEST STOP JUMPDEST PUSH2 0x22C PUSH2 0x7E5 JUMP JUMPDEST STOP JUMPDEST CALLVALUE DUP1 ISZERO PUSH2 0x23A JUMPI PUSH1 0x0 DUP1 REVERT JUMPDEST POP PUSH2 0x243 PUSH2 0x832 JUMP JUMPDEST STOP JUMPDEST CALLVALUE DUP1 ISZERO PUSH2 0x251 JUMPI PUSH1 0x0 DUP1 REVERT JUMPDEST POP PUSH2 0x25A PUSH2 0x8E8 JUMP JUMPDEST STOP JUMPDEST CALLVALUE DUP1 ISZERO PUSH2 0x268 JUMPI PUSH1 0x0 DUP1 REVERT JUMPDEST POP PUSH2 0x283 PUSH1 0x4 DUP1 CALLDATASIZE SUB DUP2 ADD SWAP1 PUSH2 0x27E SWAP2 SWAP1 PUSH2 0xCD2 JUMP JUMPDEST PUSH2 0xA6B JUMP JUMPDEST STOP JUMPDEST CALLVALUE DUP1 ISZERO PUSH2 0x291 JUMPI PUSH1 0x0 DUP1 REVERT JUMPDEST POP PUSH2 0x29A PUSH2 0xAB0 JUMP JUMPDEST PUSH1 0x40 MLOAD PUSH2 0x2A7 SWAP2 SWAP1 PUSH2 0xFDF JUMP JUMPDEST PUSH1 0x40 MLOAD DUP1 SWAP2 SUB SWAP1 RETURN JUMPDEST CALLVALUE DUP1 ISZERO PUSH2 0x2BC JUMPI PUSH1 0x0 DUP1 REVERT JUMPDEST POP PUSH2 0x2D7 PUSH1 0x4 DUP1 CALLDATASIZE SUB DUP2 ADD SWAP1 PUSH2 0x2D2 SWAP2 SWAP1 PUSH2 0xD65 JUMP JUMPDEST PUSH2 0xB5D JUMP JUMPDEST PUSH1 0x40 MLOAD PUSH2 0x2E4 SWAP2 SWAP1 PUSH2 0xF59 JUMP JUMPDEST PUSH1 0x40 MLOAD DUP1 SWAP2 SUB SWAP1 RETURN JUMPDEST CALLVALUE DUP1 ISZERO PUSH2 0x2F9 JUMPI PUSH1 0x0 DUP1 REVERT JUMPDEST POP PUSH2 0x314 PUSH1 0x4 DUP1 CALLDATASIZE SUB DUP2 ADD SWAP1 PUSH2 0x30F SWAP2 SWAP1 PUSH2 0xDAE JUMP JUMPDEST PUSH2 0xB8D JUMP JUMPDEST STOP JUMPDEST CALLVALUE DUP1 ISZERO PUSH2 0x322 JUMPI PUSH1 0x0 DUP1 REVERT JUMPDEST POP PUSH2 0x33D PUSH1 0x4 DUP1 CALLDATASIZE SUB DUP2 ADD SWAP1 PUSH2 0x338 SWAP2 SWAP1 PUSH2 0xD65 JUMP JUMPDEST PUSH2 0xBA1 JUMP JUMPDEST PUSH1 0x40 MLOAD PUSH2 0x34A SWAP2 SWAP1 PUSH2 0xF9D JUMP JUMPDEST PUSH1 0x40 MLOAD DUP1 SWAP2 SUB SWAP1 RETURN JUMPDEST CALLVALUE DUP1 ISZERO PUSH2 0x35F JUMPI PUSH1 0x0 DUP1 REVERT JUMPDEST POP PUSH2 0x368 PUSH2 0xBAB JUMP JUMPDEST PUSH1 0x40 MLOAD PUSH2 0x375 SWAP2 SWAP1 PUSH2 0xFDF JUMP JUMPDEST PUSH1 0x40 MLOAD DUP1 SWAP2 SUB SWAP1 RETURN JUMPDEST PUSH1 0x0 PUSH20 0x0 PUSH4 0x771602F7 PUSH1 0xA PUSH1 0x14 PUSH1 0x40 MLOAD DUP4 PUSH4 0xFFFFFFFF AND PUSH1 0xE0 SHL DUP2 MSTORE PUSH1 0x4 ADD PUSH2 0x3BB SWAP3 SWAP2 SWAP1 PUSH2 0xF74 JUMP JUMPDEST PUSH1 0x20 PUSH1 0x40 MLOAD DUP1 DUP4 SUB DUP2 DUP7 DUP1 EXTCODESIZE ISZERO DUP1 ISZERO PUSH2 0x3D3 JUMPI PUSH1 0x0 DUP1 REVERT JUMPDEST POP GAS DELEGATECALL ISZERO DUP1 ISZERO PUSH2 0x3E7 JUMPI RETURNDATASIZE PUSH1 0x0 DUP1 RETURNDATACOPY RETURNDATASIZE PUSH1 0x0 REVERT JUMPDEST POP POP POP POP PUSH1 0x40 MLOAD RETURNDATASIZE PUSH1 0x1F NOT PUSH1 0x1F DUP3 ADD AND DUP3 ADD DUP1 PUSH1 0x40 MSTORE POP DUP2 ADD SWAP1 PUSH2 0x40B SWAP2 SWAP1 PUSH2 0xDDB JUMP JUMPDEST SWAP1 POP SWAP1 JUMP JUMPDEST PUSH1 0x0 PUSH2 0x41A PUSH2 0xBB3 JUMP JUMPDEST PUSH1 0x1 DUP2 PUSH1 0x0 PUSH1 0x3 DUP2 LT PUSH2 0x430 JUMPI PUSH2 0x42F PUSH2 0x12B7 JUMP JUMPDEST JUMPDEST PUSH1 0x20 MUL ADD DUP2 DUP2 MSTORE POP POP PUSH1 0x2 DUP2 PUSH1 0x1 PUSH1 0x3 DUP2 LT PUSH2 0x44F JUMPI PUSH2 0x44E PUSH2 0x12B7 JUMP JUMPDEST JUMPDEST PUSH1 0x20 MUL ADD DUP2 DUP2 MSTORE POP POP PUSH1 0x3 DUP2 PUSH1 0x2 PUSH1 0x3 DUP2 LT PUSH2 0x46E JUMPI PUSH2 0x46D PUSH2 0x12B7 JUMP JUMPDEST JUMPDEST PUSH1 0x20 MUL ADD DUP2 DUP2 MSTORE POP POP PUSH1 0x0 DUP1 JUMPDEST PUSH1 0x3 DUP2 GT PUSH2 0x4B0 JUMPI PUSH1 0x5 DUP2 PUSH2 0x490 SWAP2 SWAP1 PUSH2 0x10CD JUMP JUMPDEST DUP3 PUSH2 0x49B SWAP2 SWAP1 PUSH2 0x1077 JUMP JUMPDEST SWAP2 POP DUP1 DUP1 PUSH2 0x4A8 SWAP1 PUSH2 0x1210 JUMP JUMPDEST SWAP2 POP POP PUSH2 0x47B JUMP JUMPDEST POP DUP1 SWAP3 POP POP POP SWAP1 JUMP JUMPDEST PUSH1 0x0 DUP2 PUSH1 0x40 MLOAD PUSH1 0x20 ADD PUSH2 0x4CC SWAP2 SWAP1 PUSH2 0xF9D JUMP JUMPDEST PUSH1 0x40 MLOAD PUSH1 0x20 DUP2 DUP4 SUB SUB DUP2 MSTORE SWAP1 PUSH1 0x40 MSTORE DUP1 MLOAD SWAP1 PUSH1 0x20 ADD KECCAK256 PUSH1 0x0 SHR SWAP1 POP SWAP2 SWAP1 POP JUMP JUMPDEST DUP2 PUSH20 0xFFFFFFFFFFFFFFFFFFFFFFFFFFFFFFFFFFFFFFFF AND PUSH2 0x8FC DUP3 SWAP1 DUP2 ISZERO MUL SWAP1 PUSH1 0x40 MLOAD PUSH1 0x0 PUSH1 0x40 MLOAD DUP1 DUP4 SUB DUP2 DUP6 DUP9 DUP9 CALL SWAP4 POP POP POP POP ISZERO DUP1 ISZERO PUSH2 0x532 JUMPI RETURNDATASIZE PUSH1 0x0 DUP1 RETURNDATACOPY RETURNDATASIZE PUSH1 0x0 REVERT JUMPDEST POP POP POP JUMP JUMPDEST PUSH1 0x64 PUSH1 0x5 PUSH1 0x0 DUP4 DUP2 MSTORE PUSH1 0x20 ADD SWAP1 DUP2 MSTORE PUSH1 0x20 ADD PUSH1 0x0 KECCAK256 PUSH1 0x0 CALLER PUSH20 0xFFFFFFFFFFFFFFFFFFFFFFFFFFFFFFFFFFFFFFFF AND PUSH20 0xFFFFFFFFFFFFFFFFFFFFFFFFFFFFFFFFFFFFFFFF AND DUP2 MSTORE PUSH1 0x20 ADD SWAP1 DUP2 MSTORE PUSH1 0x20 ADD PUSH1 0x0 KECCAK256 DUP2 SWAP1 SSTORE POP PUSH1 0x5 PUSH1 0x0 DUP3 DUP2 MSTORE PUSH1 0x20 ADD SWAP1 DUP2 MSTORE PUSH1 0x20 ADD PUSH1 0x0 KECCAK256 PUSH1 0x0 CALLER PUSH20 0xFFFFFFFFFFFFFFFFFFFFFFFFFFFFFFFFFFFFFFFF AND PUSH20 0xFFFFFFFFFFFFFFFFFFFFFFFFFFFFFFFFFFFFFFFF AND DUP2 MSTORE PUSH1 0x20 ADD SWAP1 DUP2 MSTORE PUSH1 0x20 ADD PUSH1 0x0 KECCAK256 POP PUSH1 0xC8 PUSH1 0x5 PUSH1 0x0 DUP4 DUP2 MSTORE PUSH1 0x20 ADD SWAP1 DUP2 MSTORE PUSH1 0x20 ADD PUSH1 0x0 KECCAK256 PUSH1 0x0 CALLER PUSH20 0xFFFFFFFFFFFFFFFFFFFFFFFFFFFFFFFFFFFFFFFF AND PUSH20 0xFFFFFFFFFFFFFFFFFFFFFFFFFFFFFFFFFFFFFFFF AND DUP2 MSTORE PUSH1 0x20 ADD SWAP1 DUP2 MSTORE PUSH1 0x20 ADD PUSH1 0x0 KECCAK256 DUP2 SWAP1 SSTORE POP PUSH1 0x5 PUSH1 0x0 DUP3 DUP2 MSTORE PUSH1 0x20 ADD SWAP1 DUP2 MSTORE PUSH1 0x20 ADD PUSH1 0x0 KECCAK256 PUSH1 0x0 CALLER PUSH20 0xFFFFFFFFFFFFFFFFFFFFFFFFFFFFFFFFFFFFFFFF AND PUSH20 0xFFFFFFFFFFFFFFFFFFFFFFFFFFFFFFFFFFFFFFFF AND DUP2 MSTORE PUSH1 0x20 ADD SWAP1 DUP2 MSTORE PUSH1 0x20 ADD PUSH1 0x0 KECCAK256 PUSH1 0x0 SWAP1 SSTORE POP JUMP JUMPDEST PUSH1 0x0 PUSH1 0x4 PUSH1 0x0 DUP4 PUSH20 0xFFFFFFFFFFFFFFFFFFFFFFFFFFFFFFFFFFFFFFFF AND PUSH20 0xFFFFFFFFFFFFFFFFFFFFFFFFFFFFFFFFFFFFFFFF AND DUP2 MSTORE PUSH1 0x20 ADD SWAP1 DUP2 MSTORE PUSH1 0x20 ADD PUSH1 0x0 KECCAK256 SLOAD SWAP1 POP SWAP2 SWAP1 POP JUMP JUMPDEST PUSH2 0x3E8 PUSH1 0x4 PUSH1 0x0 CALLER PUSH20 0xFFFFFFFFFFFFFFFFFFFFFFFFFFFFFFFFFFFFFFFF AND PUSH20 0xFFFFFFFFFFFFFFFFFFFFFFFFFFFFFFFFFFFFFFFF AND DUP2 MSTORE PUSH1 0x20 ADD SWAP1 DUP2 MSTORE PUSH1 0x20 ADD PUSH1 0x0 KECCAK256 DUP2 SWAP1 SSTORE POP PUSH1 0x4 PUSH1 0x0 CALLER PUSH20 0xFFFFFFFFFFFFFFFFFFFFFFFFFFFFFFFFFFFFFFFF AND PUSH20 0xFFFFFFFFFFFFFFFFFFFFFFFFFFFFFFFFFFFFFFFF AND DUP2 MSTORE PUSH1 0x20 ADD SWAP1 DUP2 MSTORE PUSH1 0x20 ADD PUSH1 0x0 KECCAK256 POP PUSH2 0x320 PUSH1 0x4 PUSH1 0x0 CALLER PUSH20 0xFFFFFFFFFFFFFFFFFFFFFFFFFFFFFFFFFFFFFFFF AND PUSH20 0xFFFFFFFFFFFFFFFFFFFFFFFFFFFFFFFFFFFFFFFF AND DUP2 MSTORE PUSH1 0x20 ADD SWAP1 DUP2 MSTORE PUSH1 0x20 ADD PUSH1 0x0 KECCAK256 DUP2 SWAP1 SSTORE POP PUSH1 0x4 PUSH1 0x0 CALLER PUSH20 0xFFFFFFFFFFFFFFFFFFFFFFFFFFFFFFFFFFFFFFFF AND PUSH20 0xFFFFFFFFFFFFFFFFFFFFFFFFFFFFFFFFFFFFFFFF AND DUP2 MSTORE PUSH1 0x20 ADD SWAP1 DUP2 MSTORE PUSH1 0x20 ADD PUSH1 0x0 KECCAK256 PUSH1 0x0 SWAP1 SSTORE JUMP JUMPDEST PUSH8 0xDE0B6B3A7640000 CALLVALUE LT ISZERO PUSH2 0x830 JUMPI PUSH1 0x40 MLOAD PUSH32 0x8C379A000000000000000000000000000000000000000000000000000000000 DUP2 MSTORE PUSH1 0x4 ADD PUSH2 0x827 SWAP1 PUSH2 0xFBF JUMP JUMPDEST PUSH1 0x40 MLOAD DUP1 SWAP2 SUB SWAP1 REVERT JUMPDEST JUMP JUMPDEST PUSH2 0x83A PUSH2 0xBD5 JUMP JUMPDEST PUSH1 0x64 DUP2 PUSH1 0x0 ADD DUP2 DUP2 MSTORE POP POP PUSH1 0x40 MLOAD DUP1 PUSH1 0x40 ADD PUSH1 0x40 MSTORE DUP1 PUSH1 0x3 DUP2 MSTORE PUSH1 0x20 ADD PUSH32 0x414C490000000000000000000000000000000000000000000000000000000000 DUP2 MSTORE POP DUP2 PUSH1 0x20 ADD DUP2 SWAP1 MSTORE POP PUSH1 0x14 DUP2 PUSH1 0x40 ADD DUP2 DUP2 MSTORE POP POP PUSH1 0x0 PUSH1 0x40 MLOAD DUP1 PUSH1 0x60 ADD PUSH1 0x40 MSTORE DUP1 PUSH1 0x65 DUP2 MSTORE PUSH1 0x20 ADD PUSH1 0x40 MLOAD DUP1 PUSH1 0x40 ADD PUSH1 0x40 MSTORE DUP1 PUSH1 0x3 DUP2 MSTORE PUSH1 0x20 ADD PUSH32 0x53414D0000000000000000000000000000000000000000000000000000000000 DUP2 MSTORE POP DUP2 MSTORE PUSH1 0x20 ADD PUSH1 0x16 DUP2 MSTORE POP SWAP1 POP POP POP JUMP JUMPDEST PUSH1 0x64 PUSH1 0x6 PUSH1 0x0 CALLER PUSH20 0xFFFFFFFFFFFFFFFFFFFFFFFFFFFFFFFFFFFFFFFF AND PUSH20 0xFFFFFFFFFFFFFFFFFFFFFFFFFFFFFFFFFFFFFFFF AND DUP2 MSTORE PUSH1 0x20 ADD SWAP1 DUP2 MSTORE PUSH1 0x20 ADD PUSH1 0x0 KECCAK256 PUSH1 0x0 DUP2 SLOAD DUP2 LT PUSH2 0x93C JUMPI PUSH2 0x93B PUSH2 0x12B7 JUMP JUMPDEST JUMPDEST SWAP1 PUSH1 0x0 MSTORE PUSH1 0x20 PUSH1 0x0 KECCAK256 ADD DUP2 SWAP1 SSTORE POP PUSH1 0x6 PUSH1 0x0 CALLER PUSH20 0xFFFFFFFFFFFFFFFFFFFFFFFFFFFFFFFFFFFFFFFF AND PUSH20 0xFFFFFFFFFFFFFFFFFFFFFFFFFFFFFFFFFFFFFFFF AND DUP2 MSTORE PUSH1 0x20 ADD SWAP1 DUP2 MSTORE PUSH1 0x20 ADD PUSH1 0x0 KECCAK256 PUSH1 0x0 DUP2 SLOAD DUP2 LT PUSH2 0x99C JUMPI PUSH2 0x99B PUSH2 0x12B7 JUMP JUMPDEST JUMPDEST SWAP1 PUSH1 0x0 MSTORE PUSH1 0x20 PUSH1 0x0 KECCAK256 POP POP PUSH1 0xC8 PUSH1 0x6 PUSH1 0x0 CALLER PUSH20 0xFFFFFFFFFFFFFFFFFFFFFFFFFFFFFFFFFFFFFFFF AND PUSH20 0xFFFFFFFFFFFFFFFFFFFFFFFFFFFFFFFFFFFFFFFF AND DUP2 MSTORE PUSH1 0x20 ADD SWAP1 DUP2 MSTORE PUSH1 0x20 ADD PUSH1 0x0 KECCAK256 PUSH1 0x0 DUP2 SLOAD DUP2 LT PUSH2 0x9FB JUMPI PUSH2 0x9FA PUSH2 0x12B7 JUMP JUMPDEST JUMPDEST SWAP1 PUSH1 0x0 MSTORE PUSH1 0x20 PUSH1 0x0 KECCAK256 ADD DUP2 SWAP1 SSTORE POP PUSH1 0x6 PUSH1 0x0 CALLER PUSH20 0xFFFFFFFFFFFFFFFFFFFFFFFFFFFFFFFFFFFFFFFF AND PUSH20 0xFFFFFFFFFFFFFFFFFFFFFFFFFFFFFFFFFFFFFFFF AND DUP2 MSTORE PUSH1 0x20 ADD SWAP1 DUP2 MSTORE PUSH1 0x20 ADD PUSH1 0x0 KECCAK256 PUSH1 0x0 DUP2 SLOAD DUP2 LT PUSH2 0xA5B JUMPI PUSH2 0xA5A PUSH2 0x12B7 JUMP JUMPDEST JUMPDEST SWAP1 PUSH1 0x0 MSTORE PUSH1 0x20 PUSH1 0x0 KECCAK256 ADD PUSH1 0x0 SWAP1 SSTORE JUMP JUMPDEST PUSH32 0x3EBA86EB3C0EA121E35980D4ACAE6EB9F1CDF0BF7C0C08443798CFD6E5299DE3 DUP4 DUP4 DUP4 TIMESTAMP PUSH1 0x1 PUSH1 0x40 MLOAD PUSH2 0xAA3 SWAP6 SWAP5 SWAP4 SWAP3 SWAP2 SWAP1 PUSH2 0xF06 JUMP JUMPDEST PUSH1 0x40 MLOAD DUP1 SWAP2 SUB SWAP1 LOG1 POP POP POP JUMP JUMPDEST PUSH1 0x0 PUSH1 0x3 PUSH1 0xA SWAP1 DUP1 PUSH1 0x1 DUP2 SLOAD ADD DUP1 DUP3 SSTORE DUP1 SWAP2 POP POP PUSH1 0x1 SWAP1 SUB SWAP1 PUSH1 0x0 MSTORE PUSH1 0x20 PUSH1 0x0 KECCAK256 ADD PUSH1 0x0 SWAP1 SWAP2 SWAP1 SWAP2 SWAP1 SWAP2 POP SSTORE PUSH1 0x3 PUSH1 0x14 SWAP1 DUP1 PUSH1 0x1 DUP2 SLOAD ADD DUP1 DUP3 SSTORE DUP1 SWAP2 POP POP PUSH1 0x1 SWAP1 SUB SWAP1 PUSH1 0x0 MSTORE PUSH1 0x20 PUSH1 0x0 KECCAK256 ADD PUSH1 0x0 SWAP1 SWAP2 SWAP1 SWAP2 SWAP1 SWAP2 POP SSTORE PUSH1 0x0 DUP1 JUMPDEST PUSH1 0x3 DUP1 SLOAD SWAP1 POP DUP2 GT PUSH2 0xB55 JUMPI PUSH1 0x3 DUP2 DUP2 SLOAD DUP2 LT PUSH2 0xB2A JUMPI PUSH2 0xB29 PUSH2 0x12B7 JUMP JUMPDEST JUMPDEST SWAP1 PUSH1 0x0 MSTORE PUSH1 0x20 PUSH1 0x0 KECCAK256 ADD SLOAD DUP3 PUSH2 0xB40 SWAP2 SWAP1 PUSH2 0x1077 JUMP JUMPDEST SWAP2 POP DUP1 DUP1 PUSH2 0xB4D SWAP1 PUSH2 0x1210 JUMP JUMPDEST SWAP2 POP POP PUSH2 0xB0A JUMP JUMPDEST POP DUP1 SWAP2 POP POP SWAP1 JUMP JUMPDEST PUSH1 0x0 DUP2 PUSH1 0x40 MLOAD PUSH1 0x20 ADD PUSH2 0xB70 SWAP2 SWAP1 PUSH2 0xEEF JUMP JUMPDEST PUSH1 0x40 MLOAD PUSH1 0x20 DUP2 DUP4 SUB SUB DUP2 MSTORE SWAP1 PUSH1 0x40 MSTORE DUP1 MLOAD SWAP1 PUSH1 0x20 ADD KECCAK256 SWAP1 POP SWAP2 SWAP1 POP JUMP JUMPDEST PUSH1 0x5 DUP2 GT PUSH2 0xB9E JUMPI PUSH2 0xB9D PUSH2 0x1259 JUMP JUMPDEST JUMPDEST POP JUMP JUMPDEST PUSH1 0x60 DUP2 SWAP1 POP SWAP2 SWAP1 POP JUMP JUMPDEST PUSH1 0x0 SELFBALANCE SWAP1 POP SWAP1 JUMP JUMPDEST PUSH1 0x40 MLOAD DUP1 PUSH1 0x60 ADD PUSH1 0x40 MSTORE DUP1 PUSH1 0x3 SWAP1 PUSH1 0x20 DUP3 MUL DUP1 CALLDATASIZE DUP4 CALLDATACOPY DUP1 DUP3 ADD SWAP2 POP POP SWAP1 POP POP SWAP1 JUMP JUMPDEST PUSH1 0x40 MLOAD DUP1 PUSH1 0x60 ADD PUSH1 0x40 MSTORE DUP1 PUSH1 0x0 DUP2 MSTORE PUSH1 0x20 ADD PUSH1 0x60 DUP2 MSTORE PUSH1 0x20 ADD PUSH1 0x0 DUP2 MSTORE POP SWAP1 JUMP JUMPDEST PUSH1 0x0 PUSH2 0xC09 PUSH2 0xC04 DUP5 PUSH2 0x101F JUMP JUMPDEST PUSH2 0xFFA JUMP JUMPDEST SWAP1 POP DUP3 DUP2 MSTORE PUSH1 0x20 DUP2 ADD DUP5 DUP5 DUP5 ADD GT ISZERO PUSH2 0xC25 JUMPI PUSH2 0xC24 PUSH2 0x131A JUMP JUMPDEST JUMPDEST PUSH2 0xC30 DUP5 DUP3 DUP6 PUSH2 0x119D JUMP JUMPDEST POP SWAP4 SWAP3 POP POP POP JUMP JUMPDEST PUSH1 0x0 DUP2 CALLDATALOAD SWAP1 POP PUSH2 0xC47 DUP2 PUSH2 0x1363 JUMP JUMPDEST SWAP3 SWAP2 POP POP JUMP JUMPDEST PUSH1 0x0 DUP3 PUSH1 0x1F DUP4 ADD SLT PUSH2 0xC62 JUMPI PUSH2 0xC61 PUSH2 0x1315 JUMP JUMPDEST JUMPDEST DUP2 CALLDATALOAD PUSH2 0xC72 DUP5 DUP3 PUSH1 0x20 DUP7 ADD PUSH2 0xBF6 JUMP JUMPDEST SWAP2 POP POP SWAP3 SWAP2 POP POP JUMP JUMPDEST PUSH1 0x0 DUP2 CALLDATALOAD SWAP1 POP PUSH2 0xC8A DUP2 PUSH2 0x137A JUMP JUMPDEST SWAP3 SWAP2 POP POP JUMP JUMPDEST PUSH1 0x0 DUP2 MLOAD SWAP1 POP PUSH2 0xC9F DUP2 PUSH2 0x137A JUMP JUMPDEST SWAP3 SWAP2 POP POP JUMP JUMPDEST PUSH1 0x0 PUSH1 0x20 DUP3 DUP5 SUB SLT ISZERO PUSH2 0xCBB JUMPI PUSH2 0xCBA PUSH2 0x1324 JUMP JUMPDEST JUMPDEST PUSH1 0x0 PUSH2 0xCC9 DUP5 DUP3 DUP6 ADD PUSH2 0xC38 JUMP JUMPDEST SWAP2 POP POP SWAP3 SWAP2 POP POP JUMP JUMPDEST PUSH1 0x0 DUP1 PUSH1 0x0 PUSH1 0x60 DUP5 DUP7 SUB SLT ISZERO PUSH2 0xCEB JUMPI PUSH2 0xCEA PUSH2 0x1324 JUMP JUMPDEST JUMPDEST PUSH1 0x0 PUSH2 0xCF9 DUP7 DUP3 DUP8 ADD PUSH2 0xC38 JUMP JUMPDEST SWAP4 POP POP PUSH1 0x20 PUSH2 0xD0A DUP7 DUP3 DUP8 ADD PUSH2 0xC38 JUMP JUMPDEST SWAP3 POP POP PUSH1 0x40 PUSH2 0xD1B DUP7 DUP3 DUP8 ADD PUSH2 0xC7B JUMP JUMPDEST SWAP2 POP POP SWAP3 POP SWAP3 POP SWAP3 JUMP JUMPDEST PUSH1 0x0 DUP1 PUSH1 0x40 DUP4 DUP6 SUB SLT ISZERO PUSH2 0xD3C JUMPI PUSH2 0xD3B PUSH2 0x1324 JUMP JUMPDEST JUMPDEST PUSH1 0x0 PUSH2 0xD4A DUP6 DUP3 DUP7 ADD PUSH2 0xC38 JUMP JUMPDEST SWAP3 POP POP PUSH1 0x20 PUSH2 0xD5B DUP6 DUP3 DUP7 ADD PUSH2 0xC7B JUMP JUMPDEST SWAP2 POP POP SWAP3 POP SWAP3 SWAP1 POP JUMP JUMPDEST PUSH1 0x0 PUSH1 0x20 DUP3 DUP5 SUB SLT ISZERO PUSH2 0xD7B JUMPI PUSH2 0xD7A PUSH2 0x1324 JUMP JUMPDEST JUMPDEST PUSH1 0x0 DUP3 ADD CALLDATALOAD PUSH8 0xFFFFFFFFFFFFFFFF DUP2 GT ISZERO PUSH2 0xD99 JUMPI PUSH2 0xD98 PUSH2 0x131F JUMP JUMPDEST JUMPDEST PUSH2 0xDA5 DUP5 DUP3 DUP6 ADD PUSH2 0xC4D JUMP JUMPDEST SWAP2 POP POP SWAP3 SWAP2 POP POP JUMP JUMPDEST PUSH1 0x0 PUSH1 0x20 DUP3 DUP5 SUB SLT ISZERO PUSH2 0xDC4 JUMPI PUSH2 0xDC3 PUSH2 0x1324 JUMP JUMPDEST JUMPDEST PUSH1 0x0 PUSH2 0xDD2 DUP5 DUP3 DUP6 ADD PUSH2 0xC7B JUMP JUMPDEST SWAP2 POP POP SWAP3 SWAP2 POP POP JUMP JUMPDEST PUSH1 0x0 PUSH1 0x20 DUP3 DUP5 SUB SLT ISZERO PUSH2 0xDF1 JUMPI PUSH2 0xDF0 PUSH2 0x1324 JUMP JUMPDEST JUMPDEST PUSH1 0x0 PUSH2 0xDFF DUP5 DUP3 DUP6 ADD PUSH2 0xC90 JUMP JUMPDEST SWAP2 POP POP SWAP3 SWAP2 POP POP JUMP JUMPDEST PUSH2 0xE11 DUP2 PUSH2 0x1127 JUMP JUMPDEST DUP3 MSTORE POP POP JUMP JUMPDEST PUSH2 0xE20 DUP2 PUSH2 0x1139 JUMP JUMPDEST DUP3 MSTORE POP POP JUMP JUMPDEST PUSH2 0xE2F DUP2 PUSH2 0x1145 JUMP JUMPDEST DUP3 MSTORE POP POP JUMP JUMPDEST PUSH2 0xE3E DUP2 PUSH2 0x1179 JUMP JUMPDEST DUP3 MSTORE POP POP JUMP JUMPDEST PUSH2 0xE4D DUP2 PUSH2 0x118B JUMP JUMPDEST DUP3 MSTORE POP POP JUMP JUMPDEST PUSH1 0x0 PUSH2 0xE5E DUP3 PUSH2 0x1050 JUMP JUMPDEST PUSH2 0xE68 DUP2 DUP6 PUSH2 0x105B JUMP JUMPDEST SWAP4 POP PUSH2 0xE78 DUP2 DUP6 PUSH1 0x20 DUP7 ADD PUSH2 0x11AC JUMP JUMPDEST PUSH2 0xE81 DUP2 PUSH2 0x1329 JUMP JUMPDEST DUP5 ADD SWAP2 POP POP SWAP3 SWAP2 POP POP JUMP JUMPDEST PUSH1 0x0 PUSH2 0xE97 DUP3 PUSH2 0x1050 JUMP JUMPDEST PUSH2 0xEA1 DUP2 DUP6 PUSH2 0x106C JUMP JUMPDEST SWAP4 POP PUSH2 0xEB1 DUP2 DUP6 PUSH1 0x20 DUP7 ADD PUSH2 0x11AC JUMP JUMPDEST DUP1 DUP5 ADD SWAP2 POP POP SWAP3 SWAP2 POP POP JUMP JUMPDEST PUSH1 0x0 PUSH2 0xECA PUSH1 0x10 DUP4 PUSH2 0x105B JUMP JUMPDEST SWAP2 POP PUSH2 0xED5 DUP3 PUSH2 0x133A JUMP JUMPDEST PUSH1 0x20 DUP3 ADD SWAP1 POP SWAP2 SWAP1 POP JUMP JUMPDEST PUSH2 0xEE9 DUP2 PUSH2 0x116F JUMP JUMPDEST DUP3 MSTORE POP POP JUMP JUMPDEST PUSH1 0x0 PUSH2 0xEFB DUP3 DUP5 PUSH2 0xE8C JUMP JUMPDEST SWAP2 POP DUP2 SWAP1 POP SWAP3 SWAP2 POP POP JUMP JUMPDEST PUSH1 0x0 PUSH1 0xA0 DUP3 ADD SWAP1 POP PUSH2 0xF1B PUSH1 0x0 DUP4 ADD DUP9 PUSH2 0xE08 JUMP JUMPDEST PUSH2 0xF28 PUSH1 0x20 DUP4 ADD DUP8 PUSH2 0xE08 JUMP JUMPDEST PUSH2 0xF35 PUSH1 0x40 DUP4 ADD DUP7 PUSH2 0xEE0 JUMP JUMPDEST PUSH2 0xF42 PUSH1 0x60 DUP4 ADD DUP6 PUSH2 0xEE0 JUMP JUMPDEST PUSH2 0xF4F PUSH1 0x80 DUP4 ADD DUP5 PUSH2 0xE17 JUMP JUMPDEST SWAP7 SWAP6 POP POP POP POP POP POP JUMP JUMPDEST PUSH1 0x0 PUSH1 0x20 DUP3 ADD SWAP1 POP PUSH2 0xF6E PUSH1 0x0 DUP4 ADD DUP5 PUSH2 0xE26 JUMP JUMPDEST SWAP3 SWAP2 POP POP JUMP JUMPDEST PUSH1 0x0 PUSH1 0x40 DUP3 ADD SWAP1 POP PUSH2 0xF89 PUSH1 0x0 DUP4 ADD DUP6 PUSH2 0xE35 JUMP JUMPDEST PUSH2 0xF96 PUSH1 0x20 DUP4 ADD DUP5 PUSH2 0xE44 JUMP JUMPDEST SWAP4 SWAP3 POP POP POP JUMP JUMPDEST PUSH1 0x0 PUSH1 0x20 DUP3 ADD SWAP1 POP DUP2 DUP2 SUB PUSH1 0x0 DUP4 ADD MSTORE PUSH2 0xFB7 DUP2 DUP5 PUSH2 0xE53 JUMP JUMPDEST SWAP1 POP SWAP3 SWAP2 POP POP JUMP JUMPDEST PUSH1 0x0 PUSH1 0x20 DUP3 ADD SWAP1 POP DUP2 DUP2 SUB PUSH1 0x0 DUP4 ADD MSTORE PUSH2 0xFD8 DUP2 PUSH2 0xEBD JUMP JUMPDEST SWAP1 POP SWAP2 SWAP1 POP JUMP JUMPDEST PUSH1 0x0 PUSH1 0x20 DUP3 ADD SWAP1 POP PUSH2 0xFF4 PUSH1 0x0 DUP4 ADD DUP5 PUSH2 0xEE0 JUMP JUMPDEST SWAP3 SWAP2 POP POP JUMP JUMPDEST PUSH1 0x0 PUSH2 0x1004 PUSH2 0x1015 JUMP JUMPDEST SWAP1 POP PUSH2 0x1010 DUP3 DUP3 PUSH2 0x11DF JUMP JUMPDEST SWAP2 SWAP1 POP JUMP JUMPDEST PUSH1 0x0 PUSH1 0x40 MLOAD SWAP1 POP SWAP1 JUMP JUMPDEST PUSH1 0x0 PUSH8 0xFFFFFFFFFFFFFFFF DUP3 GT ISZERO PUSH2 0x103A JUMPI PUSH2 0x1039 PUSH2 0x12E6 JUMP JUMPDEST JUMPDEST PUSH2 0x1043 DUP3 PUSH2 0x1329 JUMP JUMPDEST SWAP1 POP PUSH1 0x20 DUP2 ADD SWAP1 POP SWAP2 SWAP1 POP JUMP JUMPDEST PUSH1 0x0 DUP2 MLOAD SWAP1 POP SWAP2 SWAP1 POP JUMP JUMPDEST PUSH1 0x0 DUP3 DUP3 MSTORE PUSH1 0x20 DUP3 ADD SWAP1 POP SWAP3 SWAP2 POP POP JUMP JUMPDEST PUSH1 0x0 DUP2 SWAP1 POP SWAP3 SWAP2 POP POP JUMP JUMPDEST PUSH1 0x0 PUSH2 0x1082 DUP3 PUSH2 0x116F JUMP JUMPDEST SWAP2 POP PUSH2 0x108D DUP4 PUSH2 0x116F JUMP JUMPDEST SWAP3 POP DUP3 PUSH32 0xFFFFFFFFFFFFFFFFFFFFFFFFFFFFFFFFFFFFFFFFFFFFFFFFFFFFFFFFFFFFFFFF SUB DUP3 GT ISZERO PUSH2 0x10C2 JUMPI PUSH2 0x10C1 PUSH2 0x1288 JUMP JUMPDEST JUMPDEST DUP3 DUP3 ADD SWAP1 POP SWAP3 SWAP2 POP POP JUMP JUMPDEST PUSH1 0x0 PUSH2 0x10D8 DUP3 PUSH2 0x116F JUMP JUMPDEST SWAP2 POP PUSH2 0x10E3 DUP4 PUSH2 0x116F JUMP JUMPDEST SWAP3 POP DUP2 PUSH32 0xFFFFFFFFFFFFFFFFFFFFFFFFFFFFFFFFFFFFFFFFFFFFFFFFFFFFFFFFFFFFFFFF DIV DUP4 GT DUP3 ISZERO ISZERO AND ISZERO PUSH2 0x111C JUMPI PUSH2 0x111B PUSH2 0x1288 JUMP JUMPDEST JUMPDEST DUP3 DUP3 MUL SWAP1 POP SWAP3 SWAP2 POP POP JUMP JUMPDEST PUSH1 0x0 PUSH2 0x1132 DUP3 PUSH2 0x114F JUMP JUMPDEST SWAP1 POP SWAP2 SWAP1 POP JUMP JUMPDEST PUSH1 0x0 DUP2 ISZERO ISZERO SWAP1 POP SWAP2 SWAP1 POP JUMP JUMPDEST PUSH1 0x0 DUP2 SWAP1 POP SWAP2 SWAP1 POP JUMP JUMPDEST PUSH1 0x0 PUSH20 0xFFFFFFFFFFFFFFFFFFFFFFFFFFFFFFFFFFFFFFFF DUP3 AND SWAP1 POP SWAP2 SWAP1 POP JUMP JUMPDEST PUSH1 0x0 DUP2 SWAP1 POP SWAP2 SWAP1 POP JUMP JUMPDEST PUSH1 0x0 PUSH2 0x1184 DUP3 PUSH2 0x116F JUMP JUMPDEST SWAP1 POP SWAP2 SWAP1 POP JUMP JUMPDEST PUSH1 0x0 PUSH2 0x1196 DUP3 PUSH2 0x116F JUMP JUMPDEST SWAP1 POP SWAP2 SWAP1 POP JUMP JUMPDEST DUP3 DUP2 DUP4 CALLDATACOPY PUSH1 0x0 DUP4 DUP4 ADD MSTORE POP POP POP JUMP JUMPDEST PUSH1 0x0 JUMPDEST DUP4 DUP2 LT ISZERO PUSH2 0x11CA JUMPI DUP1 DUP3 ADD MLOAD DUP2 DUP5 ADD MSTORE PUSH1 0x20 DUP2 ADD SWAP1 POP PUSH2 0x11AF JUMP JUMPDEST DUP4 DUP2 GT ISZERO PUSH2 0x11D9 JUMPI PUSH1 0x0 DUP5 DUP5 ADD MSTORE JUMPDEST POP POP POP POP JUMP JUMPDEST PUSH2 0x11E8 DUP3 PUSH2 0x1329 JUMP JUMPDEST DUP2 ADD DUP2 DUP2 LT PUSH8 0xFFFFFFFFFFFFFFFF DUP3 GT OR ISZERO PUSH2 0x1207 JUMPI PUSH2 0x1206 PUSH2 0x12E6 JUMP JUMPDEST JUMPDEST DUP1 PUSH1 0x40 MSTORE POP POP POP JUMP JUMPDEST PUSH1 0x0 PUSH2 0x121B DUP3 PUSH2 0x116F JUMP JUMPDEST SWAP2 POP PUSH32 0xFFFFFFFFFFFFFFFFFFFFFFFFFFFFFFFFFFFFFFFFFFFFFFFFFFFFFFFFFFFFFFFF DUP3 EQ ISZERO PUSH2 0x124E JUMPI PUSH2 0x124D PUSH2 0x1288 JUMP JUMPDEST JUMPDEST PUSH1 0x1 DUP3 ADD SWAP1 POP SWAP2 SWAP1 POP JUMP JUMPDEST PUSH32 0x4E487B7100000000000000000000000000000000000000000000000000000000 PUSH1 0x0 MSTORE PUSH1 0x1 PUSH1 0x4 MSTORE PUSH1 0x24 PUSH1 0x0 REVERT JUMPDEST PUSH32 0x4E487B7100000000000000000000000000000000000000000000000000000000 PUSH1 0x0 MSTORE PUSH1 0x11 PUSH1 0x4 MSTORE PUSH1 0x24 PUSH1 0x0 REVERT JUMPDEST PUSH32 0x4E487B7100000000000000000000000000000000000000000000000000000000 PUSH1 0x0 MSTORE PUSH1 0x32 PUSH1 0x4 MSTORE PUSH1 0x24 PUSH1 0x0 REVERT JUMPDEST PUSH32 0x4E487B7100000000000000000000000000000000000000000000000000000000 PUSH1 0x0 MSTORE PUSH1 0x41 PUSH1 0x4 MSTORE PUSH1 0x24 PUSH1 0x0 REVERT JUMPDEST PUSH1 0x0 DUP1 REVERT JUMPDEST PUSH1 0x0 DUP1 REVERT JUMPDEST PUSH1 0x0 DUP1 REVERT JUMPDEST PUSH1 0x0 DUP1 REVERT JUMPDEST PUSH1 0x0 PUSH1 0x1F NOT PUSH1 0x1F DUP4 ADD AND SWAP1 POP SWAP2 SWAP1 POP JUMP JUMPDEST PUSH32 0x4E6F7420456E6F756768204D6F6E657900000000000000000000000000000000 PUSH1 0x0 DUP3 ADD MSTORE POP JUMP JUMPDEST PUSH2 0x136C DUP2 PUSH2 0x1127 JUMP JUMPDEST DUP2 EQ PUSH2 0x1377 JUMPI PUSH1 0x0 DUP1 REVERT JUMPDEST POP JUMP JUMPDEST PUSH2 0x1383 DUP2 PUSH2 0x116F JUMP JUMPDEST DUP2 EQ PUSH2 0x138E JUMPI PUSH1 0x0 DUP1 REVERT JUMPDEST POP JUMP INVALID LOG2 PUSH5 0x6970667358 0x22 SLT KECCAK256 DELEGATECALL 0xC5 CALLER NOT REVERT PUSH15 0x26FE62E990D72564AFF132E9617BA3 0x4B 0x4E 0xBA CREATE2 CALLCODE 0xB3 EXTCODEHASH SWAP8 XOR JUMPI 0x4C PUSH5 0x736F6C6343 STOP ADDMOD SMOD STOP CALLER "
				},
				"gasEstimates": {
					"creation": {
						"codeDepositCost": "1012600",
						"executionCost": "infinite",
						"totalCost": "infinite"
					},
					"external": {
						"GetBalance()": "427",
						"Send()": "523",
						"errorHandling(uint256)": "500",
						"finalTransfer(address,address,uint256)": "infinite",
						"hash(string)": "infinite",
						"hash2(string)": "infinite",
						"keywords(address)": "2886",
						"logTransaction()": "41406",
						"pushArray()": "infinite",
						"sample(string)": "infinite",
						"testArray()": "infinite",
						"testLibrary()": "infinite",
						"testMapping()": "32709",
						"testNested(uint256)": "33239",
						"testStruct()": "536",
						"transferTo(address,uint256)": "infinite"
					}
				},
				"methodIdentifiers": {
					"GetBalance()": "f8f8a912",
					"Send()": "92d282c1",
					"errorHandling(uint256)": "c250d683",
					"finalTransfer(address,address,uint256)": "a323e6a0",
					"hash(string)": "b411ee94",
					"hash2(string)": "2becdd80",
					"keywords(address)": "503a37b1",
					"logTransaction()": "9de444d9",
					"pushArray()": "af67ac3f",
					"sample(string)": "f06f7828",
					"testArray()": "2283bffd",
					"testLibrary()": "0f15491e",
					"testMapping()": "8b547d0e",
					"testNested(uint256)": "43c2f4c1",
					"testStruct()": "9b0e317c",
					"transferTo(address,uint256)": "2ccb1b30"
				}
			},
			"storageLayout": {
				"storage": [
					{
						"astId": 3,
						"contract": "Bootcamp_flat.sol:bootCamp",
						"label": "a",
						"offset": 0,
						"slot": "0",
						"type": "t_int256"
					},
					{
						"astId": 5,
						"contract": "Bootcamp_flat.sol:bootCamp",
						"label": "b",
						"offset": 0,
						"slot": "1",
						"type": "t_int256"
					},
					{
						"astId": 8,
						"contract": "Bootcamp_flat.sol:bootCamp",
						"label": "str",
						"offset": 0,
						"slot": "2",
						"type": "t_string_storage"
					},
					{
						"astId": 77,
						"contract": "Bootcamp_flat.sol:bootCamp",
						"label": "test",
						"offset": 0,
						"slot": "3",
						"type": "t_array(t_uint256)dyn_storage"
					},
					{
						"astId": 137,
						"contract": "Bootcamp_flat.sol:bootCamp",
						"label": "balance",
						"offset": 0,
						"slot": "4",
						"type": "t_mapping(t_address,t_uint256)"
					},
					{
						"astId": 143,
						"contract": "Bootcamp_flat.sol:bootCamp",
						"label": "balanceList",
						"offset": 0,
						"slot": "5",
						"type": "t_mapping(t_uint256,t_mapping(t_address,t_uint256))"
					},
					{
						"astId": 177,
						"contract": "Bootcamp_flat.sol:bootCamp",
						"label": "transactions",
						"offset": 0,
						"slot": "6",
						"type": "t_mapping(t_address,t_array(t_uint256)dyn_storage)"
					}
				],
				"types": {
					"t_address": {
						"encoding": "inplace",
						"label": "address",
						"numberOfBytes": "20"
					},
					"t_array(t_uint256)dyn_storage": {
						"base": "t_uint256",
						"encoding": "dynamic_array",
						"label": "uint256[]",
						"numberOfBytes": "32"
					},
					"t_int256": {
						"encoding": "inplace",
						"label": "int256",
						"numberOfBytes": "32"
					},
					"t_mapping(t_address,t_array(t_uint256)dyn_storage)": {
						"encoding": "mapping",
						"key": "t_address",
						"label": "mapping(address => uint256[])",
						"numberOfBytes": "32",
						"value": "t_array(t_uint256)dyn_storage"
					},
					"t_mapping(t_address,t_uint256)": {
						"encoding": "mapping",
						"key": "t_address",
						"label": "mapping(address => uint256)",
						"numberOfBytes": "32",
						"value": "t_uint256"
					},
					"t_mapping(t_uint256,t_mapping(t_address,t_uint256))": {
						"encoding": "mapping",
						"key": "t_uint256",
						"label": "mapping(uint256 => mapping(address => uint256))",
						"numberOfBytes": "32",
						"value": "t_mapping(t_address,t_uint256)"
					},
					"t_string_storage": {
						"encoding": "bytes",
						"label": "string",
						"numberOfBytes": "32"
					},
					"t_uint256": {
						"encoding": "inplace",
						"label": "uint256",
						"numberOfBytes": "32"
					}
				}
			},
			"userdoc": {
				"kind": "user",
				"methods": {},
				"version": 1
			}
		}
	}
}