{
	"contracts/Multi_Sign_Wallet.sol": {
		"MultiSignWallet": {
			"abi": [
				{
					"inputs": [],
					"stateMutability": "nonpayable",
					"type": "constructor"
				},
				{
					"anonymous": false,
					"inputs": [
						{
							"indexed": false,
							"internalType": "address",
							"name": "_from",
							"type": "address"
						},
						{
							"indexed": false,
							"internalType": "uint256",
							"name": "amount",
							"type": "uint256"
						}
					],
					"name": "DepositFunds",
					"type": "event"
				},
				{
					"anonymous": false,
					"inputs": [
						{
							"indexed": false,
							"internalType": "address",
							"name": "_from",
							"type": "address"
						},
						{
							"indexed": false,
							"internalType": "address",
							"name": "_to",
							"type": "address"
						},
						{
							"indexed": false,
							"internalType": "uint256",
							"name": "amount",
							"type": "uint256"
						},
						{
							"indexed": false,
							"internalType": "uint256",
							"name": "transactionId",
							"type": "uint256"
						}
					],
					"name": "TransactionCompleted",
					"type": "event"
				},
				{
					"anonymous": false,
					"inputs": [
						{
							"indexed": false,
							"internalType": "address",
							"name": "_from",
							"type": "address"
						},
						{
							"indexed": false,
							"internalType": "address",
							"name": "_to",
							"type": "address"
						},
						{
							"indexed": false,
							"internalType": "uint256",
							"name": "amount",
							"type": "uint256"
						},
						{
							"indexed": false,
							"internalType": "uint256",
							"name": "transactionId",
							"type": "uint256"
						}
					],
					"name": "TransactionCreated",
					"type": "event"
				},
				{
					"anonymous": false,
					"inputs": [
						{
							"indexed": false,
							"internalType": "address",
							"name": "_by",
							"type": "address"
						},
						{
							"indexed": false,
							"internalType": "uint256",
							"name": "transactionId",
							"type": "uint256"
						}
					],
					"name": "TransactionSigned",
					"type": "event"
				},
				{
					"inputs": [
						{
							"internalType": "address",
							"name": "owner",
							"type": "address"
						}
					],
					"name": "addOwner",
					"outputs": [],
					"stateMutability": "nonpayable",
					"type": "function"
				},
				{
					"inputs": [],
					"name": "deposite",
					"outputs": [],
					"stateMutability": "payable",
					"type": "function"
				},
				{
					"inputs": [],
					"name": "getPendingTransactions",
					"outputs": [
						{
							"internalType": "uint256[]",
							"name": "",
							"type": "uint256[]"
						}
					],
					"stateMutability": "view",
					"type": "function"
				},
				{
					"inputs": [
						{
							"internalType": "uint256",
							"name": "_id",
							"type": "uint256"
						}
					],
					"name": "getTransaction",
					"outputs": [
						{
							"components": [
								{
									"internalType": "address payable",
									"name": "sender",
									"type": "address"
								},
								{
									"internalType": "address payable",
									"name": "reciever",
									"type": "address"
								},
								{
									"internalType": "uint256",
									"name": "amount",
									"type": "uint256"
								},
								{
									"internalType": "bool",
									"name": "isSigned",
									"type": "bool"
								},
								{
									"internalType": "uint8",
									"name": "signatureCount",
									"type": "uint8"
								}
							],
							"internalType": "struct MultiSignWallet.Transaction",
							"name": "",
							"type": "tuple"
						}
					],
					"stateMutability": "view",
					"type": "function"
				},
				{
					"inputs": [
						{
							"internalType": "address",
							"name": "owner",
							"type": "address"
						}
					],
					"name": "removeOwner",
					"outputs": [],
					"stateMutability": "nonpayable",
					"type": "function"
				},
				{
					"inputs": [],
					"name": "selectedTransactionBalance",
					"outputs": [
						{
							"internalType": "uint256",
							"name": "",
							"type": "uint256"
						}
					],
					"stateMutability": "view",
					"type": "function"
				},
				{
					"inputs": [
						{
							"internalType": "address payable",
							"name": "_reciever",
							"type": "address"
						},
						{
							"internalType": "uint256",
							"name": "_amount",
							"type": "uint256"
						}
					],
					"name": "transferTo",
					"outputs": [],
					"stateMutability": "nonpayable",
					"type": "function"
				},
				{
					"inputs": [
						{
							"internalType": "uint256",
							"name": "amount",
							"type": "uint256"
						}
					],
					"name": "withDraw",
					"outputs": [],
					"stateMutability": "nonpayable",
					"type": "function"
				}
			],
			"devdoc": {
				"kind": "dev",
				"methods": {},
				"version": 1
			},
			"evm": {
				"assembly": "    /* \"contracts/Multi_Sign_Wallet.sol\":25:3227  contract MultiSignWallet {\r... */\n  mstore(0x40, 0x80)\n    /* \"contracts/Multi_Sign_Wallet.sol\":1732:1784  constructor() {\r... */\n  callvalue\n  dup1\n  iszero\n  tag_1\n  jumpi\n  0x00\n  dup1\n  revert\ntag_1:\n  pop\n    /* \"contracts/Multi_Sign_Wallet.sol\":1766:1776  msg.sender */\n  caller\n    /* \"contracts/Multi_Sign_Wallet.sol\":1757:1763  _owner */\n  0x00\n  dup1\n    /* \"contracts/Multi_Sign_Wallet.sol\":1757:1776  _owner = msg.sender */\n  0x0100\n  exp\n  dup2\n  sload\n  dup2\n  0xffffffffffffffffffffffffffffffffffffffff\n  mul\n  not\n  and\n  swap1\n  dup4\n  0xffffffffffffffffffffffffffffffffffffffff\n  and\n  mul\n  or\n  swap1\n  sstore\n  pop\n    /* \"contracts/Multi_Sign_Wallet.sol\":25:3227  contract MultiSignWallet {\r... */\n  dataSize(sub_0)\n  dup1\n  dataOffset(sub_0)\n  0x00\n  codecopy\n  0x00\n  return\nstop\n\nsub_0: assembly {\n        /* \"contracts/Multi_Sign_Wallet.sol\":25:3227  contract MultiSignWallet {\r... */\n      mstore(0x40, 0x80)\n      jumpi(tag_1, lt(calldatasize, 0x04))\n      shr(0xe0, calldataload(0x00))\n      dup1\n      0x572c1bf4\n      gt\n      tag_10\n      jumpi\n      dup1\n      0x572c1bf4\n      eq\n      tag_6\n      jumpi\n      dup1\n      0x7065cb48\n      eq\n      tag_7\n      jumpi\n      dup1\n      0xa50ec326\n      eq\n      tag_8\n      jumpi\n      dup1\n      0xd11db83f\n      eq\n      tag_9\n      jumpi\n      jump(tag_1)\n    tag_10:\n      dup1\n      0x14174f33\n      eq\n      tag_2\n      jumpi\n      dup1\n      0x173825d9\n      eq\n      tag_3\n      jumpi\n      dup1\n      0x2ccb1b30\n      eq\n      tag_4\n      jumpi\n      dup1\n      0x33ea3dc8\n      eq\n      tag_5\n      jumpi\n    tag_1:\n      0x00\n      dup1\n      revert\n        /* \"contracts/Multi_Sign_Wallet.sol\":2079:2174  function withDraw(uint amount) public {\r... */\n    tag_2:\n      callvalue\n      dup1\n      iszero\n      tag_11\n      jumpi\n      0x00\n      dup1\n      revert\n    tag_11:\n      pop\n      tag_12\n      0x04\n      dup1\n      calldatasize\n      sub\n      dup2\n      add\n      swap1\n      tag_13\n      swap2\n      swap1\n      tag_14\n      jump\t// in\n    tag_13:\n      tag_15\n      jump\t// in\n    tag_12:\n      stop\n        /* \"contracts/Multi_Sign_Wallet.sol\":1884:1971  function removeOwner(address owner) public isOwner{\r... */\n    tag_3:\n      callvalue\n      dup1\n      iszero\n      tag_16\n      jumpi\n      0x00\n      dup1\n      revert\n    tag_16:\n      pop\n      tag_17\n      0x04\n      dup1\n      calldatasize\n      sub\n      dup2\n      add\n      swap1\n      tag_18\n      swap2\n      swap1\n      tag_19\n      jump\t// in\n    tag_18:\n      tag_20\n      jump\t// in\n    tag_17:\n      stop\n        /* \"contracts/Multi_Sign_Wallet.sol\":2182:2756  function transferTo(address payable _reciever,uint _amount) public validOwner{\r... */\n    tag_4:\n      callvalue\n      dup1\n      iszero\n      tag_21\n      jumpi\n      0x00\n      dup1\n      revert\n    tag_21:\n      pop\n      tag_22\n      0x04\n      dup1\n      calldatasize\n      sub\n      dup2\n      add\n      swap1\n      tag_23\n      swap2\n      swap1\n      tag_24\n      jump\t// in\n    tag_23:\n      tag_25\n      jump\t// in\n    tag_22:\n      stop\n        /* \"contracts/Multi_Sign_Wallet.sol\":2898:3097  function getTransaction(uint _id) public view validOwner returns(Transaction memory){\r... */\n    tag_5:\n      callvalue\n      dup1\n      iszero\n      tag_26\n      jumpi\n      0x00\n      dup1\n      revert\n    tag_26:\n      pop\n      tag_27\n      0x04\n      dup1\n      calldatasize\n      sub\n      dup2\n      add\n      swap1\n      tag_28\n      swap2\n      swap1\n      tag_14\n      jump\t// in\n    tag_28:\n      tag_29\n      jump\t// in\n    tag_27:\n      mload(0x40)\n      tag_30\n      swap2\n      swap1\n      tag_31\n      jump\t// in\n    tag_30:\n      mload(0x40)\n      dup1\n      swap2\n      sub\n      swap1\n      return\n        /* \"contracts/Multi_Sign_Wallet.sol\":3105:3216  function selectedTransactionBalance() public view returns (uint){\r... */\n    tag_6:\n      callvalue\n      dup1\n      iszero\n      tag_32\n      jumpi\n      0x00\n      dup1\n      revert\n    tag_32:\n      pop\n      tag_33\n      tag_34\n      jump\t// in\n    tag_33:\n      mload(0x40)\n      tag_35\n      swap2\n      swap1\n      tag_36\n      jump\t// in\n    tag_35:\n      mload(0x40)\n      dup1\n      swap2\n      sub\n      swap1\n      return\n        /* \"contracts/Multi_Sign_Wallet.sol\":1792:1876  function addOwner(address owner) public isOwner{\r... */\n    tag_7:\n      callvalue\n      dup1\n      iszero\n      tag_37\n      jumpi\n      0x00\n      dup1\n      revert\n    tag_37:\n      pop\n      tag_38\n      0x04\n      dup1\n      calldatasize\n      sub\n      dup2\n      add\n      swap1\n      tag_39\n      swap2\n      swap1\n      tag_19\n      jump\t// in\n    tag_39:\n      tag_40\n      jump\t// in\n    tag_38:\n      stop\n        /* \"contracts/Multi_Sign_Wallet.sol\":1979:2071  function deposite() public payable{\r... */\n    tag_8:\n      tag_41\n      tag_42\n      jump\t// in\n    tag_41:\n      stop\n        /* \"contracts/Multi_Sign_Wallet.sol\":2764:2890  function getPendingTransactions() public view validOwner returns(uint[] memory) {\r... */\n    tag_9:\n      callvalue\n      dup1\n      iszero\n      tag_43\n      jumpi\n      0x00\n      dup1\n      revert\n    tag_43:\n      pop\n      tag_44\n      tag_45\n      jump\t// in\n    tag_44:\n      mload(0x40)\n      tag_46\n      swap2\n      swap1\n      tag_47\n      jump\t// in\n    tag_46:\n      mload(0x40)\n      dup1\n      swap2\n      sub\n      swap1\n      return\n        /* \"contracts/Multi_Sign_Wallet.sol\":2079:2174  function withDraw(uint amount) public {\r... */\n    tag_15:\n        /* \"contracts/Multi_Sign_Wallet.sol\":2128:2166  transferTo(payable(msg.sender),amount) */\n      tag_49\n        /* \"contracts/Multi_Sign_Wallet.sol\":2147:2157  msg.sender */\n      caller\n        /* \"contracts/Multi_Sign_Wallet.sol\":2159:2165  amount */\n      dup3\n        /* \"contracts/Multi_Sign_Wallet.sol\":2128:2138  transferTo */\n      tag_25\n        /* \"contracts/Multi_Sign_Wallet.sol\":2128:2166  transferTo(payable(msg.sender),amount) */\n      jump\t// in\n    tag_49:\n        /* \"contracts/Multi_Sign_Wallet.sol\":2079:2174  function withDraw(uint amount) public {\r... */\n      pop\n      jump\t// out\n        /* \"contracts/Multi_Sign_Wallet.sol\":1884:1971  function removeOwner(address owner) public isOwner{\r... */\n    tag_20:\n        /* \"contracts/Multi_Sign_Wallet.sol\":1477:1483  _owner */\n      0x00\n      dup1\n      sload\n      swap1\n      0x0100\n      exp\n      swap1\n      div\n      0xffffffffffffffffffffffffffffffffffffffff\n      and\n        /* \"contracts/Multi_Sign_Wallet.sol\":1465:1483  msg.sender==_owner */\n      0xffffffffffffffffffffffffffffffffffffffff\n      and\n        /* \"contracts/Multi_Sign_Wallet.sol\":1465:1475  msg.sender */\n      caller\n        /* \"contracts/Multi_Sign_Wallet.sol\":1465:1483  msg.sender==_owner */\n      0xffffffffffffffffffffffffffffffffffffffff\n      and\n      eq\n        /* \"contracts/Multi_Sign_Wallet.sol\":1457:1484  require(msg.sender==_owner) */\n      tag_51\n      jumpi\n      0x00\n      dup1\n      revert\n    tag_51:\n        /* \"contracts/Multi_Sign_Wallet.sol\":1962:1963  0 */\n      0x00\n        /* \"contracts/Multi_Sign_Wallet.sol\":1945:1952  _owners */\n      0x01\n        /* \"contracts/Multi_Sign_Wallet.sol\":1945:1959  _owners[owner] */\n      0x00\n        /* \"contracts/Multi_Sign_Wallet.sol\":1953:1958  owner */\n      dup4\n        /* \"contracts/Multi_Sign_Wallet.sol\":1945:1959  _owners[owner] */\n      0xffffffffffffffffffffffffffffffffffffffff\n      and\n      0xffffffffffffffffffffffffffffffffffffffff\n      and\n      dup2\n      mstore\n      0x20\n      add\n      swap1\n      dup2\n      mstore\n      0x20\n      add\n      0x00\n      keccak256\n      0x00\n        /* \"contracts/Multi_Sign_Wallet.sol\":1945:1963  _owners[owner] = 0 */\n      0x0100\n      exp\n      dup2\n      sload\n      dup2\n      0xff\n      mul\n      not\n      and\n      swap1\n      dup4\n      0xff\n      and\n      mul\n      or\n      swap1\n      sstore\n      pop\n        /* \"contracts/Multi_Sign_Wallet.sol\":1884:1971  function removeOwner(address owner) public isOwner{\r... */\n      pop\n      jump\t// out\n        /* \"contracts/Multi_Sign_Wallet.sol\":2182:2756  function transferTo(address payable _reciever,uint _amount) public validOwner{\r... */\n    tag_25:\n        /* \"contracts/Multi_Sign_Wallet.sol\":1642:1648  _owner */\n      0x00\n      dup1\n      sload\n      swap1\n      0x0100\n      exp\n      swap1\n      div\n      0xffffffffffffffffffffffffffffffffffffffff\n      and\n        /* \"contracts/Multi_Sign_Wallet.sol\":1628:1648  msg.sender == _owner */\n      0xffffffffffffffffffffffffffffffffffffffff\n      and\n        /* \"contracts/Multi_Sign_Wallet.sol\":1628:1638  msg.sender */\n      caller\n        /* \"contracts/Multi_Sign_Wallet.sol\":1628:1648  msg.sender == _owner */\n      0xffffffffffffffffffffffffffffffffffffffff\n      and\n      eq\n        /* \"contracts/Multi_Sign_Wallet.sol\":1628:1676  msg.sender == _owner || _owners[msg.sender] == 1 */\n      dup1\n      tag_54\n      jumpi\n      pop\n        /* \"contracts/Multi_Sign_Wallet.sol\":1675:1676  1 */\n      0x01\n        /* \"contracts/Multi_Sign_Wallet.sol\":1652:1659  _owners */\n      dup1\n        /* \"contracts/Multi_Sign_Wallet.sol\":1652:1671  _owners[msg.sender] */\n      0x00\n        /* \"contracts/Multi_Sign_Wallet.sol\":1660:1670  msg.sender */\n      caller\n        /* \"contracts/Multi_Sign_Wallet.sol\":1652:1671  _owners[msg.sender] */\n      0xffffffffffffffffffffffffffffffffffffffff\n      and\n      0xffffffffffffffffffffffffffffffffffffffff\n      and\n      dup2\n      mstore\n      0x20\n      add\n      swap1\n      dup2\n      mstore\n      0x20\n      add\n      0x00\n      keccak256\n      0x00\n      swap1\n      sload\n      swap1\n      0x0100\n      exp\n      swap1\n      div\n      0xff\n      and\n        /* \"contracts/Multi_Sign_Wallet.sol\":1652:1676  _owners[msg.sender] == 1 */\n      0xff\n      and\n      eq\n        /* \"contracts/Multi_Sign_Wallet.sol\":1628:1676  msg.sender == _owner || _owners[msg.sender] == 1 */\n    tag_54:\n        /* \"contracts/Multi_Sign_Wallet.sol\":1619:1677  require (msg.sender == _owner || _owners[msg.sender] == 1) */\n      tag_55\n      jumpi\n      0x00\n      dup1\n      revert\n    tag_55:\n        /* \"contracts/Multi_Sign_Wallet.sol\":2303:2310  _amount */\n      dup1\n        /* \"contracts/Multi_Sign_Wallet.sol\":2278:2299  address(this).balance */\n      selfbalance\n        /* \"contracts/Multi_Sign_Wallet.sol\":2278:2310  address(this).balance >= _amount */\n      lt\n      iszero\n        /* \"contracts/Multi_Sign_Wallet.sol\":2270:2333  require(address(this).balance >= _amount ,  \"Not Enough Money\") */\n      tag_57\n      jumpi\n      mload(0x40)\n      0x08c379a000000000000000000000000000000000000000000000000000000000\n      dup2\n      mstore\n      0x04\n      add\n      tag_58\n      swap1\n      tag_59\n      jump\t// in\n    tag_58:\n      mload(0x40)\n      dup1\n      swap2\n      sub\n      swap1\n      revert\n    tag_57:\n        /* \"contracts/Multi_Sign_Wallet.sol\":2344:2357  _transactions */\n      0x02\n        /* \"contracts/Multi_Sign_Wallet.sol\":2363:2602  Transaction(\r... */\n      mload(0x40)\n      dup1\n      0xa0\n      add\n      0x40\n      mstore\n      dup1\n        /* \"contracts/Multi_Sign_Wallet.sol\":2423:2433  msg.sender */\n      caller\n        /* \"contracts/Multi_Sign_Wallet.sol\":2363:2602  Transaction(\r... */\n      0xffffffffffffffffffffffffffffffffffffffff\n      and\n      dup2\n      mstore\n      0x20\n      add\n        /* \"contracts/Multi_Sign_Wallet.sol\":2463:2472  _reciever */\n      dup5\n        /* \"contracts/Multi_Sign_Wallet.sol\":2363:2602  Transaction(\r... */\n      0xffffffffffffffffffffffffffffffffffffffff\n      and\n      dup2\n      mstore\n      0x20\n      add\n        /* \"contracts/Multi_Sign_Wallet.sol\":2499:2506  _amount */\n      dup4\n        /* \"contracts/Multi_Sign_Wallet.sol\":2363:2602  Transaction(\r... */\n      dup2\n      mstore\n      0x20\n      add\n        /* \"contracts/Multi_Sign_Wallet.sol\":2535:2540  false */\n      0x00\n        /* \"contracts/Multi_Sign_Wallet.sol\":2363:2602  Transaction(\r... */\n      iszero\n      iszero\n      dup2\n      mstore\n      0x20\n      add\n        /* \"contracts/Multi_Sign_Wallet.sol\":2575:2576  0 */\n      0x00\n        /* \"contracts/Multi_Sign_Wallet.sol\":2363:2602  Transaction(\r... */\n      0xff\n      and\n      dup2\n      mstore\n      pop\n        /* \"contracts/Multi_Sign_Wallet.sol\":2344:2603  _transactions.push(Transaction(\r... */\n      swap1\n      dup1\n      0x01\n      dup2\n      sload\n      add\n      dup1\n      dup3\n      sstore\n      dup1\n      swap2\n      pop\n      pop\n      0x01\n      swap1\n      sub\n      swap1\n      0x00\n      mstore\n      keccak256(0x00, 0x20)\n      swap1\n      0x04\n      mul\n      add\n      0x00\n      swap1\n      swap2\n      swap1\n      swap2\n      swap1\n      swap2\n      pop\n      0x00\n      dup3\n      add\n      mload\n      dup2\n      0x00\n      add\n      exp(0x0100, 0x00)\n      dup2\n      sload\n      dup2\n      0xffffffffffffffffffffffffffffffffffffffff\n      mul\n      not\n      and\n      swap1\n      dup4\n      0xffffffffffffffffffffffffffffffffffffffff\n      and\n      mul\n      or\n      swap1\n      sstore\n      pop\n      0x20\n      dup3\n      add\n      mload\n      dup2\n      0x01\n      add\n      exp(0x0100, 0x00)\n      dup2\n      sload\n      dup2\n      0xffffffffffffffffffffffffffffffffffffffff\n      mul\n      not\n      and\n      swap1\n      dup4\n      0xffffffffffffffffffffffffffffffffffffffff\n      and\n      mul\n      or\n      swap1\n      sstore\n      pop\n      0x40\n      dup3\n      add\n      mload\n      dup2\n      0x02\n      add\n      sstore\n      0x60\n      dup3\n      add\n      mload\n      dup2\n      0x03\n      add\n      exp(0x0100, 0x00)\n      dup2\n      sload\n      dup2\n      0xff\n      mul\n      not\n      and\n      swap1\n      dup4\n      iszero\n      iszero\n      mul\n      or\n      swap1\n      sstore\n      pop\n      0x80\n      dup3\n      add\n      mload\n      dup2\n      0x03\n      add\n      exp(0x0100, 0x01)\n      dup2\n      sload\n      dup2\n      0xff\n      mul\n      not\n      and\n      swap1\n      dup4\n      0xff\n      and\n      mul\n      or\n      swap1\n      sstore\n      pop\n      pop\n      pop\n        /* \"contracts/Multi_Sign_Wallet.sol\":2616:2636  _pendingTransactions */\n      0x04\n        /* \"contracts/Multi_Sign_Wallet.sol\":2642:2655  _transactions */\n      0x02\n        /* \"contracts/Multi_Sign_Wallet.sol\":2642:2662  _transactions.length */\n      dup1\n      sload\n      swap1\n      pop\n        /* \"contracts/Multi_Sign_Wallet.sol\":2616:2663  _pendingTransactions.push(_transactions.length) */\n      swap1\n      dup1\n      0x01\n      dup2\n      sload\n      add\n      dup1\n      dup3\n      sstore\n      dup1\n      swap2\n      pop\n      pop\n      0x01\n      swap1\n      sub\n      swap1\n      0x00\n      mstore\n      keccak256(0x00, 0x20)\n      add\n      0x00\n      swap1\n      swap2\n      swap1\n      swap2\n      swap1\n      swap2\n      pop\n      sstore\n        /* \"contracts/Multi_Sign_Wallet.sol\":2679:2748  TransactionCreated(msg.sender,_reciever,_amount,_transactions.length) */\n      0x41d8c89c4a25824354aa1f198d80d06f2f93f903a2d180d1ea20429a4678c4a4\n        /* \"contracts/Multi_Sign_Wallet.sol\":2698:2708  msg.sender */\n      caller\n        /* \"contracts/Multi_Sign_Wallet.sol\":2709:2718  _reciever */\n      dup4\n        /* \"contracts/Multi_Sign_Wallet.sol\":2719:2726  _amount */\n      dup4\n        /* \"contracts/Multi_Sign_Wallet.sol\":2727:2740  _transactions */\n      0x02\n        /* \"contracts/Multi_Sign_Wallet.sol\":2727:2747  _transactions.length */\n      dup1\n      sload\n      swap1\n      pop\n        /* \"contracts/Multi_Sign_Wallet.sol\":2679:2748  TransactionCreated(msg.sender,_reciever,_amount,_transactions.length) */\n      mload(0x40)\n      tag_62\n      swap5\n      swap4\n      swap3\n      swap2\n      swap1\n      tag_63\n      jump\t// in\n    tag_62:\n      mload(0x40)\n      dup1\n      swap2\n      sub\n      swap1\n      log1\n        /* \"contracts/Multi_Sign_Wallet.sol\":2182:2756  function transferTo(address payable _reciever,uint _amount) public validOwner{\r... */\n      pop\n      pop\n      jump\t// out\n        /* \"contracts/Multi_Sign_Wallet.sol\":2898:3097  function getTransaction(uint _id) public view validOwner returns(Transaction memory){\r... */\n    tag_29:\n        /* \"contracts/Multi_Sign_Wallet.sol\":2963:2981  Transaction memory */\n      tag_64\n      tag_65\n      jump\t// in\n    tag_64:\n        /* \"contracts/Multi_Sign_Wallet.sol\":1642:1648  _owner */\n      0x00\n      dup1\n      sload\n      swap1\n      0x0100\n      exp\n      swap1\n      div\n      0xffffffffffffffffffffffffffffffffffffffff\n      and\n        /* \"contracts/Multi_Sign_Wallet.sol\":1628:1648  msg.sender == _owner */\n      0xffffffffffffffffffffffffffffffffffffffff\n      and\n        /* \"contracts/Multi_Sign_Wallet.sol\":1628:1638  msg.sender */\n      caller\n        /* \"contracts/Multi_Sign_Wallet.sol\":1628:1648  msg.sender == _owner */\n      0xffffffffffffffffffffffffffffffffffffffff\n      and\n      eq\n        /* \"contracts/Multi_Sign_Wallet.sol\":1628:1676  msg.sender == _owner || _owners[msg.sender] == 1 */\n      dup1\n      tag_67\n      jumpi\n      pop\n        /* \"contracts/Multi_Sign_Wallet.sol\":1675:1676  1 */\n      0x01\n        /* \"contracts/Multi_Sign_Wallet.sol\":1652:1659  _owners */\n      dup1\n        /* \"contracts/Multi_Sign_Wallet.sol\":1652:1671  _owners[msg.sender] */\n      0x00\n        /* \"contracts/Multi_Sign_Wallet.sol\":1660:1670  msg.sender */\n      caller\n        /* \"contracts/Multi_Sign_Wallet.sol\":1652:1671  _owners[msg.sender] */\n      0xffffffffffffffffffffffffffffffffffffffff\n      and\n      0xffffffffffffffffffffffffffffffffffffffff\n      and\n      dup2\n      mstore\n      0x20\n      add\n      swap1\n      dup2\n      mstore\n      0x20\n      add\n      0x00\n      keccak256\n      0x00\n      swap1\n      sload\n      swap1\n      0x0100\n      exp\n      swap1\n      div\n      0xff\n      and\n        /* \"contracts/Multi_Sign_Wallet.sol\":1652:1676  _owners[msg.sender] == 1 */\n      0xff\n      and\n      eq\n        /* \"contracts/Multi_Sign_Wallet.sol\":1628:1676  msg.sender == _owner || _owners[msg.sender] == 1 */\n    tag_67:\n        /* \"contracts/Multi_Sign_Wallet.sol\":1619:1677  require (msg.sender == _owner || _owners[msg.sender] == 1) */\n      tag_68\n      jumpi\n      0x00\n      dup1\n      revert\n    tag_68:\n        /* \"contracts/Multi_Sign_Wallet.sol\":2993:3031  Transaction memory selectedTransaction */\n      0x00\n        /* \"contracts/Multi_Sign_Wallet.sol\":3034:3047  _transactions */\n      0x02\n        /* \"contracts/Multi_Sign_Wallet.sol\":3048:3051  _id */\n      dup4\n        /* \"contracts/Multi_Sign_Wallet.sol\":3034:3052  _transactions[_id] */\n      dup2\n      sload\n      dup2\n      lt\n      tag_70\n      jumpi\n      tag_71\n      tag_72\n      jump\t// in\n    tag_71:\n    tag_70:\n      swap1\n      0x00\n      mstore\n      keccak256(0x00, 0x20)\n      swap1\n      0x04\n      mul\n      add\n        /* \"contracts/Multi_Sign_Wallet.sol\":2993:3052  Transaction memory selectedTransaction = _transactions[_id] */\n      mload(0x40)\n      dup1\n      0xa0\n      add\n      0x40\n      mstore\n      swap1\n      dup2\n      0x00\n      dup3\n      add\n      0x00\n      swap1\n      sload\n      swap1\n      0x0100\n      exp\n      swap1\n      div\n      0xffffffffffffffffffffffffffffffffffffffff\n      and\n      0xffffffffffffffffffffffffffffffffffffffff\n      and\n      0xffffffffffffffffffffffffffffffffffffffff\n      and\n      dup2\n      mstore\n      0x20\n      add\n      0x01\n      dup3\n      add\n      0x00\n      swap1\n      sload\n      swap1\n      0x0100\n      exp\n      swap1\n      div\n      0xffffffffffffffffffffffffffffffffffffffff\n      and\n      0xffffffffffffffffffffffffffffffffffffffff\n      and\n      0xffffffffffffffffffffffffffffffffffffffff\n      and\n      dup2\n      mstore\n      0x20\n      add\n      0x02\n      dup3\n      add\n      sload\n      dup2\n      mstore\n      0x20\n      add\n      0x03\n      dup3\n      add\n      0x00\n      swap1\n      sload\n      swap1\n      0x0100\n      exp\n      swap1\n      div\n      0xff\n      and\n      iszero\n      iszero\n      iszero\n      iszero\n      dup2\n      mstore\n      0x20\n      add\n      0x03\n      dup3\n      add\n      0x01\n      swap1\n      sload\n      swap1\n      0x0100\n      exp\n      swap1\n      div\n      0xff\n      and\n      0xff\n      and\n      0xff\n      and\n      dup2\n      mstore\n      pop\n      pop\n      swap1\n      pop\n        /* \"contracts/Multi_Sign_Wallet.sol\":3070:3089  selectedTransaction */\n      dup1\n        /* \"contracts/Multi_Sign_Wallet.sol\":3063:3089  return selectedTransaction */\n      swap2\n      pop\n      pop\n        /* \"contracts/Multi_Sign_Wallet.sol\":2898:3097  function getTransaction(uint _id) public view validOwner returns(Transaction memory){\r... */\n      swap2\n      swap1\n      pop\n      jump\t// out\n        /* \"contracts/Multi_Sign_Wallet.sol\":3105:3216  function selectedTransactionBalance() public view returns (uint){\r... */\n    tag_34:\n        /* \"contracts/Multi_Sign_Wallet.sol\":3164:3168  uint */\n      0x00\n        /* \"contracts/Multi_Sign_Wallet.sol\":3187:3208  address(this).balance */\n      selfbalance\n        /* \"contracts/Multi_Sign_Wallet.sol\":3180:3208  return address(this).balance */\n      swap1\n      pop\n        /* \"contracts/Multi_Sign_Wallet.sol\":3105:3216  function selectedTransactionBalance() public view returns (uint){\r... */\n      swap1\n      jump\t// out\n        /* \"contracts/Multi_Sign_Wallet.sol\":1792:1876  function addOwner(address owner) public isOwner{\r... */\n    tag_40:\n        /* \"contracts/Multi_Sign_Wallet.sol\":1477:1483  _owner */\n      0x00\n      dup1\n      sload\n      swap1\n      0x0100\n      exp\n      swap1\n      div\n      0xffffffffffffffffffffffffffffffffffffffff\n      and\n        /* \"contracts/Multi_Sign_Wallet.sol\":1465:1483  msg.sender==_owner */\n      0xffffffffffffffffffffffffffffffffffffffff\n      and\n        /* \"contracts/Multi_Sign_Wallet.sol\":1465:1475  msg.sender */\n      caller\n        /* \"contracts/Multi_Sign_Wallet.sol\":1465:1483  msg.sender==_owner */\n      0xffffffffffffffffffffffffffffffffffffffff\n      and\n      eq\n        /* \"contracts/Multi_Sign_Wallet.sol\":1457:1484  require(msg.sender==_owner) */\n      tag_76\n      jumpi\n      0x00\n      dup1\n      revert\n    tag_76:\n        /* \"contracts/Multi_Sign_Wallet.sol\":1867:1868  1 */\n      0x01\n        /* \"contracts/Multi_Sign_Wallet.sol\":1850:1857  _owners */\n      dup1\n        /* \"contracts/Multi_Sign_Wallet.sol\":1850:1864  _owners[owner] */\n      0x00\n        /* \"contracts/Multi_Sign_Wallet.sol\":1858:1863  owner */\n      dup4\n        /* \"contracts/Multi_Sign_Wallet.sol\":1850:1864  _owners[owner] */\n      0xffffffffffffffffffffffffffffffffffffffff\n      and\n      0xffffffffffffffffffffffffffffffffffffffff\n      and\n      dup2\n      mstore\n      0x20\n      add\n      swap1\n      dup2\n      mstore\n      0x20\n      add\n      0x00\n      keccak256\n      0x00\n        /* \"contracts/Multi_Sign_Wallet.sol\":1850:1868  _owners[owner] = 1 */\n      0x0100\n      exp\n      dup2\n      sload\n      dup2\n      0xff\n      mul\n      not\n      and\n      swap1\n      dup4\n      0xff\n      and\n      mul\n      or\n      swap1\n      sstore\n      pop\n        /* \"contracts/Multi_Sign_Wallet.sol\":1792:1876  function addOwner(address owner) public isOwner{\r... */\n      pop\n      jump\t// out\n        /* \"contracts/Multi_Sign_Wallet.sol\":1979:2071  function deposite() public payable{\r... */\n    tag_42:\n        /* \"contracts/Multi_Sign_Wallet.sol\":2029:2063  DepositFunds(msg.sender,msg.value) */\n      0xd241e73300212f6df233a8e6d3146b88a9d4964e06621d54b5ff6afeba7b1b88\n        /* \"contracts/Multi_Sign_Wallet.sol\":2042:2052  msg.sender */\n      caller\n        /* \"contracts/Multi_Sign_Wallet.sol\":2053:2062  msg.value */\n      callvalue\n        /* \"contracts/Multi_Sign_Wallet.sol\":2029:2063  DepositFunds(msg.sender,msg.value) */\n      mload(0x40)\n      tag_79\n      swap3\n      swap2\n      swap1\n      tag_80\n      jump\t// in\n    tag_79:\n      mload(0x40)\n      dup1\n      swap2\n      sub\n      swap1\n      log1\n        /* \"contracts/Multi_Sign_Wallet.sol\":1979:2071  function deposite() public payable{\r... */\n      jump\t// out\n        /* \"contracts/Multi_Sign_Wallet.sol\":2764:2890  function getPendingTransactions() public view validOwner returns(uint[] memory) {\r... */\n    tag_45:\n        /* \"contracts/Multi_Sign_Wallet.sol\":2829:2842  uint[] memory */\n      0x60\n        /* \"contracts/Multi_Sign_Wallet.sol\":1642:1648  _owner */\n      0x00\n      dup1\n      sload\n      swap1\n      0x0100\n      exp\n      swap1\n      div\n      0xffffffffffffffffffffffffffffffffffffffff\n      and\n        /* \"contracts/Multi_Sign_Wallet.sol\":1628:1648  msg.sender == _owner */\n      0xffffffffffffffffffffffffffffffffffffffff\n      and\n        /* \"contracts/Multi_Sign_Wallet.sol\":1628:1638  msg.sender */\n      caller\n        /* \"contracts/Multi_Sign_Wallet.sol\":1628:1648  msg.sender == _owner */\n      0xffffffffffffffffffffffffffffffffffffffff\n      and\n      eq\n        /* \"contracts/Multi_Sign_Wallet.sol\":1628:1676  msg.sender == _owner || _owners[msg.sender] == 1 */\n      dup1\n      tag_82\n      jumpi\n      pop\n        /* \"contracts/Multi_Sign_Wallet.sol\":1675:1676  1 */\n      0x01\n        /* \"contracts/Multi_Sign_Wallet.sol\":1652:1659  _owners */\n      dup1\n        /* \"contracts/Multi_Sign_Wallet.sol\":1652:1671  _owners[msg.sender] */\n      0x00\n        /* \"contracts/Multi_Sign_Wallet.sol\":1660:1670  msg.sender */\n      caller\n        /* \"contracts/Multi_Sign_Wallet.sol\":1652:1671  _owners[msg.sender] */\n      0xffffffffffffffffffffffffffffffffffffffff\n      and\n      0xffffffffffffffffffffffffffffffffffffffff\n      and\n      dup2\n      mstore\n      0x20\n      add\n      swap1\n      dup2\n      mstore\n      0x20\n      add\n      0x00\n      keccak256\n      0x00\n      swap1\n      sload\n      swap1\n      0x0100\n      exp\n      swap1\n      div\n      0xff\n      and\n        /* \"contracts/Multi_Sign_Wallet.sol\":1652:1676  _owners[msg.sender] == 1 */\n      0xff\n      and\n      eq\n        /* \"contracts/Multi_Sign_Wallet.sol\":1628:1676  msg.sender == _owner || _owners[msg.sender] == 1 */\n    tag_82:\n        /* \"contracts/Multi_Sign_Wallet.sol\":1619:1677  require (msg.sender == _owner || _owners[msg.sender] == 1) */\n      tag_83\n      jumpi\n      0x00\n      dup1\n      revert\n    tag_83:\n        /* \"contracts/Multi_Sign_Wallet.sol\":2862:2882  _pendingTransactions */\n      0x04\n        /* \"contracts/Multi_Sign_Wallet.sol\":2855:2882  return _pendingTransactions */\n      dup1\n      sload\n      dup1\n      0x20\n      mul\n      0x20\n      add\n      mload(0x40)\n      swap1\n      dup2\n      add\n      0x40\n      mstore\n      dup1\n      swap3\n      swap2\n      swap1\n      dup2\n      dup2\n      mstore\n      0x20\n      add\n      dup3\n      dup1\n      sload\n      dup1\n      iszero\n      tag_85\n      jumpi\n      0x20\n      mul\n      dup3\n      add\n      swap2\n      swap1\n      0x00\n      mstore\n      keccak256(0x00, 0x20)\n      swap1\n    tag_86:\n      dup2\n      sload\n      dup2\n      mstore\n      0x20\n      add\n      swap1\n      0x01\n      add\n      swap1\n      dup1\n      dup4\n      gt\n      tag_86\n      jumpi\n    tag_85:\n      pop\n      pop\n      pop\n      pop\n      pop\n      swap1\n      pop\n        /* \"contracts/Multi_Sign_Wallet.sol\":2764:2890  function getPendingTransactions() public view validOwner returns(uint[] memory) {\r... */\n      swap1\n      jump\t// out\n    tag_65:\n      mload(0x40)\n      dup1\n      0xa0\n      add\n      0x40\n      mstore\n      dup1\n      and(0xffffffffffffffffffffffffffffffffffffffff, 0x00)\n      dup2\n      mstore\n      0x20\n      add\n      and(0xffffffffffffffffffffffffffffffffffffffff, 0x00)\n      dup2\n      mstore\n      0x20\n      add\n      0x00\n      dup2\n      mstore\n      0x20\n      add\n      iszero(iszero(0x00))\n      dup2\n      mstore\n      0x20\n      add\n      and(0xff, 0x00)\n      dup2\n      mstore\n      pop\n      swap1\n      jump\t// out\n        /* \"#utility.yul\":7:146   */\n    tag_88:\n        /* \"#utility.yul\":53:58   */\n      0x00\n        /* \"#utility.yul\":91:97   */\n      dup2\n        /* \"#utility.yul\":78:98   */\n      calldataload\n        /* \"#utility.yul\":69:98   */\n      swap1\n      pop\n        /* \"#utility.yul\":107:140   */\n      tag_90\n        /* \"#utility.yul\":134:139   */\n      dup2\n        /* \"#utility.yul\":107:140   */\n      tag_91\n      jump\t// in\n    tag_90:\n        /* \"#utility.yul\":7:146   */\n      swap3\n      swap2\n      pop\n      pop\n      jump\t// out\n        /* \"#utility.yul\":152:307   */\n    tag_92:\n        /* \"#utility.yul\":206:211   */\n      0x00\n        /* \"#utility.yul\":244:250   */\n      dup2\n        /* \"#utility.yul\":231:251   */\n      calldataload\n        /* \"#utility.yul\":222:251   */\n      swap1\n      pop\n        /* \"#utility.yul\":260:301   */\n      tag_94\n        /* \"#utility.yul\":295:300   */\n      dup2\n        /* \"#utility.yul\":260:301   */\n      tag_95\n      jump\t// in\n    tag_94:\n        /* \"#utility.yul\":152:307   */\n      swap3\n      swap2\n      pop\n      pop\n      jump\t// out\n        /* \"#utility.yul\":313:452   */\n    tag_96:\n        /* \"#utility.yul\":359:364   */\n      0x00\n        /* \"#utility.yul\":397:403   */\n      dup2\n        /* \"#utility.yul\":384:404   */\n      calldataload\n        /* \"#utility.yul\":375:404   */\n      swap1\n      pop\n        /* \"#utility.yul\":413:446   */\n      tag_98\n        /* \"#utility.yul\":440:445   */\n      dup2\n        /* \"#utility.yul\":413:446   */\n      tag_99\n      jump\t// in\n    tag_98:\n        /* \"#utility.yul\":313:452   */\n      swap3\n      swap2\n      pop\n      pop\n      jump\t// out\n        /* \"#utility.yul\":458:787   */\n    tag_19:\n        /* \"#utility.yul\":517:523   */\n      0x00\n        /* \"#utility.yul\":566:568   */\n      0x20\n        /* \"#utility.yul\":554:563   */\n      dup3\n        /* \"#utility.yul\":545:552   */\n      dup5\n        /* \"#utility.yul\":541:564   */\n      sub\n        /* \"#utility.yul\":537:569   */\n      slt\n        /* \"#utility.yul\":534:653   */\n      iszero\n      tag_101\n      jumpi\n        /* \"#utility.yul\":572:651   */\n      tag_102\n      tag_103\n      jump\t// in\n    tag_102:\n        /* \"#utility.yul\":534:653   */\n    tag_101:\n        /* \"#utility.yul\":692:693   */\n      0x00\n        /* \"#utility.yul\":717:770   */\n      tag_104\n        /* \"#utility.yul\":762:769   */\n      dup5\n        /* \"#utility.yul\":753:759   */\n      dup3\n        /* \"#utility.yul\":742:751   */\n      dup6\n        /* \"#utility.yul\":738:760   */\n      add\n        /* \"#utility.yul\":717:770   */\n      tag_88\n      jump\t// in\n    tag_104:\n        /* \"#utility.yul\":707:770   */\n      swap2\n      pop\n        /* \"#utility.yul\":663:780   */\n      pop\n        /* \"#utility.yul\":458:787   */\n      swap3\n      swap2\n      pop\n      pop\n      jump\t// out\n        /* \"#utility.yul\":793:1283   */\n    tag_24:\n        /* \"#utility.yul\":869:875   */\n      0x00\n        /* \"#utility.yul\":877:883   */\n      dup1\n        /* \"#utility.yul\":926:928   */\n      0x40\n        /* \"#utility.yul\":914:923   */\n      dup4\n        /* \"#utility.yul\":905:912   */\n      dup6\n        /* \"#utility.yul\":901:924   */\n      sub\n        /* \"#utility.yul\":897:929   */\n      slt\n        /* \"#utility.yul\":894:1013   */\n      iszero\n      tag_106\n      jumpi\n        /* \"#utility.yul\":932:1011   */\n      tag_107\n      tag_103\n      jump\t// in\n    tag_107:\n        /* \"#utility.yul\":894:1013   */\n    tag_106:\n        /* \"#utility.yul\":1052:1053   */\n      0x00\n        /* \"#utility.yul\":1077:1138   */\n      tag_108\n        /* \"#utility.yul\":1130:1137   */\n      dup6\n        /* \"#utility.yul\":1121:1127   */\n      dup3\n        /* \"#utility.yul\":1110:1119   */\n      dup7\n        /* \"#utility.yul\":1106:1128   */\n      add\n        /* \"#utility.yul\":1077:1138   */\n      tag_92\n      jump\t// in\n    tag_108:\n        /* \"#utility.yul\":1067:1138   */\n      swap3\n      pop\n        /* \"#utility.yul\":1023:1148   */\n      pop\n        /* \"#utility.yul\":1187:1189   */\n      0x20\n        /* \"#utility.yul\":1213:1266   */\n      tag_109\n        /* \"#utility.yul\":1258:1265   */\n      dup6\n        /* \"#utility.yul\":1249:1255   */\n      dup3\n        /* \"#utility.yul\":1238:1247   */\n      dup7\n        /* \"#utility.yul\":1234:1256   */\n      add\n        /* \"#utility.yul\":1213:1266   */\n      tag_96\n      jump\t// in\n    tag_109:\n        /* \"#utility.yul\":1203:1266   */\n      swap2\n      pop\n        /* \"#utility.yul\":1158:1276   */\n      pop\n        /* \"#utility.yul\":793:1283   */\n      swap3\n      pop\n      swap3\n      swap1\n      pop\n      jump\t// out\n        /* \"#utility.yul\":1289:1618   */\n    tag_14:\n        /* \"#utility.yul\":1348:1354   */\n      0x00\n        /* \"#utility.yul\":1397:1399   */\n      0x20\n        /* \"#utility.yul\":1385:1394   */\n      dup3\n        /* \"#utility.yul\":1376:1383   */\n      dup5\n        /* \"#utility.yul\":1372:1395   */\n      sub\n        /* \"#utility.yul\":1368:1400   */\n      slt\n        /* \"#utility.yul\":1365:1484   */\n      iszero\n      tag_111\n      jumpi\n        /* \"#utility.yul\":1403:1482   */\n      tag_112\n      tag_103\n      jump\t// in\n    tag_112:\n        /* \"#utility.yul\":1365:1484   */\n    tag_111:\n        /* \"#utility.yul\":1523:1524   */\n      0x00\n        /* \"#utility.yul\":1548:1601   */\n      tag_113\n        /* \"#utility.yul\":1593:1600   */\n      dup5\n        /* \"#utility.yul\":1584:1590   */\n      dup3\n        /* \"#utility.yul\":1573:1582   */\n      dup6\n        /* \"#utility.yul\":1569:1591   */\n      add\n        /* \"#utility.yul\":1548:1601   */\n      tag_96\n      jump\t// in\n    tag_113:\n        /* \"#utility.yul\":1538:1601   */\n      swap2\n      pop\n        /* \"#utility.yul\":1494:1611   */\n      pop\n        /* \"#utility.yul\":1289:1618   */\n      swap3\n      swap2\n      pop\n      pop\n      jump\t// out\n        /* \"#utility.yul\":1624:1803   */\n    tag_114:\n        /* \"#utility.yul\":1693:1703   */\n      0x00\n        /* \"#utility.yul\":1714:1760   */\n      tag_116\n        /* \"#utility.yul\":1756:1759   */\n      dup4\n        /* \"#utility.yul\":1748:1754   */\n      dup4\n        /* \"#utility.yul\":1714:1760   */\n      tag_117\n      jump\t// in\n    tag_116:\n        /* \"#utility.yul\":1792:1796   */\n      0x20\n        /* \"#utility.yul\":1787:1790   */\n      dup4\n        /* \"#utility.yul\":1783:1797   */\n      add\n        /* \"#utility.yul\":1769:1797   */\n      swap1\n      pop\n        /* \"#utility.yul\":1624:1803   */\n      swap3\n      swap2\n      pop\n      pop\n      jump\t// out\n        /* \"#utility.yul\":1809:1956   */\n    tag_118:\n        /* \"#utility.yul\":1904:1949   */\n      tag_120\n        /* \"#utility.yul\":1943:1948   */\n      dup2\n        /* \"#utility.yul\":1904:1949   */\n      tag_121\n      jump\t// in\n    tag_120:\n        /* \"#utility.yul\":1899:1902   */\n      dup3\n        /* \"#utility.yul\":1892:1950   */\n      mstore\n        /* \"#utility.yul\":1809:1956   */\n      pop\n      pop\n      jump\t// out\n        /* \"#utility.yul\":1962:2094   */\n    tag_122:\n        /* \"#utility.yul\":2055:2087   */\n      tag_124\n        /* \"#utility.yul\":2081:2086   */\n      dup2\n        /* \"#utility.yul\":2055:2087   */\n      tag_125\n      jump\t// in\n    tag_124:\n        /* \"#utility.yul\":2050:2053   */\n      dup3\n        /* \"#utility.yul\":2043:2088   */\n      mstore\n        /* \"#utility.yul\":1962:2094   */\n      pop\n      pop\n      jump\t// out\n        /* \"#utility.yul\":2100:2218   */\n    tag_126:\n        /* \"#utility.yul\":2187:2211   */\n      tag_128\n        /* \"#utility.yul\":2205:2210   */\n      dup2\n        /* \"#utility.yul\":2187:2211   */\n      tag_129\n      jump\t// in\n    tag_128:\n        /* \"#utility.yul\":2182:2185   */\n      dup3\n        /* \"#utility.yul\":2175:2212   */\n      mstore\n        /* \"#utility.yul\":2100:2218   */\n      pop\n      pop\n      jump\t// out\n        /* \"#utility.yul\":2254:2986   */\n    tag_130:\n        /* \"#utility.yul\":2373:2376   */\n      0x00\n        /* \"#utility.yul\":2402:2456   */\n      tag_132\n        /* \"#utility.yul\":2450:2455   */\n      dup3\n        /* \"#utility.yul\":2402:2456   */\n      tag_133\n      jump\t// in\n    tag_132:\n        /* \"#utility.yul\":2472:2558   */\n      tag_134\n        /* \"#utility.yul\":2551:2557   */\n      dup2\n        /* \"#utility.yul\":2546:2549   */\n      dup6\n        /* \"#utility.yul\":2472:2558   */\n      tag_135\n      jump\t// in\n    tag_134:\n        /* \"#utility.yul\":2465:2558   */\n      swap4\n      pop\n        /* \"#utility.yul\":2582:2638   */\n      tag_136\n        /* \"#utility.yul\":2632:2637   */\n      dup4\n        /* \"#utility.yul\":2582:2638   */\n      tag_137\n      jump\t// in\n    tag_136:\n        /* \"#utility.yul\":2661:2668   */\n      dup1\n        /* \"#utility.yul\":2692:2693   */\n      0x00\n        /* \"#utility.yul\":2677:2961   */\n    tag_138:\n        /* \"#utility.yul\":2702:2708   */\n      dup4\n        /* \"#utility.yul\":2699:2700   */\n      dup2\n        /* \"#utility.yul\":2696:2709   */\n      lt\n        /* \"#utility.yul\":2677:2961   */\n      iszero\n      tag_140\n      jumpi\n        /* \"#utility.yul\":2778:2784   */\n      dup2\n        /* \"#utility.yul\":2772:2785   */\n      mload\n        /* \"#utility.yul\":2805:2868   */\n      tag_141\n        /* \"#utility.yul\":2864:2867   */\n      dup9\n        /* \"#utility.yul\":2849:2862   */\n      dup3\n        /* \"#utility.yul\":2805:2868   */\n      tag_114\n      jump\t// in\n    tag_141:\n        /* \"#utility.yul\":2798:2868   */\n      swap8\n      pop\n        /* \"#utility.yul\":2891:2951   */\n      tag_142\n        /* \"#utility.yul\":2944:2950   */\n      dup4\n        /* \"#utility.yul\":2891:2951   */\n      tag_143\n      jump\t// in\n    tag_142:\n        /* \"#utility.yul\":2881:2951   */\n      swap3\n      pop\n        /* \"#utility.yul\":2737:2961   */\n      pop\n        /* \"#utility.yul\":2724:2725   */\n      0x01\n        /* \"#utility.yul\":2721:2722   */\n      dup2\n        /* \"#utility.yul\":2717:2726   */\n      add\n        /* \"#utility.yul\":2712:2726   */\n      swap1\n      pop\n        /* \"#utility.yul\":2677:2961   */\n      jump(tag_138)\n    tag_140:\n        /* \"#utility.yul\":2681:2695   */\n      pop\n        /* \"#utility.yul\":2977:2980   */\n      dup6\n        /* \"#utility.yul\":2970:2980   */\n      swap4\n      pop\n        /* \"#utility.yul\":2378:2986   */\n      pop\n      pop\n      pop\n        /* \"#utility.yul\":2254:2986   */\n      swap3\n      swap2\n      pop\n      pop\n      jump\t// out\n        /* \"#utility.yul\":2992:3091   */\n    tag_144:\n        /* \"#utility.yul\":3063:3084   */\n      tag_146\n        /* \"#utility.yul\":3078:3083   */\n      dup2\n        /* \"#utility.yul\":3063:3084   */\n      tag_147\n      jump\t// in\n    tag_146:\n        /* \"#utility.yul\":3058:3061   */\n      dup3\n        /* \"#utility.yul\":3051:3085   */\n      mstore\n        /* \"#utility.yul\":2992:3091   */\n      pop\n      pop\n      jump\t// out\n        /* \"#utility.yul\":3097:3463   */\n    tag_148:\n        /* \"#utility.yul\":3239:3242   */\n      0x00\n        /* \"#utility.yul\":3260:3327   */\n      tag_150\n        /* \"#utility.yul\":3324:3326   */\n      0x10\n        /* \"#utility.yul\":3319:3322   */\n      dup4\n        /* \"#utility.yul\":3260:3327   */\n      tag_151\n      jump\t// in\n    tag_150:\n        /* \"#utility.yul\":3253:3327   */\n      swap2\n      pop\n        /* \"#utility.yul\":3336:3429   */\n      tag_152\n        /* \"#utility.yul\":3425:3428   */\n      dup3\n        /* \"#utility.yul\":3336:3429   */\n      tag_153\n      jump\t// in\n    tag_152:\n        /* \"#utility.yul\":3454:3456   */\n      0x20\n        /* \"#utility.yul\":3449:3452   */\n      dup3\n        /* \"#utility.yul\":3445:3457   */\n      add\n        /* \"#utility.yul\":3438:3457   */\n      swap1\n      pop\n        /* \"#utility.yul\":3097:3463   */\n      swap2\n      swap1\n      pop\n      jump\t// out\n        /* \"#utility.yul\":3549:4626   */\n    tag_154:\n        /* \"#utility.yul\":3700:3704   */\n      0xa0\n        /* \"#utility.yul\":3695:3698   */\n      dup3\n        /* \"#utility.yul\":3691:3705   */\n      add\n        /* \"#utility.yul\":3789:3793   */\n      0x00\n        /* \"#utility.yul\":3782:3787   */\n      dup3\n        /* \"#utility.yul\":3778:3794   */\n      add\n        /* \"#utility.yul\":3772:3795   */\n      mload\n        /* \"#utility.yul\":3808:3887   */\n      tag_156\n        /* \"#utility.yul\":3881:3885   */\n      0x00\n        /* \"#utility.yul\":3876:3879   */\n      dup6\n        /* \"#utility.yul\":3872:3886   */\n      add\n        /* \"#utility.yul\":3858:3870   */\n      dup3\n        /* \"#utility.yul\":3808:3887   */\n      tag_122\n      jump\t// in\n    tag_156:\n        /* \"#utility.yul\":3715:3897   */\n      pop\n        /* \"#utility.yul\":3983:3987   */\n      0x20\n        /* \"#utility.yul\":3976:3981   */\n      dup3\n        /* \"#utility.yul\":3972:3988   */\n      add\n        /* \"#utility.yul\":3966:3989   */\n      mload\n        /* \"#utility.yul\":4002:4081   */\n      tag_157\n        /* \"#utility.yul\":4075:4079   */\n      0x20\n        /* \"#utility.yul\":4070:4073   */\n      dup6\n        /* \"#utility.yul\":4066:4080   */\n      add\n        /* \"#utility.yul\":4052:4064   */\n      dup3\n        /* \"#utility.yul\":4002:4081   */\n      tag_122\n      jump\t// in\n    tag_157:\n        /* \"#utility.yul\":3907:4091   */\n      pop\n        /* \"#utility.yul\":4175:4179   */\n      0x40\n        /* \"#utility.yul\":4168:4173   */\n      dup3\n        /* \"#utility.yul\":4164:4180   */\n      add\n        /* \"#utility.yul\":4158:4181   */\n      mload\n        /* \"#utility.yul\":4194:4257   */\n      tag_158\n        /* \"#utility.yul\":4251:4255   */\n      0x40\n        /* \"#utility.yul\":4246:4249   */\n      dup6\n        /* \"#utility.yul\":4242:4256   */\n      add\n        /* \"#utility.yul\":4228:4240   */\n      dup3\n        /* \"#utility.yul\":4194:4257   */\n      tag_117\n      jump\t// in\n    tag_158:\n        /* \"#utility.yul\":4101:4267   */\n      pop\n        /* \"#utility.yul\":4353:4357   */\n      0x60\n        /* \"#utility.yul\":4346:4351   */\n      dup3\n        /* \"#utility.yul\":4342:4358   */\n      add\n        /* \"#utility.yul\":4336:4359   */\n      mload\n        /* \"#utility.yul\":4372:4429   */\n      tag_159\n        /* \"#utility.yul\":4423:4427   */\n      0x60\n        /* \"#utility.yul\":4418:4421   */\n      dup6\n        /* \"#utility.yul\":4414:4428   */\n      add\n        /* \"#utility.yul\":4400:4412   */\n      dup3\n        /* \"#utility.yul\":4372:4429   */\n      tag_144\n      jump\t// in\n    tag_159:\n        /* \"#utility.yul\":4277:4439   */\n      pop\n        /* \"#utility.yul\":4531:4535   */\n      0x80\n        /* \"#utility.yul\":4524:4529   */\n      dup3\n        /* \"#utility.yul\":4520:4536   */\n      add\n        /* \"#utility.yul\":4514:4537   */\n      mload\n        /* \"#utility.yul\":4550:4609   */\n      tag_160\n        /* \"#utility.yul\":4603:4607   */\n      0x80\n        /* \"#utility.yul\":4598:4601   */\n      dup6\n        /* \"#utility.yul\":4594:4608   */\n      add\n        /* \"#utility.yul\":4580:4592   */\n      dup3\n        /* \"#utility.yul\":4550:4609   */\n      tag_161\n      jump\t// in\n    tag_160:\n        /* \"#utility.yul\":4449:4619   */\n      pop\n        /* \"#utility.yul\":3669:4626   */\n      pop\n        /* \"#utility.yul\":3549:4626   */\n      pop\n      pop\n      jump\t// out\n        /* \"#utility.yul\":4632:4740   */\n    tag_117:\n        /* \"#utility.yul\":4709:4733   */\n      tag_163\n        /* \"#utility.yul\":4727:4732   */\n      dup2\n        /* \"#utility.yul\":4709:4733   */\n      tag_164\n      jump\t// in\n    tag_163:\n        /* \"#utility.yul\":4704:4707   */\n      dup3\n        /* \"#utility.yul\":4697:4734   */\n      mstore\n        /* \"#utility.yul\":4632:4740   */\n      pop\n      pop\n      jump\t// out\n        /* \"#utility.yul\":4746:4864   */\n    tag_165:\n        /* \"#utility.yul\":4833:4857   */\n      tag_167\n        /* \"#utility.yul\":4851:4856   */\n      dup2\n        /* \"#utility.yul\":4833:4857   */\n      tag_164\n      jump\t// in\n    tag_167:\n        /* \"#utility.yul\":4828:4831   */\n      dup3\n        /* \"#utility.yul\":4821:4858   */\n      mstore\n        /* \"#utility.yul\":4746:4864   */\n      pop\n      pop\n      jump\t// out\n        /* \"#utility.yul\":4870:4972   */\n    tag_161:\n        /* \"#utility.yul\":4943:4965   */\n      tag_169\n        /* \"#utility.yul\":4959:4964   */\n      dup2\n        /* \"#utility.yul\":4943:4965   */\n      tag_170\n      jump\t// in\n    tag_169:\n        /* \"#utility.yul\":4938:4941   */\n      dup3\n        /* \"#utility.yul\":4931:4966   */\n      mstore\n        /* \"#utility.yul\":4870:4972   */\n      pop\n      pop\n      jump\t// out\n        /* \"#utility.yul\":4978:5547   */\n    tag_63:\n        /* \"#utility.yul\":5163:5167   */\n      0x00\n        /* \"#utility.yul\":5201:5204   */\n      0x80\n        /* \"#utility.yul\":5190:5199   */\n      dup3\n        /* \"#utility.yul\":5186:5205   */\n      add\n        /* \"#utility.yul\":5178:5205   */\n      swap1\n      pop\n        /* \"#utility.yul\":5215:5286   */\n      tag_172\n        /* \"#utility.yul\":5283:5284   */\n      0x00\n        /* \"#utility.yul\":5272:5281   */\n      dup4\n        /* \"#utility.yul\":5268:5285   */\n      add\n        /* \"#utility.yul\":5259:5265   */\n      dup8\n        /* \"#utility.yul\":5215:5286   */\n      tag_126\n      jump\t// in\n    tag_172:\n        /* \"#utility.yul\":5296:5376   */\n      tag_173\n        /* \"#utility.yul\":5372:5374   */\n      0x20\n        /* \"#utility.yul\":5361:5370   */\n      dup4\n        /* \"#utility.yul\":5357:5375   */\n      add\n        /* \"#utility.yul\":5348:5354   */\n      dup7\n        /* \"#utility.yul\":5296:5376   */\n      tag_118\n      jump\t// in\n    tag_173:\n        /* \"#utility.yul\":5386:5458   */\n      tag_174\n        /* \"#utility.yul\":5454:5456   */\n      0x40\n        /* \"#utility.yul\":5443:5452   */\n      dup4\n        /* \"#utility.yul\":5439:5457   */\n      add\n        /* \"#utility.yul\":5430:5436   */\n      dup6\n        /* \"#utility.yul\":5386:5458   */\n      tag_165\n      jump\t// in\n    tag_174:\n        /* \"#utility.yul\":5468:5540   */\n      tag_175\n        /* \"#utility.yul\":5536:5538   */\n      0x60\n        /* \"#utility.yul\":5525:5534   */\n      dup4\n        /* \"#utility.yul\":5521:5539   */\n      add\n        /* \"#utility.yul\":5512:5518   */\n      dup5\n        /* \"#utility.yul\":5468:5540   */\n      tag_165\n      jump\t// in\n    tag_175:\n        /* \"#utility.yul\":4978:5547   */\n      swap6\n      swap5\n      pop\n      pop\n      pop\n      pop\n      pop\n      jump\t// out\n        /* \"#utility.yul\":5553:5885   */\n    tag_80:\n        /* \"#utility.yul\":5674:5678   */\n      0x00\n        /* \"#utility.yul\":5712:5714   */\n      0x40\n        /* \"#utility.yul\":5701:5710   */\n      dup3\n        /* \"#utility.yul\":5697:5715   */\n      add\n        /* \"#utility.yul\":5689:5715   */\n      swap1\n      pop\n        /* \"#utility.yul\":5725:5796   */\n      tag_177\n        /* \"#utility.yul\":5793:5794   */\n      0x00\n        /* \"#utility.yul\":5782:5791   */\n      dup4\n        /* \"#utility.yul\":5778:5795   */\n      add\n        /* \"#utility.yul\":5769:5775   */\n      dup6\n        /* \"#utility.yul\":5725:5796   */\n      tag_126\n      jump\t// in\n    tag_177:\n        /* \"#utility.yul\":5806:5878   */\n      tag_178\n        /* \"#utility.yul\":5874:5876   */\n      0x20\n        /* \"#utility.yul\":5863:5872   */\n      dup4\n        /* \"#utility.yul\":5859:5877   */\n      add\n        /* \"#utility.yul\":5850:5856   */\n      dup5\n        /* \"#utility.yul\":5806:5878   */\n      tag_165\n      jump\t// in\n    tag_178:\n        /* \"#utility.yul\":5553:5885   */\n      swap4\n      swap3\n      pop\n      pop\n      pop\n      jump\t// out\n        /* \"#utility.yul\":5891:6264   */\n    tag_47:\n        /* \"#utility.yul\":6034:6038   */\n      0x00\n        /* \"#utility.yul\":6072:6074   */\n      0x20\n        /* \"#utility.yul\":6061:6070   */\n      dup3\n        /* \"#utility.yul\":6057:6075   */\n      add\n        /* \"#utility.yul\":6049:6075   */\n      swap1\n      pop\n        /* \"#utility.yul\":6121:6130   */\n      dup2\n        /* \"#utility.yul\":6115:6119   */\n      dup2\n        /* \"#utility.yul\":6111:6131   */\n      sub\n        /* \"#utility.yul\":6107:6108   */\n      0x00\n        /* \"#utility.yul\":6096:6105   */\n      dup4\n        /* \"#utility.yul\":6092:6109   */\n      add\n        /* \"#utility.yul\":6085:6132   */\n      mstore\n        /* \"#utility.yul\":6149:6257   */\n      tag_180\n        /* \"#utility.yul\":6252:6256   */\n      dup2\n        /* \"#utility.yul\":6243:6249   */\n      dup5\n        /* \"#utility.yul\":6149:6257   */\n      tag_130\n      jump\t// in\n    tag_180:\n        /* \"#utility.yul\":6141:6257   */\n      swap1\n      pop\n        /* \"#utility.yul\":5891:6264   */\n      swap3\n      swap2\n      pop\n      pop\n      jump\t// out\n        /* \"#utility.yul\":6270:6689   */\n    tag_59:\n        /* \"#utility.yul\":6436:6440   */\n      0x00\n        /* \"#utility.yul\":6474:6476   */\n      0x20\n        /* \"#utility.yul\":6463:6472   */\n      dup3\n        /* \"#utility.yul\":6459:6477   */\n      add\n        /* \"#utility.yul\":6451:6477   */\n      swap1\n      pop\n        /* \"#utility.yul\":6523:6532   */\n      dup2\n        /* \"#utility.yul\":6517:6521   */\n      dup2\n        /* \"#utility.yul\":6513:6533   */\n      sub\n        /* \"#utility.yul\":6509:6510   */\n      0x00\n        /* \"#utility.yul\":6498:6507   */\n      dup4\n        /* \"#utility.yul\":6494:6511   */\n      add\n        /* \"#utility.yul\":6487:6534   */\n      mstore\n        /* \"#utility.yul\":6551:6682   */\n      tag_182\n        /* \"#utility.yul\":6677:6681   */\n      dup2\n        /* \"#utility.yul\":6551:6682   */\n      tag_148\n      jump\t// in\n    tag_182:\n        /* \"#utility.yul\":6543:6682   */\n      swap1\n      pop\n        /* \"#utility.yul\":6270:6689   */\n      swap2\n      swap1\n      pop\n      jump\t// out\n        /* \"#utility.yul\":6695:7026   */\n    tag_31:\n        /* \"#utility.yul\":6842:6846   */\n      0x00\n        /* \"#utility.yul\":6880:6883   */\n      0xa0\n        /* \"#utility.yul\":6869:6878   */\n      dup3\n        /* \"#utility.yul\":6865:6884   */\n      add\n        /* \"#utility.yul\":6857:6884   */\n      swap1\n      pop\n        /* \"#utility.yul\":6894:7019   */\n      tag_184\n        /* \"#utility.yul\":7016:7017   */\n      0x00\n        /* \"#utility.yul\":7005:7014   */\n      dup4\n        /* \"#utility.yul\":7001:7018   */\n      add\n        /* \"#utility.yul\":6992:6998   */\n      dup5\n        /* \"#utility.yul\":6894:7019   */\n      tag_154\n      jump\t// in\n    tag_184:\n        /* \"#utility.yul\":6695:7026   */\n      swap3\n      swap2\n      pop\n      pop\n      jump\t// out\n        /* \"#utility.yul\":7032:7254   */\n    tag_36:\n        /* \"#utility.yul\":7125:7129   */\n      0x00\n        /* \"#utility.yul\":7163:7165   */\n      0x20\n        /* \"#utility.yul\":7152:7161   */\n      dup3\n        /* \"#utility.yul\":7148:7166   */\n      add\n        /* \"#utility.yul\":7140:7166   */\n      swap1\n      pop\n        /* \"#utility.yul\":7176:7247   */\n      tag_186\n        /* \"#utility.yul\":7244:7245   */\n      0x00\n        /* \"#utility.yul\":7233:7242   */\n      dup4\n        /* \"#utility.yul\":7229:7246   */\n      add\n        /* \"#utility.yul\":7220:7226   */\n      dup5\n        /* \"#utility.yul\":7176:7247   */\n      tag_165\n      jump\t// in\n    tag_186:\n        /* \"#utility.yul\":7032:7254   */\n      swap3\n      swap2\n      pop\n      pop\n      jump\t// out\n        /* \"#utility.yul\":7341:7473   */\n    tag_137:\n        /* \"#utility.yul\":7408:7412   */\n      0x00\n        /* \"#utility.yul\":7431:7434   */\n      dup2\n        /* \"#utility.yul\":7423:7434   */\n      swap1\n      pop\n        /* \"#utility.yul\":7461:7465   */\n      0x20\n        /* \"#utility.yul\":7456:7459   */\n      dup3\n        /* \"#utility.yul\":7452:7466   */\n      add\n        /* \"#utility.yul\":7444:7466   */\n      swap1\n      pop\n        /* \"#utility.yul\":7341:7473   */\n      swap2\n      swap1\n      pop\n      jump\t// out\n        /* \"#utility.yul\":7479:7593   */\n    tag_133:\n        /* \"#utility.yul\":7546:7552   */\n      0x00\n        /* \"#utility.yul\":7580:7585   */\n      dup2\n        /* \"#utility.yul\":7574:7586   */\n      mload\n        /* \"#utility.yul\":7564:7586   */\n      swap1\n      pop\n        /* \"#utility.yul\":7479:7593   */\n      swap2\n      swap1\n      pop\n      jump\t// out\n        /* \"#utility.yul\":7599:7712   */\n    tag_143:\n        /* \"#utility.yul\":7669:7673   */\n      0x00\n        /* \"#utility.yul\":7701:7705   */\n      0x20\n        /* \"#utility.yul\":7696:7699   */\n      dup3\n        /* \"#utility.yul\":7692:7706   */\n      add\n        /* \"#utility.yul\":7684:7706   */\n      swap1\n      pop\n        /* \"#utility.yul\":7599:7712   */\n      swap2\n      swap1\n      pop\n      jump\t// out\n        /* \"#utility.yul\":7718:7902   */\n    tag_135:\n        /* \"#utility.yul\":7817:7828   */\n      0x00\n        /* \"#utility.yul\":7851:7857   */\n      dup3\n        /* \"#utility.yul\":7846:7849   */\n      dup3\n        /* \"#utility.yul\":7839:7858   */\n      mstore\n        /* \"#utility.yul\":7891:7895   */\n      0x20\n        /* \"#utility.yul\":7886:7889   */\n      dup3\n        /* \"#utility.yul\":7882:7896   */\n      add\n        /* \"#utility.yul\":7867:7896   */\n      swap1\n      pop\n        /* \"#utility.yul\":7718:7902   */\n      swap3\n      swap2\n      pop\n      pop\n      jump\t// out\n        /* \"#utility.yul\":7908:8077   */\n    tag_151:\n        /* \"#utility.yul\":7992:8003   */\n      0x00\n        /* \"#utility.yul\":8026:8032   */\n      dup3\n        /* \"#utility.yul\":8021:8024   */\n      dup3\n        /* \"#utility.yul\":8014:8033   */\n      mstore\n        /* \"#utility.yul\":8066:8070   */\n      0x20\n        /* \"#utility.yul\":8061:8064   */\n      dup3\n        /* \"#utility.yul\":8057:8071   */\n      add\n        /* \"#utility.yul\":8042:8071   */\n      swap1\n      pop\n        /* \"#utility.yul\":7908:8077   */\n      swap3\n      swap2\n      pop\n      pop\n      jump\t// out\n        /* \"#utility.yul\":8083:8179   */\n    tag_129:\n        /* \"#utility.yul\":8120:8127   */\n      0x00\n        /* \"#utility.yul\":8149:8173   */\n      tag_195\n        /* \"#utility.yul\":8167:8172   */\n      dup3\n        /* \"#utility.yul\":8149:8173   */\n      tag_196\n      jump\t// in\n    tag_195:\n        /* \"#utility.yul\":8138:8173   */\n      swap1\n      pop\n        /* \"#utility.yul\":8083:8179   */\n      swap2\n      swap1\n      pop\n      jump\t// out\n        /* \"#utility.yul\":8185:8289   */\n    tag_125:\n        /* \"#utility.yul\":8230:8237   */\n      0x00\n        /* \"#utility.yul\":8259:8283   */\n      tag_198\n        /* \"#utility.yul\":8277:8282   */\n      dup3\n        /* \"#utility.yul\":8259:8283   */\n      tag_196\n      jump\t// in\n    tag_198:\n        /* \"#utility.yul\":8248:8283   */\n      swap1\n      pop\n        /* \"#utility.yul\":8185:8289   */\n      swap2\n      swap1\n      pop\n      jump\t// out\n        /* \"#utility.yul\":8295:8385   */\n    tag_147:\n        /* \"#utility.yul\":8329:8336   */\n      0x00\n        /* \"#utility.yul\":8372:8377   */\n      dup2\n        /* \"#utility.yul\":8365:8378   */\n      iszero\n        /* \"#utility.yul\":8358:8379   */\n      iszero\n        /* \"#utility.yul\":8347:8379   */\n      swap1\n      pop\n        /* \"#utility.yul\":8295:8385   */\n      swap2\n      swap1\n      pop\n      jump\t// out\n        /* \"#utility.yul\":8391:8517   */\n    tag_196:\n        /* \"#utility.yul\":8428:8435   */\n      0x00\n        /* \"#utility.yul\":8468:8510   */\n      0xffffffffffffffffffffffffffffffffffffffff\n        /* \"#utility.yul\":8461:8466   */\n      dup3\n        /* \"#utility.yul\":8457:8511   */\n      and\n        /* \"#utility.yul\":8446:8511   */\n      swap1\n      pop\n        /* \"#utility.yul\":8391:8517   */\n      swap2\n      swap1\n      pop\n      jump\t// out\n        /* \"#utility.yul\":8523:8600   */\n    tag_164:\n        /* \"#utility.yul\":8560:8567   */\n      0x00\n        /* \"#utility.yul\":8589:8594   */\n      dup2\n        /* \"#utility.yul\":8578:8594   */\n      swap1\n      pop\n        /* \"#utility.yul\":8523:8600   */\n      swap2\n      swap1\n      pop\n      jump\t// out\n        /* \"#utility.yul\":8606:8692   */\n    tag_170:\n        /* \"#utility.yul\":8641:8648   */\n      0x00\n        /* \"#utility.yul\":8681:8685   */\n      0xff\n        /* \"#utility.yul\":8674:8679   */\n      dup3\n        /* \"#utility.yul\":8670:8686   */\n      and\n        /* \"#utility.yul\":8659:8686   */\n      swap1\n      pop\n        /* \"#utility.yul\":8606:8692   */\n      swap2\n      swap1\n      pop\n      jump\t// out\n        /* \"#utility.yul\":8698:8832   */\n    tag_121:\n        /* \"#utility.yul\":8756:8765   */\n      0x00\n        /* \"#utility.yul\":8789:8826   */\n      tag_204\n        /* \"#utility.yul\":8820:8825   */\n      dup3\n        /* \"#utility.yul\":8789:8826   */\n      tag_205\n      jump\t// in\n    tag_204:\n        /* \"#utility.yul\":8776:8826   */\n      swap1\n      pop\n        /* \"#utility.yul\":8698:8832   */\n      swap2\n      swap1\n      pop\n      jump\t// out\n        /* \"#utility.yul\":8838:8964   */\n    tag_205:\n        /* \"#utility.yul\":8888:8897   */\n      0x00\n        /* \"#utility.yul\":8921:8958   */\n      tag_207\n        /* \"#utility.yul\":8952:8957   */\n      dup3\n        /* \"#utility.yul\":8921:8958   */\n      tag_208\n      jump\t// in\n    tag_207:\n        /* \"#utility.yul\":8908:8958   */\n      swap1\n      pop\n        /* \"#utility.yul\":8838:8964   */\n      swap2\n      swap1\n      pop\n      jump\t// out\n        /* \"#utility.yul\":8970:9083   */\n    tag_208:\n        /* \"#utility.yul\":9020:9029   */\n      0x00\n        /* \"#utility.yul\":9053:9077   */\n      tag_210\n        /* \"#utility.yul\":9071:9076   */\n      dup3\n        /* \"#utility.yul\":9053:9077   */\n      tag_196\n      jump\t// in\n    tag_210:\n        /* \"#utility.yul\":9040:9077   */\n      swap1\n      pop\n        /* \"#utility.yul\":8970:9083   */\n      swap2\n      swap1\n      pop\n      jump\t// out\n        /* \"#utility.yul\":9089:9269   */\n    tag_72:\n        /* \"#utility.yul\":9137:9214   */\n      0x4e487b7100000000000000000000000000000000000000000000000000000000\n        /* \"#utility.yul\":9134:9135   */\n      0x00\n        /* \"#utility.yul\":9127:9215   */\n      mstore\n        /* \"#utility.yul\":9234:9238   */\n      0x32\n        /* \"#utility.yul\":9231:9232   */\n      0x04\n        /* \"#utility.yul\":9224:9239   */\n      mstore\n        /* \"#utility.yul\":9258:9262   */\n      0x24\n        /* \"#utility.yul\":9255:9256   */\n      0x00\n        /* \"#utility.yul\":9248:9263   */\n      revert\n        /* \"#utility.yul\":9398:9515   */\n    tag_103:\n        /* \"#utility.yul\":9507:9508   */\n      0x00\n        /* \"#utility.yul\":9504:9505   */\n      dup1\n        /* \"#utility.yul\":9497:9509   */\n      revert\n        /* \"#utility.yul\":9521:9687   */\n    tag_153:\n        /* \"#utility.yul\":9661:9679   */\n      0x4e6f7420456e6f756768204d6f6e657900000000000000000000000000000000\n        /* \"#utility.yul\":9657:9658   */\n      0x00\n        /* \"#utility.yul\":9649:9655   */\n      dup3\n        /* \"#utility.yul\":9645:9659   */\n      add\n        /* \"#utility.yul\":9638:9680   */\n      mstore\n        /* \"#utility.yul\":9521:9687   */\n      pop\n      jump\t// out\n        /* \"#utility.yul\":9693:9815   */\n    tag_91:\n        /* \"#utility.yul\":9766:9790   */\n      tag_217\n        /* \"#utility.yul\":9784:9789   */\n      dup2\n        /* \"#utility.yul\":9766:9790   */\n      tag_129\n      jump\t// in\n    tag_217:\n        /* \"#utility.yul\":9759:9764   */\n      dup2\n        /* \"#utility.yul\":9756:9791   */\n      eq\n        /* \"#utility.yul\":9746:9809   */\n      tag_218\n      jumpi\n        /* \"#utility.yul\":9805:9806   */\n      0x00\n        /* \"#utility.yul\":9802:9803   */\n      dup1\n        /* \"#utility.yul\":9795:9807   */\n      revert\n        /* \"#utility.yul\":9746:9809   */\n    tag_218:\n        /* \"#utility.yul\":9693:9815   */\n      pop\n      jump\t// out\n        /* \"#utility.yul\":9821:9959   */\n    tag_95:\n        /* \"#utility.yul\":9902:9934   */\n      tag_220\n        /* \"#utility.yul\":9928:9933   */\n      dup2\n        /* \"#utility.yul\":9902:9934   */\n      tag_125\n      jump\t// in\n    tag_220:\n        /* \"#utility.yul\":9895:9900   */\n      dup2\n        /* \"#utility.yul\":9892:9935   */\n      eq\n        /* \"#utility.yul\":9882:9953   */\n      tag_221\n      jumpi\n        /* \"#utility.yul\":9949:9950   */\n      0x00\n        /* \"#utility.yul\":9946:9947   */\n      dup1\n        /* \"#utility.yul\":9939:9951   */\n      revert\n        /* \"#utility.yul\":9882:9953   */\n    tag_221:\n        /* \"#utility.yul\":9821:9959   */\n      pop\n      jump\t// out\n        /* \"#utility.yul\":9965:10087   */\n    tag_99:\n        /* \"#utility.yul\":10038:10062   */\n      tag_223\n        /* \"#utility.yul\":10056:10061   */\n      dup2\n        /* \"#utility.yul\":10038:10062   */\n      tag_164\n      jump\t// in\n    tag_223:\n        /* \"#utility.yul\":10031:10036   */\n      dup2\n        /* \"#utility.yul\":10028:10063   */\n      eq\n        /* \"#utility.yul\":10018:10081   */\n      tag_224\n      jumpi\n        /* \"#utility.yul\":10077:10078   */\n      0x00\n        /* \"#utility.yul\":10074:10075   */\n      dup1\n        /* \"#utility.yul\":10067:10079   */\n      revert\n        /* \"#utility.yul\":10018:10081   */\n    tag_224:\n        /* \"#utility.yul\":9965:10087   */\n      pop\n      jump\t// out\n\n    auxdata: 0xa26469706673582212208744fccedc74d57fe5ac7b4743c8e68cd99fceb0ae8b28e1a7135fffa41dd4cb64736f6c63430008070033\n}\n",
				"bytecode": {
					"linkReferences": {},
					"object": "608060405234801561001057600080fd5b50336000806101000a81548173ffffffffffffffffffffffffffffffffffffffff021916908373ffffffffffffffffffffffffffffffffffffffff160217905550610e72806100606000396000f3fe60806040526004361061007b5760003560e01c8063572c1bf41161004e578063572c1bf4146101385780637065cb4814610163578063a50ec3261461018c578063d11db83f146101965761007b565b806314174f3314610080578063173825d9146100a95780632ccb1b30146100d257806333ea3dc8146100fb575b600080fd5b34801561008c57600080fd5b506100a760048036038101906100a29190610a36565b6101c1565b005b3480156100b557600080fd5b506100d060048036038101906100cb91906109c9565b6101ce565b005b3480156100de57600080fd5b506100f960048036038101906100f491906109f6565b610282565b005b34801561010757600080fd5b50610122600480360381019061011d9190610a36565b61054a565b60405161012f9190610c7d565b60405180910390f35b34801561014457600080fd5b5061014d61072b565b60405161015a9190610c98565b60405180910390f35b34801561016f57600080fd5b5061018a600480360381019061018591906109c9565b610733565b005b6101946107e6565b005b3480156101a257600080fd5b506101ab610821565b6040516101b89190610c3b565b60405180910390f35b6101cb3382610282565b50565b60008054906101000a900473ffffffffffffffffffffffffffffffffffffffff1673ffffffffffffffffffffffffffffffffffffffff163373ffffffffffffffffffffffffffffffffffffffff161461022657600080fd5b6000600160008373ffffffffffffffffffffffffffffffffffffffff1673ffffffffffffffffffffffffffffffffffffffff16815260200190815260200160002060006101000a81548160ff021916908360ff16021790555050565b60008054906101000a900473ffffffffffffffffffffffffffffffffffffffff1673ffffffffffffffffffffffffffffffffffffffff163373ffffffffffffffffffffffffffffffffffffffff16148061032a575060018060003373ffffffffffffffffffffffffffffffffffffffff1673ffffffffffffffffffffffffffffffffffffffff16815260200190815260200160002060009054906101000a900460ff1660ff16145b61033357600080fd5b80471015610376576040517f08c379a000000000000000000000000000000000000000000000000000000000815260040161036d90610c5d565b60405180910390fd5b60026040518060a001604052803373ffffffffffffffffffffffffffffffffffffffff1681526020018473ffffffffffffffffffffffffffffffffffffffff168152602001838152602001600015158152602001600060ff16815250908060018154018082558091505060019003906000526020600020906004020160009091909190915060008201518160000160006101000a81548173ffffffffffffffffffffffffffffffffffffffff021916908373ffffffffffffffffffffffffffffffffffffffff16021790555060208201518160010160006101000a81548173ffffffffffffffffffffffffffffffffffffffff021916908373ffffffffffffffffffffffffffffffffffffffff1602179055506040820151816002015560608201518160030160006101000a81548160ff02191690831515021790555060808201518160030160016101000a81548160ff021916908360ff1602179055505050600460028054905090806001815401808255809150506001900390600052602060002001600090919091909150557f41d8c89c4a25824354aa1f198d80d06f2f93f903a2d180d1ea20429a4678c4a433838360028054905060405161053e9493929190610bcd565b60405180910390a15050565b61055261092a565b60008054906101000a900473ffffffffffffffffffffffffffffffffffffffff1673ffffffffffffffffffffffffffffffffffffffff163373ffffffffffffffffffffffffffffffffffffffff1614806105fa575060018060003373ffffffffffffffffffffffffffffffffffffffff1673ffffffffffffffffffffffffffffffffffffffff16815260200190815260200160002060009054906101000a900460ff1660ff16145b61060357600080fd5b60006002838154811061061957610618610d9a565b5b90600052602060002090600402016040518060a00160405290816000820160009054906101000a900473ffffffffffffffffffffffffffffffffffffffff1673ffffffffffffffffffffffffffffffffffffffff1673ffffffffffffffffffffffffffffffffffffffff1681526020016001820160009054906101000a900473ffffffffffffffffffffffffffffffffffffffff1673ffffffffffffffffffffffffffffffffffffffff1673ffffffffffffffffffffffffffffffffffffffff168152602001600282015481526020016003820160009054906101000a900460ff161515151581526020016003820160019054906101000a900460ff1660ff1660ff1681525050905080915050919050565b600047905090565b60008054906101000a900473ffffffffffffffffffffffffffffffffffffffff1673ffffffffffffffffffffffffffffffffffffffff163373ffffffffffffffffffffffffffffffffffffffff161461078b57600080fd5b60018060008373ffffffffffffffffffffffffffffffffffffffff1673ffffffffffffffffffffffffffffffffffffffff16815260200190815260200160002060006101000a81548160ff021916908360ff16021790555050565b7fd241e73300212f6df233a8e6d3146b88a9d4964e06621d54b5ff6afeba7b1b883334604051610817929190610c12565b60405180910390a1565b606060008054906101000a900473ffffffffffffffffffffffffffffffffffffffff1673ffffffffffffffffffffffffffffffffffffffff163373ffffffffffffffffffffffffffffffffffffffff1614806108cb575060018060003373ffffffffffffffffffffffffffffffffffffffff1673ffffffffffffffffffffffffffffffffffffffff16815260200190815260200160002060009054906101000a900460ff1660ff16145b6108d457600080fd5b600480548060200260200160405190810160405280929190818152602001828054801561092057602002820191906000526020600020905b81548152602001906001019080831161090c575b5050505050905090565b6040518060a00160405280600073ffffffffffffffffffffffffffffffffffffffff168152602001600073ffffffffffffffffffffffffffffffffffffffff16815260200160008152602001600015158152602001600060ff1681525090565b60008135905061099981610df7565b92915050565b6000813590506109ae81610e0e565b92915050565b6000813590506109c381610e25565b92915050565b6000602082840312156109df576109de610dc9565b5b60006109ed8482850161098a565b91505092915050565b60008060408385031215610a0d57610a0c610dc9565b5b6000610a1b8582860161099f565b9250506020610a2c858286016109b4565b9150509250929050565b600060208284031215610a4c57610a4b610dc9565b5b6000610a5a848285016109b4565b91505092915050565b6000610a6f8383610ba0565b60208301905092915050565b610a8481610d64565b82525050565b610a9381610d0f565b82525050565b610aa281610cfd565b82525050565b6000610ab382610cc3565b610abd8185610cdb565b9350610ac883610cb3565b8060005b83811015610af9578151610ae08882610a63565b9750610aeb83610cce565b925050600181019050610acc565b5085935050505092915050565b610b0f81610d21565b82525050565b6000610b22601083610cec565b9150610b2d82610dce565b602082019050919050565b60a082016000820151610b4e6000850182610a8a565b506020820151610b616020850182610a8a565b506040820151610b746040850182610ba0565b506060820151610b876060850182610b06565b506080820151610b9a6080850182610bbe565b50505050565b610ba981610d4d565b82525050565b610bb881610d4d565b82525050565b610bc781610d57565b82525050565b6000608082019050610be26000830187610a99565b610bef6020830186610a7b565b610bfc6040830185610baf565b610c096060830184610baf565b95945050505050565b6000604082019050610c276000830185610a99565b610c346020830184610baf565b9392505050565b60006020820190508181036000830152610c558184610aa8565b905092915050565b60006020820190508181036000830152610c7681610b15565b9050919050565b600060a082019050610c926000830184610b38565b92915050565b6000602082019050610cad6000830184610baf565b92915050565b6000819050602082019050919050565b600081519050919050565b6000602082019050919050565b600082825260208201905092915050565b600082825260208201905092915050565b6000610d0882610d2d565b9050919050565b6000610d1a82610d2d565b9050919050565b60008115159050919050565b600073ffffffffffffffffffffffffffffffffffffffff82169050919050565b6000819050919050565b600060ff82169050919050565b6000610d6f82610d76565b9050919050565b6000610d8182610d88565b9050919050565b6000610d9382610d2d565b9050919050565b7f4e487b7100000000000000000000000000000000000000000000000000000000600052603260045260246000fd5b600080fd5b7f4e6f7420456e6f756768204d6f6e657900000000000000000000000000000000600082015250565b610e0081610cfd565b8114610e0b57600080fd5b50565b610e1781610d0f565b8114610e2257600080fd5b50565b610e2e81610d4d565b8114610e3957600080fd5b5056fea26469706673582212208744fccedc74d57fe5ac7b4743c8e68cd99fceb0ae8b28e1a7135fffa41dd4cb64736f6c63430008070033",
					"opcodes": "PUSH1 0x80 PUSH1 0x40 MSTORE CALLVALUE DUP1 ISZERO PUSH2 0x10 JUMPI PUSH1 0x0 DUP1 REVERT JUMPDEST POP CALLER PUSH1 0x0 DUP1 PUSH2 0x100 EXP DUP2 SLOAD DUP2 PUSH20 0xFFFFFFFFFFFFFFFFFFFFFFFFFFFFFFFFFFFFFFFF MUL NOT AND SWAP1 DUP4 PUSH20 0xFFFFFFFFFFFFFFFFFFFFFFFFFFFFFFFFFFFFFFFF AND MUL OR SWAP1 SSTORE POP PUSH2 0xE72 DUP1 PUSH2 0x60 PUSH1 0x0 CODECOPY PUSH1 0x0 RETURN INVALID PUSH1 0x80 PUSH1 0x40 MSTORE PUSH1 0x4 CALLDATASIZE LT PUSH2 0x7B JUMPI PUSH1 0x0 CALLDATALOAD PUSH1 0xE0 SHR DUP1 PUSH4 0x572C1BF4 GT PUSH2 0x4E JUMPI DUP1 PUSH4 0x572C1BF4 EQ PUSH2 0x138 JUMPI DUP1 PUSH4 0x7065CB48 EQ PUSH2 0x163 JUMPI DUP1 PUSH4 0xA50EC326 EQ PUSH2 0x18C JUMPI DUP1 PUSH4 0xD11DB83F EQ PUSH2 0x196 JUMPI PUSH2 0x7B JUMP JUMPDEST DUP1 PUSH4 0x14174F33 EQ PUSH2 0x80 JUMPI DUP1 PUSH4 0x173825D9 EQ PUSH2 0xA9 JUMPI DUP1 PUSH4 0x2CCB1B30 EQ PUSH2 0xD2 JUMPI DUP1 PUSH4 0x33EA3DC8 EQ PUSH2 0xFB JUMPI JUMPDEST PUSH1 0x0 DUP1 REVERT JUMPDEST CALLVALUE DUP1 ISZERO PUSH2 0x8C JUMPI PUSH1 0x0 DUP1 REVERT JUMPDEST POP PUSH2 0xA7 PUSH1 0x4 DUP1 CALLDATASIZE SUB DUP2 ADD SWAP1 PUSH2 0xA2 SWAP2 SWAP1 PUSH2 0xA36 JUMP JUMPDEST PUSH2 0x1C1 JUMP JUMPDEST STOP JUMPDEST CALLVALUE DUP1 ISZERO PUSH2 0xB5 JUMPI PUSH1 0x0 DUP1 REVERT JUMPDEST POP PUSH2 0xD0 PUSH1 0x4 DUP1 CALLDATASIZE SUB DUP2 ADD SWAP1 PUSH2 0xCB SWAP2 SWAP1 PUSH2 0x9C9 JUMP JUMPDEST PUSH2 0x1CE JUMP JUMPDEST STOP JUMPDEST CALLVALUE DUP1 ISZERO PUSH2 0xDE JUMPI PUSH1 0x0 DUP1 REVERT JUMPDEST POP PUSH2 0xF9 PUSH1 0x4 DUP1 CALLDATASIZE SUB DUP2 ADD SWAP1 PUSH2 0xF4 SWAP2 SWAP1 PUSH2 0x9F6 JUMP JUMPDEST PUSH2 0x282 JUMP JUMPDEST STOP JUMPDEST CALLVALUE DUP1 ISZERO PUSH2 0x107 JUMPI PUSH1 0x0 DUP1 REVERT JUMPDEST POP PUSH2 0x122 PUSH1 0x4 DUP1 CALLDATASIZE SUB DUP2 ADD SWAP1 PUSH2 0x11D SWAP2 SWAP1 PUSH2 0xA36 JUMP JUMPDEST PUSH2 0x54A JUMP JUMPDEST PUSH1 0x40 MLOAD PUSH2 0x12F SWAP2 SWAP1 PUSH2 0xC7D JUMP JUMPDEST PUSH1 0x40 MLOAD DUP1 SWAP2 SUB SWAP1 RETURN JUMPDEST CALLVALUE DUP1 ISZERO PUSH2 0x144 JUMPI PUSH1 0x0 DUP1 REVERT JUMPDEST POP PUSH2 0x14D PUSH2 0x72B JUMP JUMPDEST PUSH1 0x40 MLOAD PUSH2 0x15A SWAP2 SWAP1 PUSH2 0xC98 JUMP JUMPDEST PUSH1 0x40 MLOAD DUP1 SWAP2 SUB SWAP1 RETURN JUMPDEST CALLVALUE DUP1 ISZERO PUSH2 0x16F JUMPI PUSH1 0x0 DUP1 REVERT JUMPDEST POP PUSH2 0x18A PUSH1 0x4 DUP1 CALLDATASIZE SUB DUP2 ADD SWAP1 PUSH2 0x185 SWAP2 SWAP1 PUSH2 0x9C9 JUMP JUMPDEST PUSH2 0x733 JUMP JUMPDEST STOP JUMPDEST PUSH2 0x194 PUSH2 0x7E6 JUMP JUMPDEST STOP JUMPDEST CALLVALUE DUP1 ISZERO PUSH2 0x1A2 JUMPI PUSH1 0x0 DUP1 REVERT JUMPDEST POP PUSH2 0x1AB PUSH2 0x821 JUMP JUMPDEST PUSH1 0x40 MLOAD PUSH2 0x1B8 SWAP2 SWAP1 PUSH2 0xC3B JUMP JUMPDEST PUSH1 0x40 MLOAD DUP1 SWAP2 SUB SWAP1 RETURN JUMPDEST PUSH2 0x1CB CALLER DUP3 PUSH2 0x282 JUMP JUMPDEST POP JUMP JUMPDEST PUSH1 0x0 DUP1 SLOAD SWAP1 PUSH2 0x100 EXP SWAP1 DIV PUSH20 0xFFFFFFFFFFFFFFFFFFFFFFFFFFFFFFFFFFFFFFFF AND PUSH20 0xFFFFFFFFFFFFFFFFFFFFFFFFFFFFFFFFFFFFFFFF AND CALLER PUSH20 0xFFFFFFFFFFFFFFFFFFFFFFFFFFFFFFFFFFFFFFFF AND EQ PUSH2 0x226 JUMPI PUSH1 0x0 DUP1 REVERT JUMPDEST PUSH1 0x0 PUSH1 0x1 PUSH1 0x0 DUP4 PUSH20 0xFFFFFFFFFFFFFFFFFFFFFFFFFFFFFFFFFFFFFFFF AND PUSH20 0xFFFFFFFFFFFFFFFFFFFFFFFFFFFFFFFFFFFFFFFF AND DUP2 MSTORE PUSH1 0x20 ADD SWAP1 DUP2 MSTORE PUSH1 0x20 ADD PUSH1 0x0 KECCAK256 PUSH1 0x0 PUSH2 0x100 EXP DUP2 SLOAD DUP2 PUSH1 0xFF MUL NOT AND SWAP1 DUP4 PUSH1 0xFF AND MUL OR SWAP1 SSTORE POP POP JUMP JUMPDEST PUSH1 0x0 DUP1 SLOAD SWAP1 PUSH2 0x100 EXP SWAP1 DIV PUSH20 0xFFFFFFFFFFFFFFFFFFFFFFFFFFFFFFFFFFFFFFFF AND PUSH20 0xFFFFFFFFFFFFFFFFFFFFFFFFFFFFFFFFFFFFFFFF AND CALLER PUSH20 0xFFFFFFFFFFFFFFFFFFFFFFFFFFFFFFFFFFFFFFFF AND EQ DUP1 PUSH2 0x32A JUMPI POP PUSH1 0x1 DUP1 PUSH1 0x0 CALLER PUSH20 0xFFFFFFFFFFFFFFFFFFFFFFFFFFFFFFFFFFFFFFFF AND PUSH20 0xFFFFFFFFFFFFFFFFFFFFFFFFFFFFFFFFFFFFFFFF AND DUP2 MSTORE PUSH1 0x20 ADD SWAP1 DUP2 MSTORE PUSH1 0x20 ADD PUSH1 0x0 KECCAK256 PUSH1 0x0 SWAP1 SLOAD SWAP1 PUSH2 0x100 EXP SWAP1 DIV PUSH1 0xFF AND PUSH1 0xFF AND EQ JUMPDEST PUSH2 0x333 JUMPI PUSH1 0x0 DUP1 REVERT JUMPDEST DUP1 SELFBALANCE LT ISZERO PUSH2 0x376 JUMPI PUSH1 0x40 MLOAD PUSH32 0x8C379A000000000000000000000000000000000000000000000000000000000 DUP2 MSTORE PUSH1 0x4 ADD PUSH2 0x36D SWAP1 PUSH2 0xC5D JUMP JUMPDEST PUSH1 0x40 MLOAD DUP1 SWAP2 SUB SWAP1 REVERT JUMPDEST PUSH1 0x2 PUSH1 0x40 MLOAD DUP1 PUSH1 0xA0 ADD PUSH1 0x40 MSTORE DUP1 CALLER PUSH20 0xFFFFFFFFFFFFFFFFFFFFFFFFFFFFFFFFFFFFFFFF AND DUP2 MSTORE PUSH1 0x20 ADD DUP5 PUSH20 0xFFFFFFFFFFFFFFFFFFFFFFFFFFFFFFFFFFFFFFFF AND DUP2 MSTORE PUSH1 0x20 ADD DUP4 DUP2 MSTORE PUSH1 0x20 ADD PUSH1 0x0 ISZERO ISZERO DUP2 MSTORE PUSH1 0x20 ADD PUSH1 0x0 PUSH1 0xFF AND DUP2 MSTORE POP SWAP1 DUP1 PUSH1 0x1 DUP2 SLOAD ADD DUP1 DUP3 SSTORE DUP1 SWAP2 POP POP PUSH1 0x1 SWAP1 SUB SWAP1 PUSH1 0x0 MSTORE PUSH1 0x20 PUSH1 0x0 KECCAK256 SWAP1 PUSH1 0x4 MUL ADD PUSH1 0x0 SWAP1 SWAP2 SWAP1 SWAP2 SWAP1 SWAP2 POP PUSH1 0x0 DUP3 ADD MLOAD DUP2 PUSH1 0x0 ADD PUSH1 0x0 PUSH2 0x100 EXP DUP2 SLOAD DUP2 PUSH20 0xFFFFFFFFFFFFFFFFFFFFFFFFFFFFFFFFFFFFFFFF MUL NOT AND SWAP1 DUP4 PUSH20 0xFFFFFFFFFFFFFFFFFFFFFFFFFFFFFFFFFFFFFFFF AND MUL OR SWAP1 SSTORE POP PUSH1 0x20 DUP3 ADD MLOAD DUP2 PUSH1 0x1 ADD PUSH1 0x0 PUSH2 0x100 EXP DUP2 SLOAD DUP2 PUSH20 0xFFFFFFFFFFFFFFFFFFFFFFFFFFFFFFFFFFFFFFFF MUL NOT AND SWAP1 DUP4 PUSH20 0xFFFFFFFFFFFFFFFFFFFFFFFFFFFFFFFFFFFFFFFF AND MUL OR SWAP1 SSTORE POP PUSH1 0x40 DUP3 ADD MLOAD DUP2 PUSH1 0x2 ADD SSTORE PUSH1 0x60 DUP3 ADD MLOAD DUP2 PUSH1 0x3 ADD PUSH1 0x0 PUSH2 0x100 EXP DUP2 SLOAD DUP2 PUSH1 0xFF MUL NOT AND SWAP1 DUP4 ISZERO ISZERO MUL OR SWAP1 SSTORE POP PUSH1 0x80 DUP3 ADD MLOAD DUP2 PUSH1 0x3 ADD PUSH1 0x1 PUSH2 0x100 EXP DUP2 SLOAD DUP2 PUSH1 0xFF MUL NOT AND SWAP1 DUP4 PUSH1 0xFF AND MUL OR SWAP1 SSTORE POP POP POP PUSH1 0x4 PUSH1 0x2 DUP1 SLOAD SWAP1 POP SWAP1 DUP1 PUSH1 0x1 DUP2 SLOAD ADD DUP1 DUP3 SSTORE DUP1 SWAP2 POP POP PUSH1 0x1 SWAP1 SUB SWAP1 PUSH1 0x0 MSTORE PUSH1 0x20 PUSH1 0x0 KECCAK256 ADD PUSH1 0x0 SWAP1 SWAP2 SWAP1 SWAP2 SWAP1 SWAP2 POP SSTORE PUSH32 0x41D8C89C4A25824354AA1F198D80D06F2F93F903A2D180D1EA20429A4678C4A4 CALLER DUP4 DUP4 PUSH1 0x2 DUP1 SLOAD SWAP1 POP PUSH1 0x40 MLOAD PUSH2 0x53E SWAP5 SWAP4 SWAP3 SWAP2 SWAP1 PUSH2 0xBCD JUMP JUMPDEST PUSH1 0x40 MLOAD DUP1 SWAP2 SUB SWAP1 LOG1 POP POP JUMP JUMPDEST PUSH2 0x552 PUSH2 0x92A JUMP JUMPDEST PUSH1 0x0 DUP1 SLOAD SWAP1 PUSH2 0x100 EXP SWAP1 DIV PUSH20 0xFFFFFFFFFFFFFFFFFFFFFFFFFFFFFFFFFFFFFFFF AND PUSH20 0xFFFFFFFFFFFFFFFFFFFFFFFFFFFFFFFFFFFFFFFF AND CALLER PUSH20 0xFFFFFFFFFFFFFFFFFFFFFFFFFFFFFFFFFFFFFFFF AND EQ DUP1 PUSH2 0x5FA JUMPI POP PUSH1 0x1 DUP1 PUSH1 0x0 CALLER PUSH20 0xFFFFFFFFFFFFFFFFFFFFFFFFFFFFFFFFFFFFFFFF AND PUSH20 0xFFFFFFFFFFFFFFFFFFFFFFFFFFFFFFFFFFFFFFFF AND DUP2 MSTORE PUSH1 0x20 ADD SWAP1 DUP2 MSTORE PUSH1 0x20 ADD PUSH1 0x0 KECCAK256 PUSH1 0x0 SWAP1 SLOAD SWAP1 PUSH2 0x100 EXP SWAP1 DIV PUSH1 0xFF AND PUSH1 0xFF AND EQ JUMPDEST PUSH2 0x603 JUMPI PUSH1 0x0 DUP1 REVERT JUMPDEST PUSH1 0x0 PUSH1 0x2 DUP4 DUP2 SLOAD DUP2 LT PUSH2 0x619 JUMPI PUSH2 0x618 PUSH2 0xD9A JUMP JUMPDEST JUMPDEST SWAP1 PUSH1 0x0 MSTORE PUSH1 0x20 PUSH1 0x0 KECCAK256 SWAP1 PUSH1 0x4 MUL ADD PUSH1 0x40 MLOAD DUP1 PUSH1 0xA0 ADD PUSH1 0x40 MSTORE SWAP1 DUP2 PUSH1 0x0 DUP3 ADD PUSH1 0x0 SWAP1 SLOAD SWAP1 PUSH2 0x100 EXP SWAP1 DIV PUSH20 0xFFFFFFFFFFFFFFFFFFFFFFFFFFFFFFFFFFFFFFFF AND PUSH20 0xFFFFFFFFFFFFFFFFFFFFFFFFFFFFFFFFFFFFFFFF AND PUSH20 0xFFFFFFFFFFFFFFFFFFFFFFFFFFFFFFFFFFFFFFFF AND DUP2 MSTORE PUSH1 0x20 ADD PUSH1 0x1 DUP3 ADD PUSH1 0x0 SWAP1 SLOAD SWAP1 PUSH2 0x100 EXP SWAP1 DIV PUSH20 0xFFFFFFFFFFFFFFFFFFFFFFFFFFFFFFFFFFFFFFFF AND PUSH20 0xFFFFFFFFFFFFFFFFFFFFFFFFFFFFFFFFFFFFFFFF AND PUSH20 0xFFFFFFFFFFFFFFFFFFFFFFFFFFFFFFFFFFFFFFFF AND DUP2 MSTORE PUSH1 0x20 ADD PUSH1 0x2 DUP3 ADD SLOAD DUP2 MSTORE PUSH1 0x20 ADD PUSH1 0x3 DUP3 ADD PUSH1 0x0 SWAP1 SLOAD SWAP1 PUSH2 0x100 EXP SWAP1 DIV PUSH1 0xFF AND ISZERO ISZERO ISZERO ISZERO DUP2 MSTORE PUSH1 0x20 ADD PUSH1 0x3 DUP3 ADD PUSH1 0x1 SWAP1 SLOAD SWAP1 PUSH2 0x100 EXP SWAP1 DIV PUSH1 0xFF AND PUSH1 0xFF AND PUSH1 0xFF AND DUP2 MSTORE POP POP SWAP1 POP DUP1 SWAP2 POP POP SWAP2 SWAP1 POP JUMP JUMPDEST PUSH1 0x0 SELFBALANCE SWAP1 POP SWAP1 JUMP JUMPDEST PUSH1 0x0 DUP1 SLOAD SWAP1 PUSH2 0x100 EXP SWAP1 DIV PUSH20 0xFFFFFFFFFFFFFFFFFFFFFFFFFFFFFFFFFFFFFFFF AND PUSH20 0xFFFFFFFFFFFFFFFFFFFFFFFFFFFFFFFFFFFFFFFF AND CALLER PUSH20 0xFFFFFFFFFFFFFFFFFFFFFFFFFFFFFFFFFFFFFFFF AND EQ PUSH2 0x78B JUMPI PUSH1 0x0 DUP1 REVERT JUMPDEST PUSH1 0x1 DUP1 PUSH1 0x0 DUP4 PUSH20 0xFFFFFFFFFFFFFFFFFFFFFFFFFFFFFFFFFFFFFFFF AND PUSH20 0xFFFFFFFFFFFFFFFFFFFFFFFFFFFFFFFFFFFFFFFF AND DUP2 MSTORE PUSH1 0x20 ADD SWAP1 DUP2 MSTORE PUSH1 0x20 ADD PUSH1 0x0 KECCAK256 PUSH1 0x0 PUSH2 0x100 EXP DUP2 SLOAD DUP2 PUSH1 0xFF MUL NOT AND SWAP1 DUP4 PUSH1 0xFF AND MUL OR SWAP1 SSTORE POP POP JUMP JUMPDEST PUSH32 0xD241E73300212F6DF233A8E6D3146B88A9D4964E06621D54B5FF6AFEBA7B1B88 CALLER CALLVALUE PUSH1 0x40 MLOAD PUSH2 0x817 SWAP3 SWAP2 SWAP1 PUSH2 0xC12 JUMP JUMPDEST PUSH1 0x40 MLOAD DUP1 SWAP2 SUB SWAP1 LOG1 JUMP JUMPDEST PUSH1 0x60 PUSH1 0x0 DUP1 SLOAD SWAP1 PUSH2 0x100 EXP SWAP1 DIV PUSH20 0xFFFFFFFFFFFFFFFFFFFFFFFFFFFFFFFFFFFFFFFF AND PUSH20 0xFFFFFFFFFFFFFFFFFFFFFFFFFFFFFFFFFFFFFFFF AND CALLER PUSH20 0xFFFFFFFFFFFFFFFFFFFFFFFFFFFFFFFFFFFFFFFF AND EQ DUP1 PUSH2 0x8CB JUMPI POP PUSH1 0x1 DUP1 PUSH1 0x0 CALLER PUSH20 0xFFFFFFFFFFFFFFFFFFFFFFFFFFFFFFFFFFFFFFFF AND PUSH20 0xFFFFFFFFFFFFFFFFFFFFFFFFFFFFFFFFFFFFFFFF AND DUP2 MSTORE PUSH1 0x20 ADD SWAP1 DUP2 MSTORE PUSH1 0x20 ADD PUSH1 0x0 KECCAK256 PUSH1 0x0 SWAP1 SLOAD SWAP1 PUSH2 0x100 EXP SWAP1 DIV PUSH1 0xFF AND PUSH1 0xFF AND EQ JUMPDEST PUSH2 0x8D4 JUMPI PUSH1 0x0 DUP1 REVERT JUMPDEST PUSH1 0x4 DUP1 SLOAD DUP1 PUSH1 0x20 MUL PUSH1 0x20 ADD PUSH1 0x40 MLOAD SWAP1 DUP2 ADD PUSH1 0x40 MSTORE DUP1 SWAP3 SWAP2 SWAP1 DUP2 DUP2 MSTORE PUSH1 0x20 ADD DUP3 DUP1 SLOAD DUP1 ISZERO PUSH2 0x920 JUMPI PUSH1 0x20 MUL DUP3 ADD SWAP2 SWAP1 PUSH1 0x0 MSTORE PUSH1 0x20 PUSH1 0x0 KECCAK256 SWAP1 JUMPDEST DUP2 SLOAD DUP2 MSTORE PUSH1 0x20 ADD SWAP1 PUSH1 0x1 ADD SWAP1 DUP1 DUP4 GT PUSH2 0x90C JUMPI JUMPDEST POP POP POP POP POP SWAP1 POP SWAP1 JUMP JUMPDEST PUSH1 0x40 MLOAD DUP1 PUSH1 0xA0 ADD PUSH1 0x40 MSTORE DUP1 PUSH1 0x0 PUSH20 0xFFFFFFFFFFFFFFFFFFFFFFFFFFFFFFFFFFFFFFFF AND DUP2 MSTORE PUSH1 0x20 ADD PUSH1 0x0 PUSH20 0xFFFFFFFFFFFFFFFFFFFFFFFFFFFFFFFFFFFFFFFF AND DUP2 MSTORE PUSH1 0x20 ADD PUSH1 0x0 DUP2 MSTORE PUSH1 0x20 ADD PUSH1 0x0 ISZERO ISZERO DUP2 MSTORE PUSH1 0x20 ADD PUSH1 0x0 PUSH1 0xFF AND DUP2 MSTORE POP SWAP1 JUMP JUMPDEST PUSH1 0x0 DUP2 CALLDATALOAD SWAP1 POP PUSH2 0x999 DUP2 PUSH2 0xDF7 JUMP JUMPDEST SWAP3 SWAP2 POP POP JUMP JUMPDEST PUSH1 0x0 DUP2 CALLDATALOAD SWAP1 POP PUSH2 0x9AE DUP2 PUSH2 0xE0E JUMP JUMPDEST SWAP3 SWAP2 POP POP JUMP JUMPDEST PUSH1 0x0 DUP2 CALLDATALOAD SWAP1 POP PUSH2 0x9C3 DUP2 PUSH2 0xE25 JUMP JUMPDEST SWAP3 SWAP2 POP POP JUMP JUMPDEST PUSH1 0x0 PUSH1 0x20 DUP3 DUP5 SUB SLT ISZERO PUSH2 0x9DF JUMPI PUSH2 0x9DE PUSH2 0xDC9 JUMP JUMPDEST JUMPDEST PUSH1 0x0 PUSH2 0x9ED DUP5 DUP3 DUP6 ADD PUSH2 0x98A JUMP JUMPDEST SWAP2 POP POP SWAP3 SWAP2 POP POP JUMP JUMPDEST PUSH1 0x0 DUP1 PUSH1 0x40 DUP4 DUP6 SUB SLT ISZERO PUSH2 0xA0D JUMPI PUSH2 0xA0C PUSH2 0xDC9 JUMP JUMPDEST JUMPDEST PUSH1 0x0 PUSH2 0xA1B DUP6 DUP3 DUP7 ADD PUSH2 0x99F JUMP JUMPDEST SWAP3 POP POP PUSH1 0x20 PUSH2 0xA2C DUP6 DUP3 DUP7 ADD PUSH2 0x9B4 JUMP JUMPDEST SWAP2 POP POP SWAP3 POP SWAP3 SWAP1 POP JUMP JUMPDEST PUSH1 0x0 PUSH1 0x20 DUP3 DUP5 SUB SLT ISZERO PUSH2 0xA4C JUMPI PUSH2 0xA4B PUSH2 0xDC9 JUMP JUMPDEST JUMPDEST PUSH1 0x0 PUSH2 0xA5A DUP5 DUP3 DUP6 ADD PUSH2 0x9B4 JUMP JUMPDEST SWAP2 POP POP SWAP3 SWAP2 POP POP JUMP JUMPDEST PUSH1 0x0 PUSH2 0xA6F DUP4 DUP4 PUSH2 0xBA0 JUMP JUMPDEST PUSH1 0x20 DUP4 ADD SWAP1 POP SWAP3 SWAP2 POP POP JUMP JUMPDEST PUSH2 0xA84 DUP2 PUSH2 0xD64 JUMP JUMPDEST DUP3 MSTORE POP POP JUMP JUMPDEST PUSH2 0xA93 DUP2 PUSH2 0xD0F JUMP JUMPDEST DUP3 MSTORE POP POP JUMP JUMPDEST PUSH2 0xAA2 DUP2 PUSH2 0xCFD JUMP JUMPDEST DUP3 MSTORE POP POP JUMP JUMPDEST PUSH1 0x0 PUSH2 0xAB3 DUP3 PUSH2 0xCC3 JUMP JUMPDEST PUSH2 0xABD DUP2 DUP6 PUSH2 0xCDB JUMP JUMPDEST SWAP4 POP PUSH2 0xAC8 DUP4 PUSH2 0xCB3 JUMP JUMPDEST DUP1 PUSH1 0x0 JUMPDEST DUP4 DUP2 LT ISZERO PUSH2 0xAF9 JUMPI DUP2 MLOAD PUSH2 0xAE0 DUP9 DUP3 PUSH2 0xA63 JUMP JUMPDEST SWAP8 POP PUSH2 0xAEB DUP4 PUSH2 0xCCE JUMP JUMPDEST SWAP3 POP POP PUSH1 0x1 DUP2 ADD SWAP1 POP PUSH2 0xACC JUMP JUMPDEST POP DUP6 SWAP4 POP POP POP POP SWAP3 SWAP2 POP POP JUMP JUMPDEST PUSH2 0xB0F DUP2 PUSH2 0xD21 JUMP JUMPDEST DUP3 MSTORE POP POP JUMP JUMPDEST PUSH1 0x0 PUSH2 0xB22 PUSH1 0x10 DUP4 PUSH2 0xCEC JUMP JUMPDEST SWAP2 POP PUSH2 0xB2D DUP3 PUSH2 0xDCE JUMP JUMPDEST PUSH1 0x20 DUP3 ADD SWAP1 POP SWAP2 SWAP1 POP JUMP JUMPDEST PUSH1 0xA0 DUP3 ADD PUSH1 0x0 DUP3 ADD MLOAD PUSH2 0xB4E PUSH1 0x0 DUP6 ADD DUP3 PUSH2 0xA8A JUMP JUMPDEST POP PUSH1 0x20 DUP3 ADD MLOAD PUSH2 0xB61 PUSH1 0x20 DUP6 ADD DUP3 PUSH2 0xA8A JUMP JUMPDEST POP PUSH1 0x40 DUP3 ADD MLOAD PUSH2 0xB74 PUSH1 0x40 DUP6 ADD DUP3 PUSH2 0xBA0 JUMP JUMPDEST POP PUSH1 0x60 DUP3 ADD MLOAD PUSH2 0xB87 PUSH1 0x60 DUP6 ADD DUP3 PUSH2 0xB06 JUMP JUMPDEST POP PUSH1 0x80 DUP3 ADD MLOAD PUSH2 0xB9A PUSH1 0x80 DUP6 ADD DUP3 PUSH2 0xBBE JUMP JUMPDEST POP POP POP POP JUMP JUMPDEST PUSH2 0xBA9 DUP2 PUSH2 0xD4D JUMP JUMPDEST DUP3 MSTORE POP POP JUMP JUMPDEST PUSH2 0xBB8 DUP2 PUSH2 0xD4D JUMP JUMPDEST DUP3 MSTORE POP POP JUMP JUMPDEST PUSH2 0xBC7 DUP2 PUSH2 0xD57 JUMP JUMPDEST DUP3 MSTORE POP POP JUMP JUMPDEST PUSH1 0x0 PUSH1 0x80 DUP3 ADD SWAP1 POP PUSH2 0xBE2 PUSH1 0x0 DUP4 ADD DUP8 PUSH2 0xA99 JUMP JUMPDEST PUSH2 0xBEF PUSH1 0x20 DUP4 ADD DUP7 PUSH2 0xA7B JUMP JUMPDEST PUSH2 0xBFC PUSH1 0x40 DUP4 ADD DUP6 PUSH2 0xBAF JUMP JUMPDEST PUSH2 0xC09 PUSH1 0x60 DUP4 ADD DUP5 PUSH2 0xBAF JUMP JUMPDEST SWAP6 SWAP5 POP POP POP POP POP JUMP JUMPDEST PUSH1 0x0 PUSH1 0x40 DUP3 ADD SWAP1 POP PUSH2 0xC27 PUSH1 0x0 DUP4 ADD DUP6 PUSH2 0xA99 JUMP JUMPDEST PUSH2 0xC34 PUSH1 0x20 DUP4 ADD DUP5 PUSH2 0xBAF JUMP JUMPDEST SWAP4 SWAP3 POP POP POP JUMP JUMPDEST PUSH1 0x0 PUSH1 0x20 DUP3 ADD SWAP1 POP DUP2 DUP2 SUB PUSH1 0x0 DUP4 ADD MSTORE PUSH2 0xC55 DUP2 DUP5 PUSH2 0xAA8 JUMP JUMPDEST SWAP1 POP SWAP3 SWAP2 POP POP JUMP JUMPDEST PUSH1 0x0 PUSH1 0x20 DUP3 ADD SWAP1 POP DUP2 DUP2 SUB PUSH1 0x0 DUP4 ADD MSTORE PUSH2 0xC76 DUP2 PUSH2 0xB15 JUMP JUMPDEST SWAP1 POP SWAP2 SWAP1 POP JUMP JUMPDEST PUSH1 0x0 PUSH1 0xA0 DUP3 ADD SWAP1 POP PUSH2 0xC92 PUSH1 0x0 DUP4 ADD DUP5 PUSH2 0xB38 JUMP JUMPDEST SWAP3 SWAP2 POP POP JUMP JUMPDEST PUSH1 0x0 PUSH1 0x20 DUP3 ADD SWAP1 POP PUSH2 0xCAD PUSH1 0x0 DUP4 ADD DUP5 PUSH2 0xBAF JUMP JUMPDEST SWAP3 SWAP2 POP POP JUMP JUMPDEST PUSH1 0x0 DUP2 SWAP1 POP PUSH1 0x20 DUP3 ADD SWAP1 POP SWAP2 SWAP1 POP JUMP JUMPDEST PUSH1 0x0 DUP2 MLOAD SWAP1 POP SWAP2 SWAP1 POP JUMP JUMPDEST PUSH1 0x0 PUSH1 0x20 DUP3 ADD SWAP1 POP SWAP2 SWAP1 POP JUMP JUMPDEST PUSH1 0x0 DUP3 DUP3 MSTORE PUSH1 0x20 DUP3 ADD SWAP1 POP SWAP3 SWAP2 POP POP JUMP JUMPDEST PUSH1 0x0 DUP3 DUP3 MSTORE PUSH1 0x20 DUP3 ADD SWAP1 POP SWAP3 SWAP2 POP POP JUMP JUMPDEST PUSH1 0x0 PUSH2 0xD08 DUP3 PUSH2 0xD2D JUMP JUMPDEST SWAP1 POP SWAP2 SWAP1 POP JUMP JUMPDEST PUSH1 0x0 PUSH2 0xD1A DUP3 PUSH2 0xD2D JUMP JUMPDEST SWAP1 POP SWAP2 SWAP1 POP JUMP JUMPDEST PUSH1 0x0 DUP2 ISZERO ISZERO SWAP1 POP SWAP2 SWAP1 POP JUMP JUMPDEST PUSH1 0x0 PUSH20 0xFFFFFFFFFFFFFFFFFFFFFFFFFFFFFFFFFFFFFFFF DUP3 AND SWAP1 POP SWAP2 SWAP1 POP JUMP JUMPDEST PUSH1 0x0 DUP2 SWAP1 POP SWAP2 SWAP1 POP JUMP JUMPDEST PUSH1 0x0 PUSH1 0xFF DUP3 AND SWAP1 POP SWAP2 SWAP1 POP JUMP JUMPDEST PUSH1 0x0 PUSH2 0xD6F DUP3 PUSH2 0xD76 JUMP JUMPDEST SWAP1 POP SWAP2 SWAP1 POP JUMP JUMPDEST PUSH1 0x0 PUSH2 0xD81 DUP3 PUSH2 0xD88 JUMP JUMPDEST SWAP1 POP SWAP2 SWAP1 POP JUMP JUMPDEST PUSH1 0x0 PUSH2 0xD93 DUP3 PUSH2 0xD2D JUMP JUMPDEST SWAP1 POP SWAP2 SWAP1 POP JUMP JUMPDEST PUSH32 0x4E487B7100000000000000000000000000000000000000000000000000000000 PUSH1 0x0 MSTORE PUSH1 0x32 PUSH1 0x4 MSTORE PUSH1 0x24 PUSH1 0x0 REVERT JUMPDEST PUSH1 0x0 DUP1 REVERT JUMPDEST PUSH32 0x4E6F7420456E6F756768204D6F6E657900000000000000000000000000000000 PUSH1 0x0 DUP3 ADD MSTORE POP JUMP JUMPDEST PUSH2 0xE00 DUP2 PUSH2 0xCFD JUMP JUMPDEST DUP2 EQ PUSH2 0xE0B JUMPI PUSH1 0x0 DUP1 REVERT JUMPDEST POP JUMP JUMPDEST PUSH2 0xE17 DUP2 PUSH2 0xD0F JUMP JUMPDEST DUP2 EQ PUSH2 0xE22 JUMPI PUSH1 0x0 DUP1 REVERT JUMPDEST POP JUMP JUMPDEST PUSH2 0xE2E DUP2 PUSH2 0xD4D JUMP JUMPDEST DUP2 EQ PUSH2 0xE39 JUMPI PUSH1 0x0 DUP1 REVERT JUMPDEST POP JUMP INVALID LOG2 PUSH5 0x6970667358 0x22 SLT KECCAK256 DUP8 DIFFICULTY 0xFC 0xCE 0xDC PUSH21 0xD57FE5AC7B4743C8E68CD99FCEB0AE8B28E1A7135F SELFDESTRUCT LOG4 SAR 0xD4 0xCB PUSH5 0x736F6C6343 STOP ADDMOD SMOD STOP CALLER "
				},
				"gasEstimates": {
					"creation": {
						"codeDepositCost": "739600",
						"executionCost": "25039",
						"totalCost": "764639"
					},
					"external": {
						"addOwner(address)": "27001",
						"deposite()": "1761",
						"getPendingTransactions()": "infinite",
						"getTransaction(uint256)": "infinite",
						"removeOwner(address)": "27002",
						"selectedTransactionBalance()": "339",
						"transferTo(address,uint256)": "infinite",
						"withDraw(uint256)": "infinite"
					}
				},
				"methodIdentifiers": {
					"addOwner(address)": "7065cb48",
					"deposite()": "a50ec326",
					"getPendingTransactions()": "d11db83f",
					"getTransaction(uint256)": "33ea3dc8",
					"removeOwner(address)": "173825d9",
					"selectedTransactionBalance()": "572c1bf4",
					"transferTo(address,uint256)": "2ccb1b30",
					"withDraw(uint256)": "14174f33"
				}
			},
			"storageLayout": {
				"storage": [
					{
						"astId": 3,
						"contract": "contracts/Multi_Sign_Wallet.sol:MultiSignWallet",
						"label": "_owner",
						"offset": 0,
						"slot": "0",
						"type": "t_address"
					},
					{
						"astId": 7,
						"contract": "contracts/Multi_Sign_Wallet.sol:MultiSignWallet",
						"label": "_owners",
						"offset": 0,
						"slot": "1",
						"type": "t_mapping(t_address,t_uint8)"
					},
					{
						"astId": 25,
						"contract": "contracts/Multi_Sign_Wallet.sol:MultiSignWallet",
						"label": "_transactions",
						"offset": 0,
						"slot": "2",
						"type": "t_array(t_struct(Transaction)21_storage)dyn_storage"
					},
					{
						"astId": 29,
						"contract": "contracts/Multi_Sign_Wallet.sol:MultiSignWallet",
						"label": "signed",
						"offset": 0,
						"slot": "3",
						"type": "t_mapping(t_address,t_uint8)"
					},
					{
						"astId": 32,
						"contract": "contracts/Multi_Sign_Wallet.sol:MultiSignWallet",
						"label": "_pendingTransactions",
						"offset": 0,
						"slot": "4",
						"type": "t_array(t_uint256)dyn_storage"
					}
				],
				"types": {
					"t_address": {
						"encoding": "inplace",
						"label": "address",
						"numberOfBytes": "20"
					},
					"t_address_payable": {
						"encoding": "inplace",
						"label": "address payable",
						"numberOfBytes": "20"
					},
					"t_array(t_struct(Transaction)21_storage)dyn_storage": {
						"base": "t_struct(Transaction)21_storage",
						"encoding": "dynamic_array",
						"label": "struct MultiSignWallet.Transaction[]",
						"numberOfBytes": "32"
					},
					"t_array(t_uint256)dyn_storage": {
						"base": "t_uint256",
						"encoding": "dynamic_array",
						"label": "uint256[]",
						"numberOfBytes": "32"
					},
					"t_bool": {
						"encoding": "inplace",
						"label": "bool",
						"numberOfBytes": "1"
					},
					"t_mapping(t_address,t_uint8)": {
						"encoding": "mapping",
						"key": "t_address",
						"label": "mapping(address => uint8)",
						"numberOfBytes": "32",
						"value": "t_uint8"
					},
					"t_struct(Transaction)21_storage": {
						"encoding": "inplace",
						"label": "struct MultiSignWallet.Transaction",
						"members": [
							{
								"astId": 12,
								"contract": "contracts/Multi_Sign_Wallet.sol:MultiSignWallet",
								"label": "sender",
								"offset": 0,
								"slot": "0",
								"type": "t_address_payable"
							},
							{
								"astId": 14,
								"contract": "contracts/Multi_Sign_Wallet.sol:MultiSignWallet",
								"label": "reciever",
								"offset": 0,
								"slot": "1",
								"type": "t_address_payable"
							},
							{
								"astId": 16,
								"contract": "contracts/Multi_Sign_Wallet.sol:MultiSignWallet",
								"label": "amount",
								"offset": 0,
								"slot": "2",
								"type": "t_uint256"
							},
							{
								"astId": 18,
								"contract": "contracts/Multi_Sign_Wallet.sol:MultiSignWallet",
								"label": "isSigned",
								"offset": 0,
								"slot": "3",
								"type": "t_bool"
							},
							{
								"astId": 20,
								"contract": "contracts/Multi_Sign_Wallet.sol:MultiSignWallet",
								"label": "signatureCount",
								"offset": 1,
								"slot": "3",
								"type": "t_uint8"
							}
						],
						"numberOfBytes": "128"
					},
					"t_uint256": {
						"encoding": "inplace",
						"label": "uint256",
						"numberOfBytes": "32"
					},
					"t_uint8": {
						"encoding": "inplace",
						"label": "uint8",
						"numberOfBytes": "1"
					}
				}
			},
			"userdoc": {
				"kind": "user",
				"methods": {},
				"version": 1
			}
		}
	}
}