{
	"contracts/Multi_Sign_Wallet.sol": {
		"MultiSignWallet": {
			"abi": [
				{
					"inputs": [],
					"stateMutability": "nonpayable",
					"type": "constructor"
				},
				{
					"anonymous": false,
					"inputs": [
						{
							"indexed": false,
							"internalType": "address",
							"name": "_from",
							"type": "address"
						},
						{
							"indexed": false,
							"internalType": "uint256",
							"name": "amount",
							"type": "uint256"
						}
					],
					"name": "DepositFunds",
					"type": "event"
				},
				{
					"anonymous": false,
					"inputs": [
						{
							"indexed": false,
							"internalType": "address",
							"name": "_from",
							"type": "address"
						},
						{
							"indexed": false,
							"internalType": "address",
							"name": "_to",
							"type": "address"
						},
						{
							"indexed": false,
							"internalType": "uint256",
							"name": "amount",
							"type": "uint256"
						},
						{
							"indexed": false,
							"internalType": "uint256",
							"name": "transactionId",
							"type": "uint256"
						}
					],
					"name": "TransactionCompleted",
					"type": "event"
				},
				{
					"anonymous": false,
					"inputs": [
						{
							"indexed": false,
							"internalType": "address",
							"name": "_from",
							"type": "address"
						},
						{
							"indexed": false,
							"internalType": "address",
							"name": "_to",
							"type": "address"
						},
						{
							"indexed": false,
							"internalType": "uint256",
							"name": "amount",
							"type": "uint256"
						},
						{
							"indexed": false,
							"internalType": "uint256",
							"name": "transactionId",
							"type": "uint256"
						}
					],
					"name": "TransactionCreated",
					"type": "event"
				},
				{
					"anonymous": false,
					"inputs": [
						{
							"indexed": false,
							"internalType": "address",
							"name": "_by",
							"type": "address"
						},
						{
							"indexed": false,
							"internalType": "uint256",
							"name": "transactionId",
							"type": "uint256"
						}
					],
					"name": "TransactionSigned",
					"type": "event"
				},
				{
					"inputs": [
						{
							"internalType": "address",
							"name": "owner",
							"type": "address"
						}
					],
					"name": "addOwner",
					"outputs": [],
					"stateMutability": "nonpayable",
					"type": "function"
				},
				{
					"inputs": [],
					"name": "deposite",
					"outputs": [],
					"stateMutability": "payable",
					"type": "function"
				},
				{
					"inputs": [],
					"name": "getPendingTransactions",
					"outputs": [
						{
							"internalType": "uint256[]",
							"name": "",
							"type": "uint256[]"
						}
					],
					"stateMutability": "view",
					"type": "function"
				},
				{
					"inputs": [
						{
							"internalType": "uint256",
							"name": "_id",
							"type": "uint256"
						}
					],
					"name": "getTransaction",
					"outputs": [
						{
							"components": [
								{
									"internalType": "address payable",
									"name": "sender",
									"type": "address"
								},
								{
									"internalType": "address payable",
									"name": "reciever",
									"type": "address"
								},
								{
									"internalType": "uint256",
									"name": "amount",
									"type": "uint256"
								},
								{
									"internalType": "bool",
									"name": "isSigned",
									"type": "bool"
								},
								{
									"internalType": "uint8",
									"name": "signatureCount",
									"type": "uint8"
								}
							],
							"internalType": "struct MultiSignWallet.Transaction",
							"name": "",
							"type": "tuple"
						}
					],
					"stateMutability": "view",
					"type": "function"
				},
				{
					"inputs": [
						{
							"internalType": "address",
							"name": "owner",
							"type": "address"
						}
					],
					"name": "removeOwner",
					"outputs": [],
					"stateMutability": "nonpayable",
					"type": "function"
				},
				{
					"inputs": [
						{
							"internalType": "address payable",
							"name": "_reciever",
							"type": "address"
						},
						{
							"internalType": "uint256",
							"name": "_amount",
							"type": "uint256"
						}
					],
					"name": "transferTo",
					"outputs": [],
					"stateMutability": "nonpayable",
					"type": "function"
				},
				{
					"inputs": [
						{
							"internalType": "uint256",
							"name": "amount",
							"type": "uint256"
						}
					],
					"name": "withDraw",
					"outputs": [],
					"stateMutability": "nonpayable",
					"type": "function"
				}
			],
			"devdoc": {
				"kind": "dev",
				"methods": {},
				"version": 1
			},
			"evm": {
				"assembly": "    /* \"contracts/Multi_Sign_Wallet.sol\":25:3069  contract MultiSignWallet {\r... */\n  mstore(0x40, 0x80)\n    /* \"contracts/Multi_Sign_Wallet.sol\":1732:1784  constructor() {\r... */\n  callvalue\n  dup1\n  iszero\n  tag_1\n  jumpi\n  0x00\n  dup1\n  revert\ntag_1:\n  pop\n    /* \"contracts/Multi_Sign_Wallet.sol\":1766:1776  msg.sender */\n  caller\n    /* \"contracts/Multi_Sign_Wallet.sol\":1757:1763  _owner */\n  0x00\n  dup1\n    /* \"contracts/Multi_Sign_Wallet.sol\":1757:1776  _owner = msg.sender */\n  0x0100\n  exp\n  dup2\n  sload\n  dup2\n  0xffffffffffffffffffffffffffffffffffffffff\n  mul\n  not\n  and\n  swap1\n  dup4\n  0xffffffffffffffffffffffffffffffffffffffff\n  and\n  mul\n  or\n  swap1\n  sstore\n  pop\n    /* \"contracts/Multi_Sign_Wallet.sol\":25:3069  contract MultiSignWallet {\r... */\n  dataSize(sub_0)\n  dup1\n  dataOffset(sub_0)\n  0x00\n  codecopy\n  0x00\n  return\nstop\n\nsub_0: assembly {\n        /* \"contracts/Multi_Sign_Wallet.sol\":25:3069  contract MultiSignWallet {\r... */\n      mstore(0x40, 0x80)\n      jumpi(tag_1, lt(calldatasize, 0x04))\n      shr(0xe0, calldataload(0x00))\n      dup1\n      0x33ea3dc8\n      gt\n      tag_9\n      jumpi\n      dup1\n      0x33ea3dc8\n      eq\n      tag_5\n      jumpi\n      dup1\n      0x7065cb48\n      eq\n      tag_6\n      jumpi\n      dup1\n      0xa50ec326\n      eq\n      tag_7\n      jumpi\n      dup1\n      0xd11db83f\n      eq\n      tag_8\n      jumpi\n      jump(tag_1)\n    tag_9:\n      dup1\n      0x14174f33\n      eq\n      tag_2\n      jumpi\n      dup1\n      0x173825d9\n      eq\n      tag_3\n      jumpi\n      dup1\n      0x2ccb1b30\n      eq\n      tag_4\n      jumpi\n    tag_1:\n      0x00\n      dup1\n      revert\n        /* \"contracts/Multi_Sign_Wallet.sol\":2079:2174  function withDraw(uint amount) public {\r... */\n    tag_2:\n      callvalue\n      dup1\n      iszero\n      tag_10\n      jumpi\n      0x00\n      dup1\n      revert\n    tag_10:\n      pop\n      tag_11\n      0x04\n      dup1\n      calldatasize\n      sub\n      dup2\n      add\n      swap1\n      tag_12\n      swap2\n      swap1\n      tag_13\n      jump\t// in\n    tag_12:\n      tag_14\n      jump\t// in\n    tag_11:\n      stop\n        /* \"contracts/Multi_Sign_Wallet.sol\":1884:1971  function removeOwner(address owner) public isOwner{\r... */\n    tag_3:\n      callvalue\n      dup1\n      iszero\n      tag_15\n      jumpi\n      0x00\n      dup1\n      revert\n    tag_15:\n      pop\n      tag_16\n      0x04\n      dup1\n      calldatasize\n      sub\n      dup2\n      add\n      swap1\n      tag_17\n      swap2\n      swap1\n      tag_18\n      jump\t// in\n    tag_17:\n      tag_19\n      jump\t// in\n    tag_16:\n      stop\n        /* \"contracts/Multi_Sign_Wallet.sol\":2182:2756  function transferTo(address payable _reciever,uint _amount) public validOwner{\r... */\n    tag_4:\n      callvalue\n      dup1\n      iszero\n      tag_20\n      jumpi\n      0x00\n      dup1\n      revert\n    tag_20:\n      pop\n      tag_21\n      0x04\n      dup1\n      calldatasize\n      sub\n      dup2\n      add\n      swap1\n      tag_22\n      swap2\n      swap1\n      tag_23\n      jump\t// in\n    tag_22:\n      tag_24\n      jump\t// in\n    tag_21:\n      stop\n        /* \"contracts/Multi_Sign_Wallet.sol\":2898:3066  function getTransaction(uint _id) public view validOwner returns(Transaction memory){\r... */\n    tag_5:\n      callvalue\n      dup1\n      iszero\n      tag_25\n      jumpi\n      0x00\n      dup1\n      revert\n    tag_25:\n      pop\n      tag_26\n      0x04\n      dup1\n      calldatasize\n      sub\n      dup2\n      add\n      swap1\n      tag_27\n      swap2\n      swap1\n      tag_13\n      jump\t// in\n    tag_27:\n      tag_28\n      jump\t// in\n    tag_26:\n      mload(0x40)\n      tag_29\n      swap2\n      swap1\n      tag_30\n      jump\t// in\n    tag_29:\n      mload(0x40)\n      dup1\n      swap2\n      sub\n      swap1\n      return\n        /* \"contracts/Multi_Sign_Wallet.sol\":1792:1876  function addOwner(address owner) public isOwner{\r... */\n    tag_6:\n      callvalue\n      dup1\n      iszero\n      tag_31\n      jumpi\n      0x00\n      dup1\n      revert\n    tag_31:\n      pop\n      tag_32\n      0x04\n      dup1\n      calldatasize\n      sub\n      dup2\n      add\n      swap1\n      tag_33\n      swap2\n      swap1\n      tag_18\n      jump\t// in\n    tag_33:\n      tag_34\n      jump\t// in\n    tag_32:\n      stop\n        /* \"contracts/Multi_Sign_Wallet.sol\":1979:2071  function deposite() public payable{\r... */\n    tag_7:\n      tag_35\n      tag_36\n      jump\t// in\n    tag_35:\n      stop\n        /* \"contracts/Multi_Sign_Wallet.sol\":2764:2890  function getPendingTransactions() public view validOwner returns(uint[] memory) {\r... */\n    tag_8:\n      callvalue\n      dup1\n      iszero\n      tag_37\n      jumpi\n      0x00\n      dup1\n      revert\n    tag_37:\n      pop\n      tag_38\n      tag_39\n      jump\t// in\n    tag_38:\n      mload(0x40)\n      tag_40\n      swap2\n      swap1\n      tag_41\n      jump\t// in\n    tag_40:\n      mload(0x40)\n      dup1\n      swap2\n      sub\n      swap1\n      return\n        /* \"contracts/Multi_Sign_Wallet.sol\":2079:2174  function withDraw(uint amount) public {\r... */\n    tag_14:\n        /* \"contracts/Multi_Sign_Wallet.sol\":2128:2166  transferTo(payable(msg.sender),amount) */\n      tag_43\n        /* \"contracts/Multi_Sign_Wallet.sol\":2147:2157  msg.sender */\n      caller\n        /* \"contracts/Multi_Sign_Wallet.sol\":2159:2165  amount */\n      dup3\n        /* \"contracts/Multi_Sign_Wallet.sol\":2128:2138  transferTo */\n      tag_24\n        /* \"contracts/Multi_Sign_Wallet.sol\":2128:2166  transferTo(payable(msg.sender),amount) */\n      jump\t// in\n    tag_43:\n        /* \"contracts/Multi_Sign_Wallet.sol\":2079:2174  function withDraw(uint amount) public {\r... */\n      pop\n      jump\t// out\n        /* \"contracts/Multi_Sign_Wallet.sol\":1884:1971  function removeOwner(address owner) public isOwner{\r... */\n    tag_19:\n        /* \"contracts/Multi_Sign_Wallet.sol\":1477:1483  _owner */\n      0x00\n      dup1\n      sload\n      swap1\n      0x0100\n      exp\n      swap1\n      div\n      0xffffffffffffffffffffffffffffffffffffffff\n      and\n        /* \"contracts/Multi_Sign_Wallet.sol\":1465:1483  msg.sender==_owner */\n      0xffffffffffffffffffffffffffffffffffffffff\n      and\n        /* \"contracts/Multi_Sign_Wallet.sol\":1465:1475  msg.sender */\n      caller\n        /* \"contracts/Multi_Sign_Wallet.sol\":1465:1483  msg.sender==_owner */\n      0xffffffffffffffffffffffffffffffffffffffff\n      and\n      eq\n        /* \"contracts/Multi_Sign_Wallet.sol\":1457:1484  require(msg.sender==_owner) */\n      tag_45\n      jumpi\n      0x00\n      dup1\n      revert\n    tag_45:\n        /* \"contracts/Multi_Sign_Wallet.sol\":1962:1963  0 */\n      0x00\n        /* \"contracts/Multi_Sign_Wallet.sol\":1945:1952  _owners */\n      0x01\n        /* \"contracts/Multi_Sign_Wallet.sol\":1945:1959  _owners[owner] */\n      0x00\n        /* \"contracts/Multi_Sign_Wallet.sol\":1953:1958  owner */\n      dup4\n        /* \"contracts/Multi_Sign_Wallet.sol\":1945:1959  _owners[owner] */\n      0xffffffffffffffffffffffffffffffffffffffff\n      and\n      0xffffffffffffffffffffffffffffffffffffffff\n      and\n      dup2\n      mstore\n      0x20\n      add\n      swap1\n      dup2\n      mstore\n      0x20\n      add\n      0x00\n      keccak256\n      0x00\n        /* \"contracts/Multi_Sign_Wallet.sol\":1945:1963  _owners[owner] = 0 */\n      0x0100\n      exp\n      dup2\n      sload\n      dup2\n      0xff\n      mul\n      not\n      and\n      swap1\n      dup4\n      0xff\n      and\n      mul\n      or\n      swap1\n      sstore\n      pop\n        /* \"contracts/Multi_Sign_Wallet.sol\":1884:1971  function removeOwner(address owner) public isOwner{\r... */\n      pop\n      jump\t// out\n        /* \"contracts/Multi_Sign_Wallet.sol\":2182:2756  function transferTo(address payable _reciever,uint _amount) public validOwner{\r... */\n    tag_24:\n        /* \"contracts/Multi_Sign_Wallet.sol\":1642:1648  _owner */\n      0x00\n      dup1\n      sload\n      swap1\n      0x0100\n      exp\n      swap1\n      div\n      0xffffffffffffffffffffffffffffffffffffffff\n      and\n        /* \"contracts/Multi_Sign_Wallet.sol\":1628:1648  msg.sender == _owner */\n      0xffffffffffffffffffffffffffffffffffffffff\n      and\n        /* \"contracts/Multi_Sign_Wallet.sol\":1628:1638  msg.sender */\n      caller\n        /* \"contracts/Multi_Sign_Wallet.sol\":1628:1648  msg.sender == _owner */\n      0xffffffffffffffffffffffffffffffffffffffff\n      and\n      eq\n        /* \"contracts/Multi_Sign_Wallet.sol\":1628:1676  msg.sender == _owner || _owners[msg.sender] == 1 */\n      dup1\n      tag_48\n      jumpi\n      pop\n        /* \"contracts/Multi_Sign_Wallet.sol\":1675:1676  1 */\n      0x01\n        /* \"contracts/Multi_Sign_Wallet.sol\":1652:1659  _owners */\n      dup1\n        /* \"contracts/Multi_Sign_Wallet.sol\":1652:1671  _owners[msg.sender] */\n      0x00\n        /* \"contracts/Multi_Sign_Wallet.sol\":1660:1670  msg.sender */\n      caller\n        /* \"contracts/Multi_Sign_Wallet.sol\":1652:1671  _owners[msg.sender] */\n      0xffffffffffffffffffffffffffffffffffffffff\n      and\n      0xffffffffffffffffffffffffffffffffffffffff\n      and\n      dup2\n      mstore\n      0x20\n      add\n      swap1\n      dup2\n      mstore\n      0x20\n      add\n      0x00\n      keccak256\n      0x00\n      swap1\n      sload\n      swap1\n      0x0100\n      exp\n      swap1\n      div\n      0xff\n      and\n        /* \"contracts/Multi_Sign_Wallet.sol\":1652:1676  _owners[msg.sender] == 1 */\n      0xff\n      and\n      eq\n        /* \"contracts/Multi_Sign_Wallet.sol\":1628:1676  msg.sender == _owner || _owners[msg.sender] == 1 */\n    tag_48:\n        /* \"contracts/Multi_Sign_Wallet.sol\":1619:1677  require (msg.sender == _owner || _owners[msg.sender] == 1) */\n      tag_49\n      jumpi\n      0x00\n      dup1\n      revert\n    tag_49:\n        /* \"contracts/Multi_Sign_Wallet.sol\":2303:2310  _amount */\n      dup1\n        /* \"contracts/Multi_Sign_Wallet.sol\":2278:2299  address(this).balance */\n      selfbalance\n        /* \"contracts/Multi_Sign_Wallet.sol\":2278:2310  address(this).balance >= _amount */\n      lt\n      iszero\n        /* \"contracts/Multi_Sign_Wallet.sol\":2270:2333  require(address(this).balance >= _amount ,  \"Not Enough Money\") */\n      tag_51\n      jumpi\n      mload(0x40)\n      0x08c379a000000000000000000000000000000000000000000000000000000000\n      dup2\n      mstore\n      0x04\n      add\n      tag_52\n      swap1\n      tag_53\n      jump\t// in\n    tag_52:\n      mload(0x40)\n      dup1\n      swap2\n      sub\n      swap1\n      revert\n    tag_51:\n        /* \"contracts/Multi_Sign_Wallet.sol\":2344:2357  _transactions */\n      0x02\n        /* \"contracts/Multi_Sign_Wallet.sol\":2363:2602  Transaction(\r... */\n      mload(0x40)\n      dup1\n      0xa0\n      add\n      0x40\n      mstore\n      dup1\n        /* \"contracts/Multi_Sign_Wallet.sol\":2423:2433  msg.sender */\n      caller\n        /* \"contracts/Multi_Sign_Wallet.sol\":2363:2602  Transaction(\r... */\n      0xffffffffffffffffffffffffffffffffffffffff\n      and\n      dup2\n      mstore\n      0x20\n      add\n        /* \"contracts/Multi_Sign_Wallet.sol\":2463:2472  _reciever */\n      dup5\n        /* \"contracts/Multi_Sign_Wallet.sol\":2363:2602  Transaction(\r... */\n      0xffffffffffffffffffffffffffffffffffffffff\n      and\n      dup2\n      mstore\n      0x20\n      add\n        /* \"contracts/Multi_Sign_Wallet.sol\":2499:2506  _amount */\n      dup4\n        /* \"contracts/Multi_Sign_Wallet.sol\":2363:2602  Transaction(\r... */\n      dup2\n      mstore\n      0x20\n      add\n        /* \"contracts/Multi_Sign_Wallet.sol\":2535:2540  false */\n      0x00\n        /* \"contracts/Multi_Sign_Wallet.sol\":2363:2602  Transaction(\r... */\n      iszero\n      iszero\n      dup2\n      mstore\n      0x20\n      add\n        /* \"contracts/Multi_Sign_Wallet.sol\":2575:2576  0 */\n      0x00\n        /* \"contracts/Multi_Sign_Wallet.sol\":2363:2602  Transaction(\r... */\n      0xff\n      and\n      dup2\n      mstore\n      pop\n        /* \"contracts/Multi_Sign_Wallet.sol\":2344:2603  _transactions.push(Transaction(\r... */\n      swap1\n      dup1\n      0x01\n      dup2\n      sload\n      add\n      dup1\n      dup3\n      sstore\n      dup1\n      swap2\n      pop\n      pop\n      0x01\n      swap1\n      sub\n      swap1\n      0x00\n      mstore\n      keccak256(0x00, 0x20)\n      swap1\n      0x04\n      mul\n      add\n      0x00\n      swap1\n      swap2\n      swap1\n      swap2\n      swap1\n      swap2\n      pop\n      0x00\n      dup3\n      add\n      mload\n      dup2\n      0x00\n      add\n      exp(0x0100, 0x00)\n      dup2\n      sload\n      dup2\n      0xffffffffffffffffffffffffffffffffffffffff\n      mul\n      not\n      and\n      swap1\n      dup4\n      0xffffffffffffffffffffffffffffffffffffffff\n      and\n      mul\n      or\n      swap1\n      sstore\n      pop\n      0x20\n      dup3\n      add\n      mload\n      dup2\n      0x01\n      add\n      exp(0x0100, 0x00)\n      dup2\n      sload\n      dup2\n      0xffffffffffffffffffffffffffffffffffffffff\n      mul\n      not\n      and\n      swap1\n      dup4\n      0xffffffffffffffffffffffffffffffffffffffff\n      and\n      mul\n      or\n      swap1\n      sstore\n      pop\n      0x40\n      dup3\n      add\n      mload\n      dup2\n      0x02\n      add\n      sstore\n      0x60\n      dup3\n      add\n      mload\n      dup2\n      0x03\n      add\n      exp(0x0100, 0x00)\n      dup2\n      sload\n      dup2\n      0xff\n      mul\n      not\n      and\n      swap1\n      dup4\n      iszero\n      iszero\n      mul\n      or\n      swap1\n      sstore\n      pop\n      0x80\n      dup3\n      add\n      mload\n      dup2\n      0x03\n      add\n      exp(0x0100, 0x01)\n      dup2\n      sload\n      dup2\n      0xff\n      mul\n      not\n      and\n      swap1\n      dup4\n      0xff\n      and\n      mul\n      or\n      swap1\n      sstore\n      pop\n      pop\n      pop\n        /* \"contracts/Multi_Sign_Wallet.sol\":2616:2636  _pendingTransactions */\n      0x04\n        /* \"contracts/Multi_Sign_Wallet.sol\":2642:2655  _transactions */\n      0x02\n        /* \"contracts/Multi_Sign_Wallet.sol\":2642:2662  _transactions.length */\n      dup1\n      sload\n      swap1\n      pop\n        /* \"contracts/Multi_Sign_Wallet.sol\":2616:2663  _pendingTransactions.push(_transactions.length) */\n      swap1\n      dup1\n      0x01\n      dup2\n      sload\n      add\n      dup1\n      dup3\n      sstore\n      dup1\n      swap2\n      pop\n      pop\n      0x01\n      swap1\n      sub\n      swap1\n      0x00\n      mstore\n      keccak256(0x00, 0x20)\n      add\n      0x00\n      swap1\n      swap2\n      swap1\n      swap2\n      swap1\n      swap2\n      pop\n      sstore\n        /* \"contracts/Multi_Sign_Wallet.sol\":2679:2748  TransactionCreated(msg.sender,_reciever,_amount,_transactions.length) */\n      0x41d8c89c4a25824354aa1f198d80d06f2f93f903a2d180d1ea20429a4678c4a4\n        /* \"contracts/Multi_Sign_Wallet.sol\":2698:2708  msg.sender */\n      caller\n        /* \"contracts/Multi_Sign_Wallet.sol\":2709:2718  _reciever */\n      dup4\n        /* \"contracts/Multi_Sign_Wallet.sol\":2719:2726  _amount */\n      dup4\n        /* \"contracts/Multi_Sign_Wallet.sol\":2727:2740  _transactions */\n      0x02\n        /* \"contracts/Multi_Sign_Wallet.sol\":2727:2747  _transactions.length */\n      dup1\n      sload\n      swap1\n      pop\n        /* \"contracts/Multi_Sign_Wallet.sol\":2679:2748  TransactionCreated(msg.sender,_reciever,_amount,_transactions.length) */\n      mload(0x40)\n      tag_56\n      swap5\n      swap4\n      swap3\n      swap2\n      swap1\n      tag_57\n      jump\t// in\n    tag_56:\n      mload(0x40)\n      dup1\n      swap2\n      sub\n      swap1\n      log1\n        /* \"contracts/Multi_Sign_Wallet.sol\":2182:2756  function transferTo(address payable _reciever,uint _amount) public validOwner{\r... */\n      pop\n      pop\n      jump\t// out\n        /* \"contracts/Multi_Sign_Wallet.sol\":2898:3066  function getTransaction(uint _id) public view validOwner returns(Transaction memory){\r... */\n    tag_28:\n        /* \"contracts/Multi_Sign_Wallet.sol\":2963:2981  Transaction memory */\n      tag_58\n      tag_59\n      jump\t// in\n    tag_58:\n        /* \"contracts/Multi_Sign_Wallet.sol\":1642:1648  _owner */\n      0x00\n      dup1\n      sload\n      swap1\n      0x0100\n      exp\n      swap1\n      div\n      0xffffffffffffffffffffffffffffffffffffffff\n      and\n        /* \"contracts/Multi_Sign_Wallet.sol\":1628:1648  msg.sender == _owner */\n      0xffffffffffffffffffffffffffffffffffffffff\n      and\n        /* \"contracts/Multi_Sign_Wallet.sol\":1628:1638  msg.sender */\n      caller\n        /* \"contracts/Multi_Sign_Wallet.sol\":1628:1648  msg.sender == _owner */\n      0xffffffffffffffffffffffffffffffffffffffff\n      and\n      eq\n        /* \"contracts/Multi_Sign_Wallet.sol\":1628:1676  msg.sender == _owner || _owners[msg.sender] == 1 */\n      dup1\n      tag_61\n      jumpi\n      pop\n        /* \"contracts/Multi_Sign_Wallet.sol\":1675:1676  1 */\n      0x01\n        /* \"contracts/Multi_Sign_Wallet.sol\":1652:1659  _owners */\n      dup1\n        /* \"contracts/Multi_Sign_Wallet.sol\":1652:1671  _owners[msg.sender] */\n      0x00\n        /* \"contracts/Multi_Sign_Wallet.sol\":1660:1670  msg.sender */\n      caller\n        /* \"contracts/Multi_Sign_Wallet.sol\":1652:1671  _owners[msg.sender] */\n      0xffffffffffffffffffffffffffffffffffffffff\n      and\n      0xffffffffffffffffffffffffffffffffffffffff\n      and\n      dup2\n      mstore\n      0x20\n      add\n      swap1\n      dup2\n      mstore\n      0x20\n      add\n      0x00\n      keccak256\n      0x00\n      swap1\n      sload\n      swap1\n      0x0100\n      exp\n      swap1\n      div\n      0xff\n      and\n        /* \"contracts/Multi_Sign_Wallet.sol\":1652:1676  _owners[msg.sender] == 1 */\n      0xff\n      and\n      eq\n        /* \"contracts/Multi_Sign_Wallet.sol\":1628:1676  msg.sender == _owner || _owners[msg.sender] == 1 */\n    tag_61:\n        /* \"contracts/Multi_Sign_Wallet.sol\":1619:1677  require (msg.sender == _owner || _owners[msg.sender] == 1) */\n      tag_62\n      jumpi\n      0x00\n      dup1\n      revert\n    tag_62:\n        /* \"contracts/Multi_Sign_Wallet.sol\":2993:3031  Transaction memory selectedTransaction */\n      0x00\n        /* \"contracts/Multi_Sign_Wallet.sol\":3034:3047  _transactions */\n      0x02\n        /* \"contracts/Multi_Sign_Wallet.sol\":3048:3051  _id */\n      dup4\n        /* \"contracts/Multi_Sign_Wallet.sol\":3034:3052  _transactions[_id] */\n      dup2\n      sload\n      dup2\n      lt\n      tag_64\n      jumpi\n      tag_65\n      tag_66\n      jump\t// in\n    tag_65:\n    tag_64:\n      swap1\n      0x00\n      mstore\n      keccak256(0x00, 0x20)\n      swap1\n      0x04\n      mul\n      add\n        /* \"contracts/Multi_Sign_Wallet.sol\":2993:3052  Transaction memory selectedTransaction = _transactions[_id] */\n      mload(0x40)\n      dup1\n      0xa0\n      add\n      0x40\n      mstore\n      swap1\n      dup2\n      0x00\n      dup3\n      add\n      0x00\n      swap1\n      sload\n      swap1\n      0x0100\n      exp\n      swap1\n      div\n      0xffffffffffffffffffffffffffffffffffffffff\n      and\n      0xffffffffffffffffffffffffffffffffffffffff\n      and\n      0xffffffffffffffffffffffffffffffffffffffff\n      and\n      dup2\n      mstore\n      0x20\n      add\n      0x01\n      dup3\n      add\n      0x00\n      swap1\n      sload\n      swap1\n      0x0100\n      exp\n      swap1\n      div\n      0xffffffffffffffffffffffffffffffffffffffff\n      and\n      0xffffffffffffffffffffffffffffffffffffffff\n      and\n      0xffffffffffffffffffffffffffffffffffffffff\n      and\n      dup2\n      mstore\n      0x20\n      add\n      0x02\n      dup3\n      add\n      sload\n      dup2\n      mstore\n      0x20\n      add\n      0x03\n      dup3\n      add\n      0x00\n      swap1\n      sload\n      swap1\n      0x0100\n      exp\n      swap1\n      div\n      0xff\n      and\n      iszero\n      iszero\n      iszero\n      iszero\n      dup2\n      mstore\n      0x20\n      add\n      0x03\n      dup3\n      add\n      0x01\n      swap1\n      sload\n      swap1\n      0x0100\n      exp\n      swap1\n      div\n      0xff\n      and\n      0xff\n      and\n      0xff\n      and\n      dup2\n      mstore\n      pop\n      pop\n      swap1\n      pop\n        /* \"contracts/Multi_Sign_Wallet.sol\":2982:3066  {\r... */\n      pop\n        /* \"contracts/Multi_Sign_Wallet.sol\":2898:3066  function getTransaction(uint _id) public view validOwner returns(Transaction memory){\r... */\n      swap2\n      swap1\n      pop\n      jump\t// out\n        /* \"contracts/Multi_Sign_Wallet.sol\":1792:1876  function addOwner(address owner) public isOwner{\r... */\n    tag_34:\n        /* \"contracts/Multi_Sign_Wallet.sol\":1477:1483  _owner */\n      0x00\n      dup1\n      sload\n      swap1\n      0x0100\n      exp\n      swap1\n      div\n      0xffffffffffffffffffffffffffffffffffffffff\n      and\n        /* \"contracts/Multi_Sign_Wallet.sol\":1465:1483  msg.sender==_owner */\n      0xffffffffffffffffffffffffffffffffffffffff\n      and\n        /* \"contracts/Multi_Sign_Wallet.sol\":1465:1475  msg.sender */\n      caller\n        /* \"contracts/Multi_Sign_Wallet.sol\":1465:1483  msg.sender==_owner */\n      0xffffffffffffffffffffffffffffffffffffffff\n      and\n      eq\n        /* \"contracts/Multi_Sign_Wallet.sol\":1457:1484  require(msg.sender==_owner) */\n      tag_69\n      jumpi\n      0x00\n      dup1\n      revert\n    tag_69:\n        /* \"contracts/Multi_Sign_Wallet.sol\":1867:1868  1 */\n      0x01\n        /* \"contracts/Multi_Sign_Wallet.sol\":1850:1857  _owners */\n      dup1\n        /* \"contracts/Multi_Sign_Wallet.sol\":1850:1864  _owners[owner] */\n      0x00\n        /* \"contracts/Multi_Sign_Wallet.sol\":1858:1863  owner */\n      dup4\n        /* \"contracts/Multi_Sign_Wallet.sol\":1850:1864  _owners[owner] */\n      0xffffffffffffffffffffffffffffffffffffffff\n      and\n      0xffffffffffffffffffffffffffffffffffffffff\n      and\n      dup2\n      mstore\n      0x20\n      add\n      swap1\n      dup2\n      mstore\n      0x20\n      add\n      0x00\n      keccak256\n      0x00\n        /* \"contracts/Multi_Sign_Wallet.sol\":1850:1868  _owners[owner] = 1 */\n      0x0100\n      exp\n      dup2\n      sload\n      dup2\n      0xff\n      mul\n      not\n      and\n      swap1\n      dup4\n      0xff\n      and\n      mul\n      or\n      swap1\n      sstore\n      pop\n        /* \"contracts/Multi_Sign_Wallet.sol\":1792:1876  function addOwner(address owner) public isOwner{\r... */\n      pop\n      jump\t// out\n        /* \"contracts/Multi_Sign_Wallet.sol\":1979:2071  function deposite() public payable{\r... */\n    tag_36:\n        /* \"contracts/Multi_Sign_Wallet.sol\":2029:2063  DepositFunds(msg.sender,msg.value) */\n      0xd241e73300212f6df233a8e6d3146b88a9d4964e06621d54b5ff6afeba7b1b88\n        /* \"contracts/Multi_Sign_Wallet.sol\":2042:2052  msg.sender */\n      caller\n        /* \"contracts/Multi_Sign_Wallet.sol\":2053:2062  msg.value */\n      callvalue\n        /* \"contracts/Multi_Sign_Wallet.sol\":2029:2063  DepositFunds(msg.sender,msg.value) */\n      mload(0x40)\n      tag_72\n      swap3\n      swap2\n      swap1\n      tag_73\n      jump\t// in\n    tag_72:\n      mload(0x40)\n      dup1\n      swap2\n      sub\n      swap1\n      log1\n        /* \"contracts/Multi_Sign_Wallet.sol\":1979:2071  function deposite() public payable{\r... */\n      jump\t// out\n        /* \"contracts/Multi_Sign_Wallet.sol\":2764:2890  function getPendingTransactions() public view validOwner returns(uint[] memory) {\r... */\n    tag_39:\n        /* \"contracts/Multi_Sign_Wallet.sol\":2829:2842  uint[] memory */\n      0x60\n        /* \"contracts/Multi_Sign_Wallet.sol\":1642:1648  _owner */\n      0x00\n      dup1\n      sload\n      swap1\n      0x0100\n      exp\n      swap1\n      div\n      0xffffffffffffffffffffffffffffffffffffffff\n      and\n        /* \"contracts/Multi_Sign_Wallet.sol\":1628:1648  msg.sender == _owner */\n      0xffffffffffffffffffffffffffffffffffffffff\n      and\n        /* \"contracts/Multi_Sign_Wallet.sol\":1628:1638  msg.sender */\n      caller\n        /* \"contracts/Multi_Sign_Wallet.sol\":1628:1648  msg.sender == _owner */\n      0xffffffffffffffffffffffffffffffffffffffff\n      and\n      eq\n        /* \"contracts/Multi_Sign_Wallet.sol\":1628:1676  msg.sender == _owner || _owners[msg.sender] == 1 */\n      dup1\n      tag_75\n      jumpi\n      pop\n        /* \"contracts/Multi_Sign_Wallet.sol\":1675:1676  1 */\n      0x01\n        /* \"contracts/Multi_Sign_Wallet.sol\":1652:1659  _owners */\n      dup1\n        /* \"contracts/Multi_Sign_Wallet.sol\":1652:1671  _owners[msg.sender] */\n      0x00\n        /* \"contracts/Multi_Sign_Wallet.sol\":1660:1670  msg.sender */\n      caller\n        /* \"contracts/Multi_Sign_Wallet.sol\":1652:1671  _owners[msg.sender] */\n      0xffffffffffffffffffffffffffffffffffffffff\n      and\n      0xffffffffffffffffffffffffffffffffffffffff\n      and\n      dup2\n      mstore\n      0x20\n      add\n      swap1\n      dup2\n      mstore\n      0x20\n      add\n      0x00\n      keccak256\n      0x00\n      swap1\n      sload\n      swap1\n      0x0100\n      exp\n      swap1\n      div\n      0xff\n      and\n        /* \"contracts/Multi_Sign_Wallet.sol\":1652:1676  _owners[msg.sender] == 1 */\n      0xff\n      and\n      eq\n        /* \"contracts/Multi_Sign_Wallet.sol\":1628:1676  msg.sender == _owner || _owners[msg.sender] == 1 */\n    tag_75:\n        /* \"contracts/Multi_Sign_Wallet.sol\":1619:1677  require (msg.sender == _owner || _owners[msg.sender] == 1) */\n      tag_76\n      jumpi\n      0x00\n      dup1\n      revert\n    tag_76:\n        /* \"contracts/Multi_Sign_Wallet.sol\":2862:2882  _pendingTransactions */\n      0x04\n        /* \"contracts/Multi_Sign_Wallet.sol\":2855:2882  return _pendingTransactions */\n      dup1\n      sload\n      dup1\n      0x20\n      mul\n      0x20\n      add\n      mload(0x40)\n      swap1\n      dup2\n      add\n      0x40\n      mstore\n      dup1\n      swap3\n      swap2\n      swap1\n      dup2\n      dup2\n      mstore\n      0x20\n      add\n      dup3\n      dup1\n      sload\n      dup1\n      iszero\n      tag_78\n      jumpi\n      0x20\n      mul\n      dup3\n      add\n      swap2\n      swap1\n      0x00\n      mstore\n      keccak256(0x00, 0x20)\n      swap1\n    tag_79:\n      dup2\n      sload\n      dup2\n      mstore\n      0x20\n      add\n      swap1\n      0x01\n      add\n      swap1\n      dup1\n      dup4\n      gt\n      tag_79\n      jumpi\n    tag_78:\n      pop\n      pop\n      pop\n      pop\n      pop\n      swap1\n      pop\n        /* \"contracts/Multi_Sign_Wallet.sol\":2764:2890  function getPendingTransactions() public view validOwner returns(uint[] memory) {\r... */\n      swap1\n      jump\t// out\n    tag_59:\n      mload(0x40)\n      dup1\n      0xa0\n      add\n      0x40\n      mstore\n      dup1\n      and(0xffffffffffffffffffffffffffffffffffffffff, 0x00)\n      dup2\n      mstore\n      0x20\n      add\n      and(0xffffffffffffffffffffffffffffffffffffffff, 0x00)\n      dup2\n      mstore\n      0x20\n      add\n      0x00\n      dup2\n      mstore\n      0x20\n      add\n      iszero(iszero(0x00))\n      dup2\n      mstore\n      0x20\n      add\n      and(0xff, 0x00)\n      dup2\n      mstore\n      pop\n      swap1\n      jump\t// out\n        /* \"#utility.yul\":7:146   */\n    tag_81:\n        /* \"#utility.yul\":53:58   */\n      0x00\n        /* \"#utility.yul\":91:97   */\n      dup2\n        /* \"#utility.yul\":78:98   */\n      calldataload\n        /* \"#utility.yul\":69:98   */\n      swap1\n      pop\n        /* \"#utility.yul\":107:140   */\n      tag_83\n        /* \"#utility.yul\":134:139   */\n      dup2\n        /* \"#utility.yul\":107:140   */\n      tag_84\n      jump\t// in\n    tag_83:\n        /* \"#utility.yul\":7:146   */\n      swap3\n      swap2\n      pop\n      pop\n      jump\t// out\n        /* \"#utility.yul\":152:307   */\n    tag_85:\n        /* \"#utility.yul\":206:211   */\n      0x00\n        /* \"#utility.yul\":244:250   */\n      dup2\n        /* \"#utility.yul\":231:251   */\n      calldataload\n        /* \"#utility.yul\":222:251   */\n      swap1\n      pop\n        /* \"#utility.yul\":260:301   */\n      tag_87\n        /* \"#utility.yul\":295:300   */\n      dup2\n        /* \"#utility.yul\":260:301   */\n      tag_88\n      jump\t// in\n    tag_87:\n        /* \"#utility.yul\":152:307   */\n      swap3\n      swap2\n      pop\n      pop\n      jump\t// out\n        /* \"#utility.yul\":313:452   */\n    tag_89:\n        /* \"#utility.yul\":359:364   */\n      0x00\n        /* \"#utility.yul\":397:403   */\n      dup2\n        /* \"#utility.yul\":384:404   */\n      calldataload\n        /* \"#utility.yul\":375:404   */\n      swap1\n      pop\n        /* \"#utility.yul\":413:446   */\n      tag_91\n        /* \"#utility.yul\":440:445   */\n      dup2\n        /* \"#utility.yul\":413:446   */\n      tag_92\n      jump\t// in\n    tag_91:\n        /* \"#utility.yul\":313:452   */\n      swap3\n      swap2\n      pop\n      pop\n      jump\t// out\n        /* \"#utility.yul\":458:787   */\n    tag_18:\n        /* \"#utility.yul\":517:523   */\n      0x00\n        /* \"#utility.yul\":566:568   */\n      0x20\n        /* \"#utility.yul\":554:563   */\n      dup3\n        /* \"#utility.yul\":545:552   */\n      dup5\n        /* \"#utility.yul\":541:564   */\n      sub\n        /* \"#utility.yul\":537:569   */\n      slt\n        /* \"#utility.yul\":534:653   */\n      iszero\n      tag_94\n      jumpi\n        /* \"#utility.yul\":572:651   */\n      tag_95\n      tag_96\n      jump\t// in\n    tag_95:\n        /* \"#utility.yul\":534:653   */\n    tag_94:\n        /* \"#utility.yul\":692:693   */\n      0x00\n        /* \"#utility.yul\":717:770   */\n      tag_97\n        /* \"#utility.yul\":762:769   */\n      dup5\n        /* \"#utility.yul\":753:759   */\n      dup3\n        /* \"#utility.yul\":742:751   */\n      dup6\n        /* \"#utility.yul\":738:760   */\n      add\n        /* \"#utility.yul\":717:770   */\n      tag_81\n      jump\t// in\n    tag_97:\n        /* \"#utility.yul\":707:770   */\n      swap2\n      pop\n        /* \"#utility.yul\":663:780   */\n      pop\n        /* \"#utility.yul\":458:787   */\n      swap3\n      swap2\n      pop\n      pop\n      jump\t// out\n        /* \"#utility.yul\":793:1283   */\n    tag_23:\n        /* \"#utility.yul\":869:875   */\n      0x00\n        /* \"#utility.yul\":877:883   */\n      dup1\n        /* \"#utility.yul\":926:928   */\n      0x40\n        /* \"#utility.yul\":914:923   */\n      dup4\n        /* \"#utility.yul\":905:912   */\n      dup6\n        /* \"#utility.yul\":901:924   */\n      sub\n        /* \"#utility.yul\":897:929   */\n      slt\n        /* \"#utility.yul\":894:1013   */\n      iszero\n      tag_99\n      jumpi\n        /* \"#utility.yul\":932:1011   */\n      tag_100\n      tag_96\n      jump\t// in\n    tag_100:\n        /* \"#utility.yul\":894:1013   */\n    tag_99:\n        /* \"#utility.yul\":1052:1053   */\n      0x00\n        /* \"#utility.yul\":1077:1138   */\n      tag_101\n        /* \"#utility.yul\":1130:1137   */\n      dup6\n        /* \"#utility.yul\":1121:1127   */\n      dup3\n        /* \"#utility.yul\":1110:1119   */\n      dup7\n        /* \"#utility.yul\":1106:1128   */\n      add\n        /* \"#utility.yul\":1077:1138   */\n      tag_85\n      jump\t// in\n    tag_101:\n        /* \"#utility.yul\":1067:1138   */\n      swap3\n      pop\n        /* \"#utility.yul\":1023:1148   */\n      pop\n        /* \"#utility.yul\":1187:1189   */\n      0x20\n        /* \"#utility.yul\":1213:1266   */\n      tag_102\n        /* \"#utility.yul\":1258:1265   */\n      dup6\n        /* \"#utility.yul\":1249:1255   */\n      dup3\n        /* \"#utility.yul\":1238:1247   */\n      dup7\n        /* \"#utility.yul\":1234:1256   */\n      add\n        /* \"#utility.yul\":1213:1266   */\n      tag_89\n      jump\t// in\n    tag_102:\n        /* \"#utility.yul\":1203:1266   */\n      swap2\n      pop\n        /* \"#utility.yul\":1158:1276   */\n      pop\n        /* \"#utility.yul\":793:1283   */\n      swap3\n      pop\n      swap3\n      swap1\n      pop\n      jump\t// out\n        /* \"#utility.yul\":1289:1618   */\n    tag_13:\n        /* \"#utility.yul\":1348:1354   */\n      0x00\n        /* \"#utility.yul\":1397:1399   */\n      0x20\n        /* \"#utility.yul\":1385:1394   */\n      dup3\n        /* \"#utility.yul\":1376:1383   */\n      dup5\n        /* \"#utility.yul\":1372:1395   */\n      sub\n        /* \"#utility.yul\":1368:1400   */\n      slt\n        /* \"#utility.yul\":1365:1484   */\n      iszero\n      tag_104\n      jumpi\n        /* \"#utility.yul\":1403:1482   */\n      tag_105\n      tag_96\n      jump\t// in\n    tag_105:\n        /* \"#utility.yul\":1365:1484   */\n    tag_104:\n        /* \"#utility.yul\":1523:1524   */\n      0x00\n        /* \"#utility.yul\":1548:1601   */\n      tag_106\n        /* \"#utility.yul\":1593:1600   */\n      dup5\n        /* \"#utility.yul\":1584:1590   */\n      dup3\n        /* \"#utility.yul\":1573:1582   */\n      dup6\n        /* \"#utility.yul\":1569:1591   */\n      add\n        /* \"#utility.yul\":1548:1601   */\n      tag_89\n      jump\t// in\n    tag_106:\n        /* \"#utility.yul\":1538:1601   */\n      swap2\n      pop\n        /* \"#utility.yul\":1494:1611   */\n      pop\n        /* \"#utility.yul\":1289:1618   */\n      swap3\n      swap2\n      pop\n      pop\n      jump\t// out\n        /* \"#utility.yul\":1624:1803   */\n    tag_107:\n        /* \"#utility.yul\":1693:1703   */\n      0x00\n        /* \"#utility.yul\":1714:1760   */\n      tag_109\n        /* \"#utility.yul\":1756:1759   */\n      dup4\n        /* \"#utility.yul\":1748:1754   */\n      dup4\n        /* \"#utility.yul\":1714:1760   */\n      tag_110\n      jump\t// in\n    tag_109:\n        /* \"#utility.yul\":1792:1796   */\n      0x20\n        /* \"#utility.yul\":1787:1790   */\n      dup4\n        /* \"#utility.yul\":1783:1797   */\n      add\n        /* \"#utility.yul\":1769:1797   */\n      swap1\n      pop\n        /* \"#utility.yul\":1624:1803   */\n      swap3\n      swap2\n      pop\n      pop\n      jump\t// out\n        /* \"#utility.yul\":1809:1956   */\n    tag_111:\n        /* \"#utility.yul\":1904:1949   */\n      tag_113\n        /* \"#utility.yul\":1943:1948   */\n      dup2\n        /* \"#utility.yul\":1904:1949   */\n      tag_114\n      jump\t// in\n    tag_113:\n        /* \"#utility.yul\":1899:1902   */\n      dup3\n        /* \"#utility.yul\":1892:1950   */\n      mstore\n        /* \"#utility.yul\":1809:1956   */\n      pop\n      pop\n      jump\t// out\n        /* \"#utility.yul\":1962:2094   */\n    tag_115:\n        /* \"#utility.yul\":2055:2087   */\n      tag_117\n        /* \"#utility.yul\":2081:2086   */\n      dup2\n        /* \"#utility.yul\":2055:2087   */\n      tag_118\n      jump\t// in\n    tag_117:\n        /* \"#utility.yul\":2050:2053   */\n      dup3\n        /* \"#utility.yul\":2043:2088   */\n      mstore\n        /* \"#utility.yul\":1962:2094   */\n      pop\n      pop\n      jump\t// out\n        /* \"#utility.yul\":2100:2218   */\n    tag_119:\n        /* \"#utility.yul\":2187:2211   */\n      tag_121\n        /* \"#utility.yul\":2205:2210   */\n      dup2\n        /* \"#utility.yul\":2187:2211   */\n      tag_122\n      jump\t// in\n    tag_121:\n        /* \"#utility.yul\":2182:2185   */\n      dup3\n        /* \"#utility.yul\":2175:2212   */\n      mstore\n        /* \"#utility.yul\":2100:2218   */\n      pop\n      pop\n      jump\t// out\n        /* \"#utility.yul\":2254:2986   */\n    tag_123:\n        /* \"#utility.yul\":2373:2376   */\n      0x00\n        /* \"#utility.yul\":2402:2456   */\n      tag_125\n        /* \"#utility.yul\":2450:2455   */\n      dup3\n        /* \"#utility.yul\":2402:2456   */\n      tag_126\n      jump\t// in\n    tag_125:\n        /* \"#utility.yul\":2472:2558   */\n      tag_127\n        /* \"#utility.yul\":2551:2557   */\n      dup2\n        /* \"#utility.yul\":2546:2549   */\n      dup6\n        /* \"#utility.yul\":2472:2558   */\n      tag_128\n      jump\t// in\n    tag_127:\n        /* \"#utility.yul\":2465:2558   */\n      swap4\n      pop\n        /* \"#utility.yul\":2582:2638   */\n      tag_129\n        /* \"#utility.yul\":2632:2637   */\n      dup4\n        /* \"#utility.yul\":2582:2638   */\n      tag_130\n      jump\t// in\n    tag_129:\n        /* \"#utility.yul\":2661:2668   */\n      dup1\n        /* \"#utility.yul\":2692:2693   */\n      0x00\n        /* \"#utility.yul\":2677:2961   */\n    tag_131:\n        /* \"#utility.yul\":2702:2708   */\n      dup4\n        /* \"#utility.yul\":2699:2700   */\n      dup2\n        /* \"#utility.yul\":2696:2709   */\n      lt\n        /* \"#utility.yul\":2677:2961   */\n      iszero\n      tag_133\n      jumpi\n        /* \"#utility.yul\":2778:2784   */\n      dup2\n        /* \"#utility.yul\":2772:2785   */\n      mload\n        /* \"#utility.yul\":2805:2868   */\n      tag_134\n        /* \"#utility.yul\":2864:2867   */\n      dup9\n        /* \"#utility.yul\":2849:2862   */\n      dup3\n        /* \"#utility.yul\":2805:2868   */\n      tag_107\n      jump\t// in\n    tag_134:\n        /* \"#utility.yul\":2798:2868   */\n      swap8\n      pop\n        /* \"#utility.yul\":2891:2951   */\n      tag_135\n        /* \"#utility.yul\":2944:2950   */\n      dup4\n        /* \"#utility.yul\":2891:2951   */\n      tag_136\n      jump\t// in\n    tag_135:\n        /* \"#utility.yul\":2881:2951   */\n      swap3\n      pop\n        /* \"#utility.yul\":2737:2961   */\n      pop\n        /* \"#utility.yul\":2724:2725   */\n      0x01\n        /* \"#utility.yul\":2721:2722   */\n      dup2\n        /* \"#utility.yul\":2717:2726   */\n      add\n        /* \"#utility.yul\":2712:2726   */\n      swap1\n      pop\n        /* \"#utility.yul\":2677:2961   */\n      jump(tag_131)\n    tag_133:\n        /* \"#utility.yul\":2681:2695   */\n      pop\n        /* \"#utility.yul\":2977:2980   */\n      dup6\n        /* \"#utility.yul\":2970:2980   */\n      swap4\n      pop\n        /* \"#utility.yul\":2378:2986   */\n      pop\n      pop\n      pop\n        /* \"#utility.yul\":2254:2986   */\n      swap3\n      swap2\n      pop\n      pop\n      jump\t// out\n        /* \"#utility.yul\":2992:3091   */\n    tag_137:\n        /* \"#utility.yul\":3063:3084   */\n      tag_139\n        /* \"#utility.yul\":3078:3083   */\n      dup2\n        /* \"#utility.yul\":3063:3084   */\n      tag_140\n      jump\t// in\n    tag_139:\n        /* \"#utility.yul\":3058:3061   */\n      dup3\n        /* \"#utility.yul\":3051:3085   */\n      mstore\n        /* \"#utility.yul\":2992:3091   */\n      pop\n      pop\n      jump\t// out\n        /* \"#utility.yul\":3097:3463   */\n    tag_141:\n        /* \"#utility.yul\":3239:3242   */\n      0x00\n        /* \"#utility.yul\":3260:3327   */\n      tag_143\n        /* \"#utility.yul\":3324:3326   */\n      0x10\n        /* \"#utility.yul\":3319:3322   */\n      dup4\n        /* \"#utility.yul\":3260:3327   */\n      tag_144\n      jump\t// in\n    tag_143:\n        /* \"#utility.yul\":3253:3327   */\n      swap2\n      pop\n        /* \"#utility.yul\":3336:3429   */\n      tag_145\n        /* \"#utility.yul\":3425:3428   */\n      dup3\n        /* \"#utility.yul\":3336:3429   */\n      tag_146\n      jump\t// in\n    tag_145:\n        /* \"#utility.yul\":3454:3456   */\n      0x20\n        /* \"#utility.yul\":3449:3452   */\n      dup3\n        /* \"#utility.yul\":3445:3457   */\n      add\n        /* \"#utility.yul\":3438:3457   */\n      swap1\n      pop\n        /* \"#utility.yul\":3097:3463   */\n      swap2\n      swap1\n      pop\n      jump\t// out\n        /* \"#utility.yul\":3549:4626   */\n    tag_147:\n        /* \"#utility.yul\":3700:3704   */\n      0xa0\n        /* \"#utility.yul\":3695:3698   */\n      dup3\n        /* \"#utility.yul\":3691:3705   */\n      add\n        /* \"#utility.yul\":3789:3793   */\n      0x00\n        /* \"#utility.yul\":3782:3787   */\n      dup3\n        /* \"#utility.yul\":3778:3794   */\n      add\n        /* \"#utility.yul\":3772:3795   */\n      mload\n        /* \"#utility.yul\":3808:3887   */\n      tag_149\n        /* \"#utility.yul\":3881:3885   */\n      0x00\n        /* \"#utility.yul\":3876:3879   */\n      dup6\n        /* \"#utility.yul\":3872:3886   */\n      add\n        /* \"#utility.yul\":3858:3870   */\n      dup3\n        /* \"#utility.yul\":3808:3887   */\n      tag_115\n      jump\t// in\n    tag_149:\n        /* \"#utility.yul\":3715:3897   */\n      pop\n        /* \"#utility.yul\":3983:3987   */\n      0x20\n        /* \"#utility.yul\":3976:3981   */\n      dup3\n        /* \"#utility.yul\":3972:3988   */\n      add\n        /* \"#utility.yul\":3966:3989   */\n      mload\n        /* \"#utility.yul\":4002:4081   */\n      tag_150\n        /* \"#utility.yul\":4075:4079   */\n      0x20\n        /* \"#utility.yul\":4070:4073   */\n      dup6\n        /* \"#utility.yul\":4066:4080   */\n      add\n        /* \"#utility.yul\":4052:4064   */\n      dup3\n        /* \"#utility.yul\":4002:4081   */\n      tag_115\n      jump\t// in\n    tag_150:\n        /* \"#utility.yul\":3907:4091   */\n      pop\n        /* \"#utility.yul\":4175:4179   */\n      0x40\n        /* \"#utility.yul\":4168:4173   */\n      dup3\n        /* \"#utility.yul\":4164:4180   */\n      add\n        /* \"#utility.yul\":4158:4181   */\n      mload\n        /* \"#utility.yul\":4194:4257   */\n      tag_151\n        /* \"#utility.yul\":4251:4255   */\n      0x40\n        /* \"#utility.yul\":4246:4249   */\n      dup6\n        /* \"#utility.yul\":4242:4256   */\n      add\n        /* \"#utility.yul\":4228:4240   */\n      dup3\n        /* \"#utility.yul\":4194:4257   */\n      tag_110\n      jump\t// in\n    tag_151:\n        /* \"#utility.yul\":4101:4267   */\n      pop\n        /* \"#utility.yul\":4353:4357   */\n      0x60\n        /* \"#utility.yul\":4346:4351   */\n      dup3\n        /* \"#utility.yul\":4342:4358   */\n      add\n        /* \"#utility.yul\":4336:4359   */\n      mload\n        /* \"#utility.yul\":4372:4429   */\n      tag_152\n        /* \"#utility.yul\":4423:4427   */\n      0x60\n        /* \"#utility.yul\":4418:4421   */\n      dup6\n        /* \"#utility.yul\":4414:4428   */\n      add\n        /* \"#utility.yul\":4400:4412   */\n      dup3\n        /* \"#utility.yul\":4372:4429   */\n      tag_137\n      jump\t// in\n    tag_152:\n        /* \"#utility.yul\":4277:4439   */\n      pop\n        /* \"#utility.yul\":4531:4535   */\n      0x80\n        /* \"#utility.yul\":4524:4529   */\n      dup3\n        /* \"#utility.yul\":4520:4536   */\n      add\n        /* \"#utility.yul\":4514:4537   */\n      mload\n        /* \"#utility.yul\":4550:4609   */\n      tag_153\n        /* \"#utility.yul\":4603:4607   */\n      0x80\n        /* \"#utility.yul\":4598:4601   */\n      dup6\n        /* \"#utility.yul\":4594:4608   */\n      add\n        /* \"#utility.yul\":4580:4592   */\n      dup3\n        /* \"#utility.yul\":4550:4609   */\n      tag_154\n      jump\t// in\n    tag_153:\n        /* \"#utility.yul\":4449:4619   */\n      pop\n        /* \"#utility.yul\":3669:4626   */\n      pop\n        /* \"#utility.yul\":3549:4626   */\n      pop\n      pop\n      jump\t// out\n        /* \"#utility.yul\":4632:4740   */\n    tag_110:\n        /* \"#utility.yul\":4709:4733   */\n      tag_156\n        /* \"#utility.yul\":4727:4732   */\n      dup2\n        /* \"#utility.yul\":4709:4733   */\n      tag_157\n      jump\t// in\n    tag_156:\n        /* \"#utility.yul\":4704:4707   */\n      dup3\n        /* \"#utility.yul\":4697:4734   */\n      mstore\n        /* \"#utility.yul\":4632:4740   */\n      pop\n      pop\n      jump\t// out\n        /* \"#utility.yul\":4746:4864   */\n    tag_158:\n        /* \"#utility.yul\":4833:4857   */\n      tag_160\n        /* \"#utility.yul\":4851:4856   */\n      dup2\n        /* \"#utility.yul\":4833:4857   */\n      tag_157\n      jump\t// in\n    tag_160:\n        /* \"#utility.yul\":4828:4831   */\n      dup3\n        /* \"#utility.yul\":4821:4858   */\n      mstore\n        /* \"#utility.yul\":4746:4864   */\n      pop\n      pop\n      jump\t// out\n        /* \"#utility.yul\":4870:4972   */\n    tag_154:\n        /* \"#utility.yul\":4943:4965   */\n      tag_162\n        /* \"#utility.yul\":4959:4964   */\n      dup2\n        /* \"#utility.yul\":4943:4965   */\n      tag_163\n      jump\t// in\n    tag_162:\n        /* \"#utility.yul\":4938:4941   */\n      dup3\n        /* \"#utility.yul\":4931:4966   */\n      mstore\n        /* \"#utility.yul\":4870:4972   */\n      pop\n      pop\n      jump\t// out\n        /* \"#utility.yul\":4978:5547   */\n    tag_57:\n        /* \"#utility.yul\":5163:5167   */\n      0x00\n        /* \"#utility.yul\":5201:5204   */\n      0x80\n        /* \"#utility.yul\":5190:5199   */\n      dup3\n        /* \"#utility.yul\":5186:5205   */\n      add\n        /* \"#utility.yul\":5178:5205   */\n      swap1\n      pop\n        /* \"#utility.yul\":5215:5286   */\n      tag_165\n        /* \"#utility.yul\":5283:5284   */\n      0x00\n        /* \"#utility.yul\":5272:5281   */\n      dup4\n        /* \"#utility.yul\":5268:5285   */\n      add\n        /* \"#utility.yul\":5259:5265   */\n      dup8\n        /* \"#utility.yul\":5215:5286   */\n      tag_119\n      jump\t// in\n    tag_165:\n        /* \"#utility.yul\":5296:5376   */\n      tag_166\n        /* \"#utility.yul\":5372:5374   */\n      0x20\n        /* \"#utility.yul\":5361:5370   */\n      dup4\n        /* \"#utility.yul\":5357:5375   */\n      add\n        /* \"#utility.yul\":5348:5354   */\n      dup7\n        /* \"#utility.yul\":5296:5376   */\n      tag_111\n      jump\t// in\n    tag_166:\n        /* \"#utility.yul\":5386:5458   */\n      tag_167\n        /* \"#utility.yul\":5454:5456   */\n      0x40\n        /* \"#utility.yul\":5443:5452   */\n      dup4\n        /* \"#utility.yul\":5439:5457   */\n      add\n        /* \"#utility.yul\":5430:5436   */\n      dup6\n        /* \"#utility.yul\":5386:5458   */\n      tag_158\n      jump\t// in\n    tag_167:\n        /* \"#utility.yul\":5468:5540   */\n      tag_168\n        /* \"#utility.yul\":5536:5538   */\n      0x60\n        /* \"#utility.yul\":5525:5534   */\n      dup4\n        /* \"#utility.yul\":5521:5539   */\n      add\n        /* \"#utility.yul\":5512:5518   */\n      dup5\n        /* \"#utility.yul\":5468:5540   */\n      tag_158\n      jump\t// in\n    tag_168:\n        /* \"#utility.yul\":4978:5547   */\n      swap6\n      swap5\n      pop\n      pop\n      pop\n      pop\n      pop\n      jump\t// out\n        /* \"#utility.yul\":5553:5885   */\n    tag_73:\n        /* \"#utility.yul\":5674:5678   */\n      0x00\n        /* \"#utility.yul\":5712:5714   */\n      0x40\n        /* \"#utility.yul\":5701:5710   */\n      dup3\n        /* \"#utility.yul\":5697:5715   */\n      add\n        /* \"#utility.yul\":5689:5715   */\n      swap1\n      pop\n        /* \"#utility.yul\":5725:5796   */\n      tag_170\n        /* \"#utility.yul\":5793:5794   */\n      0x00\n        /* \"#utility.yul\":5782:5791   */\n      dup4\n        /* \"#utility.yul\":5778:5795   */\n      add\n        /* \"#utility.yul\":5769:5775   */\n      dup6\n        /* \"#utility.yul\":5725:5796   */\n      tag_119\n      jump\t// in\n    tag_170:\n        /* \"#utility.yul\":5806:5878   */\n      tag_171\n        /* \"#utility.yul\":5874:5876   */\n      0x20\n        /* \"#utility.yul\":5863:5872   */\n      dup4\n        /* \"#utility.yul\":5859:5877   */\n      add\n        /* \"#utility.yul\":5850:5856   */\n      dup5\n        /* \"#utility.yul\":5806:5878   */\n      tag_158\n      jump\t// in\n    tag_171:\n        /* \"#utility.yul\":5553:5885   */\n      swap4\n      swap3\n      pop\n      pop\n      pop\n      jump\t// out\n        /* \"#utility.yul\":5891:6264   */\n    tag_41:\n        /* \"#utility.yul\":6034:6038   */\n      0x00\n        /* \"#utility.yul\":6072:6074   */\n      0x20\n        /* \"#utility.yul\":6061:6070   */\n      dup3\n        /* \"#utility.yul\":6057:6075   */\n      add\n        /* \"#utility.yul\":6049:6075   */\n      swap1\n      pop\n        /* \"#utility.yul\":6121:6130   */\n      dup2\n        /* \"#utility.yul\":6115:6119   */\n      dup2\n        /* \"#utility.yul\":6111:6131   */\n      sub\n        /* \"#utility.yul\":6107:6108   */\n      0x00\n        /* \"#utility.yul\":6096:6105   */\n      dup4\n        /* \"#utility.yul\":6092:6109   */\n      add\n        /* \"#utility.yul\":6085:6132   */\n      mstore\n        /* \"#utility.yul\":6149:6257   */\n      tag_173\n        /* \"#utility.yul\":6252:6256   */\n      dup2\n        /* \"#utility.yul\":6243:6249   */\n      dup5\n        /* \"#utility.yul\":6149:6257   */\n      tag_123\n      jump\t// in\n    tag_173:\n        /* \"#utility.yul\":6141:6257   */\n      swap1\n      pop\n        /* \"#utility.yul\":5891:6264   */\n      swap3\n      swap2\n      pop\n      pop\n      jump\t// out\n        /* \"#utility.yul\":6270:6689   */\n    tag_53:\n        /* \"#utility.yul\":6436:6440   */\n      0x00\n        /* \"#utility.yul\":6474:6476   */\n      0x20\n        /* \"#utility.yul\":6463:6472   */\n      dup3\n        /* \"#utility.yul\":6459:6477   */\n      add\n        /* \"#utility.yul\":6451:6477   */\n      swap1\n      pop\n        /* \"#utility.yul\":6523:6532   */\n      dup2\n        /* \"#utility.yul\":6517:6521   */\n      dup2\n        /* \"#utility.yul\":6513:6533   */\n      sub\n        /* \"#utility.yul\":6509:6510   */\n      0x00\n        /* \"#utility.yul\":6498:6507   */\n      dup4\n        /* \"#utility.yul\":6494:6511   */\n      add\n        /* \"#utility.yul\":6487:6534   */\n      mstore\n        /* \"#utility.yul\":6551:6682   */\n      tag_175\n        /* \"#utility.yul\":6677:6681   */\n      dup2\n        /* \"#utility.yul\":6551:6682   */\n      tag_141\n      jump\t// in\n    tag_175:\n        /* \"#utility.yul\":6543:6682   */\n      swap1\n      pop\n        /* \"#utility.yul\":6270:6689   */\n      swap2\n      swap1\n      pop\n      jump\t// out\n        /* \"#utility.yul\":6695:7026   */\n    tag_30:\n        /* \"#utility.yul\":6842:6846   */\n      0x00\n        /* \"#utility.yul\":6880:6883   */\n      0xa0\n        /* \"#utility.yul\":6869:6878   */\n      dup3\n        /* \"#utility.yul\":6865:6884   */\n      add\n        /* \"#utility.yul\":6857:6884   */\n      swap1\n      pop\n        /* \"#utility.yul\":6894:7019   */\n      tag_177\n        /* \"#utility.yul\":7016:7017   */\n      0x00\n        /* \"#utility.yul\":7005:7014   */\n      dup4\n        /* \"#utility.yul\":7001:7018   */\n      add\n        /* \"#utility.yul\":6992:6998   */\n      dup5\n        /* \"#utility.yul\":6894:7019   */\n      tag_147\n      jump\t// in\n    tag_177:\n        /* \"#utility.yul\":6695:7026   */\n      swap3\n      swap2\n      pop\n      pop\n      jump\t// out\n        /* \"#utility.yul\":7113:7245   */\n    tag_130:\n        /* \"#utility.yul\":7180:7184   */\n      0x00\n        /* \"#utility.yul\":7203:7206   */\n      dup2\n        /* \"#utility.yul\":7195:7206   */\n      swap1\n      pop\n        /* \"#utility.yul\":7233:7237   */\n      0x20\n        /* \"#utility.yul\":7228:7231   */\n      dup3\n        /* \"#utility.yul\":7224:7238   */\n      add\n        /* \"#utility.yul\":7216:7238   */\n      swap1\n      pop\n        /* \"#utility.yul\":7113:7245   */\n      swap2\n      swap1\n      pop\n      jump\t// out\n        /* \"#utility.yul\":7251:7365   */\n    tag_126:\n        /* \"#utility.yul\":7318:7324   */\n      0x00\n        /* \"#utility.yul\":7352:7357   */\n      dup2\n        /* \"#utility.yul\":7346:7358   */\n      mload\n        /* \"#utility.yul\":7336:7358   */\n      swap1\n      pop\n        /* \"#utility.yul\":7251:7365   */\n      swap2\n      swap1\n      pop\n      jump\t// out\n        /* \"#utility.yul\":7371:7484   */\n    tag_136:\n        /* \"#utility.yul\":7441:7445   */\n      0x00\n        /* \"#utility.yul\":7473:7477   */\n      0x20\n        /* \"#utility.yul\":7468:7471   */\n      dup3\n        /* \"#utility.yul\":7464:7478   */\n      add\n        /* \"#utility.yul\":7456:7478   */\n      swap1\n      pop\n        /* \"#utility.yul\":7371:7484   */\n      swap2\n      swap1\n      pop\n      jump\t// out\n        /* \"#utility.yul\":7490:7674   */\n    tag_128:\n        /* \"#utility.yul\":7589:7600   */\n      0x00\n        /* \"#utility.yul\":7623:7629   */\n      dup3\n        /* \"#utility.yul\":7618:7621   */\n      dup3\n        /* \"#utility.yul\":7611:7630   */\n      mstore\n        /* \"#utility.yul\":7663:7667   */\n      0x20\n        /* \"#utility.yul\":7658:7661   */\n      dup3\n        /* \"#utility.yul\":7654:7668   */\n      add\n        /* \"#utility.yul\":7639:7668   */\n      swap1\n      pop\n        /* \"#utility.yul\":7490:7674   */\n      swap3\n      swap2\n      pop\n      pop\n      jump\t// out\n        /* \"#utility.yul\":7680:7849   */\n    tag_144:\n        /* \"#utility.yul\":7764:7775   */\n      0x00\n        /* \"#utility.yul\":7798:7804   */\n      dup3\n        /* \"#utility.yul\":7793:7796   */\n      dup3\n        /* \"#utility.yul\":7786:7805   */\n      mstore\n        /* \"#utility.yul\":7838:7842   */\n      0x20\n        /* \"#utility.yul\":7833:7836   */\n      dup3\n        /* \"#utility.yul\":7829:7843   */\n      add\n        /* \"#utility.yul\":7814:7843   */\n      swap1\n      pop\n        /* \"#utility.yul\":7680:7849   */\n      swap3\n      swap2\n      pop\n      pop\n      jump\t// out\n        /* \"#utility.yul\":7855:7951   */\n    tag_122:\n        /* \"#utility.yul\":7892:7899   */\n      0x00\n        /* \"#utility.yul\":7921:7945   */\n      tag_186\n        /* \"#utility.yul\":7939:7944   */\n      dup3\n        /* \"#utility.yul\":7921:7945   */\n      tag_187\n      jump\t// in\n    tag_186:\n        /* \"#utility.yul\":7910:7945   */\n      swap1\n      pop\n        /* \"#utility.yul\":7855:7951   */\n      swap2\n      swap1\n      pop\n      jump\t// out\n        /* \"#utility.yul\":7957:8061   */\n    tag_118:\n        /* \"#utility.yul\":8002:8009   */\n      0x00\n        /* \"#utility.yul\":8031:8055   */\n      tag_189\n        /* \"#utility.yul\":8049:8054   */\n      dup3\n        /* \"#utility.yul\":8031:8055   */\n      tag_187\n      jump\t// in\n    tag_189:\n        /* \"#utility.yul\":8020:8055   */\n      swap1\n      pop\n        /* \"#utility.yul\":7957:8061   */\n      swap2\n      swap1\n      pop\n      jump\t// out\n        /* \"#utility.yul\":8067:8157   */\n    tag_140:\n        /* \"#utility.yul\":8101:8108   */\n      0x00\n        /* \"#utility.yul\":8144:8149   */\n      dup2\n        /* \"#utility.yul\":8137:8150   */\n      iszero\n        /* \"#utility.yul\":8130:8151   */\n      iszero\n        /* \"#utility.yul\":8119:8151   */\n      swap1\n      pop\n        /* \"#utility.yul\":8067:8157   */\n      swap2\n      swap1\n      pop\n      jump\t// out\n        /* \"#utility.yul\":8163:8289   */\n    tag_187:\n        /* \"#utility.yul\":8200:8207   */\n      0x00\n        /* \"#utility.yul\":8240:8282   */\n      0xffffffffffffffffffffffffffffffffffffffff\n        /* \"#utility.yul\":8233:8238   */\n      dup3\n        /* \"#utility.yul\":8229:8283   */\n      and\n        /* \"#utility.yul\":8218:8283   */\n      swap1\n      pop\n        /* \"#utility.yul\":8163:8289   */\n      swap2\n      swap1\n      pop\n      jump\t// out\n        /* \"#utility.yul\":8295:8372   */\n    tag_157:\n        /* \"#utility.yul\":8332:8339   */\n      0x00\n        /* \"#utility.yul\":8361:8366   */\n      dup2\n        /* \"#utility.yul\":8350:8366   */\n      swap1\n      pop\n        /* \"#utility.yul\":8295:8372   */\n      swap2\n      swap1\n      pop\n      jump\t// out\n        /* \"#utility.yul\":8378:8464   */\n    tag_163:\n        /* \"#utility.yul\":8413:8420   */\n      0x00\n        /* \"#utility.yul\":8453:8457   */\n      0xff\n        /* \"#utility.yul\":8446:8451   */\n      dup3\n        /* \"#utility.yul\":8442:8458   */\n      and\n        /* \"#utility.yul\":8431:8458   */\n      swap1\n      pop\n        /* \"#utility.yul\":8378:8464   */\n      swap2\n      swap1\n      pop\n      jump\t// out\n        /* \"#utility.yul\":8470:8604   */\n    tag_114:\n        /* \"#utility.yul\":8528:8537   */\n      0x00\n        /* \"#utility.yul\":8561:8598   */\n      tag_195\n        /* \"#utility.yul\":8592:8597   */\n      dup3\n        /* \"#utility.yul\":8561:8598   */\n      tag_196\n      jump\t// in\n    tag_195:\n        /* \"#utility.yul\":8548:8598   */\n      swap1\n      pop\n        /* \"#utility.yul\":8470:8604   */\n      swap2\n      swap1\n      pop\n      jump\t// out\n        /* \"#utility.yul\":8610:8736   */\n    tag_196:\n        /* \"#utility.yul\":8660:8669   */\n      0x00\n        /* \"#utility.yul\":8693:8730   */\n      tag_198\n        /* \"#utility.yul\":8724:8729   */\n      dup3\n        /* \"#utility.yul\":8693:8730   */\n      tag_199\n      jump\t// in\n    tag_198:\n        /* \"#utility.yul\":8680:8730   */\n      swap1\n      pop\n        /* \"#utility.yul\":8610:8736   */\n      swap2\n      swap1\n      pop\n      jump\t// out\n        /* \"#utility.yul\":8742:8855   */\n    tag_199:\n        /* \"#utility.yul\":8792:8801   */\n      0x00\n        /* \"#utility.yul\":8825:8849   */\n      tag_201\n        /* \"#utility.yul\":8843:8848   */\n      dup3\n        /* \"#utility.yul\":8825:8849   */\n      tag_187\n      jump\t// in\n    tag_201:\n        /* \"#utility.yul\":8812:8849   */\n      swap1\n      pop\n        /* \"#utility.yul\":8742:8855   */\n      swap2\n      swap1\n      pop\n      jump\t// out\n        /* \"#utility.yul\":8861:9041   */\n    tag_66:\n        /* \"#utility.yul\":8909:8986   */\n      0x4e487b7100000000000000000000000000000000000000000000000000000000\n        /* \"#utility.yul\":8906:8907   */\n      0x00\n        /* \"#utility.yul\":8899:8987   */\n      mstore\n        /* \"#utility.yul\":9006:9010   */\n      0x32\n        /* \"#utility.yul\":9003:9004   */\n      0x04\n        /* \"#utility.yul\":8996:9011   */\n      mstore\n        /* \"#utility.yul\":9030:9034   */\n      0x24\n        /* \"#utility.yul\":9027:9028   */\n      0x00\n        /* \"#utility.yul\":9020:9035   */\n      revert\n        /* \"#utility.yul\":9170:9287   */\n    tag_96:\n        /* \"#utility.yul\":9279:9280   */\n      0x00\n        /* \"#utility.yul\":9276:9277   */\n      dup1\n        /* \"#utility.yul\":9269:9281   */\n      revert\n        /* \"#utility.yul\":9293:9459   */\n    tag_146:\n        /* \"#utility.yul\":9433:9451   */\n      0x4e6f7420456e6f756768204d6f6e657900000000000000000000000000000000\n        /* \"#utility.yul\":9429:9430   */\n      0x00\n        /* \"#utility.yul\":9421:9427   */\n      dup3\n        /* \"#utility.yul\":9417:9431   */\n      add\n        /* \"#utility.yul\":9410:9452   */\n      mstore\n        /* \"#utility.yul\":9293:9459   */\n      pop\n      jump\t// out\n        /* \"#utility.yul\":9465:9587   */\n    tag_84:\n        /* \"#utility.yul\":9538:9562   */\n      tag_208\n        /* \"#utility.yul\":9556:9561   */\n      dup2\n        /* \"#utility.yul\":9538:9562   */\n      tag_122\n      jump\t// in\n    tag_208:\n        /* \"#utility.yul\":9531:9536   */\n      dup2\n        /* \"#utility.yul\":9528:9563   */\n      eq\n        /* \"#utility.yul\":9518:9581   */\n      tag_209\n      jumpi\n        /* \"#utility.yul\":9577:9578   */\n      0x00\n        /* \"#utility.yul\":9574:9575   */\n      dup1\n        /* \"#utility.yul\":9567:9579   */\n      revert\n        /* \"#utility.yul\":9518:9581   */\n    tag_209:\n        /* \"#utility.yul\":9465:9587   */\n      pop\n      jump\t// out\n        /* \"#utility.yul\":9593:9731   */\n    tag_88:\n        /* \"#utility.yul\":9674:9706   */\n      tag_211\n        /* \"#utility.yul\":9700:9705   */\n      dup2\n        /* \"#utility.yul\":9674:9706   */\n      tag_118\n      jump\t// in\n    tag_211:\n        /* \"#utility.yul\":9667:9672   */\n      dup2\n        /* \"#utility.yul\":9664:9707   */\n      eq\n        /* \"#utility.yul\":9654:9725   */\n      tag_212\n      jumpi\n        /* \"#utility.yul\":9721:9722   */\n      0x00\n        /* \"#utility.yul\":9718:9719   */\n      dup1\n        /* \"#utility.yul\":9711:9723   */\n      revert\n        /* \"#utility.yul\":9654:9725   */\n    tag_212:\n        /* \"#utility.yul\":9593:9731   */\n      pop\n      jump\t// out\n        /* \"#utility.yul\":9737:9859   */\n    tag_92:\n        /* \"#utility.yul\":9810:9834   */\n      tag_214\n        /* \"#utility.yul\":9828:9833   */\n      dup2\n        /* \"#utility.yul\":9810:9834   */\n      tag_157\n      jump\t// in\n    tag_214:\n        /* \"#utility.yul\":9803:9808   */\n      dup2\n        /* \"#utility.yul\":9800:9835   */\n      eq\n        /* \"#utility.yul\":9790:9853   */\n      tag_215\n      jumpi\n        /* \"#utility.yul\":9849:9850   */\n      0x00\n        /* \"#utility.yul\":9846:9847   */\n      dup1\n        /* \"#utility.yul\":9839:9851   */\n      revert\n        /* \"#utility.yul\":9790:9853   */\n    tag_215:\n        /* \"#utility.yul\":9737:9859   */\n      pop\n      jump\t// out\n\n    auxdata: 0xa2646970667358221220d49590c37f7728cadd0b9c95cbc1682109210af9406fa7892587cd94d149652f64736f6c63430008070033\n}\n",
				"bytecode": {
					"linkReferences": {},
					"object": "608060405234801561001057600080fd5b50336000806101000a81548173ffffffffffffffffffffffffffffffffffffffff021916908373ffffffffffffffffffffffffffffffffffffffff160217905550610e16806100606000396000f3fe6080604052600436106100705760003560e01c806333ea3dc81161004e57806333ea3dc8146100f05780637065cb481461012d578063a50ec32614610156578063d11db83f1461016057610070565b806314174f3314610075578063173825d91461009e5780632ccb1b30146100c7575b600080fd5b34801561008157600080fd5b5061009c600480360381019061009791906109f5565b61018b565b005b3480156100aa57600080fd5b506100c560048036038101906100c09190610988565b610198565b005b3480156100d357600080fd5b506100ee60048036038101906100e991906109b5565b61024c565b005b3480156100fc57600080fd5b50610117600480360381019061011291906109f5565b610514565b6040516101249190610c3c565b60405180910390f35b34801561013957600080fd5b50610154600480360381019061014f9190610988565b6106f2565b005b61015e6107a5565b005b34801561016c57600080fd5b506101756107e0565b6040516101829190610bfa565b60405180910390f35b610195338261024c565b50565b60008054906101000a900473ffffffffffffffffffffffffffffffffffffffff1673ffffffffffffffffffffffffffffffffffffffff163373ffffffffffffffffffffffffffffffffffffffff16146101f057600080fd5b6000600160008373ffffffffffffffffffffffffffffffffffffffff1673ffffffffffffffffffffffffffffffffffffffff16815260200190815260200160002060006101000a81548160ff021916908360ff16021790555050565b60008054906101000a900473ffffffffffffffffffffffffffffffffffffffff1673ffffffffffffffffffffffffffffffffffffffff163373ffffffffffffffffffffffffffffffffffffffff1614806102f4575060018060003373ffffffffffffffffffffffffffffffffffffffff1673ffffffffffffffffffffffffffffffffffffffff16815260200190815260200160002060009054906101000a900460ff1660ff16145b6102fd57600080fd5b80471015610340576040517f08c379a000000000000000000000000000000000000000000000000000000000815260040161033790610c1c565b60405180910390fd5b60026040518060a001604052803373ffffffffffffffffffffffffffffffffffffffff1681526020018473ffffffffffffffffffffffffffffffffffffffff168152602001838152602001600015158152602001600060ff16815250908060018154018082558091505060019003906000526020600020906004020160009091909190915060008201518160000160006101000a81548173ffffffffffffffffffffffffffffffffffffffff021916908373ffffffffffffffffffffffffffffffffffffffff16021790555060208201518160010160006101000a81548173ffffffffffffffffffffffffffffffffffffffff021916908373ffffffffffffffffffffffffffffffffffffffff1602179055506040820151816002015560608201518160030160006101000a81548160ff02191690831515021790555060808201518160030160016101000a81548160ff021916908360ff1602179055505050600460028054905090806001815401808255809150506001900390600052602060002001600090919091909150557f41d8c89c4a25824354aa1f198d80d06f2f93f903a2d180d1ea20429a4678c4a43383836002805490506040516105089493929190610b8c565b60405180910390a15050565b61051c6108e9565b60008054906101000a900473ffffffffffffffffffffffffffffffffffffffff1673ffffffffffffffffffffffffffffffffffffffff163373ffffffffffffffffffffffffffffffffffffffff1614806105c4575060018060003373ffffffffffffffffffffffffffffffffffffffff1673ffffffffffffffffffffffffffffffffffffffff16815260200190815260200160002060009054906101000a900460ff1660ff16145b6105cd57600080fd5b6000600283815481106105e3576105e2610d3e565b5b90600052602060002090600402016040518060a00160405290816000820160009054906101000a900473ffffffffffffffffffffffffffffffffffffffff1673ffffffffffffffffffffffffffffffffffffffff1673ffffffffffffffffffffffffffffffffffffffff1681526020016001820160009054906101000a900473ffffffffffffffffffffffffffffffffffffffff1673ffffffffffffffffffffffffffffffffffffffff1673ffffffffffffffffffffffffffffffffffffffff168152602001600282015481526020016003820160009054906101000a900460ff161515151581526020016003820160019054906101000a900460ff1660ff1660ff1681525050905050919050565b60008054906101000a900473ffffffffffffffffffffffffffffffffffffffff1673ffffffffffffffffffffffffffffffffffffffff163373ffffffffffffffffffffffffffffffffffffffff161461074a57600080fd5b60018060008373ffffffffffffffffffffffffffffffffffffffff1673ffffffffffffffffffffffffffffffffffffffff16815260200190815260200160002060006101000a81548160ff021916908360ff16021790555050565b7fd241e73300212f6df233a8e6d3146b88a9d4964e06621d54b5ff6afeba7b1b8833346040516107d6929190610bd1565b60405180910390a1565b606060008054906101000a900473ffffffffffffffffffffffffffffffffffffffff1673ffffffffffffffffffffffffffffffffffffffff163373ffffffffffffffffffffffffffffffffffffffff16148061088a575060018060003373ffffffffffffffffffffffffffffffffffffffff1673ffffffffffffffffffffffffffffffffffffffff16815260200190815260200160002060009054906101000a900460ff1660ff16145b61089357600080fd5b60048054806020026020016040519081016040528092919081815260200182805480156108df57602002820191906000526020600020905b8154815260200190600101908083116108cb575b5050505050905090565b6040518060a00160405280600073ffffffffffffffffffffffffffffffffffffffff168152602001600073ffffffffffffffffffffffffffffffffffffffff16815260200160008152602001600015158152602001600060ff1681525090565b60008135905061095881610d9b565b92915050565b60008135905061096d81610db2565b92915050565b60008135905061098281610dc9565b92915050565b60006020828403121561099e5761099d610d6d565b5b60006109ac84828501610949565b91505092915050565b600080604083850312156109cc576109cb610d6d565b5b60006109da8582860161095e565b92505060206109eb85828601610973565b9150509250929050565b600060208284031215610a0b57610a0a610d6d565b5b6000610a1984828501610973565b91505092915050565b6000610a2e8383610b5f565b60208301905092915050565b610a4381610d08565b82525050565b610a5281610cb3565b82525050565b610a6181610ca1565b82525050565b6000610a7282610c67565b610a7c8185610c7f565b9350610a8783610c57565b8060005b83811015610ab8578151610a9f8882610a22565b9750610aaa83610c72565b925050600181019050610a8b565b5085935050505092915050565b610ace81610cc5565b82525050565b6000610ae1601083610c90565b9150610aec82610d72565b602082019050919050565b60a082016000820151610b0d6000850182610a49565b506020820151610b206020850182610a49565b506040820151610b336040850182610b5f565b506060820151610b466060850182610ac5565b506080820151610b596080850182610b7d565b50505050565b610b6881610cf1565b82525050565b610b7781610cf1565b82525050565b610b8681610cfb565b82525050565b6000608082019050610ba16000830187610a58565b610bae6020830186610a3a565b610bbb6040830185610b6e565b610bc86060830184610b6e565b95945050505050565b6000604082019050610be66000830185610a58565b610bf36020830184610b6e565b9392505050565b60006020820190508181036000830152610c148184610a67565b905092915050565b60006020820190508181036000830152610c3581610ad4565b9050919050565b600060a082019050610c516000830184610af7565b92915050565b6000819050602082019050919050565b600081519050919050565b6000602082019050919050565b600082825260208201905092915050565b600082825260208201905092915050565b6000610cac82610cd1565b9050919050565b6000610cbe82610cd1565b9050919050565b60008115159050919050565b600073ffffffffffffffffffffffffffffffffffffffff82169050919050565b6000819050919050565b600060ff82169050919050565b6000610d1382610d1a565b9050919050565b6000610d2582610d2c565b9050919050565b6000610d3782610cd1565b9050919050565b7f4e487b7100000000000000000000000000000000000000000000000000000000600052603260045260246000fd5b600080fd5b7f4e6f7420456e6f756768204d6f6e657900000000000000000000000000000000600082015250565b610da481610ca1565b8114610daf57600080fd5b50565b610dbb81610cb3565b8114610dc657600080fd5b50565b610dd281610cf1565b8114610ddd57600080fd5b5056fea2646970667358221220d49590c37f7728cadd0b9c95cbc1682109210af9406fa7892587cd94d149652f64736f6c63430008070033",
					"opcodes": "PUSH1 0x80 PUSH1 0x40 MSTORE CALLVALUE DUP1 ISZERO PUSH2 0x10 JUMPI PUSH1 0x0 DUP1 REVERT JUMPDEST POP CALLER PUSH1 0x0 DUP1 PUSH2 0x100 EXP DUP2 SLOAD DUP2 PUSH20 0xFFFFFFFFFFFFFFFFFFFFFFFFFFFFFFFFFFFFFFFF MUL NOT AND SWAP1 DUP4 PUSH20 0xFFFFFFFFFFFFFFFFFFFFFFFFFFFFFFFFFFFFFFFF AND MUL OR SWAP1 SSTORE POP PUSH2 0xE16 DUP1 PUSH2 0x60 PUSH1 0x0 CODECOPY PUSH1 0x0 RETURN INVALID PUSH1 0x80 PUSH1 0x40 MSTORE PUSH1 0x4 CALLDATASIZE LT PUSH2 0x70 JUMPI PUSH1 0x0 CALLDATALOAD PUSH1 0xE0 SHR DUP1 PUSH4 0x33EA3DC8 GT PUSH2 0x4E JUMPI DUP1 PUSH4 0x33EA3DC8 EQ PUSH2 0xF0 JUMPI DUP1 PUSH4 0x7065CB48 EQ PUSH2 0x12D JUMPI DUP1 PUSH4 0xA50EC326 EQ PUSH2 0x156 JUMPI DUP1 PUSH4 0xD11DB83F EQ PUSH2 0x160 JUMPI PUSH2 0x70 JUMP JUMPDEST DUP1 PUSH4 0x14174F33 EQ PUSH2 0x75 JUMPI DUP1 PUSH4 0x173825D9 EQ PUSH2 0x9E JUMPI DUP1 PUSH4 0x2CCB1B30 EQ PUSH2 0xC7 JUMPI JUMPDEST PUSH1 0x0 DUP1 REVERT JUMPDEST CALLVALUE DUP1 ISZERO PUSH2 0x81 JUMPI PUSH1 0x0 DUP1 REVERT JUMPDEST POP PUSH2 0x9C PUSH1 0x4 DUP1 CALLDATASIZE SUB DUP2 ADD SWAP1 PUSH2 0x97 SWAP2 SWAP1 PUSH2 0x9F5 JUMP JUMPDEST PUSH2 0x18B JUMP JUMPDEST STOP JUMPDEST CALLVALUE DUP1 ISZERO PUSH2 0xAA JUMPI PUSH1 0x0 DUP1 REVERT JUMPDEST POP PUSH2 0xC5 PUSH1 0x4 DUP1 CALLDATASIZE SUB DUP2 ADD SWAP1 PUSH2 0xC0 SWAP2 SWAP1 PUSH2 0x988 JUMP JUMPDEST PUSH2 0x198 JUMP JUMPDEST STOP JUMPDEST CALLVALUE DUP1 ISZERO PUSH2 0xD3 JUMPI PUSH1 0x0 DUP1 REVERT JUMPDEST POP PUSH2 0xEE PUSH1 0x4 DUP1 CALLDATASIZE SUB DUP2 ADD SWAP1 PUSH2 0xE9 SWAP2 SWAP1 PUSH2 0x9B5 JUMP JUMPDEST PUSH2 0x24C JUMP JUMPDEST STOP JUMPDEST CALLVALUE DUP1 ISZERO PUSH2 0xFC JUMPI PUSH1 0x0 DUP1 REVERT JUMPDEST POP PUSH2 0x117 PUSH1 0x4 DUP1 CALLDATASIZE SUB DUP2 ADD SWAP1 PUSH2 0x112 SWAP2 SWAP1 PUSH2 0x9F5 JUMP JUMPDEST PUSH2 0x514 JUMP JUMPDEST PUSH1 0x40 MLOAD PUSH2 0x124 SWAP2 SWAP1 PUSH2 0xC3C JUMP JUMPDEST PUSH1 0x40 MLOAD DUP1 SWAP2 SUB SWAP1 RETURN JUMPDEST CALLVALUE DUP1 ISZERO PUSH2 0x139 JUMPI PUSH1 0x0 DUP1 REVERT JUMPDEST POP PUSH2 0x154 PUSH1 0x4 DUP1 CALLDATASIZE SUB DUP2 ADD SWAP1 PUSH2 0x14F SWAP2 SWAP1 PUSH2 0x988 JUMP JUMPDEST PUSH2 0x6F2 JUMP JUMPDEST STOP JUMPDEST PUSH2 0x15E PUSH2 0x7A5 JUMP JUMPDEST STOP JUMPDEST CALLVALUE DUP1 ISZERO PUSH2 0x16C JUMPI PUSH1 0x0 DUP1 REVERT JUMPDEST POP PUSH2 0x175 PUSH2 0x7E0 JUMP JUMPDEST PUSH1 0x40 MLOAD PUSH2 0x182 SWAP2 SWAP1 PUSH2 0xBFA JUMP JUMPDEST PUSH1 0x40 MLOAD DUP1 SWAP2 SUB SWAP1 RETURN JUMPDEST PUSH2 0x195 CALLER DUP3 PUSH2 0x24C JUMP JUMPDEST POP JUMP JUMPDEST PUSH1 0x0 DUP1 SLOAD SWAP1 PUSH2 0x100 EXP SWAP1 DIV PUSH20 0xFFFFFFFFFFFFFFFFFFFFFFFFFFFFFFFFFFFFFFFF AND PUSH20 0xFFFFFFFFFFFFFFFFFFFFFFFFFFFFFFFFFFFFFFFF AND CALLER PUSH20 0xFFFFFFFFFFFFFFFFFFFFFFFFFFFFFFFFFFFFFFFF AND EQ PUSH2 0x1F0 JUMPI PUSH1 0x0 DUP1 REVERT JUMPDEST PUSH1 0x0 PUSH1 0x1 PUSH1 0x0 DUP4 PUSH20 0xFFFFFFFFFFFFFFFFFFFFFFFFFFFFFFFFFFFFFFFF AND PUSH20 0xFFFFFFFFFFFFFFFFFFFFFFFFFFFFFFFFFFFFFFFF AND DUP2 MSTORE PUSH1 0x20 ADD SWAP1 DUP2 MSTORE PUSH1 0x20 ADD PUSH1 0x0 KECCAK256 PUSH1 0x0 PUSH2 0x100 EXP DUP2 SLOAD DUP2 PUSH1 0xFF MUL NOT AND SWAP1 DUP4 PUSH1 0xFF AND MUL OR SWAP1 SSTORE POP POP JUMP JUMPDEST PUSH1 0x0 DUP1 SLOAD SWAP1 PUSH2 0x100 EXP SWAP1 DIV PUSH20 0xFFFFFFFFFFFFFFFFFFFFFFFFFFFFFFFFFFFFFFFF AND PUSH20 0xFFFFFFFFFFFFFFFFFFFFFFFFFFFFFFFFFFFFFFFF AND CALLER PUSH20 0xFFFFFFFFFFFFFFFFFFFFFFFFFFFFFFFFFFFFFFFF AND EQ DUP1 PUSH2 0x2F4 JUMPI POP PUSH1 0x1 DUP1 PUSH1 0x0 CALLER PUSH20 0xFFFFFFFFFFFFFFFFFFFFFFFFFFFFFFFFFFFFFFFF AND PUSH20 0xFFFFFFFFFFFFFFFFFFFFFFFFFFFFFFFFFFFFFFFF AND DUP2 MSTORE PUSH1 0x20 ADD SWAP1 DUP2 MSTORE PUSH1 0x20 ADD PUSH1 0x0 KECCAK256 PUSH1 0x0 SWAP1 SLOAD SWAP1 PUSH2 0x100 EXP SWAP1 DIV PUSH1 0xFF AND PUSH1 0xFF AND EQ JUMPDEST PUSH2 0x2FD JUMPI PUSH1 0x0 DUP1 REVERT JUMPDEST DUP1 SELFBALANCE LT ISZERO PUSH2 0x340 JUMPI PUSH1 0x40 MLOAD PUSH32 0x8C379A000000000000000000000000000000000000000000000000000000000 DUP2 MSTORE PUSH1 0x4 ADD PUSH2 0x337 SWAP1 PUSH2 0xC1C JUMP JUMPDEST PUSH1 0x40 MLOAD DUP1 SWAP2 SUB SWAP1 REVERT JUMPDEST PUSH1 0x2 PUSH1 0x40 MLOAD DUP1 PUSH1 0xA0 ADD PUSH1 0x40 MSTORE DUP1 CALLER PUSH20 0xFFFFFFFFFFFFFFFFFFFFFFFFFFFFFFFFFFFFFFFF AND DUP2 MSTORE PUSH1 0x20 ADD DUP5 PUSH20 0xFFFFFFFFFFFFFFFFFFFFFFFFFFFFFFFFFFFFFFFF AND DUP2 MSTORE PUSH1 0x20 ADD DUP4 DUP2 MSTORE PUSH1 0x20 ADD PUSH1 0x0 ISZERO ISZERO DUP2 MSTORE PUSH1 0x20 ADD PUSH1 0x0 PUSH1 0xFF AND DUP2 MSTORE POP SWAP1 DUP1 PUSH1 0x1 DUP2 SLOAD ADD DUP1 DUP3 SSTORE DUP1 SWAP2 POP POP PUSH1 0x1 SWAP1 SUB SWAP1 PUSH1 0x0 MSTORE PUSH1 0x20 PUSH1 0x0 KECCAK256 SWAP1 PUSH1 0x4 MUL ADD PUSH1 0x0 SWAP1 SWAP2 SWAP1 SWAP2 SWAP1 SWAP2 POP PUSH1 0x0 DUP3 ADD MLOAD DUP2 PUSH1 0x0 ADD PUSH1 0x0 PUSH2 0x100 EXP DUP2 SLOAD DUP2 PUSH20 0xFFFFFFFFFFFFFFFFFFFFFFFFFFFFFFFFFFFFFFFF MUL NOT AND SWAP1 DUP4 PUSH20 0xFFFFFFFFFFFFFFFFFFFFFFFFFFFFFFFFFFFFFFFF AND MUL OR SWAP1 SSTORE POP PUSH1 0x20 DUP3 ADD MLOAD DUP2 PUSH1 0x1 ADD PUSH1 0x0 PUSH2 0x100 EXP DUP2 SLOAD DUP2 PUSH20 0xFFFFFFFFFFFFFFFFFFFFFFFFFFFFFFFFFFFFFFFF MUL NOT AND SWAP1 DUP4 PUSH20 0xFFFFFFFFFFFFFFFFFFFFFFFFFFFFFFFFFFFFFFFF AND MUL OR SWAP1 SSTORE POP PUSH1 0x40 DUP3 ADD MLOAD DUP2 PUSH1 0x2 ADD SSTORE PUSH1 0x60 DUP3 ADD MLOAD DUP2 PUSH1 0x3 ADD PUSH1 0x0 PUSH2 0x100 EXP DUP2 SLOAD DUP2 PUSH1 0xFF MUL NOT AND SWAP1 DUP4 ISZERO ISZERO MUL OR SWAP1 SSTORE POP PUSH1 0x80 DUP3 ADD MLOAD DUP2 PUSH1 0x3 ADD PUSH1 0x1 PUSH2 0x100 EXP DUP2 SLOAD DUP2 PUSH1 0xFF MUL NOT AND SWAP1 DUP4 PUSH1 0xFF AND MUL OR SWAP1 SSTORE POP POP POP PUSH1 0x4 PUSH1 0x2 DUP1 SLOAD SWAP1 POP SWAP1 DUP1 PUSH1 0x1 DUP2 SLOAD ADD DUP1 DUP3 SSTORE DUP1 SWAP2 POP POP PUSH1 0x1 SWAP1 SUB SWAP1 PUSH1 0x0 MSTORE PUSH1 0x20 PUSH1 0x0 KECCAK256 ADD PUSH1 0x0 SWAP1 SWAP2 SWAP1 SWAP2 SWAP1 SWAP2 POP SSTORE PUSH32 0x41D8C89C4A25824354AA1F198D80D06F2F93F903A2D180D1EA20429A4678C4A4 CALLER DUP4 DUP4 PUSH1 0x2 DUP1 SLOAD SWAP1 POP PUSH1 0x40 MLOAD PUSH2 0x508 SWAP5 SWAP4 SWAP3 SWAP2 SWAP1 PUSH2 0xB8C JUMP JUMPDEST PUSH1 0x40 MLOAD DUP1 SWAP2 SUB SWAP1 LOG1 POP POP JUMP JUMPDEST PUSH2 0x51C PUSH2 0x8E9 JUMP JUMPDEST PUSH1 0x0 DUP1 SLOAD SWAP1 PUSH2 0x100 EXP SWAP1 DIV PUSH20 0xFFFFFFFFFFFFFFFFFFFFFFFFFFFFFFFFFFFFFFFF AND PUSH20 0xFFFFFFFFFFFFFFFFFFFFFFFFFFFFFFFFFFFFFFFF AND CALLER PUSH20 0xFFFFFFFFFFFFFFFFFFFFFFFFFFFFFFFFFFFFFFFF AND EQ DUP1 PUSH2 0x5C4 JUMPI POP PUSH1 0x1 DUP1 PUSH1 0x0 CALLER PUSH20 0xFFFFFFFFFFFFFFFFFFFFFFFFFFFFFFFFFFFFFFFF AND PUSH20 0xFFFFFFFFFFFFFFFFFFFFFFFFFFFFFFFFFFFFFFFF AND DUP2 MSTORE PUSH1 0x20 ADD SWAP1 DUP2 MSTORE PUSH1 0x20 ADD PUSH1 0x0 KECCAK256 PUSH1 0x0 SWAP1 SLOAD SWAP1 PUSH2 0x100 EXP SWAP1 DIV PUSH1 0xFF AND PUSH1 0xFF AND EQ JUMPDEST PUSH2 0x5CD JUMPI PUSH1 0x0 DUP1 REVERT JUMPDEST PUSH1 0x0 PUSH1 0x2 DUP4 DUP2 SLOAD DUP2 LT PUSH2 0x5E3 JUMPI PUSH2 0x5E2 PUSH2 0xD3E JUMP JUMPDEST JUMPDEST SWAP1 PUSH1 0x0 MSTORE PUSH1 0x20 PUSH1 0x0 KECCAK256 SWAP1 PUSH1 0x4 MUL ADD PUSH1 0x40 MLOAD DUP1 PUSH1 0xA0 ADD PUSH1 0x40 MSTORE SWAP1 DUP2 PUSH1 0x0 DUP3 ADD PUSH1 0x0 SWAP1 SLOAD SWAP1 PUSH2 0x100 EXP SWAP1 DIV PUSH20 0xFFFFFFFFFFFFFFFFFFFFFFFFFFFFFFFFFFFFFFFF AND PUSH20 0xFFFFFFFFFFFFFFFFFFFFFFFFFFFFFFFFFFFFFFFF AND PUSH20 0xFFFFFFFFFFFFFFFFFFFFFFFFFFFFFFFFFFFFFFFF AND DUP2 MSTORE PUSH1 0x20 ADD PUSH1 0x1 DUP3 ADD PUSH1 0x0 SWAP1 SLOAD SWAP1 PUSH2 0x100 EXP SWAP1 DIV PUSH20 0xFFFFFFFFFFFFFFFFFFFFFFFFFFFFFFFFFFFFFFFF AND PUSH20 0xFFFFFFFFFFFFFFFFFFFFFFFFFFFFFFFFFFFFFFFF AND PUSH20 0xFFFFFFFFFFFFFFFFFFFFFFFFFFFFFFFFFFFFFFFF AND DUP2 MSTORE PUSH1 0x20 ADD PUSH1 0x2 DUP3 ADD SLOAD DUP2 MSTORE PUSH1 0x20 ADD PUSH1 0x3 DUP3 ADD PUSH1 0x0 SWAP1 SLOAD SWAP1 PUSH2 0x100 EXP SWAP1 DIV PUSH1 0xFF AND ISZERO ISZERO ISZERO ISZERO DUP2 MSTORE PUSH1 0x20 ADD PUSH1 0x3 DUP3 ADD PUSH1 0x1 SWAP1 SLOAD SWAP1 PUSH2 0x100 EXP SWAP1 DIV PUSH1 0xFF AND PUSH1 0xFF AND PUSH1 0xFF AND DUP2 MSTORE POP POP SWAP1 POP POP SWAP2 SWAP1 POP JUMP JUMPDEST PUSH1 0x0 DUP1 SLOAD SWAP1 PUSH2 0x100 EXP SWAP1 DIV PUSH20 0xFFFFFFFFFFFFFFFFFFFFFFFFFFFFFFFFFFFFFFFF AND PUSH20 0xFFFFFFFFFFFFFFFFFFFFFFFFFFFFFFFFFFFFFFFF AND CALLER PUSH20 0xFFFFFFFFFFFFFFFFFFFFFFFFFFFFFFFFFFFFFFFF AND EQ PUSH2 0x74A JUMPI PUSH1 0x0 DUP1 REVERT JUMPDEST PUSH1 0x1 DUP1 PUSH1 0x0 DUP4 PUSH20 0xFFFFFFFFFFFFFFFFFFFFFFFFFFFFFFFFFFFFFFFF AND PUSH20 0xFFFFFFFFFFFFFFFFFFFFFFFFFFFFFFFFFFFFFFFF AND DUP2 MSTORE PUSH1 0x20 ADD SWAP1 DUP2 MSTORE PUSH1 0x20 ADD PUSH1 0x0 KECCAK256 PUSH1 0x0 PUSH2 0x100 EXP DUP2 SLOAD DUP2 PUSH1 0xFF MUL NOT AND SWAP1 DUP4 PUSH1 0xFF AND MUL OR SWAP1 SSTORE POP POP JUMP JUMPDEST PUSH32 0xD241E73300212F6DF233A8E6D3146B88A9D4964E06621D54B5FF6AFEBA7B1B88 CALLER CALLVALUE PUSH1 0x40 MLOAD PUSH2 0x7D6 SWAP3 SWAP2 SWAP1 PUSH2 0xBD1 JUMP JUMPDEST PUSH1 0x40 MLOAD DUP1 SWAP2 SUB SWAP1 LOG1 JUMP JUMPDEST PUSH1 0x60 PUSH1 0x0 DUP1 SLOAD SWAP1 PUSH2 0x100 EXP SWAP1 DIV PUSH20 0xFFFFFFFFFFFFFFFFFFFFFFFFFFFFFFFFFFFFFFFF AND PUSH20 0xFFFFFFFFFFFFFFFFFFFFFFFFFFFFFFFFFFFFFFFF AND CALLER PUSH20 0xFFFFFFFFFFFFFFFFFFFFFFFFFFFFFFFFFFFFFFFF AND EQ DUP1 PUSH2 0x88A JUMPI POP PUSH1 0x1 DUP1 PUSH1 0x0 CALLER PUSH20 0xFFFFFFFFFFFFFFFFFFFFFFFFFFFFFFFFFFFFFFFF AND PUSH20 0xFFFFFFFFFFFFFFFFFFFFFFFFFFFFFFFFFFFFFFFF AND DUP2 MSTORE PUSH1 0x20 ADD SWAP1 DUP2 MSTORE PUSH1 0x20 ADD PUSH1 0x0 KECCAK256 PUSH1 0x0 SWAP1 SLOAD SWAP1 PUSH2 0x100 EXP SWAP1 DIV PUSH1 0xFF AND PUSH1 0xFF AND EQ JUMPDEST PUSH2 0x893 JUMPI PUSH1 0x0 DUP1 REVERT JUMPDEST PUSH1 0x4 DUP1 SLOAD DUP1 PUSH1 0x20 MUL PUSH1 0x20 ADD PUSH1 0x40 MLOAD SWAP1 DUP2 ADD PUSH1 0x40 MSTORE DUP1 SWAP3 SWAP2 SWAP1 DUP2 DUP2 MSTORE PUSH1 0x20 ADD DUP3 DUP1 SLOAD DUP1 ISZERO PUSH2 0x8DF JUMPI PUSH1 0x20 MUL DUP3 ADD SWAP2 SWAP1 PUSH1 0x0 MSTORE PUSH1 0x20 PUSH1 0x0 KECCAK256 SWAP1 JUMPDEST DUP2 SLOAD DUP2 MSTORE PUSH1 0x20 ADD SWAP1 PUSH1 0x1 ADD SWAP1 DUP1 DUP4 GT PUSH2 0x8CB JUMPI JUMPDEST POP POP POP POP POP SWAP1 POP SWAP1 JUMP JUMPDEST PUSH1 0x40 MLOAD DUP1 PUSH1 0xA0 ADD PUSH1 0x40 MSTORE DUP1 PUSH1 0x0 PUSH20 0xFFFFFFFFFFFFFFFFFFFFFFFFFFFFFFFFFFFFFFFF AND DUP2 MSTORE PUSH1 0x20 ADD PUSH1 0x0 PUSH20 0xFFFFFFFFFFFFFFFFFFFFFFFFFFFFFFFFFFFFFFFF AND DUP2 MSTORE PUSH1 0x20 ADD PUSH1 0x0 DUP2 MSTORE PUSH1 0x20 ADD PUSH1 0x0 ISZERO ISZERO DUP2 MSTORE PUSH1 0x20 ADD PUSH1 0x0 PUSH1 0xFF AND DUP2 MSTORE POP SWAP1 JUMP JUMPDEST PUSH1 0x0 DUP2 CALLDATALOAD SWAP1 POP PUSH2 0x958 DUP2 PUSH2 0xD9B JUMP JUMPDEST SWAP3 SWAP2 POP POP JUMP JUMPDEST PUSH1 0x0 DUP2 CALLDATALOAD SWAP1 POP PUSH2 0x96D DUP2 PUSH2 0xDB2 JUMP JUMPDEST SWAP3 SWAP2 POP POP JUMP JUMPDEST PUSH1 0x0 DUP2 CALLDATALOAD SWAP1 POP PUSH2 0x982 DUP2 PUSH2 0xDC9 JUMP JUMPDEST SWAP3 SWAP2 POP POP JUMP JUMPDEST PUSH1 0x0 PUSH1 0x20 DUP3 DUP5 SUB SLT ISZERO PUSH2 0x99E JUMPI PUSH2 0x99D PUSH2 0xD6D JUMP JUMPDEST JUMPDEST PUSH1 0x0 PUSH2 0x9AC DUP5 DUP3 DUP6 ADD PUSH2 0x949 JUMP JUMPDEST SWAP2 POP POP SWAP3 SWAP2 POP POP JUMP JUMPDEST PUSH1 0x0 DUP1 PUSH1 0x40 DUP4 DUP6 SUB SLT ISZERO PUSH2 0x9CC JUMPI PUSH2 0x9CB PUSH2 0xD6D JUMP JUMPDEST JUMPDEST PUSH1 0x0 PUSH2 0x9DA DUP6 DUP3 DUP7 ADD PUSH2 0x95E JUMP JUMPDEST SWAP3 POP POP PUSH1 0x20 PUSH2 0x9EB DUP6 DUP3 DUP7 ADD PUSH2 0x973 JUMP JUMPDEST SWAP2 POP POP SWAP3 POP SWAP3 SWAP1 POP JUMP JUMPDEST PUSH1 0x0 PUSH1 0x20 DUP3 DUP5 SUB SLT ISZERO PUSH2 0xA0B JUMPI PUSH2 0xA0A PUSH2 0xD6D JUMP JUMPDEST JUMPDEST PUSH1 0x0 PUSH2 0xA19 DUP5 DUP3 DUP6 ADD PUSH2 0x973 JUMP JUMPDEST SWAP2 POP POP SWAP3 SWAP2 POP POP JUMP JUMPDEST PUSH1 0x0 PUSH2 0xA2E DUP4 DUP4 PUSH2 0xB5F JUMP JUMPDEST PUSH1 0x20 DUP4 ADD SWAP1 POP SWAP3 SWAP2 POP POP JUMP JUMPDEST PUSH2 0xA43 DUP2 PUSH2 0xD08 JUMP JUMPDEST DUP3 MSTORE POP POP JUMP JUMPDEST PUSH2 0xA52 DUP2 PUSH2 0xCB3 JUMP JUMPDEST DUP3 MSTORE POP POP JUMP JUMPDEST PUSH2 0xA61 DUP2 PUSH2 0xCA1 JUMP JUMPDEST DUP3 MSTORE POP POP JUMP JUMPDEST PUSH1 0x0 PUSH2 0xA72 DUP3 PUSH2 0xC67 JUMP JUMPDEST PUSH2 0xA7C DUP2 DUP6 PUSH2 0xC7F JUMP JUMPDEST SWAP4 POP PUSH2 0xA87 DUP4 PUSH2 0xC57 JUMP JUMPDEST DUP1 PUSH1 0x0 JUMPDEST DUP4 DUP2 LT ISZERO PUSH2 0xAB8 JUMPI DUP2 MLOAD PUSH2 0xA9F DUP9 DUP3 PUSH2 0xA22 JUMP JUMPDEST SWAP8 POP PUSH2 0xAAA DUP4 PUSH2 0xC72 JUMP JUMPDEST SWAP3 POP POP PUSH1 0x1 DUP2 ADD SWAP1 POP PUSH2 0xA8B JUMP JUMPDEST POP DUP6 SWAP4 POP POP POP POP SWAP3 SWAP2 POP POP JUMP JUMPDEST PUSH2 0xACE DUP2 PUSH2 0xCC5 JUMP JUMPDEST DUP3 MSTORE POP POP JUMP JUMPDEST PUSH1 0x0 PUSH2 0xAE1 PUSH1 0x10 DUP4 PUSH2 0xC90 JUMP JUMPDEST SWAP2 POP PUSH2 0xAEC DUP3 PUSH2 0xD72 JUMP JUMPDEST PUSH1 0x20 DUP3 ADD SWAP1 POP SWAP2 SWAP1 POP JUMP JUMPDEST PUSH1 0xA0 DUP3 ADD PUSH1 0x0 DUP3 ADD MLOAD PUSH2 0xB0D PUSH1 0x0 DUP6 ADD DUP3 PUSH2 0xA49 JUMP JUMPDEST POP PUSH1 0x20 DUP3 ADD MLOAD PUSH2 0xB20 PUSH1 0x20 DUP6 ADD DUP3 PUSH2 0xA49 JUMP JUMPDEST POP PUSH1 0x40 DUP3 ADD MLOAD PUSH2 0xB33 PUSH1 0x40 DUP6 ADD DUP3 PUSH2 0xB5F JUMP JUMPDEST POP PUSH1 0x60 DUP3 ADD MLOAD PUSH2 0xB46 PUSH1 0x60 DUP6 ADD DUP3 PUSH2 0xAC5 JUMP JUMPDEST POP PUSH1 0x80 DUP3 ADD MLOAD PUSH2 0xB59 PUSH1 0x80 DUP6 ADD DUP3 PUSH2 0xB7D JUMP JUMPDEST POP POP POP POP JUMP JUMPDEST PUSH2 0xB68 DUP2 PUSH2 0xCF1 JUMP JUMPDEST DUP3 MSTORE POP POP JUMP JUMPDEST PUSH2 0xB77 DUP2 PUSH2 0xCF1 JUMP JUMPDEST DUP3 MSTORE POP POP JUMP JUMPDEST PUSH2 0xB86 DUP2 PUSH2 0xCFB JUMP JUMPDEST DUP3 MSTORE POP POP JUMP JUMPDEST PUSH1 0x0 PUSH1 0x80 DUP3 ADD SWAP1 POP PUSH2 0xBA1 PUSH1 0x0 DUP4 ADD DUP8 PUSH2 0xA58 JUMP JUMPDEST PUSH2 0xBAE PUSH1 0x20 DUP4 ADD DUP7 PUSH2 0xA3A JUMP JUMPDEST PUSH2 0xBBB PUSH1 0x40 DUP4 ADD DUP6 PUSH2 0xB6E JUMP JUMPDEST PUSH2 0xBC8 PUSH1 0x60 DUP4 ADD DUP5 PUSH2 0xB6E JUMP JUMPDEST SWAP6 SWAP5 POP POP POP POP POP JUMP JUMPDEST PUSH1 0x0 PUSH1 0x40 DUP3 ADD SWAP1 POP PUSH2 0xBE6 PUSH1 0x0 DUP4 ADD DUP6 PUSH2 0xA58 JUMP JUMPDEST PUSH2 0xBF3 PUSH1 0x20 DUP4 ADD DUP5 PUSH2 0xB6E JUMP JUMPDEST SWAP4 SWAP3 POP POP POP JUMP JUMPDEST PUSH1 0x0 PUSH1 0x20 DUP3 ADD SWAP1 POP DUP2 DUP2 SUB PUSH1 0x0 DUP4 ADD MSTORE PUSH2 0xC14 DUP2 DUP5 PUSH2 0xA67 JUMP JUMPDEST SWAP1 POP SWAP3 SWAP2 POP POP JUMP JUMPDEST PUSH1 0x0 PUSH1 0x20 DUP3 ADD SWAP1 POP DUP2 DUP2 SUB PUSH1 0x0 DUP4 ADD MSTORE PUSH2 0xC35 DUP2 PUSH2 0xAD4 JUMP JUMPDEST SWAP1 POP SWAP2 SWAP1 POP JUMP JUMPDEST PUSH1 0x0 PUSH1 0xA0 DUP3 ADD SWAP1 POP PUSH2 0xC51 PUSH1 0x0 DUP4 ADD DUP5 PUSH2 0xAF7 JUMP JUMPDEST SWAP3 SWAP2 POP POP JUMP JUMPDEST PUSH1 0x0 DUP2 SWAP1 POP PUSH1 0x20 DUP3 ADD SWAP1 POP SWAP2 SWAP1 POP JUMP JUMPDEST PUSH1 0x0 DUP2 MLOAD SWAP1 POP SWAP2 SWAP1 POP JUMP JUMPDEST PUSH1 0x0 PUSH1 0x20 DUP3 ADD SWAP1 POP SWAP2 SWAP1 POP JUMP JUMPDEST PUSH1 0x0 DUP3 DUP3 MSTORE PUSH1 0x20 DUP3 ADD SWAP1 POP SWAP3 SWAP2 POP POP JUMP JUMPDEST PUSH1 0x0 DUP3 DUP3 MSTORE PUSH1 0x20 DUP3 ADD SWAP1 POP SWAP3 SWAP2 POP POP JUMP JUMPDEST PUSH1 0x0 PUSH2 0xCAC DUP3 PUSH2 0xCD1 JUMP JUMPDEST SWAP1 POP SWAP2 SWAP1 POP JUMP JUMPDEST PUSH1 0x0 PUSH2 0xCBE DUP3 PUSH2 0xCD1 JUMP JUMPDEST SWAP1 POP SWAP2 SWAP1 POP JUMP JUMPDEST PUSH1 0x0 DUP2 ISZERO ISZERO SWAP1 POP SWAP2 SWAP1 POP JUMP JUMPDEST PUSH1 0x0 PUSH20 0xFFFFFFFFFFFFFFFFFFFFFFFFFFFFFFFFFFFFFFFF DUP3 AND SWAP1 POP SWAP2 SWAP1 POP JUMP JUMPDEST PUSH1 0x0 DUP2 SWAP1 POP SWAP2 SWAP1 POP JUMP JUMPDEST PUSH1 0x0 PUSH1 0xFF DUP3 AND SWAP1 POP SWAP2 SWAP1 POP JUMP JUMPDEST PUSH1 0x0 PUSH2 0xD13 DUP3 PUSH2 0xD1A JUMP JUMPDEST SWAP1 POP SWAP2 SWAP1 POP JUMP JUMPDEST PUSH1 0x0 PUSH2 0xD25 DUP3 PUSH2 0xD2C JUMP JUMPDEST SWAP1 POP SWAP2 SWAP1 POP JUMP JUMPDEST PUSH1 0x0 PUSH2 0xD37 DUP3 PUSH2 0xCD1 JUMP JUMPDEST SWAP1 POP SWAP2 SWAP1 POP JUMP JUMPDEST PUSH32 0x4E487B7100000000000000000000000000000000000000000000000000000000 PUSH1 0x0 MSTORE PUSH1 0x32 PUSH1 0x4 MSTORE PUSH1 0x24 PUSH1 0x0 REVERT JUMPDEST PUSH1 0x0 DUP1 REVERT JUMPDEST PUSH32 0x4E6F7420456E6F756768204D6F6E657900000000000000000000000000000000 PUSH1 0x0 DUP3 ADD MSTORE POP JUMP JUMPDEST PUSH2 0xDA4 DUP2 PUSH2 0xCA1 JUMP JUMPDEST DUP2 EQ PUSH2 0xDAF JUMPI PUSH1 0x0 DUP1 REVERT JUMPDEST POP JUMP JUMPDEST PUSH2 0xDBB DUP2 PUSH2 0xCB3 JUMP JUMPDEST DUP2 EQ PUSH2 0xDC6 JUMPI PUSH1 0x0 DUP1 REVERT JUMPDEST POP JUMP JUMPDEST PUSH2 0xDD2 DUP2 PUSH2 0xCF1 JUMP JUMPDEST DUP2 EQ PUSH2 0xDDD JUMPI PUSH1 0x0 DUP1 REVERT JUMPDEST POP JUMP INVALID LOG2 PUSH5 0x6970667358 0x22 SLT KECCAK256 0xD4 SWAP6 SWAP1 0xC3 PUSH32 0x7728CADD0B9C95CBC1682109210AF9406FA7892587CD94D149652F64736F6C63 NUMBER STOP ADDMOD SMOD STOP CALLER "
				},
				"gasEstimates": {
					"creation": {
						"codeDepositCost": "721200",
						"executionCost": "25019",
						"totalCost": "746219"
					},
					"external": {
						"addOwner(address)": "27001",
						"deposite()": "1761",
						"getPendingTransactions()": "infinite",
						"getTransaction(uint256)": "infinite",
						"removeOwner(address)": "27002",
						"transferTo(address,uint256)": "infinite",
						"withDraw(uint256)": "infinite"
					}
				},
				"methodIdentifiers": {
					"addOwner(address)": "7065cb48",
					"deposite()": "a50ec326",
					"getPendingTransactions()": "d11db83f",
					"getTransaction(uint256)": "33ea3dc8",
					"removeOwner(address)": "173825d9",
					"transferTo(address,uint256)": "2ccb1b30",
					"withDraw(uint256)": "14174f33"
				}
			},
			"storageLayout": {
				"storage": [
					{
						"astId": 3,
						"contract": "contracts/Multi_Sign_Wallet.sol:MultiSignWallet",
						"label": "_owner",
						"offset": 0,
						"slot": "0",
						"type": "t_address"
					},
					{
						"astId": 7,
						"contract": "contracts/Multi_Sign_Wallet.sol:MultiSignWallet",
						"label": "_owners",
						"offset": 0,
						"slot": "1",
						"type": "t_mapping(t_address,t_uint8)"
					},
					{
						"astId": 25,
						"contract": "contracts/Multi_Sign_Wallet.sol:MultiSignWallet",
						"label": "_transactions",
						"offset": 0,
						"slot": "2",
						"type": "t_array(t_struct(Transaction)21_storage)dyn_storage"
					},
					{
						"astId": 29,
						"contract": "contracts/Multi_Sign_Wallet.sol:MultiSignWallet",
						"label": "signed",
						"offset": 0,
						"slot": "3",
						"type": "t_mapping(t_address,t_uint8)"
					},
					{
						"astId": 32,
						"contract": "contracts/Multi_Sign_Wallet.sol:MultiSignWallet",
						"label": "_pendingTransactions",
						"offset": 0,
						"slot": "4",
						"type": "t_array(t_uint256)dyn_storage"
					}
				],
				"types": {
					"t_address": {
						"encoding": "inplace",
						"label": "address",
						"numberOfBytes": "20"
					},
					"t_address_payable": {
						"encoding": "inplace",
						"label": "address payable",
						"numberOfBytes": "20"
					},
					"t_array(t_struct(Transaction)21_storage)dyn_storage": {
						"base": "t_struct(Transaction)21_storage",
						"encoding": "dynamic_array",
						"label": "struct MultiSignWallet.Transaction[]",
						"numberOfBytes": "32"
					},
					"t_array(t_uint256)dyn_storage": {
						"base": "t_uint256",
						"encoding": "dynamic_array",
						"label": "uint256[]",
						"numberOfBytes": "32"
					},
					"t_bool": {
						"encoding": "inplace",
						"label": "bool",
						"numberOfBytes": "1"
					},
					"t_mapping(t_address,t_uint8)": {
						"encoding": "mapping",
						"key": "t_address",
						"label": "mapping(address => uint8)",
						"numberOfBytes": "32",
						"value": "t_uint8"
					},
					"t_struct(Transaction)21_storage": {
						"encoding": "inplace",
						"label": "struct MultiSignWallet.Transaction",
						"members": [
							{
								"astId": 12,
								"contract": "contracts/Multi_Sign_Wallet.sol:MultiSignWallet",
								"label": "sender",
								"offset": 0,
								"slot": "0",
								"type": "t_address_payable"
							},
							{
								"astId": 14,
								"contract": "contracts/Multi_Sign_Wallet.sol:MultiSignWallet",
								"label": "reciever",
								"offset": 0,
								"slot": "1",
								"type": "t_address_payable"
							},
							{
								"astId": 16,
								"contract": "contracts/Multi_Sign_Wallet.sol:MultiSignWallet",
								"label": "amount",
								"offset": 0,
								"slot": "2",
								"type": "t_uint256"
							},
							{
								"astId": 18,
								"contract": "contracts/Multi_Sign_Wallet.sol:MultiSignWallet",
								"label": "isSigned",
								"offset": 0,
								"slot": "3",
								"type": "t_bool"
							},
							{
								"astId": 20,
								"contract": "contracts/Multi_Sign_Wallet.sol:MultiSignWallet",
								"label": "signatureCount",
								"offset": 1,
								"slot": "3",
								"type": "t_uint8"
							}
						],
						"numberOfBytes": "128"
					},
					"t_uint256": {
						"encoding": "inplace",
						"label": "uint256",
						"numberOfBytes": "32"
					},
					"t_uint8": {
						"encoding": "inplace",
						"label": "uint8",
						"numberOfBytes": "1"
					}
				}
			},
			"userdoc": {
				"kind": "user",
				"methods": {},
				"version": 1
			}
		}
	}
}