{
	"contracts/Multi_Sign_Wallet.sol": {
		"MultiSignWallet": {
			"abi": [
				{
					"inputs": [],
					"stateMutability": "nonpayable",
					"type": "constructor"
				},
				{
					"anonymous": false,
					"inputs": [
						{
							"indexed": false,
							"internalType": "address",
							"name": "_from",
							"type": "address"
						},
						{
							"indexed": false,
							"internalType": "uint256",
							"name": "amount",
							"type": "uint256"
						}
					],
					"name": "DepositFunds",
					"type": "event"
				},
				{
					"anonymous": false,
					"inputs": [
						{
							"indexed": false,
							"internalType": "address",
							"name": "_from",
							"type": "address"
						},
						{
							"indexed": false,
							"internalType": "address",
							"name": "_to",
							"type": "address"
						},
						{
							"indexed": false,
							"internalType": "uint256",
							"name": "amount",
							"type": "uint256"
						},
						{
							"indexed": false,
							"internalType": "uint256",
							"name": "transactionId",
							"type": "uint256"
						}
					],
					"name": "TransactionCompleted",
					"type": "event"
				},
				{
					"anonymous": false,
					"inputs": [
						{
							"indexed": false,
							"internalType": "address",
							"name": "_from",
							"type": "address"
						},
						{
							"indexed": false,
							"internalType": "address",
							"name": "_to",
							"type": "address"
						},
						{
							"indexed": false,
							"internalType": "uint256",
							"name": "amount",
							"type": "uint256"
						},
						{
							"indexed": false,
							"internalType": "uint256",
							"name": "transactionId",
							"type": "uint256"
						}
					],
					"name": "TransactionCreated",
					"type": "event"
				},
				{
					"anonymous": false,
					"inputs": [
						{
							"indexed": false,
							"internalType": "address",
							"name": "_by",
							"type": "address"
						},
						{
							"indexed": false,
							"internalType": "uint256",
							"name": "transactionId",
							"type": "uint256"
						}
					],
					"name": "TransactionSigned",
					"type": "event"
				},
				{
					"inputs": [
						{
							"internalType": "address",
							"name": "owner",
							"type": "address"
						}
					],
					"name": "addOwner",
					"outputs": [],
					"stateMutability": "nonpayable",
					"type": "function"
				},
				{
					"inputs": [],
					"name": "deposite",
					"outputs": [],
					"stateMutability": "payable",
					"type": "function"
				},
				{
					"inputs": [],
					"name": "getPendingTransactions",
					"outputs": [
						{
							"internalType": "uint256[]",
							"name": "",
							"type": "uint256[]"
						}
					],
					"stateMutability": "view",
					"type": "function"
				},
				{
					"inputs": [
						{
							"internalType": "address",
							"name": "owner",
							"type": "address"
						}
					],
					"name": "removeOwner",
					"outputs": [],
					"stateMutability": "nonpayable",
					"type": "function"
				},
				{
					"inputs": [
						{
							"internalType": "address payable",
							"name": "_reciever",
							"type": "address"
						},
						{
							"internalType": "uint256",
							"name": "_amount",
							"type": "uint256"
						}
					],
					"name": "transferTo",
					"outputs": [],
					"stateMutability": "nonpayable",
					"type": "function"
				},
				{
					"inputs": [
						{
							"internalType": "uint256",
							"name": "amount",
							"type": "uint256"
						}
					],
					"name": "withDraw",
					"outputs": [],
					"stateMutability": "nonpayable",
					"type": "function"
				}
			],
			"devdoc": {
				"kind": "dev",
				"methods": {},
				"version": 1
			},
			"evm": {
				"assembly": "    /* \"contracts/Multi_Sign_Wallet.sol\":25:2901  contract MultiSignWallet {\r... */\n  mstore(0x40, 0x80)\n    /* \"contracts/Multi_Sign_Wallet.sol\":1732:1784  constructor() {\r... */\n  callvalue\n  dup1\n  iszero\n  tag_1\n  jumpi\n  0x00\n  dup1\n  revert\ntag_1:\n  pop\n    /* \"contracts/Multi_Sign_Wallet.sol\":1766:1776  msg.sender */\n  caller\n    /* \"contracts/Multi_Sign_Wallet.sol\":1757:1763  _owner */\n  0x00\n  dup1\n    /* \"contracts/Multi_Sign_Wallet.sol\":1757:1776  _owner = msg.sender */\n  0x0100\n  exp\n  dup2\n  sload\n  dup2\n  0xffffffffffffffffffffffffffffffffffffffff\n  mul\n  not\n  and\n  swap1\n  dup4\n  0xffffffffffffffffffffffffffffffffffffffff\n  and\n  mul\n  or\n  swap1\n  sstore\n  pop\n    /* \"contracts/Multi_Sign_Wallet.sol\":25:2901  contract MultiSignWallet {\r... */\n  dataSize(sub_0)\n  dup1\n  dataOffset(sub_0)\n  0x00\n  codecopy\n  0x00\n  return\nstop\n\nsub_0: assembly {\n        /* \"contracts/Multi_Sign_Wallet.sol\":25:2901  contract MultiSignWallet {\r... */\n      mstore(0x40, 0x80)\n      jumpi(tag_1, lt(calldatasize, 0x04))\n      shr(0xe0, calldataload(0x00))\n      dup1\n      0x14174f33\n      eq\n      tag_2\n      jumpi\n      dup1\n      0x173825d9\n      eq\n      tag_3\n      jumpi\n      dup1\n      0x2ccb1b30\n      eq\n      tag_4\n      jumpi\n      dup1\n      0x7065cb48\n      eq\n      tag_5\n      jumpi\n      dup1\n      0xa50ec326\n      eq\n      tag_6\n      jumpi\n      dup1\n      0xd11db83f\n      eq\n      tag_7\n      jumpi\n    tag_1:\n      0x00\n      dup1\n      revert\n        /* \"contracts/Multi_Sign_Wallet.sol\":2079:2174  function withDraw(uint amount) public {\r... */\n    tag_2:\n      callvalue\n      dup1\n      iszero\n      tag_8\n      jumpi\n      0x00\n      dup1\n      revert\n    tag_8:\n      pop\n      tag_9\n      0x04\n      dup1\n      calldatasize\n      sub\n      dup2\n      add\n      swap1\n      tag_10\n      swap2\n      swap1\n      tag_11\n      jump\t// in\n    tag_10:\n      tag_12\n      jump\t// in\n    tag_9:\n      stop\n        /* \"contracts/Multi_Sign_Wallet.sol\":1884:1971  function removeOwner(address owner) public isOwner{\r... */\n    tag_3:\n      callvalue\n      dup1\n      iszero\n      tag_13\n      jumpi\n      0x00\n      dup1\n      revert\n    tag_13:\n      pop\n      tag_14\n      0x04\n      dup1\n      calldatasize\n      sub\n      dup2\n      add\n      swap1\n      tag_15\n      swap2\n      swap1\n      tag_16\n      jump\t// in\n    tag_15:\n      tag_17\n      jump\t// in\n    tag_14:\n      stop\n        /* \"contracts/Multi_Sign_Wallet.sol\":2182:2756  function transferTo(address payable _reciever,uint _amount) public validOwner{\r... */\n    tag_4:\n      callvalue\n      dup1\n      iszero\n      tag_18\n      jumpi\n      0x00\n      dup1\n      revert\n    tag_18:\n      pop\n      tag_19\n      0x04\n      dup1\n      calldatasize\n      sub\n      dup2\n      add\n      swap1\n      tag_20\n      swap2\n      swap1\n      tag_21\n      jump\t// in\n    tag_20:\n      tag_22\n      jump\t// in\n    tag_19:\n      stop\n        /* \"contracts/Multi_Sign_Wallet.sol\":1792:1876  function addOwner(address owner) public isOwner{\r... */\n    tag_5:\n      callvalue\n      dup1\n      iszero\n      tag_23\n      jumpi\n      0x00\n      dup1\n      revert\n    tag_23:\n      pop\n      tag_24\n      0x04\n      dup1\n      calldatasize\n      sub\n      dup2\n      add\n      swap1\n      tag_25\n      swap2\n      swap1\n      tag_16\n      jump\t// in\n    tag_25:\n      tag_26\n      jump\t// in\n    tag_24:\n      stop\n        /* \"contracts/Multi_Sign_Wallet.sol\":1979:2071  function deposite() public payable{\r... */\n    tag_6:\n      tag_27\n      tag_28\n      jump\t// in\n    tag_27:\n      stop\n        /* \"contracts/Multi_Sign_Wallet.sol\":2764:2890  function getPendingTransactions() public view validOwner returns(uint[] memory) {\r... */\n    tag_7:\n      callvalue\n      dup1\n      iszero\n      tag_29\n      jumpi\n      0x00\n      dup1\n      revert\n    tag_29:\n      pop\n      tag_30\n      tag_31\n      jump\t// in\n    tag_30:\n      mload(0x40)\n      tag_32\n      swap2\n      swap1\n      tag_33\n      jump\t// in\n    tag_32:\n      mload(0x40)\n      dup1\n      swap2\n      sub\n      swap1\n      return\n        /* \"contracts/Multi_Sign_Wallet.sol\":2079:2174  function withDraw(uint amount) public {\r... */\n    tag_12:\n        /* \"contracts/Multi_Sign_Wallet.sol\":2128:2166  transferTo(payable(msg.sender),amount) */\n      tag_35\n        /* \"contracts/Multi_Sign_Wallet.sol\":2147:2157  msg.sender */\n      caller\n        /* \"contracts/Multi_Sign_Wallet.sol\":2159:2165  amount */\n      dup3\n        /* \"contracts/Multi_Sign_Wallet.sol\":2128:2138  transferTo */\n      tag_22\n        /* \"contracts/Multi_Sign_Wallet.sol\":2128:2166  transferTo(payable(msg.sender),amount) */\n      jump\t// in\n    tag_35:\n        /* \"contracts/Multi_Sign_Wallet.sol\":2079:2174  function withDraw(uint amount) public {\r... */\n      pop\n      jump\t// out\n        /* \"contracts/Multi_Sign_Wallet.sol\":1884:1971  function removeOwner(address owner) public isOwner{\r... */\n    tag_17:\n        /* \"contracts/Multi_Sign_Wallet.sol\":1477:1483  _owner */\n      0x00\n      dup1\n      sload\n      swap1\n      0x0100\n      exp\n      swap1\n      div\n      0xffffffffffffffffffffffffffffffffffffffff\n      and\n        /* \"contracts/Multi_Sign_Wallet.sol\":1465:1483  msg.sender==_owner */\n      0xffffffffffffffffffffffffffffffffffffffff\n      and\n        /* \"contracts/Multi_Sign_Wallet.sol\":1465:1475  msg.sender */\n      caller\n        /* \"contracts/Multi_Sign_Wallet.sol\":1465:1483  msg.sender==_owner */\n      0xffffffffffffffffffffffffffffffffffffffff\n      and\n      eq\n        /* \"contracts/Multi_Sign_Wallet.sol\":1457:1484  require(msg.sender==_owner) */\n      tag_37\n      jumpi\n      0x00\n      dup1\n      revert\n    tag_37:\n        /* \"contracts/Multi_Sign_Wallet.sol\":1962:1963  0 */\n      0x00\n        /* \"contracts/Multi_Sign_Wallet.sol\":1945:1952  _owners */\n      0x01\n        /* \"contracts/Multi_Sign_Wallet.sol\":1945:1959  _owners[owner] */\n      0x00\n        /* \"contracts/Multi_Sign_Wallet.sol\":1953:1958  owner */\n      dup4\n        /* \"contracts/Multi_Sign_Wallet.sol\":1945:1959  _owners[owner] */\n      0xffffffffffffffffffffffffffffffffffffffff\n      and\n      0xffffffffffffffffffffffffffffffffffffffff\n      and\n      dup2\n      mstore\n      0x20\n      add\n      swap1\n      dup2\n      mstore\n      0x20\n      add\n      0x00\n      keccak256\n      0x00\n        /* \"contracts/Multi_Sign_Wallet.sol\":1945:1963  _owners[owner] = 0 */\n      0x0100\n      exp\n      dup2\n      sload\n      dup2\n      0xff\n      mul\n      not\n      and\n      swap1\n      dup4\n      0xff\n      and\n      mul\n      or\n      swap1\n      sstore\n      pop\n        /* \"contracts/Multi_Sign_Wallet.sol\":1884:1971  function removeOwner(address owner) public isOwner{\r... */\n      pop\n      jump\t// out\n        /* \"contracts/Multi_Sign_Wallet.sol\":2182:2756  function transferTo(address payable _reciever,uint _amount) public validOwner{\r... */\n    tag_22:\n        /* \"contracts/Multi_Sign_Wallet.sol\":1642:1648  _owner */\n      0x00\n      dup1\n      sload\n      swap1\n      0x0100\n      exp\n      swap1\n      div\n      0xffffffffffffffffffffffffffffffffffffffff\n      and\n        /* \"contracts/Multi_Sign_Wallet.sol\":1628:1648  msg.sender == _owner */\n      0xffffffffffffffffffffffffffffffffffffffff\n      and\n        /* \"contracts/Multi_Sign_Wallet.sol\":1628:1638  msg.sender */\n      caller\n        /* \"contracts/Multi_Sign_Wallet.sol\":1628:1648  msg.sender == _owner */\n      0xffffffffffffffffffffffffffffffffffffffff\n      and\n      eq\n        /* \"contracts/Multi_Sign_Wallet.sol\":1628:1676  msg.sender == _owner || _owners[msg.sender] == 1 */\n      dup1\n      tag_40\n      jumpi\n      pop\n        /* \"contracts/Multi_Sign_Wallet.sol\":1675:1676  1 */\n      0x01\n        /* \"contracts/Multi_Sign_Wallet.sol\":1652:1659  _owners */\n      dup1\n        /* \"contracts/Multi_Sign_Wallet.sol\":1652:1671  _owners[msg.sender] */\n      0x00\n        /* \"contracts/Multi_Sign_Wallet.sol\":1660:1670  msg.sender */\n      caller\n        /* \"contracts/Multi_Sign_Wallet.sol\":1652:1671  _owners[msg.sender] */\n      0xffffffffffffffffffffffffffffffffffffffff\n      and\n      0xffffffffffffffffffffffffffffffffffffffff\n      and\n      dup2\n      mstore\n      0x20\n      add\n      swap1\n      dup2\n      mstore\n      0x20\n      add\n      0x00\n      keccak256\n      0x00\n      swap1\n      sload\n      swap1\n      0x0100\n      exp\n      swap1\n      div\n      0xff\n      and\n        /* \"contracts/Multi_Sign_Wallet.sol\":1652:1676  _owners[msg.sender] == 1 */\n      0xff\n      and\n      eq\n        /* \"contracts/Multi_Sign_Wallet.sol\":1628:1676  msg.sender == _owner || _owners[msg.sender] == 1 */\n    tag_40:\n        /* \"contracts/Multi_Sign_Wallet.sol\":1619:1677  require (msg.sender == _owner || _owners[msg.sender] == 1) */\n      tag_41\n      jumpi\n      0x00\n      dup1\n      revert\n    tag_41:\n        /* \"contracts/Multi_Sign_Wallet.sol\":2303:2310  _amount */\n      dup1\n        /* \"contracts/Multi_Sign_Wallet.sol\":2278:2299  address(this).balance */\n      selfbalance\n        /* \"contracts/Multi_Sign_Wallet.sol\":2278:2310  address(this).balance >= _amount */\n      lt\n      iszero\n        /* \"contracts/Multi_Sign_Wallet.sol\":2270:2333  require(address(this).balance >= _amount ,  \"Not Enough Money\") */\n      tag_43\n      jumpi\n      mload(0x40)\n      0x08c379a000000000000000000000000000000000000000000000000000000000\n      dup2\n      mstore\n      0x04\n      add\n      tag_44\n      swap1\n      tag_45\n      jump\t// in\n    tag_44:\n      mload(0x40)\n      dup1\n      swap2\n      sub\n      swap1\n      revert\n    tag_43:\n        /* \"contracts/Multi_Sign_Wallet.sol\":2344:2357  _transactions */\n      0x02\n        /* \"contracts/Multi_Sign_Wallet.sol\":2363:2602  Transaction(\r... */\n      mload(0x40)\n      dup1\n      0xa0\n      add\n      0x40\n      mstore\n      dup1\n        /* \"contracts/Multi_Sign_Wallet.sol\":2423:2433  msg.sender */\n      caller\n        /* \"contracts/Multi_Sign_Wallet.sol\":2363:2602  Transaction(\r... */\n      0xffffffffffffffffffffffffffffffffffffffff\n      and\n      dup2\n      mstore\n      0x20\n      add\n        /* \"contracts/Multi_Sign_Wallet.sol\":2463:2472  _reciever */\n      dup5\n        /* \"contracts/Multi_Sign_Wallet.sol\":2363:2602  Transaction(\r... */\n      0xffffffffffffffffffffffffffffffffffffffff\n      and\n      dup2\n      mstore\n      0x20\n      add\n        /* \"contracts/Multi_Sign_Wallet.sol\":2499:2506  _amount */\n      dup4\n        /* \"contracts/Multi_Sign_Wallet.sol\":2363:2602  Transaction(\r... */\n      dup2\n      mstore\n      0x20\n      add\n        /* \"contracts/Multi_Sign_Wallet.sol\":2535:2540  false */\n      0x00\n        /* \"contracts/Multi_Sign_Wallet.sol\":2363:2602  Transaction(\r... */\n      iszero\n      iszero\n      dup2\n      mstore\n      0x20\n      add\n        /* \"contracts/Multi_Sign_Wallet.sol\":2575:2576  0 */\n      0x00\n        /* \"contracts/Multi_Sign_Wallet.sol\":2363:2602  Transaction(\r... */\n      0xff\n      and\n      dup2\n      mstore\n      pop\n        /* \"contracts/Multi_Sign_Wallet.sol\":2344:2603  _transactions.push(Transaction(\r... */\n      swap1\n      dup1\n      0x01\n      dup2\n      sload\n      add\n      dup1\n      dup3\n      sstore\n      dup1\n      swap2\n      pop\n      pop\n      0x01\n      swap1\n      sub\n      swap1\n      0x00\n      mstore\n      keccak256(0x00, 0x20)\n      swap1\n      0x04\n      mul\n      add\n      0x00\n      swap1\n      swap2\n      swap1\n      swap2\n      swap1\n      swap2\n      pop\n      0x00\n      dup3\n      add\n      mload\n      dup2\n      0x00\n      add\n      exp(0x0100, 0x00)\n      dup2\n      sload\n      dup2\n      0xffffffffffffffffffffffffffffffffffffffff\n      mul\n      not\n      and\n      swap1\n      dup4\n      0xffffffffffffffffffffffffffffffffffffffff\n      and\n      mul\n      or\n      swap1\n      sstore\n      pop\n      0x20\n      dup3\n      add\n      mload\n      dup2\n      0x01\n      add\n      exp(0x0100, 0x00)\n      dup2\n      sload\n      dup2\n      0xffffffffffffffffffffffffffffffffffffffff\n      mul\n      not\n      and\n      swap1\n      dup4\n      0xffffffffffffffffffffffffffffffffffffffff\n      and\n      mul\n      or\n      swap1\n      sstore\n      pop\n      0x40\n      dup3\n      add\n      mload\n      dup2\n      0x02\n      add\n      sstore\n      0x60\n      dup3\n      add\n      mload\n      dup2\n      0x03\n      add\n      exp(0x0100, 0x00)\n      dup2\n      sload\n      dup2\n      0xff\n      mul\n      not\n      and\n      swap1\n      dup4\n      iszero\n      iszero\n      mul\n      or\n      swap1\n      sstore\n      pop\n      0x80\n      dup3\n      add\n      mload\n      dup2\n      0x03\n      add\n      exp(0x0100, 0x01)\n      dup2\n      sload\n      dup2\n      0xff\n      mul\n      not\n      and\n      swap1\n      dup4\n      0xff\n      and\n      mul\n      or\n      swap1\n      sstore\n      pop\n      pop\n      pop\n        /* \"contracts/Multi_Sign_Wallet.sol\":2616:2636  _pendingTransactions */\n      0x04\n        /* \"contracts/Multi_Sign_Wallet.sol\":2642:2655  _transactions */\n      0x02\n        /* \"contracts/Multi_Sign_Wallet.sol\":2642:2662  _transactions.length */\n      dup1\n      sload\n      swap1\n      pop\n        /* \"contracts/Multi_Sign_Wallet.sol\":2616:2663  _pendingTransactions.push(_transactions.length) */\n      swap1\n      dup1\n      0x01\n      dup2\n      sload\n      add\n      dup1\n      dup3\n      sstore\n      dup1\n      swap2\n      pop\n      pop\n      0x01\n      swap1\n      sub\n      swap1\n      0x00\n      mstore\n      keccak256(0x00, 0x20)\n      add\n      0x00\n      swap1\n      swap2\n      swap1\n      swap2\n      swap1\n      swap2\n      pop\n      sstore\n        /* \"contracts/Multi_Sign_Wallet.sol\":2679:2748  TransactionCreated(msg.sender,_reciever,_amount,_transactions.length) */\n      0x41d8c89c4a25824354aa1f198d80d06f2f93f903a2d180d1ea20429a4678c4a4\n        /* \"contracts/Multi_Sign_Wallet.sol\":2698:2708  msg.sender */\n      caller\n        /* \"contracts/Multi_Sign_Wallet.sol\":2709:2718  _reciever */\n      dup4\n        /* \"contracts/Multi_Sign_Wallet.sol\":2719:2726  _amount */\n      dup4\n        /* \"contracts/Multi_Sign_Wallet.sol\":2727:2740  _transactions */\n      0x02\n        /* \"contracts/Multi_Sign_Wallet.sol\":2727:2747  _transactions.length */\n      dup1\n      sload\n      swap1\n      pop\n        /* \"contracts/Multi_Sign_Wallet.sol\":2679:2748  TransactionCreated(msg.sender,_reciever,_amount,_transactions.length) */\n      mload(0x40)\n      tag_48\n      swap5\n      swap4\n      swap3\n      swap2\n      swap1\n      tag_49\n      jump\t// in\n    tag_48:\n      mload(0x40)\n      dup1\n      swap2\n      sub\n      swap1\n      log1\n        /* \"contracts/Multi_Sign_Wallet.sol\":2182:2756  function transferTo(address payable _reciever,uint _amount) public validOwner{\r... */\n      pop\n      pop\n      jump\t// out\n        /* \"contracts/Multi_Sign_Wallet.sol\":1792:1876  function addOwner(address owner) public isOwner{\r... */\n    tag_26:\n        /* \"contracts/Multi_Sign_Wallet.sol\":1477:1483  _owner */\n      0x00\n      dup1\n      sload\n      swap1\n      0x0100\n      exp\n      swap1\n      div\n      0xffffffffffffffffffffffffffffffffffffffff\n      and\n        /* \"contracts/Multi_Sign_Wallet.sol\":1465:1483  msg.sender==_owner */\n      0xffffffffffffffffffffffffffffffffffffffff\n      and\n        /* \"contracts/Multi_Sign_Wallet.sol\":1465:1475  msg.sender */\n      caller\n        /* \"contracts/Multi_Sign_Wallet.sol\":1465:1483  msg.sender==_owner */\n      0xffffffffffffffffffffffffffffffffffffffff\n      and\n      eq\n        /* \"contracts/Multi_Sign_Wallet.sol\":1457:1484  require(msg.sender==_owner) */\n      tag_51\n      jumpi\n      0x00\n      dup1\n      revert\n    tag_51:\n        /* \"contracts/Multi_Sign_Wallet.sol\":1867:1868  1 */\n      0x01\n        /* \"contracts/Multi_Sign_Wallet.sol\":1850:1857  _owners */\n      dup1\n        /* \"contracts/Multi_Sign_Wallet.sol\":1850:1864  _owners[owner] */\n      0x00\n        /* \"contracts/Multi_Sign_Wallet.sol\":1858:1863  owner */\n      dup4\n        /* \"contracts/Multi_Sign_Wallet.sol\":1850:1864  _owners[owner] */\n      0xffffffffffffffffffffffffffffffffffffffff\n      and\n      0xffffffffffffffffffffffffffffffffffffffff\n      and\n      dup2\n      mstore\n      0x20\n      add\n      swap1\n      dup2\n      mstore\n      0x20\n      add\n      0x00\n      keccak256\n      0x00\n        /* \"contracts/Multi_Sign_Wallet.sol\":1850:1868  _owners[owner] = 1 */\n      0x0100\n      exp\n      dup2\n      sload\n      dup2\n      0xff\n      mul\n      not\n      and\n      swap1\n      dup4\n      0xff\n      and\n      mul\n      or\n      swap1\n      sstore\n      pop\n        /* \"contracts/Multi_Sign_Wallet.sol\":1792:1876  function addOwner(address owner) public isOwner{\r... */\n      pop\n      jump\t// out\n        /* \"contracts/Multi_Sign_Wallet.sol\":1979:2071  function deposite() public payable{\r... */\n    tag_28:\n        /* \"contracts/Multi_Sign_Wallet.sol\":2029:2063  DepositFunds(msg.sender,msg.value) */\n      0xd241e73300212f6df233a8e6d3146b88a9d4964e06621d54b5ff6afeba7b1b88\n        /* \"contracts/Multi_Sign_Wallet.sol\":2042:2052  msg.sender */\n      caller\n        /* \"contracts/Multi_Sign_Wallet.sol\":2053:2062  msg.value */\n      callvalue\n        /* \"contracts/Multi_Sign_Wallet.sol\":2029:2063  DepositFunds(msg.sender,msg.value) */\n      mload(0x40)\n      tag_54\n      swap3\n      swap2\n      swap1\n      tag_55\n      jump\t// in\n    tag_54:\n      mload(0x40)\n      dup1\n      swap2\n      sub\n      swap1\n      log1\n        /* \"contracts/Multi_Sign_Wallet.sol\":1979:2071  function deposite() public payable{\r... */\n      jump\t// out\n        /* \"contracts/Multi_Sign_Wallet.sol\":2764:2890  function getPendingTransactions() public view validOwner returns(uint[] memory) {\r... */\n    tag_31:\n        /* \"contracts/Multi_Sign_Wallet.sol\":2829:2842  uint[] memory */\n      0x60\n        /* \"contracts/Multi_Sign_Wallet.sol\":1642:1648  _owner */\n      0x00\n      dup1\n      sload\n      swap1\n      0x0100\n      exp\n      swap1\n      div\n      0xffffffffffffffffffffffffffffffffffffffff\n      and\n        /* \"contracts/Multi_Sign_Wallet.sol\":1628:1648  msg.sender == _owner */\n      0xffffffffffffffffffffffffffffffffffffffff\n      and\n        /* \"contracts/Multi_Sign_Wallet.sol\":1628:1638  msg.sender */\n      caller\n        /* \"contracts/Multi_Sign_Wallet.sol\":1628:1648  msg.sender == _owner */\n      0xffffffffffffffffffffffffffffffffffffffff\n      and\n      eq\n        /* \"contracts/Multi_Sign_Wallet.sol\":1628:1676  msg.sender == _owner || _owners[msg.sender] == 1 */\n      dup1\n      tag_57\n      jumpi\n      pop\n        /* \"contracts/Multi_Sign_Wallet.sol\":1675:1676  1 */\n      0x01\n        /* \"contracts/Multi_Sign_Wallet.sol\":1652:1659  _owners */\n      dup1\n        /* \"contracts/Multi_Sign_Wallet.sol\":1652:1671  _owners[msg.sender] */\n      0x00\n        /* \"contracts/Multi_Sign_Wallet.sol\":1660:1670  msg.sender */\n      caller\n        /* \"contracts/Multi_Sign_Wallet.sol\":1652:1671  _owners[msg.sender] */\n      0xffffffffffffffffffffffffffffffffffffffff\n      and\n      0xffffffffffffffffffffffffffffffffffffffff\n      and\n      dup2\n      mstore\n      0x20\n      add\n      swap1\n      dup2\n      mstore\n      0x20\n      add\n      0x00\n      keccak256\n      0x00\n      swap1\n      sload\n      swap1\n      0x0100\n      exp\n      swap1\n      div\n      0xff\n      and\n        /* \"contracts/Multi_Sign_Wallet.sol\":1652:1676  _owners[msg.sender] == 1 */\n      0xff\n      and\n      eq\n        /* \"contracts/Multi_Sign_Wallet.sol\":1628:1676  msg.sender == _owner || _owners[msg.sender] == 1 */\n    tag_57:\n        /* \"contracts/Multi_Sign_Wallet.sol\":1619:1677  require (msg.sender == _owner || _owners[msg.sender] == 1) */\n      tag_58\n      jumpi\n      0x00\n      dup1\n      revert\n    tag_58:\n        /* \"contracts/Multi_Sign_Wallet.sol\":2862:2882  _pendingTransactions */\n      0x04\n        /* \"contracts/Multi_Sign_Wallet.sol\":2855:2882  return _pendingTransactions */\n      dup1\n      sload\n      dup1\n      0x20\n      mul\n      0x20\n      add\n      mload(0x40)\n      swap1\n      dup2\n      add\n      0x40\n      mstore\n      dup1\n      swap3\n      swap2\n      swap1\n      dup2\n      dup2\n      mstore\n      0x20\n      add\n      dup3\n      dup1\n      sload\n      dup1\n      iszero\n      tag_60\n      jumpi\n      0x20\n      mul\n      dup3\n      add\n      swap2\n      swap1\n      0x00\n      mstore\n      keccak256(0x00, 0x20)\n      swap1\n    tag_61:\n      dup2\n      sload\n      dup2\n      mstore\n      0x20\n      add\n      swap1\n      0x01\n      add\n      swap1\n      dup1\n      dup4\n      gt\n      tag_61\n      jumpi\n    tag_60:\n      pop\n      pop\n      pop\n      pop\n      pop\n      swap1\n      pop\n        /* \"contracts/Multi_Sign_Wallet.sol\":2764:2890  function getPendingTransactions() public view validOwner returns(uint[] memory) {\r... */\n      swap1\n      jump\t// out\n        /* \"#utility.yul\":7:146   */\n    tag_63:\n        /* \"#utility.yul\":53:58   */\n      0x00\n        /* \"#utility.yul\":91:97   */\n      dup2\n        /* \"#utility.yul\":78:98   */\n      calldataload\n        /* \"#utility.yul\":69:98   */\n      swap1\n      pop\n        /* \"#utility.yul\":107:140   */\n      tag_65\n        /* \"#utility.yul\":134:139   */\n      dup2\n        /* \"#utility.yul\":107:140   */\n      tag_66\n      jump\t// in\n    tag_65:\n        /* \"#utility.yul\":7:146   */\n      swap3\n      swap2\n      pop\n      pop\n      jump\t// out\n        /* \"#utility.yul\":152:307   */\n    tag_67:\n        /* \"#utility.yul\":206:211   */\n      0x00\n        /* \"#utility.yul\":244:250   */\n      dup2\n        /* \"#utility.yul\":231:251   */\n      calldataload\n        /* \"#utility.yul\":222:251   */\n      swap1\n      pop\n        /* \"#utility.yul\":260:301   */\n      tag_69\n        /* \"#utility.yul\":295:300   */\n      dup2\n        /* \"#utility.yul\":260:301   */\n      tag_70\n      jump\t// in\n    tag_69:\n        /* \"#utility.yul\":152:307   */\n      swap3\n      swap2\n      pop\n      pop\n      jump\t// out\n        /* \"#utility.yul\":313:452   */\n    tag_71:\n        /* \"#utility.yul\":359:364   */\n      0x00\n        /* \"#utility.yul\":397:403   */\n      dup2\n        /* \"#utility.yul\":384:404   */\n      calldataload\n        /* \"#utility.yul\":375:404   */\n      swap1\n      pop\n        /* \"#utility.yul\":413:446   */\n      tag_73\n        /* \"#utility.yul\":440:445   */\n      dup2\n        /* \"#utility.yul\":413:446   */\n      tag_74\n      jump\t// in\n    tag_73:\n        /* \"#utility.yul\":313:452   */\n      swap3\n      swap2\n      pop\n      pop\n      jump\t// out\n        /* \"#utility.yul\":458:787   */\n    tag_16:\n        /* \"#utility.yul\":517:523   */\n      0x00\n        /* \"#utility.yul\":566:568   */\n      0x20\n        /* \"#utility.yul\":554:563   */\n      dup3\n        /* \"#utility.yul\":545:552   */\n      dup5\n        /* \"#utility.yul\":541:564   */\n      sub\n        /* \"#utility.yul\":537:569   */\n      slt\n        /* \"#utility.yul\":534:653   */\n      iszero\n      tag_76\n      jumpi\n        /* \"#utility.yul\":572:651   */\n      tag_77\n      tag_78\n      jump\t// in\n    tag_77:\n        /* \"#utility.yul\":534:653   */\n    tag_76:\n        /* \"#utility.yul\":692:693   */\n      0x00\n        /* \"#utility.yul\":717:770   */\n      tag_79\n        /* \"#utility.yul\":762:769   */\n      dup5\n        /* \"#utility.yul\":753:759   */\n      dup3\n        /* \"#utility.yul\":742:751   */\n      dup6\n        /* \"#utility.yul\":738:760   */\n      add\n        /* \"#utility.yul\":717:770   */\n      tag_63\n      jump\t// in\n    tag_79:\n        /* \"#utility.yul\":707:770   */\n      swap2\n      pop\n        /* \"#utility.yul\":663:780   */\n      pop\n        /* \"#utility.yul\":458:787   */\n      swap3\n      swap2\n      pop\n      pop\n      jump\t// out\n        /* \"#utility.yul\":793:1283   */\n    tag_21:\n        /* \"#utility.yul\":869:875   */\n      0x00\n        /* \"#utility.yul\":877:883   */\n      dup1\n        /* \"#utility.yul\":926:928   */\n      0x40\n        /* \"#utility.yul\":914:923   */\n      dup4\n        /* \"#utility.yul\":905:912   */\n      dup6\n        /* \"#utility.yul\":901:924   */\n      sub\n        /* \"#utility.yul\":897:929   */\n      slt\n        /* \"#utility.yul\":894:1013   */\n      iszero\n      tag_81\n      jumpi\n        /* \"#utility.yul\":932:1011   */\n      tag_82\n      tag_78\n      jump\t// in\n    tag_82:\n        /* \"#utility.yul\":894:1013   */\n    tag_81:\n        /* \"#utility.yul\":1052:1053   */\n      0x00\n        /* \"#utility.yul\":1077:1138   */\n      tag_83\n        /* \"#utility.yul\":1130:1137   */\n      dup6\n        /* \"#utility.yul\":1121:1127   */\n      dup3\n        /* \"#utility.yul\":1110:1119   */\n      dup7\n        /* \"#utility.yul\":1106:1128   */\n      add\n        /* \"#utility.yul\":1077:1138   */\n      tag_67\n      jump\t// in\n    tag_83:\n        /* \"#utility.yul\":1067:1138   */\n      swap3\n      pop\n        /* \"#utility.yul\":1023:1148   */\n      pop\n        /* \"#utility.yul\":1187:1189   */\n      0x20\n        /* \"#utility.yul\":1213:1266   */\n      tag_84\n        /* \"#utility.yul\":1258:1265   */\n      dup6\n        /* \"#utility.yul\":1249:1255   */\n      dup3\n        /* \"#utility.yul\":1238:1247   */\n      dup7\n        /* \"#utility.yul\":1234:1256   */\n      add\n        /* \"#utility.yul\":1213:1266   */\n      tag_71\n      jump\t// in\n    tag_84:\n        /* \"#utility.yul\":1203:1266   */\n      swap2\n      pop\n        /* \"#utility.yul\":1158:1276   */\n      pop\n        /* \"#utility.yul\":793:1283   */\n      swap3\n      pop\n      swap3\n      swap1\n      pop\n      jump\t// out\n        /* \"#utility.yul\":1289:1618   */\n    tag_11:\n        /* \"#utility.yul\":1348:1354   */\n      0x00\n        /* \"#utility.yul\":1397:1399   */\n      0x20\n        /* \"#utility.yul\":1385:1394   */\n      dup3\n        /* \"#utility.yul\":1376:1383   */\n      dup5\n        /* \"#utility.yul\":1372:1395   */\n      sub\n        /* \"#utility.yul\":1368:1400   */\n      slt\n        /* \"#utility.yul\":1365:1484   */\n      iszero\n      tag_86\n      jumpi\n        /* \"#utility.yul\":1403:1482   */\n      tag_87\n      tag_78\n      jump\t// in\n    tag_87:\n        /* \"#utility.yul\":1365:1484   */\n    tag_86:\n        /* \"#utility.yul\":1523:1524   */\n      0x00\n        /* \"#utility.yul\":1548:1601   */\n      tag_88\n        /* \"#utility.yul\":1593:1600   */\n      dup5\n        /* \"#utility.yul\":1584:1590   */\n      dup3\n        /* \"#utility.yul\":1573:1582   */\n      dup6\n        /* \"#utility.yul\":1569:1591   */\n      add\n        /* \"#utility.yul\":1548:1601   */\n      tag_71\n      jump\t// in\n    tag_88:\n        /* \"#utility.yul\":1538:1601   */\n      swap2\n      pop\n        /* \"#utility.yul\":1494:1611   */\n      pop\n        /* \"#utility.yul\":1289:1618   */\n      swap3\n      swap2\n      pop\n      pop\n      jump\t// out\n        /* \"#utility.yul\":1624:1803   */\n    tag_89:\n        /* \"#utility.yul\":1693:1703   */\n      0x00\n        /* \"#utility.yul\":1714:1760   */\n      tag_91\n        /* \"#utility.yul\":1756:1759   */\n      dup4\n        /* \"#utility.yul\":1748:1754   */\n      dup4\n        /* \"#utility.yul\":1714:1760   */\n      tag_92\n      jump\t// in\n    tag_91:\n        /* \"#utility.yul\":1792:1796   */\n      0x20\n        /* \"#utility.yul\":1787:1790   */\n      dup4\n        /* \"#utility.yul\":1783:1797   */\n      add\n        /* \"#utility.yul\":1769:1797   */\n      swap1\n      pop\n        /* \"#utility.yul\":1624:1803   */\n      swap3\n      swap2\n      pop\n      pop\n      jump\t// out\n        /* \"#utility.yul\":1809:1956   */\n    tag_93:\n        /* \"#utility.yul\":1904:1949   */\n      tag_95\n        /* \"#utility.yul\":1943:1948   */\n      dup2\n        /* \"#utility.yul\":1904:1949   */\n      tag_96\n      jump\t// in\n    tag_95:\n        /* \"#utility.yul\":1899:1902   */\n      dup3\n        /* \"#utility.yul\":1892:1950   */\n      mstore\n        /* \"#utility.yul\":1809:1956   */\n      pop\n      pop\n      jump\t// out\n        /* \"#utility.yul\":1962:2080   */\n    tag_97:\n        /* \"#utility.yul\":2049:2073   */\n      tag_99\n        /* \"#utility.yul\":2067:2072   */\n      dup2\n        /* \"#utility.yul\":2049:2073   */\n      tag_100\n      jump\t// in\n    tag_99:\n        /* \"#utility.yul\":2044:2047   */\n      dup3\n        /* \"#utility.yul\":2037:2074   */\n      mstore\n        /* \"#utility.yul\":1962:2080   */\n      pop\n      pop\n      jump\t// out\n        /* \"#utility.yul\":2116:2848   */\n    tag_101:\n        /* \"#utility.yul\":2235:2238   */\n      0x00\n        /* \"#utility.yul\":2264:2318   */\n      tag_103\n        /* \"#utility.yul\":2312:2317   */\n      dup3\n        /* \"#utility.yul\":2264:2318   */\n      tag_104\n      jump\t// in\n    tag_103:\n        /* \"#utility.yul\":2334:2420   */\n      tag_105\n        /* \"#utility.yul\":2413:2419   */\n      dup2\n        /* \"#utility.yul\":2408:2411   */\n      dup6\n        /* \"#utility.yul\":2334:2420   */\n      tag_106\n      jump\t// in\n    tag_105:\n        /* \"#utility.yul\":2327:2420   */\n      swap4\n      pop\n        /* \"#utility.yul\":2444:2500   */\n      tag_107\n        /* \"#utility.yul\":2494:2499   */\n      dup4\n        /* \"#utility.yul\":2444:2500   */\n      tag_108\n      jump\t// in\n    tag_107:\n        /* \"#utility.yul\":2523:2530   */\n      dup1\n        /* \"#utility.yul\":2554:2555   */\n      0x00\n        /* \"#utility.yul\":2539:2823   */\n    tag_109:\n        /* \"#utility.yul\":2564:2570   */\n      dup4\n        /* \"#utility.yul\":2561:2562   */\n      dup2\n        /* \"#utility.yul\":2558:2571   */\n      lt\n        /* \"#utility.yul\":2539:2823   */\n      iszero\n      tag_111\n      jumpi\n        /* \"#utility.yul\":2640:2646   */\n      dup2\n        /* \"#utility.yul\":2634:2647   */\n      mload\n        /* \"#utility.yul\":2667:2730   */\n      tag_112\n        /* \"#utility.yul\":2726:2729   */\n      dup9\n        /* \"#utility.yul\":2711:2724   */\n      dup3\n        /* \"#utility.yul\":2667:2730   */\n      tag_89\n      jump\t// in\n    tag_112:\n        /* \"#utility.yul\":2660:2730   */\n      swap8\n      pop\n        /* \"#utility.yul\":2753:2813   */\n      tag_113\n        /* \"#utility.yul\":2806:2812   */\n      dup4\n        /* \"#utility.yul\":2753:2813   */\n      tag_114\n      jump\t// in\n    tag_113:\n        /* \"#utility.yul\":2743:2813   */\n      swap3\n      pop\n        /* \"#utility.yul\":2599:2823   */\n      pop\n        /* \"#utility.yul\":2586:2587   */\n      0x01\n        /* \"#utility.yul\":2583:2584   */\n      dup2\n        /* \"#utility.yul\":2579:2588   */\n      add\n        /* \"#utility.yul\":2574:2588   */\n      swap1\n      pop\n        /* \"#utility.yul\":2539:2823   */\n      jump(tag_109)\n    tag_111:\n        /* \"#utility.yul\":2543:2557   */\n      pop\n        /* \"#utility.yul\":2839:2842   */\n      dup6\n        /* \"#utility.yul\":2832:2842   */\n      swap4\n      pop\n        /* \"#utility.yul\":2240:2848   */\n      pop\n      pop\n      pop\n        /* \"#utility.yul\":2116:2848   */\n      swap3\n      swap2\n      pop\n      pop\n      jump\t// out\n        /* \"#utility.yul\":2854:3220   */\n    tag_115:\n        /* \"#utility.yul\":2996:2999   */\n      0x00\n        /* \"#utility.yul\":3017:3084   */\n      tag_117\n        /* \"#utility.yul\":3081:3083   */\n      0x10\n        /* \"#utility.yul\":3076:3079   */\n      dup4\n        /* \"#utility.yul\":3017:3084   */\n      tag_118\n      jump\t// in\n    tag_117:\n        /* \"#utility.yul\":3010:3084   */\n      swap2\n      pop\n        /* \"#utility.yul\":3093:3186   */\n      tag_119\n        /* \"#utility.yul\":3182:3185   */\n      dup3\n        /* \"#utility.yul\":3093:3186   */\n      tag_120\n      jump\t// in\n    tag_119:\n        /* \"#utility.yul\":3211:3213   */\n      0x20\n        /* \"#utility.yul\":3206:3209   */\n      dup3\n        /* \"#utility.yul\":3202:3214   */\n      add\n        /* \"#utility.yul\":3195:3214   */\n      swap1\n      pop\n        /* \"#utility.yul\":2854:3220   */\n      swap2\n      swap1\n      pop\n      jump\t// out\n        /* \"#utility.yul\":3226:3334   */\n    tag_92:\n        /* \"#utility.yul\":3303:3327   */\n      tag_122\n        /* \"#utility.yul\":3321:3326   */\n      dup2\n        /* \"#utility.yul\":3303:3327   */\n      tag_123\n      jump\t// in\n    tag_122:\n        /* \"#utility.yul\":3298:3301   */\n      dup3\n        /* \"#utility.yul\":3291:3328   */\n      mstore\n        /* \"#utility.yul\":3226:3334   */\n      pop\n      pop\n      jump\t// out\n        /* \"#utility.yul\":3340:3458   */\n    tag_124:\n        /* \"#utility.yul\":3427:3451   */\n      tag_126\n        /* \"#utility.yul\":3445:3450   */\n      dup2\n        /* \"#utility.yul\":3427:3451   */\n      tag_123\n      jump\t// in\n    tag_126:\n        /* \"#utility.yul\":3422:3425   */\n      dup3\n        /* \"#utility.yul\":3415:3452   */\n      mstore\n        /* \"#utility.yul\":3340:3458   */\n      pop\n      pop\n      jump\t// out\n        /* \"#utility.yul\":3464:4033   */\n    tag_49:\n        /* \"#utility.yul\":3649:3653   */\n      0x00\n        /* \"#utility.yul\":3687:3690   */\n      0x80\n        /* \"#utility.yul\":3676:3685   */\n      dup3\n        /* \"#utility.yul\":3672:3691   */\n      add\n        /* \"#utility.yul\":3664:3691   */\n      swap1\n      pop\n        /* \"#utility.yul\":3701:3772   */\n      tag_128\n        /* \"#utility.yul\":3769:3770   */\n      0x00\n        /* \"#utility.yul\":3758:3767   */\n      dup4\n        /* \"#utility.yul\":3754:3771   */\n      add\n        /* \"#utility.yul\":3745:3751   */\n      dup8\n        /* \"#utility.yul\":3701:3772   */\n      tag_97\n      jump\t// in\n    tag_128:\n        /* \"#utility.yul\":3782:3862   */\n      tag_129\n        /* \"#utility.yul\":3858:3860   */\n      0x20\n        /* \"#utility.yul\":3847:3856   */\n      dup4\n        /* \"#utility.yul\":3843:3861   */\n      add\n        /* \"#utility.yul\":3834:3840   */\n      dup7\n        /* \"#utility.yul\":3782:3862   */\n      tag_93\n      jump\t// in\n    tag_129:\n        /* \"#utility.yul\":3872:3944   */\n      tag_130\n        /* \"#utility.yul\":3940:3942   */\n      0x40\n        /* \"#utility.yul\":3929:3938   */\n      dup4\n        /* \"#utility.yul\":3925:3943   */\n      add\n        /* \"#utility.yul\":3916:3922   */\n      dup6\n        /* \"#utility.yul\":3872:3944   */\n      tag_124\n      jump\t// in\n    tag_130:\n        /* \"#utility.yul\":3954:4026   */\n      tag_131\n        /* \"#utility.yul\":4022:4024   */\n      0x60\n        /* \"#utility.yul\":4011:4020   */\n      dup4\n        /* \"#utility.yul\":4007:4025   */\n      add\n        /* \"#utility.yul\":3998:4004   */\n      dup5\n        /* \"#utility.yul\":3954:4026   */\n      tag_124\n      jump\t// in\n    tag_131:\n        /* \"#utility.yul\":3464:4033   */\n      swap6\n      swap5\n      pop\n      pop\n      pop\n      pop\n      pop\n      jump\t// out\n        /* \"#utility.yul\":4039:4371   */\n    tag_55:\n        /* \"#utility.yul\":4160:4164   */\n      0x00\n        /* \"#utility.yul\":4198:4200   */\n      0x40\n        /* \"#utility.yul\":4187:4196   */\n      dup3\n        /* \"#utility.yul\":4183:4201   */\n      add\n        /* \"#utility.yul\":4175:4201   */\n      swap1\n      pop\n        /* \"#utility.yul\":4211:4282   */\n      tag_133\n        /* \"#utility.yul\":4279:4280   */\n      0x00\n        /* \"#utility.yul\":4268:4277   */\n      dup4\n        /* \"#utility.yul\":4264:4281   */\n      add\n        /* \"#utility.yul\":4255:4261   */\n      dup6\n        /* \"#utility.yul\":4211:4282   */\n      tag_97\n      jump\t// in\n    tag_133:\n        /* \"#utility.yul\":4292:4364   */\n      tag_134\n        /* \"#utility.yul\":4360:4362   */\n      0x20\n        /* \"#utility.yul\":4349:4358   */\n      dup4\n        /* \"#utility.yul\":4345:4363   */\n      add\n        /* \"#utility.yul\":4336:4342   */\n      dup5\n        /* \"#utility.yul\":4292:4364   */\n      tag_124\n      jump\t// in\n    tag_134:\n        /* \"#utility.yul\":4039:4371   */\n      swap4\n      swap3\n      pop\n      pop\n      pop\n      jump\t// out\n        /* \"#utility.yul\":4377:4750   */\n    tag_33:\n        /* \"#utility.yul\":4520:4524   */\n      0x00\n        /* \"#utility.yul\":4558:4560   */\n      0x20\n        /* \"#utility.yul\":4547:4556   */\n      dup3\n        /* \"#utility.yul\":4543:4561   */\n      add\n        /* \"#utility.yul\":4535:4561   */\n      swap1\n      pop\n        /* \"#utility.yul\":4607:4616   */\n      dup2\n        /* \"#utility.yul\":4601:4605   */\n      dup2\n        /* \"#utility.yul\":4597:4617   */\n      sub\n        /* \"#utility.yul\":4593:4594   */\n      0x00\n        /* \"#utility.yul\":4582:4591   */\n      dup4\n        /* \"#utility.yul\":4578:4595   */\n      add\n        /* \"#utility.yul\":4571:4618   */\n      mstore\n        /* \"#utility.yul\":4635:4743   */\n      tag_136\n        /* \"#utility.yul\":4738:4742   */\n      dup2\n        /* \"#utility.yul\":4729:4735   */\n      dup5\n        /* \"#utility.yul\":4635:4743   */\n      tag_101\n      jump\t// in\n    tag_136:\n        /* \"#utility.yul\":4627:4743   */\n      swap1\n      pop\n        /* \"#utility.yul\":4377:4750   */\n      swap3\n      swap2\n      pop\n      pop\n      jump\t// out\n        /* \"#utility.yul\":4756:5175   */\n    tag_45:\n        /* \"#utility.yul\":4922:4926   */\n      0x00\n        /* \"#utility.yul\":4960:4962   */\n      0x20\n        /* \"#utility.yul\":4949:4958   */\n      dup3\n        /* \"#utility.yul\":4945:4963   */\n      add\n        /* \"#utility.yul\":4937:4963   */\n      swap1\n      pop\n        /* \"#utility.yul\":5009:5018   */\n      dup2\n        /* \"#utility.yul\":5003:5007   */\n      dup2\n        /* \"#utility.yul\":4999:5019   */\n      sub\n        /* \"#utility.yul\":4995:4996   */\n      0x00\n        /* \"#utility.yul\":4984:4993   */\n      dup4\n        /* \"#utility.yul\":4980:4997   */\n      add\n        /* \"#utility.yul\":4973:5020   */\n      mstore\n        /* \"#utility.yul\":5037:5168   */\n      tag_138\n        /* \"#utility.yul\":5163:5167   */\n      dup2\n        /* \"#utility.yul\":5037:5168   */\n      tag_115\n      jump\t// in\n    tag_138:\n        /* \"#utility.yul\":5029:5168   */\n      swap1\n      pop\n        /* \"#utility.yul\":4756:5175   */\n      swap2\n      swap1\n      pop\n      jump\t// out\n        /* \"#utility.yul\":5262:5394   */\n    tag_108:\n        /* \"#utility.yul\":5329:5333   */\n      0x00\n        /* \"#utility.yul\":5352:5355   */\n      dup2\n        /* \"#utility.yul\":5344:5355   */\n      swap1\n      pop\n        /* \"#utility.yul\":5382:5386   */\n      0x20\n        /* \"#utility.yul\":5377:5380   */\n      dup3\n        /* \"#utility.yul\":5373:5387   */\n      add\n        /* \"#utility.yul\":5365:5387   */\n      swap1\n      pop\n        /* \"#utility.yul\":5262:5394   */\n      swap2\n      swap1\n      pop\n      jump\t// out\n        /* \"#utility.yul\":5400:5514   */\n    tag_104:\n        /* \"#utility.yul\":5467:5473   */\n      0x00\n        /* \"#utility.yul\":5501:5506   */\n      dup2\n        /* \"#utility.yul\":5495:5507   */\n      mload\n        /* \"#utility.yul\":5485:5507   */\n      swap1\n      pop\n        /* \"#utility.yul\":5400:5514   */\n      swap2\n      swap1\n      pop\n      jump\t// out\n        /* \"#utility.yul\":5520:5633   */\n    tag_114:\n        /* \"#utility.yul\":5590:5594   */\n      0x00\n        /* \"#utility.yul\":5622:5626   */\n      0x20\n        /* \"#utility.yul\":5617:5620   */\n      dup3\n        /* \"#utility.yul\":5613:5627   */\n      add\n        /* \"#utility.yul\":5605:5627   */\n      swap1\n      pop\n        /* \"#utility.yul\":5520:5633   */\n      swap2\n      swap1\n      pop\n      jump\t// out\n        /* \"#utility.yul\":5639:5823   */\n    tag_106:\n        /* \"#utility.yul\":5738:5749   */\n      0x00\n        /* \"#utility.yul\":5772:5778   */\n      dup3\n        /* \"#utility.yul\":5767:5770   */\n      dup3\n        /* \"#utility.yul\":5760:5779   */\n      mstore\n        /* \"#utility.yul\":5812:5816   */\n      0x20\n        /* \"#utility.yul\":5807:5810   */\n      dup3\n        /* \"#utility.yul\":5803:5817   */\n      add\n        /* \"#utility.yul\":5788:5817   */\n      swap1\n      pop\n        /* \"#utility.yul\":5639:5823   */\n      swap3\n      swap2\n      pop\n      pop\n      jump\t// out\n        /* \"#utility.yul\":5829:5998   */\n    tag_118:\n        /* \"#utility.yul\":5913:5924   */\n      0x00\n        /* \"#utility.yul\":5947:5953   */\n      dup3\n        /* \"#utility.yul\":5942:5945   */\n      dup3\n        /* \"#utility.yul\":5935:5954   */\n      mstore\n        /* \"#utility.yul\":5987:5991   */\n      0x20\n        /* \"#utility.yul\":5982:5985   */\n      dup3\n        /* \"#utility.yul\":5978:5992   */\n      add\n        /* \"#utility.yul\":5963:5992   */\n      swap1\n      pop\n        /* \"#utility.yul\":5829:5998   */\n      swap3\n      swap2\n      pop\n      pop\n      jump\t// out\n        /* \"#utility.yul\":6004:6100   */\n    tag_100:\n        /* \"#utility.yul\":6041:6048   */\n      0x00\n        /* \"#utility.yul\":6070:6094   */\n      tag_147\n        /* \"#utility.yul\":6088:6093   */\n      dup3\n        /* \"#utility.yul\":6070:6094   */\n      tag_148\n      jump\t// in\n    tag_147:\n        /* \"#utility.yul\":6059:6094   */\n      swap1\n      pop\n        /* \"#utility.yul\":6004:6100   */\n      swap2\n      swap1\n      pop\n      jump\t// out\n        /* \"#utility.yul\":6106:6210   */\n    tag_149:\n        /* \"#utility.yul\":6151:6158   */\n      0x00\n        /* \"#utility.yul\":6180:6204   */\n      tag_151\n        /* \"#utility.yul\":6198:6203   */\n      dup3\n        /* \"#utility.yul\":6180:6204   */\n      tag_148\n      jump\t// in\n    tag_151:\n        /* \"#utility.yul\":6169:6204   */\n      swap1\n      pop\n        /* \"#utility.yul\":6106:6210   */\n      swap2\n      swap1\n      pop\n      jump\t// out\n        /* \"#utility.yul\":6216:6342   */\n    tag_148:\n        /* \"#utility.yul\":6253:6260   */\n      0x00\n        /* \"#utility.yul\":6293:6335   */\n      0xffffffffffffffffffffffffffffffffffffffff\n        /* \"#utility.yul\":6286:6291   */\n      dup3\n        /* \"#utility.yul\":6282:6336   */\n      and\n        /* \"#utility.yul\":6271:6336   */\n      swap1\n      pop\n        /* \"#utility.yul\":6216:6342   */\n      swap2\n      swap1\n      pop\n      jump\t// out\n        /* \"#utility.yul\":6348:6425   */\n    tag_123:\n        /* \"#utility.yul\":6385:6392   */\n      0x00\n        /* \"#utility.yul\":6414:6419   */\n      dup2\n        /* \"#utility.yul\":6403:6419   */\n      swap1\n      pop\n        /* \"#utility.yul\":6348:6425   */\n      swap2\n      swap1\n      pop\n      jump\t// out\n        /* \"#utility.yul\":6431:6565   */\n    tag_96:\n        /* \"#utility.yul\":6489:6498   */\n      0x00\n        /* \"#utility.yul\":6522:6559   */\n      tag_155\n        /* \"#utility.yul\":6553:6558   */\n      dup3\n        /* \"#utility.yul\":6522:6559   */\n      tag_156\n      jump\t// in\n    tag_155:\n        /* \"#utility.yul\":6509:6559   */\n      swap1\n      pop\n        /* \"#utility.yul\":6431:6565   */\n      swap2\n      swap1\n      pop\n      jump\t// out\n        /* \"#utility.yul\":6571:6697   */\n    tag_156:\n        /* \"#utility.yul\":6621:6630   */\n      0x00\n        /* \"#utility.yul\":6654:6691   */\n      tag_158\n        /* \"#utility.yul\":6685:6690   */\n      dup3\n        /* \"#utility.yul\":6654:6691   */\n      tag_159\n      jump\t// in\n    tag_158:\n        /* \"#utility.yul\":6641:6691   */\n      swap1\n      pop\n        /* \"#utility.yul\":6571:6697   */\n      swap2\n      swap1\n      pop\n      jump\t// out\n        /* \"#utility.yul\":6703:6816   */\n    tag_159:\n        /* \"#utility.yul\":6753:6762   */\n      0x00\n        /* \"#utility.yul\":6786:6810   */\n      tag_161\n        /* \"#utility.yul\":6804:6809   */\n      dup3\n        /* \"#utility.yul\":6786:6810   */\n      tag_148\n      jump\t// in\n    tag_161:\n        /* \"#utility.yul\":6773:6810   */\n      swap1\n      pop\n        /* \"#utility.yul\":6703:6816   */\n      swap2\n      swap1\n      pop\n      jump\t// out\n        /* \"#utility.yul\":6945:7062   */\n    tag_78:\n        /* \"#utility.yul\":7054:7055   */\n      0x00\n        /* \"#utility.yul\":7051:7052   */\n      dup1\n        /* \"#utility.yul\":7044:7056   */\n      revert\n        /* \"#utility.yul\":7068:7234   */\n    tag_120:\n        /* \"#utility.yul\":7208:7226   */\n      0x4e6f7420456e6f756768204d6f6e657900000000000000000000000000000000\n        /* \"#utility.yul\":7204:7205   */\n      0x00\n        /* \"#utility.yul\":7196:7202   */\n      dup3\n        /* \"#utility.yul\":7192:7206   */\n      add\n        /* \"#utility.yul\":7185:7227   */\n      mstore\n        /* \"#utility.yul\":7068:7234   */\n      pop\n      jump\t// out\n        /* \"#utility.yul\":7240:7362   */\n    tag_66:\n        /* \"#utility.yul\":7313:7337   */\n      tag_167\n        /* \"#utility.yul\":7331:7336   */\n      dup2\n        /* \"#utility.yul\":7313:7337   */\n      tag_100\n      jump\t// in\n    tag_167:\n        /* \"#utility.yul\":7306:7311   */\n      dup2\n        /* \"#utility.yul\":7303:7338   */\n      eq\n        /* \"#utility.yul\":7293:7356   */\n      tag_168\n      jumpi\n        /* \"#utility.yul\":7352:7353   */\n      0x00\n        /* \"#utility.yul\":7349:7350   */\n      dup1\n        /* \"#utility.yul\":7342:7354   */\n      revert\n        /* \"#utility.yul\":7293:7356   */\n    tag_168:\n        /* \"#utility.yul\":7240:7362   */\n      pop\n      jump\t// out\n        /* \"#utility.yul\":7368:7506   */\n    tag_70:\n        /* \"#utility.yul\":7449:7481   */\n      tag_170\n        /* \"#utility.yul\":7475:7480   */\n      dup2\n        /* \"#utility.yul\":7449:7481   */\n      tag_149\n      jump\t// in\n    tag_170:\n        /* \"#utility.yul\":7442:7447   */\n      dup2\n        /* \"#utility.yul\":7439:7482   */\n      eq\n        /* \"#utility.yul\":7429:7500   */\n      tag_171\n      jumpi\n        /* \"#utility.yul\":7496:7497   */\n      0x00\n        /* \"#utility.yul\":7493:7494   */\n      dup1\n        /* \"#utility.yul\":7486:7498   */\n      revert\n        /* \"#utility.yul\":7429:7500   */\n    tag_171:\n        /* \"#utility.yul\":7368:7506   */\n      pop\n      jump\t// out\n        /* \"#utility.yul\":7512:7634   */\n    tag_74:\n        /* \"#utility.yul\":7585:7609   */\n      tag_173\n        /* \"#utility.yul\":7603:7608   */\n      dup2\n        /* \"#utility.yul\":7585:7609   */\n      tag_123\n      jump\t// in\n    tag_173:\n        /* \"#utility.yul\":7578:7583   */\n      dup2\n        /* \"#utility.yul\":7575:7610   */\n      eq\n        /* \"#utility.yul\":7565:7628   */\n      tag_174\n      jumpi\n        /* \"#utility.yul\":7624:7625   */\n      0x00\n        /* \"#utility.yul\":7621:7622   */\n      dup1\n        /* \"#utility.yul\":7614:7626   */\n      revert\n        /* \"#utility.yul\":7565:7628   */\n    tag_174:\n        /* \"#utility.yul\":7512:7634   */\n      pop\n      jump\t// out\n\n    auxdata: 0xa2646970667358221220895573ead3b56a1e9e392cebca3f583bb5ef99984dd0b698dee8ed9ca54d6f9164736f6c63430008070033\n}\n",
				"bytecode": {
					"linkReferences": {},
					"object": "608060405234801561001057600080fd5b50336000806101000a81548173ffffffffffffffffffffffffffffffffffffffff021916908373ffffffffffffffffffffffffffffffffffffffff160217905550610a88806100606000396000f3fe6080604052600436106100555760003560e01c806314174f331461005a578063173825d9146100835780632ccb1b30146100ac5780637065cb48146100d5578063a50ec326146100fe578063d11db83f14610108575b600080fd5b34801561006657600080fd5b50610081600480360381019061007c919061075f565b610133565b005b34801561008f57600080fd5b506100aa60048036038101906100a591906106f2565b610140565b005b3480156100b857600080fd5b506100d360048036038101906100ce919061071f565b6101f4565b005b3480156100e157600080fd5b506100fc60048036038101906100f791906106f2565b6104bc565b005b61010661056f565b005b34801561011457600080fd5b5061011d6105aa565b60405161012a91906108cf565b60405180910390f35b61013d33826101f4565b50565b60008054906101000a900473ffffffffffffffffffffffffffffffffffffffff1673ffffffffffffffffffffffffffffffffffffffff163373ffffffffffffffffffffffffffffffffffffffff161461019857600080fd5b6000600160008373ffffffffffffffffffffffffffffffffffffffff1673ffffffffffffffffffffffffffffffffffffffff16815260200190815260200160002060006101000a81548160ff021916908360ff16021790555050565b60008054906101000a900473ffffffffffffffffffffffffffffffffffffffff1673ffffffffffffffffffffffffffffffffffffffff163373ffffffffffffffffffffffffffffffffffffffff16148061029c575060018060003373ffffffffffffffffffffffffffffffffffffffff1673ffffffffffffffffffffffffffffffffffffffff16815260200190815260200160002060009054906101000a900460ff1660ff16145b6102a557600080fd5b804710156102e8576040517f08c379a00000000000000000000000000000000000000000000000000000000081526004016102df906108f1565b60405180910390fd5b60026040518060a001604052803373ffffffffffffffffffffffffffffffffffffffff1681526020018473ffffffffffffffffffffffffffffffffffffffff168152602001838152602001600015158152602001600060ff16815250908060018154018082558091505060019003906000526020600020906004020160009091909190915060008201518160000160006101000a81548173ffffffffffffffffffffffffffffffffffffffff021916908373ffffffffffffffffffffffffffffffffffffffff16021790555060208201518160010160006101000a81548173ffffffffffffffffffffffffffffffffffffffff021916908373ffffffffffffffffffffffffffffffffffffffff1602179055506040820151816002015560608201518160030160006101000a81548160ff02191690831515021790555060808201518160030160016101000a81548160ff021916908360ff1602179055505050600460028054905090806001815401808255809150506001900390600052602060002001600090919091909150557f41d8c89c4a25824354aa1f198d80d06f2f93f903a2d180d1ea20429a4678c4a43383836002805490506040516104b09493929190610861565b60405180910390a15050565b60008054906101000a900473ffffffffffffffffffffffffffffffffffffffff1673ffffffffffffffffffffffffffffffffffffffff163373ffffffffffffffffffffffffffffffffffffffff161461051457600080fd5b60018060008373ffffffffffffffffffffffffffffffffffffffff1673ffffffffffffffffffffffffffffffffffffffff16815260200190815260200160002060006101000a81548160ff021916908360ff16021790555050565b7fd241e73300212f6df233a8e6d3146b88a9d4964e06621d54b5ff6afeba7b1b8833346040516105a09291906108a6565b60405180910390a1565b606060008054906101000a900473ffffffffffffffffffffffffffffffffffffffff1673ffffffffffffffffffffffffffffffffffffffff163373ffffffffffffffffffffffffffffffffffffffff161480610654575060018060003373ffffffffffffffffffffffffffffffffffffffff1673ffffffffffffffffffffffffffffffffffffffff16815260200190815260200160002060009054906101000a900460ff1660ff16145b61065d57600080fd5b60048054806020026020016040519081016040528092919081815260200182805480156106a957602002820191906000526020600020905b815481526020019060010190808311610695575b5050505050905090565b6000813590506106c281610a0d565b92915050565b6000813590506106d781610a24565b92915050565b6000813590506106ec81610a3b565b92915050565b600060208284031215610708576107076109df565b5b6000610716848285016106b3565b91505092915050565b60008060408385031215610736576107356109df565b5b6000610744858286016106c8565b9250506020610755858286016106dd565b9150509250929050565b600060208284031215610775576107746109df565b5b6000610783848285016106dd565b91505092915050565b60006107988383610843565b60208301905092915050565b6107ad816109a9565b82525050565b6107bc8161095b565b82525050565b60006107cd82610921565b6107d78185610939565b93506107e283610911565b8060005b838110156108135781516107fa888261078c565b97506108058361092c565b9250506001810190506107e6565b5085935050505092915050565b600061082d60108361094a565b9150610838826109e4565b602082019050919050565b61084c8161099f565b82525050565b61085b8161099f565b82525050565b600060808201905061087660008301876107b3565b61088360208301866107a4565b6108906040830185610852565b61089d6060830184610852565b95945050505050565b60006040820190506108bb60008301856107b3565b6108c86020830184610852565b9392505050565b600060208201905081810360008301526108e981846107c2565b905092915050565b6000602082019050818103600083015261090a81610820565b9050919050565b6000819050602082019050919050565b600081519050919050565b6000602082019050919050565b600082825260208201905092915050565b600082825260208201905092915050565b60006109668261097f565b9050919050565b60006109788261097f565b9050919050565b600073ffffffffffffffffffffffffffffffffffffffff82169050919050565b6000819050919050565b60006109b4826109bb565b9050919050565b60006109c6826109cd565b9050919050565b60006109d88261097f565b9050919050565b600080fd5b7f4e6f7420456e6f756768204d6f6e657900000000000000000000000000000000600082015250565b610a168161095b565b8114610a2157600080fd5b50565b610a2d8161096d565b8114610a3857600080fd5b50565b610a448161099f565b8114610a4f57600080fd5b5056fea2646970667358221220895573ead3b56a1e9e392cebca3f583bb5ef99984dd0b698dee8ed9ca54d6f9164736f6c63430008070033",
					"opcodes": "PUSH1 0x80 PUSH1 0x40 MSTORE CALLVALUE DUP1 ISZERO PUSH2 0x10 JUMPI PUSH1 0x0 DUP1 REVERT JUMPDEST POP CALLER PUSH1 0x0 DUP1 PUSH2 0x100 EXP DUP2 SLOAD DUP2 PUSH20 0xFFFFFFFFFFFFFFFFFFFFFFFFFFFFFFFFFFFFFFFF MUL NOT AND SWAP1 DUP4 PUSH20 0xFFFFFFFFFFFFFFFFFFFFFFFFFFFFFFFFFFFFFFFF AND MUL OR SWAP1 SSTORE POP PUSH2 0xA88 DUP1 PUSH2 0x60 PUSH1 0x0 CODECOPY PUSH1 0x0 RETURN INVALID PUSH1 0x80 PUSH1 0x40 MSTORE PUSH1 0x4 CALLDATASIZE LT PUSH2 0x55 JUMPI PUSH1 0x0 CALLDATALOAD PUSH1 0xE0 SHR DUP1 PUSH4 0x14174F33 EQ PUSH2 0x5A JUMPI DUP1 PUSH4 0x173825D9 EQ PUSH2 0x83 JUMPI DUP1 PUSH4 0x2CCB1B30 EQ PUSH2 0xAC JUMPI DUP1 PUSH4 0x7065CB48 EQ PUSH2 0xD5 JUMPI DUP1 PUSH4 0xA50EC326 EQ PUSH2 0xFE JUMPI DUP1 PUSH4 0xD11DB83F EQ PUSH2 0x108 JUMPI JUMPDEST PUSH1 0x0 DUP1 REVERT JUMPDEST CALLVALUE DUP1 ISZERO PUSH2 0x66 JUMPI PUSH1 0x0 DUP1 REVERT JUMPDEST POP PUSH2 0x81 PUSH1 0x4 DUP1 CALLDATASIZE SUB DUP2 ADD SWAP1 PUSH2 0x7C SWAP2 SWAP1 PUSH2 0x75F JUMP JUMPDEST PUSH2 0x133 JUMP JUMPDEST STOP JUMPDEST CALLVALUE DUP1 ISZERO PUSH2 0x8F JUMPI PUSH1 0x0 DUP1 REVERT JUMPDEST POP PUSH2 0xAA PUSH1 0x4 DUP1 CALLDATASIZE SUB DUP2 ADD SWAP1 PUSH2 0xA5 SWAP2 SWAP1 PUSH2 0x6F2 JUMP JUMPDEST PUSH2 0x140 JUMP JUMPDEST STOP JUMPDEST CALLVALUE DUP1 ISZERO PUSH2 0xB8 JUMPI PUSH1 0x0 DUP1 REVERT JUMPDEST POP PUSH2 0xD3 PUSH1 0x4 DUP1 CALLDATASIZE SUB DUP2 ADD SWAP1 PUSH2 0xCE SWAP2 SWAP1 PUSH2 0x71F JUMP JUMPDEST PUSH2 0x1F4 JUMP JUMPDEST STOP JUMPDEST CALLVALUE DUP1 ISZERO PUSH2 0xE1 JUMPI PUSH1 0x0 DUP1 REVERT JUMPDEST POP PUSH2 0xFC PUSH1 0x4 DUP1 CALLDATASIZE SUB DUP2 ADD SWAP1 PUSH2 0xF7 SWAP2 SWAP1 PUSH2 0x6F2 JUMP JUMPDEST PUSH2 0x4BC JUMP JUMPDEST STOP JUMPDEST PUSH2 0x106 PUSH2 0x56F JUMP JUMPDEST STOP JUMPDEST CALLVALUE DUP1 ISZERO PUSH2 0x114 JUMPI PUSH1 0x0 DUP1 REVERT JUMPDEST POP PUSH2 0x11D PUSH2 0x5AA JUMP JUMPDEST PUSH1 0x40 MLOAD PUSH2 0x12A SWAP2 SWAP1 PUSH2 0x8CF JUMP JUMPDEST PUSH1 0x40 MLOAD DUP1 SWAP2 SUB SWAP1 RETURN JUMPDEST PUSH2 0x13D CALLER DUP3 PUSH2 0x1F4 JUMP JUMPDEST POP JUMP JUMPDEST PUSH1 0x0 DUP1 SLOAD SWAP1 PUSH2 0x100 EXP SWAP1 DIV PUSH20 0xFFFFFFFFFFFFFFFFFFFFFFFFFFFFFFFFFFFFFFFF AND PUSH20 0xFFFFFFFFFFFFFFFFFFFFFFFFFFFFFFFFFFFFFFFF AND CALLER PUSH20 0xFFFFFFFFFFFFFFFFFFFFFFFFFFFFFFFFFFFFFFFF AND EQ PUSH2 0x198 JUMPI PUSH1 0x0 DUP1 REVERT JUMPDEST PUSH1 0x0 PUSH1 0x1 PUSH1 0x0 DUP4 PUSH20 0xFFFFFFFFFFFFFFFFFFFFFFFFFFFFFFFFFFFFFFFF AND PUSH20 0xFFFFFFFFFFFFFFFFFFFFFFFFFFFFFFFFFFFFFFFF AND DUP2 MSTORE PUSH1 0x20 ADD SWAP1 DUP2 MSTORE PUSH1 0x20 ADD PUSH1 0x0 KECCAK256 PUSH1 0x0 PUSH2 0x100 EXP DUP2 SLOAD DUP2 PUSH1 0xFF MUL NOT AND SWAP1 DUP4 PUSH1 0xFF AND MUL OR SWAP1 SSTORE POP POP JUMP JUMPDEST PUSH1 0x0 DUP1 SLOAD SWAP1 PUSH2 0x100 EXP SWAP1 DIV PUSH20 0xFFFFFFFFFFFFFFFFFFFFFFFFFFFFFFFFFFFFFFFF AND PUSH20 0xFFFFFFFFFFFFFFFFFFFFFFFFFFFFFFFFFFFFFFFF AND CALLER PUSH20 0xFFFFFFFFFFFFFFFFFFFFFFFFFFFFFFFFFFFFFFFF AND EQ DUP1 PUSH2 0x29C JUMPI POP PUSH1 0x1 DUP1 PUSH1 0x0 CALLER PUSH20 0xFFFFFFFFFFFFFFFFFFFFFFFFFFFFFFFFFFFFFFFF AND PUSH20 0xFFFFFFFFFFFFFFFFFFFFFFFFFFFFFFFFFFFFFFFF AND DUP2 MSTORE PUSH1 0x20 ADD SWAP1 DUP2 MSTORE PUSH1 0x20 ADD PUSH1 0x0 KECCAK256 PUSH1 0x0 SWAP1 SLOAD SWAP1 PUSH2 0x100 EXP SWAP1 DIV PUSH1 0xFF AND PUSH1 0xFF AND EQ JUMPDEST PUSH2 0x2A5 JUMPI PUSH1 0x0 DUP1 REVERT JUMPDEST DUP1 SELFBALANCE LT ISZERO PUSH2 0x2E8 JUMPI PUSH1 0x40 MLOAD PUSH32 0x8C379A000000000000000000000000000000000000000000000000000000000 DUP2 MSTORE PUSH1 0x4 ADD PUSH2 0x2DF SWAP1 PUSH2 0x8F1 JUMP JUMPDEST PUSH1 0x40 MLOAD DUP1 SWAP2 SUB SWAP1 REVERT JUMPDEST PUSH1 0x2 PUSH1 0x40 MLOAD DUP1 PUSH1 0xA0 ADD PUSH1 0x40 MSTORE DUP1 CALLER PUSH20 0xFFFFFFFFFFFFFFFFFFFFFFFFFFFFFFFFFFFFFFFF AND DUP2 MSTORE PUSH1 0x20 ADD DUP5 PUSH20 0xFFFFFFFFFFFFFFFFFFFFFFFFFFFFFFFFFFFFFFFF AND DUP2 MSTORE PUSH1 0x20 ADD DUP4 DUP2 MSTORE PUSH1 0x20 ADD PUSH1 0x0 ISZERO ISZERO DUP2 MSTORE PUSH1 0x20 ADD PUSH1 0x0 PUSH1 0xFF AND DUP2 MSTORE POP SWAP1 DUP1 PUSH1 0x1 DUP2 SLOAD ADD DUP1 DUP3 SSTORE DUP1 SWAP2 POP POP PUSH1 0x1 SWAP1 SUB SWAP1 PUSH1 0x0 MSTORE PUSH1 0x20 PUSH1 0x0 KECCAK256 SWAP1 PUSH1 0x4 MUL ADD PUSH1 0x0 SWAP1 SWAP2 SWAP1 SWAP2 SWAP1 SWAP2 POP PUSH1 0x0 DUP3 ADD MLOAD DUP2 PUSH1 0x0 ADD PUSH1 0x0 PUSH2 0x100 EXP DUP2 SLOAD DUP2 PUSH20 0xFFFFFFFFFFFFFFFFFFFFFFFFFFFFFFFFFFFFFFFF MUL NOT AND SWAP1 DUP4 PUSH20 0xFFFFFFFFFFFFFFFFFFFFFFFFFFFFFFFFFFFFFFFF AND MUL OR SWAP1 SSTORE POP PUSH1 0x20 DUP3 ADD MLOAD DUP2 PUSH1 0x1 ADD PUSH1 0x0 PUSH2 0x100 EXP DUP2 SLOAD DUP2 PUSH20 0xFFFFFFFFFFFFFFFFFFFFFFFFFFFFFFFFFFFFFFFF MUL NOT AND SWAP1 DUP4 PUSH20 0xFFFFFFFFFFFFFFFFFFFFFFFFFFFFFFFFFFFFFFFF AND MUL OR SWAP1 SSTORE POP PUSH1 0x40 DUP3 ADD MLOAD DUP2 PUSH1 0x2 ADD SSTORE PUSH1 0x60 DUP3 ADD MLOAD DUP2 PUSH1 0x3 ADD PUSH1 0x0 PUSH2 0x100 EXP DUP2 SLOAD DUP2 PUSH1 0xFF MUL NOT AND SWAP1 DUP4 ISZERO ISZERO MUL OR SWAP1 SSTORE POP PUSH1 0x80 DUP3 ADD MLOAD DUP2 PUSH1 0x3 ADD PUSH1 0x1 PUSH2 0x100 EXP DUP2 SLOAD DUP2 PUSH1 0xFF MUL NOT AND SWAP1 DUP4 PUSH1 0xFF AND MUL OR SWAP1 SSTORE POP POP POP PUSH1 0x4 PUSH1 0x2 DUP1 SLOAD SWAP1 POP SWAP1 DUP1 PUSH1 0x1 DUP2 SLOAD ADD DUP1 DUP3 SSTORE DUP1 SWAP2 POP POP PUSH1 0x1 SWAP1 SUB SWAP1 PUSH1 0x0 MSTORE PUSH1 0x20 PUSH1 0x0 KECCAK256 ADD PUSH1 0x0 SWAP1 SWAP2 SWAP1 SWAP2 SWAP1 SWAP2 POP SSTORE PUSH32 0x41D8C89C4A25824354AA1F198D80D06F2F93F903A2D180D1EA20429A4678C4A4 CALLER DUP4 DUP4 PUSH1 0x2 DUP1 SLOAD SWAP1 POP PUSH1 0x40 MLOAD PUSH2 0x4B0 SWAP5 SWAP4 SWAP3 SWAP2 SWAP1 PUSH2 0x861 JUMP JUMPDEST PUSH1 0x40 MLOAD DUP1 SWAP2 SUB SWAP1 LOG1 POP POP JUMP JUMPDEST PUSH1 0x0 DUP1 SLOAD SWAP1 PUSH2 0x100 EXP SWAP1 DIV PUSH20 0xFFFFFFFFFFFFFFFFFFFFFFFFFFFFFFFFFFFFFFFF AND PUSH20 0xFFFFFFFFFFFFFFFFFFFFFFFFFFFFFFFFFFFFFFFF AND CALLER PUSH20 0xFFFFFFFFFFFFFFFFFFFFFFFFFFFFFFFFFFFFFFFF AND EQ PUSH2 0x514 JUMPI PUSH1 0x0 DUP1 REVERT JUMPDEST PUSH1 0x1 DUP1 PUSH1 0x0 DUP4 PUSH20 0xFFFFFFFFFFFFFFFFFFFFFFFFFFFFFFFFFFFFFFFF AND PUSH20 0xFFFFFFFFFFFFFFFFFFFFFFFFFFFFFFFFFFFFFFFF AND DUP2 MSTORE PUSH1 0x20 ADD SWAP1 DUP2 MSTORE PUSH1 0x20 ADD PUSH1 0x0 KECCAK256 PUSH1 0x0 PUSH2 0x100 EXP DUP2 SLOAD DUP2 PUSH1 0xFF MUL NOT AND SWAP1 DUP4 PUSH1 0xFF AND MUL OR SWAP1 SSTORE POP POP JUMP JUMPDEST PUSH32 0xD241E73300212F6DF233A8E6D3146B88A9D4964E06621D54B5FF6AFEBA7B1B88 CALLER CALLVALUE PUSH1 0x40 MLOAD PUSH2 0x5A0 SWAP3 SWAP2 SWAP1 PUSH2 0x8A6 JUMP JUMPDEST PUSH1 0x40 MLOAD DUP1 SWAP2 SUB SWAP1 LOG1 JUMP JUMPDEST PUSH1 0x60 PUSH1 0x0 DUP1 SLOAD SWAP1 PUSH2 0x100 EXP SWAP1 DIV PUSH20 0xFFFFFFFFFFFFFFFFFFFFFFFFFFFFFFFFFFFFFFFF AND PUSH20 0xFFFFFFFFFFFFFFFFFFFFFFFFFFFFFFFFFFFFFFFF AND CALLER PUSH20 0xFFFFFFFFFFFFFFFFFFFFFFFFFFFFFFFFFFFFFFFF AND EQ DUP1 PUSH2 0x654 JUMPI POP PUSH1 0x1 DUP1 PUSH1 0x0 CALLER PUSH20 0xFFFFFFFFFFFFFFFFFFFFFFFFFFFFFFFFFFFFFFFF AND PUSH20 0xFFFFFFFFFFFFFFFFFFFFFFFFFFFFFFFFFFFFFFFF AND DUP2 MSTORE PUSH1 0x20 ADD SWAP1 DUP2 MSTORE PUSH1 0x20 ADD PUSH1 0x0 KECCAK256 PUSH1 0x0 SWAP1 SLOAD SWAP1 PUSH2 0x100 EXP SWAP1 DIV PUSH1 0xFF AND PUSH1 0xFF AND EQ JUMPDEST PUSH2 0x65D JUMPI PUSH1 0x0 DUP1 REVERT JUMPDEST PUSH1 0x4 DUP1 SLOAD DUP1 PUSH1 0x20 MUL PUSH1 0x20 ADD PUSH1 0x40 MLOAD SWAP1 DUP2 ADD PUSH1 0x40 MSTORE DUP1 SWAP3 SWAP2 SWAP1 DUP2 DUP2 MSTORE PUSH1 0x20 ADD DUP3 DUP1 SLOAD DUP1 ISZERO PUSH2 0x6A9 JUMPI PUSH1 0x20 MUL DUP3 ADD SWAP2 SWAP1 PUSH1 0x0 MSTORE PUSH1 0x20 PUSH1 0x0 KECCAK256 SWAP1 JUMPDEST DUP2 SLOAD DUP2 MSTORE PUSH1 0x20 ADD SWAP1 PUSH1 0x1 ADD SWAP1 DUP1 DUP4 GT PUSH2 0x695 JUMPI JUMPDEST POP POP POP POP POP SWAP1 POP SWAP1 JUMP JUMPDEST PUSH1 0x0 DUP2 CALLDATALOAD SWAP1 POP PUSH2 0x6C2 DUP2 PUSH2 0xA0D JUMP JUMPDEST SWAP3 SWAP2 POP POP JUMP JUMPDEST PUSH1 0x0 DUP2 CALLDATALOAD SWAP1 POP PUSH2 0x6D7 DUP2 PUSH2 0xA24 JUMP JUMPDEST SWAP3 SWAP2 POP POP JUMP JUMPDEST PUSH1 0x0 DUP2 CALLDATALOAD SWAP1 POP PUSH2 0x6EC DUP2 PUSH2 0xA3B JUMP JUMPDEST SWAP3 SWAP2 POP POP JUMP JUMPDEST PUSH1 0x0 PUSH1 0x20 DUP3 DUP5 SUB SLT ISZERO PUSH2 0x708 JUMPI PUSH2 0x707 PUSH2 0x9DF JUMP JUMPDEST JUMPDEST PUSH1 0x0 PUSH2 0x716 DUP5 DUP3 DUP6 ADD PUSH2 0x6B3 JUMP JUMPDEST SWAP2 POP POP SWAP3 SWAP2 POP POP JUMP JUMPDEST PUSH1 0x0 DUP1 PUSH1 0x40 DUP4 DUP6 SUB SLT ISZERO PUSH2 0x736 JUMPI PUSH2 0x735 PUSH2 0x9DF JUMP JUMPDEST JUMPDEST PUSH1 0x0 PUSH2 0x744 DUP6 DUP3 DUP7 ADD PUSH2 0x6C8 JUMP JUMPDEST SWAP3 POP POP PUSH1 0x20 PUSH2 0x755 DUP6 DUP3 DUP7 ADD PUSH2 0x6DD JUMP JUMPDEST SWAP2 POP POP SWAP3 POP SWAP3 SWAP1 POP JUMP JUMPDEST PUSH1 0x0 PUSH1 0x20 DUP3 DUP5 SUB SLT ISZERO PUSH2 0x775 JUMPI PUSH2 0x774 PUSH2 0x9DF JUMP JUMPDEST JUMPDEST PUSH1 0x0 PUSH2 0x783 DUP5 DUP3 DUP6 ADD PUSH2 0x6DD JUMP JUMPDEST SWAP2 POP POP SWAP3 SWAP2 POP POP JUMP JUMPDEST PUSH1 0x0 PUSH2 0x798 DUP4 DUP4 PUSH2 0x843 JUMP JUMPDEST PUSH1 0x20 DUP4 ADD SWAP1 POP SWAP3 SWAP2 POP POP JUMP JUMPDEST PUSH2 0x7AD DUP2 PUSH2 0x9A9 JUMP JUMPDEST DUP3 MSTORE POP POP JUMP JUMPDEST PUSH2 0x7BC DUP2 PUSH2 0x95B JUMP JUMPDEST DUP3 MSTORE POP POP JUMP JUMPDEST PUSH1 0x0 PUSH2 0x7CD DUP3 PUSH2 0x921 JUMP JUMPDEST PUSH2 0x7D7 DUP2 DUP6 PUSH2 0x939 JUMP JUMPDEST SWAP4 POP PUSH2 0x7E2 DUP4 PUSH2 0x911 JUMP JUMPDEST DUP1 PUSH1 0x0 JUMPDEST DUP4 DUP2 LT ISZERO PUSH2 0x813 JUMPI DUP2 MLOAD PUSH2 0x7FA DUP9 DUP3 PUSH2 0x78C JUMP JUMPDEST SWAP8 POP PUSH2 0x805 DUP4 PUSH2 0x92C JUMP JUMPDEST SWAP3 POP POP PUSH1 0x1 DUP2 ADD SWAP1 POP PUSH2 0x7E6 JUMP JUMPDEST POP DUP6 SWAP4 POP POP POP POP SWAP3 SWAP2 POP POP JUMP JUMPDEST PUSH1 0x0 PUSH2 0x82D PUSH1 0x10 DUP4 PUSH2 0x94A JUMP JUMPDEST SWAP2 POP PUSH2 0x838 DUP3 PUSH2 0x9E4 JUMP JUMPDEST PUSH1 0x20 DUP3 ADD SWAP1 POP SWAP2 SWAP1 POP JUMP JUMPDEST PUSH2 0x84C DUP2 PUSH2 0x99F JUMP JUMPDEST DUP3 MSTORE POP POP JUMP JUMPDEST PUSH2 0x85B DUP2 PUSH2 0x99F JUMP JUMPDEST DUP3 MSTORE POP POP JUMP JUMPDEST PUSH1 0x0 PUSH1 0x80 DUP3 ADD SWAP1 POP PUSH2 0x876 PUSH1 0x0 DUP4 ADD DUP8 PUSH2 0x7B3 JUMP JUMPDEST PUSH2 0x883 PUSH1 0x20 DUP4 ADD DUP7 PUSH2 0x7A4 JUMP JUMPDEST PUSH2 0x890 PUSH1 0x40 DUP4 ADD DUP6 PUSH2 0x852 JUMP JUMPDEST PUSH2 0x89D PUSH1 0x60 DUP4 ADD DUP5 PUSH2 0x852 JUMP JUMPDEST SWAP6 SWAP5 POP POP POP POP POP JUMP JUMPDEST PUSH1 0x0 PUSH1 0x40 DUP3 ADD SWAP1 POP PUSH2 0x8BB PUSH1 0x0 DUP4 ADD DUP6 PUSH2 0x7B3 JUMP JUMPDEST PUSH2 0x8C8 PUSH1 0x20 DUP4 ADD DUP5 PUSH2 0x852 JUMP JUMPDEST SWAP4 SWAP3 POP POP POP JUMP JUMPDEST PUSH1 0x0 PUSH1 0x20 DUP3 ADD SWAP1 POP DUP2 DUP2 SUB PUSH1 0x0 DUP4 ADD MSTORE PUSH2 0x8E9 DUP2 DUP5 PUSH2 0x7C2 JUMP JUMPDEST SWAP1 POP SWAP3 SWAP2 POP POP JUMP JUMPDEST PUSH1 0x0 PUSH1 0x20 DUP3 ADD SWAP1 POP DUP2 DUP2 SUB PUSH1 0x0 DUP4 ADD MSTORE PUSH2 0x90A DUP2 PUSH2 0x820 JUMP JUMPDEST SWAP1 POP SWAP2 SWAP1 POP JUMP JUMPDEST PUSH1 0x0 DUP2 SWAP1 POP PUSH1 0x20 DUP3 ADD SWAP1 POP SWAP2 SWAP1 POP JUMP JUMPDEST PUSH1 0x0 DUP2 MLOAD SWAP1 POP SWAP2 SWAP1 POP JUMP JUMPDEST PUSH1 0x0 PUSH1 0x20 DUP3 ADD SWAP1 POP SWAP2 SWAP1 POP JUMP JUMPDEST PUSH1 0x0 DUP3 DUP3 MSTORE PUSH1 0x20 DUP3 ADD SWAP1 POP SWAP3 SWAP2 POP POP JUMP JUMPDEST PUSH1 0x0 DUP3 DUP3 MSTORE PUSH1 0x20 DUP3 ADD SWAP1 POP SWAP3 SWAP2 POP POP JUMP JUMPDEST PUSH1 0x0 PUSH2 0x966 DUP3 PUSH2 0x97F JUMP JUMPDEST SWAP1 POP SWAP2 SWAP1 POP JUMP JUMPDEST PUSH1 0x0 PUSH2 0x978 DUP3 PUSH2 0x97F JUMP JUMPDEST SWAP1 POP SWAP2 SWAP1 POP JUMP JUMPDEST PUSH1 0x0 PUSH20 0xFFFFFFFFFFFFFFFFFFFFFFFFFFFFFFFFFFFFFFFF DUP3 AND SWAP1 POP SWAP2 SWAP1 POP JUMP JUMPDEST PUSH1 0x0 DUP2 SWAP1 POP SWAP2 SWAP1 POP JUMP JUMPDEST PUSH1 0x0 PUSH2 0x9B4 DUP3 PUSH2 0x9BB JUMP JUMPDEST SWAP1 POP SWAP2 SWAP1 POP JUMP JUMPDEST PUSH1 0x0 PUSH2 0x9C6 DUP3 PUSH2 0x9CD JUMP JUMPDEST SWAP1 POP SWAP2 SWAP1 POP JUMP JUMPDEST PUSH1 0x0 PUSH2 0x9D8 DUP3 PUSH2 0x97F JUMP JUMPDEST SWAP1 POP SWAP2 SWAP1 POP JUMP JUMPDEST PUSH1 0x0 DUP1 REVERT JUMPDEST PUSH32 0x4E6F7420456E6F756768204D6F6E657900000000000000000000000000000000 PUSH1 0x0 DUP3 ADD MSTORE POP JUMP JUMPDEST PUSH2 0xA16 DUP2 PUSH2 0x95B JUMP JUMPDEST DUP2 EQ PUSH2 0xA21 JUMPI PUSH1 0x0 DUP1 REVERT JUMPDEST POP JUMP JUMPDEST PUSH2 0xA2D DUP2 PUSH2 0x96D JUMP JUMPDEST DUP2 EQ PUSH2 0xA38 JUMPI PUSH1 0x0 DUP1 REVERT JUMPDEST POP JUMP JUMPDEST PUSH2 0xA44 DUP2 PUSH2 0x99F JUMP JUMPDEST DUP2 EQ PUSH2 0xA4F JUMPI PUSH1 0x0 DUP1 REVERT JUMPDEST POP JUMP INVALID LOG2 PUSH5 0x6970667358 0x22 SLT KECCAK256 DUP10 SSTORE PUSH20 0xEAD3B56A1E9E392CEBCA3F583BB5EF99984DD0B6 SWAP9 0xDE 0xE8 0xED SWAP13 0xA5 0x4D PUSH16 0x9164736F6C6343000807003300000000 "
				},
				"gasEstimates": {
					"creation": {
						"codeDepositCost": "539200",
						"executionCost": "24841",
						"totalCost": "564041"
					},
					"external": {
						"addOwner(address)": "27023",
						"deposite()": "1783",
						"getPendingTransactions()": "infinite",
						"removeOwner(address)": "26979",
						"transferTo(address,uint256)": "infinite",
						"withDraw(uint256)": "infinite"
					}
				},
				"methodIdentifiers": {
					"addOwner(address)": "7065cb48",
					"deposite()": "a50ec326",
					"getPendingTransactions()": "d11db83f",
					"removeOwner(address)": "173825d9",
					"transferTo(address,uint256)": "2ccb1b30",
					"withDraw(uint256)": "14174f33"
				}
			},
			"storageLayout": {
				"storage": [
					{
						"astId": 3,
						"contract": "contracts/Multi_Sign_Wallet.sol:MultiSignWallet",
						"label": "_owner",
						"offset": 0,
						"slot": "0",
						"type": "t_address"
					},
					{
						"astId": 7,
						"contract": "contracts/Multi_Sign_Wallet.sol:MultiSignWallet",
						"label": "_owners",
						"offset": 0,
						"slot": "1",
						"type": "t_mapping(t_address,t_uint8)"
					},
					{
						"astId": 25,
						"contract": "contracts/Multi_Sign_Wallet.sol:MultiSignWallet",
						"label": "_transactions",
						"offset": 0,
						"slot": "2",
						"type": "t_array(t_struct(Transaction)21_storage)dyn_storage"
					},
					{
						"astId": 29,
						"contract": "contracts/Multi_Sign_Wallet.sol:MultiSignWallet",
						"label": "signed",
						"offset": 0,
						"slot": "3",
						"type": "t_mapping(t_address,t_uint8)"
					},
					{
						"astId": 32,
						"contract": "contracts/Multi_Sign_Wallet.sol:MultiSignWallet",
						"label": "_pendingTransactions",
						"offset": 0,
						"slot": "4",
						"type": "t_array(t_uint256)dyn_storage"
					}
				],
				"types": {
					"t_address": {
						"encoding": "inplace",
						"label": "address",
						"numberOfBytes": "20"
					},
					"t_address_payable": {
						"encoding": "inplace",
						"label": "address payable",
						"numberOfBytes": "20"
					},
					"t_array(t_struct(Transaction)21_storage)dyn_storage": {
						"base": "t_struct(Transaction)21_storage",
						"encoding": "dynamic_array",
						"label": "struct MultiSignWallet.Transaction[]",
						"numberOfBytes": "32"
					},
					"t_array(t_uint256)dyn_storage": {
						"base": "t_uint256",
						"encoding": "dynamic_array",
						"label": "uint256[]",
						"numberOfBytes": "32"
					},
					"t_bool": {
						"encoding": "inplace",
						"label": "bool",
						"numberOfBytes": "1"
					},
					"t_mapping(t_address,t_uint8)": {
						"encoding": "mapping",
						"key": "t_address",
						"label": "mapping(address => uint8)",
						"numberOfBytes": "32",
						"value": "t_uint8"
					},
					"t_struct(Transaction)21_storage": {
						"encoding": "inplace",
						"label": "struct MultiSignWallet.Transaction",
						"members": [
							{
								"astId": 12,
								"contract": "contracts/Multi_Sign_Wallet.sol:MultiSignWallet",
								"label": "sender",
								"offset": 0,
								"slot": "0",
								"type": "t_address_payable"
							},
							{
								"astId": 14,
								"contract": "contracts/Multi_Sign_Wallet.sol:MultiSignWallet",
								"label": "reciever",
								"offset": 0,
								"slot": "1",
								"type": "t_address_payable"
							},
							{
								"astId": 16,
								"contract": "contracts/Multi_Sign_Wallet.sol:MultiSignWallet",
								"label": "amount",
								"offset": 0,
								"slot": "2",
								"type": "t_uint256"
							},
							{
								"astId": 18,
								"contract": "contracts/Multi_Sign_Wallet.sol:MultiSignWallet",
								"label": "isSigned",
								"offset": 0,
								"slot": "3",
								"type": "t_bool"
							},
							{
								"astId": 20,
								"contract": "contracts/Multi_Sign_Wallet.sol:MultiSignWallet",
								"label": "signatureCount",
								"offset": 1,
								"slot": "3",
								"type": "t_uint8"
							}
						],
						"numberOfBytes": "128"
					},
					"t_uint256": {
						"encoding": "inplace",
						"label": "uint256",
						"numberOfBytes": "32"
					},
					"t_uint8": {
						"encoding": "inplace",
						"label": "uint8",
						"numberOfBytes": "1"
					}
				}
			},
			"userdoc": {
				"kind": "user",
				"methods": {},
				"version": 1
			}
		}
	}
}