{
	"contracts/Multi_Sign_Wallet.sol": {
		"MultiSignWallet": {
			"abi": [
				{
					"inputs": [],
					"stateMutability": "nonpayable",
					"type": "constructor"
				},
				{
					"anonymous": false,
					"inputs": [
						{
							"indexed": false,
							"internalType": "address",
							"name": "_from",
							"type": "address"
						},
						{
							"indexed": false,
							"internalType": "uint256",
							"name": "amount",
							"type": "uint256"
						}
					],
					"name": "DepositFunds",
					"type": "event"
				},
				{
					"anonymous": false,
					"inputs": [
						{
							"indexed": false,
							"internalType": "address",
							"name": "_from",
							"type": "address"
						},
						{
							"indexed": false,
							"internalType": "address",
							"name": "_to",
							"type": "address"
						},
						{
							"indexed": false,
							"internalType": "uint256",
							"name": "amount",
							"type": "uint256"
						},
						{
							"indexed": false,
							"internalType": "uint256",
							"name": "transactionId",
							"type": "uint256"
						}
					],
					"name": "TransactionCompleted",
					"type": "event"
				},
				{
					"anonymous": false,
					"inputs": [
						{
							"indexed": false,
							"internalType": "address",
							"name": "_from",
							"type": "address"
						},
						{
							"indexed": false,
							"internalType": "address",
							"name": "_to",
							"type": "address"
						},
						{
							"indexed": false,
							"internalType": "uint256",
							"name": "amount",
							"type": "uint256"
						},
						{
							"indexed": false,
							"internalType": "uint256",
							"name": "transactionId",
							"type": "uint256"
						}
					],
					"name": "TransactionCreated",
					"type": "event"
				},
				{
					"anonymous": false,
					"inputs": [
						{
							"indexed": false,
							"internalType": "address",
							"name": "_by",
							"type": "address"
						},
						{
							"indexed": false,
							"internalType": "uint256",
							"name": "transactionId",
							"type": "uint256"
						}
					],
					"name": "TransactionSigned",
					"type": "event"
				},
				{
					"inputs": [
						{
							"internalType": "address",
							"name": "owner",
							"type": "address"
						}
					],
					"name": "addOwner",
					"outputs": [],
					"stateMutability": "nonpayable",
					"type": "function"
				},
				{
					"inputs": [],
					"name": "deposite",
					"outputs": [],
					"stateMutability": "payable",
					"type": "function"
				},
				{
					"inputs": [],
					"name": "getPendingTransactions",
					"outputs": [
						{
							"internalType": "uint256[]",
							"name": "",
							"type": "uint256[]"
						}
					],
					"stateMutability": "view",
					"type": "function"
				},
				{
					"inputs": [
						{
							"internalType": "uint256",
							"name": "_id",
							"type": "uint256"
						}
					],
					"name": "getTransaction",
					"outputs": [
						{
							"components": [
								{
									"internalType": "address payable",
									"name": "sender",
									"type": "address"
								},
								{
									"internalType": "address payable",
									"name": "reciever",
									"type": "address"
								},
								{
									"internalType": "uint256",
									"name": "amount",
									"type": "uint256"
								},
								{
									"internalType": "bool",
									"name": "isSigned",
									"type": "bool"
								},
								{
									"internalType": "uint8",
									"name": "signatureCount",
									"type": "uint8"
								}
							],
							"internalType": "struct MultiSignWallet.Transaction",
							"name": "",
							"type": "tuple"
						}
					],
					"stateMutability": "view",
					"type": "function"
				},
				{
					"inputs": [
						{
							"internalType": "address",
							"name": "owner",
							"type": "address"
						}
					],
					"name": "removeOwner",
					"outputs": [],
					"stateMutability": "nonpayable",
					"type": "function"
				},
				{
					"inputs": [],
					"name": "selectedTransactionBalance",
					"outputs": [
						{
							"internalType": "uint256",
							"name": "",
							"type": "uint256"
						}
					],
					"stateMutability": "view",
					"type": "function"
				},
				{
					"inputs": [
						{
							"internalType": "uint256",
							"name": "_id",
							"type": "uint256"
						}
					],
					"name": "signTransaction",
					"outputs": [],
					"stateMutability": "nonpayable",
					"type": "function"
				},
				{
					"inputs": [
						{
							"internalType": "address payable",
							"name": "_reciever",
							"type": "address"
						},
						{
							"internalType": "uint256",
							"name": "_amount",
							"type": "uint256"
						}
					],
					"name": "transferTo",
					"outputs": [],
					"stateMutability": "nonpayable",
					"type": "function"
				},
				{
					"inputs": [
						{
							"internalType": "uint256",
							"name": "amount",
							"type": "uint256"
						}
					],
					"name": "withDraw",
					"outputs": [],
					"stateMutability": "nonpayable",
					"type": "function"
				}
			],
			"devdoc": {
				"kind": "dev",
				"methods": {},
				"version": 1
			},
			"evm": {
				"assembly": "    /* \"contracts/Multi_Sign_Wallet.sol\":25:3517  contract MultiSignWallet {\r... */\n  mstore(0x40, 0x80)\n    /* \"contracts/Multi_Sign_Wallet.sol\":1732:1784  constructor() {\r... */\n  callvalue\n  dup1\n  iszero\n  tag_1\n  jumpi\n  0x00\n  dup1\n  revert\ntag_1:\n  pop\n    /* \"contracts/Multi_Sign_Wallet.sol\":1766:1776  msg.sender */\n  caller\n    /* \"contracts/Multi_Sign_Wallet.sol\":1757:1763  _owner */\n  0x00\n  dup1\n    /* \"contracts/Multi_Sign_Wallet.sol\":1757:1776  _owner = msg.sender */\n  0x0100\n  exp\n  dup2\n  sload\n  dup2\n  0xffffffffffffffffffffffffffffffffffffffff\n  mul\n  not\n  and\n  swap1\n  dup4\n  0xffffffffffffffffffffffffffffffffffffffff\n  and\n  mul\n  or\n  swap1\n  sstore\n  pop\n    /* \"contracts/Multi_Sign_Wallet.sol\":25:3517  contract MultiSignWallet {\r... */\n  dataSize(sub_0)\n  dup1\n  dataOffset(sub_0)\n  0x00\n  codecopy\n  0x00\n  return\nstop\n\nsub_0: assembly {\n        /* \"contracts/Multi_Sign_Wallet.sol\":25:3517  contract MultiSignWallet {\r... */\n      mstore(0x40, 0x80)\n      jumpi(tag_1, lt(calldatasize, 0x04))\n      shr(0xe0, calldataload(0x00))\n      dup1\n      0x572c1bf4\n      gt\n      tag_11\n      jumpi\n      dup1\n      0x572c1bf4\n      eq\n      tag_6\n      jumpi\n      dup1\n      0x5d9ec210\n      eq\n      tag_7\n      jumpi\n      dup1\n      0x7065cb48\n      eq\n      tag_8\n      jumpi\n      dup1\n      0xa50ec326\n      eq\n      tag_9\n      jumpi\n      dup1\n      0xd11db83f\n      eq\n      tag_10\n      jumpi\n      jump(tag_1)\n    tag_11:\n      dup1\n      0x14174f33\n      eq\n      tag_2\n      jumpi\n      dup1\n      0x173825d9\n      eq\n      tag_3\n      jumpi\n      dup1\n      0x2ccb1b30\n      eq\n      tag_4\n      jumpi\n      dup1\n      0x33ea3dc8\n      eq\n      tag_5\n      jumpi\n    tag_1:\n      0x00\n      dup1\n      revert\n        /* \"contracts/Multi_Sign_Wallet.sol\":2079:2174  function withDraw(uint amount) public {\r... */\n    tag_2:\n      callvalue\n      dup1\n      iszero\n      tag_12\n      jumpi\n      0x00\n      dup1\n      revert\n    tag_12:\n      pop\n      tag_13\n      0x04\n      dup1\n      calldatasize\n      sub\n      dup2\n      add\n      swap1\n      tag_14\n      swap2\n      swap1\n      tag_15\n      jump\t// in\n    tag_14:\n      tag_16\n      jump\t// in\n    tag_13:\n      stop\n        /* \"contracts/Multi_Sign_Wallet.sol\":1884:1971  function removeOwner(address owner) public isOwner{\r... */\n    tag_3:\n      callvalue\n      dup1\n      iszero\n      tag_17\n      jumpi\n      0x00\n      dup1\n      revert\n    tag_17:\n      pop\n      tag_18\n      0x04\n      dup1\n      calldatasize\n      sub\n      dup2\n      add\n      swap1\n      tag_19\n      swap2\n      swap1\n      tag_20\n      jump\t// in\n    tag_19:\n      tag_21\n      jump\t// in\n    tag_18:\n      stop\n        /* \"contracts/Multi_Sign_Wallet.sol\":2182:2756  function transferTo(address payable _reciever,uint _amount) public validOwner{\r... */\n    tag_4:\n      callvalue\n      dup1\n      iszero\n      tag_22\n      jumpi\n      0x00\n      dup1\n      revert\n    tag_22:\n      pop\n      tag_23\n      0x04\n      dup1\n      calldatasize\n      sub\n      dup2\n      add\n      swap1\n      tag_24\n      swap2\n      swap1\n      tag_25\n      jump\t// in\n    tag_24:\n      tag_26\n      jump\t// in\n    tag_23:\n      stop\n        /* \"contracts/Multi_Sign_Wallet.sol\":2898:3097  function getTransaction(uint _id) public view validOwner returns(Transaction memory){\r... */\n    tag_5:\n      callvalue\n      dup1\n      iszero\n      tag_27\n      jumpi\n      0x00\n      dup1\n      revert\n    tag_27:\n      pop\n      tag_28\n      0x04\n      dup1\n      calldatasize\n      sub\n      dup2\n      add\n      swap1\n      tag_29\n      swap2\n      swap1\n      tag_15\n      jump\t// in\n    tag_29:\n      tag_30\n      jump\t// in\n    tag_28:\n      mload(0x40)\n      tag_31\n      swap2\n      swap1\n      tag_32\n      jump\t// in\n    tag_31:\n      mload(0x40)\n      dup1\n      swap2\n      sub\n      swap1\n      return\n        /* \"contracts/Multi_Sign_Wallet.sol\":3105:3216  function selectedTransactionBalance() public view returns (uint){\r... */\n    tag_6:\n      callvalue\n      dup1\n      iszero\n      tag_33\n      jumpi\n      0x00\n      dup1\n      revert\n    tag_33:\n      pop\n      tag_34\n      tag_35\n      jump\t// in\n    tag_34:\n      mload(0x40)\n      tag_36\n      swap2\n      swap1\n      tag_37\n      jump\t// in\n    tag_36:\n      mload(0x40)\n      dup1\n      swap2\n      sub\n      swap1\n      return\n        /* \"contracts/Multi_Sign_Wallet.sol\":3224:3514  function signTransaction (uint _id) public validOwner{\r... */\n    tag_7:\n      callvalue\n      dup1\n      iszero\n      tag_38\n      jumpi\n      0x00\n      dup1\n      revert\n    tag_38:\n      pop\n      tag_39\n      0x04\n      dup1\n      calldatasize\n      sub\n      dup2\n      add\n      swap1\n      tag_40\n      swap2\n      swap1\n      tag_15\n      jump\t// in\n    tag_40:\n      tag_41\n      jump\t// in\n    tag_39:\n      stop\n        /* \"contracts/Multi_Sign_Wallet.sol\":1792:1876  function addOwner(address owner) public isOwner{\r... */\n    tag_8:\n      callvalue\n      dup1\n      iszero\n      tag_42\n      jumpi\n      0x00\n      dup1\n      revert\n    tag_42:\n      pop\n      tag_43\n      0x04\n      dup1\n      calldatasize\n      sub\n      dup2\n      add\n      swap1\n      tag_44\n      swap2\n      swap1\n      tag_20\n      jump\t// in\n    tag_44:\n      tag_45\n      jump\t// in\n    tag_43:\n      stop\n        /* \"contracts/Multi_Sign_Wallet.sol\":1979:2071  function deposite() public payable{\r... */\n    tag_9:\n      tag_46\n      tag_47\n      jump\t// in\n    tag_46:\n      stop\n        /* \"contracts/Multi_Sign_Wallet.sol\":2764:2890  function getPendingTransactions() public view validOwner returns(uint[] memory) {\r... */\n    tag_10:\n      callvalue\n      dup1\n      iszero\n      tag_48\n      jumpi\n      0x00\n      dup1\n      revert\n    tag_48:\n      pop\n      tag_49\n      tag_50\n      jump\t// in\n    tag_49:\n      mload(0x40)\n      tag_51\n      swap2\n      swap1\n      tag_52\n      jump\t// in\n    tag_51:\n      mload(0x40)\n      dup1\n      swap2\n      sub\n      swap1\n      return\n        /* \"contracts/Multi_Sign_Wallet.sol\":2079:2174  function withDraw(uint amount) public {\r... */\n    tag_16:\n        /* \"contracts/Multi_Sign_Wallet.sol\":2128:2166  transferTo(payable(msg.sender),amount) */\n      tag_54\n        /* \"contracts/Multi_Sign_Wallet.sol\":2147:2157  msg.sender */\n      caller\n        /* \"contracts/Multi_Sign_Wallet.sol\":2159:2165  amount */\n      dup3\n        /* \"contracts/Multi_Sign_Wallet.sol\":2128:2138  transferTo */\n      tag_26\n        /* \"contracts/Multi_Sign_Wallet.sol\":2128:2166  transferTo(payable(msg.sender),amount) */\n      jump\t// in\n    tag_54:\n        /* \"contracts/Multi_Sign_Wallet.sol\":2079:2174  function withDraw(uint amount) public {\r... */\n      pop\n      jump\t// out\n        /* \"contracts/Multi_Sign_Wallet.sol\":1884:1971  function removeOwner(address owner) public isOwner{\r... */\n    tag_21:\n        /* \"contracts/Multi_Sign_Wallet.sol\":1477:1483  _owner */\n      0x00\n      dup1\n      sload\n      swap1\n      0x0100\n      exp\n      swap1\n      div\n      0xffffffffffffffffffffffffffffffffffffffff\n      and\n        /* \"contracts/Multi_Sign_Wallet.sol\":1465:1483  msg.sender==_owner */\n      0xffffffffffffffffffffffffffffffffffffffff\n      and\n        /* \"contracts/Multi_Sign_Wallet.sol\":1465:1475  msg.sender */\n      caller\n        /* \"contracts/Multi_Sign_Wallet.sol\":1465:1483  msg.sender==_owner */\n      0xffffffffffffffffffffffffffffffffffffffff\n      and\n      eq\n        /* \"contracts/Multi_Sign_Wallet.sol\":1457:1484  require(msg.sender==_owner) */\n      tag_56\n      jumpi\n      0x00\n      dup1\n      revert\n    tag_56:\n        /* \"contracts/Multi_Sign_Wallet.sol\":1962:1963  0 */\n      0x00\n        /* \"contracts/Multi_Sign_Wallet.sol\":1945:1952  _owners */\n      0x01\n        /* \"contracts/Multi_Sign_Wallet.sol\":1945:1959  _owners[owner] */\n      0x00\n        /* \"contracts/Multi_Sign_Wallet.sol\":1953:1958  owner */\n      dup4\n        /* \"contracts/Multi_Sign_Wallet.sol\":1945:1959  _owners[owner] */\n      0xffffffffffffffffffffffffffffffffffffffff\n      and\n      0xffffffffffffffffffffffffffffffffffffffff\n      and\n      dup2\n      mstore\n      0x20\n      add\n      swap1\n      dup2\n      mstore\n      0x20\n      add\n      0x00\n      keccak256\n      0x00\n        /* \"contracts/Multi_Sign_Wallet.sol\":1945:1963  _owners[owner] = 0 */\n      0x0100\n      exp\n      dup2\n      sload\n      dup2\n      0xff\n      mul\n      not\n      and\n      swap1\n      dup4\n      0xff\n      and\n      mul\n      or\n      swap1\n      sstore\n      pop\n        /* \"contracts/Multi_Sign_Wallet.sol\":1884:1971  function removeOwner(address owner) public isOwner{\r... */\n      pop\n      jump\t// out\n        /* \"contracts/Multi_Sign_Wallet.sol\":2182:2756  function transferTo(address payable _reciever,uint _amount) public validOwner{\r... */\n    tag_26:\n        /* \"contracts/Multi_Sign_Wallet.sol\":1642:1648  _owner */\n      0x00\n      dup1\n      sload\n      swap1\n      0x0100\n      exp\n      swap1\n      div\n      0xffffffffffffffffffffffffffffffffffffffff\n      and\n        /* \"contracts/Multi_Sign_Wallet.sol\":1628:1648  msg.sender == _owner */\n      0xffffffffffffffffffffffffffffffffffffffff\n      and\n        /* \"contracts/Multi_Sign_Wallet.sol\":1628:1638  msg.sender */\n      caller\n        /* \"contracts/Multi_Sign_Wallet.sol\":1628:1648  msg.sender == _owner */\n      0xffffffffffffffffffffffffffffffffffffffff\n      and\n      eq\n        /* \"contracts/Multi_Sign_Wallet.sol\":1628:1676  msg.sender == _owner || _owners[msg.sender] == 1 */\n      dup1\n      tag_59\n      jumpi\n      pop\n        /* \"contracts/Multi_Sign_Wallet.sol\":1675:1676  1 */\n      0x01\n        /* \"contracts/Multi_Sign_Wallet.sol\":1652:1659  _owners */\n      dup1\n        /* \"contracts/Multi_Sign_Wallet.sol\":1652:1671  _owners[msg.sender] */\n      0x00\n        /* \"contracts/Multi_Sign_Wallet.sol\":1660:1670  msg.sender */\n      caller\n        /* \"contracts/Multi_Sign_Wallet.sol\":1652:1671  _owners[msg.sender] */\n      0xffffffffffffffffffffffffffffffffffffffff\n      and\n      0xffffffffffffffffffffffffffffffffffffffff\n      and\n      dup2\n      mstore\n      0x20\n      add\n      swap1\n      dup2\n      mstore\n      0x20\n      add\n      0x00\n      keccak256\n      0x00\n      swap1\n      sload\n      swap1\n      0x0100\n      exp\n      swap1\n      div\n      0xff\n      and\n        /* \"contracts/Multi_Sign_Wallet.sol\":1652:1676  _owners[msg.sender] == 1 */\n      0xff\n      and\n      eq\n        /* \"contracts/Multi_Sign_Wallet.sol\":1628:1676  msg.sender == _owner || _owners[msg.sender] == 1 */\n    tag_59:\n        /* \"contracts/Multi_Sign_Wallet.sol\":1619:1677  require (msg.sender == _owner || _owners[msg.sender] == 1) */\n      tag_60\n      jumpi\n      0x00\n      dup1\n      revert\n    tag_60:\n        /* \"contracts/Multi_Sign_Wallet.sol\":2303:2310  _amount */\n      dup1\n        /* \"contracts/Multi_Sign_Wallet.sol\":2278:2299  address(this).balance */\n      selfbalance\n        /* \"contracts/Multi_Sign_Wallet.sol\":2278:2310  address(this).balance >= _amount */\n      lt\n      iszero\n        /* \"contracts/Multi_Sign_Wallet.sol\":2270:2333  require(address(this).balance >= _amount ,  \"Not Enough Money\") */\n      tag_62\n      jumpi\n      mload(0x40)\n      0x08c379a000000000000000000000000000000000000000000000000000000000\n      dup2\n      mstore\n      0x04\n      add\n      tag_63\n      swap1\n      tag_64\n      jump\t// in\n    tag_63:\n      mload(0x40)\n      dup1\n      swap2\n      sub\n      swap1\n      revert\n    tag_62:\n        /* \"contracts/Multi_Sign_Wallet.sol\":2344:2357  _transactions */\n      0x02\n        /* \"contracts/Multi_Sign_Wallet.sol\":2363:2602  Transaction(\r... */\n      mload(0x40)\n      dup1\n      0xa0\n      add\n      0x40\n      mstore\n      dup1\n        /* \"contracts/Multi_Sign_Wallet.sol\":2423:2433  msg.sender */\n      caller\n        /* \"contracts/Multi_Sign_Wallet.sol\":2363:2602  Transaction(\r... */\n      0xffffffffffffffffffffffffffffffffffffffff\n      and\n      dup2\n      mstore\n      0x20\n      add\n        /* \"contracts/Multi_Sign_Wallet.sol\":2463:2472  _reciever */\n      dup5\n        /* \"contracts/Multi_Sign_Wallet.sol\":2363:2602  Transaction(\r... */\n      0xffffffffffffffffffffffffffffffffffffffff\n      and\n      dup2\n      mstore\n      0x20\n      add\n        /* \"contracts/Multi_Sign_Wallet.sol\":2499:2506  _amount */\n      dup4\n        /* \"contracts/Multi_Sign_Wallet.sol\":2363:2602  Transaction(\r... */\n      dup2\n      mstore\n      0x20\n      add\n        /* \"contracts/Multi_Sign_Wallet.sol\":2535:2540  false */\n      0x00\n        /* \"contracts/Multi_Sign_Wallet.sol\":2363:2602  Transaction(\r... */\n      iszero\n      iszero\n      dup2\n      mstore\n      0x20\n      add\n        /* \"contracts/Multi_Sign_Wallet.sol\":2575:2576  0 */\n      0x00\n        /* \"contracts/Multi_Sign_Wallet.sol\":2363:2602  Transaction(\r... */\n      0xff\n      and\n      dup2\n      mstore\n      pop\n        /* \"contracts/Multi_Sign_Wallet.sol\":2344:2603  _transactions.push(Transaction(\r... */\n      swap1\n      dup1\n      0x01\n      dup2\n      sload\n      add\n      dup1\n      dup3\n      sstore\n      dup1\n      swap2\n      pop\n      pop\n      0x01\n      swap1\n      sub\n      swap1\n      0x00\n      mstore\n      keccak256(0x00, 0x20)\n      swap1\n      0x04\n      mul\n      add\n      0x00\n      swap1\n      swap2\n      swap1\n      swap2\n      swap1\n      swap2\n      pop\n      0x00\n      dup3\n      add\n      mload\n      dup2\n      0x00\n      add\n      exp(0x0100, 0x00)\n      dup2\n      sload\n      dup2\n      0xffffffffffffffffffffffffffffffffffffffff\n      mul\n      not\n      and\n      swap1\n      dup4\n      0xffffffffffffffffffffffffffffffffffffffff\n      and\n      mul\n      or\n      swap1\n      sstore\n      pop\n      0x20\n      dup3\n      add\n      mload\n      dup2\n      0x01\n      add\n      exp(0x0100, 0x00)\n      dup2\n      sload\n      dup2\n      0xffffffffffffffffffffffffffffffffffffffff\n      mul\n      not\n      and\n      swap1\n      dup4\n      0xffffffffffffffffffffffffffffffffffffffff\n      and\n      mul\n      or\n      swap1\n      sstore\n      pop\n      0x40\n      dup3\n      add\n      mload\n      dup2\n      0x02\n      add\n      sstore\n      0x60\n      dup3\n      add\n      mload\n      dup2\n      0x03\n      add\n      exp(0x0100, 0x00)\n      dup2\n      sload\n      dup2\n      0xff\n      mul\n      not\n      and\n      swap1\n      dup4\n      iszero\n      iszero\n      mul\n      or\n      swap1\n      sstore\n      pop\n      0x80\n      dup3\n      add\n      mload\n      dup2\n      0x03\n      add\n      exp(0x0100, 0x01)\n      dup2\n      sload\n      dup2\n      0xff\n      mul\n      not\n      and\n      swap1\n      dup4\n      0xff\n      and\n      mul\n      or\n      swap1\n      sstore\n      pop\n      pop\n      pop\n        /* \"contracts/Multi_Sign_Wallet.sol\":2616:2636  _pendingTransactions */\n      0x04\n        /* \"contracts/Multi_Sign_Wallet.sol\":2642:2655  _transactions */\n      0x02\n        /* \"contracts/Multi_Sign_Wallet.sol\":2642:2662  _transactions.length */\n      dup1\n      sload\n      swap1\n      pop\n        /* \"contracts/Multi_Sign_Wallet.sol\":2616:2663  _pendingTransactions.push(_transactions.length) */\n      swap1\n      dup1\n      0x01\n      dup2\n      sload\n      add\n      dup1\n      dup3\n      sstore\n      dup1\n      swap2\n      pop\n      pop\n      0x01\n      swap1\n      sub\n      swap1\n      0x00\n      mstore\n      keccak256(0x00, 0x20)\n      add\n      0x00\n      swap1\n      swap2\n      swap1\n      swap2\n      swap1\n      swap2\n      pop\n      sstore\n        /* \"contracts/Multi_Sign_Wallet.sol\":2679:2748  TransactionCreated(msg.sender,_reciever,_amount,_transactions.length) */\n      0x41d8c89c4a25824354aa1f198d80d06f2f93f903a2d180d1ea20429a4678c4a4\n        /* \"contracts/Multi_Sign_Wallet.sol\":2698:2708  msg.sender */\n      caller\n        /* \"contracts/Multi_Sign_Wallet.sol\":2709:2718  _reciever */\n      dup4\n        /* \"contracts/Multi_Sign_Wallet.sol\":2719:2726  _amount */\n      dup4\n        /* \"contracts/Multi_Sign_Wallet.sol\":2727:2740  _transactions */\n      0x02\n        /* \"contracts/Multi_Sign_Wallet.sol\":2727:2747  _transactions.length */\n      dup1\n      sload\n      swap1\n      pop\n        /* \"contracts/Multi_Sign_Wallet.sol\":2679:2748  TransactionCreated(msg.sender,_reciever,_amount,_transactions.length) */\n      mload(0x40)\n      tag_67\n      swap5\n      swap4\n      swap3\n      swap2\n      swap1\n      tag_68\n      jump\t// in\n    tag_67:\n      mload(0x40)\n      dup1\n      swap2\n      sub\n      swap1\n      log1\n        /* \"contracts/Multi_Sign_Wallet.sol\":2182:2756  function transferTo(address payable _reciever,uint _amount) public validOwner{\r... */\n      pop\n      pop\n      jump\t// out\n        /* \"contracts/Multi_Sign_Wallet.sol\":2898:3097  function getTransaction(uint _id) public view validOwner returns(Transaction memory){\r... */\n    tag_30:\n        /* \"contracts/Multi_Sign_Wallet.sol\":2963:2981  Transaction memory */\n      tag_69\n      tag_70\n      jump\t// in\n    tag_69:\n        /* \"contracts/Multi_Sign_Wallet.sol\":1642:1648  _owner */\n      0x00\n      dup1\n      sload\n      swap1\n      0x0100\n      exp\n      swap1\n      div\n      0xffffffffffffffffffffffffffffffffffffffff\n      and\n        /* \"contracts/Multi_Sign_Wallet.sol\":1628:1648  msg.sender == _owner */\n      0xffffffffffffffffffffffffffffffffffffffff\n      and\n        /* \"contracts/Multi_Sign_Wallet.sol\":1628:1638  msg.sender */\n      caller\n        /* \"contracts/Multi_Sign_Wallet.sol\":1628:1648  msg.sender == _owner */\n      0xffffffffffffffffffffffffffffffffffffffff\n      and\n      eq\n        /* \"contracts/Multi_Sign_Wallet.sol\":1628:1676  msg.sender == _owner || _owners[msg.sender] == 1 */\n      dup1\n      tag_72\n      jumpi\n      pop\n        /* \"contracts/Multi_Sign_Wallet.sol\":1675:1676  1 */\n      0x01\n        /* \"contracts/Multi_Sign_Wallet.sol\":1652:1659  _owners */\n      dup1\n        /* \"contracts/Multi_Sign_Wallet.sol\":1652:1671  _owners[msg.sender] */\n      0x00\n        /* \"contracts/Multi_Sign_Wallet.sol\":1660:1670  msg.sender */\n      caller\n        /* \"contracts/Multi_Sign_Wallet.sol\":1652:1671  _owners[msg.sender] */\n      0xffffffffffffffffffffffffffffffffffffffff\n      and\n      0xffffffffffffffffffffffffffffffffffffffff\n      and\n      dup2\n      mstore\n      0x20\n      add\n      swap1\n      dup2\n      mstore\n      0x20\n      add\n      0x00\n      keccak256\n      0x00\n      swap1\n      sload\n      swap1\n      0x0100\n      exp\n      swap1\n      div\n      0xff\n      and\n        /* \"contracts/Multi_Sign_Wallet.sol\":1652:1676  _owners[msg.sender] == 1 */\n      0xff\n      and\n      eq\n        /* \"contracts/Multi_Sign_Wallet.sol\":1628:1676  msg.sender == _owner || _owners[msg.sender] == 1 */\n    tag_72:\n        /* \"contracts/Multi_Sign_Wallet.sol\":1619:1677  require (msg.sender == _owner || _owners[msg.sender] == 1) */\n      tag_73\n      jumpi\n      0x00\n      dup1\n      revert\n    tag_73:\n        /* \"contracts/Multi_Sign_Wallet.sol\":2993:3031  Transaction memory selectedTransaction */\n      0x00\n        /* \"contracts/Multi_Sign_Wallet.sol\":3034:3047  _transactions */\n      0x02\n        /* \"contracts/Multi_Sign_Wallet.sol\":3048:3051  _id */\n      dup4\n        /* \"contracts/Multi_Sign_Wallet.sol\":3034:3052  _transactions[_id] */\n      dup2\n      sload\n      dup2\n      lt\n      tag_75\n      jumpi\n      tag_76\n      tag_77\n      jump\t// in\n    tag_76:\n    tag_75:\n      swap1\n      0x00\n      mstore\n      keccak256(0x00, 0x20)\n      swap1\n      0x04\n      mul\n      add\n        /* \"contracts/Multi_Sign_Wallet.sol\":2993:3052  Transaction memory selectedTransaction = _transactions[_id] */\n      mload(0x40)\n      dup1\n      0xa0\n      add\n      0x40\n      mstore\n      swap1\n      dup2\n      0x00\n      dup3\n      add\n      0x00\n      swap1\n      sload\n      swap1\n      0x0100\n      exp\n      swap1\n      div\n      0xffffffffffffffffffffffffffffffffffffffff\n      and\n      0xffffffffffffffffffffffffffffffffffffffff\n      and\n      0xffffffffffffffffffffffffffffffffffffffff\n      and\n      dup2\n      mstore\n      0x20\n      add\n      0x01\n      dup3\n      add\n      0x00\n      swap1\n      sload\n      swap1\n      0x0100\n      exp\n      swap1\n      div\n      0xffffffffffffffffffffffffffffffffffffffff\n      and\n      0xffffffffffffffffffffffffffffffffffffffff\n      and\n      0xffffffffffffffffffffffffffffffffffffffff\n      and\n      dup2\n      mstore\n      0x20\n      add\n      0x02\n      dup3\n      add\n      sload\n      dup2\n      mstore\n      0x20\n      add\n      0x03\n      dup3\n      add\n      0x00\n      swap1\n      sload\n      swap1\n      0x0100\n      exp\n      swap1\n      div\n      0xff\n      and\n      iszero\n      iszero\n      iszero\n      iszero\n      dup2\n      mstore\n      0x20\n      add\n      0x03\n      dup3\n      add\n      0x01\n      swap1\n      sload\n      swap1\n      0x0100\n      exp\n      swap1\n      div\n      0xff\n      and\n      0xff\n      and\n      0xff\n      and\n      dup2\n      mstore\n      pop\n      pop\n      swap1\n      pop\n        /* \"contracts/Multi_Sign_Wallet.sol\":3070:3089  selectedTransaction */\n      dup1\n        /* \"contracts/Multi_Sign_Wallet.sol\":3063:3089  return selectedTransaction */\n      swap2\n      pop\n      pop\n        /* \"contracts/Multi_Sign_Wallet.sol\":2898:3097  function getTransaction(uint _id) public view validOwner returns(Transaction memory){\r... */\n      swap2\n      swap1\n      pop\n      jump\t// out\n        /* \"contracts/Multi_Sign_Wallet.sol\":3105:3216  function selectedTransactionBalance() public view returns (uint){\r... */\n    tag_35:\n        /* \"contracts/Multi_Sign_Wallet.sol\":3164:3168  uint */\n      0x00\n        /* \"contracts/Multi_Sign_Wallet.sol\":3187:3208  address(this).balance */\n      selfbalance\n        /* \"contracts/Multi_Sign_Wallet.sol\":3180:3208  return address(this).balance */\n      swap1\n      pop\n        /* \"contracts/Multi_Sign_Wallet.sol\":3105:3216  function selectedTransactionBalance() public view returns (uint){\r... */\n      swap1\n      jump\t// out\n        /* \"contracts/Multi_Sign_Wallet.sol\":3224:3514  function signTransaction (uint _id) public validOwner{\r... */\n    tag_41:\n        /* \"contracts/Multi_Sign_Wallet.sol\":1642:1648  _owner */\n      0x00\n      dup1\n      sload\n      swap1\n      0x0100\n      exp\n      swap1\n      div\n      0xffffffffffffffffffffffffffffffffffffffff\n      and\n        /* \"contracts/Multi_Sign_Wallet.sol\":1628:1648  msg.sender == _owner */\n      0xffffffffffffffffffffffffffffffffffffffff\n      and\n        /* \"contracts/Multi_Sign_Wallet.sol\":1628:1638  msg.sender */\n      caller\n        /* \"contracts/Multi_Sign_Wallet.sol\":1628:1648  msg.sender == _owner */\n      0xffffffffffffffffffffffffffffffffffffffff\n      and\n      eq\n        /* \"contracts/Multi_Sign_Wallet.sol\":1628:1676  msg.sender == _owner || _owners[msg.sender] == 1 */\n      dup1\n      tag_81\n      jumpi\n      pop\n        /* \"contracts/Multi_Sign_Wallet.sol\":1675:1676  1 */\n      0x01\n        /* \"contracts/Multi_Sign_Wallet.sol\":1652:1659  _owners */\n      dup1\n        /* \"contracts/Multi_Sign_Wallet.sol\":1652:1671  _owners[msg.sender] */\n      0x00\n        /* \"contracts/Multi_Sign_Wallet.sol\":1660:1670  msg.sender */\n      caller\n        /* \"contracts/Multi_Sign_Wallet.sol\":1652:1671  _owners[msg.sender] */\n      0xffffffffffffffffffffffffffffffffffffffff\n      and\n      0xffffffffffffffffffffffffffffffffffffffff\n      and\n      dup2\n      mstore\n      0x20\n      add\n      swap1\n      dup2\n      mstore\n      0x20\n      add\n      0x00\n      keccak256\n      0x00\n      swap1\n      sload\n      swap1\n      0x0100\n      exp\n      swap1\n      div\n      0xff\n      and\n        /* \"contracts/Multi_Sign_Wallet.sol\":1652:1676  _owners[msg.sender] == 1 */\n      0xff\n      and\n      eq\n        /* \"contracts/Multi_Sign_Wallet.sol\":1628:1676  msg.sender == _owner || _owners[msg.sender] == 1 */\n    tag_81:\n        /* \"contracts/Multi_Sign_Wallet.sol\":1619:1677  require (msg.sender == _owner || _owners[msg.sender] == 1) */\n      tag_82\n      jumpi\n      0x00\n      dup1\n      revert\n    tag_82:\n        /* \"contracts/Multi_Sign_Wallet.sol\":3288:3327  Transaction storage selectedTransaction */\n      0x00\n        /* \"contracts/Multi_Sign_Wallet.sol\":3330:3343  _transactions */\n      0x02\n        /* \"contracts/Multi_Sign_Wallet.sol\":3344:3347  _id */\n      dup3\n        /* \"contracts/Multi_Sign_Wallet.sol\":3330:3348  _transactions[_id] */\n      dup2\n      sload\n      dup2\n      lt\n      tag_84\n      jumpi\n      tag_85\n      tag_77\n      jump\t// in\n    tag_85:\n    tag_84:\n      swap1\n      0x00\n      mstore\n      keccak256(0x00, 0x20)\n      swap1\n      0x04\n      mul\n      add\n        /* \"contracts/Multi_Sign_Wallet.sol\":3288:3348  Transaction storage selectedTransaction = _transactions[_id] */\n      swap1\n      pop\n        /* \"contracts/Multi_Sign_Wallet.sol\":3448:3467  selectedTransaction */\n      dup1\n        /* \"contracts/Multi_Sign_Wallet.sol\":3448:3474  selectedTransaction.sender */\n      0x00\n      add\n      0x00\n      swap1\n      sload\n      swap1\n      0x0100\n      exp\n      swap1\n      div\n      0xffffffffffffffffffffffffffffffffffffffff\n      and\n        /* \"contracts/Multi_Sign_Wallet.sol\":3434:3474  msg.sender != selectedTransaction.sender */\n      0xffffffffffffffffffffffffffffffffffffffff\n      and\n        /* \"contracts/Multi_Sign_Wallet.sol\":3434:3444  msg.sender */\n      caller\n        /* \"contracts/Multi_Sign_Wallet.sol\":3434:3474  msg.sender != selectedTransaction.sender */\n      0xffffffffffffffffffffffffffffffffffffffff\n      and\n      eq\n      iszero\n        /* \"contracts/Multi_Sign_Wallet.sol\":3426:3496  require(msg.sender != selectedTransaction.sender,\"Creator can't sign\") */\n      tag_87\n      jumpi\n      mload(0x40)\n      0x08c379a000000000000000000000000000000000000000000000000000000000\n      dup2\n      mstore\n      0x04\n      add\n      tag_88\n      swap1\n      tag_89\n      jump\t// in\n    tag_88:\n      mload(0x40)\n      dup1\n      swap2\n      sub\n      swap1\n      revert\n    tag_87:\n        /* \"contracts/Multi_Sign_Wallet.sol\":3277:3514  {\r... */\n      pop\n        /* \"contracts/Multi_Sign_Wallet.sol\":3224:3514  function signTransaction (uint _id) public validOwner{\r... */\n      pop\n      jump\t// out\n        /* \"contracts/Multi_Sign_Wallet.sol\":1792:1876  function addOwner(address owner) public isOwner{\r... */\n    tag_45:\n        /* \"contracts/Multi_Sign_Wallet.sol\":1477:1483  _owner */\n      0x00\n      dup1\n      sload\n      swap1\n      0x0100\n      exp\n      swap1\n      div\n      0xffffffffffffffffffffffffffffffffffffffff\n      and\n        /* \"contracts/Multi_Sign_Wallet.sol\":1465:1483  msg.sender==_owner */\n      0xffffffffffffffffffffffffffffffffffffffff\n      and\n        /* \"contracts/Multi_Sign_Wallet.sol\":1465:1475  msg.sender */\n      caller\n        /* \"contracts/Multi_Sign_Wallet.sol\":1465:1483  msg.sender==_owner */\n      0xffffffffffffffffffffffffffffffffffffffff\n      and\n      eq\n        /* \"contracts/Multi_Sign_Wallet.sol\":1457:1484  require(msg.sender==_owner) */\n      tag_91\n      jumpi\n      0x00\n      dup1\n      revert\n    tag_91:\n        /* \"contracts/Multi_Sign_Wallet.sol\":1867:1868  1 */\n      0x01\n        /* \"contracts/Multi_Sign_Wallet.sol\":1850:1857  _owners */\n      dup1\n        /* \"contracts/Multi_Sign_Wallet.sol\":1850:1864  _owners[owner] */\n      0x00\n        /* \"contracts/Multi_Sign_Wallet.sol\":1858:1863  owner */\n      dup4\n        /* \"contracts/Multi_Sign_Wallet.sol\":1850:1864  _owners[owner] */\n      0xffffffffffffffffffffffffffffffffffffffff\n      and\n      0xffffffffffffffffffffffffffffffffffffffff\n      and\n      dup2\n      mstore\n      0x20\n      add\n      swap1\n      dup2\n      mstore\n      0x20\n      add\n      0x00\n      keccak256\n      0x00\n        /* \"contracts/Multi_Sign_Wallet.sol\":1850:1868  _owners[owner] = 1 */\n      0x0100\n      exp\n      dup2\n      sload\n      dup2\n      0xff\n      mul\n      not\n      and\n      swap1\n      dup4\n      0xff\n      and\n      mul\n      or\n      swap1\n      sstore\n      pop\n        /* \"contracts/Multi_Sign_Wallet.sol\":1792:1876  function addOwner(address owner) public isOwner{\r... */\n      pop\n      jump\t// out\n        /* \"contracts/Multi_Sign_Wallet.sol\":1979:2071  function deposite() public payable{\r... */\n    tag_47:\n        /* \"contracts/Multi_Sign_Wallet.sol\":2029:2063  DepositFunds(msg.sender,msg.value) */\n      0xd241e73300212f6df233a8e6d3146b88a9d4964e06621d54b5ff6afeba7b1b88\n        /* \"contracts/Multi_Sign_Wallet.sol\":2042:2052  msg.sender */\n      caller\n        /* \"contracts/Multi_Sign_Wallet.sol\":2053:2062  msg.value */\n      callvalue\n        /* \"contracts/Multi_Sign_Wallet.sol\":2029:2063  DepositFunds(msg.sender,msg.value) */\n      mload(0x40)\n      tag_94\n      swap3\n      swap2\n      swap1\n      tag_95\n      jump\t// in\n    tag_94:\n      mload(0x40)\n      dup1\n      swap2\n      sub\n      swap1\n      log1\n        /* \"contracts/Multi_Sign_Wallet.sol\":1979:2071  function deposite() public payable{\r... */\n      jump\t// out\n        /* \"contracts/Multi_Sign_Wallet.sol\":2764:2890  function getPendingTransactions() public view validOwner returns(uint[] memory) {\r... */\n    tag_50:\n        /* \"contracts/Multi_Sign_Wallet.sol\":2829:2842  uint[] memory */\n      0x60\n        /* \"contracts/Multi_Sign_Wallet.sol\":1642:1648  _owner */\n      0x00\n      dup1\n      sload\n      swap1\n      0x0100\n      exp\n      swap1\n      div\n      0xffffffffffffffffffffffffffffffffffffffff\n      and\n        /* \"contracts/Multi_Sign_Wallet.sol\":1628:1648  msg.sender == _owner */\n      0xffffffffffffffffffffffffffffffffffffffff\n      and\n        /* \"contracts/Multi_Sign_Wallet.sol\":1628:1638  msg.sender */\n      caller\n        /* \"contracts/Multi_Sign_Wallet.sol\":1628:1648  msg.sender == _owner */\n      0xffffffffffffffffffffffffffffffffffffffff\n      and\n      eq\n        /* \"contracts/Multi_Sign_Wallet.sol\":1628:1676  msg.sender == _owner || _owners[msg.sender] == 1 */\n      dup1\n      tag_97\n      jumpi\n      pop\n        /* \"contracts/Multi_Sign_Wallet.sol\":1675:1676  1 */\n      0x01\n        /* \"contracts/Multi_Sign_Wallet.sol\":1652:1659  _owners */\n      dup1\n        /* \"contracts/Multi_Sign_Wallet.sol\":1652:1671  _owners[msg.sender] */\n      0x00\n        /* \"contracts/Multi_Sign_Wallet.sol\":1660:1670  msg.sender */\n      caller\n        /* \"contracts/Multi_Sign_Wallet.sol\":1652:1671  _owners[msg.sender] */\n      0xffffffffffffffffffffffffffffffffffffffff\n      and\n      0xffffffffffffffffffffffffffffffffffffffff\n      and\n      dup2\n      mstore\n      0x20\n      add\n      swap1\n      dup2\n      mstore\n      0x20\n      add\n      0x00\n      keccak256\n      0x00\n      swap1\n      sload\n      swap1\n      0x0100\n      exp\n      swap1\n      div\n      0xff\n      and\n        /* \"contracts/Multi_Sign_Wallet.sol\":1652:1676  _owners[msg.sender] == 1 */\n      0xff\n      and\n      eq\n        /* \"contracts/Multi_Sign_Wallet.sol\":1628:1676  msg.sender == _owner || _owners[msg.sender] == 1 */\n    tag_97:\n        /* \"contracts/Multi_Sign_Wallet.sol\":1619:1677  require (msg.sender == _owner || _owners[msg.sender] == 1) */\n      tag_98\n      jumpi\n      0x00\n      dup1\n      revert\n    tag_98:\n        /* \"contracts/Multi_Sign_Wallet.sol\":2862:2882  _pendingTransactions */\n      0x04\n        /* \"contracts/Multi_Sign_Wallet.sol\":2855:2882  return _pendingTransactions */\n      dup1\n      sload\n      dup1\n      0x20\n      mul\n      0x20\n      add\n      mload(0x40)\n      swap1\n      dup2\n      add\n      0x40\n      mstore\n      dup1\n      swap3\n      swap2\n      swap1\n      dup2\n      dup2\n      mstore\n      0x20\n      add\n      dup3\n      dup1\n      sload\n      dup1\n      iszero\n      tag_100\n      jumpi\n      0x20\n      mul\n      dup3\n      add\n      swap2\n      swap1\n      0x00\n      mstore\n      keccak256(0x00, 0x20)\n      swap1\n    tag_101:\n      dup2\n      sload\n      dup2\n      mstore\n      0x20\n      add\n      swap1\n      0x01\n      add\n      swap1\n      dup1\n      dup4\n      gt\n      tag_101\n      jumpi\n    tag_100:\n      pop\n      pop\n      pop\n      pop\n      pop\n      swap1\n      pop\n        /* \"contracts/Multi_Sign_Wallet.sol\":2764:2890  function getPendingTransactions() public view validOwner returns(uint[] memory) {\r... */\n      swap1\n      jump\t// out\n    tag_70:\n      mload(0x40)\n      dup1\n      0xa0\n      add\n      0x40\n      mstore\n      dup1\n      and(0xffffffffffffffffffffffffffffffffffffffff, 0x00)\n      dup2\n      mstore\n      0x20\n      add\n      and(0xffffffffffffffffffffffffffffffffffffffff, 0x00)\n      dup2\n      mstore\n      0x20\n      add\n      0x00\n      dup2\n      mstore\n      0x20\n      add\n      iszero(iszero(0x00))\n      dup2\n      mstore\n      0x20\n      add\n      and(0xff, 0x00)\n      dup2\n      mstore\n      pop\n      swap1\n      jump\t// out\n        /* \"#utility.yul\":7:146   */\n    tag_103:\n        /* \"#utility.yul\":53:58   */\n      0x00\n        /* \"#utility.yul\":91:97   */\n      dup2\n        /* \"#utility.yul\":78:98   */\n      calldataload\n        /* \"#utility.yul\":69:98   */\n      swap1\n      pop\n        /* \"#utility.yul\":107:140   */\n      tag_105\n        /* \"#utility.yul\":134:139   */\n      dup2\n        /* \"#utility.yul\":107:140   */\n      tag_106\n      jump\t// in\n    tag_105:\n        /* \"#utility.yul\":7:146   */\n      swap3\n      swap2\n      pop\n      pop\n      jump\t// out\n        /* \"#utility.yul\":152:307   */\n    tag_107:\n        /* \"#utility.yul\":206:211   */\n      0x00\n        /* \"#utility.yul\":244:250   */\n      dup2\n        /* \"#utility.yul\":231:251   */\n      calldataload\n        /* \"#utility.yul\":222:251   */\n      swap1\n      pop\n        /* \"#utility.yul\":260:301   */\n      tag_109\n        /* \"#utility.yul\":295:300   */\n      dup2\n        /* \"#utility.yul\":260:301   */\n      tag_110\n      jump\t// in\n    tag_109:\n        /* \"#utility.yul\":152:307   */\n      swap3\n      swap2\n      pop\n      pop\n      jump\t// out\n        /* \"#utility.yul\":313:452   */\n    tag_111:\n        /* \"#utility.yul\":359:364   */\n      0x00\n        /* \"#utility.yul\":397:403   */\n      dup2\n        /* \"#utility.yul\":384:404   */\n      calldataload\n        /* \"#utility.yul\":375:404   */\n      swap1\n      pop\n        /* \"#utility.yul\":413:446   */\n      tag_113\n        /* \"#utility.yul\":440:445   */\n      dup2\n        /* \"#utility.yul\":413:446   */\n      tag_114\n      jump\t// in\n    tag_113:\n        /* \"#utility.yul\":313:452   */\n      swap3\n      swap2\n      pop\n      pop\n      jump\t// out\n        /* \"#utility.yul\":458:787   */\n    tag_20:\n        /* \"#utility.yul\":517:523   */\n      0x00\n        /* \"#utility.yul\":566:568   */\n      0x20\n        /* \"#utility.yul\":554:563   */\n      dup3\n        /* \"#utility.yul\":545:552   */\n      dup5\n        /* \"#utility.yul\":541:564   */\n      sub\n        /* \"#utility.yul\":537:569   */\n      slt\n        /* \"#utility.yul\":534:653   */\n      iszero\n      tag_116\n      jumpi\n        /* \"#utility.yul\":572:651   */\n      tag_117\n      tag_118\n      jump\t// in\n    tag_117:\n        /* \"#utility.yul\":534:653   */\n    tag_116:\n        /* \"#utility.yul\":692:693   */\n      0x00\n        /* \"#utility.yul\":717:770   */\n      tag_119\n        /* \"#utility.yul\":762:769   */\n      dup5\n        /* \"#utility.yul\":753:759   */\n      dup3\n        /* \"#utility.yul\":742:751   */\n      dup6\n        /* \"#utility.yul\":738:760   */\n      add\n        /* \"#utility.yul\":717:770   */\n      tag_103\n      jump\t// in\n    tag_119:\n        /* \"#utility.yul\":707:770   */\n      swap2\n      pop\n        /* \"#utility.yul\":663:780   */\n      pop\n        /* \"#utility.yul\":458:787   */\n      swap3\n      swap2\n      pop\n      pop\n      jump\t// out\n        /* \"#utility.yul\":793:1283   */\n    tag_25:\n        /* \"#utility.yul\":869:875   */\n      0x00\n        /* \"#utility.yul\":877:883   */\n      dup1\n        /* \"#utility.yul\":926:928   */\n      0x40\n        /* \"#utility.yul\":914:923   */\n      dup4\n        /* \"#utility.yul\":905:912   */\n      dup6\n        /* \"#utility.yul\":901:924   */\n      sub\n        /* \"#utility.yul\":897:929   */\n      slt\n        /* \"#utility.yul\":894:1013   */\n      iszero\n      tag_121\n      jumpi\n        /* \"#utility.yul\":932:1011   */\n      tag_122\n      tag_118\n      jump\t// in\n    tag_122:\n        /* \"#utility.yul\":894:1013   */\n    tag_121:\n        /* \"#utility.yul\":1052:1053   */\n      0x00\n        /* \"#utility.yul\":1077:1138   */\n      tag_123\n        /* \"#utility.yul\":1130:1137   */\n      dup6\n        /* \"#utility.yul\":1121:1127   */\n      dup3\n        /* \"#utility.yul\":1110:1119   */\n      dup7\n        /* \"#utility.yul\":1106:1128   */\n      add\n        /* \"#utility.yul\":1077:1138   */\n      tag_107\n      jump\t// in\n    tag_123:\n        /* \"#utility.yul\":1067:1138   */\n      swap3\n      pop\n        /* \"#utility.yul\":1023:1148   */\n      pop\n        /* \"#utility.yul\":1187:1189   */\n      0x20\n        /* \"#utility.yul\":1213:1266   */\n      tag_124\n        /* \"#utility.yul\":1258:1265   */\n      dup6\n        /* \"#utility.yul\":1249:1255   */\n      dup3\n        /* \"#utility.yul\":1238:1247   */\n      dup7\n        /* \"#utility.yul\":1234:1256   */\n      add\n        /* \"#utility.yul\":1213:1266   */\n      tag_111\n      jump\t// in\n    tag_124:\n        /* \"#utility.yul\":1203:1266   */\n      swap2\n      pop\n        /* \"#utility.yul\":1158:1276   */\n      pop\n        /* \"#utility.yul\":793:1283   */\n      swap3\n      pop\n      swap3\n      swap1\n      pop\n      jump\t// out\n        /* \"#utility.yul\":1289:1618   */\n    tag_15:\n        /* \"#utility.yul\":1348:1354   */\n      0x00\n        /* \"#utility.yul\":1397:1399   */\n      0x20\n        /* \"#utility.yul\":1385:1394   */\n      dup3\n        /* \"#utility.yul\":1376:1383   */\n      dup5\n        /* \"#utility.yul\":1372:1395   */\n      sub\n        /* \"#utility.yul\":1368:1400   */\n      slt\n        /* \"#utility.yul\":1365:1484   */\n      iszero\n      tag_126\n      jumpi\n        /* \"#utility.yul\":1403:1482   */\n      tag_127\n      tag_118\n      jump\t// in\n    tag_127:\n        /* \"#utility.yul\":1365:1484   */\n    tag_126:\n        /* \"#utility.yul\":1523:1524   */\n      0x00\n        /* \"#utility.yul\":1548:1601   */\n      tag_128\n        /* \"#utility.yul\":1593:1600   */\n      dup5\n        /* \"#utility.yul\":1584:1590   */\n      dup3\n        /* \"#utility.yul\":1573:1582   */\n      dup6\n        /* \"#utility.yul\":1569:1591   */\n      add\n        /* \"#utility.yul\":1548:1601   */\n      tag_111\n      jump\t// in\n    tag_128:\n        /* \"#utility.yul\":1538:1601   */\n      swap2\n      pop\n        /* \"#utility.yul\":1494:1611   */\n      pop\n        /* \"#utility.yul\":1289:1618   */\n      swap3\n      swap2\n      pop\n      pop\n      jump\t// out\n        /* \"#utility.yul\":1624:1803   */\n    tag_129:\n        /* \"#utility.yul\":1693:1703   */\n      0x00\n        /* \"#utility.yul\":1714:1760   */\n      tag_131\n        /* \"#utility.yul\":1756:1759   */\n      dup4\n        /* \"#utility.yul\":1748:1754   */\n      dup4\n        /* \"#utility.yul\":1714:1760   */\n      tag_132\n      jump\t// in\n    tag_131:\n        /* \"#utility.yul\":1792:1796   */\n      0x20\n        /* \"#utility.yul\":1787:1790   */\n      dup4\n        /* \"#utility.yul\":1783:1797   */\n      add\n        /* \"#utility.yul\":1769:1797   */\n      swap1\n      pop\n        /* \"#utility.yul\":1624:1803   */\n      swap3\n      swap2\n      pop\n      pop\n      jump\t// out\n        /* \"#utility.yul\":1809:1956   */\n    tag_133:\n        /* \"#utility.yul\":1904:1949   */\n      tag_135\n        /* \"#utility.yul\":1943:1948   */\n      dup2\n        /* \"#utility.yul\":1904:1949   */\n      tag_136\n      jump\t// in\n    tag_135:\n        /* \"#utility.yul\":1899:1902   */\n      dup3\n        /* \"#utility.yul\":1892:1950   */\n      mstore\n        /* \"#utility.yul\":1809:1956   */\n      pop\n      pop\n      jump\t// out\n        /* \"#utility.yul\":1962:2094   */\n    tag_137:\n        /* \"#utility.yul\":2055:2087   */\n      tag_139\n        /* \"#utility.yul\":2081:2086   */\n      dup2\n        /* \"#utility.yul\":2055:2087   */\n      tag_140\n      jump\t// in\n    tag_139:\n        /* \"#utility.yul\":2050:2053   */\n      dup3\n        /* \"#utility.yul\":2043:2088   */\n      mstore\n        /* \"#utility.yul\":1962:2094   */\n      pop\n      pop\n      jump\t// out\n        /* \"#utility.yul\":2100:2218   */\n    tag_141:\n        /* \"#utility.yul\":2187:2211   */\n      tag_143\n        /* \"#utility.yul\":2205:2210   */\n      dup2\n        /* \"#utility.yul\":2187:2211   */\n      tag_144\n      jump\t// in\n    tag_143:\n        /* \"#utility.yul\":2182:2185   */\n      dup3\n        /* \"#utility.yul\":2175:2212   */\n      mstore\n        /* \"#utility.yul\":2100:2218   */\n      pop\n      pop\n      jump\t// out\n        /* \"#utility.yul\":2254:2986   */\n    tag_145:\n        /* \"#utility.yul\":2373:2376   */\n      0x00\n        /* \"#utility.yul\":2402:2456   */\n      tag_147\n        /* \"#utility.yul\":2450:2455   */\n      dup3\n        /* \"#utility.yul\":2402:2456   */\n      tag_148\n      jump\t// in\n    tag_147:\n        /* \"#utility.yul\":2472:2558   */\n      tag_149\n        /* \"#utility.yul\":2551:2557   */\n      dup2\n        /* \"#utility.yul\":2546:2549   */\n      dup6\n        /* \"#utility.yul\":2472:2558   */\n      tag_150\n      jump\t// in\n    tag_149:\n        /* \"#utility.yul\":2465:2558   */\n      swap4\n      pop\n        /* \"#utility.yul\":2582:2638   */\n      tag_151\n        /* \"#utility.yul\":2632:2637   */\n      dup4\n        /* \"#utility.yul\":2582:2638   */\n      tag_152\n      jump\t// in\n    tag_151:\n        /* \"#utility.yul\":2661:2668   */\n      dup1\n        /* \"#utility.yul\":2692:2693   */\n      0x00\n        /* \"#utility.yul\":2677:2961   */\n    tag_153:\n        /* \"#utility.yul\":2702:2708   */\n      dup4\n        /* \"#utility.yul\":2699:2700   */\n      dup2\n        /* \"#utility.yul\":2696:2709   */\n      lt\n        /* \"#utility.yul\":2677:2961   */\n      iszero\n      tag_155\n      jumpi\n        /* \"#utility.yul\":2778:2784   */\n      dup2\n        /* \"#utility.yul\":2772:2785   */\n      mload\n        /* \"#utility.yul\":2805:2868   */\n      tag_156\n        /* \"#utility.yul\":2864:2867   */\n      dup9\n        /* \"#utility.yul\":2849:2862   */\n      dup3\n        /* \"#utility.yul\":2805:2868   */\n      tag_129\n      jump\t// in\n    tag_156:\n        /* \"#utility.yul\":2798:2868   */\n      swap8\n      pop\n        /* \"#utility.yul\":2891:2951   */\n      tag_157\n        /* \"#utility.yul\":2944:2950   */\n      dup4\n        /* \"#utility.yul\":2891:2951   */\n      tag_158\n      jump\t// in\n    tag_157:\n        /* \"#utility.yul\":2881:2951   */\n      swap3\n      pop\n        /* \"#utility.yul\":2737:2961   */\n      pop\n        /* \"#utility.yul\":2724:2725   */\n      0x01\n        /* \"#utility.yul\":2721:2722   */\n      dup2\n        /* \"#utility.yul\":2717:2726   */\n      add\n        /* \"#utility.yul\":2712:2726   */\n      swap1\n      pop\n        /* \"#utility.yul\":2677:2961   */\n      jump(tag_153)\n    tag_155:\n        /* \"#utility.yul\":2681:2695   */\n      pop\n        /* \"#utility.yul\":2977:2980   */\n      dup6\n        /* \"#utility.yul\":2970:2980   */\n      swap4\n      pop\n        /* \"#utility.yul\":2378:2986   */\n      pop\n      pop\n      pop\n        /* \"#utility.yul\":2254:2986   */\n      swap3\n      swap2\n      pop\n      pop\n      jump\t// out\n        /* \"#utility.yul\":2992:3091   */\n    tag_159:\n        /* \"#utility.yul\":3063:3084   */\n      tag_161\n        /* \"#utility.yul\":3078:3083   */\n      dup2\n        /* \"#utility.yul\":3063:3084   */\n      tag_162\n      jump\t// in\n    tag_161:\n        /* \"#utility.yul\":3058:3061   */\n      dup3\n        /* \"#utility.yul\":3051:3085   */\n      mstore\n        /* \"#utility.yul\":2992:3091   */\n      pop\n      pop\n      jump\t// out\n        /* \"#utility.yul\":3097:3463   */\n    tag_163:\n        /* \"#utility.yul\":3239:3242   */\n      0x00\n        /* \"#utility.yul\":3260:3327   */\n      tag_165\n        /* \"#utility.yul\":3324:3326   */\n      0x12\n        /* \"#utility.yul\":3319:3322   */\n      dup4\n        /* \"#utility.yul\":3260:3327   */\n      tag_166\n      jump\t// in\n    tag_165:\n        /* \"#utility.yul\":3253:3327   */\n      swap2\n      pop\n        /* \"#utility.yul\":3336:3429   */\n      tag_167\n        /* \"#utility.yul\":3425:3428   */\n      dup3\n        /* \"#utility.yul\":3336:3429   */\n      tag_168\n      jump\t// in\n    tag_167:\n        /* \"#utility.yul\":3454:3456   */\n      0x20\n        /* \"#utility.yul\":3449:3452   */\n      dup3\n        /* \"#utility.yul\":3445:3457   */\n      add\n        /* \"#utility.yul\":3438:3457   */\n      swap1\n      pop\n        /* \"#utility.yul\":3097:3463   */\n      swap2\n      swap1\n      pop\n      jump\t// out\n        /* \"#utility.yul\":3469:3835   */\n    tag_169:\n        /* \"#utility.yul\":3611:3614   */\n      0x00\n        /* \"#utility.yul\":3632:3699   */\n      tag_171\n        /* \"#utility.yul\":3696:3698   */\n      0x10\n        /* \"#utility.yul\":3691:3694   */\n      dup4\n        /* \"#utility.yul\":3632:3699   */\n      tag_166\n      jump\t// in\n    tag_171:\n        /* \"#utility.yul\":3625:3699   */\n      swap2\n      pop\n        /* \"#utility.yul\":3708:3801   */\n      tag_172\n        /* \"#utility.yul\":3797:3800   */\n      dup3\n        /* \"#utility.yul\":3708:3801   */\n      tag_173\n      jump\t// in\n    tag_172:\n        /* \"#utility.yul\":3826:3828   */\n      0x20\n        /* \"#utility.yul\":3821:3824   */\n      dup3\n        /* \"#utility.yul\":3817:3829   */\n      add\n        /* \"#utility.yul\":3810:3829   */\n      swap1\n      pop\n        /* \"#utility.yul\":3469:3835   */\n      swap2\n      swap1\n      pop\n      jump\t// out\n        /* \"#utility.yul\":3921:4998   */\n    tag_174:\n        /* \"#utility.yul\":4072:4076   */\n      0xa0\n        /* \"#utility.yul\":4067:4070   */\n      dup3\n        /* \"#utility.yul\":4063:4077   */\n      add\n        /* \"#utility.yul\":4161:4165   */\n      0x00\n        /* \"#utility.yul\":4154:4159   */\n      dup3\n        /* \"#utility.yul\":4150:4166   */\n      add\n        /* \"#utility.yul\":4144:4167   */\n      mload\n        /* \"#utility.yul\":4180:4259   */\n      tag_176\n        /* \"#utility.yul\":4253:4257   */\n      0x00\n        /* \"#utility.yul\":4248:4251   */\n      dup6\n        /* \"#utility.yul\":4244:4258   */\n      add\n        /* \"#utility.yul\":4230:4242   */\n      dup3\n        /* \"#utility.yul\":4180:4259   */\n      tag_137\n      jump\t// in\n    tag_176:\n        /* \"#utility.yul\":4087:4269   */\n      pop\n        /* \"#utility.yul\":4355:4359   */\n      0x20\n        /* \"#utility.yul\":4348:4353   */\n      dup3\n        /* \"#utility.yul\":4344:4360   */\n      add\n        /* \"#utility.yul\":4338:4361   */\n      mload\n        /* \"#utility.yul\":4374:4453   */\n      tag_177\n        /* \"#utility.yul\":4447:4451   */\n      0x20\n        /* \"#utility.yul\":4442:4445   */\n      dup6\n        /* \"#utility.yul\":4438:4452   */\n      add\n        /* \"#utility.yul\":4424:4436   */\n      dup3\n        /* \"#utility.yul\":4374:4453   */\n      tag_137\n      jump\t// in\n    tag_177:\n        /* \"#utility.yul\":4279:4463   */\n      pop\n        /* \"#utility.yul\":4547:4551   */\n      0x40\n        /* \"#utility.yul\":4540:4545   */\n      dup3\n        /* \"#utility.yul\":4536:4552   */\n      add\n        /* \"#utility.yul\":4530:4553   */\n      mload\n        /* \"#utility.yul\":4566:4629   */\n      tag_178\n        /* \"#utility.yul\":4623:4627   */\n      0x40\n        /* \"#utility.yul\":4618:4621   */\n      dup6\n        /* \"#utility.yul\":4614:4628   */\n      add\n        /* \"#utility.yul\":4600:4612   */\n      dup3\n        /* \"#utility.yul\":4566:4629   */\n      tag_132\n      jump\t// in\n    tag_178:\n        /* \"#utility.yul\":4473:4639   */\n      pop\n        /* \"#utility.yul\":4725:4729   */\n      0x60\n        /* \"#utility.yul\":4718:4723   */\n      dup3\n        /* \"#utility.yul\":4714:4730   */\n      add\n        /* \"#utility.yul\":4708:4731   */\n      mload\n        /* \"#utility.yul\":4744:4801   */\n      tag_179\n        /* \"#utility.yul\":4795:4799   */\n      0x60\n        /* \"#utility.yul\":4790:4793   */\n      dup6\n        /* \"#utility.yul\":4786:4800   */\n      add\n        /* \"#utility.yul\":4772:4784   */\n      dup3\n        /* \"#utility.yul\":4744:4801   */\n      tag_159\n      jump\t// in\n    tag_179:\n        /* \"#utility.yul\":4649:4811   */\n      pop\n        /* \"#utility.yul\":4903:4907   */\n      0x80\n        /* \"#utility.yul\":4896:4901   */\n      dup3\n        /* \"#utility.yul\":4892:4908   */\n      add\n        /* \"#utility.yul\":4886:4909   */\n      mload\n        /* \"#utility.yul\":4922:4981   */\n      tag_180\n        /* \"#utility.yul\":4975:4979   */\n      0x80\n        /* \"#utility.yul\":4970:4973   */\n      dup6\n        /* \"#utility.yul\":4966:4980   */\n      add\n        /* \"#utility.yul\":4952:4964   */\n      dup3\n        /* \"#utility.yul\":4922:4981   */\n      tag_181\n      jump\t// in\n    tag_180:\n        /* \"#utility.yul\":4821:4991   */\n      pop\n        /* \"#utility.yul\":4041:4998   */\n      pop\n        /* \"#utility.yul\":3921:4998   */\n      pop\n      pop\n      jump\t// out\n        /* \"#utility.yul\":5004:5112   */\n    tag_132:\n        /* \"#utility.yul\":5081:5105   */\n      tag_183\n        /* \"#utility.yul\":5099:5104   */\n      dup2\n        /* \"#utility.yul\":5081:5105   */\n      tag_184\n      jump\t// in\n    tag_183:\n        /* \"#utility.yul\":5076:5079   */\n      dup3\n        /* \"#utility.yul\":5069:5106   */\n      mstore\n        /* \"#utility.yul\":5004:5112   */\n      pop\n      pop\n      jump\t// out\n        /* \"#utility.yul\":5118:5236   */\n    tag_185:\n        /* \"#utility.yul\":5205:5229   */\n      tag_187\n        /* \"#utility.yul\":5223:5228   */\n      dup2\n        /* \"#utility.yul\":5205:5229   */\n      tag_184\n      jump\t// in\n    tag_187:\n        /* \"#utility.yul\":5200:5203   */\n      dup3\n        /* \"#utility.yul\":5193:5230   */\n      mstore\n        /* \"#utility.yul\":5118:5236   */\n      pop\n      pop\n      jump\t// out\n        /* \"#utility.yul\":5242:5344   */\n    tag_181:\n        /* \"#utility.yul\":5315:5337   */\n      tag_189\n        /* \"#utility.yul\":5331:5336   */\n      dup2\n        /* \"#utility.yul\":5315:5337   */\n      tag_190\n      jump\t// in\n    tag_189:\n        /* \"#utility.yul\":5310:5313   */\n      dup3\n        /* \"#utility.yul\":5303:5338   */\n      mstore\n        /* \"#utility.yul\":5242:5344   */\n      pop\n      pop\n      jump\t// out\n        /* \"#utility.yul\":5350:5919   */\n    tag_68:\n        /* \"#utility.yul\":5535:5539   */\n      0x00\n        /* \"#utility.yul\":5573:5576   */\n      0x80\n        /* \"#utility.yul\":5562:5571   */\n      dup3\n        /* \"#utility.yul\":5558:5577   */\n      add\n        /* \"#utility.yul\":5550:5577   */\n      swap1\n      pop\n        /* \"#utility.yul\":5587:5658   */\n      tag_192\n        /* \"#utility.yul\":5655:5656   */\n      0x00\n        /* \"#utility.yul\":5644:5653   */\n      dup4\n        /* \"#utility.yul\":5640:5657   */\n      add\n        /* \"#utility.yul\":5631:5637   */\n      dup8\n        /* \"#utility.yul\":5587:5658   */\n      tag_141\n      jump\t// in\n    tag_192:\n        /* \"#utility.yul\":5668:5748   */\n      tag_193\n        /* \"#utility.yul\":5744:5746   */\n      0x20\n        /* \"#utility.yul\":5733:5742   */\n      dup4\n        /* \"#utility.yul\":5729:5747   */\n      add\n        /* \"#utility.yul\":5720:5726   */\n      dup7\n        /* \"#utility.yul\":5668:5748   */\n      tag_133\n      jump\t// in\n    tag_193:\n        /* \"#utility.yul\":5758:5830   */\n      tag_194\n        /* \"#utility.yul\":5826:5828   */\n      0x40\n        /* \"#utility.yul\":5815:5824   */\n      dup4\n        /* \"#utility.yul\":5811:5829   */\n      add\n        /* \"#utility.yul\":5802:5808   */\n      dup6\n        /* \"#utility.yul\":5758:5830   */\n      tag_185\n      jump\t// in\n    tag_194:\n        /* \"#utility.yul\":5840:5912   */\n      tag_195\n        /* \"#utility.yul\":5908:5910   */\n      0x60\n        /* \"#utility.yul\":5897:5906   */\n      dup4\n        /* \"#utility.yul\":5893:5911   */\n      add\n        /* \"#utility.yul\":5884:5890   */\n      dup5\n        /* \"#utility.yul\":5840:5912   */\n      tag_185\n      jump\t// in\n    tag_195:\n        /* \"#utility.yul\":5350:5919   */\n      swap6\n      swap5\n      pop\n      pop\n      pop\n      pop\n      pop\n      jump\t// out\n        /* \"#utility.yul\":5925:6257   */\n    tag_95:\n        /* \"#utility.yul\":6046:6050   */\n      0x00\n        /* \"#utility.yul\":6084:6086   */\n      0x40\n        /* \"#utility.yul\":6073:6082   */\n      dup3\n        /* \"#utility.yul\":6069:6087   */\n      add\n        /* \"#utility.yul\":6061:6087   */\n      swap1\n      pop\n        /* \"#utility.yul\":6097:6168   */\n      tag_197\n        /* \"#utility.yul\":6165:6166   */\n      0x00\n        /* \"#utility.yul\":6154:6163   */\n      dup4\n        /* \"#utility.yul\":6150:6167   */\n      add\n        /* \"#utility.yul\":6141:6147   */\n      dup6\n        /* \"#utility.yul\":6097:6168   */\n      tag_141\n      jump\t// in\n    tag_197:\n        /* \"#utility.yul\":6178:6250   */\n      tag_198\n        /* \"#utility.yul\":6246:6248   */\n      0x20\n        /* \"#utility.yul\":6235:6244   */\n      dup4\n        /* \"#utility.yul\":6231:6249   */\n      add\n        /* \"#utility.yul\":6222:6228   */\n      dup5\n        /* \"#utility.yul\":6178:6250   */\n      tag_185\n      jump\t// in\n    tag_198:\n        /* \"#utility.yul\":5925:6257   */\n      swap4\n      swap3\n      pop\n      pop\n      pop\n      jump\t// out\n        /* \"#utility.yul\":6263:6636   */\n    tag_52:\n        /* \"#utility.yul\":6406:6410   */\n      0x00\n        /* \"#utility.yul\":6444:6446   */\n      0x20\n        /* \"#utility.yul\":6433:6442   */\n      dup3\n        /* \"#utility.yul\":6429:6447   */\n      add\n        /* \"#utility.yul\":6421:6447   */\n      swap1\n      pop\n        /* \"#utility.yul\":6493:6502   */\n      dup2\n        /* \"#utility.yul\":6487:6491   */\n      dup2\n        /* \"#utility.yul\":6483:6503   */\n      sub\n        /* \"#utility.yul\":6479:6480   */\n      0x00\n        /* \"#utility.yul\":6468:6477   */\n      dup4\n        /* \"#utility.yul\":6464:6481   */\n      add\n        /* \"#utility.yul\":6457:6504   */\n      mstore\n        /* \"#utility.yul\":6521:6629   */\n      tag_200\n        /* \"#utility.yul\":6624:6628   */\n      dup2\n        /* \"#utility.yul\":6615:6621   */\n      dup5\n        /* \"#utility.yul\":6521:6629   */\n      tag_145\n      jump\t// in\n    tag_200:\n        /* \"#utility.yul\":6513:6629   */\n      swap1\n      pop\n        /* \"#utility.yul\":6263:6636   */\n      swap3\n      swap2\n      pop\n      pop\n      jump\t// out\n        /* \"#utility.yul\":6642:7061   */\n    tag_89:\n        /* \"#utility.yul\":6808:6812   */\n      0x00\n        /* \"#utility.yul\":6846:6848   */\n      0x20\n        /* \"#utility.yul\":6835:6844   */\n      dup3\n        /* \"#utility.yul\":6831:6849   */\n      add\n        /* \"#utility.yul\":6823:6849   */\n      swap1\n      pop\n        /* \"#utility.yul\":6895:6904   */\n      dup2\n        /* \"#utility.yul\":6889:6893   */\n      dup2\n        /* \"#utility.yul\":6885:6905   */\n      sub\n        /* \"#utility.yul\":6881:6882   */\n      0x00\n        /* \"#utility.yul\":6870:6879   */\n      dup4\n        /* \"#utility.yul\":6866:6883   */\n      add\n        /* \"#utility.yul\":6859:6906   */\n      mstore\n        /* \"#utility.yul\":6923:7054   */\n      tag_202\n        /* \"#utility.yul\":7049:7053   */\n      dup2\n        /* \"#utility.yul\":6923:7054   */\n      tag_163\n      jump\t// in\n    tag_202:\n        /* \"#utility.yul\":6915:7054   */\n      swap1\n      pop\n        /* \"#utility.yul\":6642:7061   */\n      swap2\n      swap1\n      pop\n      jump\t// out\n        /* \"#utility.yul\":7067:7486   */\n    tag_64:\n        /* \"#utility.yul\":7233:7237   */\n      0x00\n        /* \"#utility.yul\":7271:7273   */\n      0x20\n        /* \"#utility.yul\":7260:7269   */\n      dup3\n        /* \"#utility.yul\":7256:7274   */\n      add\n        /* \"#utility.yul\":7248:7274   */\n      swap1\n      pop\n        /* \"#utility.yul\":7320:7329   */\n      dup2\n        /* \"#utility.yul\":7314:7318   */\n      dup2\n        /* \"#utility.yul\":7310:7330   */\n      sub\n        /* \"#utility.yul\":7306:7307   */\n      0x00\n        /* \"#utility.yul\":7295:7304   */\n      dup4\n        /* \"#utility.yul\":7291:7308   */\n      add\n        /* \"#utility.yul\":7284:7331   */\n      mstore\n        /* \"#utility.yul\":7348:7479   */\n      tag_204\n        /* \"#utility.yul\":7474:7478   */\n      dup2\n        /* \"#utility.yul\":7348:7479   */\n      tag_169\n      jump\t// in\n    tag_204:\n        /* \"#utility.yul\":7340:7479   */\n      swap1\n      pop\n        /* \"#utility.yul\":7067:7486   */\n      swap2\n      swap1\n      pop\n      jump\t// out\n        /* \"#utility.yul\":7492:7823   */\n    tag_32:\n        /* \"#utility.yul\":7639:7643   */\n      0x00\n        /* \"#utility.yul\":7677:7680   */\n      0xa0\n        /* \"#utility.yul\":7666:7675   */\n      dup3\n        /* \"#utility.yul\":7662:7681   */\n      add\n        /* \"#utility.yul\":7654:7681   */\n      swap1\n      pop\n        /* \"#utility.yul\":7691:7816   */\n      tag_206\n        /* \"#utility.yul\":7813:7814   */\n      0x00\n        /* \"#utility.yul\":7802:7811   */\n      dup4\n        /* \"#utility.yul\":7798:7815   */\n      add\n        /* \"#utility.yul\":7789:7795   */\n      dup5\n        /* \"#utility.yul\":7691:7816   */\n      tag_174\n      jump\t// in\n    tag_206:\n        /* \"#utility.yul\":7492:7823   */\n      swap3\n      swap2\n      pop\n      pop\n      jump\t// out\n        /* \"#utility.yul\":7829:8051   */\n    tag_37:\n        /* \"#utility.yul\":7922:7926   */\n      0x00\n        /* \"#utility.yul\":7960:7962   */\n      0x20\n        /* \"#utility.yul\":7949:7958   */\n      dup3\n        /* \"#utility.yul\":7945:7963   */\n      add\n        /* \"#utility.yul\":7937:7963   */\n      swap1\n      pop\n        /* \"#utility.yul\":7973:8044   */\n      tag_208\n        /* \"#utility.yul\":8041:8042   */\n      0x00\n        /* \"#utility.yul\":8030:8039   */\n      dup4\n        /* \"#utility.yul\":8026:8043   */\n      add\n        /* \"#utility.yul\":8017:8023   */\n      dup5\n        /* \"#utility.yul\":7973:8044   */\n      tag_185\n      jump\t// in\n    tag_208:\n        /* \"#utility.yul\":7829:8051   */\n      swap3\n      swap2\n      pop\n      pop\n      jump\t// out\n        /* \"#utility.yul\":8138:8270   */\n    tag_152:\n        /* \"#utility.yul\":8205:8209   */\n      0x00\n        /* \"#utility.yul\":8228:8231   */\n      dup2\n        /* \"#utility.yul\":8220:8231   */\n      swap1\n      pop\n        /* \"#utility.yul\":8258:8262   */\n      0x20\n        /* \"#utility.yul\":8253:8256   */\n      dup3\n        /* \"#utility.yul\":8249:8263   */\n      add\n        /* \"#utility.yul\":8241:8263   */\n      swap1\n      pop\n        /* \"#utility.yul\":8138:8270   */\n      swap2\n      swap1\n      pop\n      jump\t// out\n        /* \"#utility.yul\":8276:8390   */\n    tag_148:\n        /* \"#utility.yul\":8343:8349   */\n      0x00\n        /* \"#utility.yul\":8377:8382   */\n      dup2\n        /* \"#utility.yul\":8371:8383   */\n      mload\n        /* \"#utility.yul\":8361:8383   */\n      swap1\n      pop\n        /* \"#utility.yul\":8276:8390   */\n      swap2\n      swap1\n      pop\n      jump\t// out\n        /* \"#utility.yul\":8396:8509   */\n    tag_158:\n        /* \"#utility.yul\":8466:8470   */\n      0x00\n        /* \"#utility.yul\":8498:8502   */\n      0x20\n        /* \"#utility.yul\":8493:8496   */\n      dup3\n        /* \"#utility.yul\":8489:8503   */\n      add\n        /* \"#utility.yul\":8481:8503   */\n      swap1\n      pop\n        /* \"#utility.yul\":8396:8509   */\n      swap2\n      swap1\n      pop\n      jump\t// out\n        /* \"#utility.yul\":8515:8699   */\n    tag_150:\n        /* \"#utility.yul\":8614:8625   */\n      0x00\n        /* \"#utility.yul\":8648:8654   */\n      dup3\n        /* \"#utility.yul\":8643:8646   */\n      dup3\n        /* \"#utility.yul\":8636:8655   */\n      mstore\n        /* \"#utility.yul\":8688:8692   */\n      0x20\n        /* \"#utility.yul\":8683:8686   */\n      dup3\n        /* \"#utility.yul\":8679:8693   */\n      add\n        /* \"#utility.yul\":8664:8693   */\n      swap1\n      pop\n        /* \"#utility.yul\":8515:8699   */\n      swap3\n      swap2\n      pop\n      pop\n      jump\t// out\n        /* \"#utility.yul\":8705:8874   */\n    tag_166:\n        /* \"#utility.yul\":8789:8800   */\n      0x00\n        /* \"#utility.yul\":8823:8829   */\n      dup3\n        /* \"#utility.yul\":8818:8821   */\n      dup3\n        /* \"#utility.yul\":8811:8830   */\n      mstore\n        /* \"#utility.yul\":8863:8867   */\n      0x20\n        /* \"#utility.yul\":8858:8861   */\n      dup3\n        /* \"#utility.yul\":8854:8868   */\n      add\n        /* \"#utility.yul\":8839:8868   */\n      swap1\n      pop\n        /* \"#utility.yul\":8705:8874   */\n      swap3\n      swap2\n      pop\n      pop\n      jump\t// out\n        /* \"#utility.yul\":8880:8976   */\n    tag_144:\n        /* \"#utility.yul\":8917:8924   */\n      0x00\n        /* \"#utility.yul\":8946:8970   */\n      tag_217\n        /* \"#utility.yul\":8964:8969   */\n      dup3\n        /* \"#utility.yul\":8946:8970   */\n      tag_218\n      jump\t// in\n    tag_217:\n        /* \"#utility.yul\":8935:8970   */\n      swap1\n      pop\n        /* \"#utility.yul\":8880:8976   */\n      swap2\n      swap1\n      pop\n      jump\t// out\n        /* \"#utility.yul\":8982:9086   */\n    tag_140:\n        /* \"#utility.yul\":9027:9034   */\n      0x00\n        /* \"#utility.yul\":9056:9080   */\n      tag_220\n        /* \"#utility.yul\":9074:9079   */\n      dup3\n        /* \"#utility.yul\":9056:9080   */\n      tag_218\n      jump\t// in\n    tag_220:\n        /* \"#utility.yul\":9045:9080   */\n      swap1\n      pop\n        /* \"#utility.yul\":8982:9086   */\n      swap2\n      swap1\n      pop\n      jump\t// out\n        /* \"#utility.yul\":9092:9182   */\n    tag_162:\n        /* \"#utility.yul\":9126:9133   */\n      0x00\n        /* \"#utility.yul\":9169:9174   */\n      dup2\n        /* \"#utility.yul\":9162:9175   */\n      iszero\n        /* \"#utility.yul\":9155:9176   */\n      iszero\n        /* \"#utility.yul\":9144:9176   */\n      swap1\n      pop\n        /* \"#utility.yul\":9092:9182   */\n      swap2\n      swap1\n      pop\n      jump\t// out\n        /* \"#utility.yul\":9188:9314   */\n    tag_218:\n        /* \"#utility.yul\":9225:9232   */\n      0x00\n        /* \"#utility.yul\":9265:9307   */\n      0xffffffffffffffffffffffffffffffffffffffff\n        /* \"#utility.yul\":9258:9263   */\n      dup3\n        /* \"#utility.yul\":9254:9308   */\n      and\n        /* \"#utility.yul\":9243:9308   */\n      swap1\n      pop\n        /* \"#utility.yul\":9188:9314   */\n      swap2\n      swap1\n      pop\n      jump\t// out\n        /* \"#utility.yul\":9320:9397   */\n    tag_184:\n        /* \"#utility.yul\":9357:9364   */\n      0x00\n        /* \"#utility.yul\":9386:9391   */\n      dup2\n        /* \"#utility.yul\":9375:9391   */\n      swap1\n      pop\n        /* \"#utility.yul\":9320:9397   */\n      swap2\n      swap1\n      pop\n      jump\t// out\n        /* \"#utility.yul\":9403:9489   */\n    tag_190:\n        /* \"#utility.yul\":9438:9445   */\n      0x00\n        /* \"#utility.yul\":9478:9482   */\n      0xff\n        /* \"#utility.yul\":9471:9476   */\n      dup3\n        /* \"#utility.yul\":9467:9483   */\n      and\n        /* \"#utility.yul\":9456:9483   */\n      swap1\n      pop\n        /* \"#utility.yul\":9403:9489   */\n      swap2\n      swap1\n      pop\n      jump\t// out\n        /* \"#utility.yul\":9495:9629   */\n    tag_136:\n        /* \"#utility.yul\":9553:9562   */\n      0x00\n        /* \"#utility.yul\":9586:9623   */\n      tag_226\n        /* \"#utility.yul\":9617:9622   */\n      dup3\n        /* \"#utility.yul\":9586:9623   */\n      tag_227\n      jump\t// in\n    tag_226:\n        /* \"#utility.yul\":9573:9623   */\n      swap1\n      pop\n        /* \"#utility.yul\":9495:9629   */\n      swap2\n      swap1\n      pop\n      jump\t// out\n        /* \"#utility.yul\":9635:9761   */\n    tag_227:\n        /* \"#utility.yul\":9685:9694   */\n      0x00\n        /* \"#utility.yul\":9718:9755   */\n      tag_229\n        /* \"#utility.yul\":9749:9754   */\n      dup3\n        /* \"#utility.yul\":9718:9755   */\n      tag_230\n      jump\t// in\n    tag_229:\n        /* \"#utility.yul\":9705:9755   */\n      swap1\n      pop\n        /* \"#utility.yul\":9635:9761   */\n      swap2\n      swap1\n      pop\n      jump\t// out\n        /* \"#utility.yul\":9767:9880   */\n    tag_230:\n        /* \"#utility.yul\":9817:9826   */\n      0x00\n        /* \"#utility.yul\":9850:9874   */\n      tag_232\n        /* \"#utility.yul\":9868:9873   */\n      dup3\n        /* \"#utility.yul\":9850:9874   */\n      tag_218\n      jump\t// in\n    tag_232:\n        /* \"#utility.yul\":9837:9874   */\n      swap1\n      pop\n        /* \"#utility.yul\":9767:9880   */\n      swap2\n      swap1\n      pop\n      jump\t// out\n        /* \"#utility.yul\":9886:10066   */\n    tag_77:\n        /* \"#utility.yul\":9934:10011   */\n      0x4e487b7100000000000000000000000000000000000000000000000000000000\n        /* \"#utility.yul\":9931:9932   */\n      0x00\n        /* \"#utility.yul\":9924:10012   */\n      mstore\n        /* \"#utility.yul\":10031:10035   */\n      0x32\n        /* \"#utility.yul\":10028:10029   */\n      0x04\n        /* \"#utility.yul\":10021:10036   */\n      mstore\n        /* \"#utility.yul\":10055:10059   */\n      0x24\n        /* \"#utility.yul\":10052:10053   */\n      0x00\n        /* \"#utility.yul\":10045:10060   */\n      revert\n        /* \"#utility.yul\":10195:10312   */\n    tag_118:\n        /* \"#utility.yul\":10304:10305   */\n      0x00\n        /* \"#utility.yul\":10301:10302   */\n      dup1\n        /* \"#utility.yul\":10294:10306   */\n      revert\n        /* \"#utility.yul\":10318:10486   */\n    tag_168:\n        /* \"#utility.yul\":10458:10478   */\n      0x43726561746f722063616e2774207369676e0000000000000000000000000000\n        /* \"#utility.yul\":10454:10455   */\n      0x00\n        /* \"#utility.yul\":10446:10452   */\n      dup3\n        /* \"#utility.yul\":10442:10456   */\n      add\n        /* \"#utility.yul\":10435:10479   */\n      mstore\n        /* \"#utility.yul\":10318:10486   */\n      pop\n      jump\t// out\n        /* \"#utility.yul\":10492:10658   */\n    tag_173:\n        /* \"#utility.yul\":10632:10650   */\n      0x4e6f7420456e6f756768204d6f6e657900000000000000000000000000000000\n        /* \"#utility.yul\":10628:10629   */\n      0x00\n        /* \"#utility.yul\":10620:10626   */\n      dup3\n        /* \"#utility.yul\":10616:10630   */\n      add\n        /* \"#utility.yul\":10609:10651   */\n      mstore\n        /* \"#utility.yul\":10492:10658   */\n      pop\n      jump\t// out\n        /* \"#utility.yul\":10664:10786   */\n    tag_106:\n        /* \"#utility.yul\":10737:10761   */\n      tag_240\n        /* \"#utility.yul\":10755:10760   */\n      dup2\n        /* \"#utility.yul\":10737:10761   */\n      tag_144\n      jump\t// in\n    tag_240:\n        /* \"#utility.yul\":10730:10735   */\n      dup2\n        /* \"#utility.yul\":10727:10762   */\n      eq\n        /* \"#utility.yul\":10717:10780   */\n      tag_241\n      jumpi\n        /* \"#utility.yul\":10776:10777   */\n      0x00\n        /* \"#utility.yul\":10773:10774   */\n      dup1\n        /* \"#utility.yul\":10766:10778   */\n      revert\n        /* \"#utility.yul\":10717:10780   */\n    tag_241:\n        /* \"#utility.yul\":10664:10786   */\n      pop\n      jump\t// out\n        /* \"#utility.yul\":10792:10930   */\n    tag_110:\n        /* \"#utility.yul\":10873:10905   */\n      tag_243\n        /* \"#utility.yul\":10899:10904   */\n      dup2\n        /* \"#utility.yul\":10873:10905   */\n      tag_140\n      jump\t// in\n    tag_243:\n        /* \"#utility.yul\":10866:10871   */\n      dup2\n        /* \"#utility.yul\":10863:10906   */\n      eq\n        /* \"#utility.yul\":10853:10924   */\n      tag_244\n      jumpi\n        /* \"#utility.yul\":10920:10921   */\n      0x00\n        /* \"#utility.yul\":10917:10918   */\n      dup1\n        /* \"#utility.yul\":10910:10922   */\n      revert\n        /* \"#utility.yul\":10853:10924   */\n    tag_244:\n        /* \"#utility.yul\":10792:10930   */\n      pop\n      jump\t// out\n        /* \"#utility.yul\":10936:11058   */\n    tag_114:\n        /* \"#utility.yul\":11009:11033   */\n      tag_246\n        /* \"#utility.yul\":11027:11032   */\n      dup2\n        /* \"#utility.yul\":11009:11033   */\n      tag_184\n      jump\t// in\n    tag_246:\n        /* \"#utility.yul\":11002:11007   */\n      dup2\n        /* \"#utility.yul\":10999:11034   */\n      eq\n        /* \"#utility.yul\":10989:11052   */\n      tag_247\n      jumpi\n        /* \"#utility.yul\":11048:11049   */\n      0x00\n        /* \"#utility.yul\":11045:11046   */\n      dup1\n        /* \"#utility.yul\":11038:11050   */\n      revert\n        /* \"#utility.yul\":10989:11052   */\n    tag_247:\n        /* \"#utility.yul\":10936:11058   */\n      pop\n      jump\t// out\n\n    auxdata: 0xa26469706673582212200f02db60eba92ecb561f8e3657965f8846ef10afc506bb056562b436619c2df264736f6c63430008070033\n}\n",
				"bytecode": {
					"linkReferences": {},
					"object": "608060405234801561001057600080fd5b50336000806101000a81548173ffffffffffffffffffffffffffffffffffffffff021916908373ffffffffffffffffffffffffffffffffffffffff160217905550611080806100606000396000f3fe6080604052600436106100865760003560e01c8063572c1bf411610059578063572c1bf4146101435780635d9ec2101461016e5780637065cb4814610197578063a50ec326146101c0578063d11db83f146101ca57610086565b806314174f331461008b578063173825d9146100b45780632ccb1b30146100dd57806333ea3dc814610106575b600080fd5b34801561009757600080fd5b506100b260048036038101906100ad9190610bd8565b6101f5565b005b3480156100c057600080fd5b506100db60048036038101906100d69190610b6b565b610202565b005b3480156100e957600080fd5b5061010460048036038101906100ff9190610b98565b6102b6565b005b34801561011257600080fd5b5061012d60048036038101906101289190610bd8565b61057e565b60405161013a9190610e62565b60405180910390f35b34801561014f57600080fd5b5061015861075f565b6040516101659190610e7d565b60405180910390f35b34801561017a57600080fd5b5061019560048036038101906101909190610bd8565b610767565b005b3480156101a357600080fd5b506101be60048036038101906101b99190610b6b565b6108d5565b005b6101c8610988565b005b3480156101d657600080fd5b506101df6109c3565b6040516101ec9190610e00565b60405180910390f35b6101ff33826102b6565b50565b60008054906101000a900473ffffffffffffffffffffffffffffffffffffffff1673ffffffffffffffffffffffffffffffffffffffff163373ffffffffffffffffffffffffffffffffffffffff161461025a57600080fd5b6000600160008373ffffffffffffffffffffffffffffffffffffffff1673ffffffffffffffffffffffffffffffffffffffff16815260200190815260200160002060006101000a81548160ff021916908360ff16021790555050565b60008054906101000a900473ffffffffffffffffffffffffffffffffffffffff1673ffffffffffffffffffffffffffffffffffffffff163373ffffffffffffffffffffffffffffffffffffffff16148061035e575060018060003373ffffffffffffffffffffffffffffffffffffffff1673ffffffffffffffffffffffffffffffffffffffff16815260200190815260200160002060009054906101000a900460ff1660ff16145b61036757600080fd5b804710156103aa576040517f08c379a00000000000000000000000000000000000000000000000000000000081526004016103a190610e42565b60405180910390fd5b60026040518060a001604052803373ffffffffffffffffffffffffffffffffffffffff1681526020018473ffffffffffffffffffffffffffffffffffffffff168152602001838152602001600015158152602001600060ff16815250908060018154018082558091505060019003906000526020600020906004020160009091909190915060008201518160000160006101000a81548173ffffffffffffffffffffffffffffffffffffffff021916908373ffffffffffffffffffffffffffffffffffffffff16021790555060208201518160010160006101000a81548173ffffffffffffffffffffffffffffffffffffffff021916908373ffffffffffffffffffffffffffffffffffffffff1602179055506040820151816002015560608201518160030160006101000a81548160ff02191690831515021790555060808201518160030160016101000a81548160ff021916908360ff1602179055505050600460028054905090806001815401808255809150506001900390600052602060002001600090919091909150557f41d8c89c4a25824354aa1f198d80d06f2f93f903a2d180d1ea20429a4678c4a43383836002805490506040516105729493929190610d92565b60405180910390a15050565b610586610acc565b60008054906101000a900473ffffffffffffffffffffffffffffffffffffffff1673ffffffffffffffffffffffffffffffffffffffff163373ffffffffffffffffffffffffffffffffffffffff16148061062e575060018060003373ffffffffffffffffffffffffffffffffffffffff1673ffffffffffffffffffffffffffffffffffffffff16815260200190815260200160002060009054906101000a900460ff1660ff16145b61063757600080fd5b60006002838154811061064d5761064c610f7f565b5b90600052602060002090600402016040518060a00160405290816000820160009054906101000a900473ffffffffffffffffffffffffffffffffffffffff1673ffffffffffffffffffffffffffffffffffffffff1673ffffffffffffffffffffffffffffffffffffffff1681526020016001820160009054906101000a900473ffffffffffffffffffffffffffffffffffffffff1673ffffffffffffffffffffffffffffffffffffffff1673ffffffffffffffffffffffffffffffffffffffff168152602001600282015481526020016003820160009054906101000a900460ff161515151581526020016003820160019054906101000a900460ff1660ff1660ff1681525050905080915050919050565b600047905090565b60008054906101000a900473ffffffffffffffffffffffffffffffffffffffff1673ffffffffffffffffffffffffffffffffffffffff163373ffffffffffffffffffffffffffffffffffffffff16148061080f575060018060003373ffffffffffffffffffffffffffffffffffffffff1673ffffffffffffffffffffffffffffffffffffffff16815260200190815260200160002060009054906101000a900460ff1660ff16145b61081857600080fd5b60006002828154811061082e5761082d610f7f565b5b906000526020600020906004020190508060000160009054906101000a900473ffffffffffffffffffffffffffffffffffffffff1673ffffffffffffffffffffffffffffffffffffffff163373ffffffffffffffffffffffffffffffffffffffff1614156108d1576040517f08c379a00000000000000000000000000000000000000000000000000000000081526004016108c890610e22565b60405180910390fd5b5050565b60008054906101000a900473ffffffffffffffffffffffffffffffffffffffff1673ffffffffffffffffffffffffffffffffffffffff163373ffffffffffffffffffffffffffffffffffffffff161461092d57600080fd5b60018060008373ffffffffffffffffffffffffffffffffffffffff1673ffffffffffffffffffffffffffffffffffffffff16815260200190815260200160002060006101000a81548160ff021916908360ff16021790555050565b7fd241e73300212f6df233a8e6d3146b88a9d4964e06621d54b5ff6afeba7b1b8833346040516109b9929190610dd7565b60405180910390a1565b606060008054906101000a900473ffffffffffffffffffffffffffffffffffffffff1673ffffffffffffffffffffffffffffffffffffffff163373ffffffffffffffffffffffffffffffffffffffff161480610a6d575060018060003373ffffffffffffffffffffffffffffffffffffffff1673ffffffffffffffffffffffffffffffffffffffff16815260200190815260200160002060009054906101000a900460ff1660ff16145b610a7657600080fd5b6004805480602002602001604051908101604052809291908181526020018280548015610ac257602002820191906000526020600020905b815481526020019060010190808311610aae575b5050505050905090565b6040518060a00160405280600073ffffffffffffffffffffffffffffffffffffffff168152602001600073ffffffffffffffffffffffffffffffffffffffff16815260200160008152602001600015158152602001600060ff1681525090565b600081359050610b3b81611005565b92915050565b600081359050610b508161101c565b92915050565b600081359050610b6581611033565b92915050565b600060208284031215610b8157610b80610fae565b5b6000610b8f84828501610b2c565b91505092915050565b60008060408385031215610baf57610bae610fae565b5b6000610bbd85828601610b41565b9250506020610bce85828601610b56565b9150509250929050565b600060208284031215610bee57610bed610fae565b5b6000610bfc84828501610b56565b91505092915050565b6000610c118383610d65565b60208301905092915050565b610c2681610f49565b82525050565b610c3581610ef4565b82525050565b610c4481610ee2565b82525050565b6000610c5582610ea8565b610c5f8185610ec0565b9350610c6a83610e98565b8060005b83811015610c9b578151610c828882610c05565b9750610c8d83610eb3565b925050600181019050610c6e565b5085935050505092915050565b610cb181610f06565b82525050565b6000610cc4601283610ed1565b9150610ccf82610fb3565b602082019050919050565b6000610ce7601083610ed1565b9150610cf282610fdc565b602082019050919050565b60a082016000820151610d136000850182610c2c565b506020820151610d266020850182610c2c565b506040820151610d396040850182610d65565b506060820151610d4c6060850182610ca8565b506080820151610d5f6080850182610d83565b50505050565b610d6e81610f32565b82525050565b610d7d81610f32565b82525050565b610d8c81610f3c565b82525050565b6000608082019050610da76000830187610c3b565b610db46020830186610c1d565b610dc16040830185610d74565b610dce6060830184610d74565b95945050505050565b6000604082019050610dec6000830185610c3b565b610df96020830184610d74565b9392505050565b60006020820190508181036000830152610e1a8184610c4a565b905092915050565b60006020820190508181036000830152610e3b81610cb7565b9050919050565b60006020820190508181036000830152610e5b81610cda565b9050919050565b600060a082019050610e776000830184610cfd565b92915050565b6000602082019050610e926000830184610d74565b92915050565b6000819050602082019050919050565b600081519050919050565b6000602082019050919050565b600082825260208201905092915050565b600082825260208201905092915050565b6000610eed82610f12565b9050919050565b6000610eff82610f12565b9050919050565b60008115159050919050565b600073ffffffffffffffffffffffffffffffffffffffff82169050919050565b6000819050919050565b600060ff82169050919050565b6000610f5482610f5b565b9050919050565b6000610f6682610f6d565b9050919050565b6000610f7882610f12565b9050919050565b7f4e487b7100000000000000000000000000000000000000000000000000000000600052603260045260246000fd5b600080fd5b7f43726561746f722063616e2774207369676e0000000000000000000000000000600082015250565b7f4e6f7420456e6f756768204d6f6e657900000000000000000000000000000000600082015250565b61100e81610ee2565b811461101957600080fd5b50565b61102581610ef4565b811461103057600080fd5b50565b61103c81610f32565b811461104757600080fd5b5056fea26469706673582212200f02db60eba92ecb561f8e3657965f8846ef10afc506bb056562b436619c2df264736f6c63430008070033",
					"opcodes": "PUSH1 0x80 PUSH1 0x40 MSTORE CALLVALUE DUP1 ISZERO PUSH2 0x10 JUMPI PUSH1 0x0 DUP1 REVERT JUMPDEST POP CALLER PUSH1 0x0 DUP1 PUSH2 0x100 EXP DUP2 SLOAD DUP2 PUSH20 0xFFFFFFFFFFFFFFFFFFFFFFFFFFFFFFFFFFFFFFFF MUL NOT AND SWAP1 DUP4 PUSH20 0xFFFFFFFFFFFFFFFFFFFFFFFFFFFFFFFFFFFFFFFF AND MUL OR SWAP1 SSTORE POP PUSH2 0x1080 DUP1 PUSH2 0x60 PUSH1 0x0 CODECOPY PUSH1 0x0 RETURN INVALID PUSH1 0x80 PUSH1 0x40 MSTORE PUSH1 0x4 CALLDATASIZE LT PUSH2 0x86 JUMPI PUSH1 0x0 CALLDATALOAD PUSH1 0xE0 SHR DUP1 PUSH4 0x572C1BF4 GT PUSH2 0x59 JUMPI DUP1 PUSH4 0x572C1BF4 EQ PUSH2 0x143 JUMPI DUP1 PUSH4 0x5D9EC210 EQ PUSH2 0x16E JUMPI DUP1 PUSH4 0x7065CB48 EQ PUSH2 0x197 JUMPI DUP1 PUSH4 0xA50EC326 EQ PUSH2 0x1C0 JUMPI DUP1 PUSH4 0xD11DB83F EQ PUSH2 0x1CA JUMPI PUSH2 0x86 JUMP JUMPDEST DUP1 PUSH4 0x14174F33 EQ PUSH2 0x8B JUMPI DUP1 PUSH4 0x173825D9 EQ PUSH2 0xB4 JUMPI DUP1 PUSH4 0x2CCB1B30 EQ PUSH2 0xDD JUMPI DUP1 PUSH4 0x33EA3DC8 EQ PUSH2 0x106 JUMPI JUMPDEST PUSH1 0x0 DUP1 REVERT JUMPDEST CALLVALUE DUP1 ISZERO PUSH2 0x97 JUMPI PUSH1 0x0 DUP1 REVERT JUMPDEST POP PUSH2 0xB2 PUSH1 0x4 DUP1 CALLDATASIZE SUB DUP2 ADD SWAP1 PUSH2 0xAD SWAP2 SWAP1 PUSH2 0xBD8 JUMP JUMPDEST PUSH2 0x1F5 JUMP JUMPDEST STOP JUMPDEST CALLVALUE DUP1 ISZERO PUSH2 0xC0 JUMPI PUSH1 0x0 DUP1 REVERT JUMPDEST POP PUSH2 0xDB PUSH1 0x4 DUP1 CALLDATASIZE SUB DUP2 ADD SWAP1 PUSH2 0xD6 SWAP2 SWAP1 PUSH2 0xB6B JUMP JUMPDEST PUSH2 0x202 JUMP JUMPDEST STOP JUMPDEST CALLVALUE DUP1 ISZERO PUSH2 0xE9 JUMPI PUSH1 0x0 DUP1 REVERT JUMPDEST POP PUSH2 0x104 PUSH1 0x4 DUP1 CALLDATASIZE SUB DUP2 ADD SWAP1 PUSH2 0xFF SWAP2 SWAP1 PUSH2 0xB98 JUMP JUMPDEST PUSH2 0x2B6 JUMP JUMPDEST STOP JUMPDEST CALLVALUE DUP1 ISZERO PUSH2 0x112 JUMPI PUSH1 0x0 DUP1 REVERT JUMPDEST POP PUSH2 0x12D PUSH1 0x4 DUP1 CALLDATASIZE SUB DUP2 ADD SWAP1 PUSH2 0x128 SWAP2 SWAP1 PUSH2 0xBD8 JUMP JUMPDEST PUSH2 0x57E JUMP JUMPDEST PUSH1 0x40 MLOAD PUSH2 0x13A SWAP2 SWAP1 PUSH2 0xE62 JUMP JUMPDEST PUSH1 0x40 MLOAD DUP1 SWAP2 SUB SWAP1 RETURN JUMPDEST CALLVALUE DUP1 ISZERO PUSH2 0x14F JUMPI PUSH1 0x0 DUP1 REVERT JUMPDEST POP PUSH2 0x158 PUSH2 0x75F JUMP JUMPDEST PUSH1 0x40 MLOAD PUSH2 0x165 SWAP2 SWAP1 PUSH2 0xE7D JUMP JUMPDEST PUSH1 0x40 MLOAD DUP1 SWAP2 SUB SWAP1 RETURN JUMPDEST CALLVALUE DUP1 ISZERO PUSH2 0x17A JUMPI PUSH1 0x0 DUP1 REVERT JUMPDEST POP PUSH2 0x195 PUSH1 0x4 DUP1 CALLDATASIZE SUB DUP2 ADD SWAP1 PUSH2 0x190 SWAP2 SWAP1 PUSH2 0xBD8 JUMP JUMPDEST PUSH2 0x767 JUMP JUMPDEST STOP JUMPDEST CALLVALUE DUP1 ISZERO PUSH2 0x1A3 JUMPI PUSH1 0x0 DUP1 REVERT JUMPDEST POP PUSH2 0x1BE PUSH1 0x4 DUP1 CALLDATASIZE SUB DUP2 ADD SWAP1 PUSH2 0x1B9 SWAP2 SWAP1 PUSH2 0xB6B JUMP JUMPDEST PUSH2 0x8D5 JUMP JUMPDEST STOP JUMPDEST PUSH2 0x1C8 PUSH2 0x988 JUMP JUMPDEST STOP JUMPDEST CALLVALUE DUP1 ISZERO PUSH2 0x1D6 JUMPI PUSH1 0x0 DUP1 REVERT JUMPDEST POP PUSH2 0x1DF PUSH2 0x9C3 JUMP JUMPDEST PUSH1 0x40 MLOAD PUSH2 0x1EC SWAP2 SWAP1 PUSH2 0xE00 JUMP JUMPDEST PUSH1 0x40 MLOAD DUP1 SWAP2 SUB SWAP1 RETURN JUMPDEST PUSH2 0x1FF CALLER DUP3 PUSH2 0x2B6 JUMP JUMPDEST POP JUMP JUMPDEST PUSH1 0x0 DUP1 SLOAD SWAP1 PUSH2 0x100 EXP SWAP1 DIV PUSH20 0xFFFFFFFFFFFFFFFFFFFFFFFFFFFFFFFFFFFFFFFF AND PUSH20 0xFFFFFFFFFFFFFFFFFFFFFFFFFFFFFFFFFFFFFFFF AND CALLER PUSH20 0xFFFFFFFFFFFFFFFFFFFFFFFFFFFFFFFFFFFFFFFF AND EQ PUSH2 0x25A JUMPI PUSH1 0x0 DUP1 REVERT JUMPDEST PUSH1 0x0 PUSH1 0x1 PUSH1 0x0 DUP4 PUSH20 0xFFFFFFFFFFFFFFFFFFFFFFFFFFFFFFFFFFFFFFFF AND PUSH20 0xFFFFFFFFFFFFFFFFFFFFFFFFFFFFFFFFFFFFFFFF AND DUP2 MSTORE PUSH1 0x20 ADD SWAP1 DUP2 MSTORE PUSH1 0x20 ADD PUSH1 0x0 KECCAK256 PUSH1 0x0 PUSH2 0x100 EXP DUP2 SLOAD DUP2 PUSH1 0xFF MUL NOT AND SWAP1 DUP4 PUSH1 0xFF AND MUL OR SWAP1 SSTORE POP POP JUMP JUMPDEST PUSH1 0x0 DUP1 SLOAD SWAP1 PUSH2 0x100 EXP SWAP1 DIV PUSH20 0xFFFFFFFFFFFFFFFFFFFFFFFFFFFFFFFFFFFFFFFF AND PUSH20 0xFFFFFFFFFFFFFFFFFFFFFFFFFFFFFFFFFFFFFFFF AND CALLER PUSH20 0xFFFFFFFFFFFFFFFFFFFFFFFFFFFFFFFFFFFFFFFF AND EQ DUP1 PUSH2 0x35E JUMPI POP PUSH1 0x1 DUP1 PUSH1 0x0 CALLER PUSH20 0xFFFFFFFFFFFFFFFFFFFFFFFFFFFFFFFFFFFFFFFF AND PUSH20 0xFFFFFFFFFFFFFFFFFFFFFFFFFFFFFFFFFFFFFFFF AND DUP2 MSTORE PUSH1 0x20 ADD SWAP1 DUP2 MSTORE PUSH1 0x20 ADD PUSH1 0x0 KECCAK256 PUSH1 0x0 SWAP1 SLOAD SWAP1 PUSH2 0x100 EXP SWAP1 DIV PUSH1 0xFF AND PUSH1 0xFF AND EQ JUMPDEST PUSH2 0x367 JUMPI PUSH1 0x0 DUP1 REVERT JUMPDEST DUP1 SELFBALANCE LT ISZERO PUSH2 0x3AA JUMPI PUSH1 0x40 MLOAD PUSH32 0x8C379A000000000000000000000000000000000000000000000000000000000 DUP2 MSTORE PUSH1 0x4 ADD PUSH2 0x3A1 SWAP1 PUSH2 0xE42 JUMP JUMPDEST PUSH1 0x40 MLOAD DUP1 SWAP2 SUB SWAP1 REVERT JUMPDEST PUSH1 0x2 PUSH1 0x40 MLOAD DUP1 PUSH1 0xA0 ADD PUSH1 0x40 MSTORE DUP1 CALLER PUSH20 0xFFFFFFFFFFFFFFFFFFFFFFFFFFFFFFFFFFFFFFFF AND DUP2 MSTORE PUSH1 0x20 ADD DUP5 PUSH20 0xFFFFFFFFFFFFFFFFFFFFFFFFFFFFFFFFFFFFFFFF AND DUP2 MSTORE PUSH1 0x20 ADD DUP4 DUP2 MSTORE PUSH1 0x20 ADD PUSH1 0x0 ISZERO ISZERO DUP2 MSTORE PUSH1 0x20 ADD PUSH1 0x0 PUSH1 0xFF AND DUP2 MSTORE POP SWAP1 DUP1 PUSH1 0x1 DUP2 SLOAD ADD DUP1 DUP3 SSTORE DUP1 SWAP2 POP POP PUSH1 0x1 SWAP1 SUB SWAP1 PUSH1 0x0 MSTORE PUSH1 0x20 PUSH1 0x0 KECCAK256 SWAP1 PUSH1 0x4 MUL ADD PUSH1 0x0 SWAP1 SWAP2 SWAP1 SWAP2 SWAP1 SWAP2 POP PUSH1 0x0 DUP3 ADD MLOAD DUP2 PUSH1 0x0 ADD PUSH1 0x0 PUSH2 0x100 EXP DUP2 SLOAD DUP2 PUSH20 0xFFFFFFFFFFFFFFFFFFFFFFFFFFFFFFFFFFFFFFFF MUL NOT AND SWAP1 DUP4 PUSH20 0xFFFFFFFFFFFFFFFFFFFFFFFFFFFFFFFFFFFFFFFF AND MUL OR SWAP1 SSTORE POP PUSH1 0x20 DUP3 ADD MLOAD DUP2 PUSH1 0x1 ADD PUSH1 0x0 PUSH2 0x100 EXP DUP2 SLOAD DUP2 PUSH20 0xFFFFFFFFFFFFFFFFFFFFFFFFFFFFFFFFFFFFFFFF MUL NOT AND SWAP1 DUP4 PUSH20 0xFFFFFFFFFFFFFFFFFFFFFFFFFFFFFFFFFFFFFFFF AND MUL OR SWAP1 SSTORE POP PUSH1 0x40 DUP3 ADD MLOAD DUP2 PUSH1 0x2 ADD SSTORE PUSH1 0x60 DUP3 ADD MLOAD DUP2 PUSH1 0x3 ADD PUSH1 0x0 PUSH2 0x100 EXP DUP2 SLOAD DUP2 PUSH1 0xFF MUL NOT AND SWAP1 DUP4 ISZERO ISZERO MUL OR SWAP1 SSTORE POP PUSH1 0x80 DUP3 ADD MLOAD DUP2 PUSH1 0x3 ADD PUSH1 0x1 PUSH2 0x100 EXP DUP2 SLOAD DUP2 PUSH1 0xFF MUL NOT AND SWAP1 DUP4 PUSH1 0xFF AND MUL OR SWAP1 SSTORE POP POP POP PUSH1 0x4 PUSH1 0x2 DUP1 SLOAD SWAP1 POP SWAP1 DUP1 PUSH1 0x1 DUP2 SLOAD ADD DUP1 DUP3 SSTORE DUP1 SWAP2 POP POP PUSH1 0x1 SWAP1 SUB SWAP1 PUSH1 0x0 MSTORE PUSH1 0x20 PUSH1 0x0 KECCAK256 ADD PUSH1 0x0 SWAP1 SWAP2 SWAP1 SWAP2 SWAP1 SWAP2 POP SSTORE PUSH32 0x41D8C89C4A25824354AA1F198D80D06F2F93F903A2D180D1EA20429A4678C4A4 CALLER DUP4 DUP4 PUSH1 0x2 DUP1 SLOAD SWAP1 POP PUSH1 0x40 MLOAD PUSH2 0x572 SWAP5 SWAP4 SWAP3 SWAP2 SWAP1 PUSH2 0xD92 JUMP JUMPDEST PUSH1 0x40 MLOAD DUP1 SWAP2 SUB SWAP1 LOG1 POP POP JUMP JUMPDEST PUSH2 0x586 PUSH2 0xACC JUMP JUMPDEST PUSH1 0x0 DUP1 SLOAD SWAP1 PUSH2 0x100 EXP SWAP1 DIV PUSH20 0xFFFFFFFFFFFFFFFFFFFFFFFFFFFFFFFFFFFFFFFF AND PUSH20 0xFFFFFFFFFFFFFFFFFFFFFFFFFFFFFFFFFFFFFFFF AND CALLER PUSH20 0xFFFFFFFFFFFFFFFFFFFFFFFFFFFFFFFFFFFFFFFF AND EQ DUP1 PUSH2 0x62E JUMPI POP PUSH1 0x1 DUP1 PUSH1 0x0 CALLER PUSH20 0xFFFFFFFFFFFFFFFFFFFFFFFFFFFFFFFFFFFFFFFF AND PUSH20 0xFFFFFFFFFFFFFFFFFFFFFFFFFFFFFFFFFFFFFFFF AND DUP2 MSTORE PUSH1 0x20 ADD SWAP1 DUP2 MSTORE PUSH1 0x20 ADD PUSH1 0x0 KECCAK256 PUSH1 0x0 SWAP1 SLOAD SWAP1 PUSH2 0x100 EXP SWAP1 DIV PUSH1 0xFF AND PUSH1 0xFF AND EQ JUMPDEST PUSH2 0x637 JUMPI PUSH1 0x0 DUP1 REVERT JUMPDEST PUSH1 0x0 PUSH1 0x2 DUP4 DUP2 SLOAD DUP2 LT PUSH2 0x64D JUMPI PUSH2 0x64C PUSH2 0xF7F JUMP JUMPDEST JUMPDEST SWAP1 PUSH1 0x0 MSTORE PUSH1 0x20 PUSH1 0x0 KECCAK256 SWAP1 PUSH1 0x4 MUL ADD PUSH1 0x40 MLOAD DUP1 PUSH1 0xA0 ADD PUSH1 0x40 MSTORE SWAP1 DUP2 PUSH1 0x0 DUP3 ADD PUSH1 0x0 SWAP1 SLOAD SWAP1 PUSH2 0x100 EXP SWAP1 DIV PUSH20 0xFFFFFFFFFFFFFFFFFFFFFFFFFFFFFFFFFFFFFFFF AND PUSH20 0xFFFFFFFFFFFFFFFFFFFFFFFFFFFFFFFFFFFFFFFF AND PUSH20 0xFFFFFFFFFFFFFFFFFFFFFFFFFFFFFFFFFFFFFFFF AND DUP2 MSTORE PUSH1 0x20 ADD PUSH1 0x1 DUP3 ADD PUSH1 0x0 SWAP1 SLOAD SWAP1 PUSH2 0x100 EXP SWAP1 DIV PUSH20 0xFFFFFFFFFFFFFFFFFFFFFFFFFFFFFFFFFFFFFFFF AND PUSH20 0xFFFFFFFFFFFFFFFFFFFFFFFFFFFFFFFFFFFFFFFF AND PUSH20 0xFFFFFFFFFFFFFFFFFFFFFFFFFFFFFFFFFFFFFFFF AND DUP2 MSTORE PUSH1 0x20 ADD PUSH1 0x2 DUP3 ADD SLOAD DUP2 MSTORE PUSH1 0x20 ADD PUSH1 0x3 DUP3 ADD PUSH1 0x0 SWAP1 SLOAD SWAP1 PUSH2 0x100 EXP SWAP1 DIV PUSH1 0xFF AND ISZERO ISZERO ISZERO ISZERO DUP2 MSTORE PUSH1 0x20 ADD PUSH1 0x3 DUP3 ADD PUSH1 0x1 SWAP1 SLOAD SWAP1 PUSH2 0x100 EXP SWAP1 DIV PUSH1 0xFF AND PUSH1 0xFF AND PUSH1 0xFF AND DUP2 MSTORE POP POP SWAP1 POP DUP1 SWAP2 POP POP SWAP2 SWAP1 POP JUMP JUMPDEST PUSH1 0x0 SELFBALANCE SWAP1 POP SWAP1 JUMP JUMPDEST PUSH1 0x0 DUP1 SLOAD SWAP1 PUSH2 0x100 EXP SWAP1 DIV PUSH20 0xFFFFFFFFFFFFFFFFFFFFFFFFFFFFFFFFFFFFFFFF AND PUSH20 0xFFFFFFFFFFFFFFFFFFFFFFFFFFFFFFFFFFFFFFFF AND CALLER PUSH20 0xFFFFFFFFFFFFFFFFFFFFFFFFFFFFFFFFFFFFFFFF AND EQ DUP1 PUSH2 0x80F JUMPI POP PUSH1 0x1 DUP1 PUSH1 0x0 CALLER PUSH20 0xFFFFFFFFFFFFFFFFFFFFFFFFFFFFFFFFFFFFFFFF AND PUSH20 0xFFFFFFFFFFFFFFFFFFFFFFFFFFFFFFFFFFFFFFFF AND DUP2 MSTORE PUSH1 0x20 ADD SWAP1 DUP2 MSTORE PUSH1 0x20 ADD PUSH1 0x0 KECCAK256 PUSH1 0x0 SWAP1 SLOAD SWAP1 PUSH2 0x100 EXP SWAP1 DIV PUSH1 0xFF AND PUSH1 0xFF AND EQ JUMPDEST PUSH2 0x818 JUMPI PUSH1 0x0 DUP1 REVERT JUMPDEST PUSH1 0x0 PUSH1 0x2 DUP3 DUP2 SLOAD DUP2 LT PUSH2 0x82E JUMPI PUSH2 0x82D PUSH2 0xF7F JUMP JUMPDEST JUMPDEST SWAP1 PUSH1 0x0 MSTORE PUSH1 0x20 PUSH1 0x0 KECCAK256 SWAP1 PUSH1 0x4 MUL ADD SWAP1 POP DUP1 PUSH1 0x0 ADD PUSH1 0x0 SWAP1 SLOAD SWAP1 PUSH2 0x100 EXP SWAP1 DIV PUSH20 0xFFFFFFFFFFFFFFFFFFFFFFFFFFFFFFFFFFFFFFFF AND PUSH20 0xFFFFFFFFFFFFFFFFFFFFFFFFFFFFFFFFFFFFFFFF AND CALLER PUSH20 0xFFFFFFFFFFFFFFFFFFFFFFFFFFFFFFFFFFFFFFFF AND EQ ISZERO PUSH2 0x8D1 JUMPI PUSH1 0x40 MLOAD PUSH32 0x8C379A000000000000000000000000000000000000000000000000000000000 DUP2 MSTORE PUSH1 0x4 ADD PUSH2 0x8C8 SWAP1 PUSH2 0xE22 JUMP JUMPDEST PUSH1 0x40 MLOAD DUP1 SWAP2 SUB SWAP1 REVERT JUMPDEST POP POP JUMP JUMPDEST PUSH1 0x0 DUP1 SLOAD SWAP1 PUSH2 0x100 EXP SWAP1 DIV PUSH20 0xFFFFFFFFFFFFFFFFFFFFFFFFFFFFFFFFFFFFFFFF AND PUSH20 0xFFFFFFFFFFFFFFFFFFFFFFFFFFFFFFFFFFFFFFFF AND CALLER PUSH20 0xFFFFFFFFFFFFFFFFFFFFFFFFFFFFFFFFFFFFFFFF AND EQ PUSH2 0x92D JUMPI PUSH1 0x0 DUP1 REVERT JUMPDEST PUSH1 0x1 DUP1 PUSH1 0x0 DUP4 PUSH20 0xFFFFFFFFFFFFFFFFFFFFFFFFFFFFFFFFFFFFFFFF AND PUSH20 0xFFFFFFFFFFFFFFFFFFFFFFFFFFFFFFFFFFFFFFFF AND DUP2 MSTORE PUSH1 0x20 ADD SWAP1 DUP2 MSTORE PUSH1 0x20 ADD PUSH1 0x0 KECCAK256 PUSH1 0x0 PUSH2 0x100 EXP DUP2 SLOAD DUP2 PUSH1 0xFF MUL NOT AND SWAP1 DUP4 PUSH1 0xFF AND MUL OR SWAP1 SSTORE POP POP JUMP JUMPDEST PUSH32 0xD241E73300212F6DF233A8E6D3146B88A9D4964E06621D54B5FF6AFEBA7B1B88 CALLER CALLVALUE PUSH1 0x40 MLOAD PUSH2 0x9B9 SWAP3 SWAP2 SWAP1 PUSH2 0xDD7 JUMP JUMPDEST PUSH1 0x40 MLOAD DUP1 SWAP2 SUB SWAP1 LOG1 JUMP JUMPDEST PUSH1 0x60 PUSH1 0x0 DUP1 SLOAD SWAP1 PUSH2 0x100 EXP SWAP1 DIV PUSH20 0xFFFFFFFFFFFFFFFFFFFFFFFFFFFFFFFFFFFFFFFF AND PUSH20 0xFFFFFFFFFFFFFFFFFFFFFFFFFFFFFFFFFFFFFFFF AND CALLER PUSH20 0xFFFFFFFFFFFFFFFFFFFFFFFFFFFFFFFFFFFFFFFF AND EQ DUP1 PUSH2 0xA6D JUMPI POP PUSH1 0x1 DUP1 PUSH1 0x0 CALLER PUSH20 0xFFFFFFFFFFFFFFFFFFFFFFFFFFFFFFFFFFFFFFFF AND PUSH20 0xFFFFFFFFFFFFFFFFFFFFFFFFFFFFFFFFFFFFFFFF AND DUP2 MSTORE PUSH1 0x20 ADD SWAP1 DUP2 MSTORE PUSH1 0x20 ADD PUSH1 0x0 KECCAK256 PUSH1 0x0 SWAP1 SLOAD SWAP1 PUSH2 0x100 EXP SWAP1 DIV PUSH1 0xFF AND PUSH1 0xFF AND EQ JUMPDEST PUSH2 0xA76 JUMPI PUSH1 0x0 DUP1 REVERT JUMPDEST PUSH1 0x4 DUP1 SLOAD DUP1 PUSH1 0x20 MUL PUSH1 0x20 ADD PUSH1 0x40 MLOAD SWAP1 DUP2 ADD PUSH1 0x40 MSTORE DUP1 SWAP3 SWAP2 SWAP1 DUP2 DUP2 MSTORE PUSH1 0x20 ADD DUP3 DUP1 SLOAD DUP1 ISZERO PUSH2 0xAC2 JUMPI PUSH1 0x20 MUL DUP3 ADD SWAP2 SWAP1 PUSH1 0x0 MSTORE PUSH1 0x20 PUSH1 0x0 KECCAK256 SWAP1 JUMPDEST DUP2 SLOAD DUP2 MSTORE PUSH1 0x20 ADD SWAP1 PUSH1 0x1 ADD SWAP1 DUP1 DUP4 GT PUSH2 0xAAE JUMPI JUMPDEST POP POP POP POP POP SWAP1 POP SWAP1 JUMP JUMPDEST PUSH1 0x40 MLOAD DUP1 PUSH1 0xA0 ADD PUSH1 0x40 MSTORE DUP1 PUSH1 0x0 PUSH20 0xFFFFFFFFFFFFFFFFFFFFFFFFFFFFFFFFFFFFFFFF AND DUP2 MSTORE PUSH1 0x20 ADD PUSH1 0x0 PUSH20 0xFFFFFFFFFFFFFFFFFFFFFFFFFFFFFFFFFFFFFFFF AND DUP2 MSTORE PUSH1 0x20 ADD PUSH1 0x0 DUP2 MSTORE PUSH1 0x20 ADD PUSH1 0x0 ISZERO ISZERO DUP2 MSTORE PUSH1 0x20 ADD PUSH1 0x0 PUSH1 0xFF AND DUP2 MSTORE POP SWAP1 JUMP JUMPDEST PUSH1 0x0 DUP2 CALLDATALOAD SWAP1 POP PUSH2 0xB3B DUP2 PUSH2 0x1005 JUMP JUMPDEST SWAP3 SWAP2 POP POP JUMP JUMPDEST PUSH1 0x0 DUP2 CALLDATALOAD SWAP1 POP PUSH2 0xB50 DUP2 PUSH2 0x101C JUMP JUMPDEST SWAP3 SWAP2 POP POP JUMP JUMPDEST PUSH1 0x0 DUP2 CALLDATALOAD SWAP1 POP PUSH2 0xB65 DUP2 PUSH2 0x1033 JUMP JUMPDEST SWAP3 SWAP2 POP POP JUMP JUMPDEST PUSH1 0x0 PUSH1 0x20 DUP3 DUP5 SUB SLT ISZERO PUSH2 0xB81 JUMPI PUSH2 0xB80 PUSH2 0xFAE JUMP JUMPDEST JUMPDEST PUSH1 0x0 PUSH2 0xB8F DUP5 DUP3 DUP6 ADD PUSH2 0xB2C JUMP JUMPDEST SWAP2 POP POP SWAP3 SWAP2 POP POP JUMP JUMPDEST PUSH1 0x0 DUP1 PUSH1 0x40 DUP4 DUP6 SUB SLT ISZERO PUSH2 0xBAF JUMPI PUSH2 0xBAE PUSH2 0xFAE JUMP JUMPDEST JUMPDEST PUSH1 0x0 PUSH2 0xBBD DUP6 DUP3 DUP7 ADD PUSH2 0xB41 JUMP JUMPDEST SWAP3 POP POP PUSH1 0x20 PUSH2 0xBCE DUP6 DUP3 DUP7 ADD PUSH2 0xB56 JUMP JUMPDEST SWAP2 POP POP SWAP3 POP SWAP3 SWAP1 POP JUMP JUMPDEST PUSH1 0x0 PUSH1 0x20 DUP3 DUP5 SUB SLT ISZERO PUSH2 0xBEE JUMPI PUSH2 0xBED PUSH2 0xFAE JUMP JUMPDEST JUMPDEST PUSH1 0x0 PUSH2 0xBFC DUP5 DUP3 DUP6 ADD PUSH2 0xB56 JUMP JUMPDEST SWAP2 POP POP SWAP3 SWAP2 POP POP JUMP JUMPDEST PUSH1 0x0 PUSH2 0xC11 DUP4 DUP4 PUSH2 0xD65 JUMP JUMPDEST PUSH1 0x20 DUP4 ADD SWAP1 POP SWAP3 SWAP2 POP POP JUMP JUMPDEST PUSH2 0xC26 DUP2 PUSH2 0xF49 JUMP JUMPDEST DUP3 MSTORE POP POP JUMP JUMPDEST PUSH2 0xC35 DUP2 PUSH2 0xEF4 JUMP JUMPDEST DUP3 MSTORE POP POP JUMP JUMPDEST PUSH2 0xC44 DUP2 PUSH2 0xEE2 JUMP JUMPDEST DUP3 MSTORE POP POP JUMP JUMPDEST PUSH1 0x0 PUSH2 0xC55 DUP3 PUSH2 0xEA8 JUMP JUMPDEST PUSH2 0xC5F DUP2 DUP6 PUSH2 0xEC0 JUMP JUMPDEST SWAP4 POP PUSH2 0xC6A DUP4 PUSH2 0xE98 JUMP JUMPDEST DUP1 PUSH1 0x0 JUMPDEST DUP4 DUP2 LT ISZERO PUSH2 0xC9B JUMPI DUP2 MLOAD PUSH2 0xC82 DUP9 DUP3 PUSH2 0xC05 JUMP JUMPDEST SWAP8 POP PUSH2 0xC8D DUP4 PUSH2 0xEB3 JUMP JUMPDEST SWAP3 POP POP PUSH1 0x1 DUP2 ADD SWAP1 POP PUSH2 0xC6E JUMP JUMPDEST POP DUP6 SWAP4 POP POP POP POP SWAP3 SWAP2 POP POP JUMP JUMPDEST PUSH2 0xCB1 DUP2 PUSH2 0xF06 JUMP JUMPDEST DUP3 MSTORE POP POP JUMP JUMPDEST PUSH1 0x0 PUSH2 0xCC4 PUSH1 0x12 DUP4 PUSH2 0xED1 JUMP JUMPDEST SWAP2 POP PUSH2 0xCCF DUP3 PUSH2 0xFB3 JUMP JUMPDEST PUSH1 0x20 DUP3 ADD SWAP1 POP SWAP2 SWAP1 POP JUMP JUMPDEST PUSH1 0x0 PUSH2 0xCE7 PUSH1 0x10 DUP4 PUSH2 0xED1 JUMP JUMPDEST SWAP2 POP PUSH2 0xCF2 DUP3 PUSH2 0xFDC JUMP JUMPDEST PUSH1 0x20 DUP3 ADD SWAP1 POP SWAP2 SWAP1 POP JUMP JUMPDEST PUSH1 0xA0 DUP3 ADD PUSH1 0x0 DUP3 ADD MLOAD PUSH2 0xD13 PUSH1 0x0 DUP6 ADD DUP3 PUSH2 0xC2C JUMP JUMPDEST POP PUSH1 0x20 DUP3 ADD MLOAD PUSH2 0xD26 PUSH1 0x20 DUP6 ADD DUP3 PUSH2 0xC2C JUMP JUMPDEST POP PUSH1 0x40 DUP3 ADD MLOAD PUSH2 0xD39 PUSH1 0x40 DUP6 ADD DUP3 PUSH2 0xD65 JUMP JUMPDEST POP PUSH1 0x60 DUP3 ADD MLOAD PUSH2 0xD4C PUSH1 0x60 DUP6 ADD DUP3 PUSH2 0xCA8 JUMP JUMPDEST POP PUSH1 0x80 DUP3 ADD MLOAD PUSH2 0xD5F PUSH1 0x80 DUP6 ADD DUP3 PUSH2 0xD83 JUMP JUMPDEST POP POP POP POP JUMP JUMPDEST PUSH2 0xD6E DUP2 PUSH2 0xF32 JUMP JUMPDEST DUP3 MSTORE POP POP JUMP JUMPDEST PUSH2 0xD7D DUP2 PUSH2 0xF32 JUMP JUMPDEST DUP3 MSTORE POP POP JUMP JUMPDEST PUSH2 0xD8C DUP2 PUSH2 0xF3C JUMP JUMPDEST DUP3 MSTORE POP POP JUMP JUMPDEST PUSH1 0x0 PUSH1 0x80 DUP3 ADD SWAP1 POP PUSH2 0xDA7 PUSH1 0x0 DUP4 ADD DUP8 PUSH2 0xC3B JUMP JUMPDEST PUSH2 0xDB4 PUSH1 0x20 DUP4 ADD DUP7 PUSH2 0xC1D JUMP JUMPDEST PUSH2 0xDC1 PUSH1 0x40 DUP4 ADD DUP6 PUSH2 0xD74 JUMP JUMPDEST PUSH2 0xDCE PUSH1 0x60 DUP4 ADD DUP5 PUSH2 0xD74 JUMP JUMPDEST SWAP6 SWAP5 POP POP POP POP POP JUMP JUMPDEST PUSH1 0x0 PUSH1 0x40 DUP3 ADD SWAP1 POP PUSH2 0xDEC PUSH1 0x0 DUP4 ADD DUP6 PUSH2 0xC3B JUMP JUMPDEST PUSH2 0xDF9 PUSH1 0x20 DUP4 ADD DUP5 PUSH2 0xD74 JUMP JUMPDEST SWAP4 SWAP3 POP POP POP JUMP JUMPDEST PUSH1 0x0 PUSH1 0x20 DUP3 ADD SWAP1 POP DUP2 DUP2 SUB PUSH1 0x0 DUP4 ADD MSTORE PUSH2 0xE1A DUP2 DUP5 PUSH2 0xC4A JUMP JUMPDEST SWAP1 POP SWAP3 SWAP2 POP POP JUMP JUMPDEST PUSH1 0x0 PUSH1 0x20 DUP3 ADD SWAP1 POP DUP2 DUP2 SUB PUSH1 0x0 DUP4 ADD MSTORE PUSH2 0xE3B DUP2 PUSH2 0xCB7 JUMP JUMPDEST SWAP1 POP SWAP2 SWAP1 POP JUMP JUMPDEST PUSH1 0x0 PUSH1 0x20 DUP3 ADD SWAP1 POP DUP2 DUP2 SUB PUSH1 0x0 DUP4 ADD MSTORE PUSH2 0xE5B DUP2 PUSH2 0xCDA JUMP JUMPDEST SWAP1 POP SWAP2 SWAP1 POP JUMP JUMPDEST PUSH1 0x0 PUSH1 0xA0 DUP3 ADD SWAP1 POP PUSH2 0xE77 PUSH1 0x0 DUP4 ADD DUP5 PUSH2 0xCFD JUMP JUMPDEST SWAP3 SWAP2 POP POP JUMP JUMPDEST PUSH1 0x0 PUSH1 0x20 DUP3 ADD SWAP1 POP PUSH2 0xE92 PUSH1 0x0 DUP4 ADD DUP5 PUSH2 0xD74 JUMP JUMPDEST SWAP3 SWAP2 POP POP JUMP JUMPDEST PUSH1 0x0 DUP2 SWAP1 POP PUSH1 0x20 DUP3 ADD SWAP1 POP SWAP2 SWAP1 POP JUMP JUMPDEST PUSH1 0x0 DUP2 MLOAD SWAP1 POP SWAP2 SWAP1 POP JUMP JUMPDEST PUSH1 0x0 PUSH1 0x20 DUP3 ADD SWAP1 POP SWAP2 SWAP1 POP JUMP JUMPDEST PUSH1 0x0 DUP3 DUP3 MSTORE PUSH1 0x20 DUP3 ADD SWAP1 POP SWAP3 SWAP2 POP POP JUMP JUMPDEST PUSH1 0x0 DUP3 DUP3 MSTORE PUSH1 0x20 DUP3 ADD SWAP1 POP SWAP3 SWAP2 POP POP JUMP JUMPDEST PUSH1 0x0 PUSH2 0xEED DUP3 PUSH2 0xF12 JUMP JUMPDEST SWAP1 POP SWAP2 SWAP1 POP JUMP JUMPDEST PUSH1 0x0 PUSH2 0xEFF DUP3 PUSH2 0xF12 JUMP JUMPDEST SWAP1 POP SWAP2 SWAP1 POP JUMP JUMPDEST PUSH1 0x0 DUP2 ISZERO ISZERO SWAP1 POP SWAP2 SWAP1 POP JUMP JUMPDEST PUSH1 0x0 PUSH20 0xFFFFFFFFFFFFFFFFFFFFFFFFFFFFFFFFFFFFFFFF DUP3 AND SWAP1 POP SWAP2 SWAP1 POP JUMP JUMPDEST PUSH1 0x0 DUP2 SWAP1 POP SWAP2 SWAP1 POP JUMP JUMPDEST PUSH1 0x0 PUSH1 0xFF DUP3 AND SWAP1 POP SWAP2 SWAP1 POP JUMP JUMPDEST PUSH1 0x0 PUSH2 0xF54 DUP3 PUSH2 0xF5B JUMP JUMPDEST SWAP1 POP SWAP2 SWAP1 POP JUMP JUMPDEST PUSH1 0x0 PUSH2 0xF66 DUP3 PUSH2 0xF6D JUMP JUMPDEST SWAP1 POP SWAP2 SWAP1 POP JUMP JUMPDEST PUSH1 0x0 PUSH2 0xF78 DUP3 PUSH2 0xF12 JUMP JUMPDEST SWAP1 POP SWAP2 SWAP1 POP JUMP JUMPDEST PUSH32 0x4E487B7100000000000000000000000000000000000000000000000000000000 PUSH1 0x0 MSTORE PUSH1 0x32 PUSH1 0x4 MSTORE PUSH1 0x24 PUSH1 0x0 REVERT JUMPDEST PUSH1 0x0 DUP1 REVERT JUMPDEST PUSH32 0x43726561746F722063616E2774207369676E0000000000000000000000000000 PUSH1 0x0 DUP3 ADD MSTORE POP JUMP JUMPDEST PUSH32 0x4E6F7420456E6F756768204D6F6E657900000000000000000000000000000000 PUSH1 0x0 DUP3 ADD MSTORE POP JUMP JUMPDEST PUSH2 0x100E DUP2 PUSH2 0xEE2 JUMP JUMPDEST DUP2 EQ PUSH2 0x1019 JUMPI PUSH1 0x0 DUP1 REVERT JUMPDEST POP JUMP JUMPDEST PUSH2 0x1025 DUP2 PUSH2 0xEF4 JUMP JUMPDEST DUP2 EQ PUSH2 0x1030 JUMPI PUSH1 0x0 DUP1 REVERT JUMPDEST POP JUMP JUMPDEST PUSH2 0x103C DUP2 PUSH2 0xF32 JUMP JUMPDEST DUP2 EQ PUSH2 0x1047 JUMPI PUSH1 0x0 DUP1 REVERT JUMPDEST POP JUMP INVALID LOG2 PUSH5 0x6970667358 0x22 SLT KECCAK256 0xF MUL 0xDB PUSH1 0xEB 0xA9 0x2E 0xCB JUMP 0x1F DUP15 CALLDATASIZE JUMPI SWAP7 0x5F DUP9 CHAINID 0xEF LT 0xAF 0xC5 MOD 0xBB SDIV PUSH6 0x62B436619C2D CALLCODE PUSH5 0x736F6C6343 STOP ADDMOD SMOD STOP CALLER "
				},
				"gasEstimates": {
					"creation": {
						"codeDepositCost": "844800",
						"executionCost": "25143",
						"totalCost": "869943"
					},
					"external": {
						"addOwner(address)": "27023",
						"deposite()": "1783",
						"getPendingTransactions()": "infinite",
						"getTransaction(uint256)": "infinite",
						"removeOwner(address)": "27002",
						"selectedTransactionBalance()": "339",
						"signTransaction(uint256)": "9522",
						"transferTo(address,uint256)": "infinite",
						"withDraw(uint256)": "infinite"
					}
				},
				"methodIdentifiers": {
					"addOwner(address)": "7065cb48",
					"deposite()": "a50ec326",
					"getPendingTransactions()": "d11db83f",
					"getTransaction(uint256)": "33ea3dc8",
					"removeOwner(address)": "173825d9",
					"selectedTransactionBalance()": "572c1bf4",
					"signTransaction(uint256)": "5d9ec210",
					"transferTo(address,uint256)": "2ccb1b30",
					"withDraw(uint256)": "14174f33"
				}
			},
			"storageLayout": {
				"storage": [
					{
						"astId": 3,
						"contract": "contracts/Multi_Sign_Wallet.sol:MultiSignWallet",
						"label": "_owner",
						"offset": 0,
						"slot": "0",
						"type": "t_address"
					},
					{
						"astId": 7,
						"contract": "contracts/Multi_Sign_Wallet.sol:MultiSignWallet",
						"label": "_owners",
						"offset": 0,
						"slot": "1",
						"type": "t_mapping(t_address,t_uint8)"
					},
					{
						"astId": 25,
						"contract": "contracts/Multi_Sign_Wallet.sol:MultiSignWallet",
						"label": "_transactions",
						"offset": 0,
						"slot": "2",
						"type": "t_array(t_struct(Transaction)21_storage)dyn_storage"
					},
					{
						"astId": 29,
						"contract": "contracts/Multi_Sign_Wallet.sol:MultiSignWallet",
						"label": "signed",
						"offset": 0,
						"slot": "3",
						"type": "t_mapping(t_address,t_uint8)"
					},
					{
						"astId": 32,
						"contract": "contracts/Multi_Sign_Wallet.sol:MultiSignWallet",
						"label": "_pendingTransactions",
						"offset": 0,
						"slot": "4",
						"type": "t_array(t_uint256)dyn_storage"
					}
				],
				"types": {
					"t_address": {
						"encoding": "inplace",
						"label": "address",
						"numberOfBytes": "20"
					},
					"t_address_payable": {
						"encoding": "inplace",
						"label": "address payable",
						"numberOfBytes": "20"
					},
					"t_array(t_struct(Transaction)21_storage)dyn_storage": {
						"base": "t_struct(Transaction)21_storage",
						"encoding": "dynamic_array",
						"label": "struct MultiSignWallet.Transaction[]",
						"numberOfBytes": "32"
					},
					"t_array(t_uint256)dyn_storage": {
						"base": "t_uint256",
						"encoding": "dynamic_array",
						"label": "uint256[]",
						"numberOfBytes": "32"
					},
					"t_bool": {
						"encoding": "inplace",
						"label": "bool",
						"numberOfBytes": "1"
					},
					"t_mapping(t_address,t_uint8)": {
						"encoding": "mapping",
						"key": "t_address",
						"label": "mapping(address => uint8)",
						"numberOfBytes": "32",
						"value": "t_uint8"
					},
					"t_struct(Transaction)21_storage": {
						"encoding": "inplace",
						"label": "struct MultiSignWallet.Transaction",
						"members": [
							{
								"astId": 12,
								"contract": "contracts/Multi_Sign_Wallet.sol:MultiSignWallet",
								"label": "sender",
								"offset": 0,
								"slot": "0",
								"type": "t_address_payable"
							},
							{
								"astId": 14,
								"contract": "contracts/Multi_Sign_Wallet.sol:MultiSignWallet",
								"label": "reciever",
								"offset": 0,
								"slot": "1",
								"type": "t_address_payable"
							},
							{
								"astId": 16,
								"contract": "contracts/Multi_Sign_Wallet.sol:MultiSignWallet",
								"label": "amount",
								"offset": 0,
								"slot": "2",
								"type": "t_uint256"
							},
							{
								"astId": 18,
								"contract": "contracts/Multi_Sign_Wallet.sol:MultiSignWallet",
								"label": "isSigned",
								"offset": 0,
								"slot": "3",
								"type": "t_bool"
							},
							{
								"astId": 20,
								"contract": "contracts/Multi_Sign_Wallet.sol:MultiSignWallet",
								"label": "signatureCount",
								"offset": 1,
								"slot": "3",
								"type": "t_uint8"
							}
						],
						"numberOfBytes": "128"
					},
					"t_uint256": {
						"encoding": "inplace",
						"label": "uint256",
						"numberOfBytes": "32"
					},
					"t_uint8": {
						"encoding": "inplace",
						"label": "uint8",
						"numberOfBytes": "1"
					}
				}
			},
			"userdoc": {
				"kind": "user",
				"methods": {},
				"version": 1
			}
		}
	}
}