{
	"contracts/Auction.sol": {
		"Auction": {
			"abi": [
				{
					"inputs": [
						{
							"internalType": "uint256",
							"name": "_postId",
							"type": "uint256"
						}
					],
					"name": "createBid",
					"outputs": [],
					"stateMutability": "payable",
					"type": "function"
				},
				{
					"inputs": [
						{
							"internalType": "string",
							"name": "_name",
							"type": "string"
						},
						{
							"internalType": "uint256",
							"name": "_minBid",
							"type": "uint256"
						}
					],
					"name": "createPost",
					"outputs": [],
					"stateMutability": "nonpayable",
					"type": "function"
				}
			],
			"devdoc": {
				"kind": "dev",
				"methods": {},
				"version": 1
			},
			"evm": {
				"assembly": "    /* \"contracts/Auction.sol\":27:1155  contract Auction{\r... */\n  mstore(0x40, 0x80)\n  callvalue\n  dup1\n  iszero\n  tag_1\n  jumpi\n  0x00\n  dup1\n  revert\ntag_1:\n  pop\n  dataSize(sub_0)\n  dup1\n  dataOffset(sub_0)\n  0x00\n  codecopy\n  0x00\n  return\nstop\n\nsub_0: assembly {\n        /* \"contracts/Auction.sol\":27:1155  contract Auction{\r... */\n      mstore(0x40, 0x80)\n      jumpi(tag_1, lt(calldatasize, 0x04))\n      shr(0xe0, calldataload(0x00))\n      dup1\n      0x1252cb48\n      eq\n      tag_2\n      jumpi\n      dup1\n      0x659dd2b4\n      eq\n      tag_3\n      jumpi\n    tag_1:\n      0x00\n      dup1\n      revert\n        /* \"contracts/Auction.sol\":629:805  function createPost (string memory _name,uint _minBid) public {\r... */\n    tag_2:\n      callvalue\n      dup1\n      iszero\n      tag_4\n      jumpi\n      0x00\n      dup1\n      revert\n    tag_4:\n      pop\n      tag_5\n      0x04\n      dup1\n      calldatasize\n      sub\n      dup2\n      add\n      swap1\n      tag_6\n      swap2\n      swap1\n      tag_7\n      jump\t// in\n    tag_6:\n      tag_8\n      jump\t// in\n    tag_5:\n      stop\n        /* \"contracts/Auction.sol\":846:1152  function createBid (uint _postId) public payable {\r... */\n    tag_3:\n      tag_9\n      0x04\n      dup1\n      calldatasize\n      sub\n      dup2\n      add\n      swap1\n      tag_10\n      swap2\n      swap1\n      tag_11\n      jump\t// in\n    tag_10:\n      tag_12\n      jump\t// in\n    tag_9:\n      stop\n        /* \"contracts/Auction.sol\":629:805  function createPost (string memory _name,uint _minBid) public {\r... */\n    tag_8:\n        /* \"contracts/Auction.sol\":702:707  posts */\n      0x00\n        /* \"contracts/Auction.sol\":713:796  Post({seller: payable(msg.sender),minBid: _minBid,name:_name,time:block.timestamp}) */\n      mload(0x40)\n      dup1\n      0x80\n      add\n      0x40\n      mstore\n      dup1\n        /* \"contracts/Auction.sol\":735:745  msg.sender */\n      caller\n        /* \"contracts/Auction.sol\":713:796  Post({seller: payable(msg.sender),minBid: _minBid,name:_name,time:block.timestamp}) */\n      0xffffffffffffffffffffffffffffffffffffffff\n      and\n      dup2\n      mstore\n      0x20\n      add\n        /* \"contracts/Auction.sol\":755:762  _minBid */\n      dup4\n        /* \"contracts/Auction.sol\":713:796  Post({seller: payable(msg.sender),minBid: _minBid,name:_name,time:block.timestamp}) */\n      dup2\n      mstore\n      0x20\n      add\n        /* \"contracts/Auction.sol\":768:773  _name */\n      dup5\n        /* \"contracts/Auction.sol\":713:796  Post({seller: payable(msg.sender),minBid: _minBid,name:_name,time:block.timestamp}) */\n      dup2\n      mstore\n      0x20\n      add\n        /* \"contracts/Auction.sol\":779:794  block.timestamp */\n      timestamp\n        /* \"contracts/Auction.sol\":713:796  Post({seller: payable(msg.sender),minBid: _minBid,name:_name,time:block.timestamp}) */\n      dup2\n      mstore\n      pop\n        /* \"contracts/Auction.sol\":702:797  posts.push(Post({seller: payable(msg.sender),minBid: _minBid,name:_name,time:block.timestamp})) */\n      swap1\n      dup1\n      0x01\n      dup2\n      sload\n      add\n      dup1\n      dup3\n      sstore\n      dup1\n      swap2\n      pop\n      pop\n      0x01\n      swap1\n      sub\n      swap1\n      0x00\n      mstore\n      keccak256(0x00, 0x20)\n      swap1\n      0x04\n      mul\n      add\n      0x00\n      swap1\n      swap2\n      swap1\n      swap2\n      swap1\n      swap2\n      pop\n      0x00\n      dup3\n      add\n      mload\n      dup2\n      0x00\n      add\n      exp(0x0100, 0x00)\n      dup2\n      sload\n      dup2\n      0xffffffffffffffffffffffffffffffffffffffff\n      mul\n      not\n      and\n      swap1\n      dup4\n      0xffffffffffffffffffffffffffffffffffffffff\n      and\n      mul\n      or\n      swap1\n      sstore\n      pop\n      0x20\n      dup3\n      add\n      mload\n      dup2\n      0x01\n      add\n      sstore\n      0x40\n      dup3\n      add\n      mload\n      dup2\n      0x02\n      add\n      swap1\n      dup1\n      mload\n      swap1\n      0x20\n      add\n      swap1\n      tag_15\n      swap3\n      swap2\n      swap1\n      tag_16\n      jump\t// in\n    tag_15:\n      pop\n      0x60\n      dup3\n      add\n      mload\n      dup2\n      0x03\n      add\n      sstore\n      pop\n      pop\n        /* \"contracts/Auction.sol\":629:805  function createPost (string memory _name,uint _minBid) public {\r... */\n      pop\n      pop\n      jump\t// out\n        /* \"contracts/Auction.sol\":846:1152  function createBid (uint _postId) public payable {\r... */\n    tag_12:\n        /* \"contracts/Auction.sol\":906:922  Post memory post */\n      0x00\n        /* \"contracts/Auction.sol\":925:930  posts */\n      dup1\n        /* \"contracts/Auction.sol\":931:938  _postId */\n      dup3\n        /* \"contracts/Auction.sol\":925:939  posts[_postId] */\n      dup2\n      sload\n      dup2\n      lt\n      tag_18\n      jumpi\n      tag_19\n      tag_20\n      jump\t// in\n    tag_19:\n    tag_18:\n      swap1\n      0x00\n      mstore\n      keccak256(0x00, 0x20)\n      swap1\n      0x04\n      mul\n      add\n        /* \"contracts/Auction.sol\":906:939  Post memory post = posts[_postId] */\n      mload(0x40)\n      dup1\n      0x80\n      add\n      0x40\n      mstore\n      swap1\n      dup2\n      0x00\n      dup3\n      add\n      0x00\n      swap1\n      sload\n      swap1\n      0x0100\n      exp\n      swap1\n      div\n      0xffffffffffffffffffffffffffffffffffffffff\n      and\n      0xffffffffffffffffffffffffffffffffffffffff\n      and\n      0xffffffffffffffffffffffffffffffffffffffff\n      and\n      dup2\n      mstore\n      0x20\n      add\n      0x01\n      dup3\n      add\n      sload\n      dup2\n      mstore\n      0x20\n      add\n      0x02\n      dup3\n      add\n      dup1\n      sload\n      tag_22\n      swap1\n      tag_23\n      jump\t// in\n    tag_22:\n      dup1\n      0x1f\n      add\n      0x20\n      dup1\n      swap2\n      div\n      mul\n      0x20\n      add\n      mload(0x40)\n      swap1\n      dup2\n      add\n      0x40\n      mstore\n      dup1\n      swap3\n      swap2\n      swap1\n      dup2\n      dup2\n      mstore\n      0x20\n      add\n      dup3\n      dup1\n      sload\n      tag_24\n      swap1\n      tag_23\n      jump\t// in\n    tag_24:\n      dup1\n      iszero\n      tag_25\n      jumpi\n      dup1\n      0x1f\n      lt\n      tag_26\n      jumpi\n      0x0100\n      dup1\n      dup4\n      sload\n      div\n      mul\n      dup4\n      mstore\n      swap2\n      0x20\n      add\n      swap2\n      jump(tag_25)\n    tag_26:\n      dup3\n      add\n      swap2\n      swap1\n      0x00\n      mstore\n      keccak256(0x00, 0x20)\n      swap1\n    tag_27:\n      dup2\n      sload\n      dup2\n      mstore\n      swap1\n      0x01\n      add\n      swap1\n      0x20\n      add\n      dup1\n      dup4\n      gt\n      tag_27\n      jumpi\n      dup3\n      swap1\n      sub\n      0x1f\n      and\n      dup3\n      add\n      swap2\n    tag_25:\n      pop\n      pop\n      pop\n      pop\n      pop\n      dup2\n      mstore\n      0x20\n      add\n      0x03\n      dup3\n      add\n      sload\n      dup2\n      mstore\n      pop\n      pop\n      swap1\n      pop\n        /* \"contracts/Auction.sol\":1026:1030  post */\n      dup1\n        /* \"contracts/Auction.sol\":1026:1037  post.seller */\n      0x00\n      add\n      mload\n        /* \"contracts/Auction.sol\":1013:1037  msg.sender!= post.seller */\n      0xffffffffffffffffffffffffffffffffffffffff\n      and\n        /* \"contracts/Auction.sol\":1013:1023  msg.sender */\n      caller\n        /* \"contracts/Auction.sol\":1013:1037  msg.sender!= post.seller */\n      0xffffffffffffffffffffffffffffffffffffffff\n      and\n      eq\n      iszero\n        /* \"contracts/Auction.sol\":1004:1071  require (msg.sender!= post.seller,\"You can't bid on your own post\") */\n      tag_28\n      jumpi\n      mload(0x40)\n      0x08c379a000000000000000000000000000000000000000000000000000000000\n      dup2\n      mstore\n      0x04\n      add\n      tag_29\n      swap1\n      tag_30\n      jump\t// in\n    tag_29:\n      mload(0x40)\n      dup1\n      swap2\n      sub\n      swap1\n      revert\n    tag_28:\n        /* \"contracts/Auction.sol\":1117:1118  0 */\n      0x00\n        /* \"contracts/Auction.sol\":1104:1113  msg.value */\n      callvalue\n        /* \"contracts/Auction.sol\":1104:1118  msg.value != 0 */\n      eq\n      iszero\n        /* \"contracts/Auction.sol\":1095:1144  require (msg.value != 0, \"Invalid amount of Bid\") */\n      tag_31\n      jumpi\n      mload(0x40)\n      0x08c379a000000000000000000000000000000000000000000000000000000000\n      dup2\n      mstore\n      0x04\n      add\n      tag_32\n      swap1\n      tag_33\n      jump\t// in\n    tag_32:\n      mload(0x40)\n      dup1\n      swap2\n      sub\n      swap1\n      revert\n    tag_31:\n        /* \"contracts/Auction.sol\":895:1152  {\r... */\n      pop\n        /* \"contracts/Auction.sol\":846:1152  function createBid (uint _postId) public payable {\r... */\n      pop\n      jump\t// out\n    tag_16:\n      dup3\n      dup1\n      sload\n      tag_34\n      swap1\n      tag_23\n      jump\t// in\n    tag_34:\n      swap1\n      0x00\n      mstore\n      keccak256(0x00, 0x20)\n      swap1\n      0x1f\n      add\n      0x20\n      swap1\n      div\n      dup2\n      add\n      swap3\n      dup3\n      tag_36\n      jumpi\n      0x00\n      dup6\n      sstore\n      jump(tag_35)\n    tag_36:\n      dup3\n      0x1f\n      lt\n      tag_37\n      jumpi\n      dup1\n      mload\n      not(0xff)\n      and\n      dup4\n      dup1\n      add\n      or\n      dup6\n      sstore\n      jump(tag_35)\n    tag_37:\n      dup3\n      dup1\n      add\n      0x01\n      add\n      dup6\n      sstore\n      dup3\n      iszero\n      tag_35\n      jumpi\n      swap2\n      dup3\n      add\n    tag_38:\n      dup3\n      dup2\n      gt\n      iszero\n      tag_39\n      jumpi\n      dup3\n      mload\n      dup3\n      sstore\n      swap2\n      0x20\n      add\n      swap2\n      swap1\n      0x01\n      add\n      swap1\n      jump(tag_38)\n    tag_39:\n    tag_35:\n      pop\n      swap1\n      pop\n      tag_40\n      swap2\n      swap1\n      tag_41\n      jump\t// in\n    tag_40:\n      pop\n      swap1\n      jump\t// out\n    tag_41:\n    tag_42:\n      dup1\n      dup3\n      gt\n      iszero\n      tag_43\n      jumpi\n      0x00\n      dup2\n      0x00\n      swap1\n      sstore\n      pop\n      0x01\n      add\n      jump(tag_42)\n    tag_43:\n      pop\n      swap1\n      jump\t// out\n        /* \"#utility.yul\":7:419   */\n    tag_45:\n        /* \"#utility.yul\":85:90   */\n      0x00\n        /* \"#utility.yul\":110:176   */\n      tag_47\n        /* \"#utility.yul\":126:175   */\n      tag_48\n        /* \"#utility.yul\":168:174   */\n      dup5\n        /* \"#utility.yul\":126:175   */\n      tag_49\n      jump\t// in\n    tag_48:\n        /* \"#utility.yul\":110:176   */\n      tag_50\n      jump\t// in\n    tag_47:\n        /* \"#utility.yul\":101:176   */\n      swap1\n      pop\n        /* \"#utility.yul\":199:205   */\n      dup3\n        /* \"#utility.yul\":192:197   */\n      dup2\n        /* \"#utility.yul\":185:206   */\n      mstore\n        /* \"#utility.yul\":237:241   */\n      0x20\n        /* \"#utility.yul\":230:235   */\n      dup2\n        /* \"#utility.yul\":226:242   */\n      add\n        /* \"#utility.yul\":275:278   */\n      dup5\n        /* \"#utility.yul\":266:272   */\n      dup5\n        /* \"#utility.yul\":261:264   */\n      dup5\n        /* \"#utility.yul\":257:273   */\n      add\n        /* \"#utility.yul\":254:279   */\n      gt\n        /* \"#utility.yul\":251:363   */\n      iszero\n      tag_51\n      jumpi\n        /* \"#utility.yul\":282:361   */\n      tag_52\n      tag_53\n      jump\t// in\n    tag_52:\n        /* \"#utility.yul\":251:363   */\n    tag_51:\n        /* \"#utility.yul\":372:413   */\n      tag_54\n        /* \"#utility.yul\":406:412   */\n      dup5\n        /* \"#utility.yul\":401:404   */\n      dup3\n        /* \"#utility.yul\":396:399   */\n      dup6\n        /* \"#utility.yul\":372:413   */\n      tag_55\n      jump\t// in\n    tag_54:\n        /* \"#utility.yul\":91:419   */\n      pop\n        /* \"#utility.yul\":7:419   */\n      swap4\n      swap3\n      pop\n      pop\n      pop\n      jump\t// out\n        /* \"#utility.yul\":439:779   */\n    tag_56:\n        /* \"#utility.yul\":495:500   */\n      0x00\n        /* \"#utility.yul\":544:547   */\n      dup3\n        /* \"#utility.yul\":537:541   */\n      0x1f\n        /* \"#utility.yul\":529:535   */\n      dup4\n        /* \"#utility.yul\":525:542   */\n      add\n        /* \"#utility.yul\":521:548   */\n      slt\n        /* \"#utility.yul\":511:633   */\n      tag_58\n      jumpi\n        /* \"#utility.yul\":552:631   */\n      tag_59\n      tag_60\n      jump\t// in\n    tag_59:\n        /* \"#utility.yul\":511:633   */\n    tag_58:\n        /* \"#utility.yul\":669:675   */\n      dup2\n        /* \"#utility.yul\":656:676   */\n      calldataload\n        /* \"#utility.yul\":694:773   */\n      tag_61\n        /* \"#utility.yul\":769:772   */\n      dup5\n        /* \"#utility.yul\":761:767   */\n      dup3\n        /* \"#utility.yul\":754:758   */\n      0x20\n        /* \"#utility.yul\":746:752   */\n      dup7\n        /* \"#utility.yul\":742:759   */\n      add\n        /* \"#utility.yul\":694:773   */\n      tag_45\n      jump\t// in\n    tag_61:\n        /* \"#utility.yul\":685:773   */\n      swap2\n      pop\n        /* \"#utility.yul\":501:779   */\n      pop\n        /* \"#utility.yul\":439:779   */\n      swap3\n      swap2\n      pop\n      pop\n      jump\t// out\n        /* \"#utility.yul\":785:924   */\n    tag_62:\n        /* \"#utility.yul\":831:836   */\n      0x00\n        /* \"#utility.yul\":869:875   */\n      dup2\n        /* \"#utility.yul\":856:876   */\n      calldataload\n        /* \"#utility.yul\":847:876   */\n      swap1\n      pop\n        /* \"#utility.yul\":885:918   */\n      tag_64\n        /* \"#utility.yul\":912:917   */\n      dup2\n        /* \"#utility.yul\":885:918   */\n      tag_65\n      jump\t// in\n    tag_64:\n        /* \"#utility.yul\":785:924   */\n      swap3\n      swap2\n      pop\n      pop\n      jump\t// out\n        /* \"#utility.yul\":930:1584   */\n    tag_7:\n        /* \"#utility.yul\":1008:1014   */\n      0x00\n        /* \"#utility.yul\":1016:1022   */\n      dup1\n        /* \"#utility.yul\":1065:1067   */\n      0x40\n        /* \"#utility.yul\":1053:1062   */\n      dup4\n        /* \"#utility.yul\":1044:1051   */\n      dup6\n        /* \"#utility.yul\":1040:1063   */\n      sub\n        /* \"#utility.yul\":1036:1068   */\n      slt\n        /* \"#utility.yul\":1033:1152   */\n      iszero\n      tag_67\n      jumpi\n        /* \"#utility.yul\":1071:1150   */\n      tag_68\n      tag_69\n      jump\t// in\n    tag_68:\n        /* \"#utility.yul\":1033:1152   */\n    tag_67:\n        /* \"#utility.yul\":1219:1220   */\n      0x00\n        /* \"#utility.yul\":1208:1217   */\n      dup4\n        /* \"#utility.yul\":1204:1221   */\n      add\n        /* \"#utility.yul\":1191:1222   */\n      calldataload\n        /* \"#utility.yul\":1249:1267   */\n      0xffffffffffffffff\n        /* \"#utility.yul\":1241:1247   */\n      dup2\n        /* \"#utility.yul\":1238:1268   */\n      gt\n        /* \"#utility.yul\":1235:1352   */\n      iszero\n      tag_70\n      jumpi\n        /* \"#utility.yul\":1271:1350   */\n      tag_71\n      tag_72\n      jump\t// in\n    tag_71:\n        /* \"#utility.yul\":1235:1352   */\n    tag_70:\n        /* \"#utility.yul\":1376:1439   */\n      tag_73\n        /* \"#utility.yul\":1431:1438   */\n      dup6\n        /* \"#utility.yul\":1422:1428   */\n      dup3\n        /* \"#utility.yul\":1411:1420   */\n      dup7\n        /* \"#utility.yul\":1407:1429   */\n      add\n        /* \"#utility.yul\":1376:1439   */\n      tag_56\n      jump\t// in\n    tag_73:\n        /* \"#utility.yul\":1366:1439   */\n      swap3\n      pop\n        /* \"#utility.yul\":1162:1449   */\n      pop\n        /* \"#utility.yul\":1488:1490   */\n      0x20\n        /* \"#utility.yul\":1514:1567   */\n      tag_74\n        /* \"#utility.yul\":1559:1566   */\n      dup6\n        /* \"#utility.yul\":1550:1556   */\n      dup3\n        /* \"#utility.yul\":1539:1548   */\n      dup7\n        /* \"#utility.yul\":1535:1557   */\n      add\n        /* \"#utility.yul\":1514:1567   */\n      tag_62\n      jump\t// in\n    tag_74:\n        /* \"#utility.yul\":1504:1567   */\n      swap2\n      pop\n        /* \"#utility.yul\":1459:1577   */\n      pop\n        /* \"#utility.yul\":930:1584   */\n      swap3\n      pop\n      swap3\n      swap1\n      pop\n      jump\t// out\n        /* \"#utility.yul\":1590:1919   */\n    tag_11:\n        /* \"#utility.yul\":1649:1655   */\n      0x00\n        /* \"#utility.yul\":1698:1700   */\n      0x20\n        /* \"#utility.yul\":1686:1695   */\n      dup3\n        /* \"#utility.yul\":1677:1684   */\n      dup5\n        /* \"#utility.yul\":1673:1696   */\n      sub\n        /* \"#utility.yul\":1669:1701   */\n      slt\n        /* \"#utility.yul\":1666:1785   */\n      iszero\n      tag_76\n      jumpi\n        /* \"#utility.yul\":1704:1783   */\n      tag_77\n      tag_69\n      jump\t// in\n    tag_77:\n        /* \"#utility.yul\":1666:1785   */\n    tag_76:\n        /* \"#utility.yul\":1824:1825   */\n      0x00\n        /* \"#utility.yul\":1849:1902   */\n      tag_78\n        /* \"#utility.yul\":1894:1901   */\n      dup5\n        /* \"#utility.yul\":1885:1891   */\n      dup3\n        /* \"#utility.yul\":1874:1883   */\n      dup6\n        /* \"#utility.yul\":1870:1892   */\n      add\n        /* \"#utility.yul\":1849:1902   */\n      tag_62\n      jump\t// in\n    tag_78:\n        /* \"#utility.yul\":1839:1902   */\n      swap2\n      pop\n        /* \"#utility.yul\":1795:1912   */\n      pop\n        /* \"#utility.yul\":1590:1919   */\n      swap3\n      swap2\n      pop\n      pop\n      jump\t// out\n        /* \"#utility.yul\":1925:2291   */\n    tag_79:\n        /* \"#utility.yul\":2067:2070   */\n      0x00\n        /* \"#utility.yul\":2088:2155   */\n      tag_81\n        /* \"#utility.yul\":2152:2154   */\n      0x1e\n        /* \"#utility.yul\":2147:2150   */\n      dup4\n        /* \"#utility.yul\":2088:2155   */\n      tag_82\n      jump\t// in\n    tag_81:\n        /* \"#utility.yul\":2081:2155   */\n      swap2\n      pop\n        /* \"#utility.yul\":2164:2257   */\n      tag_83\n        /* \"#utility.yul\":2253:2256   */\n      dup3\n        /* \"#utility.yul\":2164:2257   */\n      tag_84\n      jump\t// in\n    tag_83:\n        /* \"#utility.yul\":2282:2284   */\n      0x20\n        /* \"#utility.yul\":2277:2280   */\n      dup3\n        /* \"#utility.yul\":2273:2285   */\n      add\n        /* \"#utility.yul\":2266:2285   */\n      swap1\n      pop\n        /* \"#utility.yul\":1925:2291   */\n      swap2\n      swap1\n      pop\n      jump\t// out\n        /* \"#utility.yul\":2297:2663   */\n    tag_85:\n        /* \"#utility.yul\":2439:2442   */\n      0x00\n        /* \"#utility.yul\":2460:2527   */\n      tag_87\n        /* \"#utility.yul\":2524:2526   */\n      0x15\n        /* \"#utility.yul\":2519:2522   */\n      dup4\n        /* \"#utility.yul\":2460:2527   */\n      tag_82\n      jump\t// in\n    tag_87:\n        /* \"#utility.yul\":2453:2527   */\n      swap2\n      pop\n        /* \"#utility.yul\":2536:2629   */\n      tag_88\n        /* \"#utility.yul\":2625:2628   */\n      dup3\n        /* \"#utility.yul\":2536:2629   */\n      tag_89\n      jump\t// in\n    tag_88:\n        /* \"#utility.yul\":2654:2656   */\n      0x20\n        /* \"#utility.yul\":2649:2652   */\n      dup3\n        /* \"#utility.yul\":2645:2657   */\n      add\n        /* \"#utility.yul\":2638:2657   */\n      swap1\n      pop\n        /* \"#utility.yul\":2297:2663   */\n      swap2\n      swap1\n      pop\n      jump\t// out\n        /* \"#utility.yul\":2669:3088   */\n    tag_30:\n        /* \"#utility.yul\":2835:2839   */\n      0x00\n        /* \"#utility.yul\":2873:2875   */\n      0x20\n        /* \"#utility.yul\":2862:2871   */\n      dup3\n        /* \"#utility.yul\":2858:2876   */\n      add\n        /* \"#utility.yul\":2850:2876   */\n      swap1\n      pop\n        /* \"#utility.yul\":2922:2931   */\n      dup2\n        /* \"#utility.yul\":2916:2920   */\n      dup2\n        /* \"#utility.yul\":2912:2932   */\n      sub\n        /* \"#utility.yul\":2908:2909   */\n      0x00\n        /* \"#utility.yul\":2897:2906   */\n      dup4\n        /* \"#utility.yul\":2893:2910   */\n      add\n        /* \"#utility.yul\":2886:2933   */\n      mstore\n        /* \"#utility.yul\":2950:3081   */\n      tag_91\n        /* \"#utility.yul\":3076:3080   */\n      dup2\n        /* \"#utility.yul\":2950:3081   */\n      tag_79\n      jump\t// in\n    tag_91:\n        /* \"#utility.yul\":2942:3081   */\n      swap1\n      pop\n        /* \"#utility.yul\":2669:3088   */\n      swap2\n      swap1\n      pop\n      jump\t// out\n        /* \"#utility.yul\":3094:3513   */\n    tag_33:\n        /* \"#utility.yul\":3260:3264   */\n      0x00\n        /* \"#utility.yul\":3298:3300   */\n      0x20\n        /* \"#utility.yul\":3287:3296   */\n      dup3\n        /* \"#utility.yul\":3283:3301   */\n      add\n        /* \"#utility.yul\":3275:3301   */\n      swap1\n      pop\n        /* \"#utility.yul\":3347:3356   */\n      dup2\n        /* \"#utility.yul\":3341:3345   */\n      dup2\n        /* \"#utility.yul\":3337:3357   */\n      sub\n        /* \"#utility.yul\":3333:3334   */\n      0x00\n        /* \"#utility.yul\":3322:3331   */\n      dup4\n        /* \"#utility.yul\":3318:3335   */\n      add\n        /* \"#utility.yul\":3311:3358   */\n      mstore\n        /* \"#utility.yul\":3375:3506   */\n      tag_93\n        /* \"#utility.yul\":3501:3505   */\n      dup2\n        /* \"#utility.yul\":3375:3506   */\n      tag_85\n      jump\t// in\n    tag_93:\n        /* \"#utility.yul\":3367:3506   */\n      swap1\n      pop\n        /* \"#utility.yul\":3094:3513   */\n      swap2\n      swap1\n      pop\n      jump\t// out\n        /* \"#utility.yul\":3519:3648   */\n    tag_50:\n        /* \"#utility.yul\":3553:3559   */\n      0x00\n        /* \"#utility.yul\":3580:3600   */\n      tag_95\n      tag_96\n      jump\t// in\n    tag_95:\n        /* \"#utility.yul\":3570:3600   */\n      swap1\n      pop\n        /* \"#utility.yul\":3609:3642   */\n      tag_97\n        /* \"#utility.yul\":3637:3641   */\n      dup3\n        /* \"#utility.yul\":3629:3635   */\n      dup3\n        /* \"#utility.yul\":3609:3642   */\n      tag_98\n      jump\t// in\n    tag_97:\n        /* \"#utility.yul\":3519:3648   */\n      swap2\n      swap1\n      pop\n      jump\t// out\n        /* \"#utility.yul\":3654:3729   */\n    tag_96:\n        /* \"#utility.yul\":3687:3693   */\n      0x00\n        /* \"#utility.yul\":3720:3722   */\n      0x40\n        /* \"#utility.yul\":3714:3723   */\n      mload\n        /* \"#utility.yul\":3704:3723   */\n      swap1\n      pop\n        /* \"#utility.yul\":3654:3729   */\n      swap1\n      jump\t// out\n        /* \"#utility.yul\":3735:4043   */\n    tag_49:\n        /* \"#utility.yul\":3797:3801   */\n      0x00\n        /* \"#utility.yul\":3887:3905   */\n      0xffffffffffffffff\n        /* \"#utility.yul\":3879:3885   */\n      dup3\n        /* \"#utility.yul\":3876:3906   */\n      gt\n        /* \"#utility.yul\":3873:3929   */\n      iszero\n      tag_101\n      jumpi\n        /* \"#utility.yul\":3909:3927   */\n      tag_102\n      tag_103\n      jump\t// in\n    tag_102:\n        /* \"#utility.yul\":3873:3929   */\n    tag_101:\n        /* \"#utility.yul\":3947:3976   */\n      tag_104\n        /* \"#utility.yul\":3969:3975   */\n      dup3\n        /* \"#utility.yul\":3947:3976   */\n      tag_105\n      jump\t// in\n    tag_104:\n        /* \"#utility.yul\":3939:3976   */\n      swap1\n      pop\n        /* \"#utility.yul\":4031:4035   */\n      0x20\n        /* \"#utility.yul\":4025:4029   */\n      dup2\n        /* \"#utility.yul\":4021:4036   */\n      add\n        /* \"#utility.yul\":4013:4036   */\n      swap1\n      pop\n        /* \"#utility.yul\":3735:4043   */\n      swap2\n      swap1\n      pop\n      jump\t// out\n        /* \"#utility.yul\":4049:4218   */\n    tag_82:\n        /* \"#utility.yul\":4133:4144   */\n      0x00\n        /* \"#utility.yul\":4167:4173   */\n      dup3\n        /* \"#utility.yul\":4162:4165   */\n      dup3\n        /* \"#utility.yul\":4155:4174   */\n      mstore\n        /* \"#utility.yul\":4207:4211   */\n      0x20\n        /* \"#utility.yul\":4202:4205   */\n      dup3\n        /* \"#utility.yul\":4198:4212   */\n      add\n        /* \"#utility.yul\":4183:4212   */\n      swap1\n      pop\n        /* \"#utility.yul\":4049:4218   */\n      swap3\n      swap2\n      pop\n      pop\n      jump\t// out\n        /* \"#utility.yul\":4224:4301   */\n    tag_107:\n        /* \"#utility.yul\":4261:4268   */\n      0x00\n        /* \"#utility.yul\":4290:4295   */\n      dup2\n        /* \"#utility.yul\":4279:4295   */\n      swap1\n      pop\n        /* \"#utility.yul\":4224:4301   */\n      swap2\n      swap1\n      pop\n      jump\t// out\n        /* \"#utility.yul\":4307:4461   */\n    tag_55:\n        /* \"#utility.yul\":4391:4397   */\n      dup3\n        /* \"#utility.yul\":4386:4389   */\n      dup2\n        /* \"#utility.yul\":4381:4384   */\n      dup4\n        /* \"#utility.yul\":4368:4398   */\n      calldatacopy\n        /* \"#utility.yul\":4453:4454   */\n      0x00\n        /* \"#utility.yul\":4444:4450   */\n      dup4\n        /* \"#utility.yul\":4439:4442   */\n      dup4\n        /* \"#utility.yul\":4435:4451   */\n      add\n        /* \"#utility.yul\":4428:4455   */\n      mstore\n        /* \"#utility.yul\":4307:4461   */\n      pop\n      pop\n      pop\n      jump\t// out\n        /* \"#utility.yul\":4467:4787   */\n    tag_23:\n        /* \"#utility.yul\":4511:4517   */\n      0x00\n        /* \"#utility.yul\":4548:4549   */\n      0x02\n        /* \"#utility.yul\":4542:4546   */\n      dup3\n        /* \"#utility.yul\":4538:4550   */\n      div\n        /* \"#utility.yul\":4528:4550   */\n      swap1\n      pop\n        /* \"#utility.yul\":4595:4596   */\n      0x01\n        /* \"#utility.yul\":4589:4593   */\n      dup3\n        /* \"#utility.yul\":4585:4597   */\n      and\n        /* \"#utility.yul\":4616:4634   */\n      dup1\n        /* \"#utility.yul\":4606:4687   */\n      tag_111\n      jumpi\n        /* \"#utility.yul\":4672:4676   */\n      0x7f\n        /* \"#utility.yul\":4664:4670   */\n      dup3\n        /* \"#utility.yul\":4660:4677   */\n      and\n        /* \"#utility.yul\":4650:4677   */\n      swap2\n      pop\n        /* \"#utility.yul\":4606:4687   */\n    tag_111:\n        /* \"#utility.yul\":4734:4736   */\n      0x20\n        /* \"#utility.yul\":4726:4732   */\n      dup3\n        /* \"#utility.yul\":4723:4737   */\n      lt\n        /* \"#utility.yul\":4703:4721   */\n      dup2\n        /* \"#utility.yul\":4700:4738   */\n      eq\n        /* \"#utility.yul\":4697:4781   */\n      iszero\n      tag_112\n      jumpi\n        /* \"#utility.yul\":4753:4771   */\n      tag_113\n      tag_114\n      jump\t// in\n    tag_113:\n        /* \"#utility.yul\":4697:4781   */\n    tag_112:\n        /* \"#utility.yul\":4518:4787   */\n      pop\n        /* \"#utility.yul\":4467:4787   */\n      swap2\n      swap1\n      pop\n      jump\t// out\n        /* \"#utility.yul\":4793:5074   */\n    tag_98:\n        /* \"#utility.yul\":4876:4903   */\n      tag_116\n        /* \"#utility.yul\":4898:4902   */\n      dup3\n        /* \"#utility.yul\":4876:4903   */\n      tag_105\n      jump\t// in\n    tag_116:\n        /* \"#utility.yul\":4868:4874   */\n      dup2\n        /* \"#utility.yul\":4864:4904   */\n      add\n        /* \"#utility.yul\":5006:5012   */\n      dup2\n        /* \"#utility.yul\":4994:5004   */\n      dup2\n        /* \"#utility.yul\":4991:5013   */\n      lt\n        /* \"#utility.yul\":4970:4988   */\n      0xffffffffffffffff\n        /* \"#utility.yul\":4958:4968   */\n      dup3\n        /* \"#utility.yul\":4955:4989   */\n      gt\n        /* \"#utility.yul\":4952:5014   */\n      or\n        /* \"#utility.yul\":4949:5037   */\n      iszero\n      tag_117\n      jumpi\n        /* \"#utility.yul\":5017:5035   */\n      tag_118\n      tag_103\n      jump\t// in\n    tag_118:\n        /* \"#utility.yul\":4949:5037   */\n    tag_117:\n        /* \"#utility.yul\":5057:5067   */\n      dup1\n        /* \"#utility.yul\":5053:5055   */\n      0x40\n        /* \"#utility.yul\":5046:5068   */\n      mstore\n        /* \"#utility.yul\":4836:5074   */\n      pop\n        /* \"#utility.yul\":4793:5074   */\n      pop\n      pop\n      jump\t// out\n        /* \"#utility.yul\":5080:5260   */\n    tag_114:\n        /* \"#utility.yul\":5128:5205   */\n      0x4e487b7100000000000000000000000000000000000000000000000000000000\n        /* \"#utility.yul\":5125:5126   */\n      0x00\n        /* \"#utility.yul\":5118:5206   */\n      mstore\n        /* \"#utility.yul\":5225:5229   */\n      0x22\n        /* \"#utility.yul\":5222:5223   */\n      0x04\n        /* \"#utility.yul\":5215:5230   */\n      mstore\n        /* \"#utility.yul\":5249:5253   */\n      0x24\n        /* \"#utility.yul\":5246:5247   */\n      0x00\n        /* \"#utility.yul\":5239:5254   */\n      revert\n        /* \"#utility.yul\":5266:5446   */\n    tag_20:\n        /* \"#utility.yul\":5314:5391   */\n      0x4e487b7100000000000000000000000000000000000000000000000000000000\n        /* \"#utility.yul\":5311:5312   */\n      0x00\n        /* \"#utility.yul\":5304:5392   */\n      mstore\n        /* \"#utility.yul\":5411:5415   */\n      0x32\n        /* \"#utility.yul\":5408:5409   */\n      0x04\n        /* \"#utility.yul\":5401:5416   */\n      mstore\n        /* \"#utility.yul\":5435:5439   */\n      0x24\n        /* \"#utility.yul\":5432:5433   */\n      0x00\n        /* \"#utility.yul\":5425:5440   */\n      revert\n        /* \"#utility.yul\":5452:5632   */\n    tag_103:\n        /* \"#utility.yul\":5500:5577   */\n      0x4e487b7100000000000000000000000000000000000000000000000000000000\n        /* \"#utility.yul\":5497:5498   */\n      0x00\n        /* \"#utility.yul\":5490:5578   */\n      mstore\n        /* \"#utility.yul\":5597:5601   */\n      0x41\n        /* \"#utility.yul\":5594:5595   */\n      0x04\n        /* \"#utility.yul\":5587:5602   */\n      mstore\n        /* \"#utility.yul\":5621:5625   */\n      0x24\n        /* \"#utility.yul\":5618:5619   */\n      0x00\n        /* \"#utility.yul\":5611:5626   */\n      revert\n        /* \"#utility.yul\":5638:5755   */\n    tag_60:\n        /* \"#utility.yul\":5747:5748   */\n      0x00\n        /* \"#utility.yul\":5744:5745   */\n      dup1\n        /* \"#utility.yul\":5737:5749   */\n      revert\n        /* \"#utility.yul\":5761:5878   */\n    tag_53:\n        /* \"#utility.yul\":5870:5871   */\n      0x00\n        /* \"#utility.yul\":5867:5868   */\n      dup1\n        /* \"#utility.yul\":5860:5872   */\n      revert\n        /* \"#utility.yul\":5884:6001   */\n    tag_72:\n        /* \"#utility.yul\":5993:5994   */\n      0x00\n        /* \"#utility.yul\":5990:5991   */\n      dup1\n        /* \"#utility.yul\":5983:5995   */\n      revert\n        /* \"#utility.yul\":6007:6124   */\n    tag_69:\n        /* \"#utility.yul\":6116:6117   */\n      0x00\n        /* \"#utility.yul\":6113:6114   */\n      dup1\n        /* \"#utility.yul\":6106:6118   */\n      revert\n        /* \"#utility.yul\":6130:6232   */\n    tag_105:\n        /* \"#utility.yul\":6171:6177   */\n      0x00\n        /* \"#utility.yul\":6222:6224   */\n      0x1f\n        /* \"#utility.yul\":6218:6225   */\n      not\n        /* \"#utility.yul\":6213:6215   */\n      0x1f\n        /* \"#utility.yul\":6206:6211   */\n      dup4\n        /* \"#utility.yul\":6202:6216   */\n      add\n        /* \"#utility.yul\":6198:6226   */\n      and\n        /* \"#utility.yul\":6188:6226   */\n      swap1\n      pop\n        /* \"#utility.yul\":6130:6232   */\n      swap2\n      swap1\n      pop\n      jump\t// out\n        /* \"#utility.yul\":6238:6418   */\n    tag_84:\n        /* \"#utility.yul\":6378:6410   */\n      0x596f752063616e277420626964206f6e20796f7572206f776e20706f73740000\n        /* \"#utility.yul\":6374:6375   */\n      0x00\n        /* \"#utility.yul\":6366:6372   */\n      dup3\n        /* \"#utility.yul\":6362:6376   */\n      add\n        /* \"#utility.yul\":6355:6411   */\n      mstore\n        /* \"#utility.yul\":6238:6418   */\n      pop\n      jump\t// out\n        /* \"#utility.yul\":6424:6595   */\n    tag_89:\n        /* \"#utility.yul\":6564:6587   */\n      0x496e76616c696420616d6f756e74206f66204269640000000000000000000000\n        /* \"#utility.yul\":6560:6561   */\n      0x00\n        /* \"#utility.yul\":6552:6558   */\n      dup3\n        /* \"#utility.yul\":6548:6562   */\n      add\n        /* \"#utility.yul\":6541:6588   */\n      mstore\n        /* \"#utility.yul\":6424:6595   */\n      pop\n      jump\t// out\n        /* \"#utility.yul\":6601:6723   */\n    tag_65:\n        /* \"#utility.yul\":6674:6698   */\n      tag_130\n        /* \"#utility.yul\":6692:6697   */\n      dup2\n        /* \"#utility.yul\":6674:6698   */\n      tag_107\n      jump\t// in\n    tag_130:\n        /* \"#utility.yul\":6667:6672   */\n      dup2\n        /* \"#utility.yul\":6664:6699   */\n      eq\n        /* \"#utility.yul\":6654:6717   */\n      tag_131\n      jumpi\n        /* \"#utility.yul\":6713:6714   */\n      0x00\n        /* \"#utility.yul\":6710:6711   */\n      dup1\n        /* \"#utility.yul\":6703:6715   */\n      revert\n        /* \"#utility.yul\":6654:6717   */\n    tag_131:\n        /* \"#utility.yul\":6601:6723   */\n      pop\n      jump\t// out\n\n    auxdata: 0xa2646970667358221220cc70fd275c33d65bb6a1f088051038990482d616433e2b158880f4952a3645f564736f6c63430008070033\n}\n",
				"bytecode": {
					"linkReferences": {},
					"object": "608060405234801561001057600080fd5b506107a5806100206000396000f3fe6080604052600436106100295760003560e01c80631252cb481461002e578063659dd2b414610057575b600080fd5b34801561003a57600080fd5b5061005560048036038101906100509190610462565b610073565b005b610071600480360381019061006c91906104be565b610153565b005b600060405180608001604052803373ffffffffffffffffffffffffffffffffffffffff16815260200183815260200184815260200142815250908060018154018082558091505060019003906000526020600020906004020160009091909190915060008201518160000160006101000a81548173ffffffffffffffffffffffffffffffffffffffff021916908373ffffffffffffffffffffffffffffffffffffffff16021790555060208201518160010155604082015181600201908051906020019061014292919061033a565b506060820151816003015550505050565b600080828154811061016857610167610683565b5b90600052602060002090600402016040518060800160405290816000820160009054906101000a900473ffffffffffffffffffffffffffffffffffffffff1673ffffffffffffffffffffffffffffffffffffffff1673ffffffffffffffffffffffffffffffffffffffff168152602001600182015481526020016002820180546101f1906105f1565b80601f016020809104026020016040519081016040528092919081815260200182805461021d906105f1565b801561026a5780601f1061023f5761010080835404028352916020019161026a565b820191906000526020600020905b81548152906001019060200180831161024d57829003601f168201915b505050505081526020016003820154815250509050806000015173ffffffffffffffffffffffffffffffffffffffff163373ffffffffffffffffffffffffffffffffffffffff1614156102f2576040517f08c379a00000000000000000000000000000000000000000000000000000000081526004016102e990610531565b60405180910390fd5b6000341415610336576040517f08c379a000000000000000000000000000000000000000000000000000000000815260040161032d90610551565b60405180910390fd5b5050565b828054610346906105f1565b90600052602060002090601f01602090048101928261036857600085556103af565b82601f1061038157805160ff19168380011785556103af565b828001600101855582156103af579182015b828111156103ae578251825591602001919060010190610393565b5b5090506103bc91906103c0565b5090565b5b808211156103d95760008160009055506001016103c1565b5090565b60006103f06103eb84610596565b610571565b90508281526020810184848401111561040c5761040b6106e6565b5b6104178482856105e2565b509392505050565b600082601f830112610434576104336106e1565b5b81356104448482602086016103dd565b91505092915050565b60008135905061045c81610758565b92915050565b60008060408385031215610479576104786106f0565b5b600083013567ffffffffffffffff811115610497576104966106eb565b5b6104a38582860161041f565b92505060206104b48582860161044d565b9150509250929050565b6000602082840312156104d4576104d36106f0565b5b60006104e28482850161044d565b91505092915050565b60006104f8601e836105c7565b915061050382610706565b602082019050919050565b600061051b6015836105c7565b91506105268261072f565b602082019050919050565b6000602082019050818103600083015261054a816104eb565b9050919050565b6000602082019050818103600083015261056a8161050e565b9050919050565b600061057b61058c565b90506105878282610623565b919050565b6000604051905090565b600067ffffffffffffffff8211156105b1576105b06106b2565b5b6105ba826106f5565b9050602081019050919050565b600082825260208201905092915050565b6000819050919050565b82818337600083830152505050565b6000600282049050600182168061060957607f821691505b6020821081141561061d5761061c610654565b5b50919050565b61062c826106f5565b810181811067ffffffffffffffff8211171561064b5761064a6106b2565b5b80604052505050565b7f4e487b7100000000000000000000000000000000000000000000000000000000600052602260045260246000fd5b7f4e487b7100000000000000000000000000000000000000000000000000000000600052603260045260246000fd5b7f4e487b7100000000000000000000000000000000000000000000000000000000600052604160045260246000fd5b600080fd5b600080fd5b600080fd5b600080fd5b6000601f19601f8301169050919050565b7f596f752063616e277420626964206f6e20796f7572206f776e20706f73740000600082015250565b7f496e76616c696420616d6f756e74206f66204269640000000000000000000000600082015250565b610761816105d8565b811461076c57600080fd5b5056fea2646970667358221220cc70fd275c33d65bb6a1f088051038990482d616433e2b158880f4952a3645f564736f6c63430008070033",
					"opcodes": "PUSH1 0x80 PUSH1 0x40 MSTORE CALLVALUE DUP1 ISZERO PUSH2 0x10 JUMPI PUSH1 0x0 DUP1 REVERT JUMPDEST POP PUSH2 0x7A5 DUP1 PUSH2 0x20 PUSH1 0x0 CODECOPY PUSH1 0x0 RETURN INVALID PUSH1 0x80 PUSH1 0x40 MSTORE PUSH1 0x4 CALLDATASIZE LT PUSH2 0x29 JUMPI PUSH1 0x0 CALLDATALOAD PUSH1 0xE0 SHR DUP1 PUSH4 0x1252CB48 EQ PUSH2 0x2E JUMPI DUP1 PUSH4 0x659DD2B4 EQ PUSH2 0x57 JUMPI JUMPDEST PUSH1 0x0 DUP1 REVERT JUMPDEST CALLVALUE DUP1 ISZERO PUSH2 0x3A JUMPI PUSH1 0x0 DUP1 REVERT JUMPDEST POP PUSH2 0x55 PUSH1 0x4 DUP1 CALLDATASIZE SUB DUP2 ADD SWAP1 PUSH2 0x50 SWAP2 SWAP1 PUSH2 0x462 JUMP JUMPDEST PUSH2 0x73 JUMP JUMPDEST STOP JUMPDEST PUSH2 0x71 PUSH1 0x4 DUP1 CALLDATASIZE SUB DUP2 ADD SWAP1 PUSH2 0x6C SWAP2 SWAP1 PUSH2 0x4BE JUMP JUMPDEST PUSH2 0x153 JUMP JUMPDEST STOP JUMPDEST PUSH1 0x0 PUSH1 0x40 MLOAD DUP1 PUSH1 0x80 ADD PUSH1 0x40 MSTORE DUP1 CALLER PUSH20 0xFFFFFFFFFFFFFFFFFFFFFFFFFFFFFFFFFFFFFFFF AND DUP2 MSTORE PUSH1 0x20 ADD DUP4 DUP2 MSTORE PUSH1 0x20 ADD DUP5 DUP2 MSTORE PUSH1 0x20 ADD TIMESTAMP DUP2 MSTORE POP SWAP1 DUP1 PUSH1 0x1 DUP2 SLOAD ADD DUP1 DUP3 SSTORE DUP1 SWAP2 POP POP PUSH1 0x1 SWAP1 SUB SWAP1 PUSH1 0x0 MSTORE PUSH1 0x20 PUSH1 0x0 KECCAK256 SWAP1 PUSH1 0x4 MUL ADD PUSH1 0x0 SWAP1 SWAP2 SWAP1 SWAP2 SWAP1 SWAP2 POP PUSH1 0x0 DUP3 ADD MLOAD DUP2 PUSH1 0x0 ADD PUSH1 0x0 PUSH2 0x100 EXP DUP2 SLOAD DUP2 PUSH20 0xFFFFFFFFFFFFFFFFFFFFFFFFFFFFFFFFFFFFFFFF MUL NOT AND SWAP1 DUP4 PUSH20 0xFFFFFFFFFFFFFFFFFFFFFFFFFFFFFFFFFFFFFFFF AND MUL OR SWAP1 SSTORE POP PUSH1 0x20 DUP3 ADD MLOAD DUP2 PUSH1 0x1 ADD SSTORE PUSH1 0x40 DUP3 ADD MLOAD DUP2 PUSH1 0x2 ADD SWAP1 DUP1 MLOAD SWAP1 PUSH1 0x20 ADD SWAP1 PUSH2 0x142 SWAP3 SWAP2 SWAP1 PUSH2 0x33A JUMP JUMPDEST POP PUSH1 0x60 DUP3 ADD MLOAD DUP2 PUSH1 0x3 ADD SSTORE POP POP POP POP JUMP JUMPDEST PUSH1 0x0 DUP1 DUP3 DUP2 SLOAD DUP2 LT PUSH2 0x168 JUMPI PUSH2 0x167 PUSH2 0x683 JUMP JUMPDEST JUMPDEST SWAP1 PUSH1 0x0 MSTORE PUSH1 0x20 PUSH1 0x0 KECCAK256 SWAP1 PUSH1 0x4 MUL ADD PUSH1 0x40 MLOAD DUP1 PUSH1 0x80 ADD PUSH1 0x40 MSTORE SWAP1 DUP2 PUSH1 0x0 DUP3 ADD PUSH1 0x0 SWAP1 SLOAD SWAP1 PUSH2 0x100 EXP SWAP1 DIV PUSH20 0xFFFFFFFFFFFFFFFFFFFFFFFFFFFFFFFFFFFFFFFF AND PUSH20 0xFFFFFFFFFFFFFFFFFFFFFFFFFFFFFFFFFFFFFFFF AND PUSH20 0xFFFFFFFFFFFFFFFFFFFFFFFFFFFFFFFFFFFFFFFF AND DUP2 MSTORE PUSH1 0x20 ADD PUSH1 0x1 DUP3 ADD SLOAD DUP2 MSTORE PUSH1 0x20 ADD PUSH1 0x2 DUP3 ADD DUP1 SLOAD PUSH2 0x1F1 SWAP1 PUSH2 0x5F1 JUMP JUMPDEST DUP1 PUSH1 0x1F ADD PUSH1 0x20 DUP1 SWAP2 DIV MUL PUSH1 0x20 ADD PUSH1 0x40 MLOAD SWAP1 DUP2 ADD PUSH1 0x40 MSTORE DUP1 SWAP3 SWAP2 SWAP1 DUP2 DUP2 MSTORE PUSH1 0x20 ADD DUP3 DUP1 SLOAD PUSH2 0x21D SWAP1 PUSH2 0x5F1 JUMP JUMPDEST DUP1 ISZERO PUSH2 0x26A JUMPI DUP1 PUSH1 0x1F LT PUSH2 0x23F JUMPI PUSH2 0x100 DUP1 DUP4 SLOAD DIV MUL DUP4 MSTORE SWAP2 PUSH1 0x20 ADD SWAP2 PUSH2 0x26A JUMP JUMPDEST DUP3 ADD SWAP2 SWAP1 PUSH1 0x0 MSTORE PUSH1 0x20 PUSH1 0x0 KECCAK256 SWAP1 JUMPDEST DUP2 SLOAD DUP2 MSTORE SWAP1 PUSH1 0x1 ADD SWAP1 PUSH1 0x20 ADD DUP1 DUP4 GT PUSH2 0x24D JUMPI DUP3 SWAP1 SUB PUSH1 0x1F AND DUP3 ADD SWAP2 JUMPDEST POP POP POP POP POP DUP2 MSTORE PUSH1 0x20 ADD PUSH1 0x3 DUP3 ADD SLOAD DUP2 MSTORE POP POP SWAP1 POP DUP1 PUSH1 0x0 ADD MLOAD PUSH20 0xFFFFFFFFFFFFFFFFFFFFFFFFFFFFFFFFFFFFFFFF AND CALLER PUSH20 0xFFFFFFFFFFFFFFFFFFFFFFFFFFFFFFFFFFFFFFFF AND EQ ISZERO PUSH2 0x2F2 JUMPI PUSH1 0x40 MLOAD PUSH32 0x8C379A000000000000000000000000000000000000000000000000000000000 DUP2 MSTORE PUSH1 0x4 ADD PUSH2 0x2E9 SWAP1 PUSH2 0x531 JUMP JUMPDEST PUSH1 0x40 MLOAD DUP1 SWAP2 SUB SWAP1 REVERT JUMPDEST PUSH1 0x0 CALLVALUE EQ ISZERO PUSH2 0x336 JUMPI PUSH1 0x40 MLOAD PUSH32 0x8C379A000000000000000000000000000000000000000000000000000000000 DUP2 MSTORE PUSH1 0x4 ADD PUSH2 0x32D SWAP1 PUSH2 0x551 JUMP JUMPDEST PUSH1 0x40 MLOAD DUP1 SWAP2 SUB SWAP1 REVERT JUMPDEST POP POP JUMP JUMPDEST DUP3 DUP1 SLOAD PUSH2 0x346 SWAP1 PUSH2 0x5F1 JUMP JUMPDEST SWAP1 PUSH1 0x0 MSTORE PUSH1 0x20 PUSH1 0x0 KECCAK256 SWAP1 PUSH1 0x1F ADD PUSH1 0x20 SWAP1 DIV DUP2 ADD SWAP3 DUP3 PUSH2 0x368 JUMPI PUSH1 0x0 DUP6 SSTORE PUSH2 0x3AF JUMP JUMPDEST DUP3 PUSH1 0x1F LT PUSH2 0x381 JUMPI DUP1 MLOAD PUSH1 0xFF NOT AND DUP4 DUP1 ADD OR DUP6 SSTORE PUSH2 0x3AF JUMP JUMPDEST DUP3 DUP1 ADD PUSH1 0x1 ADD DUP6 SSTORE DUP3 ISZERO PUSH2 0x3AF JUMPI SWAP2 DUP3 ADD JUMPDEST DUP3 DUP2 GT ISZERO PUSH2 0x3AE JUMPI DUP3 MLOAD DUP3 SSTORE SWAP2 PUSH1 0x20 ADD SWAP2 SWAP1 PUSH1 0x1 ADD SWAP1 PUSH2 0x393 JUMP JUMPDEST JUMPDEST POP SWAP1 POP PUSH2 0x3BC SWAP2 SWAP1 PUSH2 0x3C0 JUMP JUMPDEST POP SWAP1 JUMP JUMPDEST JUMPDEST DUP1 DUP3 GT ISZERO PUSH2 0x3D9 JUMPI PUSH1 0x0 DUP2 PUSH1 0x0 SWAP1 SSTORE POP PUSH1 0x1 ADD PUSH2 0x3C1 JUMP JUMPDEST POP SWAP1 JUMP JUMPDEST PUSH1 0x0 PUSH2 0x3F0 PUSH2 0x3EB DUP5 PUSH2 0x596 JUMP JUMPDEST PUSH2 0x571 JUMP JUMPDEST SWAP1 POP DUP3 DUP2 MSTORE PUSH1 0x20 DUP2 ADD DUP5 DUP5 DUP5 ADD GT ISZERO PUSH2 0x40C JUMPI PUSH2 0x40B PUSH2 0x6E6 JUMP JUMPDEST JUMPDEST PUSH2 0x417 DUP5 DUP3 DUP6 PUSH2 0x5E2 JUMP JUMPDEST POP SWAP4 SWAP3 POP POP POP JUMP JUMPDEST PUSH1 0x0 DUP3 PUSH1 0x1F DUP4 ADD SLT PUSH2 0x434 JUMPI PUSH2 0x433 PUSH2 0x6E1 JUMP JUMPDEST JUMPDEST DUP2 CALLDATALOAD PUSH2 0x444 DUP5 DUP3 PUSH1 0x20 DUP7 ADD PUSH2 0x3DD JUMP JUMPDEST SWAP2 POP POP SWAP3 SWAP2 POP POP JUMP JUMPDEST PUSH1 0x0 DUP2 CALLDATALOAD SWAP1 POP PUSH2 0x45C DUP2 PUSH2 0x758 JUMP JUMPDEST SWAP3 SWAP2 POP POP JUMP JUMPDEST PUSH1 0x0 DUP1 PUSH1 0x40 DUP4 DUP6 SUB SLT ISZERO PUSH2 0x479 JUMPI PUSH2 0x478 PUSH2 0x6F0 JUMP JUMPDEST JUMPDEST PUSH1 0x0 DUP4 ADD CALLDATALOAD PUSH8 0xFFFFFFFFFFFFFFFF DUP2 GT ISZERO PUSH2 0x497 JUMPI PUSH2 0x496 PUSH2 0x6EB JUMP JUMPDEST JUMPDEST PUSH2 0x4A3 DUP6 DUP3 DUP7 ADD PUSH2 0x41F JUMP JUMPDEST SWAP3 POP POP PUSH1 0x20 PUSH2 0x4B4 DUP6 DUP3 DUP7 ADD PUSH2 0x44D JUMP JUMPDEST SWAP2 POP POP SWAP3 POP SWAP3 SWAP1 POP JUMP JUMPDEST PUSH1 0x0 PUSH1 0x20 DUP3 DUP5 SUB SLT ISZERO PUSH2 0x4D4 JUMPI PUSH2 0x4D3 PUSH2 0x6F0 JUMP JUMPDEST JUMPDEST PUSH1 0x0 PUSH2 0x4E2 DUP5 DUP3 DUP6 ADD PUSH2 0x44D JUMP JUMPDEST SWAP2 POP POP SWAP3 SWAP2 POP POP JUMP JUMPDEST PUSH1 0x0 PUSH2 0x4F8 PUSH1 0x1E DUP4 PUSH2 0x5C7 JUMP JUMPDEST SWAP2 POP PUSH2 0x503 DUP3 PUSH2 0x706 JUMP JUMPDEST PUSH1 0x20 DUP3 ADD SWAP1 POP SWAP2 SWAP1 POP JUMP JUMPDEST PUSH1 0x0 PUSH2 0x51B PUSH1 0x15 DUP4 PUSH2 0x5C7 JUMP JUMPDEST SWAP2 POP PUSH2 0x526 DUP3 PUSH2 0x72F JUMP JUMPDEST PUSH1 0x20 DUP3 ADD SWAP1 POP SWAP2 SWAP1 POP JUMP JUMPDEST PUSH1 0x0 PUSH1 0x20 DUP3 ADD SWAP1 POP DUP2 DUP2 SUB PUSH1 0x0 DUP4 ADD MSTORE PUSH2 0x54A DUP2 PUSH2 0x4EB JUMP JUMPDEST SWAP1 POP SWAP2 SWAP1 POP JUMP JUMPDEST PUSH1 0x0 PUSH1 0x20 DUP3 ADD SWAP1 POP DUP2 DUP2 SUB PUSH1 0x0 DUP4 ADD MSTORE PUSH2 0x56A DUP2 PUSH2 0x50E JUMP JUMPDEST SWAP1 POP SWAP2 SWAP1 POP JUMP JUMPDEST PUSH1 0x0 PUSH2 0x57B PUSH2 0x58C JUMP JUMPDEST SWAP1 POP PUSH2 0x587 DUP3 DUP3 PUSH2 0x623 JUMP JUMPDEST SWAP2 SWAP1 POP JUMP JUMPDEST PUSH1 0x0 PUSH1 0x40 MLOAD SWAP1 POP SWAP1 JUMP JUMPDEST PUSH1 0x0 PUSH8 0xFFFFFFFFFFFFFFFF DUP3 GT ISZERO PUSH2 0x5B1 JUMPI PUSH2 0x5B0 PUSH2 0x6B2 JUMP JUMPDEST JUMPDEST PUSH2 0x5BA DUP3 PUSH2 0x6F5 JUMP JUMPDEST SWAP1 POP PUSH1 0x20 DUP2 ADD SWAP1 POP SWAP2 SWAP1 POP JUMP JUMPDEST PUSH1 0x0 DUP3 DUP3 MSTORE PUSH1 0x20 DUP3 ADD SWAP1 POP SWAP3 SWAP2 POP POP JUMP JUMPDEST PUSH1 0x0 DUP2 SWAP1 POP SWAP2 SWAP1 POP JUMP JUMPDEST DUP3 DUP2 DUP4 CALLDATACOPY PUSH1 0x0 DUP4 DUP4 ADD MSTORE POP POP POP JUMP JUMPDEST PUSH1 0x0 PUSH1 0x2 DUP3 DIV SWAP1 POP PUSH1 0x1 DUP3 AND DUP1 PUSH2 0x609 JUMPI PUSH1 0x7F DUP3 AND SWAP2 POP JUMPDEST PUSH1 0x20 DUP3 LT DUP2 EQ ISZERO PUSH2 0x61D JUMPI PUSH2 0x61C PUSH2 0x654 JUMP JUMPDEST JUMPDEST POP SWAP2 SWAP1 POP JUMP JUMPDEST PUSH2 0x62C DUP3 PUSH2 0x6F5 JUMP JUMPDEST DUP2 ADD DUP2 DUP2 LT PUSH8 0xFFFFFFFFFFFFFFFF DUP3 GT OR ISZERO PUSH2 0x64B JUMPI PUSH2 0x64A PUSH2 0x6B2 JUMP JUMPDEST JUMPDEST DUP1 PUSH1 0x40 MSTORE POP POP POP JUMP JUMPDEST PUSH32 0x4E487B7100000000000000000000000000000000000000000000000000000000 PUSH1 0x0 MSTORE PUSH1 0x22 PUSH1 0x4 MSTORE PUSH1 0x24 PUSH1 0x0 REVERT JUMPDEST PUSH32 0x4E487B7100000000000000000000000000000000000000000000000000000000 PUSH1 0x0 MSTORE PUSH1 0x32 PUSH1 0x4 MSTORE PUSH1 0x24 PUSH1 0x0 REVERT JUMPDEST PUSH32 0x4E487B7100000000000000000000000000000000000000000000000000000000 PUSH1 0x0 MSTORE PUSH1 0x41 PUSH1 0x4 MSTORE PUSH1 0x24 PUSH1 0x0 REVERT JUMPDEST PUSH1 0x0 DUP1 REVERT JUMPDEST PUSH1 0x0 DUP1 REVERT JUMPDEST PUSH1 0x0 DUP1 REVERT JUMPDEST PUSH1 0x0 DUP1 REVERT JUMPDEST PUSH1 0x0 PUSH1 0x1F NOT PUSH1 0x1F DUP4 ADD AND SWAP1 POP SWAP2 SWAP1 POP JUMP JUMPDEST PUSH32 0x596F752063616E277420626964206F6E20796F7572206F776E20706F73740000 PUSH1 0x0 DUP3 ADD MSTORE POP JUMP JUMPDEST PUSH32 0x496E76616C696420616D6F756E74206F66204269640000000000000000000000 PUSH1 0x0 DUP3 ADD MSTORE POP JUMP JUMPDEST PUSH2 0x761 DUP2 PUSH2 0x5D8 JUMP JUMPDEST DUP2 EQ PUSH2 0x76C JUMPI PUSH1 0x0 DUP1 REVERT JUMPDEST POP JUMP INVALID LOG2 PUSH5 0x6970667358 0x22 SLT KECCAK256 0xCC PUSH17 0xFD275C33D65BB6A1F088051038990482D6 AND NUMBER RETURNDATACOPY 0x2B ISZERO DUP9 DUP1 DELEGATECALL SWAP6 0x2A CALLDATASIZE GASLIMIT CREATE2 PUSH5 0x736F6C6343 STOP ADDMOD SMOD STOP CALLER "
				},
				"gasEstimates": {
					"creation": {
						"codeDepositCost": "391400",
						"executionCost": "430",
						"totalCost": "391830"
					},
					"external": {
						"createBid(uint256)": "infinite",
						"createPost(string,uint256)": "infinite"
					}
				},
				"methodIdentifiers": {
					"createBid(uint256)": "659dd2b4",
					"createPost(string,uint256)": "1252cb48"
				}
			},
			"storageLayout": {
				"storage": [
					{
						"astId": 23,
						"contract": "contracts/Auction.sol:Auction",
						"label": "posts",
						"offset": 0,
						"slot": "0",
						"type": "t_array(t_struct(Post)10_storage)dyn_storage"
					},
					{
						"astId": 29,
						"contract": "contracts/Auction.sol:Auction",
						"label": "bids",
						"offset": 0,
						"slot": "1",
						"type": "t_mapping(t_uint256,t_array(t_struct(Bid)19_storage)dyn_storage)"
					},
					{
						"astId": 33,
						"contract": "contracts/Auction.sol:Auction",
						"label": "balances",
						"offset": 0,
						"slot": "2",
						"type": "t_mapping(t_address,t_uint256)"
					}
				],
				"types": {
					"t_address": {
						"encoding": "inplace",
						"label": "address",
						"numberOfBytes": "20"
					},
					"t_address_payable": {
						"encoding": "inplace",
						"label": "address payable",
						"numberOfBytes": "20"
					},
					"t_array(t_struct(Bid)19_storage)dyn_storage": {
						"base": "t_struct(Bid)19_storage",
						"encoding": "dynamic_array",
						"label": "struct Auction.Bid[]",
						"numberOfBytes": "32"
					},
					"t_array(t_struct(Post)10_storage)dyn_storage": {
						"base": "t_struct(Post)10_storage",
						"encoding": "dynamic_array",
						"label": "struct Auction.Post[]",
						"numberOfBytes": "32"
					},
					"t_bool": {
						"encoding": "inplace",
						"label": "bool",
						"numberOfBytes": "1"
					},
					"t_mapping(t_address,t_uint256)": {
						"encoding": "mapping",
						"key": "t_address",
						"label": "mapping(address => uint256)",
						"numberOfBytes": "32",
						"value": "t_uint256"
					},
					"t_mapping(t_uint256,t_array(t_struct(Bid)19_storage)dyn_storage)": {
						"encoding": "mapping",
						"key": "t_uint256",
						"label": "mapping(uint256 => struct Auction.Bid[])",
						"numberOfBytes": "32",
						"value": "t_array(t_struct(Bid)19_storage)dyn_storage"
					},
					"t_string_storage": {
						"encoding": "bytes",
						"label": "string",
						"numberOfBytes": "32"
					},
					"t_struct(Bid)19_storage": {
						"encoding": "inplace",
						"label": "struct Auction.Bid",
						"members": [
							{
								"astId": 12,
								"contract": "contracts/Auction.sol:Auction",
								"label": "buyer",
								"offset": 0,
								"slot": "0",
								"type": "t_address_payable"
							},
							{
								"astId": 14,
								"contract": "contracts/Auction.sol:Auction",
								"label": "amount",
								"offset": 0,
								"slot": "1",
								"type": "t_uint256"
							},
							{
								"astId": 16,
								"contract": "contracts/Auction.sol:Auction",
								"label": "time",
								"offset": 0,
								"slot": "2",
								"type": "t_uint256"
							},
							{
								"astId": 18,
								"contract": "contracts/Auction.sol:Auction",
								"label": "isFinished",
								"offset": 0,
								"slot": "3",
								"type": "t_bool"
							}
						],
						"numberOfBytes": "128"
					},
					"t_struct(Post)10_storage": {
						"encoding": "inplace",
						"label": "struct Auction.Post",
						"members": [
							{
								"astId": 3,
								"contract": "contracts/Auction.sol:Auction",
								"label": "seller",
								"offset": 0,
								"slot": "0",
								"type": "t_address_payable"
							},
							{
								"astId": 5,
								"contract": "contracts/Auction.sol:Auction",
								"label": "minBid",
								"offset": 0,
								"slot": "1",
								"type": "t_uint256"
							},
							{
								"astId": 7,
								"contract": "contracts/Auction.sol:Auction",
								"label": "name",
								"offset": 0,
								"slot": "2",
								"type": "t_string_storage"
							},
							{
								"astId": 9,
								"contract": "contracts/Auction.sol:Auction",
								"label": "time",
								"offset": 0,
								"slot": "3",
								"type": "t_uint256"
							}
						],
						"numberOfBytes": "128"
					},
					"t_uint256": {
						"encoding": "inplace",
						"label": "uint256",
						"numberOfBytes": "32"
					}
				}
			},
			"userdoc": {
				"kind": "user",
				"methods": {},
				"version": 1
			}
		}
	}
}