{
	"contracts/MyToken.sol": {
		"MyToken": {
			"abi": [
				{
					"inputs": [],
					"stateMutability": "nonpayable",
					"type": "constructor"
				},
				{
					"anonymous": false,
					"inputs": [
						{
							"indexed": true,
							"internalType": "address",
							"name": "owner",
							"type": "address"
						},
						{
							"indexed": true,
							"internalType": "address",
							"name": "spender",
							"type": "address"
						},
						{
							"indexed": true,
							"internalType": "uint256",
							"name": "amount",
							"type": "uint256"
						}
					],
					"name": "_Approval",
					"type": "event"
				},
				{
					"anonymous": false,
					"inputs": [
						{
							"indexed": true,
							"internalType": "address",
							"name": "sender",
							"type": "address"
						},
						{
							"indexed": true,
							"internalType": "address",
							"name": "reciever",
							"type": "address"
						},
						{
							"indexed": true,
							"internalType": "uint256",
							"name": "amount",
							"type": "uint256"
						}
					],
					"name": "_Transfer",
					"type": "event"
				},
				{
					"inputs": [
						{
							"internalType": "address",
							"name": "_reciever",
							"type": "address"
						},
						{
							"internalType": "uint256",
							"name": "amount",
							"type": "uint256"
						}
					],
					"name": "Transfer",
					"outputs": [
						{
							"internalType": "bool",
							"name": "",
							"type": "bool"
						}
					],
					"stateMutability": "nonpayable",
					"type": "function"
				},
				{
					"inputs": [
						{
							"internalType": "address",
							"name": "_account",
							"type": "address"
						}
					],
					"name": "balanceOf",
					"outputs": [
						{
							"internalType": "uint256",
							"name": "",
							"type": "uint256"
						}
					],
					"stateMutability": "view",
					"type": "function"
				},
				{
					"inputs": [],
					"name": "decimal",
					"outputs": [
						{
							"internalType": "uint256",
							"name": "",
							"type": "uint256"
						}
					],
					"stateMutability": "view",
					"type": "function"
				},
				{
					"inputs": [],
					"name": "name",
					"outputs": [
						{
							"internalType": "string",
							"name": "",
							"type": "string"
						}
					],
					"stateMutability": "view",
					"type": "function"
				},
				{
					"inputs": [],
					"name": "symbol",
					"outputs": [
						{
							"internalType": "string",
							"name": "",
							"type": "string"
						}
					],
					"stateMutability": "view",
					"type": "function"
				},
				{
					"inputs": [],
					"name": "totalSupply",
					"outputs": [
						{
							"internalType": "uint256",
							"name": "",
							"type": "uint256"
						}
					],
					"stateMutability": "view",
					"type": "function"
				}
			],
			"devdoc": {
				"kind": "dev",
				"methods": {},
				"version": 1
			},
			"evm": {
				"assembly": "    /* \"contracts/MyToken.sol\":25:1265  contract MyToken {\r... */\n  mstore(0x40, 0x80)\n    /* \"contracts/MyToken.sol\":172:355  constructor(){\r... */\n  callvalue\n  dup1\n  iszero\n  tag_1\n  jumpi\n  0x00\n  dup1\n  revert\ntag_1:\n  pop\n    /* \"contracts/MyToken.sol\":196:220  _name = \"My first token\" */\n  mload(0x40)\n  dup1\n  0x40\n  add\n  0x40\n  mstore\n  dup1\n  0x0e\n  dup2\n  mstore\n  0x20\n  add\n  0x4d7920666972737420746f6b656e000000000000000000000000000000000000\n  dup2\n  mstore\n  pop\n    /* \"contracts/MyToken.sol\":196:201  _name */\n  0x00\n    /* \"contracts/MyToken.sol\":196:220  _name = \"My first token\" */\n  swap1\n  dup1\n  mload\n  swap1\n  0x20\n  add\n  swap1\n  tag_4\n  swap3\n  swap2\n  swap1\n  tag_5\n  jump\t// in\ntag_4:\n  pop\n    /* \"contracts/MyToken.sol\":231:246  _symbol = \"MFT\" */\n  mload(0x40)\n  dup1\n  0x40\n  add\n  0x40\n  mstore\n  dup1\n  0x03\n  dup2\n  mstore\n  0x20\n  add\n  0x4d46540000000000000000000000000000000000000000000000000000000000\n  dup2\n  mstore\n  pop\n    /* \"contracts/MyToken.sol\":231:238  _symbol */\n  0x01\n    /* \"contracts/MyToken.sol\":231:246  _symbol = \"MFT\" */\n  swap1\n  dup1\n  mload\n  swap1\n  0x20\n  add\n  swap1\n  tag_6\n  swap3\n  swap2\n  swap1\n  tag_5\n  jump\t// in\ntag_6:\n  pop\n    /* \"contracts/MyToken.sol\":268:269  0 */\n  0x00\n    /* \"contracts/MyToken.sol\":257:265  _decimal */\n  0x02\n  0x00\n    /* \"contracts/MyToken.sol\":257:269  _decimal = 0 */\n  0x0100\n  exp\n  dup2\n  sload\n  dup2\n  0xffffffff\n  mul\n  not\n  and\n  swap1\n  dup4\n  0xffffffff\n  and\n  mul\n  or\n  swap1\n  sstore\n  pop\n    /* \"contracts/MyToken.sol\":295:302  1000000 */\n  0x0f4240\n    /* \"contracts/MyToken.sol\":280:292  _totalSupply */\n  0x03\n    /* \"contracts/MyToken.sol\":280:302  _totalSupply = 1000000 */\n  dup2\n  swap1\n  sstore\n  pop\n    /* \"contracts/MyToken.sol\":335:347  _totalSupply */\n  sload(0x03)\n    /* \"contracts/MyToken.sol\":313:320  balance */\n  0x04\n    /* \"contracts/MyToken.sol\":313:332  balance[msg.sender] */\n  0x00\n    /* \"contracts/MyToken.sol\":321:331  msg.sender */\n  caller\n    /* \"contracts/MyToken.sol\":313:332  balance[msg.sender] */\n  0xffffffffffffffffffffffffffffffffffffffff\n  and\n  0xffffffffffffffffffffffffffffffffffffffff\n  and\n  dup2\n  mstore\n  0x20\n  add\n  swap1\n  dup2\n  mstore\n  0x20\n  add\n  0x00\n  keccak256\n    /* \"contracts/MyToken.sol\":313:347  balance[msg.sender] = _totalSupply */\n  dup2\n  swap1\n  sstore\n  pop\n    /* \"contracts/MyToken.sol\":25:1265  contract MyToken {\r... */\n  jump(tag_7)\ntag_5:\n  dup3\n  dup1\n  sload\n  tag_8\n  swap1\n  tag_9\n  jump\t// in\ntag_8:\n  swap1\n  0x00\n  mstore\n  keccak256(0x00, 0x20)\n  swap1\n  0x1f\n  add\n  0x20\n  swap1\n  div\n  dup2\n  add\n  swap3\n  dup3\n  tag_11\n  jumpi\n  0x00\n  dup6\n  sstore\n  jump(tag_10)\ntag_11:\n  dup3\n  0x1f\n  lt\n  tag_12\n  jumpi\n  dup1\n  mload\n  not(0xff)\n  and\n  dup4\n  dup1\n  add\n  or\n  dup6\n  sstore\n  jump(tag_10)\ntag_12:\n  dup3\n  dup1\n  add\n  0x01\n  add\n  dup6\n  sstore\n  dup3\n  iszero\n  tag_10\n  jumpi\n  swap2\n  dup3\n  add\ntag_13:\n  dup3\n  dup2\n  gt\n  iszero\n  tag_14\n  jumpi\n  dup3\n  mload\n  dup3\n  sstore\n  swap2\n  0x20\n  add\n  swap2\n  swap1\n  0x01\n  add\n  swap1\n  jump(tag_13)\ntag_14:\ntag_10:\n  pop\n  swap1\n  pop\n  tag_15\n  swap2\n  swap1\n  tag_16\n  jump\t// in\ntag_15:\n  pop\n  swap1\n  jump\t// out\ntag_16:\ntag_17:\n  dup1\n  dup3\n  gt\n  iszero\n  tag_18\n  jumpi\n  0x00\n  dup2\n  0x00\n  swap1\n  sstore\n  pop\n  0x01\n  add\n  jump(tag_17)\ntag_18:\n  pop\n  swap1\n  jump\t// out\n    /* \"#utility.yul\":7:327   */\ntag_9:\n    /* \"#utility.yul\":51:57   */\n  0x00\n    /* \"#utility.yul\":88:89   */\n  0x02\n    /* \"#utility.yul\":82:86   */\n  dup3\n    /* \"#utility.yul\":78:90   */\n  div\n    /* \"#utility.yul\":68:90   */\n  swap1\n  pop\n    /* \"#utility.yul\":135:136   */\n  0x01\n    /* \"#utility.yul\":129:133   */\n  dup3\n    /* \"#utility.yul\":125:137   */\n  and\n    /* \"#utility.yul\":156:174   */\n  dup1\n    /* \"#utility.yul\":146:227   */\n  tag_21\n  jumpi\n    /* \"#utility.yul\":212:216   */\n  0x7f\n    /* \"#utility.yul\":204:210   */\n  dup3\n    /* \"#utility.yul\":200:217   */\n  and\n    /* \"#utility.yul\":190:217   */\n  swap2\n  pop\n    /* \"#utility.yul\":146:227   */\ntag_21:\n    /* \"#utility.yul\":274:276   */\n  0x20\n    /* \"#utility.yul\":266:272   */\n  dup3\n    /* \"#utility.yul\":263:277   */\n  lt\n    /* \"#utility.yul\":243:261   */\n  dup2\n    /* \"#utility.yul\":240:278   */\n  eq\n    /* \"#utility.yul\":237:321   */\n  iszero\n  tag_22\n  jumpi\n    /* \"#utility.yul\":293:311   */\n  tag_23\n  tag_24\n  jump\t// in\ntag_23:\n    /* \"#utility.yul\":237:321   */\ntag_22:\n    /* \"#utility.yul\":58:327   */\n  pop\n    /* \"#utility.yul\":7:327   */\n  swap2\n  swap1\n  pop\n  jump\t// out\n    /* \"#utility.yul\":333:513   */\ntag_24:\n    /* \"#utility.yul\":381:458   */\n  0x4e487b7100000000000000000000000000000000000000000000000000000000\n    /* \"#utility.yul\":378:379   */\n  0x00\n    /* \"#utility.yul\":371:459   */\n  mstore\n    /* \"#utility.yul\":478:482   */\n  0x22\n    /* \"#utility.yul\":475:476   */\n  0x04\n    /* \"#utility.yul\":468:483   */\n  mstore\n    /* \"#utility.yul\":502:506   */\n  0x24\n    /* \"#utility.yul\":499:500   */\n  0x00\n    /* \"#utility.yul\":492:507   */\n  revert\n    /* \"contracts/MyToken.sol\":25:1265  contract MyToken {\r... */\ntag_7:\n  dataSize(sub_0)\n  dup1\n  dataOffset(sub_0)\n  0x00\n  codecopy\n  0x00\n  return\nstop\n\nsub_0: assembly {\n        /* \"contracts/MyToken.sol\":25:1265  contract MyToken {\r... */\n      mstore(0x40, 0x80)\n      callvalue\n      dup1\n      iszero\n      tag_1\n      jumpi\n      0x00\n      dup1\n      revert\n    tag_1:\n      pop\n      jumpi(tag_2, lt(calldatasize, 0x04))\n      shr(0xe0, calldataload(0x00))\n      dup1\n      0x06fdde03\n      eq\n      tag_3\n      jumpi\n      dup1\n      0x18160ddd\n      eq\n      tag_4\n      jumpi\n      dup1\n      0x69ca02dd\n      eq\n      tag_5\n      jumpi\n      dup1\n      0x70a08231\n      eq\n      tag_6\n      jumpi\n      dup1\n      0x76809ce3\n      eq\n      tag_7\n      jumpi\n      dup1\n      0x95d89b41\n      eq\n      tag_8\n      jumpi\n    tag_2:\n      0x00\n      dup1\n      revert\n        /* \"contracts/MyToken.sol\":638:720  function name() public view returns (string memory){\r... */\n    tag_3:\n      tag_9\n      tag_10\n      jump\t// in\n    tag_9:\n      mload(0x40)\n      tag_11\n      swap2\n      swap1\n      tag_12\n      jump\t// in\n    tag_11:\n      mload(0x40)\n      dup1\n      swap2\n      sub\n      swap1\n      return\n        /* \"contracts/MyToken.sol\":909:999  function totalSupply() public view returns (uint256){\r... */\n    tag_4:\n      tag_13\n      tag_14\n      jump\t// in\n    tag_13:\n      mload(0x40)\n      tag_15\n      swap2\n      swap1\n      tag_16\n      jump\t// in\n    tag_15:\n      mload(0x40)\n      dup1\n      swap2\n      sub\n      swap1\n      return\n        /* \"contracts/MyToken.sol\":1124:1262  function Transfer(address _reciever,uint amount) public returns (bool){\r... */\n    tag_5:\n      tag_17\n      0x04\n      dup1\n      calldatasize\n      sub\n      dup2\n      add\n      swap1\n      tag_18\n      swap2\n      swap1\n      tag_19\n      jump\t// in\n    tag_18:\n      tag_20\n      jump\t// in\n    tag_17:\n      mload(0x40)\n      tag_21\n      swap2\n      swap1\n      tag_22\n      jump\t// in\n    tag_21:\n      mload(0x40)\n      dup1\n      swap2\n      sub\n      swap1\n      return\n        /* \"contracts/MyToken.sol\":1007:1116  function balanceOf(address _account) public view returns (uint256){\r... */\n    tag_6:\n      tag_23\n      0x04\n      dup1\n      calldatasize\n      sub\n      dup2\n      add\n      swap1\n      tag_24\n      swap2\n      swap1\n      tag_25\n      jump\t// in\n    tag_24:\n      tag_26\n      jump\t// in\n    tag_23:\n      mload(0x40)\n      tag_27\n      swap2\n      swap1\n      tag_16\n      jump\t// in\n    tag_27:\n      mload(0x40)\n      dup1\n      swap2\n      sub\n      swap1\n      return\n        /* \"contracts/MyToken.sol\":822:901  function decimal() public view returns (uint){\r... */\n    tag_7:\n      tag_28\n      tag_29\n      jump\t// in\n    tag_28:\n      mload(0x40)\n      tag_30\n      swap2\n      swap1\n      tag_16\n      jump\t// in\n    tag_30:\n      mload(0x40)\n      dup1\n      swap2\n      sub\n      swap1\n      return\n        /* \"contracts/MyToken.sol\":728:814  function symbol() public view returns (string memory){\r... */\n    tag_8:\n      tag_31\n      tag_32\n      jump\t// in\n    tag_31:\n      mload(0x40)\n      tag_33\n      swap2\n      swap1\n      tag_12\n      jump\t// in\n    tag_33:\n      mload(0x40)\n      dup1\n      swap2\n      sub\n      swap1\n      return\n        /* \"contracts/MyToken.sol\":638:720  function name() public view returns (string memory){\r... */\n    tag_10:\n        /* \"contracts/MyToken.sol\":675:688  string memory */\n      0x60\n        /* \"contracts/MyToken.sol\":707:712  _name */\n      0x00\n        /* \"contracts/MyToken.sol\":700:712  return _name */\n      dup1\n      sload\n      tag_35\n      swap1\n      tag_36\n      jump\t// in\n    tag_35:\n      dup1\n      0x1f\n      add\n      0x20\n      dup1\n      swap2\n      div\n      mul\n      0x20\n      add\n      mload(0x40)\n      swap1\n      dup2\n      add\n      0x40\n      mstore\n      dup1\n      swap3\n      swap2\n      swap1\n      dup2\n      dup2\n      mstore\n      0x20\n      add\n      dup3\n      dup1\n      sload\n      tag_37\n      swap1\n      tag_36\n      jump\t// in\n    tag_37:\n      dup1\n      iszero\n      tag_38\n      jumpi\n      dup1\n      0x1f\n      lt\n      tag_39\n      jumpi\n      0x0100\n      dup1\n      dup4\n      sload\n      div\n      mul\n      dup4\n      mstore\n      swap2\n      0x20\n      add\n      swap2\n      jump(tag_38)\n    tag_39:\n      dup3\n      add\n      swap2\n      swap1\n      0x00\n      mstore\n      keccak256(0x00, 0x20)\n      swap1\n    tag_40:\n      dup2\n      sload\n      dup2\n      mstore\n      swap1\n      0x01\n      add\n      swap1\n      0x20\n      add\n      dup1\n      dup4\n      gt\n      tag_40\n      jumpi\n      dup3\n      swap1\n      sub\n      0x1f\n      and\n      dup3\n      add\n      swap2\n    tag_38:\n      pop\n      pop\n      pop\n      pop\n      pop\n      swap1\n      pop\n        /* \"contracts/MyToken.sol\":638:720  function name() public view returns (string memory){\r... */\n      swap1\n      jump\t// out\n        /* \"contracts/MyToken.sol\":909:999  function totalSupply() public view returns (uint256){\r... */\n    tag_14:\n        /* \"contracts/MyToken.sol\":953:960  uint256 */\n      0x00\n        /* \"contracts/MyToken.sol\":979:991  _totalSupply */\n      sload(0x03)\n        /* \"contracts/MyToken.sol\":972:991  return _totalSupply */\n      swap1\n      pop\n        /* \"contracts/MyToken.sol\":909:999  function totalSupply() public view returns (uint256){\r... */\n      swap1\n      jump\t// out\n        /* \"contracts/MyToken.sol\":1124:1262  function Transfer(address _reciever,uint amount) public returns (bool){\r... */\n    tag_20:\n        /* \"contracts/MyToken.sol\":1189:1193  bool */\n      0x00\n        /* \"contracts/MyToken.sol\":1233:1234  0 */\n      dup1\n        /* \"contracts/MyToken.sol\":1213:1235  _reciever!= address(0) */\n      0xffffffffffffffffffffffffffffffffffffffff\n      and\n        /* \"contracts/MyToken.sol\":1213:1222  _reciever */\n      dup4\n        /* \"contracts/MyToken.sol\":1213:1235  _reciever!= address(0) */\n      0xffffffffffffffffffffffffffffffffffffffff\n      and\n      eq\n      iszero\n        /* \"contracts/MyToken.sol\":1205:1254  require(_reciever!= address(0),\"Invalid Address\") */\n      tag_43\n      jumpi\n      mload(0x40)\n      0x08c379a000000000000000000000000000000000000000000000000000000000\n      dup2\n      mstore\n      0x04\n      add\n      tag_44\n      swap1\n      tag_45\n      jump\t// in\n    tag_44:\n      mload(0x40)\n      dup1\n      swap2\n      sub\n      swap1\n      revert\n    tag_43:\n        /* \"contracts/MyToken.sol\":1124:1262  function Transfer(address _reciever,uint amount) public returns (bool){\r... */\n      swap3\n      swap2\n      pop\n      pop\n      jump\t// out\n        /* \"contracts/MyToken.sol\":1007:1116  function balanceOf(address _account) public view returns (uint256){\r... */\n    tag_26:\n        /* \"contracts/MyToken.sol\":1065:1072  uint256 */\n      0x00\n        /* \"contracts/MyToken.sol\":1091:1098  balance */\n      0x04\n        /* \"contracts/MyToken.sol\":1091:1108  balance[_account] */\n      0x00\n        /* \"contracts/MyToken.sol\":1099:1107  _account */\n      dup4\n        /* \"contracts/MyToken.sol\":1091:1108  balance[_account] */\n      0xffffffffffffffffffffffffffffffffffffffff\n      and\n      0xffffffffffffffffffffffffffffffffffffffff\n      and\n      dup2\n      mstore\n      0x20\n      add\n      swap1\n      dup2\n      mstore\n      0x20\n      add\n      0x00\n      keccak256\n      sload\n        /* \"contracts/MyToken.sol\":1084:1108  return balance[_account] */\n      swap1\n      pop\n        /* \"contracts/MyToken.sol\":1007:1116  function balanceOf(address _account) public view returns (uint256){\r... */\n      swap2\n      swap1\n      pop\n      jump\t// out\n        /* \"contracts/MyToken.sol\":822:901  function decimal() public view returns (uint){\r... */\n    tag_29:\n        /* \"contracts/MyToken.sol\":862:866  uint */\n      0x00\n        /* \"contracts/MyToken.sol\":885:893  _decimal */\n      0x02\n      0x00\n      swap1\n      sload\n      swap1\n      0x0100\n      exp\n      swap1\n      div\n      0xffffffff\n      and\n        /* \"contracts/MyToken.sol\":878:893  return _decimal */\n      0xffffffff\n      and\n      swap1\n      pop\n        /* \"contracts/MyToken.sol\":822:901  function decimal() public view returns (uint){\r... */\n      swap1\n      jump\t// out\n        /* \"contracts/MyToken.sol\":728:814  function symbol() public view returns (string memory){\r... */\n    tag_32:\n        /* \"contracts/MyToken.sol\":767:780  string memory */\n      0x60\n        /* \"contracts/MyToken.sol\":799:806  _symbol */\n      0x01\n        /* \"contracts/MyToken.sol\":792:806  return _symbol */\n      dup1\n      sload\n      tag_49\n      swap1\n      tag_36\n      jump\t// in\n    tag_49:\n      dup1\n      0x1f\n      add\n      0x20\n      dup1\n      swap2\n      div\n      mul\n      0x20\n      add\n      mload(0x40)\n      swap1\n      dup2\n      add\n      0x40\n      mstore\n      dup1\n      swap3\n      swap2\n      swap1\n      dup2\n      dup2\n      mstore\n      0x20\n      add\n      dup3\n      dup1\n      sload\n      tag_50\n      swap1\n      tag_36\n      jump\t// in\n    tag_50:\n      dup1\n      iszero\n      tag_51\n      jumpi\n      dup1\n      0x1f\n      lt\n      tag_52\n      jumpi\n      0x0100\n      dup1\n      dup4\n      sload\n      div\n      mul\n      dup4\n      mstore\n      swap2\n      0x20\n      add\n      swap2\n      jump(tag_51)\n    tag_52:\n      dup3\n      add\n      swap2\n      swap1\n      0x00\n      mstore\n      keccak256(0x00, 0x20)\n      swap1\n    tag_53:\n      dup2\n      sload\n      dup2\n      mstore\n      swap1\n      0x01\n      add\n      swap1\n      0x20\n      add\n      dup1\n      dup4\n      gt\n      tag_53\n      jumpi\n      dup3\n      swap1\n      sub\n      0x1f\n      and\n      dup3\n      add\n      swap2\n    tag_51:\n      pop\n      pop\n      pop\n      pop\n      pop\n      swap1\n      pop\n        /* \"contracts/MyToken.sol\":728:814  function symbol() public view returns (string memory){\r... */\n      swap1\n      jump\t// out\n        /* \"#utility.yul\":7:146   */\n    tag_55:\n        /* \"#utility.yul\":53:58   */\n      0x00\n        /* \"#utility.yul\":91:97   */\n      dup2\n        /* \"#utility.yul\":78:98   */\n      calldataload\n        /* \"#utility.yul\":69:98   */\n      swap1\n      pop\n        /* \"#utility.yul\":107:140   */\n      tag_57\n        /* \"#utility.yul\":134:139   */\n      dup2\n        /* \"#utility.yul\":107:140   */\n      tag_58\n      jump\t// in\n    tag_57:\n        /* \"#utility.yul\":7:146   */\n      swap3\n      swap2\n      pop\n      pop\n      jump\t// out\n        /* \"#utility.yul\":152:291   */\n    tag_59:\n        /* \"#utility.yul\":198:203   */\n      0x00\n        /* \"#utility.yul\":236:242   */\n      dup2\n        /* \"#utility.yul\":223:243   */\n      calldataload\n        /* \"#utility.yul\":214:243   */\n      swap1\n      pop\n        /* \"#utility.yul\":252:285   */\n      tag_61\n        /* \"#utility.yul\":279:284   */\n      dup2\n        /* \"#utility.yul\":252:285   */\n      tag_62\n      jump\t// in\n    tag_61:\n        /* \"#utility.yul\":152:291   */\n      swap3\n      swap2\n      pop\n      pop\n      jump\t// out\n        /* \"#utility.yul\":297:626   */\n    tag_25:\n        /* \"#utility.yul\":356:362   */\n      0x00\n        /* \"#utility.yul\":405:407   */\n      0x20\n        /* \"#utility.yul\":393:402   */\n      dup3\n        /* \"#utility.yul\":384:391   */\n      dup5\n        /* \"#utility.yul\":380:403   */\n      sub\n        /* \"#utility.yul\":376:408   */\n      slt\n        /* \"#utility.yul\":373:492   */\n      iszero\n      tag_64\n      jumpi\n        /* \"#utility.yul\":411:490   */\n      tag_65\n      tag_66\n      jump\t// in\n    tag_65:\n        /* \"#utility.yul\":373:492   */\n    tag_64:\n        /* \"#utility.yul\":531:532   */\n      0x00\n        /* \"#utility.yul\":556:609   */\n      tag_67\n        /* \"#utility.yul\":601:608   */\n      dup5\n        /* \"#utility.yul\":592:598   */\n      dup3\n        /* \"#utility.yul\":581:590   */\n      dup6\n        /* \"#utility.yul\":577:599   */\n      add\n        /* \"#utility.yul\":556:609   */\n      tag_55\n      jump\t// in\n    tag_67:\n        /* \"#utility.yul\":546:609   */\n      swap2\n      pop\n        /* \"#utility.yul\":502:619   */\n      pop\n        /* \"#utility.yul\":297:626   */\n      swap3\n      swap2\n      pop\n      pop\n      jump\t// out\n        /* \"#utility.yul\":632:1106   */\n    tag_19:\n        /* \"#utility.yul\":700:706   */\n      0x00\n        /* \"#utility.yul\":708:714   */\n      dup1\n        /* \"#utility.yul\":757:759   */\n      0x40\n        /* \"#utility.yul\":745:754   */\n      dup4\n        /* \"#utility.yul\":736:743   */\n      dup6\n        /* \"#utility.yul\":732:755   */\n      sub\n        /* \"#utility.yul\":728:760   */\n      slt\n        /* \"#utility.yul\":725:844   */\n      iszero\n      tag_69\n      jumpi\n        /* \"#utility.yul\":763:842   */\n      tag_70\n      tag_66\n      jump\t// in\n    tag_70:\n        /* \"#utility.yul\":725:844   */\n    tag_69:\n        /* \"#utility.yul\":883:884   */\n      0x00\n        /* \"#utility.yul\":908:961   */\n      tag_71\n        /* \"#utility.yul\":953:960   */\n      dup6\n        /* \"#utility.yul\":944:950   */\n      dup3\n        /* \"#utility.yul\":933:942   */\n      dup7\n        /* \"#utility.yul\":929:951   */\n      add\n        /* \"#utility.yul\":908:961   */\n      tag_55\n      jump\t// in\n    tag_71:\n        /* \"#utility.yul\":898:961   */\n      swap3\n      pop\n        /* \"#utility.yul\":854:971   */\n      pop\n        /* \"#utility.yul\":1010:1012   */\n      0x20\n        /* \"#utility.yul\":1036:1089   */\n      tag_72\n        /* \"#utility.yul\":1081:1088   */\n      dup6\n        /* \"#utility.yul\":1072:1078   */\n      dup3\n        /* \"#utility.yul\":1061:1070   */\n      dup7\n        /* \"#utility.yul\":1057:1079   */\n      add\n        /* \"#utility.yul\":1036:1089   */\n      tag_59\n      jump\t// in\n    tag_72:\n        /* \"#utility.yul\":1026:1089   */\n      swap2\n      pop\n        /* \"#utility.yul\":981:1099   */\n      pop\n        /* \"#utility.yul\":632:1106   */\n      swap3\n      pop\n      swap3\n      swap1\n      pop\n      jump\t// out\n        /* \"#utility.yul\":1112:1221   */\n    tag_73:\n        /* \"#utility.yul\":1193:1214   */\n      tag_75\n        /* \"#utility.yul\":1208:1213   */\n      dup2\n        /* \"#utility.yul\":1193:1214   */\n      tag_76\n      jump\t// in\n    tag_75:\n        /* \"#utility.yul\":1188:1191   */\n      dup3\n        /* \"#utility.yul\":1181:1215   */\n      mstore\n        /* \"#utility.yul\":1112:1221   */\n      pop\n      pop\n      jump\t// out\n        /* \"#utility.yul\":1227:1591   */\n    tag_77:\n        /* \"#utility.yul\":1315:1318   */\n      0x00\n        /* \"#utility.yul\":1343:1382   */\n      tag_79\n        /* \"#utility.yul\":1376:1381   */\n      dup3\n        /* \"#utility.yul\":1343:1382   */\n      tag_80\n      jump\t// in\n    tag_79:\n        /* \"#utility.yul\":1398:1469   */\n      tag_81\n        /* \"#utility.yul\":1462:1468   */\n      dup2\n        /* \"#utility.yul\":1457:1460   */\n      dup6\n        /* \"#utility.yul\":1398:1469   */\n      tag_82\n      jump\t// in\n    tag_81:\n        /* \"#utility.yul\":1391:1469   */\n      swap4\n      pop\n        /* \"#utility.yul\":1478:1530   */\n      tag_83\n        /* \"#utility.yul\":1523:1529   */\n      dup2\n        /* \"#utility.yul\":1518:1521   */\n      dup6\n        /* \"#utility.yul\":1511:1515   */\n      0x20\n        /* \"#utility.yul\":1504:1509   */\n      dup7\n        /* \"#utility.yul\":1500:1516   */\n      add\n        /* \"#utility.yul\":1478:1530   */\n      tag_84\n      jump\t// in\n    tag_83:\n        /* \"#utility.yul\":1555:1584   */\n      tag_85\n        /* \"#utility.yul\":1577:1583   */\n      dup2\n        /* \"#utility.yul\":1555:1584   */\n      tag_86\n      jump\t// in\n    tag_85:\n        /* \"#utility.yul\":1550:1553   */\n      dup5\n        /* \"#utility.yul\":1546:1585   */\n      add\n        /* \"#utility.yul\":1539:1585   */\n      swap2\n      pop\n        /* \"#utility.yul\":1319:1591   */\n      pop\n        /* \"#utility.yul\":1227:1591   */\n      swap3\n      swap2\n      pop\n      pop\n      jump\t// out\n        /* \"#utility.yul\":1597:1963   */\n    tag_87:\n        /* \"#utility.yul\":1739:1742   */\n      0x00\n        /* \"#utility.yul\":1760:1827   */\n      tag_89\n        /* \"#utility.yul\":1824:1826   */\n      0x0f\n        /* \"#utility.yul\":1819:1822   */\n      dup4\n        /* \"#utility.yul\":1760:1827   */\n      tag_82\n      jump\t// in\n    tag_89:\n        /* \"#utility.yul\":1753:1827   */\n      swap2\n      pop\n        /* \"#utility.yul\":1836:1929   */\n      tag_90\n        /* \"#utility.yul\":1925:1928   */\n      dup3\n        /* \"#utility.yul\":1836:1929   */\n      tag_91\n      jump\t// in\n    tag_90:\n        /* \"#utility.yul\":1954:1956   */\n      0x20\n        /* \"#utility.yul\":1949:1952   */\n      dup3\n        /* \"#utility.yul\":1945:1957   */\n      add\n        /* \"#utility.yul\":1938:1957   */\n      swap1\n      pop\n        /* \"#utility.yul\":1597:1963   */\n      swap2\n      swap1\n      pop\n      jump\t// out\n        /* \"#utility.yul\":1969:2087   */\n    tag_92:\n        /* \"#utility.yul\":2056:2080   */\n      tag_94\n        /* \"#utility.yul\":2074:2079   */\n      dup2\n        /* \"#utility.yul\":2056:2080   */\n      tag_95\n      jump\t// in\n    tag_94:\n        /* \"#utility.yul\":2051:2054   */\n      dup3\n        /* \"#utility.yul\":2044:2081   */\n      mstore\n        /* \"#utility.yul\":1969:2087   */\n      pop\n      pop\n      jump\t// out\n        /* \"#utility.yul\":2093:2303   */\n    tag_22:\n        /* \"#utility.yul\":2180:2184   */\n      0x00\n        /* \"#utility.yul\":2218:2220   */\n      0x20\n        /* \"#utility.yul\":2207:2216   */\n      dup3\n        /* \"#utility.yul\":2203:2221   */\n      add\n        /* \"#utility.yul\":2195:2221   */\n      swap1\n      pop\n        /* \"#utility.yul\":2231:2296   */\n      tag_97\n        /* \"#utility.yul\":2293:2294   */\n      0x00\n        /* \"#utility.yul\":2282:2291   */\n      dup4\n        /* \"#utility.yul\":2278:2295   */\n      add\n        /* \"#utility.yul\":2269:2275   */\n      dup5\n        /* \"#utility.yul\":2231:2296   */\n      tag_73\n      jump\t// in\n    tag_97:\n        /* \"#utility.yul\":2093:2303   */\n      swap3\n      swap2\n      pop\n      pop\n      jump\t// out\n        /* \"#utility.yul\":2309:2622   */\n    tag_12:\n        /* \"#utility.yul\":2422:2426   */\n      0x00\n        /* \"#utility.yul\":2460:2462   */\n      0x20\n        /* \"#utility.yul\":2449:2458   */\n      dup3\n        /* \"#utility.yul\":2445:2463   */\n      add\n        /* \"#utility.yul\":2437:2463   */\n      swap1\n      pop\n        /* \"#utility.yul\":2509:2518   */\n      dup2\n        /* \"#utility.yul\":2503:2507   */\n      dup2\n        /* \"#utility.yul\":2499:2519   */\n      sub\n        /* \"#utility.yul\":2495:2496   */\n      0x00\n        /* \"#utility.yul\":2484:2493   */\n      dup4\n        /* \"#utility.yul\":2480:2497   */\n      add\n        /* \"#utility.yul\":2473:2520   */\n      mstore\n        /* \"#utility.yul\":2537:2615   */\n      tag_99\n        /* \"#utility.yul\":2610:2614   */\n      dup2\n        /* \"#utility.yul\":2601:2607   */\n      dup5\n        /* \"#utility.yul\":2537:2615   */\n      tag_77\n      jump\t// in\n    tag_99:\n        /* \"#utility.yul\":2529:2615   */\n      swap1\n      pop\n        /* \"#utility.yul\":2309:2622   */\n      swap3\n      swap2\n      pop\n      pop\n      jump\t// out\n        /* \"#utility.yul\":2628:3047   */\n    tag_45:\n        /* \"#utility.yul\":2794:2798   */\n      0x00\n        /* \"#utility.yul\":2832:2834   */\n      0x20\n        /* \"#utility.yul\":2821:2830   */\n      dup3\n        /* \"#utility.yul\":2817:2835   */\n      add\n        /* \"#utility.yul\":2809:2835   */\n      swap1\n      pop\n        /* \"#utility.yul\":2881:2890   */\n      dup2\n        /* \"#utility.yul\":2875:2879   */\n      dup2\n        /* \"#utility.yul\":2871:2891   */\n      sub\n        /* \"#utility.yul\":2867:2868   */\n      0x00\n        /* \"#utility.yul\":2856:2865   */\n      dup4\n        /* \"#utility.yul\":2852:2869   */\n      add\n        /* \"#utility.yul\":2845:2892   */\n      mstore\n        /* \"#utility.yul\":2909:3040   */\n      tag_101\n        /* \"#utility.yul\":3035:3039   */\n      dup2\n        /* \"#utility.yul\":2909:3040   */\n      tag_87\n      jump\t// in\n    tag_101:\n        /* \"#utility.yul\":2901:3040   */\n      swap1\n      pop\n        /* \"#utility.yul\":2628:3047   */\n      swap2\n      swap1\n      pop\n      jump\t// out\n        /* \"#utility.yul\":3053:3275   */\n    tag_16:\n        /* \"#utility.yul\":3146:3150   */\n      0x00\n        /* \"#utility.yul\":3184:3186   */\n      0x20\n        /* \"#utility.yul\":3173:3182   */\n      dup3\n        /* \"#utility.yul\":3169:3187   */\n      add\n        /* \"#utility.yul\":3161:3187   */\n      swap1\n      pop\n        /* \"#utility.yul\":3197:3268   */\n      tag_103\n        /* \"#utility.yul\":3265:3266   */\n      0x00\n        /* \"#utility.yul\":3254:3263   */\n      dup4\n        /* \"#utility.yul\":3250:3267   */\n      add\n        /* \"#utility.yul\":3241:3247   */\n      dup5\n        /* \"#utility.yul\":3197:3268   */\n      tag_92\n      jump\t// in\n    tag_103:\n        /* \"#utility.yul\":3053:3275   */\n      swap3\n      swap2\n      pop\n      pop\n      jump\t// out\n        /* \"#utility.yul\":3362:3461   */\n    tag_80:\n        /* \"#utility.yul\":3414:3420   */\n      0x00\n        /* \"#utility.yul\":3448:3453   */\n      dup2\n        /* \"#utility.yul\":3442:3454   */\n      mload\n        /* \"#utility.yul\":3432:3454   */\n      swap1\n      pop\n        /* \"#utility.yul\":3362:3461   */\n      swap2\n      swap1\n      pop\n      jump\t// out\n        /* \"#utility.yul\":3467:3636   */\n    tag_82:\n        /* \"#utility.yul\":3551:3562   */\n      0x00\n        /* \"#utility.yul\":3585:3591   */\n      dup3\n        /* \"#utility.yul\":3580:3583   */\n      dup3\n        /* \"#utility.yul\":3573:3592   */\n      mstore\n        /* \"#utility.yul\":3625:3629   */\n      0x20\n        /* \"#utility.yul\":3620:3623   */\n      dup3\n        /* \"#utility.yul\":3616:3630   */\n      add\n        /* \"#utility.yul\":3601:3630   */\n      swap1\n      pop\n        /* \"#utility.yul\":3467:3636   */\n      swap3\n      swap2\n      pop\n      pop\n      jump\t// out\n        /* \"#utility.yul\":3642:3738   */\n    tag_108:\n        /* \"#utility.yul\":3679:3686   */\n      0x00\n        /* \"#utility.yul\":3708:3732   */\n      tag_110\n        /* \"#utility.yul\":3726:3731   */\n      dup3\n        /* \"#utility.yul\":3708:3732   */\n      tag_111\n      jump\t// in\n    tag_110:\n        /* \"#utility.yul\":3697:3732   */\n      swap1\n      pop\n        /* \"#utility.yul\":3642:3738   */\n      swap2\n      swap1\n      pop\n      jump\t// out\n        /* \"#utility.yul\":3744:3834   */\n    tag_76:\n        /* \"#utility.yul\":3778:3785   */\n      0x00\n        /* \"#utility.yul\":3821:3826   */\n      dup2\n        /* \"#utility.yul\":3814:3827   */\n      iszero\n        /* \"#utility.yul\":3807:3828   */\n      iszero\n        /* \"#utility.yul\":3796:3828   */\n      swap1\n      pop\n        /* \"#utility.yul\":3744:3834   */\n      swap2\n      swap1\n      pop\n      jump\t// out\n        /* \"#utility.yul\":3840:3966   */\n    tag_111:\n        /* \"#utility.yul\":3877:3884   */\n      0x00\n        /* \"#utility.yul\":3917:3959   */\n      0xffffffffffffffffffffffffffffffffffffffff\n        /* \"#utility.yul\":3910:3915   */\n      dup3\n        /* \"#utility.yul\":3906:3960   */\n      and\n        /* \"#utility.yul\":3895:3960   */\n      swap1\n      pop\n        /* \"#utility.yul\":3840:3966   */\n      swap2\n      swap1\n      pop\n      jump\t// out\n        /* \"#utility.yul\":3972:4049   */\n    tag_95:\n        /* \"#utility.yul\":4009:4016   */\n      0x00\n        /* \"#utility.yul\":4038:4043   */\n      dup2\n        /* \"#utility.yul\":4027:4043   */\n      swap1\n      pop\n        /* \"#utility.yul\":3972:4049   */\n      swap2\n      swap1\n      pop\n      jump\t// out\n        /* \"#utility.yul\":4055:4362   */\n    tag_84:\n        /* \"#utility.yul\":4123:4124   */\n      0x00\n        /* \"#utility.yul\":4133:4246   */\n    tag_116:\n        /* \"#utility.yul\":4147:4153   */\n      dup4\n        /* \"#utility.yul\":4144:4145   */\n      dup2\n        /* \"#utility.yul\":4141:4154   */\n      lt\n        /* \"#utility.yul\":4133:4246   */\n      iszero\n      tag_118\n      jumpi\n        /* \"#utility.yul\":4232:4233   */\n      dup1\n        /* \"#utility.yul\":4227:4230   */\n      dup3\n        /* \"#utility.yul\":4223:4234   */\n      add\n        /* \"#utility.yul\":4217:4235   */\n      mload\n        /* \"#utility.yul\":4213:4214   */\n      dup2\n        /* \"#utility.yul\":4208:4211   */\n      dup5\n        /* \"#utility.yul\":4204:4215   */\n      add\n        /* \"#utility.yul\":4197:4236   */\n      mstore\n        /* \"#utility.yul\":4169:4171   */\n      0x20\n        /* \"#utility.yul\":4166:4167   */\n      dup2\n        /* \"#utility.yul\":4162:4172   */\n      add\n        /* \"#utility.yul\":4157:4172   */\n      swap1\n      pop\n        /* \"#utility.yul\":4133:4246   */\n      jump(tag_116)\n    tag_118:\n        /* \"#utility.yul\":4264:4270   */\n      dup4\n        /* \"#utility.yul\":4261:4262   */\n      dup2\n        /* \"#utility.yul\":4258:4271   */\n      gt\n        /* \"#utility.yul\":4255:4356   */\n      iszero\n      tag_119\n      jumpi\n        /* \"#utility.yul\":4344:4345   */\n      0x00\n        /* \"#utility.yul\":4335:4341   */\n      dup5\n        /* \"#utility.yul\":4330:4333   */\n      dup5\n        /* \"#utility.yul\":4326:4342   */\n      add\n        /* \"#utility.yul\":4319:4346   */\n      mstore\n        /* \"#utility.yul\":4255:4356   */\n    tag_119:\n        /* \"#utility.yul\":4104:4362   */\n      pop\n        /* \"#utility.yul\":4055:4362   */\n      pop\n      pop\n      pop\n      jump\t// out\n        /* \"#utility.yul\":4368:4688   */\n    tag_36:\n        /* \"#utility.yul\":4412:4418   */\n      0x00\n        /* \"#utility.yul\":4449:4450   */\n      0x02\n        /* \"#utility.yul\":4443:4447   */\n      dup3\n        /* \"#utility.yul\":4439:4451   */\n      div\n        /* \"#utility.yul\":4429:4451   */\n      swap1\n      pop\n        /* \"#utility.yul\":4496:4497   */\n      0x01\n        /* \"#utility.yul\":4490:4494   */\n      dup3\n        /* \"#utility.yul\":4486:4498   */\n      and\n        /* \"#utility.yul\":4517:4535   */\n      dup1\n        /* \"#utility.yul\":4507:4588   */\n      tag_121\n      jumpi\n        /* \"#utility.yul\":4573:4577   */\n      0x7f\n        /* \"#utility.yul\":4565:4571   */\n      dup3\n        /* \"#utility.yul\":4561:4578   */\n      and\n        /* \"#utility.yul\":4551:4578   */\n      swap2\n      pop\n        /* \"#utility.yul\":4507:4588   */\n    tag_121:\n        /* \"#utility.yul\":4635:4637   */\n      0x20\n        /* \"#utility.yul\":4627:4633   */\n      dup3\n        /* \"#utility.yul\":4624:4638   */\n      lt\n        /* \"#utility.yul\":4604:4622   */\n      dup2\n        /* \"#utility.yul\":4601:4639   */\n      eq\n        /* \"#utility.yul\":4598:4682   */\n      iszero\n      tag_122\n      jumpi\n        /* \"#utility.yul\":4654:4672   */\n      tag_123\n      tag_124\n      jump\t// in\n    tag_123:\n        /* \"#utility.yul\":4598:4682   */\n    tag_122:\n        /* \"#utility.yul\":4419:4688   */\n      pop\n        /* \"#utility.yul\":4368:4688   */\n      swap2\n      swap1\n      pop\n      jump\t// out\n        /* \"#utility.yul\":4694:4874   */\n    tag_124:\n        /* \"#utility.yul\":4742:4819   */\n      0x4e487b7100000000000000000000000000000000000000000000000000000000\n        /* \"#utility.yul\":4739:4740   */\n      0x00\n        /* \"#utility.yul\":4732:4820   */\n      mstore\n        /* \"#utility.yul\":4839:4843   */\n      0x22\n        /* \"#utility.yul\":4836:4837   */\n      0x04\n        /* \"#utility.yul\":4829:4844   */\n      mstore\n        /* \"#utility.yul\":4863:4867   */\n      0x24\n        /* \"#utility.yul\":4860:4861   */\n      0x00\n        /* \"#utility.yul\":4853:4868   */\n      revert\n        /* \"#utility.yul\":5003:5120   */\n    tag_66:\n        /* \"#utility.yul\":5112:5113   */\n      0x00\n        /* \"#utility.yul\":5109:5110   */\n      dup1\n        /* \"#utility.yul\":5102:5114   */\n      revert\n        /* \"#utility.yul\":5126:5228   */\n    tag_86:\n        /* \"#utility.yul\":5167:5173   */\n      0x00\n        /* \"#utility.yul\":5218:5220   */\n      0x1f\n        /* \"#utility.yul\":5214:5221   */\n      not\n        /* \"#utility.yul\":5209:5211   */\n      0x1f\n        /* \"#utility.yul\":5202:5207   */\n      dup4\n        /* \"#utility.yul\":5198:5212   */\n      add\n        /* \"#utility.yul\":5194:5222   */\n      and\n        /* \"#utility.yul\":5184:5222   */\n      swap1\n      pop\n        /* \"#utility.yul\":5126:5228   */\n      swap2\n      swap1\n      pop\n      jump\t// out\n        /* \"#utility.yul\":5234:5399   */\n    tag_91:\n        /* \"#utility.yul\":5374:5391   */\n      0x496e76616c696420416464726573730000000000000000000000000000000000\n        /* \"#utility.yul\":5370:5371   */\n      0x00\n        /* \"#utility.yul\":5362:5368   */\n      dup3\n        /* \"#utility.yul\":5358:5372   */\n      add\n        /* \"#utility.yul\":5351:5392   */\n      mstore\n        /* \"#utility.yul\":5234:5399   */\n      pop\n      jump\t// out\n        /* \"#utility.yul\":5405:5527   */\n    tag_58:\n        /* \"#utility.yul\":5478:5502   */\n      tag_132\n        /* \"#utility.yul\":5496:5501   */\n      dup2\n        /* \"#utility.yul\":5478:5502   */\n      tag_108\n      jump\t// in\n    tag_132:\n        /* \"#utility.yul\":5471:5476   */\n      dup2\n        /* \"#utility.yul\":5468:5503   */\n      eq\n        /* \"#utility.yul\":5458:5521   */\n      tag_133\n      jumpi\n        /* \"#utility.yul\":5517:5518   */\n      0x00\n        /* \"#utility.yul\":5514:5515   */\n      dup1\n        /* \"#utility.yul\":5507:5519   */\n      revert\n        /* \"#utility.yul\":5458:5521   */\n    tag_133:\n        /* \"#utility.yul\":5405:5527   */\n      pop\n      jump\t// out\n        /* \"#utility.yul\":5533:5655   */\n    tag_62:\n        /* \"#utility.yul\":5606:5630   */\n      tag_135\n        /* \"#utility.yul\":5624:5629   */\n      dup2\n        /* \"#utility.yul\":5606:5630   */\n      tag_95\n      jump\t// in\n    tag_135:\n        /* \"#utility.yul\":5599:5604   */\n      dup2\n        /* \"#utility.yul\":5596:5631   */\n      eq\n        /* \"#utility.yul\":5586:5649   */\n      tag_136\n      jumpi\n        /* \"#utility.yul\":5645:5646   */\n      0x00\n        /* \"#utility.yul\":5642:5643   */\n      dup1\n        /* \"#utility.yul\":5635:5647   */\n      revert\n        /* \"#utility.yul\":5586:5649   */\n    tag_136:\n        /* \"#utility.yul\":5533:5655   */\n      pop\n      jump\t// out\n\n    auxdata: 0xa2646970667358221220d7340179f86c78611eb7f18e4ea58765bfda89fb7619b532786093d51c42497a64736f6c63430008070033\n}\n",
				"bytecode": {
					"linkReferences": {},
					"object": "608060405234801561001057600080fd5b506040518060400160405280600e81526020017f4d7920666972737420746f6b656e0000000000000000000000000000000000008152506000908051906020019061005c929190610120565b506040518060400160405280600381526020017f4d46540000000000000000000000000000000000000000000000000000000000815250600190805190602001906100a8929190610120565b506000600260006101000a81548163ffffffff021916908363ffffffff160217905550620f4240600381905550600354600460003373ffffffffffffffffffffffffffffffffffffffff1673ffffffffffffffffffffffffffffffffffffffff16815260200190815260200160002081905550610224565b82805461012c906101c3565b90600052602060002090601f01602090048101928261014e5760008555610195565b82601f1061016757805160ff1916838001178555610195565b82800160010185558215610195579182015b82811115610194578251825591602001919060010190610179565b5b5090506101a291906101a6565b5090565b5b808211156101bf5760008160009055506001016101a7565b5090565b600060028204905060018216806101db57607f821691505b602082108114156101ef576101ee6101f5565b5b50919050565b7f4e487b7100000000000000000000000000000000000000000000000000000000600052602260045260246000fd5b610671806102336000396000f3fe608060405234801561001057600080fd5b50600436106100625760003560e01c806306fdde031461006757806318160ddd1461008557806369ca02dd146100a357806370a08231146100d357806376809ce31461010357806395d89b4114610121575b600080fd5b61006f61013f565b60405161007c9190610479565b60405180910390f35b61008d6101d1565b60405161009a91906104bb565b60405180910390f35b6100bd60048036038101906100b891906103a4565b6101db565b6040516100ca919061045e565b60405180910390f35b6100ed60048036038101906100e89190610377565b610252565b6040516100fa91906104bb565b60405180910390f35b61010b61029b565b60405161011891906104bb565b60405180910390f35b6101296102bb565b6040516101369190610479565b60405180910390f35b60606000805461014e9061056d565b80601f016020809104026020016040519081016040528092919081815260200182805461017a9061056d565b80156101c75780601f1061019c576101008083540402835291602001916101c7565b820191906000526020600020905b8154815290600101906020018083116101aa57829003601f168201915b5050505050905090565b6000600354905090565b60008073ffffffffffffffffffffffffffffffffffffffff168373ffffffffffffffffffffffffffffffffffffffff16141561024c576040517f08c379a00000000000000000000000000000000000000000000000000000000081526004016102439061049b565b60405180910390fd5b92915050565b6000600460008373ffffffffffffffffffffffffffffffffffffffff1673ffffffffffffffffffffffffffffffffffffffff168152602001908152602001600020549050919050565b6000600260009054906101000a900463ffffffff1663ffffffff16905090565b6060600180546102ca9061056d565b80601f01602080910402602001604051908101604052809291908181526020018280546102f69061056d565b80156103435780601f1061031857610100808354040283529160200191610343565b820191906000526020600020905b81548152906001019060200180831161032657829003601f168201915b5050505050905090565b60008135905061035c8161060d565b92915050565b60008135905061037181610624565b92915050565b60006020828403121561038d5761038c6105ce565b5b600061039b8482850161034d565b91505092915050565b600080604083850312156103bb576103ba6105ce565b5b60006103c98582860161034d565b92505060206103da85828601610362565b9150509250929050565b6103ed81610504565b82525050565b60006103fe826104d6565b61040881856104e1565b935061041881856020860161053a565b610421816105d3565b840191505092915050565b6000610439600f836104e1565b9150610444826105e4565b602082019050919050565b61045881610530565b82525050565b600060208201905061047360008301846103e4565b92915050565b6000602082019050818103600083015261049381846103f3565b905092915050565b600060208201905081810360008301526104b48161042c565b9050919050565b60006020820190506104d0600083018461044f565b92915050565b600081519050919050565b600082825260208201905092915050565b60006104fd82610510565b9050919050565b60008115159050919050565b600073ffffffffffffffffffffffffffffffffffffffff82169050919050565b6000819050919050565b60005b8381101561055857808201518184015260208101905061053d565b83811115610567576000848401525b50505050565b6000600282049050600182168061058557607f821691505b602082108114156105995761059861059f565b5b50919050565b7f4e487b7100000000000000000000000000000000000000000000000000000000600052602260045260246000fd5b600080fd5b6000601f19601f8301169050919050565b7f496e76616c696420416464726573730000000000000000000000000000000000600082015250565b610616816104f2565b811461062157600080fd5b50565b61062d81610530565b811461063857600080fd5b5056fea2646970667358221220d7340179f86c78611eb7f18e4ea58765bfda89fb7619b532786093d51c42497a64736f6c63430008070033",
					"opcodes": "PUSH1 0x80 PUSH1 0x40 MSTORE CALLVALUE DUP1 ISZERO PUSH2 0x10 JUMPI PUSH1 0x0 DUP1 REVERT JUMPDEST POP PUSH1 0x40 MLOAD DUP1 PUSH1 0x40 ADD PUSH1 0x40 MSTORE DUP1 PUSH1 0xE DUP2 MSTORE PUSH1 0x20 ADD PUSH32 0x4D7920666972737420746F6B656E000000000000000000000000000000000000 DUP2 MSTORE POP PUSH1 0x0 SWAP1 DUP1 MLOAD SWAP1 PUSH1 0x20 ADD SWAP1 PUSH2 0x5C SWAP3 SWAP2 SWAP1 PUSH2 0x120 JUMP JUMPDEST POP PUSH1 0x40 MLOAD DUP1 PUSH1 0x40 ADD PUSH1 0x40 MSTORE DUP1 PUSH1 0x3 DUP2 MSTORE PUSH1 0x20 ADD PUSH32 0x4D46540000000000000000000000000000000000000000000000000000000000 DUP2 MSTORE POP PUSH1 0x1 SWAP1 DUP1 MLOAD SWAP1 PUSH1 0x20 ADD SWAP1 PUSH2 0xA8 SWAP3 SWAP2 SWAP1 PUSH2 0x120 JUMP JUMPDEST POP PUSH1 0x0 PUSH1 0x2 PUSH1 0x0 PUSH2 0x100 EXP DUP2 SLOAD DUP2 PUSH4 0xFFFFFFFF MUL NOT AND SWAP1 DUP4 PUSH4 0xFFFFFFFF AND MUL OR SWAP1 SSTORE POP PUSH3 0xF4240 PUSH1 0x3 DUP2 SWAP1 SSTORE POP PUSH1 0x3 SLOAD PUSH1 0x4 PUSH1 0x0 CALLER PUSH20 0xFFFFFFFFFFFFFFFFFFFFFFFFFFFFFFFFFFFFFFFF AND PUSH20 0xFFFFFFFFFFFFFFFFFFFFFFFFFFFFFFFFFFFFFFFF AND DUP2 MSTORE PUSH1 0x20 ADD SWAP1 DUP2 MSTORE PUSH1 0x20 ADD PUSH1 0x0 KECCAK256 DUP2 SWAP1 SSTORE POP PUSH2 0x224 JUMP JUMPDEST DUP3 DUP1 SLOAD PUSH2 0x12C SWAP1 PUSH2 0x1C3 JUMP JUMPDEST SWAP1 PUSH1 0x0 MSTORE PUSH1 0x20 PUSH1 0x0 KECCAK256 SWAP1 PUSH1 0x1F ADD PUSH1 0x20 SWAP1 DIV DUP2 ADD SWAP3 DUP3 PUSH2 0x14E JUMPI PUSH1 0x0 DUP6 SSTORE PUSH2 0x195 JUMP JUMPDEST DUP3 PUSH1 0x1F LT PUSH2 0x167 JUMPI DUP1 MLOAD PUSH1 0xFF NOT AND DUP4 DUP1 ADD OR DUP6 SSTORE PUSH2 0x195 JUMP JUMPDEST DUP3 DUP1 ADD PUSH1 0x1 ADD DUP6 SSTORE DUP3 ISZERO PUSH2 0x195 JUMPI SWAP2 DUP3 ADD JUMPDEST DUP3 DUP2 GT ISZERO PUSH2 0x194 JUMPI DUP3 MLOAD DUP3 SSTORE SWAP2 PUSH1 0x20 ADD SWAP2 SWAP1 PUSH1 0x1 ADD SWAP1 PUSH2 0x179 JUMP JUMPDEST JUMPDEST POP SWAP1 POP PUSH2 0x1A2 SWAP2 SWAP1 PUSH2 0x1A6 JUMP JUMPDEST POP SWAP1 JUMP JUMPDEST JUMPDEST DUP1 DUP3 GT ISZERO PUSH2 0x1BF JUMPI PUSH1 0x0 DUP2 PUSH1 0x0 SWAP1 SSTORE POP PUSH1 0x1 ADD PUSH2 0x1A7 JUMP JUMPDEST POP SWAP1 JUMP JUMPDEST PUSH1 0x0 PUSH1 0x2 DUP3 DIV SWAP1 POP PUSH1 0x1 DUP3 AND DUP1 PUSH2 0x1DB JUMPI PUSH1 0x7F DUP3 AND SWAP2 POP JUMPDEST PUSH1 0x20 DUP3 LT DUP2 EQ ISZERO PUSH2 0x1EF JUMPI PUSH2 0x1EE PUSH2 0x1F5 JUMP JUMPDEST JUMPDEST POP SWAP2 SWAP1 POP JUMP JUMPDEST PUSH32 0x4E487B7100000000000000000000000000000000000000000000000000000000 PUSH1 0x0 MSTORE PUSH1 0x22 PUSH1 0x4 MSTORE PUSH1 0x24 PUSH1 0x0 REVERT JUMPDEST PUSH2 0x671 DUP1 PUSH2 0x233 PUSH1 0x0 CODECOPY PUSH1 0x0 RETURN INVALID PUSH1 0x80 PUSH1 0x40 MSTORE CALLVALUE DUP1 ISZERO PUSH2 0x10 JUMPI PUSH1 0x0 DUP1 REVERT JUMPDEST POP PUSH1 0x4 CALLDATASIZE LT PUSH2 0x62 JUMPI PUSH1 0x0 CALLDATALOAD PUSH1 0xE0 SHR DUP1 PUSH4 0x6FDDE03 EQ PUSH2 0x67 JUMPI DUP1 PUSH4 0x18160DDD EQ PUSH2 0x85 JUMPI DUP1 PUSH4 0x69CA02DD EQ PUSH2 0xA3 JUMPI DUP1 PUSH4 0x70A08231 EQ PUSH2 0xD3 JUMPI DUP1 PUSH4 0x76809CE3 EQ PUSH2 0x103 JUMPI DUP1 PUSH4 0x95D89B41 EQ PUSH2 0x121 JUMPI JUMPDEST PUSH1 0x0 DUP1 REVERT JUMPDEST PUSH2 0x6F PUSH2 0x13F JUMP JUMPDEST PUSH1 0x40 MLOAD PUSH2 0x7C SWAP2 SWAP1 PUSH2 0x479 JUMP JUMPDEST PUSH1 0x40 MLOAD DUP1 SWAP2 SUB SWAP1 RETURN JUMPDEST PUSH2 0x8D PUSH2 0x1D1 JUMP JUMPDEST PUSH1 0x40 MLOAD PUSH2 0x9A SWAP2 SWAP1 PUSH2 0x4BB JUMP JUMPDEST PUSH1 0x40 MLOAD DUP1 SWAP2 SUB SWAP1 RETURN JUMPDEST PUSH2 0xBD PUSH1 0x4 DUP1 CALLDATASIZE SUB DUP2 ADD SWAP1 PUSH2 0xB8 SWAP2 SWAP1 PUSH2 0x3A4 JUMP JUMPDEST PUSH2 0x1DB JUMP JUMPDEST PUSH1 0x40 MLOAD PUSH2 0xCA SWAP2 SWAP1 PUSH2 0x45E JUMP JUMPDEST PUSH1 0x40 MLOAD DUP1 SWAP2 SUB SWAP1 RETURN JUMPDEST PUSH2 0xED PUSH1 0x4 DUP1 CALLDATASIZE SUB DUP2 ADD SWAP1 PUSH2 0xE8 SWAP2 SWAP1 PUSH2 0x377 JUMP JUMPDEST PUSH2 0x252 JUMP JUMPDEST PUSH1 0x40 MLOAD PUSH2 0xFA SWAP2 SWAP1 PUSH2 0x4BB JUMP JUMPDEST PUSH1 0x40 MLOAD DUP1 SWAP2 SUB SWAP1 RETURN JUMPDEST PUSH2 0x10B PUSH2 0x29B JUMP JUMPDEST PUSH1 0x40 MLOAD PUSH2 0x118 SWAP2 SWAP1 PUSH2 0x4BB JUMP JUMPDEST PUSH1 0x40 MLOAD DUP1 SWAP2 SUB SWAP1 RETURN JUMPDEST PUSH2 0x129 PUSH2 0x2BB JUMP JUMPDEST PUSH1 0x40 MLOAD PUSH2 0x136 SWAP2 SWAP1 PUSH2 0x479 JUMP JUMPDEST PUSH1 0x40 MLOAD DUP1 SWAP2 SUB SWAP1 RETURN JUMPDEST PUSH1 0x60 PUSH1 0x0 DUP1 SLOAD PUSH2 0x14E SWAP1 PUSH2 0x56D JUMP JUMPDEST DUP1 PUSH1 0x1F ADD PUSH1 0x20 DUP1 SWAP2 DIV MUL PUSH1 0x20 ADD PUSH1 0x40 MLOAD SWAP1 DUP2 ADD PUSH1 0x40 MSTORE DUP1 SWAP3 SWAP2 SWAP1 DUP2 DUP2 MSTORE PUSH1 0x20 ADD DUP3 DUP1 SLOAD PUSH2 0x17A SWAP1 PUSH2 0x56D JUMP JUMPDEST DUP1 ISZERO PUSH2 0x1C7 JUMPI DUP1 PUSH1 0x1F LT PUSH2 0x19C JUMPI PUSH2 0x100 DUP1 DUP4 SLOAD DIV MUL DUP4 MSTORE SWAP2 PUSH1 0x20 ADD SWAP2 PUSH2 0x1C7 JUMP JUMPDEST DUP3 ADD SWAP2 SWAP1 PUSH1 0x0 MSTORE PUSH1 0x20 PUSH1 0x0 KECCAK256 SWAP1 JUMPDEST DUP2 SLOAD DUP2 MSTORE SWAP1 PUSH1 0x1 ADD SWAP1 PUSH1 0x20 ADD DUP1 DUP4 GT PUSH2 0x1AA JUMPI DUP3 SWAP1 SUB PUSH1 0x1F AND DUP3 ADD SWAP2 JUMPDEST POP POP POP POP POP SWAP1 POP SWAP1 JUMP JUMPDEST PUSH1 0x0 PUSH1 0x3 SLOAD SWAP1 POP SWAP1 JUMP JUMPDEST PUSH1 0x0 DUP1 PUSH20 0xFFFFFFFFFFFFFFFFFFFFFFFFFFFFFFFFFFFFFFFF AND DUP4 PUSH20 0xFFFFFFFFFFFFFFFFFFFFFFFFFFFFFFFFFFFFFFFF AND EQ ISZERO PUSH2 0x24C JUMPI PUSH1 0x40 MLOAD PUSH32 0x8C379A000000000000000000000000000000000000000000000000000000000 DUP2 MSTORE PUSH1 0x4 ADD PUSH2 0x243 SWAP1 PUSH2 0x49B JUMP JUMPDEST PUSH1 0x40 MLOAD DUP1 SWAP2 SUB SWAP1 REVERT JUMPDEST SWAP3 SWAP2 POP POP JUMP JUMPDEST PUSH1 0x0 PUSH1 0x4 PUSH1 0x0 DUP4 PUSH20 0xFFFFFFFFFFFFFFFFFFFFFFFFFFFFFFFFFFFFFFFF AND PUSH20 0xFFFFFFFFFFFFFFFFFFFFFFFFFFFFFFFFFFFFFFFF AND DUP2 MSTORE PUSH1 0x20 ADD SWAP1 DUP2 MSTORE PUSH1 0x20 ADD PUSH1 0x0 KECCAK256 SLOAD SWAP1 POP SWAP2 SWAP1 POP JUMP JUMPDEST PUSH1 0x0 PUSH1 0x2 PUSH1 0x0 SWAP1 SLOAD SWAP1 PUSH2 0x100 EXP SWAP1 DIV PUSH4 0xFFFFFFFF AND PUSH4 0xFFFFFFFF AND SWAP1 POP SWAP1 JUMP JUMPDEST PUSH1 0x60 PUSH1 0x1 DUP1 SLOAD PUSH2 0x2CA SWAP1 PUSH2 0x56D JUMP JUMPDEST DUP1 PUSH1 0x1F ADD PUSH1 0x20 DUP1 SWAP2 DIV MUL PUSH1 0x20 ADD PUSH1 0x40 MLOAD SWAP1 DUP2 ADD PUSH1 0x40 MSTORE DUP1 SWAP3 SWAP2 SWAP1 DUP2 DUP2 MSTORE PUSH1 0x20 ADD DUP3 DUP1 SLOAD PUSH2 0x2F6 SWAP1 PUSH2 0x56D JUMP JUMPDEST DUP1 ISZERO PUSH2 0x343 JUMPI DUP1 PUSH1 0x1F LT PUSH2 0x318 JUMPI PUSH2 0x100 DUP1 DUP4 SLOAD DIV MUL DUP4 MSTORE SWAP2 PUSH1 0x20 ADD SWAP2 PUSH2 0x343 JUMP JUMPDEST DUP3 ADD SWAP2 SWAP1 PUSH1 0x0 MSTORE PUSH1 0x20 PUSH1 0x0 KECCAK256 SWAP1 JUMPDEST DUP2 SLOAD DUP2 MSTORE SWAP1 PUSH1 0x1 ADD SWAP1 PUSH1 0x20 ADD DUP1 DUP4 GT PUSH2 0x326 JUMPI DUP3 SWAP1 SUB PUSH1 0x1F AND DUP3 ADD SWAP2 JUMPDEST POP POP POP POP POP SWAP1 POP SWAP1 JUMP JUMPDEST PUSH1 0x0 DUP2 CALLDATALOAD SWAP1 POP PUSH2 0x35C DUP2 PUSH2 0x60D JUMP JUMPDEST SWAP3 SWAP2 POP POP JUMP JUMPDEST PUSH1 0x0 DUP2 CALLDATALOAD SWAP1 POP PUSH2 0x371 DUP2 PUSH2 0x624 JUMP JUMPDEST SWAP3 SWAP2 POP POP JUMP JUMPDEST PUSH1 0x0 PUSH1 0x20 DUP3 DUP5 SUB SLT ISZERO PUSH2 0x38D JUMPI PUSH2 0x38C PUSH2 0x5CE JUMP JUMPDEST JUMPDEST PUSH1 0x0 PUSH2 0x39B DUP5 DUP3 DUP6 ADD PUSH2 0x34D JUMP JUMPDEST SWAP2 POP POP SWAP3 SWAP2 POP POP JUMP JUMPDEST PUSH1 0x0 DUP1 PUSH1 0x40 DUP4 DUP6 SUB SLT ISZERO PUSH2 0x3BB JUMPI PUSH2 0x3BA PUSH2 0x5CE JUMP JUMPDEST JUMPDEST PUSH1 0x0 PUSH2 0x3C9 DUP6 DUP3 DUP7 ADD PUSH2 0x34D JUMP JUMPDEST SWAP3 POP POP PUSH1 0x20 PUSH2 0x3DA DUP6 DUP3 DUP7 ADD PUSH2 0x362 JUMP JUMPDEST SWAP2 POP POP SWAP3 POP SWAP3 SWAP1 POP JUMP JUMPDEST PUSH2 0x3ED DUP2 PUSH2 0x504 JUMP JUMPDEST DUP3 MSTORE POP POP JUMP JUMPDEST PUSH1 0x0 PUSH2 0x3FE DUP3 PUSH2 0x4D6 JUMP JUMPDEST PUSH2 0x408 DUP2 DUP6 PUSH2 0x4E1 JUMP JUMPDEST SWAP4 POP PUSH2 0x418 DUP2 DUP6 PUSH1 0x20 DUP7 ADD PUSH2 0x53A JUMP JUMPDEST PUSH2 0x421 DUP2 PUSH2 0x5D3 JUMP JUMPDEST DUP5 ADD SWAP2 POP POP SWAP3 SWAP2 POP POP JUMP JUMPDEST PUSH1 0x0 PUSH2 0x439 PUSH1 0xF DUP4 PUSH2 0x4E1 JUMP JUMPDEST SWAP2 POP PUSH2 0x444 DUP3 PUSH2 0x5E4 JUMP JUMPDEST PUSH1 0x20 DUP3 ADD SWAP1 POP SWAP2 SWAP1 POP JUMP JUMPDEST PUSH2 0x458 DUP2 PUSH2 0x530 JUMP JUMPDEST DUP3 MSTORE POP POP JUMP JUMPDEST PUSH1 0x0 PUSH1 0x20 DUP3 ADD SWAP1 POP PUSH2 0x473 PUSH1 0x0 DUP4 ADD DUP5 PUSH2 0x3E4 JUMP JUMPDEST SWAP3 SWAP2 POP POP JUMP JUMPDEST PUSH1 0x0 PUSH1 0x20 DUP3 ADD SWAP1 POP DUP2 DUP2 SUB PUSH1 0x0 DUP4 ADD MSTORE PUSH2 0x493 DUP2 DUP5 PUSH2 0x3F3 JUMP JUMPDEST SWAP1 POP SWAP3 SWAP2 POP POP JUMP JUMPDEST PUSH1 0x0 PUSH1 0x20 DUP3 ADD SWAP1 POP DUP2 DUP2 SUB PUSH1 0x0 DUP4 ADD MSTORE PUSH2 0x4B4 DUP2 PUSH2 0x42C JUMP JUMPDEST SWAP1 POP SWAP2 SWAP1 POP JUMP JUMPDEST PUSH1 0x0 PUSH1 0x20 DUP3 ADD SWAP1 POP PUSH2 0x4D0 PUSH1 0x0 DUP4 ADD DUP5 PUSH2 0x44F JUMP JUMPDEST SWAP3 SWAP2 POP POP JUMP JUMPDEST PUSH1 0x0 DUP2 MLOAD SWAP1 POP SWAP2 SWAP1 POP JUMP JUMPDEST PUSH1 0x0 DUP3 DUP3 MSTORE PUSH1 0x20 DUP3 ADD SWAP1 POP SWAP3 SWAP2 POP POP JUMP JUMPDEST PUSH1 0x0 PUSH2 0x4FD DUP3 PUSH2 0x510 JUMP JUMPDEST SWAP1 POP SWAP2 SWAP1 POP JUMP JUMPDEST PUSH1 0x0 DUP2 ISZERO ISZERO SWAP1 POP SWAP2 SWAP1 POP JUMP JUMPDEST PUSH1 0x0 PUSH20 0xFFFFFFFFFFFFFFFFFFFFFFFFFFFFFFFFFFFFFFFF DUP3 AND SWAP1 POP SWAP2 SWAP1 POP JUMP JUMPDEST PUSH1 0x0 DUP2 SWAP1 POP SWAP2 SWAP1 POP JUMP JUMPDEST PUSH1 0x0 JUMPDEST DUP4 DUP2 LT ISZERO PUSH2 0x558 JUMPI DUP1 DUP3 ADD MLOAD DUP2 DUP5 ADD MSTORE PUSH1 0x20 DUP2 ADD SWAP1 POP PUSH2 0x53D JUMP JUMPDEST DUP4 DUP2 GT ISZERO PUSH2 0x567 JUMPI PUSH1 0x0 DUP5 DUP5 ADD MSTORE JUMPDEST POP POP POP POP JUMP JUMPDEST PUSH1 0x0 PUSH1 0x2 DUP3 DIV SWAP1 POP PUSH1 0x1 DUP3 AND DUP1 PUSH2 0x585 JUMPI PUSH1 0x7F DUP3 AND SWAP2 POP JUMPDEST PUSH1 0x20 DUP3 LT DUP2 EQ ISZERO PUSH2 0x599 JUMPI PUSH2 0x598 PUSH2 0x59F JUMP JUMPDEST JUMPDEST POP SWAP2 SWAP1 POP JUMP JUMPDEST PUSH32 0x4E487B7100000000000000000000000000000000000000000000000000000000 PUSH1 0x0 MSTORE PUSH1 0x22 PUSH1 0x4 MSTORE PUSH1 0x24 PUSH1 0x0 REVERT JUMPDEST PUSH1 0x0 DUP1 REVERT JUMPDEST PUSH1 0x0 PUSH1 0x1F NOT PUSH1 0x1F DUP4 ADD AND SWAP1 POP SWAP2 SWAP1 POP JUMP JUMPDEST PUSH32 0x496E76616C696420416464726573730000000000000000000000000000000000 PUSH1 0x0 DUP3 ADD MSTORE POP JUMP JUMPDEST PUSH2 0x616 DUP2 PUSH2 0x4F2 JUMP JUMPDEST DUP2 EQ PUSH2 0x621 JUMPI PUSH1 0x0 DUP1 REVERT JUMPDEST POP JUMP JUMPDEST PUSH2 0x62D DUP2 PUSH2 0x530 JUMP JUMPDEST DUP2 EQ PUSH2 0x638 JUMPI PUSH1 0x0 DUP1 REVERT JUMPDEST POP JUMP INVALID LOG2 PUSH5 0x6970667358 0x22 SLT KECCAK256 0xD7 CALLVALUE ADD PUSH26 0xF86C78611EB7F18E4EA58765BFDA89FB7619B532786093D51C42 0x49 PUSH27 0x64736F6C6343000807003300000000000000000000000000000000 "
				},
				"gasEstimates": {
					"creation": {
						"codeDepositCost": "329800",
						"executionCost": "infinite",
						"totalCost": "infinite"
					},
					"external": {
						"Transfer(address,uint256)": "976",
						"balanceOf(address)": "2885",
						"decimal()": "2545",
						"name()": "infinite",
						"symbol()": "infinite",
						"totalSupply()": "2437"
					}
				},
				"methodIdentifiers": {
					"Transfer(address,uint256)": "69ca02dd",
					"balanceOf(address)": "70a08231",
					"decimal()": "76809ce3",
					"name()": "06fdde03",
					"symbol()": "95d89b41",
					"totalSupply()": "18160ddd"
				}
			},
			"storageLayout": {
				"storage": [
					{
						"astId": 3,
						"contract": "contracts/MyToken.sol:MyToken",
						"label": "_name",
						"offset": 0,
						"slot": "0",
						"type": "t_string_storage"
					},
					{
						"astId": 5,
						"contract": "contracts/MyToken.sol:MyToken",
						"label": "_symbol",
						"offset": 0,
						"slot": "1",
						"type": "t_string_storage"
					},
					{
						"astId": 7,
						"contract": "contracts/MyToken.sol:MyToken",
						"label": "_decimal",
						"offset": 0,
						"slot": "2",
						"type": "t_uint32"
					},
					{
						"astId": 9,
						"contract": "contracts/MyToken.sol:MyToken",
						"label": "_totalSupply",
						"offset": 0,
						"slot": "3",
						"type": "t_uint256"
					},
					{
						"astId": 40,
						"contract": "contracts/MyToken.sol:MyToken",
						"label": "balance",
						"offset": 0,
						"slot": "4",
						"type": "t_mapping(t_address,t_uint256)"
					},
					{
						"astId": 46,
						"contract": "contracts/MyToken.sol:MyToken",
						"label": "allow",
						"offset": 0,
						"slot": "5",
						"type": "t_mapping(t_address,t_mapping(t_address,t_uint256))"
					}
				],
				"types": {
					"t_address": {
						"encoding": "inplace",
						"label": "address",
						"numberOfBytes": "20"
					},
					"t_mapping(t_address,t_mapping(t_address,t_uint256))": {
						"encoding": "mapping",
						"key": "t_address",
						"label": "mapping(address => mapping(address => uint256))",
						"numberOfBytes": "32",
						"value": "t_mapping(t_address,t_uint256)"
					},
					"t_mapping(t_address,t_uint256)": {
						"encoding": "mapping",
						"key": "t_address",
						"label": "mapping(address => uint256)",
						"numberOfBytes": "32",
						"value": "t_uint256"
					},
					"t_string_storage": {
						"encoding": "bytes",
						"label": "string",
						"numberOfBytes": "32"
					},
					"t_uint256": {
						"encoding": "inplace",
						"label": "uint256",
						"numberOfBytes": "32"
					},
					"t_uint32": {
						"encoding": "inplace",
						"label": "uint32",
						"numberOfBytes": "4"
					}
				}
			},
			"userdoc": {
				"kind": "user",
				"methods": {},
				"version": 1
			}
		}
	}
}