{
	"contracts/Auction.sol": {
		"Auction": {
			"abi": [
				{
					"inputs": [
						{
							"internalType": "uint256",
							"name": "_postId",
							"type": "uint256"
						},
						{
							"internalType": "uint256",
							"name": "_bidId",
							"type": "uint256"
						}
					],
					"name": "acceptBid",
					"outputs": [],
					"stateMutability": "payable",
					"type": "function"
				},
				{
					"inputs": [
						{
							"internalType": "uint256",
							"name": "_postId",
							"type": "uint256"
						}
					],
					"name": "createBid",
					"outputs": [],
					"stateMutability": "payable",
					"type": "function"
				},
				{
					"inputs": [
						{
							"internalType": "string",
							"name": "_name",
							"type": "string"
						},
						{
							"internalType": "uint256",
							"name": "_minBid",
							"type": "uint256"
						}
					],
					"name": "createPost",
					"outputs": [],
					"stateMutability": "nonpayable",
					"type": "function"
				},
				{
					"inputs": [
						{
							"internalType": "address",
							"name": "_address",
							"type": "address"
						}
					],
					"name": "getBalance",
					"outputs": [
						{
							"internalType": "uint256",
							"name": "",
							"type": "uint256"
						}
					],
					"stateMutability": "view",
					"type": "function"
				},
				{
					"inputs": [
						{
							"internalType": "uint256",
							"name": "_postId",
							"type": "uint256"
						},
						{
							"internalType": "uint256",
							"name": "_bidId",
							"type": "uint256"
						}
					],
					"name": "getPostBid",
					"outputs": [
						{
							"internalType": "address",
							"name": "buyer",
							"type": "address"
						},
						{
							"internalType": "uint256",
							"name": "amount",
							"type": "uint256"
						},
						{
							"internalType": "uint256",
							"name": "time",
							"type": "uint256"
						}
					],
					"stateMutability": "view",
					"type": "function"
				},
				{
					"inputs": [
						{
							"internalType": "uint256",
							"name": "_postId",
							"type": "uint256"
						}
					],
					"name": "getTotalBids",
					"outputs": [
						{
							"internalType": "uint256",
							"name": "",
							"type": "uint256"
						}
					],
					"stateMutability": "view",
					"type": "function"
				}
			],
			"devdoc": {
				"kind": "dev",
				"methods": {},
				"version": 1
			},
			"evm": {
				"assembly": "    /* \"contracts/Auction.sol\":27:2696  contract Auction{\r... */\n  mstore(0x40, 0x80)\n  callvalue\n  dup1\n  iszero\n  tag_1\n  jumpi\n  0x00\n  dup1\n  revert\ntag_1:\n  pop\n  dataSize(sub_0)\n  dup1\n  dataOffset(sub_0)\n  0x00\n  codecopy\n  0x00\n  return\nstop\n\nsub_0: assembly {\n        /* \"contracts/Auction.sol\":27:2696  contract Auction{\r... */\n      mstore(0x40, 0x80)\n      jumpi(tag_1, lt(calldatasize, 0x04))\n      shr(0xe0, calldataload(0x00))\n      dup1\n      0x02e9d5e4\n      eq\n      tag_2\n      jumpi\n      dup1\n      0x1252cb48\n      eq\n      tag_3\n      jumpi\n      dup1\n      0x659dd2b4\n      eq\n      tag_4\n      jumpi\n      dup1\n      0x8e5bc606\n      eq\n      tag_5\n      jumpi\n      dup1\n      0xe135268d\n      eq\n      tag_6\n      jumpi\n      dup1\n      0xf8b2cb4f\n      eq\n      tag_7\n      jumpi\n    tag_1:\n      0x00\n      dup1\n      revert\n        /* \"contracts/Auction.sol\":2381:2693  function acceptBid(uint _postId,uint _bidId) public payable {\r... */\n    tag_2:\n      tag_8\n      0x04\n      dup1\n      calldatasize\n      sub\n      dup2\n      add\n      swap1\n      tag_9\n      swap2\n      swap1\n      tag_10\n      jump\t// in\n    tag_9:\n      tag_11\n      jump\t// in\n    tag_8:\n      stop\n        /* \"contracts/Auction.sol\":629:805  function createPost (string memory _name,uint _minBid) public {\r... */\n    tag_3:\n      callvalue\n      dup1\n      iszero\n      tag_12\n      jumpi\n      0x00\n      dup1\n      revert\n    tag_12:\n      pop\n      tag_13\n      0x04\n      dup1\n      calldatasize\n      sub\n      dup2\n      add\n      swap1\n      tag_14\n      swap2\n      swap1\n      tag_15\n      jump\t// in\n    tag_14:\n      tag_16\n      jump\t// in\n    tag_13:\n      stop\n        /* \"contracts/Auction.sol\":846:1601  function createBid (uint _postId) public payable {\r... */\n    tag_4:\n      tag_17\n      0x04\n      dup1\n      calldatasize\n      sub\n      dup2\n      add\n      swap1\n      tag_18\n      swap2\n      swap1\n      tag_19\n      jump\t// in\n    tag_18:\n      tag_20\n      jump\t// in\n    tag_17:\n      stop\n        /* \"contracts/Auction.sol\":1745:1968  function getTotalBids(uint _postId) public view returns (uint){\r... */\n    tag_5:\n      callvalue\n      dup1\n      iszero\n      tag_21\n      jumpi\n      0x00\n      dup1\n      revert\n    tag_21:\n      pop\n      tag_22\n      0x04\n      dup1\n      calldatasize\n      sub\n      dup2\n      add\n      swap1\n      tag_23\n      swap2\n      swap1\n      tag_19\n      jump\t// in\n    tag_23:\n      tag_24\n      jump\t// in\n    tag_22:\n      mload(0x40)\n      tag_25\n      swap2\n      swap1\n      tag_26\n      jump\t// in\n    tag_25:\n      mload(0x40)\n      dup1\n      swap2\n      sub\n      swap1\n      return\n        /* \"contracts/Auction.sol\":2023:2373  function getPostBid(uint _postId,uint _bidId) public view returns (address buyer , uint amount , uint time){\r... */\n    tag_6:\n      callvalue\n      dup1\n      iszero\n      tag_27\n      jumpi\n      0x00\n      dup1\n      revert\n    tag_27:\n      pop\n      tag_28\n      0x04\n      dup1\n      calldatasize\n      sub\n      dup2\n      add\n      swap1\n      tag_29\n      swap2\n      swap1\n      tag_10\n      jump\t// in\n    tag_29:\n      tag_30\n      jump\t// in\n    tag_28:\n      mload(0x40)\n      tag_31\n      swap4\n      swap3\n      swap2\n      swap1\n      tag_32\n      jump\t// in\n    tag_31:\n      mload(0x40)\n      dup1\n      swap2\n      sub\n      swap1\n      return\n        /* \"contracts/Auction.sol\":1609:1737  function getBalance(address _address) public view returns (uint){\r... */\n    tag_7:\n      callvalue\n      dup1\n      iszero\n      tag_33\n      jumpi\n      0x00\n      dup1\n      revert\n    tag_33:\n      pop\n      tag_34\n      0x04\n      dup1\n      calldatasize\n      sub\n      dup2\n      add\n      swap1\n      tag_35\n      swap2\n      swap1\n      tag_36\n      jump\t// in\n    tag_35:\n      tag_37\n      jump\t// in\n    tag_34:\n      mload(0x40)\n      tag_38\n      swap2\n      swap1\n      tag_26\n      jump\t// in\n    tag_38:\n      mload(0x40)\n      dup1\n      swap2\n      sub\n      swap1\n      return\n        /* \"contracts/Auction.sol\":2381:2693  function acceptBid(uint _postId,uint _bidId) public payable {\r... */\n    tag_11:\n        /* \"contracts/Auction.sol\":2452:2468  Post memory post */\n      0x00\n        /* \"contracts/Auction.sol\":2471:2476  posts */\n      dup1\n        /* \"contracts/Auction.sol\":2477:2484  _postId */\n      dup4\n        /* \"contracts/Auction.sol\":2471:2485  posts[_postId] */\n      dup2\n      sload\n      dup2\n      lt\n      tag_40\n      jumpi\n      tag_41\n      tag_42\n      jump\t// in\n    tag_41:\n    tag_40:\n      swap1\n      0x00\n      mstore\n      keccak256(0x00, 0x20)\n      swap1\n      0x04\n      mul\n      add\n        /* \"contracts/Auction.sol\":2452:2485  Post memory post = posts[_postId] */\n      mload(0x40)\n      dup1\n      0x80\n      add\n      0x40\n      mstore\n      swap1\n      dup2\n      0x00\n      dup3\n      add\n      0x00\n      swap1\n      sload\n      swap1\n      0x0100\n      exp\n      swap1\n      div\n      0xffffffffffffffffffffffffffffffffffffffff\n      and\n      0xffffffffffffffffffffffffffffffffffffffff\n      and\n      0xffffffffffffffffffffffffffffffffffffffff\n      and\n      dup2\n      mstore\n      0x20\n      add\n      0x01\n      dup3\n      add\n      sload\n      dup2\n      mstore\n      0x20\n      add\n      0x02\n      dup3\n      add\n      dup1\n      sload\n      tag_44\n      swap1\n      tag_45\n      jump\t// in\n    tag_44:\n      dup1\n      0x1f\n      add\n      0x20\n      dup1\n      swap2\n      div\n      mul\n      0x20\n      add\n      mload(0x40)\n      swap1\n      dup2\n      add\n      0x40\n      mstore\n      dup1\n      swap3\n      swap2\n      swap1\n      dup2\n      dup2\n      mstore\n      0x20\n      add\n      dup3\n      dup1\n      sload\n      tag_46\n      swap1\n      tag_45\n      jump\t// in\n    tag_46:\n      dup1\n      iszero\n      tag_47\n      jumpi\n      dup1\n      0x1f\n      lt\n      tag_48\n      jumpi\n      0x0100\n      dup1\n      dup4\n      sload\n      div\n      mul\n      dup4\n      mstore\n      swap2\n      0x20\n      add\n      swap2\n      jump(tag_47)\n    tag_48:\n      dup3\n      add\n      swap2\n      swap1\n      0x00\n      mstore\n      keccak256(0x00, 0x20)\n      swap1\n    tag_49:\n      dup2\n      sload\n      dup2\n      mstore\n      swap1\n      0x01\n      add\n      swap1\n      0x20\n      add\n      dup1\n      dup4\n      gt\n      tag_49\n      jumpi\n      dup3\n      swap1\n      sub\n      0x1f\n      and\n      dup3\n      add\n      swap2\n    tag_47:\n      pop\n      pop\n      pop\n      pop\n      pop\n      dup2\n      mstore\n      0x20\n      add\n      0x03\n      dup3\n      add\n      sload\n      dup2\n      mstore\n      pop\n      pop\n      swap1\n      pop\n        /* \"contracts/Auction.sol\":2496:2511  Bid storage bid */\n      0x00\n        /* \"contracts/Auction.sol\":2514:2518  bids */\n      0x01\n        /* \"contracts/Auction.sol\":2514:2527  bids[_postId] */\n      0x00\n        /* \"contracts/Auction.sol\":2519:2526  _postId */\n      dup6\n        /* \"contracts/Auction.sol\":2514:2527  bids[_postId] */\n      dup2\n      mstore\n      0x20\n      add\n      swap1\n      dup2\n      mstore\n      0x20\n      add\n      0x00\n      keccak256\n        /* \"contracts/Auction.sol\":2528:2534  _bidId */\n      dup4\n        /* \"contracts/Auction.sol\":2514:2535  bids[_postId][_bidId] */\n      dup2\n      sload\n      dup2\n      lt\n      tag_50\n      jumpi\n      tag_51\n      tag_42\n      jump\t// in\n    tag_51:\n    tag_50:\n      swap1\n      0x00\n      mstore\n      keccak256(0x00, 0x20)\n      swap1\n      0x04\n      mul\n      add\n        /* \"contracts/Auction.sol\":2496:2535  Bid storage bid = bids[_postId][_bidId] */\n      swap1\n      pop\n        /* \"contracts/Auction.sol\":2566:2570  post */\n      dup2\n        /* \"contracts/Auction.sol\":2566:2577  post.seller */\n      0x00\n      add\n      mload\n        /* \"contracts/Auction.sol\":2554:2577  msg.sender==post.seller */\n      0xffffffffffffffffffffffffffffffffffffffff\n      and\n        /* \"contracts/Auction.sol\":2554:2564  msg.sender */\n      caller\n        /* \"contracts/Auction.sol\":2554:2577  msg.sender==post.seller */\n      0xffffffffffffffffffffffffffffffffffffffff\n      and\n      eq\n        /* \"contracts/Auction.sol\":2546:2606  require(msg.sender==post.seller,\"You don't have permission\") */\n      tag_53\n      jumpi\n      mload(0x40)\n      0x08c379a000000000000000000000000000000000000000000000000000000000\n      dup2\n      mstore\n      0x04\n      add\n      tag_54\n      swap1\n      tag_55\n      jump\t// in\n    tag_54:\n      mload(0x40)\n      dup1\n      swap2\n      sub\n      swap1\n      revert\n    tag_53:\n        /* \"contracts/Auction.sol\":2643:2648  false */\n      0x00\n        /* \"contracts/Auction.sol\":2625:2648  bid.isFinished == false */\n      iszero\n      iszero\n        /* \"contracts/Auction.sol\":2625:2628  bid */\n      dup2\n        /* \"contracts/Auction.sol\":2625:2639  bid.isFinished */\n      0x03\n      add\n      0x00\n      swap1\n      sload\n      swap1\n      0x0100\n      exp\n      swap1\n      div\n      0xff\n      and\n        /* \"contracts/Auction.sol\":2625:2648  bid.isFinished == false */\n      iszero\n      iszero\n      eq\n        /* \"contracts/Auction.sol\":2617:2675  require(bid.isFinished == false , \"The auction has ended\") */\n      tag_56\n      jumpi\n      mload(0x40)\n      0x08c379a000000000000000000000000000000000000000000000000000000000\n      dup2\n      mstore\n      0x04\n      add\n      tag_57\n      swap1\n      tag_58\n      jump\t// in\n    tag_57:\n      mload(0x40)\n      dup1\n      swap2\n      sub\n      swap1\n      revert\n    tag_56:\n        /* \"contracts/Auction.sol\":2441:2693  {\r... */\n      pop\n      pop\n        /* \"contracts/Auction.sol\":2381:2693  function acceptBid(uint _postId,uint _bidId) public payable {\r... */\n      pop\n      pop\n      jump\t// out\n        /* \"contracts/Auction.sol\":629:805  function createPost (string memory _name,uint _minBid) public {\r... */\n    tag_16:\n        /* \"contracts/Auction.sol\":702:707  posts */\n      0x00\n        /* \"contracts/Auction.sol\":713:796  Post({seller: payable(msg.sender),minBid: _minBid,name:_name,time:block.timestamp}) */\n      mload(0x40)\n      dup1\n      0x80\n      add\n      0x40\n      mstore\n      dup1\n        /* \"contracts/Auction.sol\":735:745  msg.sender */\n      caller\n        /* \"contracts/Auction.sol\":713:796  Post({seller: payable(msg.sender),minBid: _minBid,name:_name,time:block.timestamp}) */\n      0xffffffffffffffffffffffffffffffffffffffff\n      and\n      dup2\n      mstore\n      0x20\n      add\n        /* \"contracts/Auction.sol\":755:762  _minBid */\n      dup4\n        /* \"contracts/Auction.sol\":713:796  Post({seller: payable(msg.sender),minBid: _minBid,name:_name,time:block.timestamp}) */\n      dup2\n      mstore\n      0x20\n      add\n        /* \"contracts/Auction.sol\":768:773  _name */\n      dup5\n        /* \"contracts/Auction.sol\":713:796  Post({seller: payable(msg.sender),minBid: _minBid,name:_name,time:block.timestamp}) */\n      dup2\n      mstore\n      0x20\n      add\n        /* \"contracts/Auction.sol\":779:794  block.timestamp */\n      timestamp\n        /* \"contracts/Auction.sol\":713:796  Post({seller: payable(msg.sender),minBid: _minBid,name:_name,time:block.timestamp}) */\n      dup2\n      mstore\n      pop\n        /* \"contracts/Auction.sol\":702:797  posts.push(Post({seller: payable(msg.sender),minBid: _minBid,name:_name,time:block.timestamp})) */\n      swap1\n      dup1\n      0x01\n      dup2\n      sload\n      add\n      dup1\n      dup3\n      sstore\n      dup1\n      swap2\n      pop\n      pop\n      0x01\n      swap1\n      sub\n      swap1\n      0x00\n      mstore\n      keccak256(0x00, 0x20)\n      swap1\n      0x04\n      mul\n      add\n      0x00\n      swap1\n      swap2\n      swap1\n      swap2\n      swap1\n      swap2\n      pop\n      0x00\n      dup3\n      add\n      mload\n      dup2\n      0x00\n      add\n      exp(0x0100, 0x00)\n      dup2\n      sload\n      dup2\n      0xffffffffffffffffffffffffffffffffffffffff\n      mul\n      not\n      and\n      swap1\n      dup4\n      0xffffffffffffffffffffffffffffffffffffffff\n      and\n      mul\n      or\n      swap1\n      sstore\n      pop\n      0x20\n      dup3\n      add\n      mload\n      dup2\n      0x01\n      add\n      sstore\n      0x40\n      dup3\n      add\n      mload\n      dup2\n      0x02\n      add\n      swap1\n      dup1\n      mload\n      swap1\n      0x20\n      add\n      swap1\n      tag_61\n      swap3\n      swap2\n      swap1\n      tag_62\n      jump\t// in\n    tag_61:\n      pop\n      0x60\n      dup3\n      add\n      mload\n      dup2\n      0x03\n      add\n      sstore\n      pop\n      pop\n        /* \"contracts/Auction.sol\":629:805  function createPost (string memory _name,uint _minBid) public {\r... */\n      pop\n      pop\n      jump\t// out\n        /* \"contracts/Auction.sol\":846:1601  function createBid (uint _postId) public payable {\r... */\n    tag_20:\n        /* \"contracts/Auction.sol\":906:922  Post memory post */\n      0x00\n        /* \"contracts/Auction.sol\":925:930  posts */\n      dup1\n        /* \"contracts/Auction.sol\":931:938  _postId */\n      dup3\n        /* \"contracts/Auction.sol\":925:939  posts[_postId] */\n      dup2\n      sload\n      dup2\n      lt\n      tag_64\n      jumpi\n      tag_65\n      tag_42\n      jump\t// in\n    tag_65:\n    tag_64:\n      swap1\n      0x00\n      mstore\n      keccak256(0x00, 0x20)\n      swap1\n      0x04\n      mul\n      add\n        /* \"contracts/Auction.sol\":906:939  Post memory post = posts[_postId] */\n      mload(0x40)\n      dup1\n      0x80\n      add\n      0x40\n      mstore\n      swap1\n      dup2\n      0x00\n      dup3\n      add\n      0x00\n      swap1\n      sload\n      swap1\n      0x0100\n      exp\n      swap1\n      div\n      0xffffffffffffffffffffffffffffffffffffffff\n      and\n      0xffffffffffffffffffffffffffffffffffffffff\n      and\n      0xffffffffffffffffffffffffffffffffffffffff\n      and\n      dup2\n      mstore\n      0x20\n      add\n      0x01\n      dup3\n      add\n      sload\n      dup2\n      mstore\n      0x20\n      add\n      0x02\n      dup3\n      add\n      dup1\n      sload\n      tag_67\n      swap1\n      tag_45\n      jump\t// in\n    tag_67:\n      dup1\n      0x1f\n      add\n      0x20\n      dup1\n      swap2\n      div\n      mul\n      0x20\n      add\n      mload(0x40)\n      swap1\n      dup2\n      add\n      0x40\n      mstore\n      dup1\n      swap3\n      swap2\n      swap1\n      dup2\n      dup2\n      mstore\n      0x20\n      add\n      dup3\n      dup1\n      sload\n      tag_68\n      swap1\n      tag_45\n      jump\t// in\n    tag_68:\n      dup1\n      iszero\n      tag_69\n      jumpi\n      dup1\n      0x1f\n      lt\n      tag_70\n      jumpi\n      0x0100\n      dup1\n      dup4\n      sload\n      div\n      mul\n      dup4\n      mstore\n      swap2\n      0x20\n      add\n      swap2\n      jump(tag_69)\n    tag_70:\n      dup3\n      add\n      swap2\n      swap1\n      0x00\n      mstore\n      keccak256(0x00, 0x20)\n      swap1\n    tag_71:\n      dup2\n      sload\n      dup2\n      mstore\n      swap1\n      0x01\n      add\n      swap1\n      0x20\n      add\n      dup1\n      dup4\n      gt\n      tag_71\n      jumpi\n      dup3\n      swap1\n      sub\n      0x1f\n      and\n      dup3\n      add\n      swap2\n    tag_69:\n      pop\n      pop\n      pop\n      pop\n      pop\n      dup2\n      mstore\n      0x20\n      add\n      0x03\n      dup3\n      add\n      sload\n      dup2\n      mstore\n      pop\n      pop\n      swap1\n      pop\n        /* \"contracts/Auction.sol\":1026:1030  post */\n      dup1\n        /* \"contracts/Auction.sol\":1026:1037  post.seller */\n      0x00\n      add\n      mload\n        /* \"contracts/Auction.sol\":1013:1037  msg.sender!= post.seller */\n      0xffffffffffffffffffffffffffffffffffffffff\n      and\n        /* \"contracts/Auction.sol\":1013:1023  msg.sender */\n      caller\n        /* \"contracts/Auction.sol\":1013:1037  msg.sender!= post.seller */\n      0xffffffffffffffffffffffffffffffffffffffff\n      and\n      eq\n      iszero\n        /* \"contracts/Auction.sol\":1004:1071  require (msg.sender!= post.seller,\"You can't bid on your own post\") */\n      tag_72\n      jumpi\n      mload(0x40)\n      0x08c379a000000000000000000000000000000000000000000000000000000000\n      dup2\n      mstore\n      0x04\n      add\n      tag_73\n      swap1\n      tag_74\n      jump\t// in\n    tag_73:\n      mload(0x40)\n      dup1\n      swap2\n      sub\n      swap1\n      revert\n    tag_72:\n        /* \"contracts/Auction.sol\":1146:1147  0 */\n      0x00\n        /* \"contracts/Auction.sol\":1133:1142  msg.value */\n      callvalue\n        /* \"contracts/Auction.sol\":1133:1147  msg.value != 0 */\n      eq\n      iszero\n        /* \"contracts/Auction.sol\":1124:1173  require (msg.value != 0, \"Invalid amount of Bid\") */\n      tag_75\n      jumpi\n      mload(0x40)\n      0x08c379a000000000000000000000000000000000000000000000000000000000\n      dup2\n      mstore\n      0x04\n      add\n      tag_76\n      swap1\n      tag_77\n      jump\t// in\n    tag_76:\n      mload(0x40)\n      dup1\n      swap2\n      sub\n      swap1\n      revert\n    tag_75:\n        /* \"contracts/Auction.sol\":1205:1208  400 */\n      0x0190\n        /* \"contracts/Auction.sol\":1193:1197  post */\n      dup2\n        /* \"contracts/Auction.sol\":1193:1202  post.time */\n      0x60\n      add\n      mload\n        /* \"contracts/Auction.sol\":1193:1208  post.time < 400 */\n      lt\n        /* \"contracts/Auction.sol\":1184:1237  require (post.time < 400, \"This auction is finished\") */\n      tag_78\n      jumpi\n      mload(0x40)\n      0x08c379a000000000000000000000000000000000000000000000000000000000\n      dup2\n      mstore\n      0x04\n      add\n      tag_79\n      swap1\n      tag_80\n      jump\t// in\n    tag_79:\n      mload(0x40)\n      dup1\n      swap2\n      sub\n      swap1\n      revert\n    tag_78:\n        /* \"contracts/Auction.sol\":1284:1303  1000000000000000000 */\n      0x0de0b6b3a7640000\n        /* \"contracts/Auction.sol\":1270:1274  post */\n      dup2\n        /* \"contracts/Auction.sol\":1270:1281  post.minBid */\n      0x20\n      add\n      mload\n        /* \"contracts/Auction.sol\":1270:1303  post.minBid * 1000000000000000000 */\n      tag_81\n      swap2\n      swap1\n      tag_82\n      jump\t// in\n    tag_81:\n        /* \"contracts/Auction.sol\":1257:1266  msg.value */\n      callvalue\n        /* \"contracts/Auction.sol\":1257:1303  msg.value >= post.minBid * 1000000000000000000 */\n      lt\n      iszero\n        /* \"contracts/Auction.sol\":1248:1353  require (msg.value >= post.minBid * 1000000000000000000 , \"This bid needs to be more than min bid value\") */\n      tag_83\n      jumpi\n      mload(0x40)\n      0x08c379a000000000000000000000000000000000000000000000000000000000\n      dup2\n      mstore\n      0x04\n      add\n      tag_84\n      swap1\n      tag_85\n      jump\t// in\n    tag_84:\n      mload(0x40)\n      dup1\n      swap2\n      sub\n      swap1\n      revert\n    tag_83:\n        /* \"contracts/Auction.sol\":1366:1370  bids */\n      0x01\n        /* \"contracts/Auction.sol\":1366:1379  bids[_postId] */\n      0x00\n        /* \"contracts/Auction.sol\":1371:1378  _postId */\n      dup4\n        /* \"contracts/Auction.sol\":1366:1379  bids[_postId] */\n      dup2\n      mstore\n      0x20\n      add\n      swap1\n      dup2\n      mstore\n      0x20\n      add\n      0x00\n      keccak256\n        /* \"contracts/Auction.sol\":1385:1543  Bid({\r... */\n      mload(0x40)\n      dup1\n      0x80\n      add\n      0x40\n      mstore\n      dup1\n        /* \"contracts/Auction.sol\":1452:1462  msg.sender */\n      caller\n        /* \"contracts/Auction.sol\":1385:1543  Bid({\r... */\n      0xffffffffffffffffffffffffffffffffffffffff\n      and\n      dup2\n      mstore\n      0x20\n      add\n        /* \"contracts/Auction.sol\":1412:1421  msg.value */\n      callvalue\n        /* \"contracts/Auction.sol\":1385:1543  Bid({\r... */\n      dup2\n      mstore\n      0x20\n      add\n        /* \"contracts/Auction.sol\":1485:1500  block.timestamp */\n      timestamp\n        /* \"contracts/Auction.sol\":1385:1543  Bid({\r... */\n      dup2\n      mstore\n      0x20\n      add\n        /* \"contracts/Auction.sol\":1526:1531  false */\n      0x00\n        /* \"contracts/Auction.sol\":1385:1543  Bid({\r... */\n      iszero\n      iszero\n      dup2\n      mstore\n      pop\n        /* \"contracts/Auction.sol\":1366:1544  bids[_postId].push(Bid({\r... */\n      swap1\n      dup1\n      0x01\n      dup2\n      sload\n      add\n      dup1\n      dup3\n      sstore\n      dup1\n      swap2\n      pop\n      pop\n      0x01\n      swap1\n      sub\n      swap1\n      0x00\n      mstore\n      keccak256(0x00, 0x20)\n      swap1\n      0x04\n      mul\n      add\n      0x00\n      swap1\n      swap2\n      swap1\n      swap2\n      swap1\n      swap2\n      pop\n      0x00\n      dup3\n      add\n      mload\n      dup2\n      0x00\n      add\n      exp(0x0100, 0x00)\n      dup2\n      sload\n      dup2\n      0xffffffffffffffffffffffffffffffffffffffff\n      mul\n      not\n      and\n      swap1\n      dup4\n      0xffffffffffffffffffffffffffffffffffffffff\n      and\n      mul\n      or\n      swap1\n      sstore\n      pop\n      0x20\n      dup3\n      add\n      mload\n      dup2\n      0x01\n      add\n      sstore\n      0x40\n      dup3\n      add\n      mload\n      dup2\n      0x02\n      add\n      sstore\n      0x60\n      dup3\n      add\n      mload\n      dup2\n      0x03\n      add\n      exp(0x0100, 0x00)\n      dup2\n      sload\n      dup2\n      0xff\n      mul\n      not\n      and\n      swap1\n      dup4\n      iszero\n      iszero\n      mul\n      or\n      swap1\n      sstore\n      pop\n      pop\n      pop\n        /* \"contracts/Auction.sol\":1584:1593  msg.value */\n      callvalue\n        /* \"contracts/Auction.sol\":1557:1565  balances */\n      0x02\n        /* \"contracts/Auction.sol\":1557:1580  balances[address(this)] */\n      0x00\n        /* \"contracts/Auction.sol\":1574:1578  this */\n      address\n        /* \"contracts/Auction.sol\":1557:1580  balances[address(this)] */\n      0xffffffffffffffffffffffffffffffffffffffff\n      and\n      0xffffffffffffffffffffffffffffffffffffffff\n      and\n      dup2\n      mstore\n      0x20\n      add\n      swap1\n      dup2\n      mstore\n      0x20\n      add\n      0x00\n      keccak256\n      0x00\n        /* \"contracts/Auction.sol\":1557:1593  balances[address(this)] += msg.value */\n      dup3\n      dup3\n      sload\n      tag_87\n      swap2\n      swap1\n      tag_88\n      jump\t// in\n    tag_87:\n      swap3\n      pop\n      pop\n      dup2\n      swap1\n      sstore\n      pop\n        /* \"contracts/Auction.sol\":895:1601  {\r... */\n      pop\n        /* \"contracts/Auction.sol\":846:1601  function createBid (uint _postId) public payable {\r... */\n      pop\n      jump\t// out\n        /* \"contracts/Auction.sol\":1745:1968  function getTotalBids(uint _postId) public view returns (uint){\r... */\n    tag_24:\n        /* \"contracts/Auction.sol\":1802:1806  uint */\n      0x00\n        /* \"contracts/Auction.sol\":1818:1834  Post memory post */\n      dup1\n        /* \"contracts/Auction.sol\":1837:1842  posts */\n      0x00\n        /* \"contracts/Auction.sol\":1843:1850  _postId */\n      dup4\n        /* \"contracts/Auction.sol\":1837:1851  posts[_postId] */\n      dup2\n      sload\n      dup2\n      lt\n      tag_90\n      jumpi\n      tag_91\n      tag_42\n      jump\t// in\n    tag_91:\n    tag_90:\n      swap1\n      0x00\n      mstore\n      keccak256(0x00, 0x20)\n      swap1\n      0x04\n      mul\n      add\n        /* \"contracts/Auction.sol\":1818:1851  Post memory post = posts[_postId] */\n      mload(0x40)\n      dup1\n      0x80\n      add\n      0x40\n      mstore\n      swap1\n      dup2\n      0x00\n      dup3\n      add\n      0x00\n      swap1\n      sload\n      swap1\n      0x0100\n      exp\n      swap1\n      div\n      0xffffffffffffffffffffffffffffffffffffffff\n      and\n      0xffffffffffffffffffffffffffffffffffffffff\n      and\n      0xffffffffffffffffffffffffffffffffffffffff\n      and\n      dup2\n      mstore\n      0x20\n      add\n      0x01\n      dup3\n      add\n      sload\n      dup2\n      mstore\n      0x20\n      add\n      0x02\n      dup3\n      add\n      dup1\n      sload\n      tag_93\n      swap1\n      tag_45\n      jump\t// in\n    tag_93:\n      dup1\n      0x1f\n      add\n      0x20\n      dup1\n      swap2\n      div\n      mul\n      0x20\n      add\n      mload(0x40)\n      swap1\n      dup2\n      add\n      0x40\n      mstore\n      dup1\n      swap3\n      swap2\n      swap1\n      dup2\n      dup2\n      mstore\n      0x20\n      add\n      dup3\n      dup1\n      sload\n      tag_94\n      swap1\n      tag_45\n      jump\t// in\n    tag_94:\n      dup1\n      iszero\n      tag_95\n      jumpi\n      dup1\n      0x1f\n      lt\n      tag_96\n      jumpi\n      0x0100\n      dup1\n      dup4\n      sload\n      div\n      mul\n      dup4\n      mstore\n      swap2\n      0x20\n      add\n      swap2\n      jump(tag_95)\n    tag_96:\n      dup3\n      add\n      swap2\n      swap1\n      0x00\n      mstore\n      keccak256(0x00, 0x20)\n      swap1\n    tag_97:\n      dup2\n      sload\n      dup2\n      mstore\n      swap1\n      0x01\n      add\n      swap1\n      0x20\n      add\n      dup1\n      dup4\n      gt\n      tag_97\n      jumpi\n      dup3\n      swap1\n      sub\n      0x1f\n      and\n      dup3\n      add\n      swap2\n    tag_95:\n      pop\n      pop\n      pop\n      pop\n      pop\n      dup2\n      mstore\n      0x20\n      add\n      0x03\n      dup3\n      add\n      sload\n      dup2\n      mstore\n      pop\n      pop\n      swap1\n      pop\n        /* \"contracts/Auction.sol\":1882:1886  post */\n      dup1\n        /* \"contracts/Auction.sol\":1882:1893  post.seller */\n      0x00\n      add\n      mload\n        /* \"contracts/Auction.sol\":1870:1893  msg.sender==post.seller */\n      0xffffffffffffffffffffffffffffffffffffffff\n      and\n        /* \"contracts/Auction.sol\":1870:1880  msg.sender */\n      caller\n        /* \"contracts/Auction.sol\":1870:1893  msg.sender==post.seller */\n      0xffffffffffffffffffffffffffffffffffffffff\n      and\n      eq\n        /* \"contracts/Auction.sol\":1862:1922  require(msg.sender==post.seller,\"You don't have permission\") */\n      tag_98\n      jumpi\n      mload(0x40)\n      0x08c379a000000000000000000000000000000000000000000000000000000000\n      dup2\n      mstore\n      0x04\n      add\n      tag_99\n      swap1\n      tag_55\n      jump\t// in\n    tag_99:\n      mload(0x40)\n      dup1\n      swap2\n      sub\n      swap1\n      revert\n    tag_98:\n        /* \"contracts/Auction.sol\":1940:1944  bids */\n      0x01\n        /* \"contracts/Auction.sol\":1940:1953  bids[_postId] */\n      0x00\n        /* \"contracts/Auction.sol\":1945:1952  _postId */\n      dup5\n        /* \"contracts/Auction.sol\":1940:1953  bids[_postId] */\n      dup2\n      mstore\n      0x20\n      add\n      swap1\n      dup2\n      mstore\n      0x20\n      add\n      0x00\n      keccak256\n        /* \"contracts/Auction.sol\":1940:1960  bids[_postId].length */\n      dup1\n      sload\n      swap1\n      pop\n        /* \"contracts/Auction.sol\":1933:1960  return bids[_postId].length */\n      swap2\n      pop\n      pop\n        /* \"contracts/Auction.sol\":1745:1968  function getTotalBids(uint _postId) public view returns (uint){\r... */\n      swap2\n      swap1\n      pop\n      jump\t// out\n        /* \"contracts/Auction.sol\":2023:2373  function getPostBid(uint _postId,uint _bidId) public view returns (address buyer , uint amount , uint time){\r... */\n    tag_30:\n        /* \"contracts/Auction.sol\":2090:2103  address buyer */\n      0x00\n        /* \"contracts/Auction.sol\":2106:2117  uint amount */\n      dup1\n        /* \"contracts/Auction.sol\":2120:2129  uint time */\n      0x00\n        /* \"contracts/Auction.sol\":2141:2157  Post memory post */\n      dup1\n        /* \"contracts/Auction.sol\":2160:2165  posts */\n      0x00\n        /* \"contracts/Auction.sol\":2166:2173  _postId */\n      dup7\n        /* \"contracts/Auction.sol\":2160:2174  posts[_postId] */\n      dup2\n      sload\n      dup2\n      lt\n      tag_101\n      jumpi\n      tag_102\n      tag_42\n      jump\t// in\n    tag_102:\n    tag_101:\n      swap1\n      0x00\n      mstore\n      keccak256(0x00, 0x20)\n      swap1\n      0x04\n      mul\n      add\n        /* \"contracts/Auction.sol\":2141:2174  Post memory post = posts[_postId] */\n      mload(0x40)\n      dup1\n      0x80\n      add\n      0x40\n      mstore\n      swap1\n      dup2\n      0x00\n      dup3\n      add\n      0x00\n      swap1\n      sload\n      swap1\n      0x0100\n      exp\n      swap1\n      div\n      0xffffffffffffffffffffffffffffffffffffffff\n      and\n      0xffffffffffffffffffffffffffffffffffffffff\n      and\n      0xffffffffffffffffffffffffffffffffffffffff\n      and\n      dup2\n      mstore\n      0x20\n      add\n      0x01\n      dup3\n      add\n      sload\n      dup2\n      mstore\n      0x20\n      add\n      0x02\n      dup3\n      add\n      dup1\n      sload\n      tag_104\n      swap1\n      tag_45\n      jump\t// in\n    tag_104:\n      dup1\n      0x1f\n      add\n      0x20\n      dup1\n      swap2\n      div\n      mul\n      0x20\n      add\n      mload(0x40)\n      swap1\n      dup2\n      add\n      0x40\n      mstore\n      dup1\n      swap3\n      swap2\n      swap1\n      dup2\n      dup2\n      mstore\n      0x20\n      add\n      dup3\n      dup1\n      sload\n      tag_105\n      swap1\n      tag_45\n      jump\t// in\n    tag_105:\n      dup1\n      iszero\n      tag_106\n      jumpi\n      dup1\n      0x1f\n      lt\n      tag_107\n      jumpi\n      0x0100\n      dup1\n      dup4\n      sload\n      div\n      mul\n      dup4\n      mstore\n      swap2\n      0x20\n      add\n      swap2\n      jump(tag_106)\n    tag_107:\n      dup3\n      add\n      swap2\n      swap1\n      0x00\n      mstore\n      keccak256(0x00, 0x20)\n      swap1\n    tag_108:\n      dup2\n      sload\n      dup2\n      mstore\n      swap1\n      0x01\n      add\n      swap1\n      0x20\n      add\n      dup1\n      dup4\n      gt\n      tag_108\n      jumpi\n      dup3\n      swap1\n      sub\n      0x1f\n      and\n      dup3\n      add\n      swap2\n    tag_106:\n      pop\n      pop\n      pop\n      pop\n      pop\n      dup2\n      mstore\n      0x20\n      add\n      0x03\n      dup3\n      add\n      sload\n      dup2\n      mstore\n      pop\n      pop\n      swap1\n      pop\n        /* \"contracts/Auction.sol\":2185:2199  Bid memory bid */\n      0x00\n        /* \"contracts/Auction.sol\":2202:2206  bids */\n      0x01\n        /* \"contracts/Auction.sol\":2202:2215  bids[_postId] */\n      0x00\n        /* \"contracts/Auction.sol\":2207:2214  _postId */\n      dup9\n        /* \"contracts/Auction.sol\":2202:2215  bids[_postId] */\n      dup2\n      mstore\n      0x20\n      add\n      swap1\n      dup2\n      mstore\n      0x20\n      add\n      0x00\n      keccak256\n        /* \"contracts/Auction.sol\":2216:2222  _bidId */\n      dup7\n        /* \"contracts/Auction.sol\":2202:2223  bids[_postId][_bidId] */\n      dup2\n      sload\n      dup2\n      lt\n      tag_109\n      jumpi\n      tag_110\n      tag_42\n      jump\t// in\n    tag_110:\n    tag_109:\n      swap1\n      0x00\n      mstore\n      keccak256(0x00, 0x20)\n      swap1\n      0x04\n      mul\n      add\n        /* \"contracts/Auction.sol\":2185:2223  Bid memory bid = bids[_postId][_bidId] */\n      mload(0x40)\n      dup1\n      0x80\n      add\n      0x40\n      mstore\n      swap1\n      dup2\n      0x00\n      dup3\n      add\n      0x00\n      swap1\n      sload\n      swap1\n      0x0100\n      exp\n      swap1\n      div\n      0xffffffffffffffffffffffffffffffffffffffff\n      and\n      0xffffffffffffffffffffffffffffffffffffffff\n      and\n      0xffffffffffffffffffffffffffffffffffffffff\n      and\n      dup2\n      mstore\n      0x20\n      add\n      0x01\n      dup3\n      add\n      sload\n      dup2\n      mstore\n      0x20\n      add\n      0x02\n      dup3\n      add\n      sload\n      dup2\n      mstore\n      0x20\n      add\n      0x03\n      dup3\n      add\n      0x00\n      swap1\n      sload\n      swap1\n      0x0100\n      exp\n      swap1\n      div\n      0xff\n      and\n      iszero\n      iszero\n      iszero\n      iszero\n      dup2\n      mstore\n      pop\n      pop\n      swap1\n      pop\n        /* \"contracts/Auction.sol\":2256:2260  post */\n      dup2\n        /* \"contracts/Auction.sol\":2256:2267  post.seller */\n      0x00\n      add\n      mload\n        /* \"contracts/Auction.sol\":2242:2267  msg.sender == post.seller */\n      0xffffffffffffffffffffffffffffffffffffffff\n      and\n        /* \"contracts/Auction.sol\":2242:2252  msg.sender */\n      caller\n        /* \"contracts/Auction.sol\":2242:2267  msg.sender == post.seller */\n      0xffffffffffffffffffffffffffffffffffffffff\n      and\n      eq\n        /* \"contracts/Auction.sol\":2234:2296  require(msg.sender == post.seller,\"You don't have permission\") */\n      tag_112\n      jumpi\n      mload(0x40)\n      0x08c379a000000000000000000000000000000000000000000000000000000000\n      dup2\n      mstore\n      0x04\n      add\n      tag_113\n      swap1\n      tag_55\n      jump\t// in\n    tag_113:\n      mload(0x40)\n      dup1\n      swap2\n      sub\n      swap1\n      revert\n    tag_112:\n        /* \"contracts/Auction.sol\":2315:2318  bid */\n      dup1\n        /* \"contracts/Auction.sol\":2315:2324  bid.buyer */\n      0x00\n      add\n      mload\n        /* \"contracts/Auction.sol\":2336:2355  1000000000000000000 */\n      0x0de0b6b3a7640000\n        /* \"contracts/Auction.sol\":2325:2328  bid */\n      dup3\n        /* \"contracts/Auction.sol\":2325:2335  bid.amount */\n      0x20\n      add\n      mload\n        /* \"contracts/Auction.sol\":2325:2355  bid.amount/1000000000000000000 */\n      tag_114\n      swap2\n      swap1\n      tag_115\n      jump\t// in\n    tag_114:\n        /* \"contracts/Auction.sol\":2356:2359  bid */\n      dup3\n        /* \"contracts/Auction.sol\":2356:2364  bid.time */\n      0x40\n      add\n      mload\n        /* \"contracts/Auction.sol\":2307:2365  return (bid.buyer,bid.amount/1000000000000000000,bid.time) */\n      swap5\n      pop\n      swap5\n      pop\n      swap5\n      pop\n      pop\n      pop\n        /* \"contracts/Auction.sol\":2023:2373  function getPostBid(uint _postId,uint _bidId) public view returns (address buyer , uint amount , uint time){\r... */\n      swap3\n      pop\n      swap3\n      pop\n      swap3\n      jump\t// out\n        /* \"contracts/Auction.sol\":1609:1737  function getBalance(address _address) public view returns (uint){\r... */\n    tag_37:\n        /* \"contracts/Auction.sol\":1668:1672  uint */\n      0x00\n        /* \"contracts/Auction.sol\":1710:1729  1000000000000000000 */\n      0x0de0b6b3a7640000\n        /* \"contracts/Auction.sol\":1691:1699  balances */\n      0x02\n        /* \"contracts/Auction.sol\":1691:1709  balances[_address] */\n      0x00\n        /* \"contracts/Auction.sol\":1700:1708  _address */\n      dup5\n        /* \"contracts/Auction.sol\":1691:1709  balances[_address] */\n      0xffffffffffffffffffffffffffffffffffffffff\n      and\n      0xffffffffffffffffffffffffffffffffffffffff\n      and\n      dup2\n      mstore\n      0x20\n      add\n      swap1\n      dup2\n      mstore\n      0x20\n      add\n      0x00\n      keccak256\n      sload\n        /* \"contracts/Auction.sol\":1691:1729  balances[_address]/1000000000000000000 */\n      tag_117\n      swap2\n      swap1\n      tag_115\n      jump\t// in\n    tag_117:\n        /* \"contracts/Auction.sol\":1684:1729  return balances[_address]/1000000000000000000 */\n      swap1\n      pop\n        /* \"contracts/Auction.sol\":1609:1737  function getBalance(address _address) public view returns (uint){\r... */\n      swap2\n      swap1\n      pop\n      jump\t// out\n    tag_62:\n      dup3\n      dup1\n      sload\n      tag_118\n      swap1\n      tag_45\n      jump\t// in\n    tag_118:\n      swap1\n      0x00\n      mstore\n      keccak256(0x00, 0x20)\n      swap1\n      0x1f\n      add\n      0x20\n      swap1\n      div\n      dup2\n      add\n      swap3\n      dup3\n      tag_120\n      jumpi\n      0x00\n      dup6\n      sstore\n      jump(tag_119)\n    tag_120:\n      dup3\n      0x1f\n      lt\n      tag_121\n      jumpi\n      dup1\n      mload\n      not(0xff)\n      and\n      dup4\n      dup1\n      add\n      or\n      dup6\n      sstore\n      jump(tag_119)\n    tag_121:\n      dup3\n      dup1\n      add\n      0x01\n      add\n      dup6\n      sstore\n      dup3\n      iszero\n      tag_119\n      jumpi\n      swap2\n      dup3\n      add\n    tag_122:\n      dup3\n      dup2\n      gt\n      iszero\n      tag_123\n      jumpi\n      dup3\n      mload\n      dup3\n      sstore\n      swap2\n      0x20\n      add\n      swap2\n      swap1\n      0x01\n      add\n      swap1\n      jump(tag_122)\n    tag_123:\n    tag_119:\n      pop\n      swap1\n      pop\n      tag_124\n      swap2\n      swap1\n      tag_125\n      jump\t// in\n    tag_124:\n      pop\n      swap1\n      jump\t// out\n    tag_125:\n    tag_126:\n      dup1\n      dup3\n      gt\n      iszero\n      tag_127\n      jumpi\n      0x00\n      dup2\n      0x00\n      swap1\n      sstore\n      pop\n      0x01\n      add\n      jump(tag_126)\n    tag_127:\n      pop\n      swap1\n      jump\t// out\n        /* \"#utility.yul\":7:419   */\n    tag_129:\n        /* \"#utility.yul\":85:90   */\n      0x00\n        /* \"#utility.yul\":110:176   */\n      tag_131\n        /* \"#utility.yul\":126:175   */\n      tag_132\n        /* \"#utility.yul\":168:174   */\n      dup5\n        /* \"#utility.yul\":126:175   */\n      tag_133\n      jump\t// in\n    tag_132:\n        /* \"#utility.yul\":110:176   */\n      tag_134\n      jump\t// in\n    tag_131:\n        /* \"#utility.yul\":101:176   */\n      swap1\n      pop\n        /* \"#utility.yul\":199:205   */\n      dup3\n        /* \"#utility.yul\":192:197   */\n      dup2\n        /* \"#utility.yul\":185:206   */\n      mstore\n        /* \"#utility.yul\":237:241   */\n      0x20\n        /* \"#utility.yul\":230:235   */\n      dup2\n        /* \"#utility.yul\":226:242   */\n      add\n        /* \"#utility.yul\":275:278   */\n      dup5\n        /* \"#utility.yul\":266:272   */\n      dup5\n        /* \"#utility.yul\":261:264   */\n      dup5\n        /* \"#utility.yul\":257:273   */\n      add\n        /* \"#utility.yul\":254:279   */\n      gt\n        /* \"#utility.yul\":251:363   */\n      iszero\n      tag_135\n      jumpi\n        /* \"#utility.yul\":282:361   */\n      tag_136\n      tag_137\n      jump\t// in\n    tag_136:\n        /* \"#utility.yul\":251:363   */\n    tag_135:\n        /* \"#utility.yul\":372:413   */\n      tag_138\n        /* \"#utility.yul\":406:412   */\n      dup5\n        /* \"#utility.yul\":401:404   */\n      dup3\n        /* \"#utility.yul\":396:399   */\n      dup6\n        /* \"#utility.yul\":372:413   */\n      tag_139\n      jump\t// in\n    tag_138:\n        /* \"#utility.yul\":91:419   */\n      pop\n        /* \"#utility.yul\":7:419   */\n      swap4\n      swap3\n      pop\n      pop\n      pop\n      jump\t// out\n        /* \"#utility.yul\":425:564   */\n    tag_140:\n        /* \"#utility.yul\":471:476   */\n      0x00\n        /* \"#utility.yul\":509:515   */\n      dup2\n        /* \"#utility.yul\":496:516   */\n      calldataload\n        /* \"#utility.yul\":487:516   */\n      swap1\n      pop\n        /* \"#utility.yul\":525:558   */\n      tag_142\n        /* \"#utility.yul\":552:557   */\n      dup2\n        /* \"#utility.yul\":525:558   */\n      tag_143\n      jump\t// in\n    tag_142:\n        /* \"#utility.yul\":425:564   */\n      swap3\n      swap2\n      pop\n      pop\n      jump\t// out\n        /* \"#utility.yul\":584:924   */\n    tag_144:\n        /* \"#utility.yul\":640:645   */\n      0x00\n        /* \"#utility.yul\":689:692   */\n      dup3\n        /* \"#utility.yul\":682:686   */\n      0x1f\n        /* \"#utility.yul\":674:680   */\n      dup4\n        /* \"#utility.yul\":670:687   */\n      add\n        /* \"#utility.yul\":666:693   */\n      slt\n        /* \"#utility.yul\":656:778   */\n      tag_146\n      jumpi\n        /* \"#utility.yul\":697:776   */\n      tag_147\n      tag_148\n      jump\t// in\n    tag_147:\n        /* \"#utility.yul\":656:778   */\n    tag_146:\n        /* \"#utility.yul\":814:820   */\n      dup2\n        /* \"#utility.yul\":801:821   */\n      calldataload\n        /* \"#utility.yul\":839:918   */\n      tag_149\n        /* \"#utility.yul\":914:917   */\n      dup5\n        /* \"#utility.yul\":906:912   */\n      dup3\n        /* \"#utility.yul\":899:903   */\n      0x20\n        /* \"#utility.yul\":891:897   */\n      dup7\n        /* \"#utility.yul\":887:904   */\n      add\n        /* \"#utility.yul\":839:918   */\n      tag_129\n      jump\t// in\n    tag_149:\n        /* \"#utility.yul\":830:918   */\n      swap2\n      pop\n        /* \"#utility.yul\":646:924   */\n      pop\n        /* \"#utility.yul\":584:924   */\n      swap3\n      swap2\n      pop\n      pop\n      jump\t// out\n        /* \"#utility.yul\":930:1069   */\n    tag_150:\n        /* \"#utility.yul\":976:981   */\n      0x00\n        /* \"#utility.yul\":1014:1020   */\n      dup2\n        /* \"#utility.yul\":1001:1021   */\n      calldataload\n        /* \"#utility.yul\":992:1021   */\n      swap1\n      pop\n        /* \"#utility.yul\":1030:1063   */\n      tag_152\n        /* \"#utility.yul\":1057:1062   */\n      dup2\n        /* \"#utility.yul\":1030:1063   */\n      tag_153\n      jump\t// in\n    tag_152:\n        /* \"#utility.yul\":930:1069   */\n      swap3\n      swap2\n      pop\n      pop\n      jump\t// out\n        /* \"#utility.yul\":1075:1404   */\n    tag_36:\n        /* \"#utility.yul\":1134:1140   */\n      0x00\n        /* \"#utility.yul\":1183:1185   */\n      0x20\n        /* \"#utility.yul\":1171:1180   */\n      dup3\n        /* \"#utility.yul\":1162:1169   */\n      dup5\n        /* \"#utility.yul\":1158:1181   */\n      sub\n        /* \"#utility.yul\":1154:1186   */\n      slt\n        /* \"#utility.yul\":1151:1270   */\n      iszero\n      tag_155\n      jumpi\n        /* \"#utility.yul\":1189:1268   */\n      tag_156\n      tag_157\n      jump\t// in\n    tag_156:\n        /* \"#utility.yul\":1151:1270   */\n    tag_155:\n        /* \"#utility.yul\":1309:1310   */\n      0x00\n        /* \"#utility.yul\":1334:1387   */\n      tag_158\n        /* \"#utility.yul\":1379:1386   */\n      dup5\n        /* \"#utility.yul\":1370:1376   */\n      dup3\n        /* \"#utility.yul\":1359:1368   */\n      dup6\n        /* \"#utility.yul\":1355:1377   */\n      add\n        /* \"#utility.yul\":1334:1387   */\n      tag_140\n      jump\t// in\n    tag_158:\n        /* \"#utility.yul\":1324:1387   */\n      swap2\n      pop\n        /* \"#utility.yul\":1280:1397   */\n      pop\n        /* \"#utility.yul\":1075:1404   */\n      swap3\n      swap2\n      pop\n      pop\n      jump\t// out\n        /* \"#utility.yul\":1410:2064   */\n    tag_15:\n        /* \"#utility.yul\":1488:1494   */\n      0x00\n        /* \"#utility.yul\":1496:1502   */\n      dup1\n        /* \"#utility.yul\":1545:1547   */\n      0x40\n        /* \"#utility.yul\":1533:1542   */\n      dup4\n        /* \"#utility.yul\":1524:1531   */\n      dup6\n        /* \"#utility.yul\":1520:1543   */\n      sub\n        /* \"#utility.yul\":1516:1548   */\n      slt\n        /* \"#utility.yul\":1513:1632   */\n      iszero\n      tag_160\n      jumpi\n        /* \"#utility.yul\":1551:1630   */\n      tag_161\n      tag_157\n      jump\t// in\n    tag_161:\n        /* \"#utility.yul\":1513:1632   */\n    tag_160:\n        /* \"#utility.yul\":1699:1700   */\n      0x00\n        /* \"#utility.yul\":1688:1697   */\n      dup4\n        /* \"#utility.yul\":1684:1701   */\n      add\n        /* \"#utility.yul\":1671:1702   */\n      calldataload\n        /* \"#utility.yul\":1729:1747   */\n      0xffffffffffffffff\n        /* \"#utility.yul\":1721:1727   */\n      dup2\n        /* \"#utility.yul\":1718:1748   */\n      gt\n        /* \"#utility.yul\":1715:1832   */\n      iszero\n      tag_162\n      jumpi\n        /* \"#utility.yul\":1751:1830   */\n      tag_163\n      tag_164\n      jump\t// in\n    tag_163:\n        /* \"#utility.yul\":1715:1832   */\n    tag_162:\n        /* \"#utility.yul\":1856:1919   */\n      tag_165\n        /* \"#utility.yul\":1911:1918   */\n      dup6\n        /* \"#utility.yul\":1902:1908   */\n      dup3\n        /* \"#utility.yul\":1891:1900   */\n      dup7\n        /* \"#utility.yul\":1887:1909   */\n      add\n        /* \"#utility.yul\":1856:1919   */\n      tag_144\n      jump\t// in\n    tag_165:\n        /* \"#utility.yul\":1846:1919   */\n      swap3\n      pop\n        /* \"#utility.yul\":1642:1929   */\n      pop\n        /* \"#utility.yul\":1968:1970   */\n      0x20\n        /* \"#utility.yul\":1994:2047   */\n      tag_166\n        /* \"#utility.yul\":2039:2046   */\n      dup6\n        /* \"#utility.yul\":2030:2036   */\n      dup3\n        /* \"#utility.yul\":2019:2028   */\n      dup7\n        /* \"#utility.yul\":2015:2037   */\n      add\n        /* \"#utility.yul\":1994:2047   */\n      tag_150\n      jump\t// in\n    tag_166:\n        /* \"#utility.yul\":1984:2047   */\n      swap2\n      pop\n        /* \"#utility.yul\":1939:2057   */\n      pop\n        /* \"#utility.yul\":1410:2064   */\n      swap3\n      pop\n      swap3\n      swap1\n      pop\n      jump\t// out\n        /* \"#utility.yul\":2070:2399   */\n    tag_19:\n        /* \"#utility.yul\":2129:2135   */\n      0x00\n        /* \"#utility.yul\":2178:2180   */\n      0x20\n        /* \"#utility.yul\":2166:2175   */\n      dup3\n        /* \"#utility.yul\":2157:2164   */\n      dup5\n        /* \"#utility.yul\":2153:2176   */\n      sub\n        /* \"#utility.yul\":2149:2181   */\n      slt\n        /* \"#utility.yul\":2146:2265   */\n      iszero\n      tag_168\n      jumpi\n        /* \"#utility.yul\":2184:2263   */\n      tag_169\n      tag_157\n      jump\t// in\n    tag_169:\n        /* \"#utility.yul\":2146:2265   */\n    tag_168:\n        /* \"#utility.yul\":2304:2305   */\n      0x00\n        /* \"#utility.yul\":2329:2382   */\n      tag_170\n        /* \"#utility.yul\":2374:2381   */\n      dup5\n        /* \"#utility.yul\":2365:2371   */\n      dup3\n        /* \"#utility.yul\":2354:2363   */\n      dup6\n        /* \"#utility.yul\":2350:2372   */\n      add\n        /* \"#utility.yul\":2329:2382   */\n      tag_150\n      jump\t// in\n    tag_170:\n        /* \"#utility.yul\":2319:2382   */\n      swap2\n      pop\n        /* \"#utility.yul\":2275:2392   */\n      pop\n        /* \"#utility.yul\":2070:2399   */\n      swap3\n      swap2\n      pop\n      pop\n      jump\t// out\n        /* \"#utility.yul\":2405:2879   */\n    tag_10:\n        /* \"#utility.yul\":2473:2479   */\n      0x00\n        /* \"#utility.yul\":2481:2487   */\n      dup1\n        /* \"#utility.yul\":2530:2532   */\n      0x40\n        /* \"#utility.yul\":2518:2527   */\n      dup4\n        /* \"#utility.yul\":2509:2516   */\n      dup6\n        /* \"#utility.yul\":2505:2528   */\n      sub\n        /* \"#utility.yul\":2501:2533   */\n      slt\n        /* \"#utility.yul\":2498:2617   */\n      iszero\n      tag_172\n      jumpi\n        /* \"#utility.yul\":2536:2615   */\n      tag_173\n      tag_157\n      jump\t// in\n    tag_173:\n        /* \"#utility.yul\":2498:2617   */\n    tag_172:\n        /* \"#utility.yul\":2656:2657   */\n      0x00\n        /* \"#utility.yul\":2681:2734   */\n      tag_174\n        /* \"#utility.yul\":2726:2733   */\n      dup6\n        /* \"#utility.yul\":2717:2723   */\n      dup3\n        /* \"#utility.yul\":2706:2715   */\n      dup7\n        /* \"#utility.yul\":2702:2724   */\n      add\n        /* \"#utility.yul\":2681:2734   */\n      tag_150\n      jump\t// in\n    tag_174:\n        /* \"#utility.yul\":2671:2734   */\n      swap3\n      pop\n        /* \"#utility.yul\":2627:2744   */\n      pop\n        /* \"#utility.yul\":2783:2785   */\n      0x20\n        /* \"#utility.yul\":2809:2862   */\n      tag_175\n        /* \"#utility.yul\":2854:2861   */\n      dup6\n        /* \"#utility.yul\":2845:2851   */\n      dup3\n        /* \"#utility.yul\":2834:2843   */\n      dup7\n        /* \"#utility.yul\":2830:2852   */\n      add\n        /* \"#utility.yul\":2809:2862   */\n      tag_150\n      jump\t// in\n    tag_175:\n        /* \"#utility.yul\":2799:2862   */\n      swap2\n      pop\n        /* \"#utility.yul\":2754:2872   */\n      pop\n        /* \"#utility.yul\":2405:2879   */\n      swap3\n      pop\n      swap3\n      swap1\n      pop\n      jump\t// out\n        /* \"#utility.yul\":2885:3003   */\n    tag_176:\n        /* \"#utility.yul\":2972:2996   */\n      tag_178\n        /* \"#utility.yul\":2990:2995   */\n      dup2\n        /* \"#utility.yul\":2972:2996   */\n      tag_179\n      jump\t// in\n    tag_178:\n        /* \"#utility.yul\":2967:2970   */\n      dup3\n        /* \"#utility.yul\":2960:2997   */\n      mstore\n        /* \"#utility.yul\":2885:3003   */\n      pop\n      pop\n      jump\t// out\n        /* \"#utility.yul\":3009:3375   */\n    tag_180:\n        /* \"#utility.yul\":3151:3154   */\n      0x00\n        /* \"#utility.yul\":3172:3239   */\n      tag_182\n        /* \"#utility.yul\":3236:3238   */\n      0x1e\n        /* \"#utility.yul\":3231:3234   */\n      dup4\n        /* \"#utility.yul\":3172:3239   */\n      tag_183\n      jump\t// in\n    tag_182:\n        /* \"#utility.yul\":3165:3239   */\n      swap2\n      pop\n        /* \"#utility.yul\":3248:3341   */\n      tag_184\n        /* \"#utility.yul\":3337:3340   */\n      dup3\n        /* \"#utility.yul\":3248:3341   */\n      tag_185\n      jump\t// in\n    tag_184:\n        /* \"#utility.yul\":3366:3368   */\n      0x20\n        /* \"#utility.yul\":3361:3364   */\n      dup3\n        /* \"#utility.yul\":3357:3369   */\n      add\n        /* \"#utility.yul\":3350:3369   */\n      swap1\n      pop\n        /* \"#utility.yul\":3009:3375   */\n      swap2\n      swap1\n      pop\n      jump\t// out\n        /* \"#utility.yul\":3381:3747   */\n    tag_186:\n        /* \"#utility.yul\":3523:3526   */\n      0x00\n        /* \"#utility.yul\":3544:3611   */\n      tag_188\n        /* \"#utility.yul\":3608:3610   */\n      0x15\n        /* \"#utility.yul\":3603:3606   */\n      dup4\n        /* \"#utility.yul\":3544:3611   */\n      tag_183\n      jump\t// in\n    tag_188:\n        /* \"#utility.yul\":3537:3611   */\n      swap2\n      pop\n        /* \"#utility.yul\":3620:3713   */\n      tag_189\n        /* \"#utility.yul\":3709:3712   */\n      dup3\n        /* \"#utility.yul\":3620:3713   */\n      tag_190\n      jump\t// in\n    tag_189:\n        /* \"#utility.yul\":3738:3740   */\n      0x20\n        /* \"#utility.yul\":3733:3736   */\n      dup3\n        /* \"#utility.yul\":3729:3741   */\n      add\n        /* \"#utility.yul\":3722:3741   */\n      swap1\n      pop\n        /* \"#utility.yul\":3381:3747   */\n      swap2\n      swap1\n      pop\n      jump\t// out\n        /* \"#utility.yul\":3753:4119   */\n    tag_191:\n        /* \"#utility.yul\":3895:3898   */\n      0x00\n        /* \"#utility.yul\":3916:3983   */\n      tag_193\n        /* \"#utility.yul\":3980:3982   */\n      0x19\n        /* \"#utility.yul\":3975:3978   */\n      dup4\n        /* \"#utility.yul\":3916:3983   */\n      tag_183\n      jump\t// in\n    tag_193:\n        /* \"#utility.yul\":3909:3983   */\n      swap2\n      pop\n        /* \"#utility.yul\":3992:4085   */\n      tag_194\n        /* \"#utility.yul\":4081:4084   */\n      dup3\n        /* \"#utility.yul\":3992:4085   */\n      tag_195\n      jump\t// in\n    tag_194:\n        /* \"#utility.yul\":4110:4112   */\n      0x20\n        /* \"#utility.yul\":4105:4108   */\n      dup3\n        /* \"#utility.yul\":4101:4113   */\n      add\n        /* \"#utility.yul\":4094:4113   */\n      swap1\n      pop\n        /* \"#utility.yul\":3753:4119   */\n      swap2\n      swap1\n      pop\n      jump\t// out\n        /* \"#utility.yul\":4125:4491   */\n    tag_196:\n        /* \"#utility.yul\":4267:4270   */\n      0x00\n        /* \"#utility.yul\":4288:4355   */\n      tag_198\n        /* \"#utility.yul\":4352:4354   */\n      0x18\n        /* \"#utility.yul\":4347:4350   */\n      dup4\n        /* \"#utility.yul\":4288:4355   */\n      tag_183\n      jump\t// in\n    tag_198:\n        /* \"#utility.yul\":4281:4355   */\n      swap2\n      pop\n        /* \"#utility.yul\":4364:4457   */\n      tag_199\n        /* \"#utility.yul\":4453:4456   */\n      dup3\n        /* \"#utility.yul\":4364:4457   */\n      tag_200\n      jump\t// in\n    tag_199:\n        /* \"#utility.yul\":4482:4484   */\n      0x20\n        /* \"#utility.yul\":4477:4480   */\n      dup3\n        /* \"#utility.yul\":4473:4485   */\n      add\n        /* \"#utility.yul\":4466:4485   */\n      swap1\n      pop\n        /* \"#utility.yul\":4125:4491   */\n      swap2\n      swap1\n      pop\n      jump\t// out\n        /* \"#utility.yul\":4497:4863   */\n    tag_201:\n        /* \"#utility.yul\":4639:4642   */\n      0x00\n        /* \"#utility.yul\":4660:4727   */\n      tag_203\n        /* \"#utility.yul\":4724:4726   */\n      0x2c\n        /* \"#utility.yul\":4719:4722   */\n      dup4\n        /* \"#utility.yul\":4660:4727   */\n      tag_183\n      jump\t// in\n    tag_203:\n        /* \"#utility.yul\":4653:4727   */\n      swap2\n      pop\n        /* \"#utility.yul\":4736:4829   */\n      tag_204\n        /* \"#utility.yul\":4825:4828   */\n      dup3\n        /* \"#utility.yul\":4736:4829   */\n      tag_205\n      jump\t// in\n    tag_204:\n        /* \"#utility.yul\":4854:4856   */\n      0x40\n        /* \"#utility.yul\":4849:4852   */\n      dup3\n        /* \"#utility.yul\":4845:4857   */\n      add\n        /* \"#utility.yul\":4838:4857   */\n      swap1\n      pop\n        /* \"#utility.yul\":4497:4863   */\n      swap2\n      swap1\n      pop\n      jump\t// out\n        /* \"#utility.yul\":4869:5235   */\n    tag_206:\n        /* \"#utility.yul\":5011:5014   */\n      0x00\n        /* \"#utility.yul\":5032:5099   */\n      tag_208\n        /* \"#utility.yul\":5096:5098   */\n      0x15\n        /* \"#utility.yul\":5091:5094   */\n      dup4\n        /* \"#utility.yul\":5032:5099   */\n      tag_183\n      jump\t// in\n    tag_208:\n        /* \"#utility.yul\":5025:5099   */\n      swap2\n      pop\n        /* \"#utility.yul\":5108:5201   */\n      tag_209\n        /* \"#utility.yul\":5197:5200   */\n      dup3\n        /* \"#utility.yul\":5108:5201   */\n      tag_210\n      jump\t// in\n    tag_209:\n        /* \"#utility.yul\":5226:5228   */\n      0x20\n        /* \"#utility.yul\":5221:5224   */\n      dup3\n        /* \"#utility.yul\":5217:5229   */\n      add\n        /* \"#utility.yul\":5210:5229   */\n      swap1\n      pop\n        /* \"#utility.yul\":4869:5235   */\n      swap2\n      swap1\n      pop\n      jump\t// out\n        /* \"#utility.yul\":5241:5359   */\n    tag_211:\n        /* \"#utility.yul\":5328:5352   */\n      tag_213\n        /* \"#utility.yul\":5346:5351   */\n      dup2\n        /* \"#utility.yul\":5328:5352   */\n      tag_214\n      jump\t// in\n    tag_213:\n        /* \"#utility.yul\":5323:5326   */\n      dup3\n        /* \"#utility.yul\":5316:5353   */\n      mstore\n        /* \"#utility.yul\":5241:5359   */\n      pop\n      pop\n      jump\t// out\n        /* \"#utility.yul\":5365:5807   */\n    tag_32:\n        /* \"#utility.yul\":5514:5518   */\n      0x00\n        /* \"#utility.yul\":5552:5554   */\n      0x60\n        /* \"#utility.yul\":5541:5550   */\n      dup3\n        /* \"#utility.yul\":5537:5555   */\n      add\n        /* \"#utility.yul\":5529:5555   */\n      swap1\n      pop\n        /* \"#utility.yul\":5565:5636   */\n      tag_216\n        /* \"#utility.yul\":5633:5634   */\n      0x00\n        /* \"#utility.yul\":5622:5631   */\n      dup4\n        /* \"#utility.yul\":5618:5635   */\n      add\n        /* \"#utility.yul\":5609:5615   */\n      dup7\n        /* \"#utility.yul\":5565:5636   */\n      tag_176\n      jump\t// in\n    tag_216:\n        /* \"#utility.yul\":5646:5718   */\n      tag_217\n        /* \"#utility.yul\":5714:5716   */\n      0x20\n        /* \"#utility.yul\":5703:5712   */\n      dup4\n        /* \"#utility.yul\":5699:5717   */\n      add\n        /* \"#utility.yul\":5690:5696   */\n      dup6\n        /* \"#utility.yul\":5646:5718   */\n      tag_211\n      jump\t// in\n    tag_217:\n        /* \"#utility.yul\":5728:5800   */\n      tag_218\n        /* \"#utility.yul\":5796:5798   */\n      0x40\n        /* \"#utility.yul\":5785:5794   */\n      dup4\n        /* \"#utility.yul\":5781:5799   */\n      add\n        /* \"#utility.yul\":5772:5778   */\n      dup5\n        /* \"#utility.yul\":5728:5800   */\n      tag_211\n      jump\t// in\n    tag_218:\n        /* \"#utility.yul\":5365:5807   */\n      swap5\n      swap4\n      pop\n      pop\n      pop\n      pop\n      jump\t// out\n        /* \"#utility.yul\":5813:6232   */\n    tag_74:\n        /* \"#utility.yul\":5979:5983   */\n      0x00\n        /* \"#utility.yul\":6017:6019   */\n      0x20\n        /* \"#utility.yul\":6006:6015   */\n      dup3\n        /* \"#utility.yul\":6002:6020   */\n      add\n        /* \"#utility.yul\":5994:6020   */\n      swap1\n      pop\n        /* \"#utility.yul\":6066:6075   */\n      dup2\n        /* \"#utility.yul\":6060:6064   */\n      dup2\n        /* \"#utility.yul\":6056:6076   */\n      sub\n        /* \"#utility.yul\":6052:6053   */\n      0x00\n        /* \"#utility.yul\":6041:6050   */\n      dup4\n        /* \"#utility.yul\":6037:6054   */\n      add\n        /* \"#utility.yul\":6030:6077   */\n      mstore\n        /* \"#utility.yul\":6094:6225   */\n      tag_220\n        /* \"#utility.yul\":6220:6224   */\n      dup2\n        /* \"#utility.yul\":6094:6225   */\n      tag_180\n      jump\t// in\n    tag_220:\n        /* \"#utility.yul\":6086:6225   */\n      swap1\n      pop\n        /* \"#utility.yul\":5813:6232   */\n      swap2\n      swap1\n      pop\n      jump\t// out\n        /* \"#utility.yul\":6238:6657   */\n    tag_77:\n        /* \"#utility.yul\":6404:6408   */\n      0x00\n        /* \"#utility.yul\":6442:6444   */\n      0x20\n        /* \"#utility.yul\":6431:6440   */\n      dup3\n        /* \"#utility.yul\":6427:6445   */\n      add\n        /* \"#utility.yul\":6419:6445   */\n      swap1\n      pop\n        /* \"#utility.yul\":6491:6500   */\n      dup2\n        /* \"#utility.yul\":6485:6489   */\n      dup2\n        /* \"#utility.yul\":6481:6501   */\n      sub\n        /* \"#utility.yul\":6477:6478   */\n      0x00\n        /* \"#utility.yul\":6466:6475   */\n      dup4\n        /* \"#utility.yul\":6462:6479   */\n      add\n        /* \"#utility.yul\":6455:6502   */\n      mstore\n        /* \"#utility.yul\":6519:6650   */\n      tag_222\n        /* \"#utility.yul\":6645:6649   */\n      dup2\n        /* \"#utility.yul\":6519:6650   */\n      tag_186\n      jump\t// in\n    tag_222:\n        /* \"#utility.yul\":6511:6650   */\n      swap1\n      pop\n        /* \"#utility.yul\":6238:6657   */\n      swap2\n      swap1\n      pop\n      jump\t// out\n        /* \"#utility.yul\":6663:7082   */\n    tag_55:\n        /* \"#utility.yul\":6829:6833   */\n      0x00\n        /* \"#utility.yul\":6867:6869   */\n      0x20\n        /* \"#utility.yul\":6856:6865   */\n      dup3\n        /* \"#utility.yul\":6852:6870   */\n      add\n        /* \"#utility.yul\":6844:6870   */\n      swap1\n      pop\n        /* \"#utility.yul\":6916:6925   */\n      dup2\n        /* \"#utility.yul\":6910:6914   */\n      dup2\n        /* \"#utility.yul\":6906:6926   */\n      sub\n        /* \"#utility.yul\":6902:6903   */\n      0x00\n        /* \"#utility.yul\":6891:6900   */\n      dup4\n        /* \"#utility.yul\":6887:6904   */\n      add\n        /* \"#utility.yul\":6880:6927   */\n      mstore\n        /* \"#utility.yul\":6944:7075   */\n      tag_224\n        /* \"#utility.yul\":7070:7074   */\n      dup2\n        /* \"#utility.yul\":6944:7075   */\n      tag_191\n      jump\t// in\n    tag_224:\n        /* \"#utility.yul\":6936:7075   */\n      swap1\n      pop\n        /* \"#utility.yul\":6663:7082   */\n      swap2\n      swap1\n      pop\n      jump\t// out\n        /* \"#utility.yul\":7088:7507   */\n    tag_80:\n        /* \"#utility.yul\":7254:7258   */\n      0x00\n        /* \"#utility.yul\":7292:7294   */\n      0x20\n        /* \"#utility.yul\":7281:7290   */\n      dup3\n        /* \"#utility.yul\":7277:7295   */\n      add\n        /* \"#utility.yul\":7269:7295   */\n      swap1\n      pop\n        /* \"#utility.yul\":7341:7350   */\n      dup2\n        /* \"#utility.yul\":7335:7339   */\n      dup2\n        /* \"#utility.yul\":7331:7351   */\n      sub\n        /* \"#utility.yul\":7327:7328   */\n      0x00\n        /* \"#utility.yul\":7316:7325   */\n      dup4\n        /* \"#utility.yul\":7312:7329   */\n      add\n        /* \"#utility.yul\":7305:7352   */\n      mstore\n        /* \"#utility.yul\":7369:7500   */\n      tag_226\n        /* \"#utility.yul\":7495:7499   */\n      dup2\n        /* \"#utility.yul\":7369:7500   */\n      tag_196\n      jump\t// in\n    tag_226:\n        /* \"#utility.yul\":7361:7500   */\n      swap1\n      pop\n        /* \"#utility.yul\":7088:7507   */\n      swap2\n      swap1\n      pop\n      jump\t// out\n        /* \"#utility.yul\":7513:7932   */\n    tag_85:\n        /* \"#utility.yul\":7679:7683   */\n      0x00\n        /* \"#utility.yul\":7717:7719   */\n      0x20\n        /* \"#utility.yul\":7706:7715   */\n      dup3\n        /* \"#utility.yul\":7702:7720   */\n      add\n        /* \"#utility.yul\":7694:7720   */\n      swap1\n      pop\n        /* \"#utility.yul\":7766:7775   */\n      dup2\n        /* \"#utility.yul\":7760:7764   */\n      dup2\n        /* \"#utility.yul\":7756:7776   */\n      sub\n        /* \"#utility.yul\":7752:7753   */\n      0x00\n        /* \"#utility.yul\":7741:7750   */\n      dup4\n        /* \"#utility.yul\":7737:7754   */\n      add\n        /* \"#utility.yul\":7730:7777   */\n      mstore\n        /* \"#utility.yul\":7794:7925   */\n      tag_228\n        /* \"#utility.yul\":7920:7924   */\n      dup2\n        /* \"#utility.yul\":7794:7925   */\n      tag_201\n      jump\t// in\n    tag_228:\n        /* \"#utility.yul\":7786:7925   */\n      swap1\n      pop\n        /* \"#utility.yul\":7513:7932   */\n      swap2\n      swap1\n      pop\n      jump\t// out\n        /* \"#utility.yul\":7938:8357   */\n    tag_58:\n        /* \"#utility.yul\":8104:8108   */\n      0x00\n        /* \"#utility.yul\":8142:8144   */\n      0x20\n        /* \"#utility.yul\":8131:8140   */\n      dup3\n        /* \"#utility.yul\":8127:8145   */\n      add\n        /* \"#utility.yul\":8119:8145   */\n      swap1\n      pop\n        /* \"#utility.yul\":8191:8200   */\n      dup2\n        /* \"#utility.yul\":8185:8189   */\n      dup2\n        /* \"#utility.yul\":8181:8201   */\n      sub\n        /* \"#utility.yul\":8177:8178   */\n      0x00\n        /* \"#utility.yul\":8166:8175   */\n      dup4\n        /* \"#utility.yul\":8162:8179   */\n      add\n        /* \"#utility.yul\":8155:8202   */\n      mstore\n        /* \"#utility.yul\":8219:8350   */\n      tag_230\n        /* \"#utility.yul\":8345:8349   */\n      dup2\n        /* \"#utility.yul\":8219:8350   */\n      tag_206\n      jump\t// in\n    tag_230:\n        /* \"#utility.yul\":8211:8350   */\n      swap1\n      pop\n        /* \"#utility.yul\":7938:8357   */\n      swap2\n      swap1\n      pop\n      jump\t// out\n        /* \"#utility.yul\":8363:8585   */\n    tag_26:\n        /* \"#utility.yul\":8456:8460   */\n      0x00\n        /* \"#utility.yul\":8494:8496   */\n      0x20\n        /* \"#utility.yul\":8483:8492   */\n      dup3\n        /* \"#utility.yul\":8479:8497   */\n      add\n        /* \"#utility.yul\":8471:8497   */\n      swap1\n      pop\n        /* \"#utility.yul\":8507:8578   */\n      tag_232\n        /* \"#utility.yul\":8575:8576   */\n      0x00\n        /* \"#utility.yul\":8564:8573   */\n      dup4\n        /* \"#utility.yul\":8560:8577   */\n      add\n        /* \"#utility.yul\":8551:8557   */\n      dup5\n        /* \"#utility.yul\":8507:8578   */\n      tag_211\n      jump\t// in\n    tag_232:\n        /* \"#utility.yul\":8363:8585   */\n      swap3\n      swap2\n      pop\n      pop\n      jump\t// out\n        /* \"#utility.yul\":8591:8720   */\n    tag_134:\n        /* \"#utility.yul\":8625:8631   */\n      0x00\n        /* \"#utility.yul\":8652:8672   */\n      tag_234\n      tag_235\n      jump\t// in\n    tag_234:\n        /* \"#utility.yul\":8642:8672   */\n      swap1\n      pop\n        /* \"#utility.yul\":8681:8714   */\n      tag_236\n        /* \"#utility.yul\":8709:8713   */\n      dup3\n        /* \"#utility.yul\":8701:8707   */\n      dup3\n        /* \"#utility.yul\":8681:8714   */\n      tag_237\n      jump\t// in\n    tag_236:\n        /* \"#utility.yul\":8591:8720   */\n      swap2\n      swap1\n      pop\n      jump\t// out\n        /* \"#utility.yul\":8726:8801   */\n    tag_235:\n        /* \"#utility.yul\":8759:8765   */\n      0x00\n        /* \"#utility.yul\":8792:8794   */\n      0x40\n        /* \"#utility.yul\":8786:8795   */\n      mload\n        /* \"#utility.yul\":8776:8795   */\n      swap1\n      pop\n        /* \"#utility.yul\":8726:8801   */\n      swap1\n      jump\t// out\n        /* \"#utility.yul\":8807:9115   */\n    tag_133:\n        /* \"#utility.yul\":8869:8873   */\n      0x00\n        /* \"#utility.yul\":8959:8977   */\n      0xffffffffffffffff\n        /* \"#utility.yul\":8951:8957   */\n      dup3\n        /* \"#utility.yul\":8948:8978   */\n      gt\n        /* \"#utility.yul\":8945:9001   */\n      iszero\n      tag_240\n      jumpi\n        /* \"#utility.yul\":8981:8999   */\n      tag_241\n      tag_242\n      jump\t// in\n    tag_241:\n        /* \"#utility.yul\":8945:9001   */\n    tag_240:\n        /* \"#utility.yul\":9019:9048   */\n      tag_243\n        /* \"#utility.yul\":9041:9047   */\n      dup3\n        /* \"#utility.yul\":9019:9048   */\n      tag_244\n      jump\t// in\n    tag_243:\n        /* \"#utility.yul\":9011:9048   */\n      swap1\n      pop\n        /* \"#utility.yul\":9103:9107   */\n      0x20\n        /* \"#utility.yul\":9097:9101   */\n      dup2\n        /* \"#utility.yul\":9093:9108   */\n      add\n        /* \"#utility.yul\":9085:9108   */\n      swap1\n      pop\n        /* \"#utility.yul\":8807:9115   */\n      swap2\n      swap1\n      pop\n      jump\t// out\n        /* \"#utility.yul\":9121:9290   */\n    tag_183:\n        /* \"#utility.yul\":9205:9216   */\n      0x00\n        /* \"#utility.yul\":9239:9245   */\n      dup3\n        /* \"#utility.yul\":9234:9237   */\n      dup3\n        /* \"#utility.yul\":9227:9246   */\n      mstore\n        /* \"#utility.yul\":9279:9283   */\n      0x20\n        /* \"#utility.yul\":9274:9277   */\n      dup3\n        /* \"#utility.yul\":9270:9284   */\n      add\n        /* \"#utility.yul\":9255:9284   */\n      swap1\n      pop\n        /* \"#utility.yul\":9121:9290   */\n      swap3\n      swap2\n      pop\n      pop\n      jump\t// out\n        /* \"#utility.yul\":9296:9601   */\n    tag_88:\n        /* \"#utility.yul\":9336:9339   */\n      0x00\n        /* \"#utility.yul\":9355:9375   */\n      tag_247\n        /* \"#utility.yul\":9373:9374   */\n      dup3\n        /* \"#utility.yul\":9355:9375   */\n      tag_214\n      jump\t// in\n    tag_247:\n        /* \"#utility.yul\":9350:9375   */\n      swap2\n      pop\n        /* \"#utility.yul\":9389:9409   */\n      tag_248\n        /* \"#utility.yul\":9407:9408   */\n      dup4\n        /* \"#utility.yul\":9389:9409   */\n      tag_214\n      jump\t// in\n    tag_248:\n        /* \"#utility.yul\":9384:9409   */\n      swap3\n      pop\n        /* \"#utility.yul\":9543:9544   */\n      dup3\n        /* \"#utility.yul\":9475:9541   */\n      0xffffffffffffffffffffffffffffffffffffffffffffffffffffffffffffffff\n        /* \"#utility.yul\":9471:9545   */\n      sub\n        /* \"#utility.yul\":9468:9469   */\n      dup3\n        /* \"#utility.yul\":9465:9546   */\n      gt\n        /* \"#utility.yul\":9462:9569   */\n      iszero\n      tag_249\n      jumpi\n        /* \"#utility.yul\":9549:9567   */\n      tag_250\n      tag_251\n      jump\t// in\n    tag_250:\n        /* \"#utility.yul\":9462:9569   */\n    tag_249:\n        /* \"#utility.yul\":9593:9594   */\n      dup3\n        /* \"#utility.yul\":9590:9591   */\n      dup3\n        /* \"#utility.yul\":9586:9595   */\n      add\n        /* \"#utility.yul\":9579:9595   */\n      swap1\n      pop\n        /* \"#utility.yul\":9296:9601   */\n      swap3\n      swap2\n      pop\n      pop\n      jump\t// out\n        /* \"#utility.yul\":9607:9792   */\n    tag_115:\n        /* \"#utility.yul\":9647:9648   */\n      0x00\n        /* \"#utility.yul\":9664:9684   */\n      tag_253\n        /* \"#utility.yul\":9682:9683   */\n      dup3\n        /* \"#utility.yul\":9664:9684   */\n      tag_214\n      jump\t// in\n    tag_253:\n        /* \"#utility.yul\":9659:9684   */\n      swap2\n      pop\n        /* \"#utility.yul\":9698:9718   */\n      tag_254\n        /* \"#utility.yul\":9716:9717   */\n      dup4\n        /* \"#utility.yul\":9698:9718   */\n      tag_214\n      jump\t// in\n    tag_254:\n        /* \"#utility.yul\":9693:9718   */\n      swap3\n      pop\n        /* \"#utility.yul\":9737:9738   */\n      dup3\n        /* \"#utility.yul\":9727:9762   */\n      tag_255\n      jumpi\n        /* \"#utility.yul\":9742:9760   */\n      tag_256\n      tag_257\n      jump\t// in\n    tag_256:\n        /* \"#utility.yul\":9727:9762   */\n    tag_255:\n        /* \"#utility.yul\":9784:9785   */\n      dup3\n        /* \"#utility.yul\":9781:9782   */\n      dup3\n        /* \"#utility.yul\":9777:9786   */\n      div\n        /* \"#utility.yul\":9772:9786   */\n      swap1\n      pop\n        /* \"#utility.yul\":9607:9792   */\n      swap3\n      swap2\n      pop\n      pop\n      jump\t// out\n        /* \"#utility.yul\":9798:10146   */\n    tag_82:\n        /* \"#utility.yul\":9838:9845   */\n      0x00\n        /* \"#utility.yul\":9861:9881   */\n      tag_259\n        /* \"#utility.yul\":9879:9880   */\n      dup3\n        /* \"#utility.yul\":9861:9881   */\n      tag_214\n      jump\t// in\n    tag_259:\n        /* \"#utility.yul\":9856:9881   */\n      swap2\n      pop\n        /* \"#utility.yul\":9895:9915   */\n      tag_260\n        /* \"#utility.yul\":9913:9914   */\n      dup4\n        /* \"#utility.yul\":9895:9915   */\n      tag_214\n      jump\t// in\n    tag_260:\n        /* \"#utility.yul\":9890:9915   */\n      swap3\n      pop\n        /* \"#utility.yul\":10083:10084   */\n      dup2\n        /* \"#utility.yul\":10015:10081   */\n      0xffffffffffffffffffffffffffffffffffffffffffffffffffffffffffffffff\n        /* \"#utility.yul\":10011:10085   */\n      div\n        /* \"#utility.yul\":10008:10009   */\n      dup4\n        /* \"#utility.yul\":10005:10086   */\n      gt\n        /* \"#utility.yul\":10000:10001   */\n      dup3\n        /* \"#utility.yul\":9993:10002   */\n      iszero\n        /* \"#utility.yul\":9986:10003   */\n      iszero\n        /* \"#utility.yul\":9982:10087   */\n      and\n        /* \"#utility.yul\":9979:10110   */\n      iszero\n      tag_261\n      jumpi\n        /* \"#utility.yul\":10090:10108   */\n      tag_262\n      tag_251\n      jump\t// in\n    tag_262:\n        /* \"#utility.yul\":9979:10110   */\n    tag_261:\n        /* \"#utility.yul\":10138:10139   */\n      dup3\n        /* \"#utility.yul\":10135:10136   */\n      dup3\n        /* \"#utility.yul\":10131:10140   */\n      mul\n        /* \"#utility.yul\":10120:10140   */\n      swap1\n      pop\n        /* \"#utility.yul\":9798:10146   */\n      swap3\n      swap2\n      pop\n      pop\n      jump\t// out\n        /* \"#utility.yul\":10152:10248   */\n    tag_179:\n        /* \"#utility.yul\":10189:10196   */\n      0x00\n        /* \"#utility.yul\":10218:10242   */\n      tag_264\n        /* \"#utility.yul\":10236:10241   */\n      dup3\n        /* \"#utility.yul\":10218:10242   */\n      tag_265\n      jump\t// in\n    tag_264:\n        /* \"#utility.yul\":10207:10242   */\n      swap1\n      pop\n        /* \"#utility.yul\":10152:10248   */\n      swap2\n      swap1\n      pop\n      jump\t// out\n        /* \"#utility.yul\":10254:10380   */\n    tag_265:\n        /* \"#utility.yul\":10291:10298   */\n      0x00\n        /* \"#utility.yul\":10331:10373   */\n      0xffffffffffffffffffffffffffffffffffffffff\n        /* \"#utility.yul\":10324:10329   */\n      dup3\n        /* \"#utility.yul\":10320:10374   */\n      and\n        /* \"#utility.yul\":10309:10374   */\n      swap1\n      pop\n        /* \"#utility.yul\":10254:10380   */\n      swap2\n      swap1\n      pop\n      jump\t// out\n        /* \"#utility.yul\":10386:10463   */\n    tag_214:\n        /* \"#utility.yul\":10423:10430   */\n      0x00\n        /* \"#utility.yul\":10452:10457   */\n      dup2\n        /* \"#utility.yul\":10441:10457   */\n      swap1\n      pop\n        /* \"#utility.yul\":10386:10463   */\n      swap2\n      swap1\n      pop\n      jump\t// out\n        /* \"#utility.yul\":10469:10623   */\n    tag_139:\n        /* \"#utility.yul\":10553:10559   */\n      dup3\n        /* \"#utility.yul\":10548:10551   */\n      dup2\n        /* \"#utility.yul\":10543:10546   */\n      dup4\n        /* \"#utility.yul\":10530:10560   */\n      calldatacopy\n        /* \"#utility.yul\":10615:10616   */\n      0x00\n        /* \"#utility.yul\":10606:10612   */\n      dup4\n        /* \"#utility.yul\":10601:10604   */\n      dup4\n        /* \"#utility.yul\":10597:10613   */\n      add\n        /* \"#utility.yul\":10590:10617   */\n      mstore\n        /* \"#utility.yul\":10469:10623   */\n      pop\n      pop\n      pop\n      jump\t// out\n        /* \"#utility.yul\":10629:10949   */\n    tag_45:\n        /* \"#utility.yul\":10673:10679   */\n      0x00\n        /* \"#utility.yul\":10710:10711   */\n      0x02\n        /* \"#utility.yul\":10704:10708   */\n      dup3\n        /* \"#utility.yul\":10700:10712   */\n      div\n        /* \"#utility.yul\":10690:10712   */\n      swap1\n      pop\n        /* \"#utility.yul\":10757:10758   */\n      0x01\n        /* \"#utility.yul\":10751:10755   */\n      dup3\n        /* \"#utility.yul\":10747:10759   */\n      and\n        /* \"#utility.yul\":10778:10796   */\n      dup1\n        /* \"#utility.yul\":10768:10849   */\n      tag_270\n      jumpi\n        /* \"#utility.yul\":10834:10838   */\n      0x7f\n        /* \"#utility.yul\":10826:10832   */\n      dup3\n        /* \"#utility.yul\":10822:10839   */\n      and\n        /* \"#utility.yul\":10812:10839   */\n      swap2\n      pop\n        /* \"#utility.yul\":10768:10849   */\n    tag_270:\n        /* \"#utility.yul\":10896:10898   */\n      0x20\n        /* \"#utility.yul\":10888:10894   */\n      dup3\n        /* \"#utility.yul\":10885:10899   */\n      lt\n        /* \"#utility.yul\":10865:10883   */\n      dup2\n        /* \"#utility.yul\":10862:10900   */\n      eq\n        /* \"#utility.yul\":10859:10943   */\n      iszero\n      tag_271\n      jumpi\n        /* \"#utility.yul\":10915:10933   */\n      tag_272\n      tag_273\n      jump\t// in\n    tag_272:\n        /* \"#utility.yul\":10859:10943   */\n    tag_271:\n        /* \"#utility.yul\":10680:10949   */\n      pop\n        /* \"#utility.yul\":10629:10949   */\n      swap2\n      swap1\n      pop\n      jump\t// out\n        /* \"#utility.yul\":10955:11236   */\n    tag_237:\n        /* \"#utility.yul\":11038:11065   */\n      tag_275\n        /* \"#utility.yul\":11060:11064   */\n      dup3\n        /* \"#utility.yul\":11038:11065   */\n      tag_244\n      jump\t// in\n    tag_275:\n        /* \"#utility.yul\":11030:11036   */\n      dup2\n        /* \"#utility.yul\":11026:11066   */\n      add\n        /* \"#utility.yul\":11168:11174   */\n      dup2\n        /* \"#utility.yul\":11156:11166   */\n      dup2\n        /* \"#utility.yul\":11153:11175   */\n      lt\n        /* \"#utility.yul\":11132:11150   */\n      0xffffffffffffffff\n        /* \"#utility.yul\":11120:11130   */\n      dup3\n        /* \"#utility.yul\":11117:11151   */\n      gt\n        /* \"#utility.yul\":11114:11176   */\n      or\n        /* \"#utility.yul\":11111:11199   */\n      iszero\n      tag_276\n      jumpi\n        /* \"#utility.yul\":11179:11197   */\n      tag_277\n      tag_242\n      jump\t// in\n    tag_277:\n        /* \"#utility.yul\":11111:11199   */\n    tag_276:\n        /* \"#utility.yul\":11219:11229   */\n      dup1\n        /* \"#utility.yul\":11215:11217   */\n      0x40\n        /* \"#utility.yul\":11208:11230   */\n      mstore\n        /* \"#utility.yul\":10998:11236   */\n      pop\n        /* \"#utility.yul\":10955:11236   */\n      pop\n      pop\n      jump\t// out\n        /* \"#utility.yul\":11242:11422   */\n    tag_251:\n        /* \"#utility.yul\":11290:11367   */\n      0x4e487b7100000000000000000000000000000000000000000000000000000000\n        /* \"#utility.yul\":11287:11288   */\n      0x00\n        /* \"#utility.yul\":11280:11368   */\n      mstore\n        /* \"#utility.yul\":11387:11391   */\n      0x11\n        /* \"#utility.yul\":11384:11385   */\n      0x04\n        /* \"#utility.yul\":11377:11392   */\n      mstore\n        /* \"#utility.yul\":11411:11415   */\n      0x24\n        /* \"#utility.yul\":11408:11409   */\n      0x00\n        /* \"#utility.yul\":11401:11416   */\n      revert\n        /* \"#utility.yul\":11428:11608   */\n    tag_257:\n        /* \"#utility.yul\":11476:11553   */\n      0x4e487b7100000000000000000000000000000000000000000000000000000000\n        /* \"#utility.yul\":11473:11474   */\n      0x00\n        /* \"#utility.yul\":11466:11554   */\n      mstore\n        /* \"#utility.yul\":11573:11577   */\n      0x12\n        /* \"#utility.yul\":11570:11571   */\n      0x04\n        /* \"#utility.yul\":11563:11578   */\n      mstore\n        /* \"#utility.yul\":11597:11601   */\n      0x24\n        /* \"#utility.yul\":11594:11595   */\n      0x00\n        /* \"#utility.yul\":11587:11602   */\n      revert\n        /* \"#utility.yul\":11614:11794   */\n    tag_273:\n        /* \"#utility.yul\":11662:11739   */\n      0x4e487b7100000000000000000000000000000000000000000000000000000000\n        /* \"#utility.yul\":11659:11660   */\n      0x00\n        /* \"#utility.yul\":11652:11740   */\n      mstore\n        /* \"#utility.yul\":11759:11763   */\n      0x22\n        /* \"#utility.yul\":11756:11757   */\n      0x04\n        /* \"#utility.yul\":11749:11764   */\n      mstore\n        /* \"#utility.yul\":11783:11787   */\n      0x24\n        /* \"#utility.yul\":11780:11781   */\n      0x00\n        /* \"#utility.yul\":11773:11788   */\n      revert\n        /* \"#utility.yul\":11800:11980   */\n    tag_42:\n        /* \"#utility.yul\":11848:11925   */\n      0x4e487b7100000000000000000000000000000000000000000000000000000000\n        /* \"#utility.yul\":11845:11846   */\n      0x00\n        /* \"#utility.yul\":11838:11926   */\n      mstore\n        /* \"#utility.yul\":11945:11949   */\n      0x32\n        /* \"#utility.yul\":11942:11943   */\n      0x04\n        /* \"#utility.yul\":11935:11950   */\n      mstore\n        /* \"#utility.yul\":11969:11973   */\n      0x24\n        /* \"#utility.yul\":11966:11967   */\n      0x00\n        /* \"#utility.yul\":11959:11974   */\n      revert\n        /* \"#utility.yul\":11986:12166   */\n    tag_242:\n        /* \"#utility.yul\":12034:12111   */\n      0x4e487b7100000000000000000000000000000000000000000000000000000000\n        /* \"#utility.yul\":12031:12032   */\n      0x00\n        /* \"#utility.yul\":12024:12112   */\n      mstore\n        /* \"#utility.yul\":12131:12135   */\n      0x41\n        /* \"#utility.yul\":12128:12129   */\n      0x04\n        /* \"#utility.yul\":12121:12136   */\n      mstore\n        /* \"#utility.yul\":12155:12159   */\n      0x24\n        /* \"#utility.yul\":12152:12153   */\n      0x00\n        /* \"#utility.yul\":12145:12160   */\n      revert\n        /* \"#utility.yul\":12172:12289   */\n    tag_148:\n        /* \"#utility.yul\":12281:12282   */\n      0x00\n        /* \"#utility.yul\":12278:12279   */\n      dup1\n        /* \"#utility.yul\":12271:12283   */\n      revert\n        /* \"#utility.yul\":12295:12412   */\n    tag_137:\n        /* \"#utility.yul\":12404:12405   */\n      0x00\n        /* \"#utility.yul\":12401:12402   */\n      dup1\n        /* \"#utility.yul\":12394:12406   */\n      revert\n        /* \"#utility.yul\":12418:12535   */\n    tag_164:\n        /* \"#utility.yul\":12527:12528   */\n      0x00\n        /* \"#utility.yul\":12524:12525   */\n      dup1\n        /* \"#utility.yul\":12517:12529   */\n      revert\n        /* \"#utility.yul\":12541:12658   */\n    tag_157:\n        /* \"#utility.yul\":12650:12651   */\n      0x00\n        /* \"#utility.yul\":12647:12648   */\n      dup1\n        /* \"#utility.yul\":12640:12652   */\n      revert\n        /* \"#utility.yul\":12664:12766   */\n    tag_244:\n        /* \"#utility.yul\":12705:12711   */\n      0x00\n        /* \"#utility.yul\":12756:12758   */\n      0x1f\n        /* \"#utility.yul\":12752:12759   */\n      not\n        /* \"#utility.yul\":12747:12749   */\n      0x1f\n        /* \"#utility.yul\":12740:12745   */\n      dup4\n        /* \"#utility.yul\":12736:12750   */\n      add\n        /* \"#utility.yul\":12732:12760   */\n      and\n        /* \"#utility.yul\":12722:12760   */\n      swap1\n      pop\n        /* \"#utility.yul\":12664:12766   */\n      swap2\n      swap1\n      pop\n      jump\t// out\n        /* \"#utility.yul\":12772:12952   */\n    tag_185:\n        /* \"#utility.yul\":12912:12944   */\n      0x596f752063616e277420626964206f6e20796f7572206f776e20706f73740000\n        /* \"#utility.yul\":12908:12909   */\n      0x00\n        /* \"#utility.yul\":12900:12906   */\n      dup3\n        /* \"#utility.yul\":12896:12910   */\n      add\n        /* \"#utility.yul\":12889:12945   */\n      mstore\n        /* \"#utility.yul\":12772:12952   */\n      pop\n      jump\t// out\n        /* \"#utility.yul\":12958:13129   */\n    tag_190:\n        /* \"#utility.yul\":13098:13121   */\n      0x496e76616c696420616d6f756e74206f66204269640000000000000000000000\n        /* \"#utility.yul\":13094:13095   */\n      0x00\n        /* \"#utility.yul\":13086:13092   */\n      dup3\n        /* \"#utility.yul\":13082:13096   */\n      add\n        /* \"#utility.yul\":13075:13122   */\n      mstore\n        /* \"#utility.yul\":12958:13129   */\n      pop\n      jump\t// out\n        /* \"#utility.yul\":13135:13310   */\n    tag_195:\n        /* \"#utility.yul\":13275:13302   */\n      0x596f7520646f6e27742068617665207065726d697373696f6e00000000000000\n        /* \"#utility.yul\":13271:13272   */\n      0x00\n        /* \"#utility.yul\":13263:13269   */\n      dup3\n        /* \"#utility.yul\":13259:13273   */\n      add\n        /* \"#utility.yul\":13252:13303   */\n      mstore\n        /* \"#utility.yul\":13135:13310   */\n      pop\n      jump\t// out\n        /* \"#utility.yul\":13316:13490   */\n    tag_200:\n        /* \"#utility.yul\":13456:13482   */\n      0x546869732061756374696f6e2069732066696e69736865640000000000000000\n        /* \"#utility.yul\":13452:13453   */\n      0x00\n        /* \"#utility.yul\":13444:13450   */\n      dup3\n        /* \"#utility.yul\":13440:13454   */\n      add\n        /* \"#utility.yul\":13433:13483   */\n      mstore\n        /* \"#utility.yul\":13316:13490   */\n      pop\n      jump\t// out\n        /* \"#utility.yul\":13496:13727   */\n    tag_205:\n        /* \"#utility.yul\":13636:13670   */\n      0x5468697320626964206e6565647320746f206265206d6f7265207468616e206d\n        /* \"#utility.yul\":13632:13633   */\n      0x00\n        /* \"#utility.yul\":13624:13630   */\n      dup3\n        /* \"#utility.yul\":13620:13634   */\n      add\n        /* \"#utility.yul\":13613:13671   */\n      mstore\n        /* \"#utility.yul\":13705:13719   */\n      0x696e206269642076616c75650000000000000000000000000000000000000000\n        /* \"#utility.yul\":13700:13702   */\n      0x20\n        /* \"#utility.yul\":13692:13698   */\n      dup3\n        /* \"#utility.yul\":13688:13703   */\n      add\n        /* \"#utility.yul\":13681:13720   */\n      mstore\n        /* \"#utility.yul\":13496:13727   */\n      pop\n      jump\t// out\n        /* \"#utility.yul\":13733:13904   */\n    tag_210:\n        /* \"#utility.yul\":13873:13896   */\n      0x5468652061756374696f6e2068617320656e6465640000000000000000000000\n        /* \"#utility.yul\":13869:13870   */\n      0x00\n        /* \"#utility.yul\":13861:13867   */\n      dup3\n        /* \"#utility.yul\":13857:13871   */\n      add\n        /* \"#utility.yul\":13850:13897   */\n      mstore\n        /* \"#utility.yul\":13733:13904   */\n      pop\n      jump\t// out\n        /* \"#utility.yul\":13910:14032   */\n    tag_143:\n        /* \"#utility.yul\":13983:14007   */\n      tag_295\n        /* \"#utility.yul\":14001:14006   */\n      dup2\n        /* \"#utility.yul\":13983:14007   */\n      tag_179\n      jump\t// in\n    tag_295:\n        /* \"#utility.yul\":13976:13981   */\n      dup2\n        /* \"#utility.yul\":13973:14008   */\n      eq\n        /* \"#utility.yul\":13963:14026   */\n      tag_296\n      jumpi\n        /* \"#utility.yul\":14022:14023   */\n      0x00\n        /* \"#utility.yul\":14019:14020   */\n      dup1\n        /* \"#utility.yul\":14012:14024   */\n      revert\n        /* \"#utility.yul\":13963:14026   */\n    tag_296:\n        /* \"#utility.yul\":13910:14032   */\n      pop\n      jump\t// out\n        /* \"#utility.yul\":14038:14160   */\n    tag_153:\n        /* \"#utility.yul\":14111:14135   */\n      tag_298\n        /* \"#utility.yul\":14129:14134   */\n      dup2\n        /* \"#utility.yul\":14111:14135   */\n      tag_214\n      jump\t// in\n    tag_298:\n        /* \"#utility.yul\":14104:14109   */\n      dup2\n        /* \"#utility.yul\":14101:14136   */\n      eq\n        /* \"#utility.yul\":14091:14154   */\n      tag_299\n      jumpi\n        /* \"#utility.yul\":14150:14151   */\n      0x00\n        /* \"#utility.yul\":14147:14148   */\n      dup1\n        /* \"#utility.yul\":14140:14152   */\n      revert\n        /* \"#utility.yul\":14091:14154   */\n    tag_299:\n        /* \"#utility.yul\":14038:14160   */\n      pop\n      jump\t// out\n\n    auxdata: 0xa264697066735822122021fb8ddfe4e16bd9b8231f17b155915144318fe18a6aa036cf36dccbdf80492f64736f6c63430008070033\n}\n",
				"bytecode": {
					"linkReferences": {},
					"object": "608060405234801561001057600080fd5b506115ca806100206000396000f3fe6080604052600436106100555760003560e01c806302e9d5e41461005a5780631252cb4814610076578063659dd2b41461009f5780638e5bc606146100bb578063e135268d146100f8578063f8b2cb4f14610137575b600080fd5b610074600480360381019061006f9190610f02565b610174565b005b34801561008257600080fd5b5061009d60048036038101906100989190610e79565b6103a7565b005b6100b960048036038101906100b49190610ed5565b610487565b005b3480156100c757600080fd5b506100e260048036038101906100dd9190610ed5565b610859565b6040516100ef9190611129565b60405180910390f35b34801561010457600080fd5b5061011f600480360381019061011a9190610f02565b610a18565b60405161012e93929190611032565b60405180910390f35b34801561014357600080fd5b5061015e60048036038101906101599190610e4c565b610cb3565b60405161016b9190611129565b60405180910390f35b6000808381548110610189576101886113c7565b5b90600052602060002090600402016040518060800160405290816000820160009054906101000a900473ffffffffffffffffffffffffffffffffffffffff1673ffffffffffffffffffffffffffffffffffffffff1673ffffffffffffffffffffffffffffffffffffffff16815260200160018201548152602001600282018054610212906112d7565b80601f016020809104026020016040519081016040528092919081815260200182805461023e906112d7565b801561028b5780601f106102605761010080835404028352916020019161028b565b820191906000526020600020905b81548152906001019060200180831161026e57829003601f168201915b50505050508152602001600382015481525050905060006001600085815260200190815260200160002083815481106102c7576102c66113c7565b5b90600052602060002090600402019050816000015173ffffffffffffffffffffffffffffffffffffffff163373ffffffffffffffffffffffffffffffffffffffff1614610349576040517f08c379a0000000000000000000000000000000000000000000000000000000008152600401610340906110a9565b60405180910390fd5b600015158160030160009054906101000a900460ff161515146103a1576040517f08c379a000000000000000000000000000000000000000000000000000000000815260040161039890611109565b60405180910390fd5b50505050565b600060405180608001604052803373ffffffffffffffffffffffffffffffffffffffff16815260200183815260200184815260200142815250908060018154018082558091505060019003906000526020600020906004020160009091909190915060008201518160000160006101000a81548173ffffffffffffffffffffffffffffffffffffffff021916908373ffffffffffffffffffffffffffffffffffffffff160217905550602082015181600101556040820151816002019080519060200190610476929190610d0f565b506060820151816003015550505050565b600080828154811061049c5761049b6113c7565b5b90600052602060002090600402016040518060800160405290816000820160009054906101000a900473ffffffffffffffffffffffffffffffffffffffff1673ffffffffffffffffffffffffffffffffffffffff1673ffffffffffffffffffffffffffffffffffffffff16815260200160018201548152602001600282018054610525906112d7565b80601f0160208091040260200160405190810160405280929190818152602001828054610551906112d7565b801561059e5780601f106105735761010080835404028352916020019161059e565b820191906000526020600020905b81548152906001019060200180831161058157829003601f168201915b505050505081526020016003820154815250509050806000015173ffffffffffffffffffffffffffffffffffffffff163373ffffffffffffffffffffffffffffffffffffffff161415610626576040517f08c379a000000000000000000000000000000000000000000000000000000000815260040161061d90611069565b60405180910390fd5b600034141561066a576040517f08c379a000000000000000000000000000000000000000000000000000000000815260040161066190611089565b60405180910390fd5b6101908160600151106106b2576040517f08c379a00000000000000000000000000000000000000000000000000000000081526004016106a9906110c9565b60405180910390fd5b670de0b6b3a764000081602001516106ca9190611232565b34101561070c576040517f08c379a0000000000000000000000000000000000000000000000000000000008152600401610703906110e9565b60405180910390fd5b6001600083815260200190815260200160002060405180608001604052803373ffffffffffffffffffffffffffffffffffffffff16815260200134815260200142815260200160001515815250908060018154018082558091505060019003906000526020600020906004020160009091909190915060008201518160000160006101000a81548173ffffffffffffffffffffffffffffffffffffffff021916908373ffffffffffffffffffffffffffffffffffffffff160217905550602082015181600101556040820151816002015560608201518160030160006101000a81548160ff021916908315150217905550505034600260003073ffffffffffffffffffffffffffffffffffffffff1673ffffffffffffffffffffffffffffffffffffffff168152602001908152602001600020600082825461084e91906111ab565b925050819055505050565b600080600083815481106108705761086f6113c7565b5b90600052602060002090600402016040518060800160405290816000820160009054906101000a900473ffffffffffffffffffffffffffffffffffffffff1673ffffffffffffffffffffffffffffffffffffffff1673ffffffffffffffffffffffffffffffffffffffff168152602001600182015481526020016002820180546108f9906112d7565b80601f0160208091040260200160405190810160405280929190818152602001828054610925906112d7565b80156109725780601f1061094757610100808354040283529160200191610972565b820191906000526020600020905b81548152906001019060200180831161095557829003601f168201915b505050505081526020016003820154815250509050806000015173ffffffffffffffffffffffffffffffffffffffff163373ffffffffffffffffffffffffffffffffffffffff16146109f9576040517f08c379a00000000000000000000000000000000000000000000000000000000081526004016109f0906110a9565b60405180910390fd5b6001600084815260200190815260200160002080549050915050919050565b60008060008060008681548110610a3257610a316113c7565b5b90600052602060002090600402016040518060800160405290816000820160009054906101000a900473ffffffffffffffffffffffffffffffffffffffff1673ffffffffffffffffffffffffffffffffffffffff1673ffffffffffffffffffffffffffffffffffffffff16815260200160018201548152602001600282018054610abb906112d7565b80601f0160208091040260200160405190810160405280929190818152602001828054610ae7906112d7565b8015610b345780601f10610b0957610100808354040283529160200191610b34565b820191906000526020600020905b815481529060010190602001808311610b1757829003601f168201915b5050505050815260200160038201548152505090506000600160008881526020019081526020016000208681548110610b7057610b6f6113c7565b5b90600052602060002090600402016040518060800160405290816000820160009054906101000a900473ffffffffffffffffffffffffffffffffffffffff1673ffffffffffffffffffffffffffffffffffffffff1673ffffffffffffffffffffffffffffffffffffffff16815260200160018201548152602001600282015481526020016003820160009054906101000a900460ff1615151515815250509050816000015173ffffffffffffffffffffffffffffffffffffffff163373ffffffffffffffffffffffffffffffffffffffff1614610c82576040517f08c379a0000000000000000000000000000000000000000000000000000000008152600401610c79906110a9565b60405180910390fd5b8060000151670de0b6b3a76400008260200151610c9f9190611201565b826040015194509450945050509250925092565b6000670de0b6b3a7640000600260008473ffffffffffffffffffffffffffffffffffffffff1673ffffffffffffffffffffffffffffffffffffffff16815260200190815260200160002054610d089190611201565b9050919050565b828054610d1b906112d7565b90600052602060002090601f016020900481019282610d3d5760008555610d84565b82601f10610d5657805160ff1916838001178555610d84565b82800160010185558215610d84579182015b82811115610d83578251825591602001919060010190610d68565b5b509050610d919190610d95565b5090565b5b80821115610dae576000816000905550600101610d96565b5090565b6000610dc5610dc084611169565b611144565b905082815260208101848484011115610de157610de061142a565b5b610dec8482856112c8565b509392505050565b600081359050610e0381611566565b92915050565b600082601f830112610e1e57610e1d611425565b5b8135610e2e848260208601610db2565b91505092915050565b600081359050610e468161157d565b92915050565b600060208284031215610e6257610e61611434565b5b6000610e7084828501610df4565b91505092915050565b60008060408385031215610e9057610e8f611434565b5b600083013567ffffffffffffffff811115610eae57610ead61142f565b5b610eba85828601610e09565b9250506020610ecb85828601610e37565b9150509250929050565b600060208284031215610eeb57610eea611434565b5b6000610ef984828501610e37565b91505092915050565b60008060408385031215610f1957610f18611434565b5b6000610f2785828601610e37565b9250506020610f3885828601610e37565b9150509250929050565b610f4b8161128c565b82525050565b6000610f5e601e8361119a565b9150610f698261144a565b602082019050919050565b6000610f8160158361119a565b9150610f8c82611473565b602082019050919050565b6000610fa460198361119a565b9150610faf8261149c565b602082019050919050565b6000610fc760188361119a565b9150610fd2826114c5565b602082019050919050565b6000610fea602c8361119a565b9150610ff5826114ee565b604082019050919050565b600061100d60158361119a565b91506110188261153d565b602082019050919050565b61102c816112be565b82525050565b60006060820190506110476000830186610f42565b6110546020830185611023565b6110616040830184611023565b949350505050565b6000602082019050818103600083015261108281610f51565b9050919050565b600060208201905081810360008301526110a281610f74565b9050919050565b600060208201905081810360008301526110c281610f97565b9050919050565b600060208201905081810360008301526110e281610fba565b9050919050565b6000602082019050818103600083015261110281610fdd565b9050919050565b6000602082019050818103600083015261112281611000565b9050919050565b600060208201905061113e6000830184611023565b92915050565b600061114e61115f565b905061115a8282611309565b919050565b6000604051905090565b600067ffffffffffffffff821115611184576111836113f6565b5b61118d82611439565b9050602081019050919050565b600082825260208201905092915050565b60006111b6826112be565b91506111c1836112be565b9250827fffffffffffffffffffffffffffffffffffffffffffffffffffffffffffffffff038211156111f6576111f561133a565b5b828201905092915050565b600061120c826112be565b9150611217836112be565b92508261122757611226611369565b5b828204905092915050565b600061123d826112be565b9150611248836112be565b9250817fffffffffffffffffffffffffffffffffffffffffffffffffffffffffffffffff04831182151516156112815761128061133a565b5b828202905092915050565b60006112978261129e565b9050919050565b600073ffffffffffffffffffffffffffffffffffffffff82169050919050565b6000819050919050565b82818337600083830152505050565b600060028204905060018216806112ef57607f821691505b6020821081141561130357611302611398565b5b50919050565b61131282611439565b810181811067ffffffffffffffff82111715611331576113306113f6565b5b80604052505050565b7f4e487b7100000000000000000000000000000000000000000000000000000000600052601160045260246000fd5b7f4e487b7100000000000000000000000000000000000000000000000000000000600052601260045260246000fd5b7f4e487b7100000000000000000000000000000000000000000000000000000000600052602260045260246000fd5b7f4e487b7100000000000000000000000000000000000000000000000000000000600052603260045260246000fd5b7f4e487b7100000000000000000000000000000000000000000000000000000000600052604160045260246000fd5b600080fd5b600080fd5b600080fd5b600080fd5b6000601f19601f8301169050919050565b7f596f752063616e277420626964206f6e20796f7572206f776e20706f73740000600082015250565b7f496e76616c696420616d6f756e74206f66204269640000000000000000000000600082015250565b7f596f7520646f6e27742068617665207065726d697373696f6e00000000000000600082015250565b7f546869732061756374696f6e2069732066696e69736865640000000000000000600082015250565b7f5468697320626964206e6565647320746f206265206d6f7265207468616e206d60008201527f696e206269642076616c75650000000000000000000000000000000000000000602082015250565b7f5468652061756374696f6e2068617320656e6465640000000000000000000000600082015250565b61156f8161128c565b811461157a57600080fd5b50565b611586816112be565b811461159157600080fd5b5056fea264697066735822122021fb8ddfe4e16bd9b8231f17b155915144318fe18a6aa036cf36dccbdf80492f64736f6c63430008070033",
					"opcodes": "PUSH1 0x80 PUSH1 0x40 MSTORE CALLVALUE DUP1 ISZERO PUSH2 0x10 JUMPI PUSH1 0x0 DUP1 REVERT JUMPDEST POP PUSH2 0x15CA DUP1 PUSH2 0x20 PUSH1 0x0 CODECOPY PUSH1 0x0 RETURN INVALID PUSH1 0x80 PUSH1 0x40 MSTORE PUSH1 0x4 CALLDATASIZE LT PUSH2 0x55 JUMPI PUSH1 0x0 CALLDATALOAD PUSH1 0xE0 SHR DUP1 PUSH4 0x2E9D5E4 EQ PUSH2 0x5A JUMPI DUP1 PUSH4 0x1252CB48 EQ PUSH2 0x76 JUMPI DUP1 PUSH4 0x659DD2B4 EQ PUSH2 0x9F JUMPI DUP1 PUSH4 0x8E5BC606 EQ PUSH2 0xBB JUMPI DUP1 PUSH4 0xE135268D EQ PUSH2 0xF8 JUMPI DUP1 PUSH4 0xF8B2CB4F EQ PUSH2 0x137 JUMPI JUMPDEST PUSH1 0x0 DUP1 REVERT JUMPDEST PUSH2 0x74 PUSH1 0x4 DUP1 CALLDATASIZE SUB DUP2 ADD SWAP1 PUSH2 0x6F SWAP2 SWAP1 PUSH2 0xF02 JUMP JUMPDEST PUSH2 0x174 JUMP JUMPDEST STOP JUMPDEST CALLVALUE DUP1 ISZERO PUSH2 0x82 JUMPI PUSH1 0x0 DUP1 REVERT JUMPDEST POP PUSH2 0x9D PUSH1 0x4 DUP1 CALLDATASIZE SUB DUP2 ADD SWAP1 PUSH2 0x98 SWAP2 SWAP1 PUSH2 0xE79 JUMP JUMPDEST PUSH2 0x3A7 JUMP JUMPDEST STOP JUMPDEST PUSH2 0xB9 PUSH1 0x4 DUP1 CALLDATASIZE SUB DUP2 ADD SWAP1 PUSH2 0xB4 SWAP2 SWAP1 PUSH2 0xED5 JUMP JUMPDEST PUSH2 0x487 JUMP JUMPDEST STOP JUMPDEST CALLVALUE DUP1 ISZERO PUSH2 0xC7 JUMPI PUSH1 0x0 DUP1 REVERT JUMPDEST POP PUSH2 0xE2 PUSH1 0x4 DUP1 CALLDATASIZE SUB DUP2 ADD SWAP1 PUSH2 0xDD SWAP2 SWAP1 PUSH2 0xED5 JUMP JUMPDEST PUSH2 0x859 JUMP JUMPDEST PUSH1 0x40 MLOAD PUSH2 0xEF SWAP2 SWAP1 PUSH2 0x1129 JUMP JUMPDEST PUSH1 0x40 MLOAD DUP1 SWAP2 SUB SWAP1 RETURN JUMPDEST CALLVALUE DUP1 ISZERO PUSH2 0x104 JUMPI PUSH1 0x0 DUP1 REVERT JUMPDEST POP PUSH2 0x11F PUSH1 0x4 DUP1 CALLDATASIZE SUB DUP2 ADD SWAP1 PUSH2 0x11A SWAP2 SWAP1 PUSH2 0xF02 JUMP JUMPDEST PUSH2 0xA18 JUMP JUMPDEST PUSH1 0x40 MLOAD PUSH2 0x12E SWAP4 SWAP3 SWAP2 SWAP1 PUSH2 0x1032 JUMP JUMPDEST PUSH1 0x40 MLOAD DUP1 SWAP2 SUB SWAP1 RETURN JUMPDEST CALLVALUE DUP1 ISZERO PUSH2 0x143 JUMPI PUSH1 0x0 DUP1 REVERT JUMPDEST POP PUSH2 0x15E PUSH1 0x4 DUP1 CALLDATASIZE SUB DUP2 ADD SWAP1 PUSH2 0x159 SWAP2 SWAP1 PUSH2 0xE4C JUMP JUMPDEST PUSH2 0xCB3 JUMP JUMPDEST PUSH1 0x40 MLOAD PUSH2 0x16B SWAP2 SWAP1 PUSH2 0x1129 JUMP JUMPDEST PUSH1 0x40 MLOAD DUP1 SWAP2 SUB SWAP1 RETURN JUMPDEST PUSH1 0x0 DUP1 DUP4 DUP2 SLOAD DUP2 LT PUSH2 0x189 JUMPI PUSH2 0x188 PUSH2 0x13C7 JUMP JUMPDEST JUMPDEST SWAP1 PUSH1 0x0 MSTORE PUSH1 0x20 PUSH1 0x0 KECCAK256 SWAP1 PUSH1 0x4 MUL ADD PUSH1 0x40 MLOAD DUP1 PUSH1 0x80 ADD PUSH1 0x40 MSTORE SWAP1 DUP2 PUSH1 0x0 DUP3 ADD PUSH1 0x0 SWAP1 SLOAD SWAP1 PUSH2 0x100 EXP SWAP1 DIV PUSH20 0xFFFFFFFFFFFFFFFFFFFFFFFFFFFFFFFFFFFFFFFF AND PUSH20 0xFFFFFFFFFFFFFFFFFFFFFFFFFFFFFFFFFFFFFFFF AND PUSH20 0xFFFFFFFFFFFFFFFFFFFFFFFFFFFFFFFFFFFFFFFF AND DUP2 MSTORE PUSH1 0x20 ADD PUSH1 0x1 DUP3 ADD SLOAD DUP2 MSTORE PUSH1 0x20 ADD PUSH1 0x2 DUP3 ADD DUP1 SLOAD PUSH2 0x212 SWAP1 PUSH2 0x12D7 JUMP JUMPDEST DUP1 PUSH1 0x1F ADD PUSH1 0x20 DUP1 SWAP2 DIV MUL PUSH1 0x20 ADD PUSH1 0x40 MLOAD SWAP1 DUP2 ADD PUSH1 0x40 MSTORE DUP1 SWAP3 SWAP2 SWAP1 DUP2 DUP2 MSTORE PUSH1 0x20 ADD DUP3 DUP1 SLOAD PUSH2 0x23E SWAP1 PUSH2 0x12D7 JUMP JUMPDEST DUP1 ISZERO PUSH2 0x28B JUMPI DUP1 PUSH1 0x1F LT PUSH2 0x260 JUMPI PUSH2 0x100 DUP1 DUP4 SLOAD DIV MUL DUP4 MSTORE SWAP2 PUSH1 0x20 ADD SWAP2 PUSH2 0x28B JUMP JUMPDEST DUP3 ADD SWAP2 SWAP1 PUSH1 0x0 MSTORE PUSH1 0x20 PUSH1 0x0 KECCAK256 SWAP1 JUMPDEST DUP2 SLOAD DUP2 MSTORE SWAP1 PUSH1 0x1 ADD SWAP1 PUSH1 0x20 ADD DUP1 DUP4 GT PUSH2 0x26E JUMPI DUP3 SWAP1 SUB PUSH1 0x1F AND DUP3 ADD SWAP2 JUMPDEST POP POP POP POP POP DUP2 MSTORE PUSH1 0x20 ADD PUSH1 0x3 DUP3 ADD SLOAD DUP2 MSTORE POP POP SWAP1 POP PUSH1 0x0 PUSH1 0x1 PUSH1 0x0 DUP6 DUP2 MSTORE PUSH1 0x20 ADD SWAP1 DUP2 MSTORE PUSH1 0x20 ADD PUSH1 0x0 KECCAK256 DUP4 DUP2 SLOAD DUP2 LT PUSH2 0x2C7 JUMPI PUSH2 0x2C6 PUSH2 0x13C7 JUMP JUMPDEST JUMPDEST SWAP1 PUSH1 0x0 MSTORE PUSH1 0x20 PUSH1 0x0 KECCAK256 SWAP1 PUSH1 0x4 MUL ADD SWAP1 POP DUP2 PUSH1 0x0 ADD MLOAD PUSH20 0xFFFFFFFFFFFFFFFFFFFFFFFFFFFFFFFFFFFFFFFF AND CALLER PUSH20 0xFFFFFFFFFFFFFFFFFFFFFFFFFFFFFFFFFFFFFFFF AND EQ PUSH2 0x349 JUMPI PUSH1 0x40 MLOAD PUSH32 0x8C379A000000000000000000000000000000000000000000000000000000000 DUP2 MSTORE PUSH1 0x4 ADD PUSH2 0x340 SWAP1 PUSH2 0x10A9 JUMP JUMPDEST PUSH1 0x40 MLOAD DUP1 SWAP2 SUB SWAP1 REVERT JUMPDEST PUSH1 0x0 ISZERO ISZERO DUP2 PUSH1 0x3 ADD PUSH1 0x0 SWAP1 SLOAD SWAP1 PUSH2 0x100 EXP SWAP1 DIV PUSH1 0xFF AND ISZERO ISZERO EQ PUSH2 0x3A1 JUMPI PUSH1 0x40 MLOAD PUSH32 0x8C379A000000000000000000000000000000000000000000000000000000000 DUP2 MSTORE PUSH1 0x4 ADD PUSH2 0x398 SWAP1 PUSH2 0x1109 JUMP JUMPDEST PUSH1 0x40 MLOAD DUP1 SWAP2 SUB SWAP1 REVERT JUMPDEST POP POP POP POP JUMP JUMPDEST PUSH1 0x0 PUSH1 0x40 MLOAD DUP1 PUSH1 0x80 ADD PUSH1 0x40 MSTORE DUP1 CALLER PUSH20 0xFFFFFFFFFFFFFFFFFFFFFFFFFFFFFFFFFFFFFFFF AND DUP2 MSTORE PUSH1 0x20 ADD DUP4 DUP2 MSTORE PUSH1 0x20 ADD DUP5 DUP2 MSTORE PUSH1 0x20 ADD TIMESTAMP DUP2 MSTORE POP SWAP1 DUP1 PUSH1 0x1 DUP2 SLOAD ADD DUP1 DUP3 SSTORE DUP1 SWAP2 POP POP PUSH1 0x1 SWAP1 SUB SWAP1 PUSH1 0x0 MSTORE PUSH1 0x20 PUSH1 0x0 KECCAK256 SWAP1 PUSH1 0x4 MUL ADD PUSH1 0x0 SWAP1 SWAP2 SWAP1 SWAP2 SWAP1 SWAP2 POP PUSH1 0x0 DUP3 ADD MLOAD DUP2 PUSH1 0x0 ADD PUSH1 0x0 PUSH2 0x100 EXP DUP2 SLOAD DUP2 PUSH20 0xFFFFFFFFFFFFFFFFFFFFFFFFFFFFFFFFFFFFFFFF MUL NOT AND SWAP1 DUP4 PUSH20 0xFFFFFFFFFFFFFFFFFFFFFFFFFFFFFFFFFFFFFFFF AND MUL OR SWAP1 SSTORE POP PUSH1 0x20 DUP3 ADD MLOAD DUP2 PUSH1 0x1 ADD SSTORE PUSH1 0x40 DUP3 ADD MLOAD DUP2 PUSH1 0x2 ADD SWAP1 DUP1 MLOAD SWAP1 PUSH1 0x20 ADD SWAP1 PUSH2 0x476 SWAP3 SWAP2 SWAP1 PUSH2 0xD0F JUMP JUMPDEST POP PUSH1 0x60 DUP3 ADD MLOAD DUP2 PUSH1 0x3 ADD SSTORE POP POP POP POP JUMP JUMPDEST PUSH1 0x0 DUP1 DUP3 DUP2 SLOAD DUP2 LT PUSH2 0x49C JUMPI PUSH2 0x49B PUSH2 0x13C7 JUMP JUMPDEST JUMPDEST SWAP1 PUSH1 0x0 MSTORE PUSH1 0x20 PUSH1 0x0 KECCAK256 SWAP1 PUSH1 0x4 MUL ADD PUSH1 0x40 MLOAD DUP1 PUSH1 0x80 ADD PUSH1 0x40 MSTORE SWAP1 DUP2 PUSH1 0x0 DUP3 ADD PUSH1 0x0 SWAP1 SLOAD SWAP1 PUSH2 0x100 EXP SWAP1 DIV PUSH20 0xFFFFFFFFFFFFFFFFFFFFFFFFFFFFFFFFFFFFFFFF AND PUSH20 0xFFFFFFFFFFFFFFFFFFFFFFFFFFFFFFFFFFFFFFFF AND PUSH20 0xFFFFFFFFFFFFFFFFFFFFFFFFFFFFFFFFFFFFFFFF AND DUP2 MSTORE PUSH1 0x20 ADD PUSH1 0x1 DUP3 ADD SLOAD DUP2 MSTORE PUSH1 0x20 ADD PUSH1 0x2 DUP3 ADD DUP1 SLOAD PUSH2 0x525 SWAP1 PUSH2 0x12D7 JUMP JUMPDEST DUP1 PUSH1 0x1F ADD PUSH1 0x20 DUP1 SWAP2 DIV MUL PUSH1 0x20 ADD PUSH1 0x40 MLOAD SWAP1 DUP2 ADD PUSH1 0x40 MSTORE DUP1 SWAP3 SWAP2 SWAP1 DUP2 DUP2 MSTORE PUSH1 0x20 ADD DUP3 DUP1 SLOAD PUSH2 0x551 SWAP1 PUSH2 0x12D7 JUMP JUMPDEST DUP1 ISZERO PUSH2 0x59E JUMPI DUP1 PUSH1 0x1F LT PUSH2 0x573 JUMPI PUSH2 0x100 DUP1 DUP4 SLOAD DIV MUL DUP4 MSTORE SWAP2 PUSH1 0x20 ADD SWAP2 PUSH2 0x59E JUMP JUMPDEST DUP3 ADD SWAP2 SWAP1 PUSH1 0x0 MSTORE PUSH1 0x20 PUSH1 0x0 KECCAK256 SWAP1 JUMPDEST DUP2 SLOAD DUP2 MSTORE SWAP1 PUSH1 0x1 ADD SWAP1 PUSH1 0x20 ADD DUP1 DUP4 GT PUSH2 0x581 JUMPI DUP3 SWAP1 SUB PUSH1 0x1F AND DUP3 ADD SWAP2 JUMPDEST POP POP POP POP POP DUP2 MSTORE PUSH1 0x20 ADD PUSH1 0x3 DUP3 ADD SLOAD DUP2 MSTORE POP POP SWAP1 POP DUP1 PUSH1 0x0 ADD MLOAD PUSH20 0xFFFFFFFFFFFFFFFFFFFFFFFFFFFFFFFFFFFFFFFF AND CALLER PUSH20 0xFFFFFFFFFFFFFFFFFFFFFFFFFFFFFFFFFFFFFFFF AND EQ ISZERO PUSH2 0x626 JUMPI PUSH1 0x40 MLOAD PUSH32 0x8C379A000000000000000000000000000000000000000000000000000000000 DUP2 MSTORE PUSH1 0x4 ADD PUSH2 0x61D SWAP1 PUSH2 0x1069 JUMP JUMPDEST PUSH1 0x40 MLOAD DUP1 SWAP2 SUB SWAP1 REVERT JUMPDEST PUSH1 0x0 CALLVALUE EQ ISZERO PUSH2 0x66A JUMPI PUSH1 0x40 MLOAD PUSH32 0x8C379A000000000000000000000000000000000000000000000000000000000 DUP2 MSTORE PUSH1 0x4 ADD PUSH2 0x661 SWAP1 PUSH2 0x1089 JUMP JUMPDEST PUSH1 0x40 MLOAD DUP1 SWAP2 SUB SWAP1 REVERT JUMPDEST PUSH2 0x190 DUP2 PUSH1 0x60 ADD MLOAD LT PUSH2 0x6B2 JUMPI PUSH1 0x40 MLOAD PUSH32 0x8C379A000000000000000000000000000000000000000000000000000000000 DUP2 MSTORE PUSH1 0x4 ADD PUSH2 0x6A9 SWAP1 PUSH2 0x10C9 JUMP JUMPDEST PUSH1 0x40 MLOAD DUP1 SWAP2 SUB SWAP1 REVERT JUMPDEST PUSH8 0xDE0B6B3A7640000 DUP2 PUSH1 0x20 ADD MLOAD PUSH2 0x6CA SWAP2 SWAP1 PUSH2 0x1232 JUMP JUMPDEST CALLVALUE LT ISZERO PUSH2 0x70C JUMPI PUSH1 0x40 MLOAD PUSH32 0x8C379A000000000000000000000000000000000000000000000000000000000 DUP2 MSTORE PUSH1 0x4 ADD PUSH2 0x703 SWAP1 PUSH2 0x10E9 JUMP JUMPDEST PUSH1 0x40 MLOAD DUP1 SWAP2 SUB SWAP1 REVERT JUMPDEST PUSH1 0x1 PUSH1 0x0 DUP4 DUP2 MSTORE PUSH1 0x20 ADD SWAP1 DUP2 MSTORE PUSH1 0x20 ADD PUSH1 0x0 KECCAK256 PUSH1 0x40 MLOAD DUP1 PUSH1 0x80 ADD PUSH1 0x40 MSTORE DUP1 CALLER PUSH20 0xFFFFFFFFFFFFFFFFFFFFFFFFFFFFFFFFFFFFFFFF AND DUP2 MSTORE PUSH1 0x20 ADD CALLVALUE DUP2 MSTORE PUSH1 0x20 ADD TIMESTAMP DUP2 MSTORE PUSH1 0x20 ADD PUSH1 0x0 ISZERO ISZERO DUP2 MSTORE POP SWAP1 DUP1 PUSH1 0x1 DUP2 SLOAD ADD DUP1 DUP3 SSTORE DUP1 SWAP2 POP POP PUSH1 0x1 SWAP1 SUB SWAP1 PUSH1 0x0 MSTORE PUSH1 0x20 PUSH1 0x0 KECCAK256 SWAP1 PUSH1 0x4 MUL ADD PUSH1 0x0 SWAP1 SWAP2 SWAP1 SWAP2 SWAP1 SWAP2 POP PUSH1 0x0 DUP3 ADD MLOAD DUP2 PUSH1 0x0 ADD PUSH1 0x0 PUSH2 0x100 EXP DUP2 SLOAD DUP2 PUSH20 0xFFFFFFFFFFFFFFFFFFFFFFFFFFFFFFFFFFFFFFFF MUL NOT AND SWAP1 DUP4 PUSH20 0xFFFFFFFFFFFFFFFFFFFFFFFFFFFFFFFFFFFFFFFF AND MUL OR SWAP1 SSTORE POP PUSH1 0x20 DUP3 ADD MLOAD DUP2 PUSH1 0x1 ADD SSTORE PUSH1 0x40 DUP3 ADD MLOAD DUP2 PUSH1 0x2 ADD SSTORE PUSH1 0x60 DUP3 ADD MLOAD DUP2 PUSH1 0x3 ADD PUSH1 0x0 PUSH2 0x100 EXP DUP2 SLOAD DUP2 PUSH1 0xFF MUL NOT AND SWAP1 DUP4 ISZERO ISZERO MUL OR SWAP1 SSTORE POP POP POP CALLVALUE PUSH1 0x2 PUSH1 0x0 ADDRESS PUSH20 0xFFFFFFFFFFFFFFFFFFFFFFFFFFFFFFFFFFFFFFFF AND PUSH20 0xFFFFFFFFFFFFFFFFFFFFFFFFFFFFFFFFFFFFFFFF AND DUP2 MSTORE PUSH1 0x20 ADD SWAP1 DUP2 MSTORE PUSH1 0x20 ADD PUSH1 0x0 KECCAK256 PUSH1 0x0 DUP3 DUP3 SLOAD PUSH2 0x84E SWAP2 SWAP1 PUSH2 0x11AB JUMP JUMPDEST SWAP3 POP POP DUP2 SWAP1 SSTORE POP POP POP JUMP JUMPDEST PUSH1 0x0 DUP1 PUSH1 0x0 DUP4 DUP2 SLOAD DUP2 LT PUSH2 0x870 JUMPI PUSH2 0x86F PUSH2 0x13C7 JUMP JUMPDEST JUMPDEST SWAP1 PUSH1 0x0 MSTORE PUSH1 0x20 PUSH1 0x0 KECCAK256 SWAP1 PUSH1 0x4 MUL ADD PUSH1 0x40 MLOAD DUP1 PUSH1 0x80 ADD PUSH1 0x40 MSTORE SWAP1 DUP2 PUSH1 0x0 DUP3 ADD PUSH1 0x0 SWAP1 SLOAD SWAP1 PUSH2 0x100 EXP SWAP1 DIV PUSH20 0xFFFFFFFFFFFFFFFFFFFFFFFFFFFFFFFFFFFFFFFF AND PUSH20 0xFFFFFFFFFFFFFFFFFFFFFFFFFFFFFFFFFFFFFFFF AND PUSH20 0xFFFFFFFFFFFFFFFFFFFFFFFFFFFFFFFFFFFFFFFF AND DUP2 MSTORE PUSH1 0x20 ADD PUSH1 0x1 DUP3 ADD SLOAD DUP2 MSTORE PUSH1 0x20 ADD PUSH1 0x2 DUP3 ADD DUP1 SLOAD PUSH2 0x8F9 SWAP1 PUSH2 0x12D7 JUMP JUMPDEST DUP1 PUSH1 0x1F ADD PUSH1 0x20 DUP1 SWAP2 DIV MUL PUSH1 0x20 ADD PUSH1 0x40 MLOAD SWAP1 DUP2 ADD PUSH1 0x40 MSTORE DUP1 SWAP3 SWAP2 SWAP1 DUP2 DUP2 MSTORE PUSH1 0x20 ADD DUP3 DUP1 SLOAD PUSH2 0x925 SWAP1 PUSH2 0x12D7 JUMP JUMPDEST DUP1 ISZERO PUSH2 0x972 JUMPI DUP1 PUSH1 0x1F LT PUSH2 0x947 JUMPI PUSH2 0x100 DUP1 DUP4 SLOAD DIV MUL DUP4 MSTORE SWAP2 PUSH1 0x20 ADD SWAP2 PUSH2 0x972 JUMP JUMPDEST DUP3 ADD SWAP2 SWAP1 PUSH1 0x0 MSTORE PUSH1 0x20 PUSH1 0x0 KECCAK256 SWAP1 JUMPDEST DUP2 SLOAD DUP2 MSTORE SWAP1 PUSH1 0x1 ADD SWAP1 PUSH1 0x20 ADD DUP1 DUP4 GT PUSH2 0x955 JUMPI DUP3 SWAP1 SUB PUSH1 0x1F AND DUP3 ADD SWAP2 JUMPDEST POP POP POP POP POP DUP2 MSTORE PUSH1 0x20 ADD PUSH1 0x3 DUP3 ADD SLOAD DUP2 MSTORE POP POP SWAP1 POP DUP1 PUSH1 0x0 ADD MLOAD PUSH20 0xFFFFFFFFFFFFFFFFFFFFFFFFFFFFFFFFFFFFFFFF AND CALLER PUSH20 0xFFFFFFFFFFFFFFFFFFFFFFFFFFFFFFFFFFFFFFFF AND EQ PUSH2 0x9F9 JUMPI PUSH1 0x40 MLOAD PUSH32 0x8C379A000000000000000000000000000000000000000000000000000000000 DUP2 MSTORE PUSH1 0x4 ADD PUSH2 0x9F0 SWAP1 PUSH2 0x10A9 JUMP JUMPDEST PUSH1 0x40 MLOAD DUP1 SWAP2 SUB SWAP1 REVERT JUMPDEST PUSH1 0x1 PUSH1 0x0 DUP5 DUP2 MSTORE PUSH1 0x20 ADD SWAP1 DUP2 MSTORE PUSH1 0x20 ADD PUSH1 0x0 KECCAK256 DUP1 SLOAD SWAP1 POP SWAP2 POP POP SWAP2 SWAP1 POP JUMP JUMPDEST PUSH1 0x0 DUP1 PUSH1 0x0 DUP1 PUSH1 0x0 DUP7 DUP2 SLOAD DUP2 LT PUSH2 0xA32 JUMPI PUSH2 0xA31 PUSH2 0x13C7 JUMP JUMPDEST JUMPDEST SWAP1 PUSH1 0x0 MSTORE PUSH1 0x20 PUSH1 0x0 KECCAK256 SWAP1 PUSH1 0x4 MUL ADD PUSH1 0x40 MLOAD DUP1 PUSH1 0x80 ADD PUSH1 0x40 MSTORE SWAP1 DUP2 PUSH1 0x0 DUP3 ADD PUSH1 0x0 SWAP1 SLOAD SWAP1 PUSH2 0x100 EXP SWAP1 DIV PUSH20 0xFFFFFFFFFFFFFFFFFFFFFFFFFFFFFFFFFFFFFFFF AND PUSH20 0xFFFFFFFFFFFFFFFFFFFFFFFFFFFFFFFFFFFFFFFF AND PUSH20 0xFFFFFFFFFFFFFFFFFFFFFFFFFFFFFFFFFFFFFFFF AND DUP2 MSTORE PUSH1 0x20 ADD PUSH1 0x1 DUP3 ADD SLOAD DUP2 MSTORE PUSH1 0x20 ADD PUSH1 0x2 DUP3 ADD DUP1 SLOAD PUSH2 0xABB SWAP1 PUSH2 0x12D7 JUMP JUMPDEST DUP1 PUSH1 0x1F ADD PUSH1 0x20 DUP1 SWAP2 DIV MUL PUSH1 0x20 ADD PUSH1 0x40 MLOAD SWAP1 DUP2 ADD PUSH1 0x40 MSTORE DUP1 SWAP3 SWAP2 SWAP1 DUP2 DUP2 MSTORE PUSH1 0x20 ADD DUP3 DUP1 SLOAD PUSH2 0xAE7 SWAP1 PUSH2 0x12D7 JUMP JUMPDEST DUP1 ISZERO PUSH2 0xB34 JUMPI DUP1 PUSH1 0x1F LT PUSH2 0xB09 JUMPI PUSH2 0x100 DUP1 DUP4 SLOAD DIV MUL DUP4 MSTORE SWAP2 PUSH1 0x20 ADD SWAP2 PUSH2 0xB34 JUMP JUMPDEST DUP3 ADD SWAP2 SWAP1 PUSH1 0x0 MSTORE PUSH1 0x20 PUSH1 0x0 KECCAK256 SWAP1 JUMPDEST DUP2 SLOAD DUP2 MSTORE SWAP1 PUSH1 0x1 ADD SWAP1 PUSH1 0x20 ADD DUP1 DUP4 GT PUSH2 0xB17 JUMPI DUP3 SWAP1 SUB PUSH1 0x1F AND DUP3 ADD SWAP2 JUMPDEST POP POP POP POP POP DUP2 MSTORE PUSH1 0x20 ADD PUSH1 0x3 DUP3 ADD SLOAD DUP2 MSTORE POP POP SWAP1 POP PUSH1 0x0 PUSH1 0x1 PUSH1 0x0 DUP9 DUP2 MSTORE PUSH1 0x20 ADD SWAP1 DUP2 MSTORE PUSH1 0x20 ADD PUSH1 0x0 KECCAK256 DUP7 DUP2 SLOAD DUP2 LT PUSH2 0xB70 JUMPI PUSH2 0xB6F PUSH2 0x13C7 JUMP JUMPDEST JUMPDEST SWAP1 PUSH1 0x0 MSTORE PUSH1 0x20 PUSH1 0x0 KECCAK256 SWAP1 PUSH1 0x4 MUL ADD PUSH1 0x40 MLOAD DUP1 PUSH1 0x80 ADD PUSH1 0x40 MSTORE SWAP1 DUP2 PUSH1 0x0 DUP3 ADD PUSH1 0x0 SWAP1 SLOAD SWAP1 PUSH2 0x100 EXP SWAP1 DIV PUSH20 0xFFFFFFFFFFFFFFFFFFFFFFFFFFFFFFFFFFFFFFFF AND PUSH20 0xFFFFFFFFFFFFFFFFFFFFFFFFFFFFFFFFFFFFFFFF AND PUSH20 0xFFFFFFFFFFFFFFFFFFFFFFFFFFFFFFFFFFFFFFFF AND DUP2 MSTORE PUSH1 0x20 ADD PUSH1 0x1 DUP3 ADD SLOAD DUP2 MSTORE PUSH1 0x20 ADD PUSH1 0x2 DUP3 ADD SLOAD DUP2 MSTORE PUSH1 0x20 ADD PUSH1 0x3 DUP3 ADD PUSH1 0x0 SWAP1 SLOAD SWAP1 PUSH2 0x100 EXP SWAP1 DIV PUSH1 0xFF AND ISZERO ISZERO ISZERO ISZERO DUP2 MSTORE POP POP SWAP1 POP DUP2 PUSH1 0x0 ADD MLOAD PUSH20 0xFFFFFFFFFFFFFFFFFFFFFFFFFFFFFFFFFFFFFFFF AND CALLER PUSH20 0xFFFFFFFFFFFFFFFFFFFFFFFFFFFFFFFFFFFFFFFF AND EQ PUSH2 0xC82 JUMPI PUSH1 0x40 MLOAD PUSH32 0x8C379A000000000000000000000000000000000000000000000000000000000 DUP2 MSTORE PUSH1 0x4 ADD PUSH2 0xC79 SWAP1 PUSH2 0x10A9 JUMP JUMPDEST PUSH1 0x40 MLOAD DUP1 SWAP2 SUB SWAP1 REVERT JUMPDEST DUP1 PUSH1 0x0 ADD MLOAD PUSH8 0xDE0B6B3A7640000 DUP3 PUSH1 0x20 ADD MLOAD PUSH2 0xC9F SWAP2 SWAP1 PUSH2 0x1201 JUMP JUMPDEST DUP3 PUSH1 0x40 ADD MLOAD SWAP5 POP SWAP5 POP SWAP5 POP POP POP SWAP3 POP SWAP3 POP SWAP3 JUMP JUMPDEST PUSH1 0x0 PUSH8 0xDE0B6B3A7640000 PUSH1 0x2 PUSH1 0x0 DUP5 PUSH20 0xFFFFFFFFFFFFFFFFFFFFFFFFFFFFFFFFFFFFFFFF AND PUSH20 0xFFFFFFFFFFFFFFFFFFFFFFFFFFFFFFFFFFFFFFFF AND DUP2 MSTORE PUSH1 0x20 ADD SWAP1 DUP2 MSTORE PUSH1 0x20 ADD PUSH1 0x0 KECCAK256 SLOAD PUSH2 0xD08 SWAP2 SWAP1 PUSH2 0x1201 JUMP JUMPDEST SWAP1 POP SWAP2 SWAP1 POP JUMP JUMPDEST DUP3 DUP1 SLOAD PUSH2 0xD1B SWAP1 PUSH2 0x12D7 JUMP JUMPDEST SWAP1 PUSH1 0x0 MSTORE PUSH1 0x20 PUSH1 0x0 KECCAK256 SWAP1 PUSH1 0x1F ADD PUSH1 0x20 SWAP1 DIV DUP2 ADD SWAP3 DUP3 PUSH2 0xD3D JUMPI PUSH1 0x0 DUP6 SSTORE PUSH2 0xD84 JUMP JUMPDEST DUP3 PUSH1 0x1F LT PUSH2 0xD56 JUMPI DUP1 MLOAD PUSH1 0xFF NOT AND DUP4 DUP1 ADD OR DUP6 SSTORE PUSH2 0xD84 JUMP JUMPDEST DUP3 DUP1 ADD PUSH1 0x1 ADD DUP6 SSTORE DUP3 ISZERO PUSH2 0xD84 JUMPI SWAP2 DUP3 ADD JUMPDEST DUP3 DUP2 GT ISZERO PUSH2 0xD83 JUMPI DUP3 MLOAD DUP3 SSTORE SWAP2 PUSH1 0x20 ADD SWAP2 SWAP1 PUSH1 0x1 ADD SWAP1 PUSH2 0xD68 JUMP JUMPDEST JUMPDEST POP SWAP1 POP PUSH2 0xD91 SWAP2 SWAP1 PUSH2 0xD95 JUMP JUMPDEST POP SWAP1 JUMP JUMPDEST JUMPDEST DUP1 DUP3 GT ISZERO PUSH2 0xDAE JUMPI PUSH1 0x0 DUP2 PUSH1 0x0 SWAP1 SSTORE POP PUSH1 0x1 ADD PUSH2 0xD96 JUMP JUMPDEST POP SWAP1 JUMP JUMPDEST PUSH1 0x0 PUSH2 0xDC5 PUSH2 0xDC0 DUP5 PUSH2 0x1169 JUMP JUMPDEST PUSH2 0x1144 JUMP JUMPDEST SWAP1 POP DUP3 DUP2 MSTORE PUSH1 0x20 DUP2 ADD DUP5 DUP5 DUP5 ADD GT ISZERO PUSH2 0xDE1 JUMPI PUSH2 0xDE0 PUSH2 0x142A JUMP JUMPDEST JUMPDEST PUSH2 0xDEC DUP5 DUP3 DUP6 PUSH2 0x12C8 JUMP JUMPDEST POP SWAP4 SWAP3 POP POP POP JUMP JUMPDEST PUSH1 0x0 DUP2 CALLDATALOAD SWAP1 POP PUSH2 0xE03 DUP2 PUSH2 0x1566 JUMP JUMPDEST SWAP3 SWAP2 POP POP JUMP JUMPDEST PUSH1 0x0 DUP3 PUSH1 0x1F DUP4 ADD SLT PUSH2 0xE1E JUMPI PUSH2 0xE1D PUSH2 0x1425 JUMP JUMPDEST JUMPDEST DUP2 CALLDATALOAD PUSH2 0xE2E DUP5 DUP3 PUSH1 0x20 DUP7 ADD PUSH2 0xDB2 JUMP JUMPDEST SWAP2 POP POP SWAP3 SWAP2 POP POP JUMP JUMPDEST PUSH1 0x0 DUP2 CALLDATALOAD SWAP1 POP PUSH2 0xE46 DUP2 PUSH2 0x157D JUMP JUMPDEST SWAP3 SWAP2 POP POP JUMP JUMPDEST PUSH1 0x0 PUSH1 0x20 DUP3 DUP5 SUB SLT ISZERO PUSH2 0xE62 JUMPI PUSH2 0xE61 PUSH2 0x1434 JUMP JUMPDEST JUMPDEST PUSH1 0x0 PUSH2 0xE70 DUP5 DUP3 DUP6 ADD PUSH2 0xDF4 JUMP JUMPDEST SWAP2 POP POP SWAP3 SWAP2 POP POP JUMP JUMPDEST PUSH1 0x0 DUP1 PUSH1 0x40 DUP4 DUP6 SUB SLT ISZERO PUSH2 0xE90 JUMPI PUSH2 0xE8F PUSH2 0x1434 JUMP JUMPDEST JUMPDEST PUSH1 0x0 DUP4 ADD CALLDATALOAD PUSH8 0xFFFFFFFFFFFFFFFF DUP2 GT ISZERO PUSH2 0xEAE JUMPI PUSH2 0xEAD PUSH2 0x142F JUMP JUMPDEST JUMPDEST PUSH2 0xEBA DUP6 DUP3 DUP7 ADD PUSH2 0xE09 JUMP JUMPDEST SWAP3 POP POP PUSH1 0x20 PUSH2 0xECB DUP6 DUP3 DUP7 ADD PUSH2 0xE37 JUMP JUMPDEST SWAP2 POP POP SWAP3 POP SWAP3 SWAP1 POP JUMP JUMPDEST PUSH1 0x0 PUSH1 0x20 DUP3 DUP5 SUB SLT ISZERO PUSH2 0xEEB JUMPI PUSH2 0xEEA PUSH2 0x1434 JUMP JUMPDEST JUMPDEST PUSH1 0x0 PUSH2 0xEF9 DUP5 DUP3 DUP6 ADD PUSH2 0xE37 JUMP JUMPDEST SWAP2 POP POP SWAP3 SWAP2 POP POP JUMP JUMPDEST PUSH1 0x0 DUP1 PUSH1 0x40 DUP4 DUP6 SUB SLT ISZERO PUSH2 0xF19 JUMPI PUSH2 0xF18 PUSH2 0x1434 JUMP JUMPDEST JUMPDEST PUSH1 0x0 PUSH2 0xF27 DUP6 DUP3 DUP7 ADD PUSH2 0xE37 JUMP JUMPDEST SWAP3 POP POP PUSH1 0x20 PUSH2 0xF38 DUP6 DUP3 DUP7 ADD PUSH2 0xE37 JUMP JUMPDEST SWAP2 POP POP SWAP3 POP SWAP3 SWAP1 POP JUMP JUMPDEST PUSH2 0xF4B DUP2 PUSH2 0x128C JUMP JUMPDEST DUP3 MSTORE POP POP JUMP JUMPDEST PUSH1 0x0 PUSH2 0xF5E PUSH1 0x1E DUP4 PUSH2 0x119A JUMP JUMPDEST SWAP2 POP PUSH2 0xF69 DUP3 PUSH2 0x144A JUMP JUMPDEST PUSH1 0x20 DUP3 ADD SWAP1 POP SWAP2 SWAP1 POP JUMP JUMPDEST PUSH1 0x0 PUSH2 0xF81 PUSH1 0x15 DUP4 PUSH2 0x119A JUMP JUMPDEST SWAP2 POP PUSH2 0xF8C DUP3 PUSH2 0x1473 JUMP JUMPDEST PUSH1 0x20 DUP3 ADD SWAP1 POP SWAP2 SWAP1 POP JUMP JUMPDEST PUSH1 0x0 PUSH2 0xFA4 PUSH1 0x19 DUP4 PUSH2 0x119A JUMP JUMPDEST SWAP2 POP PUSH2 0xFAF DUP3 PUSH2 0x149C JUMP JUMPDEST PUSH1 0x20 DUP3 ADD SWAP1 POP SWAP2 SWAP1 POP JUMP JUMPDEST PUSH1 0x0 PUSH2 0xFC7 PUSH1 0x18 DUP4 PUSH2 0x119A JUMP JUMPDEST SWAP2 POP PUSH2 0xFD2 DUP3 PUSH2 0x14C5 JUMP JUMPDEST PUSH1 0x20 DUP3 ADD SWAP1 POP SWAP2 SWAP1 POP JUMP JUMPDEST PUSH1 0x0 PUSH2 0xFEA PUSH1 0x2C DUP4 PUSH2 0x119A JUMP JUMPDEST SWAP2 POP PUSH2 0xFF5 DUP3 PUSH2 0x14EE JUMP JUMPDEST PUSH1 0x40 DUP3 ADD SWAP1 POP SWAP2 SWAP1 POP JUMP JUMPDEST PUSH1 0x0 PUSH2 0x100D PUSH1 0x15 DUP4 PUSH2 0x119A JUMP JUMPDEST SWAP2 POP PUSH2 0x1018 DUP3 PUSH2 0x153D JUMP JUMPDEST PUSH1 0x20 DUP3 ADD SWAP1 POP SWAP2 SWAP1 POP JUMP JUMPDEST PUSH2 0x102C DUP2 PUSH2 0x12BE JUMP JUMPDEST DUP3 MSTORE POP POP JUMP JUMPDEST PUSH1 0x0 PUSH1 0x60 DUP3 ADD SWAP1 POP PUSH2 0x1047 PUSH1 0x0 DUP4 ADD DUP7 PUSH2 0xF42 JUMP JUMPDEST PUSH2 0x1054 PUSH1 0x20 DUP4 ADD DUP6 PUSH2 0x1023 JUMP JUMPDEST PUSH2 0x1061 PUSH1 0x40 DUP4 ADD DUP5 PUSH2 0x1023 JUMP JUMPDEST SWAP5 SWAP4 POP POP POP POP JUMP JUMPDEST PUSH1 0x0 PUSH1 0x20 DUP3 ADD SWAP1 POP DUP2 DUP2 SUB PUSH1 0x0 DUP4 ADD MSTORE PUSH2 0x1082 DUP2 PUSH2 0xF51 JUMP JUMPDEST SWAP1 POP SWAP2 SWAP1 POP JUMP JUMPDEST PUSH1 0x0 PUSH1 0x20 DUP3 ADD SWAP1 POP DUP2 DUP2 SUB PUSH1 0x0 DUP4 ADD MSTORE PUSH2 0x10A2 DUP2 PUSH2 0xF74 JUMP JUMPDEST SWAP1 POP SWAP2 SWAP1 POP JUMP JUMPDEST PUSH1 0x0 PUSH1 0x20 DUP3 ADD SWAP1 POP DUP2 DUP2 SUB PUSH1 0x0 DUP4 ADD MSTORE PUSH2 0x10C2 DUP2 PUSH2 0xF97 JUMP JUMPDEST SWAP1 POP SWAP2 SWAP1 POP JUMP JUMPDEST PUSH1 0x0 PUSH1 0x20 DUP3 ADD SWAP1 POP DUP2 DUP2 SUB PUSH1 0x0 DUP4 ADD MSTORE PUSH2 0x10E2 DUP2 PUSH2 0xFBA JUMP JUMPDEST SWAP1 POP SWAP2 SWAP1 POP JUMP JUMPDEST PUSH1 0x0 PUSH1 0x20 DUP3 ADD SWAP1 POP DUP2 DUP2 SUB PUSH1 0x0 DUP4 ADD MSTORE PUSH2 0x1102 DUP2 PUSH2 0xFDD JUMP JUMPDEST SWAP1 POP SWAP2 SWAP1 POP JUMP JUMPDEST PUSH1 0x0 PUSH1 0x20 DUP3 ADD SWAP1 POP DUP2 DUP2 SUB PUSH1 0x0 DUP4 ADD MSTORE PUSH2 0x1122 DUP2 PUSH2 0x1000 JUMP JUMPDEST SWAP1 POP SWAP2 SWAP1 POP JUMP JUMPDEST PUSH1 0x0 PUSH1 0x20 DUP3 ADD SWAP1 POP PUSH2 0x113E PUSH1 0x0 DUP4 ADD DUP5 PUSH2 0x1023 JUMP JUMPDEST SWAP3 SWAP2 POP POP JUMP JUMPDEST PUSH1 0x0 PUSH2 0x114E PUSH2 0x115F JUMP JUMPDEST SWAP1 POP PUSH2 0x115A DUP3 DUP3 PUSH2 0x1309 JUMP JUMPDEST SWAP2 SWAP1 POP JUMP JUMPDEST PUSH1 0x0 PUSH1 0x40 MLOAD SWAP1 POP SWAP1 JUMP JUMPDEST PUSH1 0x0 PUSH8 0xFFFFFFFFFFFFFFFF DUP3 GT ISZERO PUSH2 0x1184 JUMPI PUSH2 0x1183 PUSH2 0x13F6 JUMP JUMPDEST JUMPDEST PUSH2 0x118D DUP3 PUSH2 0x1439 JUMP JUMPDEST SWAP1 POP PUSH1 0x20 DUP2 ADD SWAP1 POP SWAP2 SWAP1 POP JUMP JUMPDEST PUSH1 0x0 DUP3 DUP3 MSTORE PUSH1 0x20 DUP3 ADD SWAP1 POP SWAP3 SWAP2 POP POP JUMP JUMPDEST PUSH1 0x0 PUSH2 0x11B6 DUP3 PUSH2 0x12BE JUMP JUMPDEST SWAP2 POP PUSH2 0x11C1 DUP4 PUSH2 0x12BE JUMP JUMPDEST SWAP3 POP DUP3 PUSH32 0xFFFFFFFFFFFFFFFFFFFFFFFFFFFFFFFFFFFFFFFFFFFFFFFFFFFFFFFFFFFFFFFF SUB DUP3 GT ISZERO PUSH2 0x11F6 JUMPI PUSH2 0x11F5 PUSH2 0x133A JUMP JUMPDEST JUMPDEST DUP3 DUP3 ADD SWAP1 POP SWAP3 SWAP2 POP POP JUMP JUMPDEST PUSH1 0x0 PUSH2 0x120C DUP3 PUSH2 0x12BE JUMP JUMPDEST SWAP2 POP PUSH2 0x1217 DUP4 PUSH2 0x12BE JUMP JUMPDEST SWAP3 POP DUP3 PUSH2 0x1227 JUMPI PUSH2 0x1226 PUSH2 0x1369 JUMP JUMPDEST JUMPDEST DUP3 DUP3 DIV SWAP1 POP SWAP3 SWAP2 POP POP JUMP JUMPDEST PUSH1 0x0 PUSH2 0x123D DUP3 PUSH2 0x12BE JUMP JUMPDEST SWAP2 POP PUSH2 0x1248 DUP4 PUSH2 0x12BE JUMP JUMPDEST SWAP3 POP DUP2 PUSH32 0xFFFFFFFFFFFFFFFFFFFFFFFFFFFFFFFFFFFFFFFFFFFFFFFFFFFFFFFFFFFFFFFF DIV DUP4 GT DUP3 ISZERO ISZERO AND ISZERO PUSH2 0x1281 JUMPI PUSH2 0x1280 PUSH2 0x133A JUMP JUMPDEST JUMPDEST DUP3 DUP3 MUL SWAP1 POP SWAP3 SWAP2 POP POP JUMP JUMPDEST PUSH1 0x0 PUSH2 0x1297 DUP3 PUSH2 0x129E JUMP JUMPDEST SWAP1 POP SWAP2 SWAP1 POP JUMP JUMPDEST PUSH1 0x0 PUSH20 0xFFFFFFFFFFFFFFFFFFFFFFFFFFFFFFFFFFFFFFFF DUP3 AND SWAP1 POP SWAP2 SWAP1 POP JUMP JUMPDEST PUSH1 0x0 DUP2 SWAP1 POP SWAP2 SWAP1 POP JUMP JUMPDEST DUP3 DUP2 DUP4 CALLDATACOPY PUSH1 0x0 DUP4 DUP4 ADD MSTORE POP POP POP JUMP JUMPDEST PUSH1 0x0 PUSH1 0x2 DUP3 DIV SWAP1 POP PUSH1 0x1 DUP3 AND DUP1 PUSH2 0x12EF JUMPI PUSH1 0x7F DUP3 AND SWAP2 POP JUMPDEST PUSH1 0x20 DUP3 LT DUP2 EQ ISZERO PUSH2 0x1303 JUMPI PUSH2 0x1302 PUSH2 0x1398 JUMP JUMPDEST JUMPDEST POP SWAP2 SWAP1 POP JUMP JUMPDEST PUSH2 0x1312 DUP3 PUSH2 0x1439 JUMP JUMPDEST DUP2 ADD DUP2 DUP2 LT PUSH8 0xFFFFFFFFFFFFFFFF DUP3 GT OR ISZERO PUSH2 0x1331 JUMPI PUSH2 0x1330 PUSH2 0x13F6 JUMP JUMPDEST JUMPDEST DUP1 PUSH1 0x40 MSTORE POP POP POP JUMP JUMPDEST PUSH32 0x4E487B7100000000000000000000000000000000000000000000000000000000 PUSH1 0x0 MSTORE PUSH1 0x11 PUSH1 0x4 MSTORE PUSH1 0x24 PUSH1 0x0 REVERT JUMPDEST PUSH32 0x4E487B7100000000000000000000000000000000000000000000000000000000 PUSH1 0x0 MSTORE PUSH1 0x12 PUSH1 0x4 MSTORE PUSH1 0x24 PUSH1 0x0 REVERT JUMPDEST PUSH32 0x4E487B7100000000000000000000000000000000000000000000000000000000 PUSH1 0x0 MSTORE PUSH1 0x22 PUSH1 0x4 MSTORE PUSH1 0x24 PUSH1 0x0 REVERT JUMPDEST PUSH32 0x4E487B7100000000000000000000000000000000000000000000000000000000 PUSH1 0x0 MSTORE PUSH1 0x32 PUSH1 0x4 MSTORE PUSH1 0x24 PUSH1 0x0 REVERT JUMPDEST PUSH32 0x4E487B7100000000000000000000000000000000000000000000000000000000 PUSH1 0x0 MSTORE PUSH1 0x41 PUSH1 0x4 MSTORE PUSH1 0x24 PUSH1 0x0 REVERT JUMPDEST PUSH1 0x0 DUP1 REVERT JUMPDEST PUSH1 0x0 DUP1 REVERT JUMPDEST PUSH1 0x0 DUP1 REVERT JUMPDEST PUSH1 0x0 DUP1 REVERT JUMPDEST PUSH1 0x0 PUSH1 0x1F NOT PUSH1 0x1F DUP4 ADD AND SWAP1 POP SWAP2 SWAP1 POP JUMP JUMPDEST PUSH32 0x596F752063616E277420626964206F6E20796F7572206F776E20706F73740000 PUSH1 0x0 DUP3 ADD MSTORE POP JUMP JUMPDEST PUSH32 0x496E76616C696420616D6F756E74206F66204269640000000000000000000000 PUSH1 0x0 DUP3 ADD MSTORE POP JUMP JUMPDEST PUSH32 0x596F7520646F6E27742068617665207065726D697373696F6E00000000000000 PUSH1 0x0 DUP3 ADD MSTORE POP JUMP JUMPDEST PUSH32 0x546869732061756374696F6E2069732066696E69736865640000000000000000 PUSH1 0x0 DUP3 ADD MSTORE POP JUMP JUMPDEST PUSH32 0x5468697320626964206E6565647320746F206265206D6F7265207468616E206D PUSH1 0x0 DUP3 ADD MSTORE PUSH32 0x696E206269642076616C75650000000000000000000000000000000000000000 PUSH1 0x20 DUP3 ADD MSTORE POP JUMP JUMPDEST PUSH32 0x5468652061756374696F6E2068617320656E6465640000000000000000000000 PUSH1 0x0 DUP3 ADD MSTORE POP JUMP JUMPDEST PUSH2 0x156F DUP2 PUSH2 0x128C JUMP JUMPDEST DUP2 EQ PUSH2 0x157A JUMPI PUSH1 0x0 DUP1 REVERT JUMPDEST POP JUMP JUMPDEST PUSH2 0x1586 DUP2 PUSH2 0x12BE JUMP JUMPDEST DUP2 EQ PUSH2 0x1591 JUMPI PUSH1 0x0 DUP1 REVERT JUMPDEST POP JUMP INVALID LOG2 PUSH5 0x6970667358 0x22 SLT KECCAK256 0x21 0xFB DUP14 0xDF 0xE4 0xE1 PUSH12 0xD9B8231F17B155915144318F 0xE1 DUP11 PUSH11 0xA036CF36DCCBDF80492F64 PUSH20 0x6F6C634300080700330000000000000000000000 "
				},
				"gasEstimates": {
					"creation": {
						"codeDepositCost": "1115600",
						"executionCost": "1160",
						"totalCost": "1116760"
					},
					"external": {
						"acceptBid(uint256,uint256)": "infinite",
						"createBid(uint256)": "infinite",
						"createPost(string,uint256)": "infinite",
						"getBalance(address)": "infinite",
						"getPostBid(uint256,uint256)": "infinite",
						"getTotalBids(uint256)": "infinite"
					}
				},
				"methodIdentifiers": {
					"acceptBid(uint256,uint256)": "02e9d5e4",
					"createBid(uint256)": "659dd2b4",
					"createPost(string,uint256)": "1252cb48",
					"getBalance(address)": "f8b2cb4f",
					"getPostBid(uint256,uint256)": "e135268d",
					"getTotalBids(uint256)": "8e5bc606"
				}
			},
			"storageLayout": {
				"storage": [
					{
						"astId": 23,
						"contract": "contracts/Auction.sol:Auction",
						"label": "posts",
						"offset": 0,
						"slot": "0",
						"type": "t_array(t_struct(Post)10_storage)dyn_storage"
					},
					{
						"astId": 29,
						"contract": "contracts/Auction.sol:Auction",
						"label": "bids",
						"offset": 0,
						"slot": "1",
						"type": "t_mapping(t_uint256,t_array(t_struct(Bid)19_storage)dyn_storage)"
					},
					{
						"astId": 33,
						"contract": "contracts/Auction.sol:Auction",
						"label": "balances",
						"offset": 0,
						"slot": "2",
						"type": "t_mapping(t_address,t_uint256)"
					}
				],
				"types": {
					"t_address": {
						"encoding": "inplace",
						"label": "address",
						"numberOfBytes": "20"
					},
					"t_address_payable": {
						"encoding": "inplace",
						"label": "address payable",
						"numberOfBytes": "20"
					},
					"t_array(t_struct(Bid)19_storage)dyn_storage": {
						"base": "t_struct(Bid)19_storage",
						"encoding": "dynamic_array",
						"label": "struct Auction.Bid[]",
						"numberOfBytes": "32"
					},
					"t_array(t_struct(Post)10_storage)dyn_storage": {
						"base": "t_struct(Post)10_storage",
						"encoding": "dynamic_array",
						"label": "struct Auction.Post[]",
						"numberOfBytes": "32"
					},
					"t_bool": {
						"encoding": "inplace",
						"label": "bool",
						"numberOfBytes": "1"
					},
					"t_mapping(t_address,t_uint256)": {
						"encoding": "mapping",
						"key": "t_address",
						"label": "mapping(address => uint256)",
						"numberOfBytes": "32",
						"value": "t_uint256"
					},
					"t_mapping(t_uint256,t_array(t_struct(Bid)19_storage)dyn_storage)": {
						"encoding": "mapping",
						"key": "t_uint256",
						"label": "mapping(uint256 => struct Auction.Bid[])",
						"numberOfBytes": "32",
						"value": "t_array(t_struct(Bid)19_storage)dyn_storage"
					},
					"t_string_storage": {
						"encoding": "bytes",
						"label": "string",
						"numberOfBytes": "32"
					},
					"t_struct(Bid)19_storage": {
						"encoding": "inplace",
						"label": "struct Auction.Bid",
						"members": [
							{
								"astId": 12,
								"contract": "contracts/Auction.sol:Auction",
								"label": "buyer",
								"offset": 0,
								"slot": "0",
								"type": "t_address_payable"
							},
							{
								"astId": 14,
								"contract": "contracts/Auction.sol:Auction",
								"label": "amount",
								"offset": 0,
								"slot": "1",
								"type": "t_uint256"
							},
							{
								"astId": 16,
								"contract": "contracts/Auction.sol:Auction",
								"label": "time",
								"offset": 0,
								"slot": "2",
								"type": "t_uint256"
							},
							{
								"astId": 18,
								"contract": "contracts/Auction.sol:Auction",
								"label": "isFinished",
								"offset": 0,
								"slot": "3",
								"type": "t_bool"
							}
						],
						"numberOfBytes": "128"
					},
					"t_struct(Post)10_storage": {
						"encoding": "inplace",
						"label": "struct Auction.Post",
						"members": [
							{
								"astId": 3,
								"contract": "contracts/Auction.sol:Auction",
								"label": "seller",
								"offset": 0,
								"slot": "0",
								"type": "t_address_payable"
							},
							{
								"astId": 5,
								"contract": "contracts/Auction.sol:Auction",
								"label": "minBid",
								"offset": 0,
								"slot": "1",
								"type": "t_uint256"
							},
							{
								"astId": 7,
								"contract": "contracts/Auction.sol:Auction",
								"label": "name",
								"offset": 0,
								"slot": "2",
								"type": "t_string_storage"
							},
							{
								"astId": 9,
								"contract": "contracts/Auction.sol:Auction",
								"label": "time",
								"offset": 0,
								"slot": "3",
								"type": "t_uint256"
							}
						],
						"numberOfBytes": "128"
					},
					"t_uint256": {
						"encoding": "inplace",
						"label": "uint256",
						"numberOfBytes": "32"
					}
				}
			},
			"userdoc": {
				"kind": "user",
				"methods": {},
				"version": 1
			}
		}
	}
}