{
	"contracts/Multi_Sign_Wallet.sol": {
		"MultiSignWallet": {
			"abi": [
				{
					"inputs": [],
					"stateMutability": "nonpayable",
					"type": "constructor"
				},
				{
					"anonymous": false,
					"inputs": [
						{
							"indexed": false,
							"internalType": "address",
							"name": "_from",
							"type": "address"
						},
						{
							"indexed": false,
							"internalType": "uint256",
							"name": "amount",
							"type": "uint256"
						}
					],
					"name": "DepositFunds",
					"type": "event"
				},
				{
					"anonymous": false,
					"inputs": [
						{
							"indexed": false,
							"internalType": "address",
							"name": "_from",
							"type": "address"
						},
						{
							"indexed": false,
							"internalType": "address",
							"name": "_to",
							"type": "address"
						},
						{
							"indexed": false,
							"internalType": "uint256",
							"name": "amount",
							"type": "uint256"
						},
						{
							"indexed": false,
							"internalType": "uint256",
							"name": "transactionId",
							"type": "uint256"
						}
					],
					"name": "TransactionCompleted",
					"type": "event"
				},
				{
					"anonymous": false,
					"inputs": [
						{
							"indexed": false,
							"internalType": "address",
							"name": "_from",
							"type": "address"
						},
						{
							"indexed": false,
							"internalType": "address",
							"name": "_to",
							"type": "address"
						},
						{
							"indexed": false,
							"internalType": "uint256",
							"name": "amount",
							"type": "uint256"
						},
						{
							"indexed": false,
							"internalType": "uint256",
							"name": "transactionId",
							"type": "uint256"
						}
					],
					"name": "TransactionCreated",
					"type": "event"
				},
				{
					"anonymous": false,
					"inputs": [
						{
							"indexed": false,
							"internalType": "address",
							"name": "_by",
							"type": "address"
						},
						{
							"indexed": false,
							"internalType": "uint256",
							"name": "transactionId",
							"type": "uint256"
						}
					],
					"name": "TransactionSigned",
					"type": "event"
				},
				{
					"inputs": [
						{
							"internalType": "address",
							"name": "owner",
							"type": "address"
						}
					],
					"name": "addOwner",
					"outputs": [],
					"stateMutability": "nonpayable",
					"type": "function"
				},
				{
					"inputs": [],
					"name": "deposite",
					"outputs": [],
					"stateMutability": "payable",
					"type": "function"
				},
				{
					"inputs": [
						{
							"internalType": "address",
							"name": "owner",
							"type": "address"
						}
					],
					"name": "removeOwner",
					"outputs": [],
					"stateMutability": "nonpayable",
					"type": "function"
				},
				{
					"inputs": [
						{
							"internalType": "address payable",
							"name": "_reciever",
							"type": "address"
						},
						{
							"internalType": "uint256",
							"name": "_amount",
							"type": "uint256"
						}
					],
					"name": "transferTo",
					"outputs": [],
					"stateMutability": "nonpayable",
					"type": "function"
				},
				{
					"inputs": [
						{
							"internalType": "uint256",
							"name": "amount",
							"type": "uint256"
						}
					],
					"name": "withDraw",
					"outputs": [],
					"stateMutability": "nonpayable",
					"type": "function"
				}
			],
			"devdoc": {
				"kind": "dev",
				"methods": {},
				"version": 1
			},
			"evm": {
				"assembly": "    /* \"contracts/Multi_Sign_Wallet.sol\":25:2674  contract MultiSignWallet {\r... */\n  mstore(0x40, 0x80)\n    /* \"contracts/Multi_Sign_Wallet.sol\":1732:1784  constructor() {\r... */\n  callvalue\n  dup1\n  iszero\n  tag_1\n  jumpi\n  0x00\n  dup1\n  revert\ntag_1:\n  pop\n    /* \"contracts/Multi_Sign_Wallet.sol\":1766:1776  msg.sender */\n  caller\n    /* \"contracts/Multi_Sign_Wallet.sol\":1757:1763  _owner */\n  0x00\n  dup1\n    /* \"contracts/Multi_Sign_Wallet.sol\":1757:1776  _owner = msg.sender */\n  0x0100\n  exp\n  dup2\n  sload\n  dup2\n  0xffffffffffffffffffffffffffffffffffffffff\n  mul\n  not\n  and\n  swap1\n  dup4\n  0xffffffffffffffffffffffffffffffffffffffff\n  and\n  mul\n  or\n  swap1\n  sstore\n  pop\n    /* \"contracts/Multi_Sign_Wallet.sol\":25:2674  contract MultiSignWallet {\r... */\n  dataSize(sub_0)\n  dup1\n  dataOffset(sub_0)\n  0x00\n  codecopy\n  0x00\n  return\nstop\n\nsub_0: assembly {\n        /* \"contracts/Multi_Sign_Wallet.sol\":25:2674  contract MultiSignWallet {\r... */\n      mstore(0x40, 0x80)\n      jumpi(tag_1, lt(calldatasize, 0x04))\n      shr(0xe0, calldataload(0x00))\n      dup1\n      0x14174f33\n      eq\n      tag_2\n      jumpi\n      dup1\n      0x173825d9\n      eq\n      tag_3\n      jumpi\n      dup1\n      0x2ccb1b30\n      eq\n      tag_4\n      jumpi\n      dup1\n      0x7065cb48\n      eq\n      tag_5\n      jumpi\n      dup1\n      0xa50ec326\n      eq\n      tag_6\n      jumpi\n    tag_1:\n      0x00\n      dup1\n      revert\n        /* \"contracts/Multi_Sign_Wallet.sol\":2079:2174  function withDraw(uint amount) public {\r... */\n    tag_2:\n      callvalue\n      dup1\n      iszero\n      tag_7\n      jumpi\n      0x00\n      dup1\n      revert\n    tag_7:\n      pop\n      tag_8\n      0x04\n      dup1\n      calldatasize\n      sub\n      dup2\n      add\n      swap1\n      tag_9\n      swap2\n      swap1\n      tag_10\n      jump\t// in\n    tag_9:\n      tag_11\n      jump\t// in\n    tag_8:\n      stop\n        /* \"contracts/Multi_Sign_Wallet.sol\":1884:1971  function removeOwner(address owner) public isOwner{\r... */\n    tag_3:\n      callvalue\n      dup1\n      iszero\n      tag_12\n      jumpi\n      0x00\n      dup1\n      revert\n    tag_12:\n      pop\n      tag_13\n      0x04\n      dup1\n      calldatasize\n      sub\n      dup2\n      add\n      swap1\n      tag_14\n      swap2\n      swap1\n      tag_15\n      jump\t// in\n    tag_14:\n      tag_16\n      jump\t// in\n    tag_13:\n      stop\n        /* \"contracts/Multi_Sign_Wallet.sol\":2182:2671  function transferTo(address payable _reciever,uint _amount) public validOwner{\r... */\n    tag_4:\n      callvalue\n      dup1\n      iszero\n      tag_17\n      jumpi\n      0x00\n      dup1\n      revert\n    tag_17:\n      pop\n      tag_18\n      0x04\n      dup1\n      calldatasize\n      sub\n      dup2\n      add\n      swap1\n      tag_19\n      swap2\n      swap1\n      tag_20\n      jump\t// in\n    tag_19:\n      tag_21\n      jump\t// in\n    tag_18:\n      stop\n        /* \"contracts/Multi_Sign_Wallet.sol\":1792:1876  function addOwner(address owner) public isOwner{\r... */\n    tag_5:\n      callvalue\n      dup1\n      iszero\n      tag_22\n      jumpi\n      0x00\n      dup1\n      revert\n    tag_22:\n      pop\n      tag_23\n      0x04\n      dup1\n      calldatasize\n      sub\n      dup2\n      add\n      swap1\n      tag_24\n      swap2\n      swap1\n      tag_15\n      jump\t// in\n    tag_24:\n      tag_25\n      jump\t// in\n    tag_23:\n      stop\n        /* \"contracts/Multi_Sign_Wallet.sol\":1979:2071  function deposite() public payable{\r... */\n    tag_6:\n      tag_26\n      tag_27\n      jump\t// in\n    tag_26:\n      stop\n        /* \"contracts/Multi_Sign_Wallet.sol\":2079:2174  function withDraw(uint amount) public {\r... */\n    tag_11:\n        /* \"contracts/Multi_Sign_Wallet.sol\":2128:2166  transferTo(payable(msg.sender),amount) */\n      tag_29\n        /* \"contracts/Multi_Sign_Wallet.sol\":2147:2157  msg.sender */\n      caller\n        /* \"contracts/Multi_Sign_Wallet.sol\":2159:2165  amount */\n      dup3\n        /* \"contracts/Multi_Sign_Wallet.sol\":2128:2138  transferTo */\n      tag_21\n        /* \"contracts/Multi_Sign_Wallet.sol\":2128:2166  transferTo(payable(msg.sender),amount) */\n      jump\t// in\n    tag_29:\n        /* \"contracts/Multi_Sign_Wallet.sol\":2079:2174  function withDraw(uint amount) public {\r... */\n      pop\n      jump\t// out\n        /* \"contracts/Multi_Sign_Wallet.sol\":1884:1971  function removeOwner(address owner) public isOwner{\r... */\n    tag_16:\n        /* \"contracts/Multi_Sign_Wallet.sol\":1477:1483  _owner */\n      0x00\n      dup1\n      sload\n      swap1\n      0x0100\n      exp\n      swap1\n      div\n      0xffffffffffffffffffffffffffffffffffffffff\n      and\n        /* \"contracts/Multi_Sign_Wallet.sol\":1465:1483  msg.sender==_owner */\n      0xffffffffffffffffffffffffffffffffffffffff\n      and\n        /* \"contracts/Multi_Sign_Wallet.sol\":1465:1475  msg.sender */\n      caller\n        /* \"contracts/Multi_Sign_Wallet.sol\":1465:1483  msg.sender==_owner */\n      0xffffffffffffffffffffffffffffffffffffffff\n      and\n      eq\n        /* \"contracts/Multi_Sign_Wallet.sol\":1457:1484  require(msg.sender==_owner) */\n      tag_31\n      jumpi\n      0x00\n      dup1\n      revert\n    tag_31:\n        /* \"contracts/Multi_Sign_Wallet.sol\":1962:1963  0 */\n      0x00\n        /* \"contracts/Multi_Sign_Wallet.sol\":1945:1952  _owners */\n      0x01\n        /* \"contracts/Multi_Sign_Wallet.sol\":1945:1959  _owners[owner] */\n      0x00\n        /* \"contracts/Multi_Sign_Wallet.sol\":1953:1958  owner */\n      dup4\n        /* \"contracts/Multi_Sign_Wallet.sol\":1945:1959  _owners[owner] */\n      0xffffffffffffffffffffffffffffffffffffffff\n      and\n      0xffffffffffffffffffffffffffffffffffffffff\n      and\n      dup2\n      mstore\n      0x20\n      add\n      swap1\n      dup2\n      mstore\n      0x20\n      add\n      0x00\n      keccak256\n      0x00\n        /* \"contracts/Multi_Sign_Wallet.sol\":1945:1963  _owners[owner] = 0 */\n      0x0100\n      exp\n      dup2\n      sload\n      dup2\n      0xff\n      mul\n      not\n      and\n      swap1\n      dup4\n      0xff\n      and\n      mul\n      or\n      swap1\n      sstore\n      pop\n        /* \"contracts/Multi_Sign_Wallet.sol\":1884:1971  function removeOwner(address owner) public isOwner{\r... */\n      pop\n      jump\t// out\n        /* \"contracts/Multi_Sign_Wallet.sol\":2182:2671  function transferTo(address payable _reciever,uint _amount) public validOwner{\r... */\n    tag_21:\n        /* \"contracts/Multi_Sign_Wallet.sol\":1642:1648  _owner */\n      0x00\n      dup1\n      sload\n      swap1\n      0x0100\n      exp\n      swap1\n      div\n      0xffffffffffffffffffffffffffffffffffffffff\n      and\n        /* \"contracts/Multi_Sign_Wallet.sol\":1628:1648  msg.sender == _owner */\n      0xffffffffffffffffffffffffffffffffffffffff\n      and\n        /* \"contracts/Multi_Sign_Wallet.sol\":1628:1638  msg.sender */\n      caller\n        /* \"contracts/Multi_Sign_Wallet.sol\":1628:1648  msg.sender == _owner */\n      0xffffffffffffffffffffffffffffffffffffffff\n      and\n      eq\n        /* \"contracts/Multi_Sign_Wallet.sol\":1628:1676  msg.sender == _owner || _owners[msg.sender] == 1 */\n      dup1\n      tag_34\n      jumpi\n      pop\n        /* \"contracts/Multi_Sign_Wallet.sol\":1675:1676  1 */\n      0x01\n        /* \"contracts/Multi_Sign_Wallet.sol\":1652:1659  _owners */\n      dup1\n        /* \"contracts/Multi_Sign_Wallet.sol\":1652:1671  _owners[msg.sender] */\n      0x00\n        /* \"contracts/Multi_Sign_Wallet.sol\":1660:1670  msg.sender */\n      caller\n        /* \"contracts/Multi_Sign_Wallet.sol\":1652:1671  _owners[msg.sender] */\n      0xffffffffffffffffffffffffffffffffffffffff\n      and\n      0xffffffffffffffffffffffffffffffffffffffff\n      and\n      dup2\n      mstore\n      0x20\n      add\n      swap1\n      dup2\n      mstore\n      0x20\n      add\n      0x00\n      keccak256\n      0x00\n      swap1\n      sload\n      swap1\n      0x0100\n      exp\n      swap1\n      div\n      0xff\n      and\n        /* \"contracts/Multi_Sign_Wallet.sol\":1652:1676  _owners[msg.sender] == 1 */\n      0xff\n      and\n      eq\n        /* \"contracts/Multi_Sign_Wallet.sol\":1628:1676  msg.sender == _owner || _owners[msg.sender] == 1 */\n    tag_34:\n        /* \"contracts/Multi_Sign_Wallet.sol\":1619:1677  require (msg.sender == _owner || _owners[msg.sender] == 1) */\n      tag_35\n      jumpi\n      0x00\n      dup1\n      revert\n    tag_35:\n        /* \"contracts/Multi_Sign_Wallet.sol\":2303:2310  _amount */\n      dup1\n        /* \"contracts/Multi_Sign_Wallet.sol\":2278:2299  address(this).balance */\n      selfbalance\n        /* \"contracts/Multi_Sign_Wallet.sol\":2278:2310  address(this).balance >= _amount */\n      lt\n      iszero\n        /* \"contracts/Multi_Sign_Wallet.sol\":2270:2333  require(address(this).balance >= _amount ,  \"Not Enough Money\") */\n      tag_37\n      jumpi\n      mload(0x40)\n      0x08c379a000000000000000000000000000000000000000000000000000000000\n      dup2\n      mstore\n      0x04\n      add\n      tag_38\n      swap1\n      tag_39\n      jump\t// in\n    tag_38:\n      mload(0x40)\n      dup1\n      swap2\n      sub\n      swap1\n      revert\n    tag_37:\n        /* \"contracts/Multi_Sign_Wallet.sol\":2344:2357  _transactions */\n      0x02\n        /* \"contracts/Multi_Sign_Wallet.sol\":2363:2602  Transaction(\r... */\n      mload(0x40)\n      dup1\n      0xa0\n      add\n      0x40\n      mstore\n      dup1\n        /* \"contracts/Multi_Sign_Wallet.sol\":2423:2433  msg.sender */\n      caller\n        /* \"contracts/Multi_Sign_Wallet.sol\":2363:2602  Transaction(\r... */\n      0xffffffffffffffffffffffffffffffffffffffff\n      and\n      dup2\n      mstore\n      0x20\n      add\n        /* \"contracts/Multi_Sign_Wallet.sol\":2463:2472  _reciever */\n      dup5\n        /* \"contracts/Multi_Sign_Wallet.sol\":2363:2602  Transaction(\r... */\n      0xffffffffffffffffffffffffffffffffffffffff\n      and\n      dup2\n      mstore\n      0x20\n      add\n        /* \"contracts/Multi_Sign_Wallet.sol\":2499:2506  _amount */\n      dup4\n        /* \"contracts/Multi_Sign_Wallet.sol\":2363:2602  Transaction(\r... */\n      dup2\n      mstore\n      0x20\n      add\n        /* \"contracts/Multi_Sign_Wallet.sol\":2535:2540  false */\n      0x00\n        /* \"contracts/Multi_Sign_Wallet.sol\":2363:2602  Transaction(\r... */\n      iszero\n      iszero\n      dup2\n      mstore\n      0x20\n      add\n        /* \"contracts/Multi_Sign_Wallet.sol\":2575:2576  0 */\n      0x00\n        /* \"contracts/Multi_Sign_Wallet.sol\":2363:2602  Transaction(\r... */\n      0xff\n      and\n      dup2\n      mstore\n      pop\n        /* \"contracts/Multi_Sign_Wallet.sol\":2344:2603  _transactions.push(Transaction(\r... */\n      swap1\n      dup1\n      0x01\n      dup2\n      sload\n      add\n      dup1\n      dup3\n      sstore\n      dup1\n      swap2\n      pop\n      pop\n      0x01\n      swap1\n      sub\n      swap1\n      0x00\n      mstore\n      keccak256(0x00, 0x20)\n      swap1\n      0x04\n      mul\n      add\n      0x00\n      swap1\n      swap2\n      swap1\n      swap2\n      swap1\n      swap2\n      pop\n      0x00\n      dup3\n      add\n      mload\n      dup2\n      0x00\n      add\n      exp(0x0100, 0x00)\n      dup2\n      sload\n      dup2\n      0xffffffffffffffffffffffffffffffffffffffff\n      mul\n      not\n      and\n      swap1\n      dup4\n      0xffffffffffffffffffffffffffffffffffffffff\n      and\n      mul\n      or\n      swap1\n      sstore\n      pop\n      0x20\n      dup3\n      add\n      mload\n      dup2\n      0x01\n      add\n      exp(0x0100, 0x00)\n      dup2\n      sload\n      dup2\n      0xffffffffffffffffffffffffffffffffffffffff\n      mul\n      not\n      and\n      swap1\n      dup4\n      0xffffffffffffffffffffffffffffffffffffffff\n      and\n      mul\n      or\n      swap1\n      sstore\n      pop\n      0x40\n      dup3\n      add\n      mload\n      dup2\n      0x02\n      add\n      sstore\n      0x60\n      dup3\n      add\n      mload\n      dup2\n      0x03\n      add\n      exp(0x0100, 0x00)\n      dup2\n      sload\n      dup2\n      0xff\n      mul\n      not\n      and\n      swap1\n      dup4\n      iszero\n      iszero\n      mul\n      or\n      swap1\n      sstore\n      pop\n      0x80\n      dup3\n      add\n      mload\n      dup2\n      0x03\n      add\n      exp(0x0100, 0x01)\n      dup2\n      sload\n      dup2\n      0xff\n      mul\n      not\n      and\n      swap1\n      dup4\n      0xff\n      and\n      mul\n      or\n      swap1\n      sstore\n      pop\n      pop\n      pop\n        /* \"contracts/Multi_Sign_Wallet.sol\":2616:2636  _pendingTransactions */\n      0x04\n        /* \"contracts/Multi_Sign_Wallet.sol\":2642:2655  _transactions */\n      0x02\n        /* \"contracts/Multi_Sign_Wallet.sol\":2642:2662  _transactions.length */\n      dup1\n      sload\n      swap1\n      pop\n        /* \"contracts/Multi_Sign_Wallet.sol\":2616:2663  _pendingTransactions.push(_transactions.length) */\n      swap1\n      dup1\n      0x01\n      dup2\n      sload\n      add\n      dup1\n      dup3\n      sstore\n      dup1\n      swap2\n      pop\n      pop\n      0x01\n      swap1\n      sub\n      swap1\n      0x00\n      mstore\n      keccak256(0x00, 0x20)\n      add\n      0x00\n      swap1\n      swap2\n      swap1\n      swap2\n      swap1\n      swap2\n      pop\n      sstore\n        /* \"contracts/Multi_Sign_Wallet.sol\":2182:2671  function transferTo(address payable _reciever,uint _amount) public validOwner{\r... */\n      pop\n      pop\n      jump\t// out\n        /* \"contracts/Multi_Sign_Wallet.sol\":1792:1876  function addOwner(address owner) public isOwner{\r... */\n    tag_25:\n        /* \"contracts/Multi_Sign_Wallet.sol\":1477:1483  _owner */\n      0x00\n      dup1\n      sload\n      swap1\n      0x0100\n      exp\n      swap1\n      div\n      0xffffffffffffffffffffffffffffffffffffffff\n      and\n        /* \"contracts/Multi_Sign_Wallet.sol\":1465:1483  msg.sender==_owner */\n      0xffffffffffffffffffffffffffffffffffffffff\n      and\n        /* \"contracts/Multi_Sign_Wallet.sol\":1465:1475  msg.sender */\n      caller\n        /* \"contracts/Multi_Sign_Wallet.sol\":1465:1483  msg.sender==_owner */\n      0xffffffffffffffffffffffffffffffffffffffff\n      and\n      eq\n        /* \"contracts/Multi_Sign_Wallet.sol\":1457:1484  require(msg.sender==_owner) */\n      tag_43\n      jumpi\n      0x00\n      dup1\n      revert\n    tag_43:\n        /* \"contracts/Multi_Sign_Wallet.sol\":1867:1868  1 */\n      0x01\n        /* \"contracts/Multi_Sign_Wallet.sol\":1850:1857  _owners */\n      dup1\n        /* \"contracts/Multi_Sign_Wallet.sol\":1850:1864  _owners[owner] */\n      0x00\n        /* \"contracts/Multi_Sign_Wallet.sol\":1858:1863  owner */\n      dup4\n        /* \"contracts/Multi_Sign_Wallet.sol\":1850:1864  _owners[owner] */\n      0xffffffffffffffffffffffffffffffffffffffff\n      and\n      0xffffffffffffffffffffffffffffffffffffffff\n      and\n      dup2\n      mstore\n      0x20\n      add\n      swap1\n      dup2\n      mstore\n      0x20\n      add\n      0x00\n      keccak256\n      0x00\n        /* \"contracts/Multi_Sign_Wallet.sol\":1850:1868  _owners[owner] = 1 */\n      0x0100\n      exp\n      dup2\n      sload\n      dup2\n      0xff\n      mul\n      not\n      and\n      swap1\n      dup4\n      0xff\n      and\n      mul\n      or\n      swap1\n      sstore\n      pop\n        /* \"contracts/Multi_Sign_Wallet.sol\":1792:1876  function addOwner(address owner) public isOwner{\r... */\n      pop\n      jump\t// out\n        /* \"contracts/Multi_Sign_Wallet.sol\":1979:2071  function deposite() public payable{\r... */\n    tag_27:\n        /* \"contracts/Multi_Sign_Wallet.sol\":2029:2063  DepositFunds(msg.sender,msg.value) */\n      0xd241e73300212f6df233a8e6d3146b88a9d4964e06621d54b5ff6afeba7b1b88\n        /* \"contracts/Multi_Sign_Wallet.sol\":2042:2052  msg.sender */\n      caller\n        /* \"contracts/Multi_Sign_Wallet.sol\":2053:2062  msg.value */\n      callvalue\n        /* \"contracts/Multi_Sign_Wallet.sol\":2029:2063  DepositFunds(msg.sender,msg.value) */\n      mload(0x40)\n      tag_46\n      swap3\n      swap2\n      swap1\n      tag_47\n      jump\t// in\n    tag_46:\n      mload(0x40)\n      dup1\n      swap2\n      sub\n      swap1\n      log1\n        /* \"contracts/Multi_Sign_Wallet.sol\":1979:2071  function deposite() public payable{\r... */\n      jump\t// out\n        /* \"#utility.yul\":7:146   */\n    tag_49:\n        /* \"#utility.yul\":53:58   */\n      0x00\n        /* \"#utility.yul\":91:97   */\n      dup2\n        /* \"#utility.yul\":78:98   */\n      calldataload\n        /* \"#utility.yul\":69:98   */\n      swap1\n      pop\n        /* \"#utility.yul\":107:140   */\n      tag_51\n        /* \"#utility.yul\":134:139   */\n      dup2\n        /* \"#utility.yul\":107:140   */\n      tag_52\n      jump\t// in\n    tag_51:\n        /* \"#utility.yul\":7:146   */\n      swap3\n      swap2\n      pop\n      pop\n      jump\t// out\n        /* \"#utility.yul\":152:307   */\n    tag_53:\n        /* \"#utility.yul\":206:211   */\n      0x00\n        /* \"#utility.yul\":244:250   */\n      dup2\n        /* \"#utility.yul\":231:251   */\n      calldataload\n        /* \"#utility.yul\":222:251   */\n      swap1\n      pop\n        /* \"#utility.yul\":260:301   */\n      tag_55\n        /* \"#utility.yul\":295:300   */\n      dup2\n        /* \"#utility.yul\":260:301   */\n      tag_56\n      jump\t// in\n    tag_55:\n        /* \"#utility.yul\":152:307   */\n      swap3\n      swap2\n      pop\n      pop\n      jump\t// out\n        /* \"#utility.yul\":313:452   */\n    tag_57:\n        /* \"#utility.yul\":359:364   */\n      0x00\n        /* \"#utility.yul\":397:403   */\n      dup2\n        /* \"#utility.yul\":384:404   */\n      calldataload\n        /* \"#utility.yul\":375:404   */\n      swap1\n      pop\n        /* \"#utility.yul\":413:446   */\n      tag_59\n        /* \"#utility.yul\":440:445   */\n      dup2\n        /* \"#utility.yul\":413:446   */\n      tag_60\n      jump\t// in\n    tag_59:\n        /* \"#utility.yul\":313:452   */\n      swap3\n      swap2\n      pop\n      pop\n      jump\t// out\n        /* \"#utility.yul\":458:787   */\n    tag_15:\n        /* \"#utility.yul\":517:523   */\n      0x00\n        /* \"#utility.yul\":566:568   */\n      0x20\n        /* \"#utility.yul\":554:563   */\n      dup3\n        /* \"#utility.yul\":545:552   */\n      dup5\n        /* \"#utility.yul\":541:564   */\n      sub\n        /* \"#utility.yul\":537:569   */\n      slt\n        /* \"#utility.yul\":534:653   */\n      iszero\n      tag_62\n      jumpi\n        /* \"#utility.yul\":572:651   */\n      tag_63\n      tag_64\n      jump\t// in\n    tag_63:\n        /* \"#utility.yul\":534:653   */\n    tag_62:\n        /* \"#utility.yul\":692:693   */\n      0x00\n        /* \"#utility.yul\":717:770   */\n      tag_65\n        /* \"#utility.yul\":762:769   */\n      dup5\n        /* \"#utility.yul\":753:759   */\n      dup3\n        /* \"#utility.yul\":742:751   */\n      dup6\n        /* \"#utility.yul\":738:760   */\n      add\n        /* \"#utility.yul\":717:770   */\n      tag_49\n      jump\t// in\n    tag_65:\n        /* \"#utility.yul\":707:770   */\n      swap2\n      pop\n        /* \"#utility.yul\":663:780   */\n      pop\n        /* \"#utility.yul\":458:787   */\n      swap3\n      swap2\n      pop\n      pop\n      jump\t// out\n        /* \"#utility.yul\":793:1283   */\n    tag_20:\n        /* \"#utility.yul\":869:875   */\n      0x00\n        /* \"#utility.yul\":877:883   */\n      dup1\n        /* \"#utility.yul\":926:928   */\n      0x40\n        /* \"#utility.yul\":914:923   */\n      dup4\n        /* \"#utility.yul\":905:912   */\n      dup6\n        /* \"#utility.yul\":901:924   */\n      sub\n        /* \"#utility.yul\":897:929   */\n      slt\n        /* \"#utility.yul\":894:1013   */\n      iszero\n      tag_67\n      jumpi\n        /* \"#utility.yul\":932:1011   */\n      tag_68\n      tag_64\n      jump\t// in\n    tag_68:\n        /* \"#utility.yul\":894:1013   */\n    tag_67:\n        /* \"#utility.yul\":1052:1053   */\n      0x00\n        /* \"#utility.yul\":1077:1138   */\n      tag_69\n        /* \"#utility.yul\":1130:1137   */\n      dup6\n        /* \"#utility.yul\":1121:1127   */\n      dup3\n        /* \"#utility.yul\":1110:1119   */\n      dup7\n        /* \"#utility.yul\":1106:1128   */\n      add\n        /* \"#utility.yul\":1077:1138   */\n      tag_53\n      jump\t// in\n    tag_69:\n        /* \"#utility.yul\":1067:1138   */\n      swap3\n      pop\n        /* \"#utility.yul\":1023:1148   */\n      pop\n        /* \"#utility.yul\":1187:1189   */\n      0x20\n        /* \"#utility.yul\":1213:1266   */\n      tag_70\n        /* \"#utility.yul\":1258:1265   */\n      dup6\n        /* \"#utility.yul\":1249:1255   */\n      dup3\n        /* \"#utility.yul\":1238:1247   */\n      dup7\n        /* \"#utility.yul\":1234:1256   */\n      add\n        /* \"#utility.yul\":1213:1266   */\n      tag_57\n      jump\t// in\n    tag_70:\n        /* \"#utility.yul\":1203:1266   */\n      swap2\n      pop\n        /* \"#utility.yul\":1158:1276   */\n      pop\n        /* \"#utility.yul\":793:1283   */\n      swap3\n      pop\n      swap3\n      swap1\n      pop\n      jump\t// out\n        /* \"#utility.yul\":1289:1618   */\n    tag_10:\n        /* \"#utility.yul\":1348:1354   */\n      0x00\n        /* \"#utility.yul\":1397:1399   */\n      0x20\n        /* \"#utility.yul\":1385:1394   */\n      dup3\n        /* \"#utility.yul\":1376:1383   */\n      dup5\n        /* \"#utility.yul\":1372:1395   */\n      sub\n        /* \"#utility.yul\":1368:1400   */\n      slt\n        /* \"#utility.yul\":1365:1484   */\n      iszero\n      tag_72\n      jumpi\n        /* \"#utility.yul\":1403:1482   */\n      tag_73\n      tag_64\n      jump\t// in\n    tag_73:\n        /* \"#utility.yul\":1365:1484   */\n    tag_72:\n        /* \"#utility.yul\":1523:1524   */\n      0x00\n        /* \"#utility.yul\":1548:1601   */\n      tag_74\n        /* \"#utility.yul\":1593:1600   */\n      dup5\n        /* \"#utility.yul\":1584:1590   */\n      dup3\n        /* \"#utility.yul\":1573:1582   */\n      dup6\n        /* \"#utility.yul\":1569:1591   */\n      add\n        /* \"#utility.yul\":1548:1601   */\n      tag_57\n      jump\t// in\n    tag_74:\n        /* \"#utility.yul\":1538:1601   */\n      swap2\n      pop\n        /* \"#utility.yul\":1494:1611   */\n      pop\n        /* \"#utility.yul\":1289:1618   */\n      swap3\n      swap2\n      pop\n      pop\n      jump\t// out\n        /* \"#utility.yul\":1624:1742   */\n    tag_75:\n        /* \"#utility.yul\":1711:1735   */\n      tag_77\n        /* \"#utility.yul\":1729:1734   */\n      dup2\n        /* \"#utility.yul\":1711:1735   */\n      tag_78\n      jump\t// in\n    tag_77:\n        /* \"#utility.yul\":1706:1709   */\n      dup3\n        /* \"#utility.yul\":1699:1736   */\n      mstore\n        /* \"#utility.yul\":1624:1742   */\n      pop\n      pop\n      jump\t// out\n        /* \"#utility.yul\":1748:2114   */\n    tag_79:\n        /* \"#utility.yul\":1890:1893   */\n      0x00\n        /* \"#utility.yul\":1911:1978   */\n      tag_81\n        /* \"#utility.yul\":1975:1977   */\n      0x10\n        /* \"#utility.yul\":1970:1973   */\n      dup4\n        /* \"#utility.yul\":1911:1978   */\n      tag_82\n      jump\t// in\n    tag_81:\n        /* \"#utility.yul\":1904:1978   */\n      swap2\n      pop\n        /* \"#utility.yul\":1987:2080   */\n      tag_83\n        /* \"#utility.yul\":2076:2079   */\n      dup3\n        /* \"#utility.yul\":1987:2080   */\n      tag_84\n      jump\t// in\n    tag_83:\n        /* \"#utility.yul\":2105:2107   */\n      0x20\n        /* \"#utility.yul\":2100:2103   */\n      dup3\n        /* \"#utility.yul\":2096:2108   */\n      add\n        /* \"#utility.yul\":2089:2108   */\n      swap1\n      pop\n        /* \"#utility.yul\":1748:2114   */\n      swap2\n      swap1\n      pop\n      jump\t// out\n        /* \"#utility.yul\":2120:2238   */\n    tag_85:\n        /* \"#utility.yul\":2207:2231   */\n      tag_87\n        /* \"#utility.yul\":2225:2230   */\n      dup2\n        /* \"#utility.yul\":2207:2231   */\n      tag_88\n      jump\t// in\n    tag_87:\n        /* \"#utility.yul\":2202:2205   */\n      dup3\n        /* \"#utility.yul\":2195:2232   */\n      mstore\n        /* \"#utility.yul\":2120:2238   */\n      pop\n      pop\n      jump\t// out\n        /* \"#utility.yul\":2244:2576   */\n    tag_47:\n        /* \"#utility.yul\":2365:2369   */\n      0x00\n        /* \"#utility.yul\":2403:2405   */\n      0x40\n        /* \"#utility.yul\":2392:2401   */\n      dup3\n        /* \"#utility.yul\":2388:2406   */\n      add\n        /* \"#utility.yul\":2380:2406   */\n      swap1\n      pop\n        /* \"#utility.yul\":2416:2487   */\n      tag_90\n        /* \"#utility.yul\":2484:2485   */\n      0x00\n        /* \"#utility.yul\":2473:2482   */\n      dup4\n        /* \"#utility.yul\":2469:2486   */\n      add\n        /* \"#utility.yul\":2460:2466   */\n      dup6\n        /* \"#utility.yul\":2416:2487   */\n      tag_75\n      jump\t// in\n    tag_90:\n        /* \"#utility.yul\":2497:2569   */\n      tag_91\n        /* \"#utility.yul\":2565:2567   */\n      0x20\n        /* \"#utility.yul\":2554:2563   */\n      dup4\n        /* \"#utility.yul\":2550:2568   */\n      add\n        /* \"#utility.yul\":2541:2547   */\n      dup5\n        /* \"#utility.yul\":2497:2569   */\n      tag_85\n      jump\t// in\n    tag_91:\n        /* \"#utility.yul\":2244:2576   */\n      swap4\n      swap3\n      pop\n      pop\n      pop\n      jump\t// out\n        /* \"#utility.yul\":2582:3001   */\n    tag_39:\n        /* \"#utility.yul\":2748:2752   */\n      0x00\n        /* \"#utility.yul\":2786:2788   */\n      0x20\n        /* \"#utility.yul\":2775:2784   */\n      dup3\n        /* \"#utility.yul\":2771:2789   */\n      add\n        /* \"#utility.yul\":2763:2789   */\n      swap1\n      pop\n        /* \"#utility.yul\":2835:2844   */\n      dup2\n        /* \"#utility.yul\":2829:2833   */\n      dup2\n        /* \"#utility.yul\":2825:2845   */\n      sub\n        /* \"#utility.yul\":2821:2822   */\n      0x00\n        /* \"#utility.yul\":2810:2819   */\n      dup4\n        /* \"#utility.yul\":2806:2823   */\n      add\n        /* \"#utility.yul\":2799:2846   */\n      mstore\n        /* \"#utility.yul\":2863:2994   */\n      tag_93\n        /* \"#utility.yul\":2989:2993   */\n      dup2\n        /* \"#utility.yul\":2863:2994   */\n      tag_79\n      jump\t// in\n    tag_93:\n        /* \"#utility.yul\":2855:2994   */\n      swap1\n      pop\n        /* \"#utility.yul\":2582:3001   */\n      swap2\n      swap1\n      pop\n      jump\t// out\n        /* \"#utility.yul\":3088:3257   */\n    tag_82:\n        /* \"#utility.yul\":3172:3183   */\n      0x00\n        /* \"#utility.yul\":3206:3212   */\n      dup3\n        /* \"#utility.yul\":3201:3204   */\n      dup3\n        /* \"#utility.yul\":3194:3213   */\n      mstore\n        /* \"#utility.yul\":3246:3250   */\n      0x20\n        /* \"#utility.yul\":3241:3244   */\n      dup3\n        /* \"#utility.yul\":3237:3251   */\n      add\n        /* \"#utility.yul\":3222:3251   */\n      swap1\n      pop\n        /* \"#utility.yul\":3088:3257   */\n      swap3\n      swap2\n      pop\n      pop\n      jump\t// out\n        /* \"#utility.yul\":3263:3359   */\n    tag_78:\n        /* \"#utility.yul\":3300:3307   */\n      0x00\n        /* \"#utility.yul\":3329:3353   */\n      tag_98\n        /* \"#utility.yul\":3347:3352   */\n      dup3\n        /* \"#utility.yul\":3329:3353   */\n      tag_99\n      jump\t// in\n    tag_98:\n        /* \"#utility.yul\":3318:3353   */\n      swap1\n      pop\n        /* \"#utility.yul\":3263:3359   */\n      swap2\n      swap1\n      pop\n      jump\t// out\n        /* \"#utility.yul\":3365:3469   */\n    tag_100:\n        /* \"#utility.yul\":3410:3417   */\n      0x00\n        /* \"#utility.yul\":3439:3463   */\n      tag_102\n        /* \"#utility.yul\":3457:3462   */\n      dup3\n        /* \"#utility.yul\":3439:3463   */\n      tag_99\n      jump\t// in\n    tag_102:\n        /* \"#utility.yul\":3428:3463   */\n      swap1\n      pop\n        /* \"#utility.yul\":3365:3469   */\n      swap2\n      swap1\n      pop\n      jump\t// out\n        /* \"#utility.yul\":3475:3601   */\n    tag_99:\n        /* \"#utility.yul\":3512:3519   */\n      0x00\n        /* \"#utility.yul\":3552:3594   */\n      0xffffffffffffffffffffffffffffffffffffffff\n        /* \"#utility.yul\":3545:3550   */\n      dup3\n        /* \"#utility.yul\":3541:3595   */\n      and\n        /* \"#utility.yul\":3530:3595   */\n      swap1\n      pop\n        /* \"#utility.yul\":3475:3601   */\n      swap2\n      swap1\n      pop\n      jump\t// out\n        /* \"#utility.yul\":3607:3684   */\n    tag_88:\n        /* \"#utility.yul\":3644:3651   */\n      0x00\n        /* \"#utility.yul\":3673:3678   */\n      dup2\n        /* \"#utility.yul\":3662:3678   */\n      swap1\n      pop\n        /* \"#utility.yul\":3607:3684   */\n      swap2\n      swap1\n      pop\n      jump\t// out\n        /* \"#utility.yul\":3813:3930   */\n    tag_64:\n        /* \"#utility.yul\":3922:3923   */\n      0x00\n        /* \"#utility.yul\":3919:3920   */\n      dup1\n        /* \"#utility.yul\":3912:3924   */\n      revert\n        /* \"#utility.yul\":3936:4102   */\n    tag_84:\n        /* \"#utility.yul\":4076:4094   */\n      0x4e6f7420456e6f756768204d6f6e657900000000000000000000000000000000\n        /* \"#utility.yul\":4072:4073   */\n      0x00\n        /* \"#utility.yul\":4064:4070   */\n      dup3\n        /* \"#utility.yul\":4060:4074   */\n      add\n        /* \"#utility.yul\":4053:4095   */\n      mstore\n        /* \"#utility.yul\":3936:4102   */\n      pop\n      jump\t// out\n        /* \"#utility.yul\":4108:4230   */\n    tag_52:\n        /* \"#utility.yul\":4181:4205   */\n      tag_110\n        /* \"#utility.yul\":4199:4204   */\n      dup2\n        /* \"#utility.yul\":4181:4205   */\n      tag_78\n      jump\t// in\n    tag_110:\n        /* \"#utility.yul\":4174:4179   */\n      dup2\n        /* \"#utility.yul\":4171:4206   */\n      eq\n        /* \"#utility.yul\":4161:4224   */\n      tag_111\n      jumpi\n        /* \"#utility.yul\":4220:4221   */\n      0x00\n        /* \"#utility.yul\":4217:4218   */\n      dup1\n        /* \"#utility.yul\":4210:4222   */\n      revert\n        /* \"#utility.yul\":4161:4224   */\n    tag_111:\n        /* \"#utility.yul\":4108:4230   */\n      pop\n      jump\t// out\n        /* \"#utility.yul\":4236:4374   */\n    tag_56:\n        /* \"#utility.yul\":4317:4349   */\n      tag_113\n        /* \"#utility.yul\":4343:4348   */\n      dup2\n        /* \"#utility.yul\":4317:4349   */\n      tag_100\n      jump\t// in\n    tag_113:\n        /* \"#utility.yul\":4310:4315   */\n      dup2\n        /* \"#utility.yul\":4307:4350   */\n      eq\n        /* \"#utility.yul\":4297:4368   */\n      tag_114\n      jumpi\n        /* \"#utility.yul\":4364:4365   */\n      0x00\n        /* \"#utility.yul\":4361:4362   */\n      dup1\n        /* \"#utility.yul\":4354:4366   */\n      revert\n        /* \"#utility.yul\":4297:4368   */\n    tag_114:\n        /* \"#utility.yul\":4236:4374   */\n      pop\n      jump\t// out\n        /* \"#utility.yul\":4380:4502   */\n    tag_60:\n        /* \"#utility.yul\":4453:4477   */\n      tag_116\n        /* \"#utility.yul\":4471:4476   */\n      dup2\n        /* \"#utility.yul\":4453:4477   */\n      tag_88\n      jump\t// in\n    tag_116:\n        /* \"#utility.yul\":4446:4451   */\n      dup2\n        /* \"#utility.yul\":4443:4478   */\n      eq\n        /* \"#utility.yul\":4433:4496   */\n      tag_117\n      jumpi\n        /* \"#utility.yul\":4492:4493   */\n      0x00\n        /* \"#utility.yul\":4489:4490   */\n      dup1\n        /* \"#utility.yul\":4482:4494   */\n      revert\n        /* \"#utility.yul\":4433:4496   */\n    tag_117:\n        /* \"#utility.yul\":4380:4502   */\n      pop\n      jump\t// out\n\n    auxdata: 0xa26469706673582212204d4873fe3d4c849a5260fe394a5c0f9d10edee30f1f6abac54fcf92d8b67942b64736f6c63430008070033\n}\n",
				"bytecode": {
					"linkReferences": {},
					"object": "608060405234801561001057600080fd5b50336000806101000a81548173ffffffffffffffffffffffffffffffffffffffff021916908373ffffffffffffffffffffffffffffffffffffffff16021790555061079d806100606000396000f3fe60806040526004361061004a5760003560e01c806314174f331461004f578063173825d9146100785780632ccb1b30146100a15780637065cb48146100ca578063a50ec326146100f3575b600080fd5b34801561005b57600080fd5b50610076600480360381019061007191906105de565b6100fd565b005b34801561008457600080fd5b5061009f600480360381019061009a9190610571565b61010a565b005b3480156100ad57600080fd5b506100c860048036038101906100c3919061059e565b6101be565b005b3480156100d657600080fd5b506100f160048036038101906100ec9190610571565b610444565b005b6100fb6104f7565b005b61010733826101be565b50565b60008054906101000a900473ffffffffffffffffffffffffffffffffffffffff1673ffffffffffffffffffffffffffffffffffffffff163373ffffffffffffffffffffffffffffffffffffffff161461016257600080fd5b6000600160008373ffffffffffffffffffffffffffffffffffffffff1673ffffffffffffffffffffffffffffffffffffffff16815260200190815260200160002060006101000a81548160ff021916908360ff16021790555050565b60008054906101000a900473ffffffffffffffffffffffffffffffffffffffff1673ffffffffffffffffffffffffffffffffffffffff163373ffffffffffffffffffffffffffffffffffffffff161480610266575060018060003373ffffffffffffffffffffffffffffffffffffffff1673ffffffffffffffffffffffffffffffffffffffff16815260200190815260200160002060009054906101000a900460ff1660ff16145b61026f57600080fd5b804710156102b2576040517f08c379a00000000000000000000000000000000000000000000000000000000081526004016102a990610675565b60405180910390fd5b60026040518060a001604052803373ffffffffffffffffffffffffffffffffffffffff1681526020018473ffffffffffffffffffffffffffffffffffffffff168152602001838152602001600015158152602001600060ff16815250908060018154018082558091505060019003906000526020600020906004020160009091909190915060008201518160000160006101000a81548173ffffffffffffffffffffffffffffffffffffffff021916908373ffffffffffffffffffffffffffffffffffffffff16021790555060208201518160010160006101000a81548173ffffffffffffffffffffffffffffffffffffffff021916908373ffffffffffffffffffffffffffffffffffffffff1602179055506040820151816002015560608201518160030160006101000a81548160ff02191690831515021790555060808201518160030160016101000a81548160ff021916908360ff1602179055505050600460028054905090806001815401808255809150506001900390600052602060002001600090919091909150555050565b60008054906101000a900473ffffffffffffffffffffffffffffffffffffffff1673ffffffffffffffffffffffffffffffffffffffff163373ffffffffffffffffffffffffffffffffffffffff161461049c57600080fd5b60018060008373ffffffffffffffffffffffffffffffffffffffff1673ffffffffffffffffffffffffffffffffffffffff16815260200190815260200160002060006101000a81548160ff021916908360ff16021790555050565b7fd241e73300212f6df233a8e6d3146b88a9d4964e06621d54b5ff6afeba7b1b88333460405161052892919061064c565b60405180910390a1565b60008135905061054181610722565b92915050565b60008135905061055681610739565b92915050565b60008135905061056b81610750565b92915050565b600060208284031215610587576105866106f4565b5b600061059584828501610532565b91505092915050565b600080604083850312156105b5576105b46106f4565b5b60006105c385828601610547565b92505060206105d48582860161055c565b9150509250929050565b6000602082840312156105f4576105f36106f4565b5b60006106028482850161055c565b91505092915050565b610614816106a6565b82525050565b6000610627601083610695565b9150610632826106f9565b602082019050919050565b610646816106ea565b82525050565b6000604082019050610661600083018561060b565b61066e602083018461063d565b9392505050565b6000602082019050818103600083015261068e8161061a565b9050919050565b600082825260208201905092915050565b60006106b1826106ca565b9050919050565b60006106c3826106ca565b9050919050565b600073ffffffffffffffffffffffffffffffffffffffff82169050919050565b6000819050919050565b600080fd5b7f4e6f7420456e6f756768204d6f6e657900000000000000000000000000000000600082015250565b61072b816106a6565b811461073657600080fd5b50565b610742816106b8565b811461074d57600080fd5b50565b610759816106ea565b811461076457600080fd5b5056fea26469706673582212204d4873fe3d4c849a5260fe394a5c0f9d10edee30f1f6abac54fcf92d8b67942b64736f6c63430008070033",
					"opcodes": "PUSH1 0x80 PUSH1 0x40 MSTORE CALLVALUE DUP1 ISZERO PUSH2 0x10 JUMPI PUSH1 0x0 DUP1 REVERT JUMPDEST POP CALLER PUSH1 0x0 DUP1 PUSH2 0x100 EXP DUP2 SLOAD DUP2 PUSH20 0xFFFFFFFFFFFFFFFFFFFFFFFFFFFFFFFFFFFFFFFF MUL NOT AND SWAP1 DUP4 PUSH20 0xFFFFFFFFFFFFFFFFFFFFFFFFFFFFFFFFFFFFFFFF AND MUL OR SWAP1 SSTORE POP PUSH2 0x79D DUP1 PUSH2 0x60 PUSH1 0x0 CODECOPY PUSH1 0x0 RETURN INVALID PUSH1 0x80 PUSH1 0x40 MSTORE PUSH1 0x4 CALLDATASIZE LT PUSH2 0x4A JUMPI PUSH1 0x0 CALLDATALOAD PUSH1 0xE0 SHR DUP1 PUSH4 0x14174F33 EQ PUSH2 0x4F JUMPI DUP1 PUSH4 0x173825D9 EQ PUSH2 0x78 JUMPI DUP1 PUSH4 0x2CCB1B30 EQ PUSH2 0xA1 JUMPI DUP1 PUSH4 0x7065CB48 EQ PUSH2 0xCA JUMPI DUP1 PUSH4 0xA50EC326 EQ PUSH2 0xF3 JUMPI JUMPDEST PUSH1 0x0 DUP1 REVERT JUMPDEST CALLVALUE DUP1 ISZERO PUSH2 0x5B JUMPI PUSH1 0x0 DUP1 REVERT JUMPDEST POP PUSH2 0x76 PUSH1 0x4 DUP1 CALLDATASIZE SUB DUP2 ADD SWAP1 PUSH2 0x71 SWAP2 SWAP1 PUSH2 0x5DE JUMP JUMPDEST PUSH2 0xFD JUMP JUMPDEST STOP JUMPDEST CALLVALUE DUP1 ISZERO PUSH2 0x84 JUMPI PUSH1 0x0 DUP1 REVERT JUMPDEST POP PUSH2 0x9F PUSH1 0x4 DUP1 CALLDATASIZE SUB DUP2 ADD SWAP1 PUSH2 0x9A SWAP2 SWAP1 PUSH2 0x571 JUMP JUMPDEST PUSH2 0x10A JUMP JUMPDEST STOP JUMPDEST CALLVALUE DUP1 ISZERO PUSH2 0xAD JUMPI PUSH1 0x0 DUP1 REVERT JUMPDEST POP PUSH2 0xC8 PUSH1 0x4 DUP1 CALLDATASIZE SUB DUP2 ADD SWAP1 PUSH2 0xC3 SWAP2 SWAP1 PUSH2 0x59E JUMP JUMPDEST PUSH2 0x1BE JUMP JUMPDEST STOP JUMPDEST CALLVALUE DUP1 ISZERO PUSH2 0xD6 JUMPI PUSH1 0x0 DUP1 REVERT JUMPDEST POP PUSH2 0xF1 PUSH1 0x4 DUP1 CALLDATASIZE SUB DUP2 ADD SWAP1 PUSH2 0xEC SWAP2 SWAP1 PUSH2 0x571 JUMP JUMPDEST PUSH2 0x444 JUMP JUMPDEST STOP JUMPDEST PUSH2 0xFB PUSH2 0x4F7 JUMP JUMPDEST STOP JUMPDEST PUSH2 0x107 CALLER DUP3 PUSH2 0x1BE JUMP JUMPDEST POP JUMP JUMPDEST PUSH1 0x0 DUP1 SLOAD SWAP1 PUSH2 0x100 EXP SWAP1 DIV PUSH20 0xFFFFFFFFFFFFFFFFFFFFFFFFFFFFFFFFFFFFFFFF AND PUSH20 0xFFFFFFFFFFFFFFFFFFFFFFFFFFFFFFFFFFFFFFFF AND CALLER PUSH20 0xFFFFFFFFFFFFFFFFFFFFFFFFFFFFFFFFFFFFFFFF AND EQ PUSH2 0x162 JUMPI PUSH1 0x0 DUP1 REVERT JUMPDEST PUSH1 0x0 PUSH1 0x1 PUSH1 0x0 DUP4 PUSH20 0xFFFFFFFFFFFFFFFFFFFFFFFFFFFFFFFFFFFFFFFF AND PUSH20 0xFFFFFFFFFFFFFFFFFFFFFFFFFFFFFFFFFFFFFFFF AND DUP2 MSTORE PUSH1 0x20 ADD SWAP1 DUP2 MSTORE PUSH1 0x20 ADD PUSH1 0x0 KECCAK256 PUSH1 0x0 PUSH2 0x100 EXP DUP2 SLOAD DUP2 PUSH1 0xFF MUL NOT AND SWAP1 DUP4 PUSH1 0xFF AND MUL OR SWAP1 SSTORE POP POP JUMP JUMPDEST PUSH1 0x0 DUP1 SLOAD SWAP1 PUSH2 0x100 EXP SWAP1 DIV PUSH20 0xFFFFFFFFFFFFFFFFFFFFFFFFFFFFFFFFFFFFFFFF AND PUSH20 0xFFFFFFFFFFFFFFFFFFFFFFFFFFFFFFFFFFFFFFFF AND CALLER PUSH20 0xFFFFFFFFFFFFFFFFFFFFFFFFFFFFFFFFFFFFFFFF AND EQ DUP1 PUSH2 0x266 JUMPI POP PUSH1 0x1 DUP1 PUSH1 0x0 CALLER PUSH20 0xFFFFFFFFFFFFFFFFFFFFFFFFFFFFFFFFFFFFFFFF AND PUSH20 0xFFFFFFFFFFFFFFFFFFFFFFFFFFFFFFFFFFFFFFFF AND DUP2 MSTORE PUSH1 0x20 ADD SWAP1 DUP2 MSTORE PUSH1 0x20 ADD PUSH1 0x0 KECCAK256 PUSH1 0x0 SWAP1 SLOAD SWAP1 PUSH2 0x100 EXP SWAP1 DIV PUSH1 0xFF AND PUSH1 0xFF AND EQ JUMPDEST PUSH2 0x26F JUMPI PUSH1 0x0 DUP1 REVERT JUMPDEST DUP1 SELFBALANCE LT ISZERO PUSH2 0x2B2 JUMPI PUSH1 0x40 MLOAD PUSH32 0x8C379A000000000000000000000000000000000000000000000000000000000 DUP2 MSTORE PUSH1 0x4 ADD PUSH2 0x2A9 SWAP1 PUSH2 0x675 JUMP JUMPDEST PUSH1 0x40 MLOAD DUP1 SWAP2 SUB SWAP1 REVERT JUMPDEST PUSH1 0x2 PUSH1 0x40 MLOAD DUP1 PUSH1 0xA0 ADD PUSH1 0x40 MSTORE DUP1 CALLER PUSH20 0xFFFFFFFFFFFFFFFFFFFFFFFFFFFFFFFFFFFFFFFF AND DUP2 MSTORE PUSH1 0x20 ADD DUP5 PUSH20 0xFFFFFFFFFFFFFFFFFFFFFFFFFFFFFFFFFFFFFFFF AND DUP2 MSTORE PUSH1 0x20 ADD DUP4 DUP2 MSTORE PUSH1 0x20 ADD PUSH1 0x0 ISZERO ISZERO DUP2 MSTORE PUSH1 0x20 ADD PUSH1 0x0 PUSH1 0xFF AND DUP2 MSTORE POP SWAP1 DUP1 PUSH1 0x1 DUP2 SLOAD ADD DUP1 DUP3 SSTORE DUP1 SWAP2 POP POP PUSH1 0x1 SWAP1 SUB SWAP1 PUSH1 0x0 MSTORE PUSH1 0x20 PUSH1 0x0 KECCAK256 SWAP1 PUSH1 0x4 MUL ADD PUSH1 0x0 SWAP1 SWAP2 SWAP1 SWAP2 SWAP1 SWAP2 POP PUSH1 0x0 DUP3 ADD MLOAD DUP2 PUSH1 0x0 ADD PUSH1 0x0 PUSH2 0x100 EXP DUP2 SLOAD DUP2 PUSH20 0xFFFFFFFFFFFFFFFFFFFFFFFFFFFFFFFFFFFFFFFF MUL NOT AND SWAP1 DUP4 PUSH20 0xFFFFFFFFFFFFFFFFFFFFFFFFFFFFFFFFFFFFFFFF AND MUL OR SWAP1 SSTORE POP PUSH1 0x20 DUP3 ADD MLOAD DUP2 PUSH1 0x1 ADD PUSH1 0x0 PUSH2 0x100 EXP DUP2 SLOAD DUP2 PUSH20 0xFFFFFFFFFFFFFFFFFFFFFFFFFFFFFFFFFFFFFFFF MUL NOT AND SWAP1 DUP4 PUSH20 0xFFFFFFFFFFFFFFFFFFFFFFFFFFFFFFFFFFFFFFFF AND MUL OR SWAP1 SSTORE POP PUSH1 0x40 DUP3 ADD MLOAD DUP2 PUSH1 0x2 ADD SSTORE PUSH1 0x60 DUP3 ADD MLOAD DUP2 PUSH1 0x3 ADD PUSH1 0x0 PUSH2 0x100 EXP DUP2 SLOAD DUP2 PUSH1 0xFF MUL NOT AND SWAP1 DUP4 ISZERO ISZERO MUL OR SWAP1 SSTORE POP PUSH1 0x80 DUP3 ADD MLOAD DUP2 PUSH1 0x3 ADD PUSH1 0x1 PUSH2 0x100 EXP DUP2 SLOAD DUP2 PUSH1 0xFF MUL NOT AND SWAP1 DUP4 PUSH1 0xFF AND MUL OR SWAP1 SSTORE POP POP POP PUSH1 0x4 PUSH1 0x2 DUP1 SLOAD SWAP1 POP SWAP1 DUP1 PUSH1 0x1 DUP2 SLOAD ADD DUP1 DUP3 SSTORE DUP1 SWAP2 POP POP PUSH1 0x1 SWAP1 SUB SWAP1 PUSH1 0x0 MSTORE PUSH1 0x20 PUSH1 0x0 KECCAK256 ADD PUSH1 0x0 SWAP1 SWAP2 SWAP1 SWAP2 SWAP1 SWAP2 POP SSTORE POP POP JUMP JUMPDEST PUSH1 0x0 DUP1 SLOAD SWAP1 PUSH2 0x100 EXP SWAP1 DIV PUSH20 0xFFFFFFFFFFFFFFFFFFFFFFFFFFFFFFFFFFFFFFFF AND PUSH20 0xFFFFFFFFFFFFFFFFFFFFFFFFFFFFFFFFFFFFFFFF AND CALLER PUSH20 0xFFFFFFFFFFFFFFFFFFFFFFFFFFFFFFFFFFFFFFFF AND EQ PUSH2 0x49C JUMPI PUSH1 0x0 DUP1 REVERT JUMPDEST PUSH1 0x1 DUP1 PUSH1 0x0 DUP4 PUSH20 0xFFFFFFFFFFFFFFFFFFFFFFFFFFFFFFFFFFFFFFFF AND PUSH20 0xFFFFFFFFFFFFFFFFFFFFFFFFFFFFFFFFFFFFFFFF AND DUP2 MSTORE PUSH1 0x20 ADD SWAP1 DUP2 MSTORE PUSH1 0x20 ADD PUSH1 0x0 KECCAK256 PUSH1 0x0 PUSH2 0x100 EXP DUP2 SLOAD DUP2 PUSH1 0xFF MUL NOT AND SWAP1 DUP4 PUSH1 0xFF AND MUL OR SWAP1 SSTORE POP POP JUMP JUMPDEST PUSH32 0xD241E73300212F6DF233A8E6D3146B88A9D4964E06621D54B5FF6AFEBA7B1B88 CALLER CALLVALUE PUSH1 0x40 MLOAD PUSH2 0x528 SWAP3 SWAP2 SWAP1 PUSH2 0x64C JUMP JUMPDEST PUSH1 0x40 MLOAD DUP1 SWAP2 SUB SWAP1 LOG1 JUMP JUMPDEST PUSH1 0x0 DUP2 CALLDATALOAD SWAP1 POP PUSH2 0x541 DUP2 PUSH2 0x722 JUMP JUMPDEST SWAP3 SWAP2 POP POP JUMP JUMPDEST PUSH1 0x0 DUP2 CALLDATALOAD SWAP1 POP PUSH2 0x556 DUP2 PUSH2 0x739 JUMP JUMPDEST SWAP3 SWAP2 POP POP JUMP JUMPDEST PUSH1 0x0 DUP2 CALLDATALOAD SWAP1 POP PUSH2 0x56B DUP2 PUSH2 0x750 JUMP JUMPDEST SWAP3 SWAP2 POP POP JUMP JUMPDEST PUSH1 0x0 PUSH1 0x20 DUP3 DUP5 SUB SLT ISZERO PUSH2 0x587 JUMPI PUSH2 0x586 PUSH2 0x6F4 JUMP JUMPDEST JUMPDEST PUSH1 0x0 PUSH2 0x595 DUP5 DUP3 DUP6 ADD PUSH2 0x532 JUMP JUMPDEST SWAP2 POP POP SWAP3 SWAP2 POP POP JUMP JUMPDEST PUSH1 0x0 DUP1 PUSH1 0x40 DUP4 DUP6 SUB SLT ISZERO PUSH2 0x5B5 JUMPI PUSH2 0x5B4 PUSH2 0x6F4 JUMP JUMPDEST JUMPDEST PUSH1 0x0 PUSH2 0x5C3 DUP6 DUP3 DUP7 ADD PUSH2 0x547 JUMP JUMPDEST SWAP3 POP POP PUSH1 0x20 PUSH2 0x5D4 DUP6 DUP3 DUP7 ADD PUSH2 0x55C JUMP JUMPDEST SWAP2 POP POP SWAP3 POP SWAP3 SWAP1 POP JUMP JUMPDEST PUSH1 0x0 PUSH1 0x20 DUP3 DUP5 SUB SLT ISZERO PUSH2 0x5F4 JUMPI PUSH2 0x5F3 PUSH2 0x6F4 JUMP JUMPDEST JUMPDEST PUSH1 0x0 PUSH2 0x602 DUP5 DUP3 DUP6 ADD PUSH2 0x55C JUMP JUMPDEST SWAP2 POP POP SWAP3 SWAP2 POP POP JUMP JUMPDEST PUSH2 0x614 DUP2 PUSH2 0x6A6 JUMP JUMPDEST DUP3 MSTORE POP POP JUMP JUMPDEST PUSH1 0x0 PUSH2 0x627 PUSH1 0x10 DUP4 PUSH2 0x695 JUMP JUMPDEST SWAP2 POP PUSH2 0x632 DUP3 PUSH2 0x6F9 JUMP JUMPDEST PUSH1 0x20 DUP3 ADD SWAP1 POP SWAP2 SWAP1 POP JUMP JUMPDEST PUSH2 0x646 DUP2 PUSH2 0x6EA JUMP JUMPDEST DUP3 MSTORE POP POP JUMP JUMPDEST PUSH1 0x0 PUSH1 0x40 DUP3 ADD SWAP1 POP PUSH2 0x661 PUSH1 0x0 DUP4 ADD DUP6 PUSH2 0x60B JUMP JUMPDEST PUSH2 0x66E PUSH1 0x20 DUP4 ADD DUP5 PUSH2 0x63D JUMP JUMPDEST SWAP4 SWAP3 POP POP POP JUMP JUMPDEST PUSH1 0x0 PUSH1 0x20 DUP3 ADD SWAP1 POP DUP2 DUP2 SUB PUSH1 0x0 DUP4 ADD MSTORE PUSH2 0x68E DUP2 PUSH2 0x61A JUMP JUMPDEST SWAP1 POP SWAP2 SWAP1 POP JUMP JUMPDEST PUSH1 0x0 DUP3 DUP3 MSTORE PUSH1 0x20 DUP3 ADD SWAP1 POP SWAP3 SWAP2 POP POP JUMP JUMPDEST PUSH1 0x0 PUSH2 0x6B1 DUP3 PUSH2 0x6CA JUMP JUMPDEST SWAP1 POP SWAP2 SWAP1 POP JUMP JUMPDEST PUSH1 0x0 PUSH2 0x6C3 DUP3 PUSH2 0x6CA JUMP JUMPDEST SWAP1 POP SWAP2 SWAP1 POP JUMP JUMPDEST PUSH1 0x0 PUSH20 0xFFFFFFFFFFFFFFFFFFFFFFFFFFFFFFFFFFFFFFFF DUP3 AND SWAP1 POP SWAP2 SWAP1 POP JUMP JUMPDEST PUSH1 0x0 DUP2 SWAP1 POP SWAP2 SWAP1 POP JUMP JUMPDEST PUSH1 0x0 DUP1 REVERT JUMPDEST PUSH32 0x4E6F7420456E6F756768204D6F6E657900000000000000000000000000000000 PUSH1 0x0 DUP3 ADD MSTORE POP JUMP JUMPDEST PUSH2 0x72B DUP2 PUSH2 0x6A6 JUMP JUMPDEST DUP2 EQ PUSH2 0x736 JUMPI PUSH1 0x0 DUP1 REVERT JUMPDEST POP JUMP JUMPDEST PUSH2 0x742 DUP2 PUSH2 0x6B8 JUMP JUMPDEST DUP2 EQ PUSH2 0x74D JUMPI PUSH1 0x0 DUP1 REVERT JUMPDEST POP JUMP JUMPDEST PUSH2 0x759 DUP2 PUSH2 0x6EA JUMP JUMPDEST DUP2 EQ PUSH2 0x764 JUMPI PUSH1 0x0 DUP1 REVERT JUMPDEST POP JUMP INVALID LOG2 PUSH5 0x6970667358 0x22 SLT KECCAK256 0x4D BASEFEE PUSH20 0xFE3D4C849A5260FE394A5C0F9D10EDEE30F1F6AB 0xAC SLOAD 0xFC 0xF9 0x2D DUP12 PUSH8 0x942B64736F6C6343 STOP ADDMOD SMOD STOP CALLER "
				},
				"gasEstimates": {
					"creation": {
						"codeDepositCost": "389800",
						"executionCost": "24690",
						"totalCost": "414490"
					},
					"external": {
						"addOwner(address)": "27023",
						"deposite()": "1783",
						"removeOwner(address)": "26979",
						"transferTo(address,uint256)": "197405",
						"withDraw(uint256)": "197172"
					}
				},
				"methodIdentifiers": {
					"addOwner(address)": "7065cb48",
					"deposite()": "a50ec326",
					"removeOwner(address)": "173825d9",
					"transferTo(address,uint256)": "2ccb1b30",
					"withDraw(uint256)": "14174f33"
				}
			},
			"storageLayout": {
				"storage": [
					{
						"astId": 3,
						"contract": "contracts/Multi_Sign_Wallet.sol:MultiSignWallet",
						"label": "_owner",
						"offset": 0,
						"slot": "0",
						"type": "t_address"
					},
					{
						"astId": 7,
						"contract": "contracts/Multi_Sign_Wallet.sol:MultiSignWallet",
						"label": "_owners",
						"offset": 0,
						"slot": "1",
						"type": "t_mapping(t_address,t_uint8)"
					},
					{
						"astId": 25,
						"contract": "contracts/Multi_Sign_Wallet.sol:MultiSignWallet",
						"label": "_transactions",
						"offset": 0,
						"slot": "2",
						"type": "t_array(t_struct(Transaction)21_storage)dyn_storage"
					},
					{
						"astId": 29,
						"contract": "contracts/Multi_Sign_Wallet.sol:MultiSignWallet",
						"label": "signed",
						"offset": 0,
						"slot": "3",
						"type": "t_mapping(t_address,t_uint8)"
					},
					{
						"astId": 32,
						"contract": "contracts/Multi_Sign_Wallet.sol:MultiSignWallet",
						"label": "_pendingTransactions",
						"offset": 0,
						"slot": "4",
						"type": "t_array(t_uint256)dyn_storage"
					}
				],
				"types": {
					"t_address": {
						"encoding": "inplace",
						"label": "address",
						"numberOfBytes": "20"
					},
					"t_address_payable": {
						"encoding": "inplace",
						"label": "address payable",
						"numberOfBytes": "20"
					},
					"t_array(t_struct(Transaction)21_storage)dyn_storage": {
						"base": "t_struct(Transaction)21_storage",
						"encoding": "dynamic_array",
						"label": "struct MultiSignWallet.Transaction[]",
						"numberOfBytes": "32"
					},
					"t_array(t_uint256)dyn_storage": {
						"base": "t_uint256",
						"encoding": "dynamic_array",
						"label": "uint256[]",
						"numberOfBytes": "32"
					},
					"t_bool": {
						"encoding": "inplace",
						"label": "bool",
						"numberOfBytes": "1"
					},
					"t_mapping(t_address,t_uint8)": {
						"encoding": "mapping",
						"key": "t_address",
						"label": "mapping(address => uint8)",
						"numberOfBytes": "32",
						"value": "t_uint8"
					},
					"t_struct(Transaction)21_storage": {
						"encoding": "inplace",
						"label": "struct MultiSignWallet.Transaction",
						"members": [
							{
								"astId": 12,
								"contract": "contracts/Multi_Sign_Wallet.sol:MultiSignWallet",
								"label": "sender",
								"offset": 0,
								"slot": "0",
								"type": "t_address_payable"
							},
							{
								"astId": 14,
								"contract": "contracts/Multi_Sign_Wallet.sol:MultiSignWallet",
								"label": "reciever",
								"offset": 0,
								"slot": "1",
								"type": "t_address_payable"
							},
							{
								"astId": 16,
								"contract": "contracts/Multi_Sign_Wallet.sol:MultiSignWallet",
								"label": "amount",
								"offset": 0,
								"slot": "2",
								"type": "t_uint256"
							},
							{
								"astId": 18,
								"contract": "contracts/Multi_Sign_Wallet.sol:MultiSignWallet",
								"label": "isSigned",
								"offset": 0,
								"slot": "3",
								"type": "t_bool"
							},
							{
								"astId": 20,
								"contract": "contracts/Multi_Sign_Wallet.sol:MultiSignWallet",
								"label": "signatureCount",
								"offset": 1,
								"slot": "3",
								"type": "t_uint8"
							}
						],
						"numberOfBytes": "128"
					},
					"t_uint256": {
						"encoding": "inplace",
						"label": "uint256",
						"numberOfBytes": "32"
					},
					"t_uint8": {
						"encoding": "inplace",
						"label": "uint8",
						"numberOfBytes": "1"
					}
				}
			},
			"userdoc": {
				"kind": "user",
				"methods": {},
				"version": 1
			}
		}
	}
}