{
	"contracts/Auction.sol": {
		"Auction": {
			"abi": [
				{
					"inputs": [
						{
							"internalType": "uint256",
							"name": "_postId",
							"type": "uint256"
						}
					],
					"name": "createBid",
					"outputs": [],
					"stateMutability": "payable",
					"type": "function"
				},
				{
					"inputs": [
						{
							"internalType": "string",
							"name": "_name",
							"type": "string"
						},
						{
							"internalType": "uint256",
							"name": "_minBid",
							"type": "uint256"
						}
					],
					"name": "createPost",
					"outputs": [],
					"stateMutability": "nonpayable",
					"type": "function"
				},
				{
					"inputs": [
						{
							"internalType": "address",
							"name": "_address",
							"type": "address"
						}
					],
					"name": "getBalance",
					"outputs": [
						{
							"internalType": "uint256",
							"name": "",
							"type": "uint256"
						}
					],
					"stateMutability": "view",
					"type": "function"
				}
			],
			"devdoc": {
				"kind": "dev",
				"methods": {},
				"version": 1
			},
			"evm": {
				"assembly": "    /* \"contracts/Auction.sol\":27:1740  contract Auction{\r... */\n  mstore(0x40, 0x80)\n  callvalue\n  dup1\n  iszero\n  tag_1\n  jumpi\n  0x00\n  dup1\n  revert\ntag_1:\n  pop\n  dataSize(sub_0)\n  dup1\n  dataOffset(sub_0)\n  0x00\n  codecopy\n  0x00\n  return\nstop\n\nsub_0: assembly {\n        /* \"contracts/Auction.sol\":27:1740  contract Auction{\r... */\n      mstore(0x40, 0x80)\n      jumpi(tag_1, lt(calldatasize, 0x04))\n      shr(0xe0, calldataload(0x00))\n      dup1\n      0x1252cb48\n      eq\n      tag_2\n      jumpi\n      dup1\n      0x659dd2b4\n      eq\n      tag_3\n      jumpi\n      dup1\n      0xf8b2cb4f\n      eq\n      tag_4\n      jumpi\n    tag_1:\n      0x00\n      dup1\n      revert\n        /* \"contracts/Auction.sol\":629:805  function createPost (string memory _name,uint _minBid) public {\r... */\n    tag_2:\n      callvalue\n      dup1\n      iszero\n      tag_5\n      jumpi\n      0x00\n      dup1\n      revert\n    tag_5:\n      pop\n      tag_6\n      0x04\n      dup1\n      calldatasize\n      sub\n      dup2\n      add\n      swap1\n      tag_7\n      swap2\n      swap1\n      tag_8\n      jump\t// in\n    tag_7:\n      tag_9\n      jump\t// in\n    tag_6:\n      stop\n        /* \"contracts/Auction.sol\":846:1601  function createBid (uint _postId) public payable {\r... */\n    tag_3:\n      tag_10\n      0x04\n      dup1\n      calldatasize\n      sub\n      dup2\n      add\n      swap1\n      tag_11\n      swap2\n      swap1\n      tag_12\n      jump\t// in\n    tag_11:\n      tag_13\n      jump\t// in\n    tag_10:\n      stop\n        /* \"contracts/Auction.sol\":1609:1737  function getBalance(address _address) public view returns (uint){\r... */\n    tag_4:\n      callvalue\n      dup1\n      iszero\n      tag_14\n      jumpi\n      0x00\n      dup1\n      revert\n    tag_14:\n      pop\n      tag_15\n      0x04\n      dup1\n      calldatasize\n      sub\n      dup2\n      add\n      swap1\n      tag_16\n      swap2\n      swap1\n      tag_17\n      jump\t// in\n    tag_16:\n      tag_18\n      jump\t// in\n    tag_15:\n      mload(0x40)\n      tag_19\n      swap2\n      swap1\n      tag_20\n      jump\t// in\n    tag_19:\n      mload(0x40)\n      dup1\n      swap2\n      sub\n      swap1\n      return\n        /* \"contracts/Auction.sol\":629:805  function createPost (string memory _name,uint _minBid) public {\r... */\n    tag_9:\n        /* \"contracts/Auction.sol\":702:707  posts */\n      0x00\n        /* \"contracts/Auction.sol\":713:796  Post({seller: payable(msg.sender),minBid: _minBid,name:_name,time:block.timestamp}) */\n      mload(0x40)\n      dup1\n      0x80\n      add\n      0x40\n      mstore\n      dup1\n        /* \"contracts/Auction.sol\":735:745  msg.sender */\n      caller\n        /* \"contracts/Auction.sol\":713:796  Post({seller: payable(msg.sender),minBid: _minBid,name:_name,time:block.timestamp}) */\n      0xffffffffffffffffffffffffffffffffffffffff\n      and\n      dup2\n      mstore\n      0x20\n      add\n        /* \"contracts/Auction.sol\":755:762  _minBid */\n      dup4\n        /* \"contracts/Auction.sol\":713:796  Post({seller: payable(msg.sender),minBid: _minBid,name:_name,time:block.timestamp}) */\n      dup2\n      mstore\n      0x20\n      add\n        /* \"contracts/Auction.sol\":768:773  _name */\n      dup5\n        /* \"contracts/Auction.sol\":713:796  Post({seller: payable(msg.sender),minBid: _minBid,name:_name,time:block.timestamp}) */\n      dup2\n      mstore\n      0x20\n      add\n        /* \"contracts/Auction.sol\":779:794  block.timestamp */\n      timestamp\n        /* \"contracts/Auction.sol\":713:796  Post({seller: payable(msg.sender),minBid: _minBid,name:_name,time:block.timestamp}) */\n      dup2\n      mstore\n      pop\n        /* \"contracts/Auction.sol\":702:797  posts.push(Post({seller: payable(msg.sender),minBid: _minBid,name:_name,time:block.timestamp})) */\n      swap1\n      dup1\n      0x01\n      dup2\n      sload\n      add\n      dup1\n      dup3\n      sstore\n      dup1\n      swap2\n      pop\n      pop\n      0x01\n      swap1\n      sub\n      swap1\n      0x00\n      mstore\n      keccak256(0x00, 0x20)\n      swap1\n      0x04\n      mul\n      add\n      0x00\n      swap1\n      swap2\n      swap1\n      swap2\n      swap1\n      swap2\n      pop\n      0x00\n      dup3\n      add\n      mload\n      dup2\n      0x00\n      add\n      exp(0x0100, 0x00)\n      dup2\n      sload\n      dup2\n      0xffffffffffffffffffffffffffffffffffffffff\n      mul\n      not\n      and\n      swap1\n      dup4\n      0xffffffffffffffffffffffffffffffffffffffff\n      and\n      mul\n      or\n      swap1\n      sstore\n      pop\n      0x20\n      dup3\n      add\n      mload\n      dup2\n      0x01\n      add\n      sstore\n      0x40\n      dup3\n      add\n      mload\n      dup2\n      0x02\n      add\n      swap1\n      dup1\n      mload\n      swap1\n      0x20\n      add\n      swap1\n      tag_23\n      swap3\n      swap2\n      swap1\n      tag_24\n      jump\t// in\n    tag_23:\n      pop\n      0x60\n      dup3\n      add\n      mload\n      dup2\n      0x03\n      add\n      sstore\n      pop\n      pop\n        /* \"contracts/Auction.sol\":629:805  function createPost (string memory _name,uint _minBid) public {\r... */\n      pop\n      pop\n      jump\t// out\n        /* \"contracts/Auction.sol\":846:1601  function createBid (uint _postId) public payable {\r... */\n    tag_13:\n        /* \"contracts/Auction.sol\":906:922  Post memory post */\n      0x00\n        /* \"contracts/Auction.sol\":925:930  posts */\n      dup1\n        /* \"contracts/Auction.sol\":931:938  _postId */\n      dup3\n        /* \"contracts/Auction.sol\":925:939  posts[_postId] */\n      dup2\n      sload\n      dup2\n      lt\n      tag_26\n      jumpi\n      tag_27\n      tag_28\n      jump\t// in\n    tag_27:\n    tag_26:\n      swap1\n      0x00\n      mstore\n      keccak256(0x00, 0x20)\n      swap1\n      0x04\n      mul\n      add\n        /* \"contracts/Auction.sol\":906:939  Post memory post = posts[_postId] */\n      mload(0x40)\n      dup1\n      0x80\n      add\n      0x40\n      mstore\n      swap1\n      dup2\n      0x00\n      dup3\n      add\n      0x00\n      swap1\n      sload\n      swap1\n      0x0100\n      exp\n      swap1\n      div\n      0xffffffffffffffffffffffffffffffffffffffff\n      and\n      0xffffffffffffffffffffffffffffffffffffffff\n      and\n      0xffffffffffffffffffffffffffffffffffffffff\n      and\n      dup2\n      mstore\n      0x20\n      add\n      0x01\n      dup3\n      add\n      sload\n      dup2\n      mstore\n      0x20\n      add\n      0x02\n      dup3\n      add\n      dup1\n      sload\n      tag_30\n      swap1\n      tag_31\n      jump\t// in\n    tag_30:\n      dup1\n      0x1f\n      add\n      0x20\n      dup1\n      swap2\n      div\n      mul\n      0x20\n      add\n      mload(0x40)\n      swap1\n      dup2\n      add\n      0x40\n      mstore\n      dup1\n      swap3\n      swap2\n      swap1\n      dup2\n      dup2\n      mstore\n      0x20\n      add\n      dup3\n      dup1\n      sload\n      tag_32\n      swap1\n      tag_31\n      jump\t// in\n    tag_32:\n      dup1\n      iszero\n      tag_33\n      jumpi\n      dup1\n      0x1f\n      lt\n      tag_34\n      jumpi\n      0x0100\n      dup1\n      dup4\n      sload\n      div\n      mul\n      dup4\n      mstore\n      swap2\n      0x20\n      add\n      swap2\n      jump(tag_33)\n    tag_34:\n      dup3\n      add\n      swap2\n      swap1\n      0x00\n      mstore\n      keccak256(0x00, 0x20)\n      swap1\n    tag_35:\n      dup2\n      sload\n      dup2\n      mstore\n      swap1\n      0x01\n      add\n      swap1\n      0x20\n      add\n      dup1\n      dup4\n      gt\n      tag_35\n      jumpi\n      dup3\n      swap1\n      sub\n      0x1f\n      and\n      dup3\n      add\n      swap2\n    tag_33:\n      pop\n      pop\n      pop\n      pop\n      pop\n      dup2\n      mstore\n      0x20\n      add\n      0x03\n      dup3\n      add\n      sload\n      dup2\n      mstore\n      pop\n      pop\n      swap1\n      pop\n        /* \"contracts/Auction.sol\":1026:1030  post */\n      dup1\n        /* \"contracts/Auction.sol\":1026:1037  post.seller */\n      0x00\n      add\n      mload\n        /* \"contracts/Auction.sol\":1013:1037  msg.sender!= post.seller */\n      0xffffffffffffffffffffffffffffffffffffffff\n      and\n        /* \"contracts/Auction.sol\":1013:1023  msg.sender */\n      caller\n        /* \"contracts/Auction.sol\":1013:1037  msg.sender!= post.seller */\n      0xffffffffffffffffffffffffffffffffffffffff\n      and\n      eq\n      iszero\n        /* \"contracts/Auction.sol\":1004:1071  require (msg.sender!= post.seller,\"You can't bid on your own post\") */\n      tag_36\n      jumpi\n      mload(0x40)\n      0x08c379a000000000000000000000000000000000000000000000000000000000\n      dup2\n      mstore\n      0x04\n      add\n      tag_37\n      swap1\n      tag_38\n      jump\t// in\n    tag_37:\n      mload(0x40)\n      dup1\n      swap2\n      sub\n      swap1\n      revert\n    tag_36:\n        /* \"contracts/Auction.sol\":1146:1147  0 */\n      0x00\n        /* \"contracts/Auction.sol\":1133:1142  msg.value */\n      callvalue\n        /* \"contracts/Auction.sol\":1133:1147  msg.value != 0 */\n      eq\n      iszero\n        /* \"contracts/Auction.sol\":1124:1173  require (msg.value != 0, \"Invalid amount of Bid\") */\n      tag_39\n      jumpi\n      mload(0x40)\n      0x08c379a000000000000000000000000000000000000000000000000000000000\n      dup2\n      mstore\n      0x04\n      add\n      tag_40\n      swap1\n      tag_41\n      jump\t// in\n    tag_40:\n      mload(0x40)\n      dup1\n      swap2\n      sub\n      swap1\n      revert\n    tag_39:\n        /* \"contracts/Auction.sol\":1205:1208  400 */\n      0x0190\n        /* \"contracts/Auction.sol\":1193:1197  post */\n      dup2\n        /* \"contracts/Auction.sol\":1193:1202  post.time */\n      0x60\n      add\n      mload\n        /* \"contracts/Auction.sol\":1193:1208  post.time < 400 */\n      lt\n        /* \"contracts/Auction.sol\":1184:1237  require (post.time < 400, \"This auction is finished\") */\n      tag_42\n      jumpi\n      mload(0x40)\n      0x08c379a000000000000000000000000000000000000000000000000000000000\n      dup2\n      mstore\n      0x04\n      add\n      tag_43\n      swap1\n      tag_44\n      jump\t// in\n    tag_43:\n      mload(0x40)\n      dup1\n      swap2\n      sub\n      swap1\n      revert\n    tag_42:\n        /* \"contracts/Auction.sol\":1284:1303  1000000000000000000 */\n      0x0de0b6b3a7640000\n        /* \"contracts/Auction.sol\":1270:1274  post */\n      dup2\n        /* \"contracts/Auction.sol\":1270:1281  post.minBid */\n      0x20\n      add\n      mload\n        /* \"contracts/Auction.sol\":1270:1303  post.minBid * 1000000000000000000 */\n      tag_45\n      swap2\n      swap1\n      tag_46\n      jump\t// in\n    tag_45:\n        /* \"contracts/Auction.sol\":1257:1266  msg.value */\n      callvalue\n        /* \"contracts/Auction.sol\":1257:1303  msg.value >= post.minBid * 1000000000000000000 */\n      lt\n      iszero\n        /* \"contracts/Auction.sol\":1248:1353  require (msg.value >= post.minBid * 1000000000000000000 , \"This bid needs to be more than min bid value\") */\n      tag_47\n      jumpi\n      mload(0x40)\n      0x08c379a000000000000000000000000000000000000000000000000000000000\n      dup2\n      mstore\n      0x04\n      add\n      tag_48\n      swap1\n      tag_49\n      jump\t// in\n    tag_48:\n      mload(0x40)\n      dup1\n      swap2\n      sub\n      swap1\n      revert\n    tag_47:\n        /* \"contracts/Auction.sol\":1366:1370  bids */\n      0x01\n        /* \"contracts/Auction.sol\":1366:1379  bids[_postId] */\n      0x00\n        /* \"contracts/Auction.sol\":1371:1378  _postId */\n      dup4\n        /* \"contracts/Auction.sol\":1366:1379  bids[_postId] */\n      dup2\n      mstore\n      0x20\n      add\n      swap1\n      dup2\n      mstore\n      0x20\n      add\n      0x00\n      keccak256\n        /* \"contracts/Auction.sol\":1385:1543  Bid({\r... */\n      mload(0x40)\n      dup1\n      0x80\n      add\n      0x40\n      mstore\n      dup1\n        /* \"contracts/Auction.sol\":1452:1462  msg.sender */\n      caller\n        /* \"contracts/Auction.sol\":1385:1543  Bid({\r... */\n      0xffffffffffffffffffffffffffffffffffffffff\n      and\n      dup2\n      mstore\n      0x20\n      add\n        /* \"contracts/Auction.sol\":1412:1421  msg.value */\n      callvalue\n        /* \"contracts/Auction.sol\":1385:1543  Bid({\r... */\n      dup2\n      mstore\n      0x20\n      add\n        /* \"contracts/Auction.sol\":1485:1500  block.timestamp */\n      timestamp\n        /* \"contracts/Auction.sol\":1385:1543  Bid({\r... */\n      dup2\n      mstore\n      0x20\n      add\n        /* \"contracts/Auction.sol\":1526:1531  false */\n      0x00\n        /* \"contracts/Auction.sol\":1385:1543  Bid({\r... */\n      iszero\n      iszero\n      dup2\n      mstore\n      pop\n        /* \"contracts/Auction.sol\":1366:1544  bids[_postId].push(Bid({\r... */\n      swap1\n      dup1\n      0x01\n      dup2\n      sload\n      add\n      dup1\n      dup3\n      sstore\n      dup1\n      swap2\n      pop\n      pop\n      0x01\n      swap1\n      sub\n      swap1\n      0x00\n      mstore\n      keccak256(0x00, 0x20)\n      swap1\n      0x04\n      mul\n      add\n      0x00\n      swap1\n      swap2\n      swap1\n      swap2\n      swap1\n      swap2\n      pop\n      0x00\n      dup3\n      add\n      mload\n      dup2\n      0x00\n      add\n      exp(0x0100, 0x00)\n      dup2\n      sload\n      dup2\n      0xffffffffffffffffffffffffffffffffffffffff\n      mul\n      not\n      and\n      swap1\n      dup4\n      0xffffffffffffffffffffffffffffffffffffffff\n      and\n      mul\n      or\n      swap1\n      sstore\n      pop\n      0x20\n      dup3\n      add\n      mload\n      dup2\n      0x01\n      add\n      sstore\n      0x40\n      dup3\n      add\n      mload\n      dup2\n      0x02\n      add\n      sstore\n      0x60\n      dup3\n      add\n      mload\n      dup2\n      0x03\n      add\n      exp(0x0100, 0x00)\n      dup2\n      sload\n      dup2\n      0xff\n      mul\n      not\n      and\n      swap1\n      dup4\n      iszero\n      iszero\n      mul\n      or\n      swap1\n      sstore\n      pop\n      pop\n      pop\n        /* \"contracts/Auction.sol\":1584:1593  msg.value */\n      callvalue\n        /* \"contracts/Auction.sol\":1557:1565  balances */\n      0x02\n        /* \"contracts/Auction.sol\":1557:1580  balances[address(this)] */\n      0x00\n        /* \"contracts/Auction.sol\":1574:1578  this */\n      address\n        /* \"contracts/Auction.sol\":1557:1580  balances[address(this)] */\n      0xffffffffffffffffffffffffffffffffffffffff\n      and\n      0xffffffffffffffffffffffffffffffffffffffff\n      and\n      dup2\n      mstore\n      0x20\n      add\n      swap1\n      dup2\n      mstore\n      0x20\n      add\n      0x00\n      keccak256\n      0x00\n        /* \"contracts/Auction.sol\":1557:1593  balances[address(this)] += msg.value */\n      dup3\n      dup3\n      sload\n      tag_51\n      swap2\n      swap1\n      tag_52\n      jump\t// in\n    tag_51:\n      swap3\n      pop\n      pop\n      dup2\n      swap1\n      sstore\n      pop\n        /* \"contracts/Auction.sol\":895:1601  {\r... */\n      pop\n        /* \"contracts/Auction.sol\":846:1601  function createBid (uint _postId) public payable {\r... */\n      pop\n      jump\t// out\n        /* \"contracts/Auction.sol\":1609:1737  function getBalance(address _address) public view returns (uint){\r... */\n    tag_18:\n        /* \"contracts/Auction.sol\":1668:1672  uint */\n      0x00\n        /* \"contracts/Auction.sol\":1710:1729  1000000000000000000 */\n      0x0de0b6b3a7640000\n        /* \"contracts/Auction.sol\":1691:1699  balances */\n      0x02\n        /* \"contracts/Auction.sol\":1691:1709  balances[_address] */\n      0x00\n        /* \"contracts/Auction.sol\":1700:1708  _address */\n      dup5\n        /* \"contracts/Auction.sol\":1691:1709  balances[_address] */\n      0xffffffffffffffffffffffffffffffffffffffff\n      and\n      0xffffffffffffffffffffffffffffffffffffffff\n      and\n      dup2\n      mstore\n      0x20\n      add\n      swap1\n      dup2\n      mstore\n      0x20\n      add\n      0x00\n      keccak256\n      sload\n        /* \"contracts/Auction.sol\":1691:1729  balances[_address]/1000000000000000000 */\n      tag_54\n      swap2\n      swap1\n      tag_55\n      jump\t// in\n    tag_54:\n        /* \"contracts/Auction.sol\":1684:1729  return balances[_address]/1000000000000000000 */\n      swap1\n      pop\n        /* \"contracts/Auction.sol\":1609:1737  function getBalance(address _address) public view returns (uint){\r... */\n      swap2\n      swap1\n      pop\n      jump\t// out\n    tag_24:\n      dup3\n      dup1\n      sload\n      tag_56\n      swap1\n      tag_31\n      jump\t// in\n    tag_56:\n      swap1\n      0x00\n      mstore\n      keccak256(0x00, 0x20)\n      swap1\n      0x1f\n      add\n      0x20\n      swap1\n      div\n      dup2\n      add\n      swap3\n      dup3\n      tag_58\n      jumpi\n      0x00\n      dup6\n      sstore\n      jump(tag_57)\n    tag_58:\n      dup3\n      0x1f\n      lt\n      tag_59\n      jumpi\n      dup1\n      mload\n      not(0xff)\n      and\n      dup4\n      dup1\n      add\n      or\n      dup6\n      sstore\n      jump(tag_57)\n    tag_59:\n      dup3\n      dup1\n      add\n      0x01\n      add\n      dup6\n      sstore\n      dup3\n      iszero\n      tag_57\n      jumpi\n      swap2\n      dup3\n      add\n    tag_60:\n      dup3\n      dup2\n      gt\n      iszero\n      tag_61\n      jumpi\n      dup3\n      mload\n      dup3\n      sstore\n      swap2\n      0x20\n      add\n      swap2\n      swap1\n      0x01\n      add\n      swap1\n      jump(tag_60)\n    tag_61:\n    tag_57:\n      pop\n      swap1\n      pop\n      tag_62\n      swap2\n      swap1\n      tag_63\n      jump\t// in\n    tag_62:\n      pop\n      swap1\n      jump\t// out\n    tag_63:\n    tag_64:\n      dup1\n      dup3\n      gt\n      iszero\n      tag_65\n      jumpi\n      0x00\n      dup2\n      0x00\n      swap1\n      sstore\n      pop\n      0x01\n      add\n      jump(tag_64)\n    tag_65:\n      pop\n      swap1\n      jump\t// out\n        /* \"#utility.yul\":7:419   */\n    tag_67:\n        /* \"#utility.yul\":85:90   */\n      0x00\n        /* \"#utility.yul\":110:176   */\n      tag_69\n        /* \"#utility.yul\":126:175   */\n      tag_70\n        /* \"#utility.yul\":168:174   */\n      dup5\n        /* \"#utility.yul\":126:175   */\n      tag_71\n      jump\t// in\n    tag_70:\n        /* \"#utility.yul\":110:176   */\n      tag_72\n      jump\t// in\n    tag_69:\n        /* \"#utility.yul\":101:176   */\n      swap1\n      pop\n        /* \"#utility.yul\":199:205   */\n      dup3\n        /* \"#utility.yul\":192:197   */\n      dup2\n        /* \"#utility.yul\":185:206   */\n      mstore\n        /* \"#utility.yul\":237:241   */\n      0x20\n        /* \"#utility.yul\":230:235   */\n      dup2\n        /* \"#utility.yul\":226:242   */\n      add\n        /* \"#utility.yul\":275:278   */\n      dup5\n        /* \"#utility.yul\":266:272   */\n      dup5\n        /* \"#utility.yul\":261:264   */\n      dup5\n        /* \"#utility.yul\":257:273   */\n      add\n        /* \"#utility.yul\":254:279   */\n      gt\n        /* \"#utility.yul\":251:363   */\n      iszero\n      tag_73\n      jumpi\n        /* \"#utility.yul\":282:361   */\n      tag_74\n      tag_75\n      jump\t// in\n    tag_74:\n        /* \"#utility.yul\":251:363   */\n    tag_73:\n        /* \"#utility.yul\":372:413   */\n      tag_76\n        /* \"#utility.yul\":406:412   */\n      dup5\n        /* \"#utility.yul\":401:404   */\n      dup3\n        /* \"#utility.yul\":396:399   */\n      dup6\n        /* \"#utility.yul\":372:413   */\n      tag_77\n      jump\t// in\n    tag_76:\n        /* \"#utility.yul\":91:419   */\n      pop\n        /* \"#utility.yul\":7:419   */\n      swap4\n      swap3\n      pop\n      pop\n      pop\n      jump\t// out\n        /* \"#utility.yul\":425:564   */\n    tag_78:\n        /* \"#utility.yul\":471:476   */\n      0x00\n        /* \"#utility.yul\":509:515   */\n      dup2\n        /* \"#utility.yul\":496:516   */\n      calldataload\n        /* \"#utility.yul\":487:516   */\n      swap1\n      pop\n        /* \"#utility.yul\":525:558   */\n      tag_80\n        /* \"#utility.yul\":552:557   */\n      dup2\n        /* \"#utility.yul\":525:558   */\n      tag_81\n      jump\t// in\n    tag_80:\n        /* \"#utility.yul\":425:564   */\n      swap3\n      swap2\n      pop\n      pop\n      jump\t// out\n        /* \"#utility.yul\":584:924   */\n    tag_82:\n        /* \"#utility.yul\":640:645   */\n      0x00\n        /* \"#utility.yul\":689:692   */\n      dup3\n        /* \"#utility.yul\":682:686   */\n      0x1f\n        /* \"#utility.yul\":674:680   */\n      dup4\n        /* \"#utility.yul\":670:687   */\n      add\n        /* \"#utility.yul\":666:693   */\n      slt\n        /* \"#utility.yul\":656:778   */\n      tag_84\n      jumpi\n        /* \"#utility.yul\":697:776   */\n      tag_85\n      tag_86\n      jump\t// in\n    tag_85:\n        /* \"#utility.yul\":656:778   */\n    tag_84:\n        /* \"#utility.yul\":814:820   */\n      dup2\n        /* \"#utility.yul\":801:821   */\n      calldataload\n        /* \"#utility.yul\":839:918   */\n      tag_87\n        /* \"#utility.yul\":914:917   */\n      dup5\n        /* \"#utility.yul\":906:912   */\n      dup3\n        /* \"#utility.yul\":899:903   */\n      0x20\n        /* \"#utility.yul\":891:897   */\n      dup7\n        /* \"#utility.yul\":887:904   */\n      add\n        /* \"#utility.yul\":839:918   */\n      tag_67\n      jump\t// in\n    tag_87:\n        /* \"#utility.yul\":830:918   */\n      swap2\n      pop\n        /* \"#utility.yul\":646:924   */\n      pop\n        /* \"#utility.yul\":584:924   */\n      swap3\n      swap2\n      pop\n      pop\n      jump\t// out\n        /* \"#utility.yul\":930:1069   */\n    tag_88:\n        /* \"#utility.yul\":976:981   */\n      0x00\n        /* \"#utility.yul\":1014:1020   */\n      dup2\n        /* \"#utility.yul\":1001:1021   */\n      calldataload\n        /* \"#utility.yul\":992:1021   */\n      swap1\n      pop\n        /* \"#utility.yul\":1030:1063   */\n      tag_90\n        /* \"#utility.yul\":1057:1062   */\n      dup2\n        /* \"#utility.yul\":1030:1063   */\n      tag_91\n      jump\t// in\n    tag_90:\n        /* \"#utility.yul\":930:1069   */\n      swap3\n      swap2\n      pop\n      pop\n      jump\t// out\n        /* \"#utility.yul\":1075:1404   */\n    tag_17:\n        /* \"#utility.yul\":1134:1140   */\n      0x00\n        /* \"#utility.yul\":1183:1185   */\n      0x20\n        /* \"#utility.yul\":1171:1180   */\n      dup3\n        /* \"#utility.yul\":1162:1169   */\n      dup5\n        /* \"#utility.yul\":1158:1181   */\n      sub\n        /* \"#utility.yul\":1154:1186   */\n      slt\n        /* \"#utility.yul\":1151:1270   */\n      iszero\n      tag_93\n      jumpi\n        /* \"#utility.yul\":1189:1268   */\n      tag_94\n      tag_95\n      jump\t// in\n    tag_94:\n        /* \"#utility.yul\":1151:1270   */\n    tag_93:\n        /* \"#utility.yul\":1309:1310   */\n      0x00\n        /* \"#utility.yul\":1334:1387   */\n      tag_96\n        /* \"#utility.yul\":1379:1386   */\n      dup5\n        /* \"#utility.yul\":1370:1376   */\n      dup3\n        /* \"#utility.yul\":1359:1368   */\n      dup6\n        /* \"#utility.yul\":1355:1377   */\n      add\n        /* \"#utility.yul\":1334:1387   */\n      tag_78\n      jump\t// in\n    tag_96:\n        /* \"#utility.yul\":1324:1387   */\n      swap2\n      pop\n        /* \"#utility.yul\":1280:1397   */\n      pop\n        /* \"#utility.yul\":1075:1404   */\n      swap3\n      swap2\n      pop\n      pop\n      jump\t// out\n        /* \"#utility.yul\":1410:2064   */\n    tag_8:\n        /* \"#utility.yul\":1488:1494   */\n      0x00\n        /* \"#utility.yul\":1496:1502   */\n      dup1\n        /* \"#utility.yul\":1545:1547   */\n      0x40\n        /* \"#utility.yul\":1533:1542   */\n      dup4\n        /* \"#utility.yul\":1524:1531   */\n      dup6\n        /* \"#utility.yul\":1520:1543   */\n      sub\n        /* \"#utility.yul\":1516:1548   */\n      slt\n        /* \"#utility.yul\":1513:1632   */\n      iszero\n      tag_98\n      jumpi\n        /* \"#utility.yul\":1551:1630   */\n      tag_99\n      tag_95\n      jump\t// in\n    tag_99:\n        /* \"#utility.yul\":1513:1632   */\n    tag_98:\n        /* \"#utility.yul\":1699:1700   */\n      0x00\n        /* \"#utility.yul\":1688:1697   */\n      dup4\n        /* \"#utility.yul\":1684:1701   */\n      add\n        /* \"#utility.yul\":1671:1702   */\n      calldataload\n        /* \"#utility.yul\":1729:1747   */\n      0xffffffffffffffff\n        /* \"#utility.yul\":1721:1727   */\n      dup2\n        /* \"#utility.yul\":1718:1748   */\n      gt\n        /* \"#utility.yul\":1715:1832   */\n      iszero\n      tag_100\n      jumpi\n        /* \"#utility.yul\":1751:1830   */\n      tag_101\n      tag_102\n      jump\t// in\n    tag_101:\n        /* \"#utility.yul\":1715:1832   */\n    tag_100:\n        /* \"#utility.yul\":1856:1919   */\n      tag_103\n        /* \"#utility.yul\":1911:1918   */\n      dup6\n        /* \"#utility.yul\":1902:1908   */\n      dup3\n        /* \"#utility.yul\":1891:1900   */\n      dup7\n        /* \"#utility.yul\":1887:1909   */\n      add\n        /* \"#utility.yul\":1856:1919   */\n      tag_82\n      jump\t// in\n    tag_103:\n        /* \"#utility.yul\":1846:1919   */\n      swap3\n      pop\n        /* \"#utility.yul\":1642:1929   */\n      pop\n        /* \"#utility.yul\":1968:1970   */\n      0x20\n        /* \"#utility.yul\":1994:2047   */\n      tag_104\n        /* \"#utility.yul\":2039:2046   */\n      dup6\n        /* \"#utility.yul\":2030:2036   */\n      dup3\n        /* \"#utility.yul\":2019:2028   */\n      dup7\n        /* \"#utility.yul\":2015:2037   */\n      add\n        /* \"#utility.yul\":1994:2047   */\n      tag_88\n      jump\t// in\n    tag_104:\n        /* \"#utility.yul\":1984:2047   */\n      swap2\n      pop\n        /* \"#utility.yul\":1939:2057   */\n      pop\n        /* \"#utility.yul\":1410:2064   */\n      swap3\n      pop\n      swap3\n      swap1\n      pop\n      jump\t// out\n        /* \"#utility.yul\":2070:2399   */\n    tag_12:\n        /* \"#utility.yul\":2129:2135   */\n      0x00\n        /* \"#utility.yul\":2178:2180   */\n      0x20\n        /* \"#utility.yul\":2166:2175   */\n      dup3\n        /* \"#utility.yul\":2157:2164   */\n      dup5\n        /* \"#utility.yul\":2153:2176   */\n      sub\n        /* \"#utility.yul\":2149:2181   */\n      slt\n        /* \"#utility.yul\":2146:2265   */\n      iszero\n      tag_106\n      jumpi\n        /* \"#utility.yul\":2184:2263   */\n      tag_107\n      tag_95\n      jump\t// in\n    tag_107:\n        /* \"#utility.yul\":2146:2265   */\n    tag_106:\n        /* \"#utility.yul\":2304:2305   */\n      0x00\n        /* \"#utility.yul\":2329:2382   */\n      tag_108\n        /* \"#utility.yul\":2374:2381   */\n      dup5\n        /* \"#utility.yul\":2365:2371   */\n      dup3\n        /* \"#utility.yul\":2354:2363   */\n      dup6\n        /* \"#utility.yul\":2350:2372   */\n      add\n        /* \"#utility.yul\":2329:2382   */\n      tag_88\n      jump\t// in\n    tag_108:\n        /* \"#utility.yul\":2319:2382   */\n      swap2\n      pop\n        /* \"#utility.yul\":2275:2392   */\n      pop\n        /* \"#utility.yul\":2070:2399   */\n      swap3\n      swap2\n      pop\n      pop\n      jump\t// out\n        /* \"#utility.yul\":2405:2771   */\n    tag_109:\n        /* \"#utility.yul\":2547:2550   */\n      0x00\n        /* \"#utility.yul\":2568:2635   */\n      tag_111\n        /* \"#utility.yul\":2632:2634   */\n      0x1e\n        /* \"#utility.yul\":2627:2630   */\n      dup4\n        /* \"#utility.yul\":2568:2635   */\n      tag_112\n      jump\t// in\n    tag_111:\n        /* \"#utility.yul\":2561:2635   */\n      swap2\n      pop\n        /* \"#utility.yul\":2644:2737   */\n      tag_113\n        /* \"#utility.yul\":2733:2736   */\n      dup3\n        /* \"#utility.yul\":2644:2737   */\n      tag_114\n      jump\t// in\n    tag_113:\n        /* \"#utility.yul\":2762:2764   */\n      0x20\n        /* \"#utility.yul\":2757:2760   */\n      dup3\n        /* \"#utility.yul\":2753:2765   */\n      add\n        /* \"#utility.yul\":2746:2765   */\n      swap1\n      pop\n        /* \"#utility.yul\":2405:2771   */\n      swap2\n      swap1\n      pop\n      jump\t// out\n        /* \"#utility.yul\":2777:3143   */\n    tag_115:\n        /* \"#utility.yul\":2919:2922   */\n      0x00\n        /* \"#utility.yul\":2940:3007   */\n      tag_117\n        /* \"#utility.yul\":3004:3006   */\n      0x15\n        /* \"#utility.yul\":2999:3002   */\n      dup4\n        /* \"#utility.yul\":2940:3007   */\n      tag_112\n      jump\t// in\n    tag_117:\n        /* \"#utility.yul\":2933:3007   */\n      swap2\n      pop\n        /* \"#utility.yul\":3016:3109   */\n      tag_118\n        /* \"#utility.yul\":3105:3108   */\n      dup3\n        /* \"#utility.yul\":3016:3109   */\n      tag_119\n      jump\t// in\n    tag_118:\n        /* \"#utility.yul\":3134:3136   */\n      0x20\n        /* \"#utility.yul\":3129:3132   */\n      dup3\n        /* \"#utility.yul\":3125:3137   */\n      add\n        /* \"#utility.yul\":3118:3137   */\n      swap1\n      pop\n        /* \"#utility.yul\":2777:3143   */\n      swap2\n      swap1\n      pop\n      jump\t// out\n        /* \"#utility.yul\":3149:3515   */\n    tag_120:\n        /* \"#utility.yul\":3291:3294   */\n      0x00\n        /* \"#utility.yul\":3312:3379   */\n      tag_122\n        /* \"#utility.yul\":3376:3378   */\n      0x18\n        /* \"#utility.yul\":3371:3374   */\n      dup4\n        /* \"#utility.yul\":3312:3379   */\n      tag_112\n      jump\t// in\n    tag_122:\n        /* \"#utility.yul\":3305:3379   */\n      swap2\n      pop\n        /* \"#utility.yul\":3388:3481   */\n      tag_123\n        /* \"#utility.yul\":3477:3480   */\n      dup3\n        /* \"#utility.yul\":3388:3481   */\n      tag_124\n      jump\t// in\n    tag_123:\n        /* \"#utility.yul\":3506:3508   */\n      0x20\n        /* \"#utility.yul\":3501:3504   */\n      dup3\n        /* \"#utility.yul\":3497:3509   */\n      add\n        /* \"#utility.yul\":3490:3509   */\n      swap1\n      pop\n        /* \"#utility.yul\":3149:3515   */\n      swap2\n      swap1\n      pop\n      jump\t// out\n        /* \"#utility.yul\":3521:3887   */\n    tag_125:\n        /* \"#utility.yul\":3663:3666   */\n      0x00\n        /* \"#utility.yul\":3684:3751   */\n      tag_127\n        /* \"#utility.yul\":3748:3750   */\n      0x2c\n        /* \"#utility.yul\":3743:3746   */\n      dup4\n        /* \"#utility.yul\":3684:3751   */\n      tag_112\n      jump\t// in\n    tag_127:\n        /* \"#utility.yul\":3677:3751   */\n      swap2\n      pop\n        /* \"#utility.yul\":3760:3853   */\n      tag_128\n        /* \"#utility.yul\":3849:3852   */\n      dup3\n        /* \"#utility.yul\":3760:3853   */\n      tag_129\n      jump\t// in\n    tag_128:\n        /* \"#utility.yul\":3878:3880   */\n      0x40\n        /* \"#utility.yul\":3873:3876   */\n      dup3\n        /* \"#utility.yul\":3869:3881   */\n      add\n        /* \"#utility.yul\":3862:3881   */\n      swap1\n      pop\n        /* \"#utility.yul\":3521:3887   */\n      swap2\n      swap1\n      pop\n      jump\t// out\n        /* \"#utility.yul\":3893:4011   */\n    tag_130:\n        /* \"#utility.yul\":3980:4004   */\n      tag_132\n        /* \"#utility.yul\":3998:4003   */\n      dup2\n        /* \"#utility.yul\":3980:4004   */\n      tag_133\n      jump\t// in\n    tag_132:\n        /* \"#utility.yul\":3975:3978   */\n      dup3\n        /* \"#utility.yul\":3968:4005   */\n      mstore\n        /* \"#utility.yul\":3893:4011   */\n      pop\n      pop\n      jump\t// out\n        /* \"#utility.yul\":4017:4436   */\n    tag_38:\n        /* \"#utility.yul\":4183:4187   */\n      0x00\n        /* \"#utility.yul\":4221:4223   */\n      0x20\n        /* \"#utility.yul\":4210:4219   */\n      dup3\n        /* \"#utility.yul\":4206:4224   */\n      add\n        /* \"#utility.yul\":4198:4224   */\n      swap1\n      pop\n        /* \"#utility.yul\":4270:4279   */\n      dup2\n        /* \"#utility.yul\":4264:4268   */\n      dup2\n        /* \"#utility.yul\":4260:4280   */\n      sub\n        /* \"#utility.yul\":4256:4257   */\n      0x00\n        /* \"#utility.yul\":4245:4254   */\n      dup4\n        /* \"#utility.yul\":4241:4258   */\n      add\n        /* \"#utility.yul\":4234:4281   */\n      mstore\n        /* \"#utility.yul\":4298:4429   */\n      tag_135\n        /* \"#utility.yul\":4424:4428   */\n      dup2\n        /* \"#utility.yul\":4298:4429   */\n      tag_109\n      jump\t// in\n    tag_135:\n        /* \"#utility.yul\":4290:4429   */\n      swap1\n      pop\n        /* \"#utility.yul\":4017:4436   */\n      swap2\n      swap1\n      pop\n      jump\t// out\n        /* \"#utility.yul\":4442:4861   */\n    tag_41:\n        /* \"#utility.yul\":4608:4612   */\n      0x00\n        /* \"#utility.yul\":4646:4648   */\n      0x20\n        /* \"#utility.yul\":4635:4644   */\n      dup3\n        /* \"#utility.yul\":4631:4649   */\n      add\n        /* \"#utility.yul\":4623:4649   */\n      swap1\n      pop\n        /* \"#utility.yul\":4695:4704   */\n      dup2\n        /* \"#utility.yul\":4689:4693   */\n      dup2\n        /* \"#utility.yul\":4685:4705   */\n      sub\n        /* \"#utility.yul\":4681:4682   */\n      0x00\n        /* \"#utility.yul\":4670:4679   */\n      dup4\n        /* \"#utility.yul\":4666:4683   */\n      add\n        /* \"#utility.yul\":4659:4706   */\n      mstore\n        /* \"#utility.yul\":4723:4854   */\n      tag_137\n        /* \"#utility.yul\":4849:4853   */\n      dup2\n        /* \"#utility.yul\":4723:4854   */\n      tag_115\n      jump\t// in\n    tag_137:\n        /* \"#utility.yul\":4715:4854   */\n      swap1\n      pop\n        /* \"#utility.yul\":4442:4861   */\n      swap2\n      swap1\n      pop\n      jump\t// out\n        /* \"#utility.yul\":4867:5286   */\n    tag_44:\n        /* \"#utility.yul\":5033:5037   */\n      0x00\n        /* \"#utility.yul\":5071:5073   */\n      0x20\n        /* \"#utility.yul\":5060:5069   */\n      dup3\n        /* \"#utility.yul\":5056:5074   */\n      add\n        /* \"#utility.yul\":5048:5074   */\n      swap1\n      pop\n        /* \"#utility.yul\":5120:5129   */\n      dup2\n        /* \"#utility.yul\":5114:5118   */\n      dup2\n        /* \"#utility.yul\":5110:5130   */\n      sub\n        /* \"#utility.yul\":5106:5107   */\n      0x00\n        /* \"#utility.yul\":5095:5104   */\n      dup4\n        /* \"#utility.yul\":5091:5108   */\n      add\n        /* \"#utility.yul\":5084:5131   */\n      mstore\n        /* \"#utility.yul\":5148:5279   */\n      tag_139\n        /* \"#utility.yul\":5274:5278   */\n      dup2\n        /* \"#utility.yul\":5148:5279   */\n      tag_120\n      jump\t// in\n    tag_139:\n        /* \"#utility.yul\":5140:5279   */\n      swap1\n      pop\n        /* \"#utility.yul\":4867:5286   */\n      swap2\n      swap1\n      pop\n      jump\t// out\n        /* \"#utility.yul\":5292:5711   */\n    tag_49:\n        /* \"#utility.yul\":5458:5462   */\n      0x00\n        /* \"#utility.yul\":5496:5498   */\n      0x20\n        /* \"#utility.yul\":5485:5494   */\n      dup3\n        /* \"#utility.yul\":5481:5499   */\n      add\n        /* \"#utility.yul\":5473:5499   */\n      swap1\n      pop\n        /* \"#utility.yul\":5545:5554   */\n      dup2\n        /* \"#utility.yul\":5539:5543   */\n      dup2\n        /* \"#utility.yul\":5535:5555   */\n      sub\n        /* \"#utility.yul\":5531:5532   */\n      0x00\n        /* \"#utility.yul\":5520:5529   */\n      dup4\n        /* \"#utility.yul\":5516:5533   */\n      add\n        /* \"#utility.yul\":5509:5556   */\n      mstore\n        /* \"#utility.yul\":5573:5704   */\n      tag_141\n        /* \"#utility.yul\":5699:5703   */\n      dup2\n        /* \"#utility.yul\":5573:5704   */\n      tag_125\n      jump\t// in\n    tag_141:\n        /* \"#utility.yul\":5565:5704   */\n      swap1\n      pop\n        /* \"#utility.yul\":5292:5711   */\n      swap2\n      swap1\n      pop\n      jump\t// out\n        /* \"#utility.yul\":5717:5939   */\n    tag_20:\n        /* \"#utility.yul\":5810:5814   */\n      0x00\n        /* \"#utility.yul\":5848:5850   */\n      0x20\n        /* \"#utility.yul\":5837:5846   */\n      dup3\n        /* \"#utility.yul\":5833:5851   */\n      add\n        /* \"#utility.yul\":5825:5851   */\n      swap1\n      pop\n        /* \"#utility.yul\":5861:5932   */\n      tag_143\n        /* \"#utility.yul\":5929:5930   */\n      0x00\n        /* \"#utility.yul\":5918:5927   */\n      dup4\n        /* \"#utility.yul\":5914:5931   */\n      add\n        /* \"#utility.yul\":5905:5911   */\n      dup5\n        /* \"#utility.yul\":5861:5932   */\n      tag_130\n      jump\t// in\n    tag_143:\n        /* \"#utility.yul\":5717:5939   */\n      swap3\n      swap2\n      pop\n      pop\n      jump\t// out\n        /* \"#utility.yul\":5945:6074   */\n    tag_72:\n        /* \"#utility.yul\":5979:5985   */\n      0x00\n        /* \"#utility.yul\":6006:6026   */\n      tag_145\n      tag_146\n      jump\t// in\n    tag_145:\n        /* \"#utility.yul\":5996:6026   */\n      swap1\n      pop\n        /* \"#utility.yul\":6035:6068   */\n      tag_147\n        /* \"#utility.yul\":6063:6067   */\n      dup3\n        /* \"#utility.yul\":6055:6061   */\n      dup3\n        /* \"#utility.yul\":6035:6068   */\n      tag_148\n      jump\t// in\n    tag_147:\n        /* \"#utility.yul\":5945:6074   */\n      swap2\n      swap1\n      pop\n      jump\t// out\n        /* \"#utility.yul\":6080:6155   */\n    tag_146:\n        /* \"#utility.yul\":6113:6119   */\n      0x00\n        /* \"#utility.yul\":6146:6148   */\n      0x40\n        /* \"#utility.yul\":6140:6149   */\n      mload\n        /* \"#utility.yul\":6130:6149   */\n      swap1\n      pop\n        /* \"#utility.yul\":6080:6155   */\n      swap1\n      jump\t// out\n        /* \"#utility.yul\":6161:6469   */\n    tag_71:\n        /* \"#utility.yul\":6223:6227   */\n      0x00\n        /* \"#utility.yul\":6313:6331   */\n      0xffffffffffffffff\n        /* \"#utility.yul\":6305:6311   */\n      dup3\n        /* \"#utility.yul\":6302:6332   */\n      gt\n        /* \"#utility.yul\":6299:6355   */\n      iszero\n      tag_151\n      jumpi\n        /* \"#utility.yul\":6335:6353   */\n      tag_152\n      tag_153\n      jump\t// in\n    tag_152:\n        /* \"#utility.yul\":6299:6355   */\n    tag_151:\n        /* \"#utility.yul\":6373:6402   */\n      tag_154\n        /* \"#utility.yul\":6395:6401   */\n      dup3\n        /* \"#utility.yul\":6373:6402   */\n      tag_155\n      jump\t// in\n    tag_154:\n        /* \"#utility.yul\":6365:6402   */\n      swap1\n      pop\n        /* \"#utility.yul\":6457:6461   */\n      0x20\n        /* \"#utility.yul\":6451:6455   */\n      dup2\n        /* \"#utility.yul\":6447:6462   */\n      add\n        /* \"#utility.yul\":6439:6462   */\n      swap1\n      pop\n        /* \"#utility.yul\":6161:6469   */\n      swap2\n      swap1\n      pop\n      jump\t// out\n        /* \"#utility.yul\":6475:6644   */\n    tag_112:\n        /* \"#utility.yul\":6559:6570   */\n      0x00\n        /* \"#utility.yul\":6593:6599   */\n      dup3\n        /* \"#utility.yul\":6588:6591   */\n      dup3\n        /* \"#utility.yul\":6581:6600   */\n      mstore\n        /* \"#utility.yul\":6633:6637   */\n      0x20\n        /* \"#utility.yul\":6628:6631   */\n      dup3\n        /* \"#utility.yul\":6624:6638   */\n      add\n        /* \"#utility.yul\":6609:6638   */\n      swap1\n      pop\n        /* \"#utility.yul\":6475:6644   */\n      swap3\n      swap2\n      pop\n      pop\n      jump\t// out\n        /* \"#utility.yul\":6650:6955   */\n    tag_52:\n        /* \"#utility.yul\":6690:6693   */\n      0x00\n        /* \"#utility.yul\":6709:6729   */\n      tag_158\n        /* \"#utility.yul\":6727:6728   */\n      dup3\n        /* \"#utility.yul\":6709:6729   */\n      tag_133\n      jump\t// in\n    tag_158:\n        /* \"#utility.yul\":6704:6729   */\n      swap2\n      pop\n        /* \"#utility.yul\":6743:6763   */\n      tag_159\n        /* \"#utility.yul\":6761:6762   */\n      dup4\n        /* \"#utility.yul\":6743:6763   */\n      tag_133\n      jump\t// in\n    tag_159:\n        /* \"#utility.yul\":6738:6763   */\n      swap3\n      pop\n        /* \"#utility.yul\":6897:6898   */\n      dup3\n        /* \"#utility.yul\":6829:6895   */\n      0xffffffffffffffffffffffffffffffffffffffffffffffffffffffffffffffff\n        /* \"#utility.yul\":6825:6899   */\n      sub\n        /* \"#utility.yul\":6822:6823   */\n      dup3\n        /* \"#utility.yul\":6819:6900   */\n      gt\n        /* \"#utility.yul\":6816:6923   */\n      iszero\n      tag_160\n      jumpi\n        /* \"#utility.yul\":6903:6921   */\n      tag_161\n      tag_162\n      jump\t// in\n    tag_161:\n        /* \"#utility.yul\":6816:6923   */\n    tag_160:\n        /* \"#utility.yul\":6947:6948   */\n      dup3\n        /* \"#utility.yul\":6944:6945   */\n      dup3\n        /* \"#utility.yul\":6940:6949   */\n      add\n        /* \"#utility.yul\":6933:6949   */\n      swap1\n      pop\n        /* \"#utility.yul\":6650:6955   */\n      swap3\n      swap2\n      pop\n      pop\n      jump\t// out\n        /* \"#utility.yul\":6961:7146   */\n    tag_55:\n        /* \"#utility.yul\":7001:7002   */\n      0x00\n        /* \"#utility.yul\":7018:7038   */\n      tag_164\n        /* \"#utility.yul\":7036:7037   */\n      dup3\n        /* \"#utility.yul\":7018:7038   */\n      tag_133\n      jump\t// in\n    tag_164:\n        /* \"#utility.yul\":7013:7038   */\n      swap2\n      pop\n        /* \"#utility.yul\":7052:7072   */\n      tag_165\n        /* \"#utility.yul\":7070:7071   */\n      dup4\n        /* \"#utility.yul\":7052:7072   */\n      tag_133\n      jump\t// in\n    tag_165:\n        /* \"#utility.yul\":7047:7072   */\n      swap3\n      pop\n        /* \"#utility.yul\":7091:7092   */\n      dup3\n        /* \"#utility.yul\":7081:7116   */\n      tag_166\n      jumpi\n        /* \"#utility.yul\":7096:7114   */\n      tag_167\n      tag_168\n      jump\t// in\n    tag_167:\n        /* \"#utility.yul\":7081:7116   */\n    tag_166:\n        /* \"#utility.yul\":7138:7139   */\n      dup3\n        /* \"#utility.yul\":7135:7136   */\n      dup3\n        /* \"#utility.yul\":7131:7140   */\n      div\n        /* \"#utility.yul\":7126:7140   */\n      swap1\n      pop\n        /* \"#utility.yul\":6961:7146   */\n      swap3\n      swap2\n      pop\n      pop\n      jump\t// out\n        /* \"#utility.yul\":7152:7500   */\n    tag_46:\n        /* \"#utility.yul\":7192:7199   */\n      0x00\n        /* \"#utility.yul\":7215:7235   */\n      tag_170\n        /* \"#utility.yul\":7233:7234   */\n      dup3\n        /* \"#utility.yul\":7215:7235   */\n      tag_133\n      jump\t// in\n    tag_170:\n        /* \"#utility.yul\":7210:7235   */\n      swap2\n      pop\n        /* \"#utility.yul\":7249:7269   */\n      tag_171\n        /* \"#utility.yul\":7267:7268   */\n      dup4\n        /* \"#utility.yul\":7249:7269   */\n      tag_133\n      jump\t// in\n    tag_171:\n        /* \"#utility.yul\":7244:7269   */\n      swap3\n      pop\n        /* \"#utility.yul\":7437:7438   */\n      dup2\n        /* \"#utility.yul\":7369:7435   */\n      0xffffffffffffffffffffffffffffffffffffffffffffffffffffffffffffffff\n        /* \"#utility.yul\":7365:7439   */\n      div\n        /* \"#utility.yul\":7362:7363   */\n      dup4\n        /* \"#utility.yul\":7359:7440   */\n      gt\n        /* \"#utility.yul\":7354:7355   */\n      dup3\n        /* \"#utility.yul\":7347:7356   */\n      iszero\n        /* \"#utility.yul\":7340:7357   */\n      iszero\n        /* \"#utility.yul\":7336:7441   */\n      and\n        /* \"#utility.yul\":7333:7464   */\n      iszero\n      tag_172\n      jumpi\n        /* \"#utility.yul\":7444:7462   */\n      tag_173\n      tag_162\n      jump\t// in\n    tag_173:\n        /* \"#utility.yul\":7333:7464   */\n    tag_172:\n        /* \"#utility.yul\":7492:7493   */\n      dup3\n        /* \"#utility.yul\":7489:7490   */\n      dup3\n        /* \"#utility.yul\":7485:7494   */\n      mul\n        /* \"#utility.yul\":7474:7494   */\n      swap1\n      pop\n        /* \"#utility.yul\":7152:7500   */\n      swap3\n      swap2\n      pop\n      pop\n      jump\t// out\n        /* \"#utility.yul\":7506:7602   */\n    tag_174:\n        /* \"#utility.yul\":7543:7550   */\n      0x00\n        /* \"#utility.yul\":7572:7596   */\n      tag_176\n        /* \"#utility.yul\":7590:7595   */\n      dup3\n        /* \"#utility.yul\":7572:7596   */\n      tag_177\n      jump\t// in\n    tag_176:\n        /* \"#utility.yul\":7561:7596   */\n      swap1\n      pop\n        /* \"#utility.yul\":7506:7602   */\n      swap2\n      swap1\n      pop\n      jump\t// out\n        /* \"#utility.yul\":7608:7734   */\n    tag_177:\n        /* \"#utility.yul\":7645:7652   */\n      0x00\n        /* \"#utility.yul\":7685:7727   */\n      0xffffffffffffffffffffffffffffffffffffffff\n        /* \"#utility.yul\":7678:7683   */\n      dup3\n        /* \"#utility.yul\":7674:7728   */\n      and\n        /* \"#utility.yul\":7663:7728   */\n      swap1\n      pop\n        /* \"#utility.yul\":7608:7734   */\n      swap2\n      swap1\n      pop\n      jump\t// out\n        /* \"#utility.yul\":7740:7817   */\n    tag_133:\n        /* \"#utility.yul\":7777:7784   */\n      0x00\n        /* \"#utility.yul\":7806:7811   */\n      dup2\n        /* \"#utility.yul\":7795:7811   */\n      swap1\n      pop\n        /* \"#utility.yul\":7740:7817   */\n      swap2\n      swap1\n      pop\n      jump\t// out\n        /* \"#utility.yul\":7823:7977   */\n    tag_77:\n        /* \"#utility.yul\":7907:7913   */\n      dup3\n        /* \"#utility.yul\":7902:7905   */\n      dup2\n        /* \"#utility.yul\":7897:7900   */\n      dup4\n        /* \"#utility.yul\":7884:7914   */\n      calldatacopy\n        /* \"#utility.yul\":7969:7970   */\n      0x00\n        /* \"#utility.yul\":7960:7966   */\n      dup4\n        /* \"#utility.yul\":7955:7958   */\n      dup4\n        /* \"#utility.yul\":7951:7967   */\n      add\n        /* \"#utility.yul\":7944:7971   */\n      mstore\n        /* \"#utility.yul\":7823:7977   */\n      pop\n      pop\n      pop\n      jump\t// out\n        /* \"#utility.yul\":7983:8303   */\n    tag_31:\n        /* \"#utility.yul\":8027:8033   */\n      0x00\n        /* \"#utility.yul\":8064:8065   */\n      0x02\n        /* \"#utility.yul\":8058:8062   */\n      dup3\n        /* \"#utility.yul\":8054:8066   */\n      div\n        /* \"#utility.yul\":8044:8066   */\n      swap1\n      pop\n        /* \"#utility.yul\":8111:8112   */\n      0x01\n        /* \"#utility.yul\":8105:8109   */\n      dup3\n        /* \"#utility.yul\":8101:8113   */\n      and\n        /* \"#utility.yul\":8132:8150   */\n      dup1\n        /* \"#utility.yul\":8122:8203   */\n      tag_182\n      jumpi\n        /* \"#utility.yul\":8188:8192   */\n      0x7f\n        /* \"#utility.yul\":8180:8186   */\n      dup3\n        /* \"#utility.yul\":8176:8193   */\n      and\n        /* \"#utility.yul\":8166:8193   */\n      swap2\n      pop\n        /* \"#utility.yul\":8122:8203   */\n    tag_182:\n        /* \"#utility.yul\":8250:8252   */\n      0x20\n        /* \"#utility.yul\":8242:8248   */\n      dup3\n        /* \"#utility.yul\":8239:8253   */\n      lt\n        /* \"#utility.yul\":8219:8237   */\n      dup2\n        /* \"#utility.yul\":8216:8254   */\n      eq\n        /* \"#utility.yul\":8213:8297   */\n      iszero\n      tag_183\n      jumpi\n        /* \"#utility.yul\":8269:8287   */\n      tag_184\n      tag_185\n      jump\t// in\n    tag_184:\n        /* \"#utility.yul\":8213:8297   */\n    tag_183:\n        /* \"#utility.yul\":8034:8303   */\n      pop\n        /* \"#utility.yul\":7983:8303   */\n      swap2\n      swap1\n      pop\n      jump\t// out\n        /* \"#utility.yul\":8309:8590   */\n    tag_148:\n        /* \"#utility.yul\":8392:8419   */\n      tag_187\n        /* \"#utility.yul\":8414:8418   */\n      dup3\n        /* \"#utility.yul\":8392:8419   */\n      tag_155\n      jump\t// in\n    tag_187:\n        /* \"#utility.yul\":8384:8390   */\n      dup2\n        /* \"#utility.yul\":8380:8420   */\n      add\n        /* \"#utility.yul\":8522:8528   */\n      dup2\n        /* \"#utility.yul\":8510:8520   */\n      dup2\n        /* \"#utility.yul\":8507:8529   */\n      lt\n        /* \"#utility.yul\":8486:8504   */\n      0xffffffffffffffff\n        /* \"#utility.yul\":8474:8484   */\n      dup3\n        /* \"#utility.yul\":8471:8505   */\n      gt\n        /* \"#utility.yul\":8468:8530   */\n      or\n        /* \"#utility.yul\":8465:8553   */\n      iszero\n      tag_188\n      jumpi\n        /* \"#utility.yul\":8533:8551   */\n      tag_189\n      tag_153\n      jump\t// in\n    tag_189:\n        /* \"#utility.yul\":8465:8553   */\n    tag_188:\n        /* \"#utility.yul\":8573:8583   */\n      dup1\n        /* \"#utility.yul\":8569:8571   */\n      0x40\n        /* \"#utility.yul\":8562:8584   */\n      mstore\n        /* \"#utility.yul\":8352:8590   */\n      pop\n        /* \"#utility.yul\":8309:8590   */\n      pop\n      pop\n      jump\t// out\n        /* \"#utility.yul\":8596:8776   */\n    tag_162:\n        /* \"#utility.yul\":8644:8721   */\n      0x4e487b7100000000000000000000000000000000000000000000000000000000\n        /* \"#utility.yul\":8641:8642   */\n      0x00\n        /* \"#utility.yul\":8634:8722   */\n      mstore\n        /* \"#utility.yul\":8741:8745   */\n      0x11\n        /* \"#utility.yul\":8738:8739   */\n      0x04\n        /* \"#utility.yul\":8731:8746   */\n      mstore\n        /* \"#utility.yul\":8765:8769   */\n      0x24\n        /* \"#utility.yul\":8762:8763   */\n      0x00\n        /* \"#utility.yul\":8755:8770   */\n      revert\n        /* \"#utility.yul\":8782:8962   */\n    tag_168:\n        /* \"#utility.yul\":8830:8907   */\n      0x4e487b7100000000000000000000000000000000000000000000000000000000\n        /* \"#utility.yul\":8827:8828   */\n      0x00\n        /* \"#utility.yul\":8820:8908   */\n      mstore\n        /* \"#utility.yul\":8927:8931   */\n      0x12\n        /* \"#utility.yul\":8924:8925   */\n      0x04\n        /* \"#utility.yul\":8917:8932   */\n      mstore\n        /* \"#utility.yul\":8951:8955   */\n      0x24\n        /* \"#utility.yul\":8948:8949   */\n      0x00\n        /* \"#utility.yul\":8941:8956   */\n      revert\n        /* \"#utility.yul\":8968:9148   */\n    tag_185:\n        /* \"#utility.yul\":9016:9093   */\n      0x4e487b7100000000000000000000000000000000000000000000000000000000\n        /* \"#utility.yul\":9013:9014   */\n      0x00\n        /* \"#utility.yul\":9006:9094   */\n      mstore\n        /* \"#utility.yul\":9113:9117   */\n      0x22\n        /* \"#utility.yul\":9110:9111   */\n      0x04\n        /* \"#utility.yul\":9103:9118   */\n      mstore\n        /* \"#utility.yul\":9137:9141   */\n      0x24\n        /* \"#utility.yul\":9134:9135   */\n      0x00\n        /* \"#utility.yul\":9127:9142   */\n      revert\n        /* \"#utility.yul\":9154:9334   */\n    tag_28:\n        /* \"#utility.yul\":9202:9279   */\n      0x4e487b7100000000000000000000000000000000000000000000000000000000\n        /* \"#utility.yul\":9199:9200   */\n      0x00\n        /* \"#utility.yul\":9192:9280   */\n      mstore\n        /* \"#utility.yul\":9299:9303   */\n      0x32\n        /* \"#utility.yul\":9296:9297   */\n      0x04\n        /* \"#utility.yul\":9289:9304   */\n      mstore\n        /* \"#utility.yul\":9323:9327   */\n      0x24\n        /* \"#utility.yul\":9320:9321   */\n      0x00\n        /* \"#utility.yul\":9313:9328   */\n      revert\n        /* \"#utility.yul\":9340:9520   */\n    tag_153:\n        /* \"#utility.yul\":9388:9465   */\n      0x4e487b7100000000000000000000000000000000000000000000000000000000\n        /* \"#utility.yul\":9385:9386   */\n      0x00\n        /* \"#utility.yul\":9378:9466   */\n      mstore\n        /* \"#utility.yul\":9485:9489   */\n      0x41\n        /* \"#utility.yul\":9482:9483   */\n      0x04\n        /* \"#utility.yul\":9475:9490   */\n      mstore\n        /* \"#utility.yul\":9509:9513   */\n      0x24\n        /* \"#utility.yul\":9506:9507   */\n      0x00\n        /* \"#utility.yul\":9499:9514   */\n      revert\n        /* \"#utility.yul\":9526:9643   */\n    tag_86:\n        /* \"#utility.yul\":9635:9636   */\n      0x00\n        /* \"#utility.yul\":9632:9633   */\n      dup1\n        /* \"#utility.yul\":9625:9637   */\n      revert\n        /* \"#utility.yul\":9649:9766   */\n    tag_75:\n        /* \"#utility.yul\":9758:9759   */\n      0x00\n        /* \"#utility.yul\":9755:9756   */\n      dup1\n        /* \"#utility.yul\":9748:9760   */\n      revert\n        /* \"#utility.yul\":9772:9889   */\n    tag_102:\n        /* \"#utility.yul\":9881:9882   */\n      0x00\n        /* \"#utility.yul\":9878:9879   */\n      dup1\n        /* \"#utility.yul\":9871:9883   */\n      revert\n        /* \"#utility.yul\":9895:10012   */\n    tag_95:\n        /* \"#utility.yul\":10004:10005   */\n      0x00\n        /* \"#utility.yul\":10001:10002   */\n      dup1\n        /* \"#utility.yul\":9994:10006   */\n      revert\n        /* \"#utility.yul\":10018:10120   */\n    tag_155:\n        /* \"#utility.yul\":10059:10065   */\n      0x00\n        /* \"#utility.yul\":10110:10112   */\n      0x1f\n        /* \"#utility.yul\":10106:10113   */\n      not\n        /* \"#utility.yul\":10101:10103   */\n      0x1f\n        /* \"#utility.yul\":10094:10099   */\n      dup4\n        /* \"#utility.yul\":10090:10104   */\n      add\n        /* \"#utility.yul\":10086:10114   */\n      and\n        /* \"#utility.yul\":10076:10114   */\n      swap1\n      pop\n        /* \"#utility.yul\":10018:10120   */\n      swap2\n      swap1\n      pop\n      jump\t// out\n        /* \"#utility.yul\":10126:10306   */\n    tag_114:\n        /* \"#utility.yul\":10266:10298   */\n      0x596f752063616e277420626964206f6e20796f7572206f776e20706f73740000\n        /* \"#utility.yul\":10262:10263   */\n      0x00\n        /* \"#utility.yul\":10254:10260   */\n      dup3\n        /* \"#utility.yul\":10250:10264   */\n      add\n        /* \"#utility.yul\":10243:10299   */\n      mstore\n        /* \"#utility.yul\":10126:10306   */\n      pop\n      jump\t// out\n        /* \"#utility.yul\":10312:10483   */\n    tag_119:\n        /* \"#utility.yul\":10452:10475   */\n      0x496e76616c696420616d6f756e74206f66204269640000000000000000000000\n        /* \"#utility.yul\":10448:10449   */\n      0x00\n        /* \"#utility.yul\":10440:10446   */\n      dup3\n        /* \"#utility.yul\":10436:10450   */\n      add\n        /* \"#utility.yul\":10429:10476   */\n      mstore\n        /* \"#utility.yul\":10312:10483   */\n      pop\n      jump\t// out\n        /* \"#utility.yul\":10489:10663   */\n    tag_124:\n        /* \"#utility.yul\":10629:10655   */\n      0x546869732061756374696f6e2069732066696e69736865640000000000000000\n        /* \"#utility.yul\":10625:10626   */\n      0x00\n        /* \"#utility.yul\":10617:10623   */\n      dup3\n        /* \"#utility.yul\":10613:10627   */\n      add\n        /* \"#utility.yul\":10606:10656   */\n      mstore\n        /* \"#utility.yul\":10489:10663   */\n      pop\n      jump\t// out\n        /* \"#utility.yul\":10669:10900   */\n    tag_129:\n        /* \"#utility.yul\":10809:10843   */\n      0x5468697320626964206e6565647320746f206265206d6f7265207468616e206d\n        /* \"#utility.yul\":10805:10806   */\n      0x00\n        /* \"#utility.yul\":10797:10803   */\n      dup3\n        /* \"#utility.yul\":10793:10807   */\n      add\n        /* \"#utility.yul\":10786:10844   */\n      mstore\n        /* \"#utility.yul\":10878:10892   */\n      0x696e206269642076616c75650000000000000000000000000000000000000000\n        /* \"#utility.yul\":10873:10875   */\n      0x20\n        /* \"#utility.yul\":10865:10871   */\n      dup3\n        /* \"#utility.yul\":10861:10876   */\n      add\n        /* \"#utility.yul\":10854:10893   */\n      mstore\n        /* \"#utility.yul\":10669:10900   */\n      pop\n      jump\t// out\n        /* \"#utility.yul\":10906:11028   */\n    tag_81:\n        /* \"#utility.yul\":10979:11003   */\n      tag_205\n        /* \"#utility.yul\":10997:11002   */\n      dup2\n        /* \"#utility.yul\":10979:11003   */\n      tag_174\n      jump\t// in\n    tag_205:\n        /* \"#utility.yul\":10972:10977   */\n      dup2\n        /* \"#utility.yul\":10969:11004   */\n      eq\n        /* \"#utility.yul\":10959:11022   */\n      tag_206\n      jumpi\n        /* \"#utility.yul\":11018:11019   */\n      0x00\n        /* \"#utility.yul\":11015:11016   */\n      dup1\n        /* \"#utility.yul\":11008:11020   */\n      revert\n        /* \"#utility.yul\":10959:11022   */\n    tag_206:\n        /* \"#utility.yul\":10906:11028   */\n      pop\n      jump\t// out\n        /* \"#utility.yul\":11034:11156   */\n    tag_91:\n        /* \"#utility.yul\":11107:11131   */\n      tag_208\n        /* \"#utility.yul\":11125:11130   */\n      dup2\n        /* \"#utility.yul\":11107:11131   */\n      tag_133\n      jump\t// in\n    tag_208:\n        /* \"#utility.yul\":11100:11105   */\n      dup2\n        /* \"#utility.yul\":11097:11132   */\n      eq\n        /* \"#utility.yul\":11087:11150   */\n      tag_209\n      jumpi\n        /* \"#utility.yul\":11146:11147   */\n      0x00\n        /* \"#utility.yul\":11143:11144   */\n      dup1\n        /* \"#utility.yul\":11136:11148   */\n      revert\n        /* \"#utility.yul\":11087:11150   */\n    tag_209:\n        /* \"#utility.yul\":11034:11156   */\n      pop\n      jump\t// out\n\n    auxdata: 0xa2646970667358221220dadef55243c8135cf0b5d5d0e4964c865e2a8ac88beec48409d10ad550a2b58964736f6c63430008070033\n}\n",
				"bytecode": {
					"linkReferences": {},
					"object": "608060405234801561001057600080fd5b50610d26806100206000396000f3fe6080604052600436106100345760003560e01c80631252cb4814610039578063659dd2b414610062578063f8b2cb4f1461007e575b600080fd5b34801561004557600080fd5b50610060600480360381019061005b9190610733565b6100bb565b005b61007c6004803603810190610077919061078f565b61019b565b005b34801561008a57600080fd5b506100a560048036038101906100a09190610706565b61056d565b6040516100b291906108d7565b60405180910390f35b600060405180608001604052803373ffffffffffffffffffffffffffffffffffffffff16815260200183815260200184815260200142815250908060018154018082558091505060019003906000526020600020906004020160009091909190915060008201518160000160006101000a81548173ffffffffffffffffffffffffffffffffffffffff021916908373ffffffffffffffffffffffffffffffffffffffff16021790555060208201518160010155604082015181600201908051906020019061018a9291906105c9565b506060820151816003015550505050565b60008082815481106101b0576101af610b75565b5b90600052602060002090600402016040518060800160405290816000820160009054906101000a900473ffffffffffffffffffffffffffffffffffffffff1673ffffffffffffffffffffffffffffffffffffffff1673ffffffffffffffffffffffffffffffffffffffff1681526020016001820154815260200160028201805461023990610a85565b80601f016020809104026020016040519081016040528092919081815260200182805461026590610a85565b80156102b25780601f10610287576101008083540402835291602001916102b2565b820191906000526020600020905b81548152906001019060200180831161029557829003601f168201915b505050505081526020016003820154815250509050806000015173ffffffffffffffffffffffffffffffffffffffff163373ffffffffffffffffffffffffffffffffffffffff16141561033a576040517f08c379a000000000000000000000000000000000000000000000000000000000815260040161033190610857565b60405180910390fd5b600034141561037e576040517f08c379a000000000000000000000000000000000000000000000000000000000815260040161037590610877565b60405180910390fd5b6101908160600151106103c6576040517f08c379a00000000000000000000000000000000000000000000000000000000081526004016103bd90610897565b60405180910390fd5b670de0b6b3a764000081602001516103de91906109e0565b341015610420576040517f08c379a0000000000000000000000000000000000000000000000000000000008152600401610417906108b7565b60405180910390fd5b6001600083815260200190815260200160002060405180608001604052803373ffffffffffffffffffffffffffffffffffffffff16815260200134815260200142815260200160001515815250908060018154018082558091505060019003906000526020600020906004020160009091909190915060008201518160000160006101000a81548173ffffffffffffffffffffffffffffffffffffffff021916908373ffffffffffffffffffffffffffffffffffffffff160217905550602082015181600101556040820151816002015560608201518160030160006101000a81548160ff021916908315150217905550505034600260003073ffffffffffffffffffffffffffffffffffffffff1673ffffffffffffffffffffffffffffffffffffffff16815260200190815260200160002060008282546105629190610959565b925050819055505050565b6000670de0b6b3a7640000600260008473ffffffffffffffffffffffffffffffffffffffff1673ffffffffffffffffffffffffffffffffffffffff168152602001908152602001600020546105c291906109af565b9050919050565b8280546105d590610a85565b90600052602060002090601f0160209004810192826105f7576000855561063e565b82601f1061061057805160ff191683800117855561063e565b8280016001018555821561063e579182015b8281111561063d578251825591602001919060010190610622565b5b50905061064b919061064f565b5090565b5b80821115610668576000816000905550600101610650565b5090565b600061067f61067a84610917565b6108f2565b90508281526020810184848401111561069b5761069a610bd8565b5b6106a6848285610a76565b509392505050565b6000813590506106bd81610cc2565b92915050565b600082601f8301126106d8576106d7610bd3565b5b81356106e884826020860161066c565b91505092915050565b60008135905061070081610cd9565b92915050565b60006020828403121561071c5761071b610be2565b5b600061072a848285016106ae565b91505092915050565b6000806040838503121561074a57610749610be2565b5b600083013567ffffffffffffffff81111561076857610767610bdd565b5b610774858286016106c3565b9250506020610785858286016106f1565b9150509250929050565b6000602082840312156107a5576107a4610be2565b5b60006107b3848285016106f1565b91505092915050565b60006107c9601e83610948565b91506107d482610bf8565b602082019050919050565b60006107ec601583610948565b91506107f782610c21565b602082019050919050565b600061080f601883610948565b915061081a82610c4a565b602082019050919050565b6000610832602c83610948565b915061083d82610c73565b604082019050919050565b61085181610a6c565b82525050565b60006020820190508181036000830152610870816107bc565b9050919050565b60006020820190508181036000830152610890816107df565b9050919050565b600060208201905081810360008301526108b081610802565b9050919050565b600060208201905081810360008301526108d081610825565b9050919050565b60006020820190506108ec6000830184610848565b92915050565b60006108fc61090d565b90506109088282610ab7565b919050565b6000604051905090565b600067ffffffffffffffff82111561093257610931610ba4565b5b61093b82610be7565b9050602081019050919050565b600082825260208201905092915050565b600061096482610a6c565b915061096f83610a6c565b9250827fffffffffffffffffffffffffffffffffffffffffffffffffffffffffffffffff038211156109a4576109a3610ae8565b5b828201905092915050565b60006109ba82610a6c565b91506109c583610a6c565b9250826109d5576109d4610b17565b5b828204905092915050565b60006109eb82610a6c565b91506109f683610a6c565b9250817fffffffffffffffffffffffffffffffffffffffffffffffffffffffffffffffff0483118215151615610a2f57610a2e610ae8565b5b828202905092915050565b6000610a4582610a4c565b9050919050565b600073ffffffffffffffffffffffffffffffffffffffff82169050919050565b6000819050919050565b82818337600083830152505050565b60006002820490506001821680610a9d57607f821691505b60208210811415610ab157610ab0610b46565b5b50919050565b610ac082610be7565b810181811067ffffffffffffffff82111715610adf57610ade610ba4565b5b80604052505050565b7f4e487b7100000000000000000000000000000000000000000000000000000000600052601160045260246000fd5b7f4e487b7100000000000000000000000000000000000000000000000000000000600052601260045260246000fd5b7f4e487b7100000000000000000000000000000000000000000000000000000000600052602260045260246000fd5b7f4e487b7100000000000000000000000000000000000000000000000000000000600052603260045260246000fd5b7f4e487b7100000000000000000000000000000000000000000000000000000000600052604160045260246000fd5b600080fd5b600080fd5b600080fd5b600080fd5b6000601f19601f8301169050919050565b7f596f752063616e277420626964206f6e20796f7572206f776e20706f73740000600082015250565b7f496e76616c696420616d6f756e74206f66204269640000000000000000000000600082015250565b7f546869732061756374696f6e2069732066696e69736865640000000000000000600082015250565b7f5468697320626964206e6565647320746f206265206d6f7265207468616e206d60008201527f696e206269642076616c75650000000000000000000000000000000000000000602082015250565b610ccb81610a3a565b8114610cd657600080fd5b50565b610ce281610a6c565b8114610ced57600080fd5b5056fea2646970667358221220dadef55243c8135cf0b5d5d0e4964c865e2a8ac88beec48409d10ad550a2b58964736f6c63430008070033",
					"opcodes": "PUSH1 0x80 PUSH1 0x40 MSTORE CALLVALUE DUP1 ISZERO PUSH2 0x10 JUMPI PUSH1 0x0 DUP1 REVERT JUMPDEST POP PUSH2 0xD26 DUP1 PUSH2 0x20 PUSH1 0x0 CODECOPY PUSH1 0x0 RETURN INVALID PUSH1 0x80 PUSH1 0x40 MSTORE PUSH1 0x4 CALLDATASIZE LT PUSH2 0x34 JUMPI PUSH1 0x0 CALLDATALOAD PUSH1 0xE0 SHR DUP1 PUSH4 0x1252CB48 EQ PUSH2 0x39 JUMPI DUP1 PUSH4 0x659DD2B4 EQ PUSH2 0x62 JUMPI DUP1 PUSH4 0xF8B2CB4F EQ PUSH2 0x7E JUMPI JUMPDEST PUSH1 0x0 DUP1 REVERT JUMPDEST CALLVALUE DUP1 ISZERO PUSH2 0x45 JUMPI PUSH1 0x0 DUP1 REVERT JUMPDEST POP PUSH2 0x60 PUSH1 0x4 DUP1 CALLDATASIZE SUB DUP2 ADD SWAP1 PUSH2 0x5B SWAP2 SWAP1 PUSH2 0x733 JUMP JUMPDEST PUSH2 0xBB JUMP JUMPDEST STOP JUMPDEST PUSH2 0x7C PUSH1 0x4 DUP1 CALLDATASIZE SUB DUP2 ADD SWAP1 PUSH2 0x77 SWAP2 SWAP1 PUSH2 0x78F JUMP JUMPDEST PUSH2 0x19B JUMP JUMPDEST STOP JUMPDEST CALLVALUE DUP1 ISZERO PUSH2 0x8A JUMPI PUSH1 0x0 DUP1 REVERT JUMPDEST POP PUSH2 0xA5 PUSH1 0x4 DUP1 CALLDATASIZE SUB DUP2 ADD SWAP1 PUSH2 0xA0 SWAP2 SWAP1 PUSH2 0x706 JUMP JUMPDEST PUSH2 0x56D JUMP JUMPDEST PUSH1 0x40 MLOAD PUSH2 0xB2 SWAP2 SWAP1 PUSH2 0x8D7 JUMP JUMPDEST PUSH1 0x40 MLOAD DUP1 SWAP2 SUB SWAP1 RETURN JUMPDEST PUSH1 0x0 PUSH1 0x40 MLOAD DUP1 PUSH1 0x80 ADD PUSH1 0x40 MSTORE DUP1 CALLER PUSH20 0xFFFFFFFFFFFFFFFFFFFFFFFFFFFFFFFFFFFFFFFF AND DUP2 MSTORE PUSH1 0x20 ADD DUP4 DUP2 MSTORE PUSH1 0x20 ADD DUP5 DUP2 MSTORE PUSH1 0x20 ADD TIMESTAMP DUP2 MSTORE POP SWAP1 DUP1 PUSH1 0x1 DUP2 SLOAD ADD DUP1 DUP3 SSTORE DUP1 SWAP2 POP POP PUSH1 0x1 SWAP1 SUB SWAP1 PUSH1 0x0 MSTORE PUSH1 0x20 PUSH1 0x0 KECCAK256 SWAP1 PUSH1 0x4 MUL ADD PUSH1 0x0 SWAP1 SWAP2 SWAP1 SWAP2 SWAP1 SWAP2 POP PUSH1 0x0 DUP3 ADD MLOAD DUP2 PUSH1 0x0 ADD PUSH1 0x0 PUSH2 0x100 EXP DUP2 SLOAD DUP2 PUSH20 0xFFFFFFFFFFFFFFFFFFFFFFFFFFFFFFFFFFFFFFFF MUL NOT AND SWAP1 DUP4 PUSH20 0xFFFFFFFFFFFFFFFFFFFFFFFFFFFFFFFFFFFFFFFF AND MUL OR SWAP1 SSTORE POP PUSH1 0x20 DUP3 ADD MLOAD DUP2 PUSH1 0x1 ADD SSTORE PUSH1 0x40 DUP3 ADD MLOAD DUP2 PUSH1 0x2 ADD SWAP1 DUP1 MLOAD SWAP1 PUSH1 0x20 ADD SWAP1 PUSH2 0x18A SWAP3 SWAP2 SWAP1 PUSH2 0x5C9 JUMP JUMPDEST POP PUSH1 0x60 DUP3 ADD MLOAD DUP2 PUSH1 0x3 ADD SSTORE POP POP POP POP JUMP JUMPDEST PUSH1 0x0 DUP1 DUP3 DUP2 SLOAD DUP2 LT PUSH2 0x1B0 JUMPI PUSH2 0x1AF PUSH2 0xB75 JUMP JUMPDEST JUMPDEST SWAP1 PUSH1 0x0 MSTORE PUSH1 0x20 PUSH1 0x0 KECCAK256 SWAP1 PUSH1 0x4 MUL ADD PUSH1 0x40 MLOAD DUP1 PUSH1 0x80 ADD PUSH1 0x40 MSTORE SWAP1 DUP2 PUSH1 0x0 DUP3 ADD PUSH1 0x0 SWAP1 SLOAD SWAP1 PUSH2 0x100 EXP SWAP1 DIV PUSH20 0xFFFFFFFFFFFFFFFFFFFFFFFFFFFFFFFFFFFFFFFF AND PUSH20 0xFFFFFFFFFFFFFFFFFFFFFFFFFFFFFFFFFFFFFFFF AND PUSH20 0xFFFFFFFFFFFFFFFFFFFFFFFFFFFFFFFFFFFFFFFF AND DUP2 MSTORE PUSH1 0x20 ADD PUSH1 0x1 DUP3 ADD SLOAD DUP2 MSTORE PUSH1 0x20 ADD PUSH1 0x2 DUP3 ADD DUP1 SLOAD PUSH2 0x239 SWAP1 PUSH2 0xA85 JUMP JUMPDEST DUP1 PUSH1 0x1F ADD PUSH1 0x20 DUP1 SWAP2 DIV MUL PUSH1 0x20 ADD PUSH1 0x40 MLOAD SWAP1 DUP2 ADD PUSH1 0x40 MSTORE DUP1 SWAP3 SWAP2 SWAP1 DUP2 DUP2 MSTORE PUSH1 0x20 ADD DUP3 DUP1 SLOAD PUSH2 0x265 SWAP1 PUSH2 0xA85 JUMP JUMPDEST DUP1 ISZERO PUSH2 0x2B2 JUMPI DUP1 PUSH1 0x1F LT PUSH2 0x287 JUMPI PUSH2 0x100 DUP1 DUP4 SLOAD DIV MUL DUP4 MSTORE SWAP2 PUSH1 0x20 ADD SWAP2 PUSH2 0x2B2 JUMP JUMPDEST DUP3 ADD SWAP2 SWAP1 PUSH1 0x0 MSTORE PUSH1 0x20 PUSH1 0x0 KECCAK256 SWAP1 JUMPDEST DUP2 SLOAD DUP2 MSTORE SWAP1 PUSH1 0x1 ADD SWAP1 PUSH1 0x20 ADD DUP1 DUP4 GT PUSH2 0x295 JUMPI DUP3 SWAP1 SUB PUSH1 0x1F AND DUP3 ADD SWAP2 JUMPDEST POP POP POP POP POP DUP2 MSTORE PUSH1 0x20 ADD PUSH1 0x3 DUP3 ADD SLOAD DUP2 MSTORE POP POP SWAP1 POP DUP1 PUSH1 0x0 ADD MLOAD PUSH20 0xFFFFFFFFFFFFFFFFFFFFFFFFFFFFFFFFFFFFFFFF AND CALLER PUSH20 0xFFFFFFFFFFFFFFFFFFFFFFFFFFFFFFFFFFFFFFFF AND EQ ISZERO PUSH2 0x33A JUMPI PUSH1 0x40 MLOAD PUSH32 0x8C379A000000000000000000000000000000000000000000000000000000000 DUP2 MSTORE PUSH1 0x4 ADD PUSH2 0x331 SWAP1 PUSH2 0x857 JUMP JUMPDEST PUSH1 0x40 MLOAD DUP1 SWAP2 SUB SWAP1 REVERT JUMPDEST PUSH1 0x0 CALLVALUE EQ ISZERO PUSH2 0x37E JUMPI PUSH1 0x40 MLOAD PUSH32 0x8C379A000000000000000000000000000000000000000000000000000000000 DUP2 MSTORE PUSH1 0x4 ADD PUSH2 0x375 SWAP1 PUSH2 0x877 JUMP JUMPDEST PUSH1 0x40 MLOAD DUP1 SWAP2 SUB SWAP1 REVERT JUMPDEST PUSH2 0x190 DUP2 PUSH1 0x60 ADD MLOAD LT PUSH2 0x3C6 JUMPI PUSH1 0x40 MLOAD PUSH32 0x8C379A000000000000000000000000000000000000000000000000000000000 DUP2 MSTORE PUSH1 0x4 ADD PUSH2 0x3BD SWAP1 PUSH2 0x897 JUMP JUMPDEST PUSH1 0x40 MLOAD DUP1 SWAP2 SUB SWAP1 REVERT JUMPDEST PUSH8 0xDE0B6B3A7640000 DUP2 PUSH1 0x20 ADD MLOAD PUSH2 0x3DE SWAP2 SWAP1 PUSH2 0x9E0 JUMP JUMPDEST CALLVALUE LT ISZERO PUSH2 0x420 JUMPI PUSH1 0x40 MLOAD PUSH32 0x8C379A000000000000000000000000000000000000000000000000000000000 DUP2 MSTORE PUSH1 0x4 ADD PUSH2 0x417 SWAP1 PUSH2 0x8B7 JUMP JUMPDEST PUSH1 0x40 MLOAD DUP1 SWAP2 SUB SWAP1 REVERT JUMPDEST PUSH1 0x1 PUSH1 0x0 DUP4 DUP2 MSTORE PUSH1 0x20 ADD SWAP1 DUP2 MSTORE PUSH1 0x20 ADD PUSH1 0x0 KECCAK256 PUSH1 0x40 MLOAD DUP1 PUSH1 0x80 ADD PUSH1 0x40 MSTORE DUP1 CALLER PUSH20 0xFFFFFFFFFFFFFFFFFFFFFFFFFFFFFFFFFFFFFFFF AND DUP2 MSTORE PUSH1 0x20 ADD CALLVALUE DUP2 MSTORE PUSH1 0x20 ADD TIMESTAMP DUP2 MSTORE PUSH1 0x20 ADD PUSH1 0x0 ISZERO ISZERO DUP2 MSTORE POP SWAP1 DUP1 PUSH1 0x1 DUP2 SLOAD ADD DUP1 DUP3 SSTORE DUP1 SWAP2 POP POP PUSH1 0x1 SWAP1 SUB SWAP1 PUSH1 0x0 MSTORE PUSH1 0x20 PUSH1 0x0 KECCAK256 SWAP1 PUSH1 0x4 MUL ADD PUSH1 0x0 SWAP1 SWAP2 SWAP1 SWAP2 SWAP1 SWAP2 POP PUSH1 0x0 DUP3 ADD MLOAD DUP2 PUSH1 0x0 ADD PUSH1 0x0 PUSH2 0x100 EXP DUP2 SLOAD DUP2 PUSH20 0xFFFFFFFFFFFFFFFFFFFFFFFFFFFFFFFFFFFFFFFF MUL NOT AND SWAP1 DUP4 PUSH20 0xFFFFFFFFFFFFFFFFFFFFFFFFFFFFFFFFFFFFFFFF AND MUL OR SWAP1 SSTORE POP PUSH1 0x20 DUP3 ADD MLOAD DUP2 PUSH1 0x1 ADD SSTORE PUSH1 0x40 DUP3 ADD MLOAD DUP2 PUSH1 0x2 ADD SSTORE PUSH1 0x60 DUP3 ADD MLOAD DUP2 PUSH1 0x3 ADD PUSH1 0x0 PUSH2 0x100 EXP DUP2 SLOAD DUP2 PUSH1 0xFF MUL NOT AND SWAP1 DUP4 ISZERO ISZERO MUL OR SWAP1 SSTORE POP POP POP CALLVALUE PUSH1 0x2 PUSH1 0x0 ADDRESS PUSH20 0xFFFFFFFFFFFFFFFFFFFFFFFFFFFFFFFFFFFFFFFF AND PUSH20 0xFFFFFFFFFFFFFFFFFFFFFFFFFFFFFFFFFFFFFFFF AND DUP2 MSTORE PUSH1 0x20 ADD SWAP1 DUP2 MSTORE PUSH1 0x20 ADD PUSH1 0x0 KECCAK256 PUSH1 0x0 DUP3 DUP3 SLOAD PUSH2 0x562 SWAP2 SWAP1 PUSH2 0x959 JUMP JUMPDEST SWAP3 POP POP DUP2 SWAP1 SSTORE POP POP POP JUMP JUMPDEST PUSH1 0x0 PUSH8 0xDE0B6B3A7640000 PUSH1 0x2 PUSH1 0x0 DUP5 PUSH20 0xFFFFFFFFFFFFFFFFFFFFFFFFFFFFFFFFFFFFFFFF AND PUSH20 0xFFFFFFFFFFFFFFFFFFFFFFFFFFFFFFFFFFFFFFFF AND DUP2 MSTORE PUSH1 0x20 ADD SWAP1 DUP2 MSTORE PUSH1 0x20 ADD PUSH1 0x0 KECCAK256 SLOAD PUSH2 0x5C2 SWAP2 SWAP1 PUSH2 0x9AF JUMP JUMPDEST SWAP1 POP SWAP2 SWAP1 POP JUMP JUMPDEST DUP3 DUP1 SLOAD PUSH2 0x5D5 SWAP1 PUSH2 0xA85 JUMP JUMPDEST SWAP1 PUSH1 0x0 MSTORE PUSH1 0x20 PUSH1 0x0 KECCAK256 SWAP1 PUSH1 0x1F ADD PUSH1 0x20 SWAP1 DIV DUP2 ADD SWAP3 DUP3 PUSH2 0x5F7 JUMPI PUSH1 0x0 DUP6 SSTORE PUSH2 0x63E JUMP JUMPDEST DUP3 PUSH1 0x1F LT PUSH2 0x610 JUMPI DUP1 MLOAD PUSH1 0xFF NOT AND DUP4 DUP1 ADD OR DUP6 SSTORE PUSH2 0x63E JUMP JUMPDEST DUP3 DUP1 ADD PUSH1 0x1 ADD DUP6 SSTORE DUP3 ISZERO PUSH2 0x63E JUMPI SWAP2 DUP3 ADD JUMPDEST DUP3 DUP2 GT ISZERO PUSH2 0x63D JUMPI DUP3 MLOAD DUP3 SSTORE SWAP2 PUSH1 0x20 ADD SWAP2 SWAP1 PUSH1 0x1 ADD SWAP1 PUSH2 0x622 JUMP JUMPDEST JUMPDEST POP SWAP1 POP PUSH2 0x64B SWAP2 SWAP1 PUSH2 0x64F JUMP JUMPDEST POP SWAP1 JUMP JUMPDEST JUMPDEST DUP1 DUP3 GT ISZERO PUSH2 0x668 JUMPI PUSH1 0x0 DUP2 PUSH1 0x0 SWAP1 SSTORE POP PUSH1 0x1 ADD PUSH2 0x650 JUMP JUMPDEST POP SWAP1 JUMP JUMPDEST PUSH1 0x0 PUSH2 0x67F PUSH2 0x67A DUP5 PUSH2 0x917 JUMP JUMPDEST PUSH2 0x8F2 JUMP JUMPDEST SWAP1 POP DUP3 DUP2 MSTORE PUSH1 0x20 DUP2 ADD DUP5 DUP5 DUP5 ADD GT ISZERO PUSH2 0x69B JUMPI PUSH2 0x69A PUSH2 0xBD8 JUMP JUMPDEST JUMPDEST PUSH2 0x6A6 DUP5 DUP3 DUP6 PUSH2 0xA76 JUMP JUMPDEST POP SWAP4 SWAP3 POP POP POP JUMP JUMPDEST PUSH1 0x0 DUP2 CALLDATALOAD SWAP1 POP PUSH2 0x6BD DUP2 PUSH2 0xCC2 JUMP JUMPDEST SWAP3 SWAP2 POP POP JUMP JUMPDEST PUSH1 0x0 DUP3 PUSH1 0x1F DUP4 ADD SLT PUSH2 0x6D8 JUMPI PUSH2 0x6D7 PUSH2 0xBD3 JUMP JUMPDEST JUMPDEST DUP2 CALLDATALOAD PUSH2 0x6E8 DUP5 DUP3 PUSH1 0x20 DUP7 ADD PUSH2 0x66C JUMP JUMPDEST SWAP2 POP POP SWAP3 SWAP2 POP POP JUMP JUMPDEST PUSH1 0x0 DUP2 CALLDATALOAD SWAP1 POP PUSH2 0x700 DUP2 PUSH2 0xCD9 JUMP JUMPDEST SWAP3 SWAP2 POP POP JUMP JUMPDEST PUSH1 0x0 PUSH1 0x20 DUP3 DUP5 SUB SLT ISZERO PUSH2 0x71C JUMPI PUSH2 0x71B PUSH2 0xBE2 JUMP JUMPDEST JUMPDEST PUSH1 0x0 PUSH2 0x72A DUP5 DUP3 DUP6 ADD PUSH2 0x6AE JUMP JUMPDEST SWAP2 POP POP SWAP3 SWAP2 POP POP JUMP JUMPDEST PUSH1 0x0 DUP1 PUSH1 0x40 DUP4 DUP6 SUB SLT ISZERO PUSH2 0x74A JUMPI PUSH2 0x749 PUSH2 0xBE2 JUMP JUMPDEST JUMPDEST PUSH1 0x0 DUP4 ADD CALLDATALOAD PUSH8 0xFFFFFFFFFFFFFFFF DUP2 GT ISZERO PUSH2 0x768 JUMPI PUSH2 0x767 PUSH2 0xBDD JUMP JUMPDEST JUMPDEST PUSH2 0x774 DUP6 DUP3 DUP7 ADD PUSH2 0x6C3 JUMP JUMPDEST SWAP3 POP POP PUSH1 0x20 PUSH2 0x785 DUP6 DUP3 DUP7 ADD PUSH2 0x6F1 JUMP JUMPDEST SWAP2 POP POP SWAP3 POP SWAP3 SWAP1 POP JUMP JUMPDEST PUSH1 0x0 PUSH1 0x20 DUP3 DUP5 SUB SLT ISZERO PUSH2 0x7A5 JUMPI PUSH2 0x7A4 PUSH2 0xBE2 JUMP JUMPDEST JUMPDEST PUSH1 0x0 PUSH2 0x7B3 DUP5 DUP3 DUP6 ADD PUSH2 0x6F1 JUMP JUMPDEST SWAP2 POP POP SWAP3 SWAP2 POP POP JUMP JUMPDEST PUSH1 0x0 PUSH2 0x7C9 PUSH1 0x1E DUP4 PUSH2 0x948 JUMP JUMPDEST SWAP2 POP PUSH2 0x7D4 DUP3 PUSH2 0xBF8 JUMP JUMPDEST PUSH1 0x20 DUP3 ADD SWAP1 POP SWAP2 SWAP1 POP JUMP JUMPDEST PUSH1 0x0 PUSH2 0x7EC PUSH1 0x15 DUP4 PUSH2 0x948 JUMP JUMPDEST SWAP2 POP PUSH2 0x7F7 DUP3 PUSH2 0xC21 JUMP JUMPDEST PUSH1 0x20 DUP3 ADD SWAP1 POP SWAP2 SWAP1 POP JUMP JUMPDEST PUSH1 0x0 PUSH2 0x80F PUSH1 0x18 DUP4 PUSH2 0x948 JUMP JUMPDEST SWAP2 POP PUSH2 0x81A DUP3 PUSH2 0xC4A JUMP JUMPDEST PUSH1 0x20 DUP3 ADD SWAP1 POP SWAP2 SWAP1 POP JUMP JUMPDEST PUSH1 0x0 PUSH2 0x832 PUSH1 0x2C DUP4 PUSH2 0x948 JUMP JUMPDEST SWAP2 POP PUSH2 0x83D DUP3 PUSH2 0xC73 JUMP JUMPDEST PUSH1 0x40 DUP3 ADD SWAP1 POP SWAP2 SWAP1 POP JUMP JUMPDEST PUSH2 0x851 DUP2 PUSH2 0xA6C JUMP JUMPDEST DUP3 MSTORE POP POP JUMP JUMPDEST PUSH1 0x0 PUSH1 0x20 DUP3 ADD SWAP1 POP DUP2 DUP2 SUB PUSH1 0x0 DUP4 ADD MSTORE PUSH2 0x870 DUP2 PUSH2 0x7BC JUMP JUMPDEST SWAP1 POP SWAP2 SWAP1 POP JUMP JUMPDEST PUSH1 0x0 PUSH1 0x20 DUP3 ADD SWAP1 POP DUP2 DUP2 SUB PUSH1 0x0 DUP4 ADD MSTORE PUSH2 0x890 DUP2 PUSH2 0x7DF JUMP JUMPDEST SWAP1 POP SWAP2 SWAP1 POP JUMP JUMPDEST PUSH1 0x0 PUSH1 0x20 DUP3 ADD SWAP1 POP DUP2 DUP2 SUB PUSH1 0x0 DUP4 ADD MSTORE PUSH2 0x8B0 DUP2 PUSH2 0x802 JUMP JUMPDEST SWAP1 POP SWAP2 SWAP1 POP JUMP JUMPDEST PUSH1 0x0 PUSH1 0x20 DUP3 ADD SWAP1 POP DUP2 DUP2 SUB PUSH1 0x0 DUP4 ADD MSTORE PUSH2 0x8D0 DUP2 PUSH2 0x825 JUMP JUMPDEST SWAP1 POP SWAP2 SWAP1 POP JUMP JUMPDEST PUSH1 0x0 PUSH1 0x20 DUP3 ADD SWAP1 POP PUSH2 0x8EC PUSH1 0x0 DUP4 ADD DUP5 PUSH2 0x848 JUMP JUMPDEST SWAP3 SWAP2 POP POP JUMP JUMPDEST PUSH1 0x0 PUSH2 0x8FC PUSH2 0x90D JUMP JUMPDEST SWAP1 POP PUSH2 0x908 DUP3 DUP3 PUSH2 0xAB7 JUMP JUMPDEST SWAP2 SWAP1 POP JUMP JUMPDEST PUSH1 0x0 PUSH1 0x40 MLOAD SWAP1 POP SWAP1 JUMP JUMPDEST PUSH1 0x0 PUSH8 0xFFFFFFFFFFFFFFFF DUP3 GT ISZERO PUSH2 0x932 JUMPI PUSH2 0x931 PUSH2 0xBA4 JUMP JUMPDEST JUMPDEST PUSH2 0x93B DUP3 PUSH2 0xBE7 JUMP JUMPDEST SWAP1 POP PUSH1 0x20 DUP2 ADD SWAP1 POP SWAP2 SWAP1 POP JUMP JUMPDEST PUSH1 0x0 DUP3 DUP3 MSTORE PUSH1 0x20 DUP3 ADD SWAP1 POP SWAP3 SWAP2 POP POP JUMP JUMPDEST PUSH1 0x0 PUSH2 0x964 DUP3 PUSH2 0xA6C JUMP JUMPDEST SWAP2 POP PUSH2 0x96F DUP4 PUSH2 0xA6C JUMP JUMPDEST SWAP3 POP DUP3 PUSH32 0xFFFFFFFFFFFFFFFFFFFFFFFFFFFFFFFFFFFFFFFFFFFFFFFFFFFFFFFFFFFFFFFF SUB DUP3 GT ISZERO PUSH2 0x9A4 JUMPI PUSH2 0x9A3 PUSH2 0xAE8 JUMP JUMPDEST JUMPDEST DUP3 DUP3 ADD SWAP1 POP SWAP3 SWAP2 POP POP JUMP JUMPDEST PUSH1 0x0 PUSH2 0x9BA DUP3 PUSH2 0xA6C JUMP JUMPDEST SWAP2 POP PUSH2 0x9C5 DUP4 PUSH2 0xA6C JUMP JUMPDEST SWAP3 POP DUP3 PUSH2 0x9D5 JUMPI PUSH2 0x9D4 PUSH2 0xB17 JUMP JUMPDEST JUMPDEST DUP3 DUP3 DIV SWAP1 POP SWAP3 SWAP2 POP POP JUMP JUMPDEST PUSH1 0x0 PUSH2 0x9EB DUP3 PUSH2 0xA6C JUMP JUMPDEST SWAP2 POP PUSH2 0x9F6 DUP4 PUSH2 0xA6C JUMP JUMPDEST SWAP3 POP DUP2 PUSH32 0xFFFFFFFFFFFFFFFFFFFFFFFFFFFFFFFFFFFFFFFFFFFFFFFFFFFFFFFFFFFFFFFF DIV DUP4 GT DUP3 ISZERO ISZERO AND ISZERO PUSH2 0xA2F JUMPI PUSH2 0xA2E PUSH2 0xAE8 JUMP JUMPDEST JUMPDEST DUP3 DUP3 MUL SWAP1 POP SWAP3 SWAP2 POP POP JUMP JUMPDEST PUSH1 0x0 PUSH2 0xA45 DUP3 PUSH2 0xA4C JUMP JUMPDEST SWAP1 POP SWAP2 SWAP1 POP JUMP JUMPDEST PUSH1 0x0 PUSH20 0xFFFFFFFFFFFFFFFFFFFFFFFFFFFFFFFFFFFFFFFF DUP3 AND SWAP1 POP SWAP2 SWAP1 POP JUMP JUMPDEST PUSH1 0x0 DUP2 SWAP1 POP SWAP2 SWAP1 POP JUMP JUMPDEST DUP3 DUP2 DUP4 CALLDATACOPY PUSH1 0x0 DUP4 DUP4 ADD MSTORE POP POP POP JUMP JUMPDEST PUSH1 0x0 PUSH1 0x2 DUP3 DIV SWAP1 POP PUSH1 0x1 DUP3 AND DUP1 PUSH2 0xA9D JUMPI PUSH1 0x7F DUP3 AND SWAP2 POP JUMPDEST PUSH1 0x20 DUP3 LT DUP2 EQ ISZERO PUSH2 0xAB1 JUMPI PUSH2 0xAB0 PUSH2 0xB46 JUMP JUMPDEST JUMPDEST POP SWAP2 SWAP1 POP JUMP JUMPDEST PUSH2 0xAC0 DUP3 PUSH2 0xBE7 JUMP JUMPDEST DUP2 ADD DUP2 DUP2 LT PUSH8 0xFFFFFFFFFFFFFFFF DUP3 GT OR ISZERO PUSH2 0xADF JUMPI PUSH2 0xADE PUSH2 0xBA4 JUMP JUMPDEST JUMPDEST DUP1 PUSH1 0x40 MSTORE POP POP POP JUMP JUMPDEST PUSH32 0x4E487B7100000000000000000000000000000000000000000000000000000000 PUSH1 0x0 MSTORE PUSH1 0x11 PUSH1 0x4 MSTORE PUSH1 0x24 PUSH1 0x0 REVERT JUMPDEST PUSH32 0x4E487B7100000000000000000000000000000000000000000000000000000000 PUSH1 0x0 MSTORE PUSH1 0x12 PUSH1 0x4 MSTORE PUSH1 0x24 PUSH1 0x0 REVERT JUMPDEST PUSH32 0x4E487B7100000000000000000000000000000000000000000000000000000000 PUSH1 0x0 MSTORE PUSH1 0x22 PUSH1 0x4 MSTORE PUSH1 0x24 PUSH1 0x0 REVERT JUMPDEST PUSH32 0x4E487B7100000000000000000000000000000000000000000000000000000000 PUSH1 0x0 MSTORE PUSH1 0x32 PUSH1 0x4 MSTORE PUSH1 0x24 PUSH1 0x0 REVERT JUMPDEST PUSH32 0x4E487B7100000000000000000000000000000000000000000000000000000000 PUSH1 0x0 MSTORE PUSH1 0x41 PUSH1 0x4 MSTORE PUSH1 0x24 PUSH1 0x0 REVERT JUMPDEST PUSH1 0x0 DUP1 REVERT JUMPDEST PUSH1 0x0 DUP1 REVERT JUMPDEST PUSH1 0x0 DUP1 REVERT JUMPDEST PUSH1 0x0 DUP1 REVERT JUMPDEST PUSH1 0x0 PUSH1 0x1F NOT PUSH1 0x1F DUP4 ADD AND SWAP1 POP SWAP2 SWAP1 POP JUMP JUMPDEST PUSH32 0x596F752063616E277420626964206F6E20796F7572206F776E20706F73740000 PUSH1 0x0 DUP3 ADD MSTORE POP JUMP JUMPDEST PUSH32 0x496E76616C696420616D6F756E74206F66204269640000000000000000000000 PUSH1 0x0 DUP3 ADD MSTORE POP JUMP JUMPDEST PUSH32 0x546869732061756374696F6E2069732066696E69736865640000000000000000 PUSH1 0x0 DUP3 ADD MSTORE POP JUMP JUMPDEST PUSH32 0x5468697320626964206E6565647320746F206265206D6F7265207468616E206D PUSH1 0x0 DUP3 ADD MSTORE PUSH32 0x696E206269642076616C75650000000000000000000000000000000000000000 PUSH1 0x20 DUP3 ADD MSTORE POP JUMP JUMPDEST PUSH2 0xCCB DUP2 PUSH2 0xA3A JUMP JUMPDEST DUP2 EQ PUSH2 0xCD6 JUMPI PUSH1 0x0 DUP1 REVERT JUMPDEST POP JUMP JUMPDEST PUSH2 0xCE2 DUP2 PUSH2 0xA6C JUMP JUMPDEST DUP2 EQ PUSH2 0xCED JUMPI PUSH1 0x0 DUP1 REVERT JUMPDEST POP JUMP INVALID LOG2 PUSH5 0x6970667358 0x22 SLT KECCAK256 0xDA 0xDE CREATE2 MSTORE NUMBER 0xC8 SGT 0x5C CREATE 0xB5 0xD5 0xD0 0xE4 SWAP7 0x4C DUP7 0x5E 0x2A DUP11 0xC8 DUP12 0xEE 0xC4 DUP5 MULMOD 0xD1 EXP 0xD5 POP LOG2 0xB5 DUP10 PUSH5 0x736F6C6343 STOP ADDMOD SMOD STOP CALLER "
				},
				"gasEstimates": {
					"creation": {
						"codeDepositCost": "673200",
						"executionCost": "708",
						"totalCost": "673908"
					},
					"external": {
						"createBid(uint256)": "infinite",
						"createPost(string,uint256)": "infinite",
						"getBalance(address)": "infinite"
					}
				},
				"methodIdentifiers": {
					"createBid(uint256)": "659dd2b4",
					"createPost(string,uint256)": "1252cb48",
					"getBalance(address)": "f8b2cb4f"
				}
			},
			"storageLayout": {
				"storage": [
					{
						"astId": 23,
						"contract": "contracts/Auction.sol:Auction",
						"label": "posts",
						"offset": 0,
						"slot": "0",
						"type": "t_array(t_struct(Post)10_storage)dyn_storage"
					},
					{
						"astId": 29,
						"contract": "contracts/Auction.sol:Auction",
						"label": "bids",
						"offset": 0,
						"slot": "1",
						"type": "t_mapping(t_uint256,t_array(t_struct(Bid)19_storage)dyn_storage)"
					},
					{
						"astId": 33,
						"contract": "contracts/Auction.sol:Auction",
						"label": "balances",
						"offset": 0,
						"slot": "2",
						"type": "t_mapping(t_address,t_uint256)"
					}
				],
				"types": {
					"t_address": {
						"encoding": "inplace",
						"label": "address",
						"numberOfBytes": "20"
					},
					"t_address_payable": {
						"encoding": "inplace",
						"label": "address payable",
						"numberOfBytes": "20"
					},
					"t_array(t_struct(Bid)19_storage)dyn_storage": {
						"base": "t_struct(Bid)19_storage",
						"encoding": "dynamic_array",
						"label": "struct Auction.Bid[]",
						"numberOfBytes": "32"
					},
					"t_array(t_struct(Post)10_storage)dyn_storage": {
						"base": "t_struct(Post)10_storage",
						"encoding": "dynamic_array",
						"label": "struct Auction.Post[]",
						"numberOfBytes": "32"
					},
					"t_bool": {
						"encoding": "inplace",
						"label": "bool",
						"numberOfBytes": "1"
					},
					"t_mapping(t_address,t_uint256)": {
						"encoding": "mapping",
						"key": "t_address",
						"label": "mapping(address => uint256)",
						"numberOfBytes": "32",
						"value": "t_uint256"
					},
					"t_mapping(t_uint256,t_array(t_struct(Bid)19_storage)dyn_storage)": {
						"encoding": "mapping",
						"key": "t_uint256",
						"label": "mapping(uint256 => struct Auction.Bid[])",
						"numberOfBytes": "32",
						"value": "t_array(t_struct(Bid)19_storage)dyn_storage"
					},
					"t_string_storage": {
						"encoding": "bytes",
						"label": "string",
						"numberOfBytes": "32"
					},
					"t_struct(Bid)19_storage": {
						"encoding": "inplace",
						"label": "struct Auction.Bid",
						"members": [
							{
								"astId": 12,
								"contract": "contracts/Auction.sol:Auction",
								"label": "buyer",
								"offset": 0,
								"slot": "0",
								"type": "t_address_payable"
							},
							{
								"astId": 14,
								"contract": "contracts/Auction.sol:Auction",
								"label": "amount",
								"offset": 0,
								"slot": "1",
								"type": "t_uint256"
							},
							{
								"astId": 16,
								"contract": "contracts/Auction.sol:Auction",
								"label": "time",
								"offset": 0,
								"slot": "2",
								"type": "t_uint256"
							},
							{
								"astId": 18,
								"contract": "contracts/Auction.sol:Auction",
								"label": "isFinished",
								"offset": 0,
								"slot": "3",
								"type": "t_bool"
							}
						],
						"numberOfBytes": "128"
					},
					"t_struct(Post)10_storage": {
						"encoding": "inplace",
						"label": "struct Auction.Post",
						"members": [
							{
								"astId": 3,
								"contract": "contracts/Auction.sol:Auction",
								"label": "seller",
								"offset": 0,
								"slot": "0",
								"type": "t_address_payable"
							},
							{
								"astId": 5,
								"contract": "contracts/Auction.sol:Auction",
								"label": "minBid",
								"offset": 0,
								"slot": "1",
								"type": "t_uint256"
							},
							{
								"astId": 7,
								"contract": "contracts/Auction.sol:Auction",
								"label": "name",
								"offset": 0,
								"slot": "2",
								"type": "t_string_storage"
							},
							{
								"astId": 9,
								"contract": "contracts/Auction.sol:Auction",
								"label": "time",
								"offset": 0,
								"slot": "3",
								"type": "t_uint256"
							}
						],
						"numberOfBytes": "128"
					},
					"t_uint256": {
						"encoding": "inplace",
						"label": "uint256",
						"numberOfBytes": "32"
					}
				}
			},
			"userdoc": {
				"kind": "user",
				"methods": {},
				"version": 1
			}
		}
	}
}