{
	"contracts/Auction.sol": {
		"Auction": {
			"abi": [
				{
					"inputs": [
						{
							"internalType": "uint256",
							"name": "_postId",
							"type": "uint256"
						},
						{
							"internalType": "uint256",
							"name": "_bidId",
							"type": "uint256"
						}
					],
					"name": "acceptBid",
					"outputs": [],
					"stateMutability": "payable",
					"type": "function"
				},
				{
					"inputs": [
						{
							"internalType": "uint256",
							"name": "_postId",
							"type": "uint256"
						}
					],
					"name": "createBid",
					"outputs": [],
					"stateMutability": "payable",
					"type": "function"
				},
				{
					"inputs": [
						{
							"internalType": "string",
							"name": "_name",
							"type": "string"
						},
						{
							"internalType": "uint256",
							"name": "_minBid",
							"type": "uint256"
						}
					],
					"name": "createPost",
					"outputs": [],
					"stateMutability": "nonpayable",
					"type": "function"
				},
				{
					"inputs": [
						{
							"internalType": "address",
							"name": "_address",
							"type": "address"
						}
					],
					"name": "getBalance",
					"outputs": [
						{
							"internalType": "uint256",
							"name": "",
							"type": "uint256"
						}
					],
					"stateMutability": "view",
					"type": "function"
				},
				{
					"inputs": [
						{
							"internalType": "uint256",
							"name": "_postId",
							"type": "uint256"
						},
						{
							"internalType": "uint256",
							"name": "_bidId",
							"type": "uint256"
						}
					],
					"name": "getPostBid",
					"outputs": [
						{
							"internalType": "address",
							"name": "buyer",
							"type": "address"
						},
						{
							"internalType": "uint256",
							"name": "amount",
							"type": "uint256"
						},
						{
							"internalType": "uint256",
							"name": "time",
							"type": "uint256"
						}
					],
					"stateMutability": "view",
					"type": "function"
				},
				{
					"inputs": [
						{
							"internalType": "uint256",
							"name": "_postId",
							"type": "uint256"
						}
					],
					"name": "getTotalBids",
					"outputs": [
						{
							"internalType": "uint256",
							"name": "",
							"type": "uint256"
						}
					],
					"stateMutability": "view",
					"type": "function"
				}
			],
			"devdoc": {
				"kind": "dev",
				"methods": {},
				"version": 1
			},
			"evm": {
				"assembly": "    /* \"contracts/Auction.sol\":27:2767  contract Auction{\r... */\n  mstore(0x40, 0x80)\n  callvalue\n  dup1\n  iszero\n  tag_1\n  jumpi\n  0x00\n  dup1\n  revert\ntag_1:\n  pop\n  dataSize(sub_0)\n  dup1\n  dataOffset(sub_0)\n  0x00\n  codecopy\n  0x00\n  return\nstop\n\nsub_0: assembly {\n        /* \"contracts/Auction.sol\":27:2767  contract Auction{\r... */\n      mstore(0x40, 0x80)\n      jumpi(tag_1, lt(calldatasize, 0x04))\n      shr(0xe0, calldataload(0x00))\n      dup1\n      0x02e9d5e4\n      eq\n      tag_2\n      jumpi\n      dup1\n      0x1252cb48\n      eq\n      tag_3\n      jumpi\n      dup1\n      0x659dd2b4\n      eq\n      tag_4\n      jumpi\n      dup1\n      0x8e5bc606\n      eq\n      tag_5\n      jumpi\n      dup1\n      0xe135268d\n      eq\n      tag_6\n      jumpi\n      dup1\n      0xf8b2cb4f\n      eq\n      tag_7\n      jumpi\n    tag_1:\n      0x00\n      dup1\n      revert\n        /* \"contracts/Auction.sol\":2381:2764  function acceptBid(uint _postId,uint _bidId) public payable {\r... */\n    tag_2:\n      tag_8\n      0x04\n      dup1\n      calldatasize\n      sub\n      dup2\n      add\n      swap1\n      tag_9\n      swap2\n      swap1\n      tag_10\n      jump\t// in\n    tag_9:\n      tag_11\n      jump\t// in\n    tag_8:\n      stop\n        /* \"contracts/Auction.sol\":629:805  function createPost (string memory _name,uint _minBid) public {\r... */\n    tag_3:\n      callvalue\n      dup1\n      iszero\n      tag_12\n      jumpi\n      0x00\n      dup1\n      revert\n    tag_12:\n      pop\n      tag_13\n      0x04\n      dup1\n      calldatasize\n      sub\n      dup2\n      add\n      swap1\n      tag_14\n      swap2\n      swap1\n      tag_15\n      jump\t// in\n    tag_14:\n      tag_16\n      jump\t// in\n    tag_13:\n      stop\n        /* \"contracts/Auction.sol\":846:1601  function createBid (uint _postId) public payable {\r... */\n    tag_4:\n      tag_17\n      0x04\n      dup1\n      calldatasize\n      sub\n      dup2\n      add\n      swap1\n      tag_18\n      swap2\n      swap1\n      tag_19\n      jump\t// in\n    tag_18:\n      tag_20\n      jump\t// in\n    tag_17:\n      stop\n        /* \"contracts/Auction.sol\":1745:1968  function getTotalBids(uint _postId) public view returns (uint){\r... */\n    tag_5:\n      callvalue\n      dup1\n      iszero\n      tag_21\n      jumpi\n      0x00\n      dup1\n      revert\n    tag_21:\n      pop\n      tag_22\n      0x04\n      dup1\n      calldatasize\n      sub\n      dup2\n      add\n      swap1\n      tag_23\n      swap2\n      swap1\n      tag_19\n      jump\t// in\n    tag_23:\n      tag_24\n      jump\t// in\n    tag_22:\n      mload(0x40)\n      tag_25\n      swap2\n      swap1\n      tag_26\n      jump\t// in\n    tag_25:\n      mload(0x40)\n      dup1\n      swap2\n      sub\n      swap1\n      return\n        /* \"contracts/Auction.sol\":2023:2373  function getPostBid(uint _postId,uint _bidId) public view returns (address buyer , uint amount , uint time){\r... */\n    tag_6:\n      callvalue\n      dup1\n      iszero\n      tag_27\n      jumpi\n      0x00\n      dup1\n      revert\n    tag_27:\n      pop\n      tag_28\n      0x04\n      dup1\n      calldatasize\n      sub\n      dup2\n      add\n      swap1\n      tag_29\n      swap2\n      swap1\n      tag_10\n      jump\t// in\n    tag_29:\n      tag_30\n      jump\t// in\n    tag_28:\n      mload(0x40)\n      tag_31\n      swap4\n      swap3\n      swap2\n      swap1\n      tag_32\n      jump\t// in\n    tag_31:\n      mload(0x40)\n      dup1\n      swap2\n      sub\n      swap1\n      return\n        /* \"contracts/Auction.sol\":1609:1737  function getBalance(address _address) public view returns (uint){\r... */\n    tag_7:\n      callvalue\n      dup1\n      iszero\n      tag_33\n      jumpi\n      0x00\n      dup1\n      revert\n    tag_33:\n      pop\n      tag_34\n      0x04\n      dup1\n      calldatasize\n      sub\n      dup2\n      add\n      swap1\n      tag_35\n      swap2\n      swap1\n      tag_36\n      jump\t// in\n    tag_35:\n      tag_37\n      jump\t// in\n    tag_34:\n      mload(0x40)\n      tag_38\n      swap2\n      swap1\n      tag_26\n      jump\t// in\n    tag_38:\n      mload(0x40)\n      dup1\n      swap2\n      sub\n      swap1\n      return\n        /* \"contracts/Auction.sol\":2381:2764  function acceptBid(uint _postId,uint _bidId) public payable {\r... */\n    tag_11:\n        /* \"contracts/Auction.sol\":2452:2468  Post memory post */\n      0x00\n        /* \"contracts/Auction.sol\":2471:2476  posts */\n      dup1\n        /* \"contracts/Auction.sol\":2477:2484  _postId */\n      dup4\n        /* \"contracts/Auction.sol\":2471:2485  posts[_postId] */\n      dup2\n      sload\n      dup2\n      lt\n      tag_40\n      jumpi\n      tag_41\n      tag_42\n      jump\t// in\n    tag_41:\n    tag_40:\n      swap1\n      0x00\n      mstore\n      keccak256(0x00, 0x20)\n      swap1\n      0x04\n      mul\n      add\n        /* \"contracts/Auction.sol\":2452:2485  Post memory post = posts[_postId] */\n      mload(0x40)\n      dup1\n      0x80\n      add\n      0x40\n      mstore\n      swap1\n      dup2\n      0x00\n      dup3\n      add\n      0x00\n      swap1\n      sload\n      swap1\n      0x0100\n      exp\n      swap1\n      div\n      0xffffffffffffffffffffffffffffffffffffffff\n      and\n      0xffffffffffffffffffffffffffffffffffffffff\n      and\n      0xffffffffffffffffffffffffffffffffffffffff\n      and\n      dup2\n      mstore\n      0x20\n      add\n      0x01\n      dup3\n      add\n      sload\n      dup2\n      mstore\n      0x20\n      add\n      0x02\n      dup3\n      add\n      dup1\n      sload\n      tag_44\n      swap1\n      tag_45\n      jump\t// in\n    tag_44:\n      dup1\n      0x1f\n      add\n      0x20\n      dup1\n      swap2\n      div\n      mul\n      0x20\n      add\n      mload(0x40)\n      swap1\n      dup2\n      add\n      0x40\n      mstore\n      dup1\n      swap3\n      swap2\n      swap1\n      dup2\n      dup2\n      mstore\n      0x20\n      add\n      dup3\n      dup1\n      sload\n      tag_46\n      swap1\n      tag_45\n      jump\t// in\n    tag_46:\n      dup1\n      iszero\n      tag_47\n      jumpi\n      dup1\n      0x1f\n      lt\n      tag_48\n      jumpi\n      0x0100\n      dup1\n      dup4\n      sload\n      div\n      mul\n      dup4\n      mstore\n      swap2\n      0x20\n      add\n      swap2\n      jump(tag_47)\n    tag_48:\n      dup3\n      add\n      swap2\n      swap1\n      0x00\n      mstore\n      keccak256(0x00, 0x20)\n      swap1\n    tag_49:\n      dup2\n      sload\n      dup2\n      mstore\n      swap1\n      0x01\n      add\n      swap1\n      0x20\n      add\n      dup1\n      dup4\n      gt\n      tag_49\n      jumpi\n      dup3\n      swap1\n      sub\n      0x1f\n      and\n      dup3\n      add\n      swap2\n    tag_47:\n      pop\n      pop\n      pop\n      pop\n      pop\n      dup2\n      mstore\n      0x20\n      add\n      0x03\n      dup3\n      add\n      sload\n      dup2\n      mstore\n      pop\n      pop\n      swap1\n      pop\n        /* \"contracts/Auction.sol\":2496:2511  Bid storage bid */\n      0x00\n        /* \"contracts/Auction.sol\":2514:2518  bids */\n      0x01\n        /* \"contracts/Auction.sol\":2514:2527  bids[_postId] */\n      0x00\n        /* \"contracts/Auction.sol\":2519:2526  _postId */\n      dup6\n        /* \"contracts/Auction.sol\":2514:2527  bids[_postId] */\n      dup2\n      mstore\n      0x20\n      add\n      swap1\n      dup2\n      mstore\n      0x20\n      add\n      0x00\n      keccak256\n        /* \"contracts/Auction.sol\":2528:2534  _bidId */\n      dup4\n        /* \"contracts/Auction.sol\":2514:2535  bids[_postId][_bidId] */\n      dup2\n      sload\n      dup2\n      lt\n      tag_50\n      jumpi\n      tag_51\n      tag_42\n      jump\t// in\n    tag_51:\n    tag_50:\n      swap1\n      0x00\n      mstore\n      keccak256(0x00, 0x20)\n      swap1\n      0x04\n      mul\n      add\n        /* \"contracts/Auction.sol\":2496:2535  Bid storage bid = bids[_postId][_bidId] */\n      swap1\n      pop\n        /* \"contracts/Auction.sol\":2566:2570  post */\n      dup2\n        /* \"contracts/Auction.sol\":2566:2577  post.seller */\n      0x00\n      add\n      mload\n        /* \"contracts/Auction.sol\":2554:2577  msg.sender==post.seller */\n      0xffffffffffffffffffffffffffffffffffffffff\n      and\n        /* \"contracts/Auction.sol\":2554:2564  msg.sender */\n      caller\n        /* \"contracts/Auction.sol\":2554:2577  msg.sender==post.seller */\n      0xffffffffffffffffffffffffffffffffffffffff\n      and\n      eq\n        /* \"contracts/Auction.sol\":2546:2606  require(msg.sender==post.seller,\"You don't have permission\") */\n      tag_53\n      jumpi\n      mload(0x40)\n      0x08c379a000000000000000000000000000000000000000000000000000000000\n      dup2\n      mstore\n      0x04\n      add\n      tag_54\n      swap1\n      tag_55\n      jump\t// in\n    tag_54:\n      mload(0x40)\n      dup1\n      swap2\n      sub\n      swap1\n      revert\n    tag_53:\n        /* \"contracts/Auction.sol\":2643:2648  false */\n      0x00\n        /* \"contracts/Auction.sol\":2625:2648  bid.isFinished == false */\n      iszero\n      iszero\n        /* \"contracts/Auction.sol\":2625:2628  bid */\n      dup2\n        /* \"contracts/Auction.sol\":2625:2639  bid.isFinished */\n      0x03\n      add\n      0x00\n      swap1\n      sload\n      swap1\n      0x0100\n      exp\n      swap1\n      div\n      0xff\n      and\n        /* \"contracts/Auction.sol\":2625:2648  bid.isFinished == false */\n      iszero\n      iszero\n      eq\n        /* \"contracts/Auction.sol\":2617:2675  require(bid.isFinished == false , \"The auction has ended\") */\n      tag_56\n      jumpi\n      mload(0x40)\n      0x08c379a000000000000000000000000000000000000000000000000000000000\n      dup2\n      mstore\n      0x04\n      add\n      tag_57\n      swap1\n      tag_58\n      jump\t// in\n    tag_57:\n      mload(0x40)\n      dup1\n      swap2\n      sub\n      swap1\n      revert\n    tag_56:\n        /* \"contracts/Auction.sol\":2711:2726  block.timestamp */\n      timestamp\n        /* \"contracts/Auction.sol\":2705:2708  400 */\n      0x0190\n        /* \"contracts/Auction.sol\":2694:2697  bid */\n      dup3\n        /* \"contracts/Auction.sol\":2694:2702  bid.time */\n      0x02\n      add\n      sload\n        /* \"contracts/Auction.sol\":2694:2708  bid.time + 400 */\n      tag_59\n      swap2\n      swap1\n      tag_60\n      jump\t// in\n    tag_59:\n        /* \"contracts/Auction.sol\":2694:2726  bid.time + 400 > block.timestamp */\n      gt\n        /* \"contracts/Auction.sol\":2686:2756  require(bid.time + 400 > block.timestamp , \"The bid has been expired\") */\n      tag_61\n      jumpi\n      mload(0x40)\n      0x08c379a000000000000000000000000000000000000000000000000000000000\n      dup2\n      mstore\n      0x04\n      add\n      tag_62\n      swap1\n      tag_63\n      jump\t// in\n    tag_62:\n      mload(0x40)\n      dup1\n      swap2\n      sub\n      swap1\n      revert\n    tag_61:\n        /* \"contracts/Auction.sol\":2441:2764  {\r... */\n      pop\n      pop\n        /* \"contracts/Auction.sol\":2381:2764  function acceptBid(uint _postId,uint _bidId) public payable {\r... */\n      pop\n      pop\n      jump\t// out\n        /* \"contracts/Auction.sol\":629:805  function createPost (string memory _name,uint _minBid) public {\r... */\n    tag_16:\n        /* \"contracts/Auction.sol\":702:707  posts */\n      0x00\n        /* \"contracts/Auction.sol\":713:796  Post({seller: payable(msg.sender),minBid: _minBid,name:_name,time:block.timestamp}) */\n      mload(0x40)\n      dup1\n      0x80\n      add\n      0x40\n      mstore\n      dup1\n        /* \"contracts/Auction.sol\":735:745  msg.sender */\n      caller\n        /* \"contracts/Auction.sol\":713:796  Post({seller: payable(msg.sender),minBid: _minBid,name:_name,time:block.timestamp}) */\n      0xffffffffffffffffffffffffffffffffffffffff\n      and\n      dup2\n      mstore\n      0x20\n      add\n        /* \"contracts/Auction.sol\":755:762  _minBid */\n      dup4\n        /* \"contracts/Auction.sol\":713:796  Post({seller: payable(msg.sender),minBid: _minBid,name:_name,time:block.timestamp}) */\n      dup2\n      mstore\n      0x20\n      add\n        /* \"contracts/Auction.sol\":768:773  _name */\n      dup5\n        /* \"contracts/Auction.sol\":713:796  Post({seller: payable(msg.sender),minBid: _minBid,name:_name,time:block.timestamp}) */\n      dup2\n      mstore\n      0x20\n      add\n        /* \"contracts/Auction.sol\":779:794  block.timestamp */\n      timestamp\n        /* \"contracts/Auction.sol\":713:796  Post({seller: payable(msg.sender),minBid: _minBid,name:_name,time:block.timestamp}) */\n      dup2\n      mstore\n      pop\n        /* \"contracts/Auction.sol\":702:797  posts.push(Post({seller: payable(msg.sender),minBid: _minBid,name:_name,time:block.timestamp})) */\n      swap1\n      dup1\n      0x01\n      dup2\n      sload\n      add\n      dup1\n      dup3\n      sstore\n      dup1\n      swap2\n      pop\n      pop\n      0x01\n      swap1\n      sub\n      swap1\n      0x00\n      mstore\n      keccak256(0x00, 0x20)\n      swap1\n      0x04\n      mul\n      add\n      0x00\n      swap1\n      swap2\n      swap1\n      swap2\n      swap1\n      swap2\n      pop\n      0x00\n      dup3\n      add\n      mload\n      dup2\n      0x00\n      add\n      exp(0x0100, 0x00)\n      dup2\n      sload\n      dup2\n      0xffffffffffffffffffffffffffffffffffffffff\n      mul\n      not\n      and\n      swap1\n      dup4\n      0xffffffffffffffffffffffffffffffffffffffff\n      and\n      mul\n      or\n      swap1\n      sstore\n      pop\n      0x20\n      dup3\n      add\n      mload\n      dup2\n      0x01\n      add\n      sstore\n      0x40\n      dup3\n      add\n      mload\n      dup2\n      0x02\n      add\n      swap1\n      dup1\n      mload\n      swap1\n      0x20\n      add\n      swap1\n      tag_66\n      swap3\n      swap2\n      swap1\n      tag_67\n      jump\t// in\n    tag_66:\n      pop\n      0x60\n      dup3\n      add\n      mload\n      dup2\n      0x03\n      add\n      sstore\n      pop\n      pop\n        /* \"contracts/Auction.sol\":629:805  function createPost (string memory _name,uint _minBid) public {\r... */\n      pop\n      pop\n      jump\t// out\n        /* \"contracts/Auction.sol\":846:1601  function createBid (uint _postId) public payable {\r... */\n    tag_20:\n        /* \"contracts/Auction.sol\":906:922  Post memory post */\n      0x00\n        /* \"contracts/Auction.sol\":925:930  posts */\n      dup1\n        /* \"contracts/Auction.sol\":931:938  _postId */\n      dup3\n        /* \"contracts/Auction.sol\":925:939  posts[_postId] */\n      dup2\n      sload\n      dup2\n      lt\n      tag_69\n      jumpi\n      tag_70\n      tag_42\n      jump\t// in\n    tag_70:\n    tag_69:\n      swap1\n      0x00\n      mstore\n      keccak256(0x00, 0x20)\n      swap1\n      0x04\n      mul\n      add\n        /* \"contracts/Auction.sol\":906:939  Post memory post = posts[_postId] */\n      mload(0x40)\n      dup1\n      0x80\n      add\n      0x40\n      mstore\n      swap1\n      dup2\n      0x00\n      dup3\n      add\n      0x00\n      swap1\n      sload\n      swap1\n      0x0100\n      exp\n      swap1\n      div\n      0xffffffffffffffffffffffffffffffffffffffff\n      and\n      0xffffffffffffffffffffffffffffffffffffffff\n      and\n      0xffffffffffffffffffffffffffffffffffffffff\n      and\n      dup2\n      mstore\n      0x20\n      add\n      0x01\n      dup3\n      add\n      sload\n      dup2\n      mstore\n      0x20\n      add\n      0x02\n      dup3\n      add\n      dup1\n      sload\n      tag_72\n      swap1\n      tag_45\n      jump\t// in\n    tag_72:\n      dup1\n      0x1f\n      add\n      0x20\n      dup1\n      swap2\n      div\n      mul\n      0x20\n      add\n      mload(0x40)\n      swap1\n      dup2\n      add\n      0x40\n      mstore\n      dup1\n      swap3\n      swap2\n      swap1\n      dup2\n      dup2\n      mstore\n      0x20\n      add\n      dup3\n      dup1\n      sload\n      tag_73\n      swap1\n      tag_45\n      jump\t// in\n    tag_73:\n      dup1\n      iszero\n      tag_74\n      jumpi\n      dup1\n      0x1f\n      lt\n      tag_75\n      jumpi\n      0x0100\n      dup1\n      dup4\n      sload\n      div\n      mul\n      dup4\n      mstore\n      swap2\n      0x20\n      add\n      swap2\n      jump(tag_74)\n    tag_75:\n      dup3\n      add\n      swap2\n      swap1\n      0x00\n      mstore\n      keccak256(0x00, 0x20)\n      swap1\n    tag_76:\n      dup2\n      sload\n      dup2\n      mstore\n      swap1\n      0x01\n      add\n      swap1\n      0x20\n      add\n      dup1\n      dup4\n      gt\n      tag_76\n      jumpi\n      dup3\n      swap1\n      sub\n      0x1f\n      and\n      dup3\n      add\n      swap2\n    tag_74:\n      pop\n      pop\n      pop\n      pop\n      pop\n      dup2\n      mstore\n      0x20\n      add\n      0x03\n      dup3\n      add\n      sload\n      dup2\n      mstore\n      pop\n      pop\n      swap1\n      pop\n        /* \"contracts/Auction.sol\":1026:1030  post */\n      dup1\n        /* \"contracts/Auction.sol\":1026:1037  post.seller */\n      0x00\n      add\n      mload\n        /* \"contracts/Auction.sol\":1013:1037  msg.sender!= post.seller */\n      0xffffffffffffffffffffffffffffffffffffffff\n      and\n        /* \"contracts/Auction.sol\":1013:1023  msg.sender */\n      caller\n        /* \"contracts/Auction.sol\":1013:1037  msg.sender!= post.seller */\n      0xffffffffffffffffffffffffffffffffffffffff\n      and\n      eq\n      iszero\n        /* \"contracts/Auction.sol\":1004:1071  require (msg.sender!= post.seller,\"You can't bid on your own post\") */\n      tag_77\n      jumpi\n      mload(0x40)\n      0x08c379a000000000000000000000000000000000000000000000000000000000\n      dup2\n      mstore\n      0x04\n      add\n      tag_78\n      swap1\n      tag_79\n      jump\t// in\n    tag_78:\n      mload(0x40)\n      dup1\n      swap2\n      sub\n      swap1\n      revert\n    tag_77:\n        /* \"contracts/Auction.sol\":1146:1147  0 */\n      0x00\n        /* \"contracts/Auction.sol\":1133:1142  msg.value */\n      callvalue\n        /* \"contracts/Auction.sol\":1133:1147  msg.value != 0 */\n      eq\n      iszero\n        /* \"contracts/Auction.sol\":1124:1173  require (msg.value != 0, \"Invalid amount of Bid\") */\n      tag_80\n      jumpi\n      mload(0x40)\n      0x08c379a000000000000000000000000000000000000000000000000000000000\n      dup2\n      mstore\n      0x04\n      add\n      tag_81\n      swap1\n      tag_82\n      jump\t// in\n    tag_81:\n      mload(0x40)\n      dup1\n      swap2\n      sub\n      swap1\n      revert\n    tag_80:\n        /* \"contracts/Auction.sol\":1205:1208  400 */\n      0x0190\n        /* \"contracts/Auction.sol\":1193:1197  post */\n      dup2\n        /* \"contracts/Auction.sol\":1193:1202  post.time */\n      0x60\n      add\n      mload\n        /* \"contracts/Auction.sol\":1193:1208  post.time < 400 */\n      lt\n        /* \"contracts/Auction.sol\":1184:1237  require (post.time < 400, \"This auction is finished\") */\n      tag_83\n      jumpi\n      mload(0x40)\n      0x08c379a000000000000000000000000000000000000000000000000000000000\n      dup2\n      mstore\n      0x04\n      add\n      tag_84\n      swap1\n      tag_85\n      jump\t// in\n    tag_84:\n      mload(0x40)\n      dup1\n      swap2\n      sub\n      swap1\n      revert\n    tag_83:\n        /* \"contracts/Auction.sol\":1284:1303  1000000000000000000 */\n      0x0de0b6b3a7640000\n        /* \"contracts/Auction.sol\":1270:1274  post */\n      dup2\n        /* \"contracts/Auction.sol\":1270:1281  post.minBid */\n      0x20\n      add\n      mload\n        /* \"contracts/Auction.sol\":1270:1303  post.minBid * 1000000000000000000 */\n      tag_86\n      swap2\n      swap1\n      tag_87\n      jump\t// in\n    tag_86:\n        /* \"contracts/Auction.sol\":1257:1266  msg.value */\n      callvalue\n        /* \"contracts/Auction.sol\":1257:1303  msg.value >= post.minBid * 1000000000000000000 */\n      lt\n      iszero\n        /* \"contracts/Auction.sol\":1248:1353  require (msg.value >= post.minBid * 1000000000000000000 , \"This bid needs to be more than min bid value\") */\n      tag_88\n      jumpi\n      mload(0x40)\n      0x08c379a000000000000000000000000000000000000000000000000000000000\n      dup2\n      mstore\n      0x04\n      add\n      tag_89\n      swap1\n      tag_90\n      jump\t// in\n    tag_89:\n      mload(0x40)\n      dup1\n      swap2\n      sub\n      swap1\n      revert\n    tag_88:\n        /* \"contracts/Auction.sol\":1366:1370  bids */\n      0x01\n        /* \"contracts/Auction.sol\":1366:1379  bids[_postId] */\n      0x00\n        /* \"contracts/Auction.sol\":1371:1378  _postId */\n      dup4\n        /* \"contracts/Auction.sol\":1366:1379  bids[_postId] */\n      dup2\n      mstore\n      0x20\n      add\n      swap1\n      dup2\n      mstore\n      0x20\n      add\n      0x00\n      keccak256\n        /* \"contracts/Auction.sol\":1385:1543  Bid({\r... */\n      mload(0x40)\n      dup1\n      0x80\n      add\n      0x40\n      mstore\n      dup1\n        /* \"contracts/Auction.sol\":1452:1462  msg.sender */\n      caller\n        /* \"contracts/Auction.sol\":1385:1543  Bid({\r... */\n      0xffffffffffffffffffffffffffffffffffffffff\n      and\n      dup2\n      mstore\n      0x20\n      add\n        /* \"contracts/Auction.sol\":1412:1421  msg.value */\n      callvalue\n        /* \"contracts/Auction.sol\":1385:1543  Bid({\r... */\n      dup2\n      mstore\n      0x20\n      add\n        /* \"contracts/Auction.sol\":1485:1500  block.timestamp */\n      timestamp\n        /* \"contracts/Auction.sol\":1385:1543  Bid({\r... */\n      dup2\n      mstore\n      0x20\n      add\n        /* \"contracts/Auction.sol\":1526:1531  false */\n      0x00\n        /* \"contracts/Auction.sol\":1385:1543  Bid({\r... */\n      iszero\n      iszero\n      dup2\n      mstore\n      pop\n        /* \"contracts/Auction.sol\":1366:1544  bids[_postId].push(Bid({\r... */\n      swap1\n      dup1\n      0x01\n      dup2\n      sload\n      add\n      dup1\n      dup3\n      sstore\n      dup1\n      swap2\n      pop\n      pop\n      0x01\n      swap1\n      sub\n      swap1\n      0x00\n      mstore\n      keccak256(0x00, 0x20)\n      swap1\n      0x04\n      mul\n      add\n      0x00\n      swap1\n      swap2\n      swap1\n      swap2\n      swap1\n      swap2\n      pop\n      0x00\n      dup3\n      add\n      mload\n      dup2\n      0x00\n      add\n      exp(0x0100, 0x00)\n      dup2\n      sload\n      dup2\n      0xffffffffffffffffffffffffffffffffffffffff\n      mul\n      not\n      and\n      swap1\n      dup4\n      0xffffffffffffffffffffffffffffffffffffffff\n      and\n      mul\n      or\n      swap1\n      sstore\n      pop\n      0x20\n      dup3\n      add\n      mload\n      dup2\n      0x01\n      add\n      sstore\n      0x40\n      dup3\n      add\n      mload\n      dup2\n      0x02\n      add\n      sstore\n      0x60\n      dup3\n      add\n      mload\n      dup2\n      0x03\n      add\n      exp(0x0100, 0x00)\n      dup2\n      sload\n      dup2\n      0xff\n      mul\n      not\n      and\n      swap1\n      dup4\n      iszero\n      iszero\n      mul\n      or\n      swap1\n      sstore\n      pop\n      pop\n      pop\n        /* \"contracts/Auction.sol\":1584:1593  msg.value */\n      callvalue\n        /* \"contracts/Auction.sol\":1557:1565  balances */\n      0x02\n        /* \"contracts/Auction.sol\":1557:1580  balances[address(this)] */\n      0x00\n        /* \"contracts/Auction.sol\":1574:1578  this */\n      address\n        /* \"contracts/Auction.sol\":1557:1580  balances[address(this)] */\n      0xffffffffffffffffffffffffffffffffffffffff\n      and\n      0xffffffffffffffffffffffffffffffffffffffff\n      and\n      dup2\n      mstore\n      0x20\n      add\n      swap1\n      dup2\n      mstore\n      0x20\n      add\n      0x00\n      keccak256\n      0x00\n        /* \"contracts/Auction.sol\":1557:1593  balances[address(this)] += msg.value */\n      dup3\n      dup3\n      sload\n      tag_92\n      swap2\n      swap1\n      tag_60\n      jump\t// in\n    tag_92:\n      swap3\n      pop\n      pop\n      dup2\n      swap1\n      sstore\n      pop\n        /* \"contracts/Auction.sol\":895:1601  {\r... */\n      pop\n        /* \"contracts/Auction.sol\":846:1601  function createBid (uint _postId) public payable {\r... */\n      pop\n      jump\t// out\n        /* \"contracts/Auction.sol\":1745:1968  function getTotalBids(uint _postId) public view returns (uint){\r... */\n    tag_24:\n        /* \"contracts/Auction.sol\":1802:1806  uint */\n      0x00\n        /* \"contracts/Auction.sol\":1818:1834  Post memory post */\n      dup1\n        /* \"contracts/Auction.sol\":1837:1842  posts */\n      0x00\n        /* \"contracts/Auction.sol\":1843:1850  _postId */\n      dup4\n        /* \"contracts/Auction.sol\":1837:1851  posts[_postId] */\n      dup2\n      sload\n      dup2\n      lt\n      tag_94\n      jumpi\n      tag_95\n      tag_42\n      jump\t// in\n    tag_95:\n    tag_94:\n      swap1\n      0x00\n      mstore\n      keccak256(0x00, 0x20)\n      swap1\n      0x04\n      mul\n      add\n        /* \"contracts/Auction.sol\":1818:1851  Post memory post = posts[_postId] */\n      mload(0x40)\n      dup1\n      0x80\n      add\n      0x40\n      mstore\n      swap1\n      dup2\n      0x00\n      dup3\n      add\n      0x00\n      swap1\n      sload\n      swap1\n      0x0100\n      exp\n      swap1\n      div\n      0xffffffffffffffffffffffffffffffffffffffff\n      and\n      0xffffffffffffffffffffffffffffffffffffffff\n      and\n      0xffffffffffffffffffffffffffffffffffffffff\n      and\n      dup2\n      mstore\n      0x20\n      add\n      0x01\n      dup3\n      add\n      sload\n      dup2\n      mstore\n      0x20\n      add\n      0x02\n      dup3\n      add\n      dup1\n      sload\n      tag_97\n      swap1\n      tag_45\n      jump\t// in\n    tag_97:\n      dup1\n      0x1f\n      add\n      0x20\n      dup1\n      swap2\n      div\n      mul\n      0x20\n      add\n      mload(0x40)\n      swap1\n      dup2\n      add\n      0x40\n      mstore\n      dup1\n      swap3\n      swap2\n      swap1\n      dup2\n      dup2\n      mstore\n      0x20\n      add\n      dup3\n      dup1\n      sload\n      tag_98\n      swap1\n      tag_45\n      jump\t// in\n    tag_98:\n      dup1\n      iszero\n      tag_99\n      jumpi\n      dup1\n      0x1f\n      lt\n      tag_100\n      jumpi\n      0x0100\n      dup1\n      dup4\n      sload\n      div\n      mul\n      dup4\n      mstore\n      swap2\n      0x20\n      add\n      swap2\n      jump(tag_99)\n    tag_100:\n      dup3\n      add\n      swap2\n      swap1\n      0x00\n      mstore\n      keccak256(0x00, 0x20)\n      swap1\n    tag_101:\n      dup2\n      sload\n      dup2\n      mstore\n      swap1\n      0x01\n      add\n      swap1\n      0x20\n      add\n      dup1\n      dup4\n      gt\n      tag_101\n      jumpi\n      dup3\n      swap1\n      sub\n      0x1f\n      and\n      dup3\n      add\n      swap2\n    tag_99:\n      pop\n      pop\n      pop\n      pop\n      pop\n      dup2\n      mstore\n      0x20\n      add\n      0x03\n      dup3\n      add\n      sload\n      dup2\n      mstore\n      pop\n      pop\n      swap1\n      pop\n        /* \"contracts/Auction.sol\":1882:1886  post */\n      dup1\n        /* \"contracts/Auction.sol\":1882:1893  post.seller */\n      0x00\n      add\n      mload\n        /* \"contracts/Auction.sol\":1870:1893  msg.sender==post.seller */\n      0xffffffffffffffffffffffffffffffffffffffff\n      and\n        /* \"contracts/Auction.sol\":1870:1880  msg.sender */\n      caller\n        /* \"contracts/Auction.sol\":1870:1893  msg.sender==post.seller */\n      0xffffffffffffffffffffffffffffffffffffffff\n      and\n      eq\n        /* \"contracts/Auction.sol\":1862:1922  require(msg.sender==post.seller,\"You don't have permission\") */\n      tag_102\n      jumpi\n      mload(0x40)\n      0x08c379a000000000000000000000000000000000000000000000000000000000\n      dup2\n      mstore\n      0x04\n      add\n      tag_103\n      swap1\n      tag_55\n      jump\t// in\n    tag_103:\n      mload(0x40)\n      dup1\n      swap2\n      sub\n      swap1\n      revert\n    tag_102:\n        /* \"contracts/Auction.sol\":1940:1944  bids */\n      0x01\n        /* \"contracts/Auction.sol\":1940:1953  bids[_postId] */\n      0x00\n        /* \"contracts/Auction.sol\":1945:1952  _postId */\n      dup5\n        /* \"contracts/Auction.sol\":1940:1953  bids[_postId] */\n      dup2\n      mstore\n      0x20\n      add\n      swap1\n      dup2\n      mstore\n      0x20\n      add\n      0x00\n      keccak256\n        /* \"contracts/Auction.sol\":1940:1960  bids[_postId].length */\n      dup1\n      sload\n      swap1\n      pop\n        /* \"contracts/Auction.sol\":1933:1960  return bids[_postId].length */\n      swap2\n      pop\n      pop\n        /* \"contracts/Auction.sol\":1745:1968  function getTotalBids(uint _postId) public view returns (uint){\r... */\n      swap2\n      swap1\n      pop\n      jump\t// out\n        /* \"contracts/Auction.sol\":2023:2373  function getPostBid(uint _postId,uint _bidId) public view returns (address buyer , uint amount , uint time){\r... */\n    tag_30:\n        /* \"contracts/Auction.sol\":2090:2103  address buyer */\n      0x00\n        /* \"contracts/Auction.sol\":2106:2117  uint amount */\n      dup1\n        /* \"contracts/Auction.sol\":2120:2129  uint time */\n      0x00\n        /* \"contracts/Auction.sol\":2141:2157  Post memory post */\n      dup1\n        /* \"contracts/Auction.sol\":2160:2165  posts */\n      0x00\n        /* \"contracts/Auction.sol\":2166:2173  _postId */\n      dup7\n        /* \"contracts/Auction.sol\":2160:2174  posts[_postId] */\n      dup2\n      sload\n      dup2\n      lt\n      tag_105\n      jumpi\n      tag_106\n      tag_42\n      jump\t// in\n    tag_106:\n    tag_105:\n      swap1\n      0x00\n      mstore\n      keccak256(0x00, 0x20)\n      swap1\n      0x04\n      mul\n      add\n        /* \"contracts/Auction.sol\":2141:2174  Post memory post = posts[_postId] */\n      mload(0x40)\n      dup1\n      0x80\n      add\n      0x40\n      mstore\n      swap1\n      dup2\n      0x00\n      dup3\n      add\n      0x00\n      swap1\n      sload\n      swap1\n      0x0100\n      exp\n      swap1\n      div\n      0xffffffffffffffffffffffffffffffffffffffff\n      and\n      0xffffffffffffffffffffffffffffffffffffffff\n      and\n      0xffffffffffffffffffffffffffffffffffffffff\n      and\n      dup2\n      mstore\n      0x20\n      add\n      0x01\n      dup3\n      add\n      sload\n      dup2\n      mstore\n      0x20\n      add\n      0x02\n      dup3\n      add\n      dup1\n      sload\n      tag_108\n      swap1\n      tag_45\n      jump\t// in\n    tag_108:\n      dup1\n      0x1f\n      add\n      0x20\n      dup1\n      swap2\n      div\n      mul\n      0x20\n      add\n      mload(0x40)\n      swap1\n      dup2\n      add\n      0x40\n      mstore\n      dup1\n      swap3\n      swap2\n      swap1\n      dup2\n      dup2\n      mstore\n      0x20\n      add\n      dup3\n      dup1\n      sload\n      tag_109\n      swap1\n      tag_45\n      jump\t// in\n    tag_109:\n      dup1\n      iszero\n      tag_110\n      jumpi\n      dup1\n      0x1f\n      lt\n      tag_111\n      jumpi\n      0x0100\n      dup1\n      dup4\n      sload\n      div\n      mul\n      dup4\n      mstore\n      swap2\n      0x20\n      add\n      swap2\n      jump(tag_110)\n    tag_111:\n      dup3\n      add\n      swap2\n      swap1\n      0x00\n      mstore\n      keccak256(0x00, 0x20)\n      swap1\n    tag_112:\n      dup2\n      sload\n      dup2\n      mstore\n      swap1\n      0x01\n      add\n      swap1\n      0x20\n      add\n      dup1\n      dup4\n      gt\n      tag_112\n      jumpi\n      dup3\n      swap1\n      sub\n      0x1f\n      and\n      dup3\n      add\n      swap2\n    tag_110:\n      pop\n      pop\n      pop\n      pop\n      pop\n      dup2\n      mstore\n      0x20\n      add\n      0x03\n      dup3\n      add\n      sload\n      dup2\n      mstore\n      pop\n      pop\n      swap1\n      pop\n        /* \"contracts/Auction.sol\":2185:2199  Bid memory bid */\n      0x00\n        /* \"contracts/Auction.sol\":2202:2206  bids */\n      0x01\n        /* \"contracts/Auction.sol\":2202:2215  bids[_postId] */\n      0x00\n        /* \"contracts/Auction.sol\":2207:2214  _postId */\n      dup9\n        /* \"contracts/Auction.sol\":2202:2215  bids[_postId] */\n      dup2\n      mstore\n      0x20\n      add\n      swap1\n      dup2\n      mstore\n      0x20\n      add\n      0x00\n      keccak256\n        /* \"contracts/Auction.sol\":2216:2222  _bidId */\n      dup7\n        /* \"contracts/Auction.sol\":2202:2223  bids[_postId][_bidId] */\n      dup2\n      sload\n      dup2\n      lt\n      tag_113\n      jumpi\n      tag_114\n      tag_42\n      jump\t// in\n    tag_114:\n    tag_113:\n      swap1\n      0x00\n      mstore\n      keccak256(0x00, 0x20)\n      swap1\n      0x04\n      mul\n      add\n        /* \"contracts/Auction.sol\":2185:2223  Bid memory bid = bids[_postId][_bidId] */\n      mload(0x40)\n      dup1\n      0x80\n      add\n      0x40\n      mstore\n      swap1\n      dup2\n      0x00\n      dup3\n      add\n      0x00\n      swap1\n      sload\n      swap1\n      0x0100\n      exp\n      swap1\n      div\n      0xffffffffffffffffffffffffffffffffffffffff\n      and\n      0xffffffffffffffffffffffffffffffffffffffff\n      and\n      0xffffffffffffffffffffffffffffffffffffffff\n      and\n      dup2\n      mstore\n      0x20\n      add\n      0x01\n      dup3\n      add\n      sload\n      dup2\n      mstore\n      0x20\n      add\n      0x02\n      dup3\n      add\n      sload\n      dup2\n      mstore\n      0x20\n      add\n      0x03\n      dup3\n      add\n      0x00\n      swap1\n      sload\n      swap1\n      0x0100\n      exp\n      swap1\n      div\n      0xff\n      and\n      iszero\n      iszero\n      iszero\n      iszero\n      dup2\n      mstore\n      pop\n      pop\n      swap1\n      pop\n        /* \"contracts/Auction.sol\":2256:2260  post */\n      dup2\n        /* \"contracts/Auction.sol\":2256:2267  post.seller */\n      0x00\n      add\n      mload\n        /* \"contracts/Auction.sol\":2242:2267  msg.sender == post.seller */\n      0xffffffffffffffffffffffffffffffffffffffff\n      and\n        /* \"contracts/Auction.sol\":2242:2252  msg.sender */\n      caller\n        /* \"contracts/Auction.sol\":2242:2267  msg.sender == post.seller */\n      0xffffffffffffffffffffffffffffffffffffffff\n      and\n      eq\n        /* \"contracts/Auction.sol\":2234:2296  require(msg.sender == post.seller,\"You don't have permission\") */\n      tag_116\n      jumpi\n      mload(0x40)\n      0x08c379a000000000000000000000000000000000000000000000000000000000\n      dup2\n      mstore\n      0x04\n      add\n      tag_117\n      swap1\n      tag_55\n      jump\t// in\n    tag_117:\n      mload(0x40)\n      dup1\n      swap2\n      sub\n      swap1\n      revert\n    tag_116:\n        /* \"contracts/Auction.sol\":2315:2318  bid */\n      dup1\n        /* \"contracts/Auction.sol\":2315:2324  bid.buyer */\n      0x00\n      add\n      mload\n        /* \"contracts/Auction.sol\":2336:2355  1000000000000000000 */\n      0x0de0b6b3a7640000\n        /* \"contracts/Auction.sol\":2325:2328  bid */\n      dup3\n        /* \"contracts/Auction.sol\":2325:2335  bid.amount */\n      0x20\n      add\n      mload\n        /* \"contracts/Auction.sol\":2325:2355  bid.amount/1000000000000000000 */\n      tag_118\n      swap2\n      swap1\n      tag_119\n      jump\t// in\n    tag_118:\n        /* \"contracts/Auction.sol\":2356:2359  bid */\n      dup3\n        /* \"contracts/Auction.sol\":2356:2364  bid.time */\n      0x40\n      add\n      mload\n        /* \"contracts/Auction.sol\":2307:2365  return (bid.buyer,bid.amount/1000000000000000000,bid.time) */\n      swap5\n      pop\n      swap5\n      pop\n      swap5\n      pop\n      pop\n      pop\n        /* \"contracts/Auction.sol\":2023:2373  function getPostBid(uint _postId,uint _bidId) public view returns (address buyer , uint amount , uint time){\r... */\n      swap3\n      pop\n      swap3\n      pop\n      swap3\n      jump\t// out\n        /* \"contracts/Auction.sol\":1609:1737  function getBalance(address _address) public view returns (uint){\r... */\n    tag_37:\n        /* \"contracts/Auction.sol\":1668:1672  uint */\n      0x00\n        /* \"contracts/Auction.sol\":1710:1729  1000000000000000000 */\n      0x0de0b6b3a7640000\n        /* \"contracts/Auction.sol\":1691:1699  balances */\n      0x02\n        /* \"contracts/Auction.sol\":1691:1709  balances[_address] */\n      0x00\n        /* \"contracts/Auction.sol\":1700:1708  _address */\n      dup5\n        /* \"contracts/Auction.sol\":1691:1709  balances[_address] */\n      0xffffffffffffffffffffffffffffffffffffffff\n      and\n      0xffffffffffffffffffffffffffffffffffffffff\n      and\n      dup2\n      mstore\n      0x20\n      add\n      swap1\n      dup2\n      mstore\n      0x20\n      add\n      0x00\n      keccak256\n      sload\n        /* \"contracts/Auction.sol\":1691:1729  balances[_address]/1000000000000000000 */\n      tag_121\n      swap2\n      swap1\n      tag_119\n      jump\t// in\n    tag_121:\n        /* \"contracts/Auction.sol\":1684:1729  return balances[_address]/1000000000000000000 */\n      swap1\n      pop\n        /* \"contracts/Auction.sol\":1609:1737  function getBalance(address _address) public view returns (uint){\r... */\n      swap2\n      swap1\n      pop\n      jump\t// out\n    tag_67:\n      dup3\n      dup1\n      sload\n      tag_122\n      swap1\n      tag_45\n      jump\t// in\n    tag_122:\n      swap1\n      0x00\n      mstore\n      keccak256(0x00, 0x20)\n      swap1\n      0x1f\n      add\n      0x20\n      swap1\n      div\n      dup2\n      add\n      swap3\n      dup3\n      tag_124\n      jumpi\n      0x00\n      dup6\n      sstore\n      jump(tag_123)\n    tag_124:\n      dup3\n      0x1f\n      lt\n      tag_125\n      jumpi\n      dup1\n      mload\n      not(0xff)\n      and\n      dup4\n      dup1\n      add\n      or\n      dup6\n      sstore\n      jump(tag_123)\n    tag_125:\n      dup3\n      dup1\n      add\n      0x01\n      add\n      dup6\n      sstore\n      dup3\n      iszero\n      tag_123\n      jumpi\n      swap2\n      dup3\n      add\n    tag_126:\n      dup3\n      dup2\n      gt\n      iszero\n      tag_127\n      jumpi\n      dup3\n      mload\n      dup3\n      sstore\n      swap2\n      0x20\n      add\n      swap2\n      swap1\n      0x01\n      add\n      swap1\n      jump(tag_126)\n    tag_127:\n    tag_123:\n      pop\n      swap1\n      pop\n      tag_128\n      swap2\n      swap1\n      tag_129\n      jump\t// in\n    tag_128:\n      pop\n      swap1\n      jump\t// out\n    tag_129:\n    tag_130:\n      dup1\n      dup3\n      gt\n      iszero\n      tag_131\n      jumpi\n      0x00\n      dup2\n      0x00\n      swap1\n      sstore\n      pop\n      0x01\n      add\n      jump(tag_130)\n    tag_131:\n      pop\n      swap1\n      jump\t// out\n        /* \"#utility.yul\":7:419   */\n    tag_133:\n        /* \"#utility.yul\":85:90   */\n      0x00\n        /* \"#utility.yul\":110:176   */\n      tag_135\n        /* \"#utility.yul\":126:175   */\n      tag_136\n        /* \"#utility.yul\":168:174   */\n      dup5\n        /* \"#utility.yul\":126:175   */\n      tag_137\n      jump\t// in\n    tag_136:\n        /* \"#utility.yul\":110:176   */\n      tag_138\n      jump\t// in\n    tag_135:\n        /* \"#utility.yul\":101:176   */\n      swap1\n      pop\n        /* \"#utility.yul\":199:205   */\n      dup3\n        /* \"#utility.yul\":192:197   */\n      dup2\n        /* \"#utility.yul\":185:206   */\n      mstore\n        /* \"#utility.yul\":237:241   */\n      0x20\n        /* \"#utility.yul\":230:235   */\n      dup2\n        /* \"#utility.yul\":226:242   */\n      add\n        /* \"#utility.yul\":275:278   */\n      dup5\n        /* \"#utility.yul\":266:272   */\n      dup5\n        /* \"#utility.yul\":261:264   */\n      dup5\n        /* \"#utility.yul\":257:273   */\n      add\n        /* \"#utility.yul\":254:279   */\n      gt\n        /* \"#utility.yul\":251:363   */\n      iszero\n      tag_139\n      jumpi\n        /* \"#utility.yul\":282:361   */\n      tag_140\n      tag_141\n      jump\t// in\n    tag_140:\n        /* \"#utility.yul\":251:363   */\n    tag_139:\n        /* \"#utility.yul\":372:413   */\n      tag_142\n        /* \"#utility.yul\":406:412   */\n      dup5\n        /* \"#utility.yul\":401:404   */\n      dup3\n        /* \"#utility.yul\":396:399   */\n      dup6\n        /* \"#utility.yul\":372:413   */\n      tag_143\n      jump\t// in\n    tag_142:\n        /* \"#utility.yul\":91:419   */\n      pop\n        /* \"#utility.yul\":7:419   */\n      swap4\n      swap3\n      pop\n      pop\n      pop\n      jump\t// out\n        /* \"#utility.yul\":425:564   */\n    tag_144:\n        /* \"#utility.yul\":471:476   */\n      0x00\n        /* \"#utility.yul\":509:515   */\n      dup2\n        /* \"#utility.yul\":496:516   */\n      calldataload\n        /* \"#utility.yul\":487:516   */\n      swap1\n      pop\n        /* \"#utility.yul\":525:558   */\n      tag_146\n        /* \"#utility.yul\":552:557   */\n      dup2\n        /* \"#utility.yul\":525:558   */\n      tag_147\n      jump\t// in\n    tag_146:\n        /* \"#utility.yul\":425:564   */\n      swap3\n      swap2\n      pop\n      pop\n      jump\t// out\n        /* \"#utility.yul\":584:924   */\n    tag_148:\n        /* \"#utility.yul\":640:645   */\n      0x00\n        /* \"#utility.yul\":689:692   */\n      dup3\n        /* \"#utility.yul\":682:686   */\n      0x1f\n        /* \"#utility.yul\":674:680   */\n      dup4\n        /* \"#utility.yul\":670:687   */\n      add\n        /* \"#utility.yul\":666:693   */\n      slt\n        /* \"#utility.yul\":656:778   */\n      tag_150\n      jumpi\n        /* \"#utility.yul\":697:776   */\n      tag_151\n      tag_152\n      jump\t// in\n    tag_151:\n        /* \"#utility.yul\":656:778   */\n    tag_150:\n        /* \"#utility.yul\":814:820   */\n      dup2\n        /* \"#utility.yul\":801:821   */\n      calldataload\n        /* \"#utility.yul\":839:918   */\n      tag_153\n        /* \"#utility.yul\":914:917   */\n      dup5\n        /* \"#utility.yul\":906:912   */\n      dup3\n        /* \"#utility.yul\":899:903   */\n      0x20\n        /* \"#utility.yul\":891:897   */\n      dup7\n        /* \"#utility.yul\":887:904   */\n      add\n        /* \"#utility.yul\":839:918   */\n      tag_133\n      jump\t// in\n    tag_153:\n        /* \"#utility.yul\":830:918   */\n      swap2\n      pop\n        /* \"#utility.yul\":646:924   */\n      pop\n        /* \"#utility.yul\":584:924   */\n      swap3\n      swap2\n      pop\n      pop\n      jump\t// out\n        /* \"#utility.yul\":930:1069   */\n    tag_154:\n        /* \"#utility.yul\":976:981   */\n      0x00\n        /* \"#utility.yul\":1014:1020   */\n      dup2\n        /* \"#utility.yul\":1001:1021   */\n      calldataload\n        /* \"#utility.yul\":992:1021   */\n      swap1\n      pop\n        /* \"#utility.yul\":1030:1063   */\n      tag_156\n        /* \"#utility.yul\":1057:1062   */\n      dup2\n        /* \"#utility.yul\":1030:1063   */\n      tag_157\n      jump\t// in\n    tag_156:\n        /* \"#utility.yul\":930:1069   */\n      swap3\n      swap2\n      pop\n      pop\n      jump\t// out\n        /* \"#utility.yul\":1075:1404   */\n    tag_36:\n        /* \"#utility.yul\":1134:1140   */\n      0x00\n        /* \"#utility.yul\":1183:1185   */\n      0x20\n        /* \"#utility.yul\":1171:1180   */\n      dup3\n        /* \"#utility.yul\":1162:1169   */\n      dup5\n        /* \"#utility.yul\":1158:1181   */\n      sub\n        /* \"#utility.yul\":1154:1186   */\n      slt\n        /* \"#utility.yul\":1151:1270   */\n      iszero\n      tag_159\n      jumpi\n        /* \"#utility.yul\":1189:1268   */\n      tag_160\n      tag_161\n      jump\t// in\n    tag_160:\n        /* \"#utility.yul\":1151:1270   */\n    tag_159:\n        /* \"#utility.yul\":1309:1310   */\n      0x00\n        /* \"#utility.yul\":1334:1387   */\n      tag_162\n        /* \"#utility.yul\":1379:1386   */\n      dup5\n        /* \"#utility.yul\":1370:1376   */\n      dup3\n        /* \"#utility.yul\":1359:1368   */\n      dup6\n        /* \"#utility.yul\":1355:1377   */\n      add\n        /* \"#utility.yul\":1334:1387   */\n      tag_144\n      jump\t// in\n    tag_162:\n        /* \"#utility.yul\":1324:1387   */\n      swap2\n      pop\n        /* \"#utility.yul\":1280:1397   */\n      pop\n        /* \"#utility.yul\":1075:1404   */\n      swap3\n      swap2\n      pop\n      pop\n      jump\t// out\n        /* \"#utility.yul\":1410:2064   */\n    tag_15:\n        /* \"#utility.yul\":1488:1494   */\n      0x00\n        /* \"#utility.yul\":1496:1502   */\n      dup1\n        /* \"#utility.yul\":1545:1547   */\n      0x40\n        /* \"#utility.yul\":1533:1542   */\n      dup4\n        /* \"#utility.yul\":1524:1531   */\n      dup6\n        /* \"#utility.yul\":1520:1543   */\n      sub\n        /* \"#utility.yul\":1516:1548   */\n      slt\n        /* \"#utility.yul\":1513:1632   */\n      iszero\n      tag_164\n      jumpi\n        /* \"#utility.yul\":1551:1630   */\n      tag_165\n      tag_161\n      jump\t// in\n    tag_165:\n        /* \"#utility.yul\":1513:1632   */\n    tag_164:\n        /* \"#utility.yul\":1699:1700   */\n      0x00\n        /* \"#utility.yul\":1688:1697   */\n      dup4\n        /* \"#utility.yul\":1684:1701   */\n      add\n        /* \"#utility.yul\":1671:1702   */\n      calldataload\n        /* \"#utility.yul\":1729:1747   */\n      0xffffffffffffffff\n        /* \"#utility.yul\":1721:1727   */\n      dup2\n        /* \"#utility.yul\":1718:1748   */\n      gt\n        /* \"#utility.yul\":1715:1832   */\n      iszero\n      tag_166\n      jumpi\n        /* \"#utility.yul\":1751:1830   */\n      tag_167\n      tag_168\n      jump\t// in\n    tag_167:\n        /* \"#utility.yul\":1715:1832   */\n    tag_166:\n        /* \"#utility.yul\":1856:1919   */\n      tag_169\n        /* \"#utility.yul\":1911:1918   */\n      dup6\n        /* \"#utility.yul\":1902:1908   */\n      dup3\n        /* \"#utility.yul\":1891:1900   */\n      dup7\n        /* \"#utility.yul\":1887:1909   */\n      add\n        /* \"#utility.yul\":1856:1919   */\n      tag_148\n      jump\t// in\n    tag_169:\n        /* \"#utility.yul\":1846:1919   */\n      swap3\n      pop\n        /* \"#utility.yul\":1642:1929   */\n      pop\n        /* \"#utility.yul\":1968:1970   */\n      0x20\n        /* \"#utility.yul\":1994:2047   */\n      tag_170\n        /* \"#utility.yul\":2039:2046   */\n      dup6\n        /* \"#utility.yul\":2030:2036   */\n      dup3\n        /* \"#utility.yul\":2019:2028   */\n      dup7\n        /* \"#utility.yul\":2015:2037   */\n      add\n        /* \"#utility.yul\":1994:2047   */\n      tag_154\n      jump\t// in\n    tag_170:\n        /* \"#utility.yul\":1984:2047   */\n      swap2\n      pop\n        /* \"#utility.yul\":1939:2057   */\n      pop\n        /* \"#utility.yul\":1410:2064   */\n      swap3\n      pop\n      swap3\n      swap1\n      pop\n      jump\t// out\n        /* \"#utility.yul\":2070:2399   */\n    tag_19:\n        /* \"#utility.yul\":2129:2135   */\n      0x00\n        /* \"#utility.yul\":2178:2180   */\n      0x20\n        /* \"#utility.yul\":2166:2175   */\n      dup3\n        /* \"#utility.yul\":2157:2164   */\n      dup5\n        /* \"#utility.yul\":2153:2176   */\n      sub\n        /* \"#utility.yul\":2149:2181   */\n      slt\n        /* \"#utility.yul\":2146:2265   */\n      iszero\n      tag_172\n      jumpi\n        /* \"#utility.yul\":2184:2263   */\n      tag_173\n      tag_161\n      jump\t// in\n    tag_173:\n        /* \"#utility.yul\":2146:2265   */\n    tag_172:\n        /* \"#utility.yul\":2304:2305   */\n      0x00\n        /* \"#utility.yul\":2329:2382   */\n      tag_174\n        /* \"#utility.yul\":2374:2381   */\n      dup5\n        /* \"#utility.yul\":2365:2371   */\n      dup3\n        /* \"#utility.yul\":2354:2363   */\n      dup6\n        /* \"#utility.yul\":2350:2372   */\n      add\n        /* \"#utility.yul\":2329:2382   */\n      tag_154\n      jump\t// in\n    tag_174:\n        /* \"#utility.yul\":2319:2382   */\n      swap2\n      pop\n        /* \"#utility.yul\":2275:2392   */\n      pop\n        /* \"#utility.yul\":2070:2399   */\n      swap3\n      swap2\n      pop\n      pop\n      jump\t// out\n        /* \"#utility.yul\":2405:2879   */\n    tag_10:\n        /* \"#utility.yul\":2473:2479   */\n      0x00\n        /* \"#utility.yul\":2481:2487   */\n      dup1\n        /* \"#utility.yul\":2530:2532   */\n      0x40\n        /* \"#utility.yul\":2518:2527   */\n      dup4\n        /* \"#utility.yul\":2509:2516   */\n      dup6\n        /* \"#utility.yul\":2505:2528   */\n      sub\n        /* \"#utility.yul\":2501:2533   */\n      slt\n        /* \"#utility.yul\":2498:2617   */\n      iszero\n      tag_176\n      jumpi\n        /* \"#utility.yul\":2536:2615   */\n      tag_177\n      tag_161\n      jump\t// in\n    tag_177:\n        /* \"#utility.yul\":2498:2617   */\n    tag_176:\n        /* \"#utility.yul\":2656:2657   */\n      0x00\n        /* \"#utility.yul\":2681:2734   */\n      tag_178\n        /* \"#utility.yul\":2726:2733   */\n      dup6\n        /* \"#utility.yul\":2717:2723   */\n      dup3\n        /* \"#utility.yul\":2706:2715   */\n      dup7\n        /* \"#utility.yul\":2702:2724   */\n      add\n        /* \"#utility.yul\":2681:2734   */\n      tag_154\n      jump\t// in\n    tag_178:\n        /* \"#utility.yul\":2671:2734   */\n      swap3\n      pop\n        /* \"#utility.yul\":2627:2744   */\n      pop\n        /* \"#utility.yul\":2783:2785   */\n      0x20\n        /* \"#utility.yul\":2809:2862   */\n      tag_179\n        /* \"#utility.yul\":2854:2861   */\n      dup6\n        /* \"#utility.yul\":2845:2851   */\n      dup3\n        /* \"#utility.yul\":2834:2843   */\n      dup7\n        /* \"#utility.yul\":2830:2852   */\n      add\n        /* \"#utility.yul\":2809:2862   */\n      tag_154\n      jump\t// in\n    tag_179:\n        /* \"#utility.yul\":2799:2862   */\n      swap2\n      pop\n        /* \"#utility.yul\":2754:2872   */\n      pop\n        /* \"#utility.yul\":2405:2879   */\n      swap3\n      pop\n      swap3\n      swap1\n      pop\n      jump\t// out\n        /* \"#utility.yul\":2885:3003   */\n    tag_180:\n        /* \"#utility.yul\":2972:2996   */\n      tag_182\n        /* \"#utility.yul\":2990:2995   */\n      dup2\n        /* \"#utility.yul\":2972:2996   */\n      tag_183\n      jump\t// in\n    tag_182:\n        /* \"#utility.yul\":2967:2970   */\n      dup3\n        /* \"#utility.yul\":2960:2997   */\n      mstore\n        /* \"#utility.yul\":2885:3003   */\n      pop\n      pop\n      jump\t// out\n        /* \"#utility.yul\":3009:3375   */\n    tag_184:\n        /* \"#utility.yul\":3151:3154   */\n      0x00\n        /* \"#utility.yul\":3172:3239   */\n      tag_186\n        /* \"#utility.yul\":3236:3238   */\n      0x1e\n        /* \"#utility.yul\":3231:3234   */\n      dup4\n        /* \"#utility.yul\":3172:3239   */\n      tag_187\n      jump\t// in\n    tag_186:\n        /* \"#utility.yul\":3165:3239   */\n      swap2\n      pop\n        /* \"#utility.yul\":3248:3341   */\n      tag_188\n        /* \"#utility.yul\":3337:3340   */\n      dup3\n        /* \"#utility.yul\":3248:3341   */\n      tag_189\n      jump\t// in\n    tag_188:\n        /* \"#utility.yul\":3366:3368   */\n      0x20\n        /* \"#utility.yul\":3361:3364   */\n      dup3\n        /* \"#utility.yul\":3357:3369   */\n      add\n        /* \"#utility.yul\":3350:3369   */\n      swap1\n      pop\n        /* \"#utility.yul\":3009:3375   */\n      swap2\n      swap1\n      pop\n      jump\t// out\n        /* \"#utility.yul\":3381:3747   */\n    tag_190:\n        /* \"#utility.yul\":3523:3526   */\n      0x00\n        /* \"#utility.yul\":3544:3611   */\n      tag_192\n        /* \"#utility.yul\":3608:3610   */\n      0x15\n        /* \"#utility.yul\":3603:3606   */\n      dup4\n        /* \"#utility.yul\":3544:3611   */\n      tag_187\n      jump\t// in\n    tag_192:\n        /* \"#utility.yul\":3537:3611   */\n      swap2\n      pop\n        /* \"#utility.yul\":3620:3713   */\n      tag_193\n        /* \"#utility.yul\":3709:3712   */\n      dup3\n        /* \"#utility.yul\":3620:3713   */\n      tag_194\n      jump\t// in\n    tag_193:\n        /* \"#utility.yul\":3738:3740   */\n      0x20\n        /* \"#utility.yul\":3733:3736   */\n      dup3\n        /* \"#utility.yul\":3729:3741   */\n      add\n        /* \"#utility.yul\":3722:3741   */\n      swap1\n      pop\n        /* \"#utility.yul\":3381:3747   */\n      swap2\n      swap1\n      pop\n      jump\t// out\n        /* \"#utility.yul\":3753:4119   */\n    tag_195:\n        /* \"#utility.yul\":3895:3898   */\n      0x00\n        /* \"#utility.yul\":3916:3983   */\n      tag_197\n        /* \"#utility.yul\":3980:3982   */\n      0x19\n        /* \"#utility.yul\":3975:3978   */\n      dup4\n        /* \"#utility.yul\":3916:3983   */\n      tag_187\n      jump\t// in\n    tag_197:\n        /* \"#utility.yul\":3909:3983   */\n      swap2\n      pop\n        /* \"#utility.yul\":3992:4085   */\n      tag_198\n        /* \"#utility.yul\":4081:4084   */\n      dup3\n        /* \"#utility.yul\":3992:4085   */\n      tag_199\n      jump\t// in\n    tag_198:\n        /* \"#utility.yul\":4110:4112   */\n      0x20\n        /* \"#utility.yul\":4105:4108   */\n      dup3\n        /* \"#utility.yul\":4101:4113   */\n      add\n        /* \"#utility.yul\":4094:4113   */\n      swap1\n      pop\n        /* \"#utility.yul\":3753:4119   */\n      swap2\n      swap1\n      pop\n      jump\t// out\n        /* \"#utility.yul\":4125:4491   */\n    tag_200:\n        /* \"#utility.yul\":4267:4270   */\n      0x00\n        /* \"#utility.yul\":4288:4355   */\n      tag_202\n        /* \"#utility.yul\":4352:4354   */\n      0x18\n        /* \"#utility.yul\":4347:4350   */\n      dup4\n        /* \"#utility.yul\":4288:4355   */\n      tag_187\n      jump\t// in\n    tag_202:\n        /* \"#utility.yul\":4281:4355   */\n      swap2\n      pop\n        /* \"#utility.yul\":4364:4457   */\n      tag_203\n        /* \"#utility.yul\":4453:4456   */\n      dup3\n        /* \"#utility.yul\":4364:4457   */\n      tag_204\n      jump\t// in\n    tag_203:\n        /* \"#utility.yul\":4482:4484   */\n      0x20\n        /* \"#utility.yul\":4477:4480   */\n      dup3\n        /* \"#utility.yul\":4473:4485   */\n      add\n        /* \"#utility.yul\":4466:4485   */\n      swap1\n      pop\n        /* \"#utility.yul\":4125:4491   */\n      swap2\n      swap1\n      pop\n      jump\t// out\n        /* \"#utility.yul\":4497:4863   */\n    tag_205:\n        /* \"#utility.yul\":4639:4642   */\n      0x00\n        /* \"#utility.yul\":4660:4727   */\n      tag_207\n        /* \"#utility.yul\":4724:4726   */\n      0x2c\n        /* \"#utility.yul\":4719:4722   */\n      dup4\n        /* \"#utility.yul\":4660:4727   */\n      tag_187\n      jump\t// in\n    tag_207:\n        /* \"#utility.yul\":4653:4727   */\n      swap2\n      pop\n        /* \"#utility.yul\":4736:4829   */\n      tag_208\n        /* \"#utility.yul\":4825:4828   */\n      dup3\n        /* \"#utility.yul\":4736:4829   */\n      tag_209\n      jump\t// in\n    tag_208:\n        /* \"#utility.yul\":4854:4856   */\n      0x40\n        /* \"#utility.yul\":4849:4852   */\n      dup3\n        /* \"#utility.yul\":4845:4857   */\n      add\n        /* \"#utility.yul\":4838:4857   */\n      swap1\n      pop\n        /* \"#utility.yul\":4497:4863   */\n      swap2\n      swap1\n      pop\n      jump\t// out\n        /* \"#utility.yul\":4869:5235   */\n    tag_210:\n        /* \"#utility.yul\":5011:5014   */\n      0x00\n        /* \"#utility.yul\":5032:5099   */\n      tag_212\n        /* \"#utility.yul\":5096:5098   */\n      0x15\n        /* \"#utility.yul\":5091:5094   */\n      dup4\n        /* \"#utility.yul\":5032:5099   */\n      tag_187\n      jump\t// in\n    tag_212:\n        /* \"#utility.yul\":5025:5099   */\n      swap2\n      pop\n        /* \"#utility.yul\":5108:5201   */\n      tag_213\n        /* \"#utility.yul\":5197:5200   */\n      dup3\n        /* \"#utility.yul\":5108:5201   */\n      tag_214\n      jump\t// in\n    tag_213:\n        /* \"#utility.yul\":5226:5228   */\n      0x20\n        /* \"#utility.yul\":5221:5224   */\n      dup3\n        /* \"#utility.yul\":5217:5229   */\n      add\n        /* \"#utility.yul\":5210:5229   */\n      swap1\n      pop\n        /* \"#utility.yul\":4869:5235   */\n      swap2\n      swap1\n      pop\n      jump\t// out\n        /* \"#utility.yul\":5241:5607   */\n    tag_215:\n        /* \"#utility.yul\":5383:5386   */\n      0x00\n        /* \"#utility.yul\":5404:5471   */\n      tag_217\n        /* \"#utility.yul\":5468:5470   */\n      0x18\n        /* \"#utility.yul\":5463:5466   */\n      dup4\n        /* \"#utility.yul\":5404:5471   */\n      tag_187\n      jump\t// in\n    tag_217:\n        /* \"#utility.yul\":5397:5471   */\n      swap2\n      pop\n        /* \"#utility.yul\":5480:5573   */\n      tag_218\n        /* \"#utility.yul\":5569:5572   */\n      dup3\n        /* \"#utility.yul\":5480:5573   */\n      tag_219\n      jump\t// in\n    tag_218:\n        /* \"#utility.yul\":5598:5600   */\n      0x20\n        /* \"#utility.yul\":5593:5596   */\n      dup3\n        /* \"#utility.yul\":5589:5601   */\n      add\n        /* \"#utility.yul\":5582:5601   */\n      swap1\n      pop\n        /* \"#utility.yul\":5241:5607   */\n      swap2\n      swap1\n      pop\n      jump\t// out\n        /* \"#utility.yul\":5613:5731   */\n    tag_220:\n        /* \"#utility.yul\":5700:5724   */\n      tag_222\n        /* \"#utility.yul\":5718:5723   */\n      dup2\n        /* \"#utility.yul\":5700:5724   */\n      tag_223\n      jump\t// in\n    tag_222:\n        /* \"#utility.yul\":5695:5698   */\n      dup3\n        /* \"#utility.yul\":5688:5725   */\n      mstore\n        /* \"#utility.yul\":5613:5731   */\n      pop\n      pop\n      jump\t// out\n        /* \"#utility.yul\":5737:6179   */\n    tag_32:\n        /* \"#utility.yul\":5886:5890   */\n      0x00\n        /* \"#utility.yul\":5924:5926   */\n      0x60\n        /* \"#utility.yul\":5913:5922   */\n      dup3\n        /* \"#utility.yul\":5909:5927   */\n      add\n        /* \"#utility.yul\":5901:5927   */\n      swap1\n      pop\n        /* \"#utility.yul\":5937:6008   */\n      tag_225\n        /* \"#utility.yul\":6005:6006   */\n      0x00\n        /* \"#utility.yul\":5994:6003   */\n      dup4\n        /* \"#utility.yul\":5990:6007   */\n      add\n        /* \"#utility.yul\":5981:5987   */\n      dup7\n        /* \"#utility.yul\":5937:6008   */\n      tag_180\n      jump\t// in\n    tag_225:\n        /* \"#utility.yul\":6018:6090   */\n      tag_226\n        /* \"#utility.yul\":6086:6088   */\n      0x20\n        /* \"#utility.yul\":6075:6084   */\n      dup4\n        /* \"#utility.yul\":6071:6089   */\n      add\n        /* \"#utility.yul\":6062:6068   */\n      dup6\n        /* \"#utility.yul\":6018:6090   */\n      tag_220\n      jump\t// in\n    tag_226:\n        /* \"#utility.yul\":6100:6172   */\n      tag_227\n        /* \"#utility.yul\":6168:6170   */\n      0x40\n        /* \"#utility.yul\":6157:6166   */\n      dup4\n        /* \"#utility.yul\":6153:6171   */\n      add\n        /* \"#utility.yul\":6144:6150   */\n      dup5\n        /* \"#utility.yul\":6100:6172   */\n      tag_220\n      jump\t// in\n    tag_227:\n        /* \"#utility.yul\":5737:6179   */\n      swap5\n      swap4\n      pop\n      pop\n      pop\n      pop\n      jump\t// out\n        /* \"#utility.yul\":6185:6604   */\n    tag_79:\n        /* \"#utility.yul\":6351:6355   */\n      0x00\n        /* \"#utility.yul\":6389:6391   */\n      0x20\n        /* \"#utility.yul\":6378:6387   */\n      dup3\n        /* \"#utility.yul\":6374:6392   */\n      add\n        /* \"#utility.yul\":6366:6392   */\n      swap1\n      pop\n        /* \"#utility.yul\":6438:6447   */\n      dup2\n        /* \"#utility.yul\":6432:6436   */\n      dup2\n        /* \"#utility.yul\":6428:6448   */\n      sub\n        /* \"#utility.yul\":6424:6425   */\n      0x00\n        /* \"#utility.yul\":6413:6422   */\n      dup4\n        /* \"#utility.yul\":6409:6426   */\n      add\n        /* \"#utility.yul\":6402:6449   */\n      mstore\n        /* \"#utility.yul\":6466:6597   */\n      tag_229\n        /* \"#utility.yul\":6592:6596   */\n      dup2\n        /* \"#utility.yul\":6466:6597   */\n      tag_184\n      jump\t// in\n    tag_229:\n        /* \"#utility.yul\":6458:6597   */\n      swap1\n      pop\n        /* \"#utility.yul\":6185:6604   */\n      swap2\n      swap1\n      pop\n      jump\t// out\n        /* \"#utility.yul\":6610:7029   */\n    tag_82:\n        /* \"#utility.yul\":6776:6780   */\n      0x00\n        /* \"#utility.yul\":6814:6816   */\n      0x20\n        /* \"#utility.yul\":6803:6812   */\n      dup3\n        /* \"#utility.yul\":6799:6817   */\n      add\n        /* \"#utility.yul\":6791:6817   */\n      swap1\n      pop\n        /* \"#utility.yul\":6863:6872   */\n      dup2\n        /* \"#utility.yul\":6857:6861   */\n      dup2\n        /* \"#utility.yul\":6853:6873   */\n      sub\n        /* \"#utility.yul\":6849:6850   */\n      0x00\n        /* \"#utility.yul\":6838:6847   */\n      dup4\n        /* \"#utility.yul\":6834:6851   */\n      add\n        /* \"#utility.yul\":6827:6874   */\n      mstore\n        /* \"#utility.yul\":6891:7022   */\n      tag_231\n        /* \"#utility.yul\":7017:7021   */\n      dup2\n        /* \"#utility.yul\":6891:7022   */\n      tag_190\n      jump\t// in\n    tag_231:\n        /* \"#utility.yul\":6883:7022   */\n      swap1\n      pop\n        /* \"#utility.yul\":6610:7029   */\n      swap2\n      swap1\n      pop\n      jump\t// out\n        /* \"#utility.yul\":7035:7454   */\n    tag_55:\n        /* \"#utility.yul\":7201:7205   */\n      0x00\n        /* \"#utility.yul\":7239:7241   */\n      0x20\n        /* \"#utility.yul\":7228:7237   */\n      dup3\n        /* \"#utility.yul\":7224:7242   */\n      add\n        /* \"#utility.yul\":7216:7242   */\n      swap1\n      pop\n        /* \"#utility.yul\":7288:7297   */\n      dup2\n        /* \"#utility.yul\":7282:7286   */\n      dup2\n        /* \"#utility.yul\":7278:7298   */\n      sub\n        /* \"#utility.yul\":7274:7275   */\n      0x00\n        /* \"#utility.yul\":7263:7272   */\n      dup4\n        /* \"#utility.yul\":7259:7276   */\n      add\n        /* \"#utility.yul\":7252:7299   */\n      mstore\n        /* \"#utility.yul\":7316:7447   */\n      tag_233\n        /* \"#utility.yul\":7442:7446   */\n      dup2\n        /* \"#utility.yul\":7316:7447   */\n      tag_195\n      jump\t// in\n    tag_233:\n        /* \"#utility.yul\":7308:7447   */\n      swap1\n      pop\n        /* \"#utility.yul\":7035:7454   */\n      swap2\n      swap1\n      pop\n      jump\t// out\n        /* \"#utility.yul\":7460:7879   */\n    tag_85:\n        /* \"#utility.yul\":7626:7630   */\n      0x00\n        /* \"#utility.yul\":7664:7666   */\n      0x20\n        /* \"#utility.yul\":7653:7662   */\n      dup3\n        /* \"#utility.yul\":7649:7667   */\n      add\n        /* \"#utility.yul\":7641:7667   */\n      swap1\n      pop\n        /* \"#utility.yul\":7713:7722   */\n      dup2\n        /* \"#utility.yul\":7707:7711   */\n      dup2\n        /* \"#utility.yul\":7703:7723   */\n      sub\n        /* \"#utility.yul\":7699:7700   */\n      0x00\n        /* \"#utility.yul\":7688:7697   */\n      dup4\n        /* \"#utility.yul\":7684:7701   */\n      add\n        /* \"#utility.yul\":7677:7724   */\n      mstore\n        /* \"#utility.yul\":7741:7872   */\n      tag_235\n        /* \"#utility.yul\":7867:7871   */\n      dup2\n        /* \"#utility.yul\":7741:7872   */\n      tag_200\n      jump\t// in\n    tag_235:\n        /* \"#utility.yul\":7733:7872   */\n      swap1\n      pop\n        /* \"#utility.yul\":7460:7879   */\n      swap2\n      swap1\n      pop\n      jump\t// out\n        /* \"#utility.yul\":7885:8304   */\n    tag_90:\n        /* \"#utility.yul\":8051:8055   */\n      0x00\n        /* \"#utility.yul\":8089:8091   */\n      0x20\n        /* \"#utility.yul\":8078:8087   */\n      dup3\n        /* \"#utility.yul\":8074:8092   */\n      add\n        /* \"#utility.yul\":8066:8092   */\n      swap1\n      pop\n        /* \"#utility.yul\":8138:8147   */\n      dup2\n        /* \"#utility.yul\":8132:8136   */\n      dup2\n        /* \"#utility.yul\":8128:8148   */\n      sub\n        /* \"#utility.yul\":8124:8125   */\n      0x00\n        /* \"#utility.yul\":8113:8122   */\n      dup4\n        /* \"#utility.yul\":8109:8126   */\n      add\n        /* \"#utility.yul\":8102:8149   */\n      mstore\n        /* \"#utility.yul\":8166:8297   */\n      tag_237\n        /* \"#utility.yul\":8292:8296   */\n      dup2\n        /* \"#utility.yul\":8166:8297   */\n      tag_205\n      jump\t// in\n    tag_237:\n        /* \"#utility.yul\":8158:8297   */\n      swap1\n      pop\n        /* \"#utility.yul\":7885:8304   */\n      swap2\n      swap1\n      pop\n      jump\t// out\n        /* \"#utility.yul\":8310:8729   */\n    tag_58:\n        /* \"#utility.yul\":8476:8480   */\n      0x00\n        /* \"#utility.yul\":8514:8516   */\n      0x20\n        /* \"#utility.yul\":8503:8512   */\n      dup3\n        /* \"#utility.yul\":8499:8517   */\n      add\n        /* \"#utility.yul\":8491:8517   */\n      swap1\n      pop\n        /* \"#utility.yul\":8563:8572   */\n      dup2\n        /* \"#utility.yul\":8557:8561   */\n      dup2\n        /* \"#utility.yul\":8553:8573   */\n      sub\n        /* \"#utility.yul\":8549:8550   */\n      0x00\n        /* \"#utility.yul\":8538:8547   */\n      dup4\n        /* \"#utility.yul\":8534:8551   */\n      add\n        /* \"#utility.yul\":8527:8574   */\n      mstore\n        /* \"#utility.yul\":8591:8722   */\n      tag_239\n        /* \"#utility.yul\":8717:8721   */\n      dup2\n        /* \"#utility.yul\":8591:8722   */\n      tag_210\n      jump\t// in\n    tag_239:\n        /* \"#utility.yul\":8583:8722   */\n      swap1\n      pop\n        /* \"#utility.yul\":8310:8729   */\n      swap2\n      swap1\n      pop\n      jump\t// out\n        /* \"#utility.yul\":8735:9154   */\n    tag_63:\n        /* \"#utility.yul\":8901:8905   */\n      0x00\n        /* \"#utility.yul\":8939:8941   */\n      0x20\n        /* \"#utility.yul\":8928:8937   */\n      dup3\n        /* \"#utility.yul\":8924:8942   */\n      add\n        /* \"#utility.yul\":8916:8942   */\n      swap1\n      pop\n        /* \"#utility.yul\":8988:8997   */\n      dup2\n        /* \"#utility.yul\":8982:8986   */\n      dup2\n        /* \"#utility.yul\":8978:8998   */\n      sub\n        /* \"#utility.yul\":8974:8975   */\n      0x00\n        /* \"#utility.yul\":8963:8972   */\n      dup4\n        /* \"#utility.yul\":8959:8976   */\n      add\n        /* \"#utility.yul\":8952:8999   */\n      mstore\n        /* \"#utility.yul\":9016:9147   */\n      tag_241\n        /* \"#utility.yul\":9142:9146   */\n      dup2\n        /* \"#utility.yul\":9016:9147   */\n      tag_215\n      jump\t// in\n    tag_241:\n        /* \"#utility.yul\":9008:9147   */\n      swap1\n      pop\n        /* \"#utility.yul\":8735:9154   */\n      swap2\n      swap1\n      pop\n      jump\t// out\n        /* \"#utility.yul\":9160:9382   */\n    tag_26:\n        /* \"#utility.yul\":9253:9257   */\n      0x00\n        /* \"#utility.yul\":9291:9293   */\n      0x20\n        /* \"#utility.yul\":9280:9289   */\n      dup3\n        /* \"#utility.yul\":9276:9294   */\n      add\n        /* \"#utility.yul\":9268:9294   */\n      swap1\n      pop\n        /* \"#utility.yul\":9304:9375   */\n      tag_243\n        /* \"#utility.yul\":9372:9373   */\n      0x00\n        /* \"#utility.yul\":9361:9370   */\n      dup4\n        /* \"#utility.yul\":9357:9374   */\n      add\n        /* \"#utility.yul\":9348:9354   */\n      dup5\n        /* \"#utility.yul\":9304:9375   */\n      tag_220\n      jump\t// in\n    tag_243:\n        /* \"#utility.yul\":9160:9382   */\n      swap3\n      swap2\n      pop\n      pop\n      jump\t// out\n        /* \"#utility.yul\":9388:9517   */\n    tag_138:\n        /* \"#utility.yul\":9422:9428   */\n      0x00\n        /* \"#utility.yul\":9449:9469   */\n      tag_245\n      tag_246\n      jump\t// in\n    tag_245:\n        /* \"#utility.yul\":9439:9469   */\n      swap1\n      pop\n        /* \"#utility.yul\":9478:9511   */\n      tag_247\n        /* \"#utility.yul\":9506:9510   */\n      dup3\n        /* \"#utility.yul\":9498:9504   */\n      dup3\n        /* \"#utility.yul\":9478:9511   */\n      tag_248\n      jump\t// in\n    tag_247:\n        /* \"#utility.yul\":9388:9517   */\n      swap2\n      swap1\n      pop\n      jump\t// out\n        /* \"#utility.yul\":9523:9598   */\n    tag_246:\n        /* \"#utility.yul\":9556:9562   */\n      0x00\n        /* \"#utility.yul\":9589:9591   */\n      0x40\n        /* \"#utility.yul\":9583:9592   */\n      mload\n        /* \"#utility.yul\":9573:9592   */\n      swap1\n      pop\n        /* \"#utility.yul\":9523:9598   */\n      swap1\n      jump\t// out\n        /* \"#utility.yul\":9604:9912   */\n    tag_137:\n        /* \"#utility.yul\":9666:9670   */\n      0x00\n        /* \"#utility.yul\":9756:9774   */\n      0xffffffffffffffff\n        /* \"#utility.yul\":9748:9754   */\n      dup3\n        /* \"#utility.yul\":9745:9775   */\n      gt\n        /* \"#utility.yul\":9742:9798   */\n      iszero\n      tag_251\n      jumpi\n        /* \"#utility.yul\":9778:9796   */\n      tag_252\n      tag_253\n      jump\t// in\n    tag_252:\n        /* \"#utility.yul\":9742:9798   */\n    tag_251:\n        /* \"#utility.yul\":9816:9845   */\n      tag_254\n        /* \"#utility.yul\":9838:9844   */\n      dup3\n        /* \"#utility.yul\":9816:9845   */\n      tag_255\n      jump\t// in\n    tag_254:\n        /* \"#utility.yul\":9808:9845   */\n      swap1\n      pop\n        /* \"#utility.yul\":9900:9904   */\n      0x20\n        /* \"#utility.yul\":9894:9898   */\n      dup2\n        /* \"#utility.yul\":9890:9905   */\n      add\n        /* \"#utility.yul\":9882:9905   */\n      swap1\n      pop\n        /* \"#utility.yul\":9604:9912   */\n      swap2\n      swap1\n      pop\n      jump\t// out\n        /* \"#utility.yul\":9918:10087   */\n    tag_187:\n        /* \"#utility.yul\":10002:10013   */\n      0x00\n        /* \"#utility.yul\":10036:10042   */\n      dup3\n        /* \"#utility.yul\":10031:10034   */\n      dup3\n        /* \"#utility.yul\":10024:10043   */\n      mstore\n        /* \"#utility.yul\":10076:10080   */\n      0x20\n        /* \"#utility.yul\":10071:10074   */\n      dup3\n        /* \"#utility.yul\":10067:10081   */\n      add\n        /* \"#utility.yul\":10052:10081   */\n      swap1\n      pop\n        /* \"#utility.yul\":9918:10087   */\n      swap3\n      swap2\n      pop\n      pop\n      jump\t// out\n        /* \"#utility.yul\":10093:10398   */\n    tag_60:\n        /* \"#utility.yul\":10133:10136   */\n      0x00\n        /* \"#utility.yul\":10152:10172   */\n      tag_258\n        /* \"#utility.yul\":10170:10171   */\n      dup3\n        /* \"#utility.yul\":10152:10172   */\n      tag_223\n      jump\t// in\n    tag_258:\n        /* \"#utility.yul\":10147:10172   */\n      swap2\n      pop\n        /* \"#utility.yul\":10186:10206   */\n      tag_259\n        /* \"#utility.yul\":10204:10205   */\n      dup4\n        /* \"#utility.yul\":10186:10206   */\n      tag_223\n      jump\t// in\n    tag_259:\n        /* \"#utility.yul\":10181:10206   */\n      swap3\n      pop\n        /* \"#utility.yul\":10340:10341   */\n      dup3\n        /* \"#utility.yul\":10272:10338   */\n      0xffffffffffffffffffffffffffffffffffffffffffffffffffffffffffffffff\n        /* \"#utility.yul\":10268:10342   */\n      sub\n        /* \"#utility.yul\":10265:10266   */\n      dup3\n        /* \"#utility.yul\":10262:10343   */\n      gt\n        /* \"#utility.yul\":10259:10366   */\n      iszero\n      tag_260\n      jumpi\n        /* \"#utility.yul\":10346:10364   */\n      tag_261\n      tag_262\n      jump\t// in\n    tag_261:\n        /* \"#utility.yul\":10259:10366   */\n    tag_260:\n        /* \"#utility.yul\":10390:10391   */\n      dup3\n        /* \"#utility.yul\":10387:10388   */\n      dup3\n        /* \"#utility.yul\":10383:10392   */\n      add\n        /* \"#utility.yul\":10376:10392   */\n      swap1\n      pop\n        /* \"#utility.yul\":10093:10398   */\n      swap3\n      swap2\n      pop\n      pop\n      jump\t// out\n        /* \"#utility.yul\":10404:10589   */\n    tag_119:\n        /* \"#utility.yul\":10444:10445   */\n      0x00\n        /* \"#utility.yul\":10461:10481   */\n      tag_264\n        /* \"#utility.yul\":10479:10480   */\n      dup3\n        /* \"#utility.yul\":10461:10481   */\n      tag_223\n      jump\t// in\n    tag_264:\n        /* \"#utility.yul\":10456:10481   */\n      swap2\n      pop\n        /* \"#utility.yul\":10495:10515   */\n      tag_265\n        /* \"#utility.yul\":10513:10514   */\n      dup4\n        /* \"#utility.yul\":10495:10515   */\n      tag_223\n      jump\t// in\n    tag_265:\n        /* \"#utility.yul\":10490:10515   */\n      swap3\n      pop\n        /* \"#utility.yul\":10534:10535   */\n      dup3\n        /* \"#utility.yul\":10524:10559   */\n      tag_266\n      jumpi\n        /* \"#utility.yul\":10539:10557   */\n      tag_267\n      tag_268\n      jump\t// in\n    tag_267:\n        /* \"#utility.yul\":10524:10559   */\n    tag_266:\n        /* \"#utility.yul\":10581:10582   */\n      dup3\n        /* \"#utility.yul\":10578:10579   */\n      dup3\n        /* \"#utility.yul\":10574:10583   */\n      div\n        /* \"#utility.yul\":10569:10583   */\n      swap1\n      pop\n        /* \"#utility.yul\":10404:10589   */\n      swap3\n      swap2\n      pop\n      pop\n      jump\t// out\n        /* \"#utility.yul\":10595:10943   */\n    tag_87:\n        /* \"#utility.yul\":10635:10642   */\n      0x00\n        /* \"#utility.yul\":10658:10678   */\n      tag_270\n        /* \"#utility.yul\":10676:10677   */\n      dup3\n        /* \"#utility.yul\":10658:10678   */\n      tag_223\n      jump\t// in\n    tag_270:\n        /* \"#utility.yul\":10653:10678   */\n      swap2\n      pop\n        /* \"#utility.yul\":10692:10712   */\n      tag_271\n        /* \"#utility.yul\":10710:10711   */\n      dup4\n        /* \"#utility.yul\":10692:10712   */\n      tag_223\n      jump\t// in\n    tag_271:\n        /* \"#utility.yul\":10687:10712   */\n      swap3\n      pop\n        /* \"#utility.yul\":10880:10881   */\n      dup2\n        /* \"#utility.yul\":10812:10878   */\n      0xffffffffffffffffffffffffffffffffffffffffffffffffffffffffffffffff\n        /* \"#utility.yul\":10808:10882   */\n      div\n        /* \"#utility.yul\":10805:10806   */\n      dup4\n        /* \"#utility.yul\":10802:10883   */\n      gt\n        /* \"#utility.yul\":10797:10798   */\n      dup3\n        /* \"#utility.yul\":10790:10799   */\n      iszero\n        /* \"#utility.yul\":10783:10800   */\n      iszero\n        /* \"#utility.yul\":10779:10884   */\n      and\n        /* \"#utility.yul\":10776:10907   */\n      iszero\n      tag_272\n      jumpi\n        /* \"#utility.yul\":10887:10905   */\n      tag_273\n      tag_262\n      jump\t// in\n    tag_273:\n        /* \"#utility.yul\":10776:10907   */\n    tag_272:\n        /* \"#utility.yul\":10935:10936   */\n      dup3\n        /* \"#utility.yul\":10932:10933   */\n      dup3\n        /* \"#utility.yul\":10928:10937   */\n      mul\n        /* \"#utility.yul\":10917:10937   */\n      swap1\n      pop\n        /* \"#utility.yul\":10595:10943   */\n      swap3\n      swap2\n      pop\n      pop\n      jump\t// out\n        /* \"#utility.yul\":10949:11045   */\n    tag_183:\n        /* \"#utility.yul\":10986:10993   */\n      0x00\n        /* \"#utility.yul\":11015:11039   */\n      tag_275\n        /* \"#utility.yul\":11033:11038   */\n      dup3\n        /* \"#utility.yul\":11015:11039   */\n      tag_276\n      jump\t// in\n    tag_275:\n        /* \"#utility.yul\":11004:11039   */\n      swap1\n      pop\n        /* \"#utility.yul\":10949:11045   */\n      swap2\n      swap1\n      pop\n      jump\t// out\n        /* \"#utility.yul\":11051:11177   */\n    tag_276:\n        /* \"#utility.yul\":11088:11095   */\n      0x00\n        /* \"#utility.yul\":11128:11170   */\n      0xffffffffffffffffffffffffffffffffffffffff\n        /* \"#utility.yul\":11121:11126   */\n      dup3\n        /* \"#utility.yul\":11117:11171   */\n      and\n        /* \"#utility.yul\":11106:11171   */\n      swap1\n      pop\n        /* \"#utility.yul\":11051:11177   */\n      swap2\n      swap1\n      pop\n      jump\t// out\n        /* \"#utility.yul\":11183:11260   */\n    tag_223:\n        /* \"#utility.yul\":11220:11227   */\n      0x00\n        /* \"#utility.yul\":11249:11254   */\n      dup2\n        /* \"#utility.yul\":11238:11254   */\n      swap1\n      pop\n        /* \"#utility.yul\":11183:11260   */\n      swap2\n      swap1\n      pop\n      jump\t// out\n        /* \"#utility.yul\":11266:11420   */\n    tag_143:\n        /* \"#utility.yul\":11350:11356   */\n      dup3\n        /* \"#utility.yul\":11345:11348   */\n      dup2\n        /* \"#utility.yul\":11340:11343   */\n      dup4\n        /* \"#utility.yul\":11327:11357   */\n      calldatacopy\n        /* \"#utility.yul\":11412:11413   */\n      0x00\n        /* \"#utility.yul\":11403:11409   */\n      dup4\n        /* \"#utility.yul\":11398:11401   */\n      dup4\n        /* \"#utility.yul\":11394:11410   */\n      add\n        /* \"#utility.yul\":11387:11414   */\n      mstore\n        /* \"#utility.yul\":11266:11420   */\n      pop\n      pop\n      pop\n      jump\t// out\n        /* \"#utility.yul\":11426:11746   */\n    tag_45:\n        /* \"#utility.yul\":11470:11476   */\n      0x00\n        /* \"#utility.yul\":11507:11508   */\n      0x02\n        /* \"#utility.yul\":11501:11505   */\n      dup3\n        /* \"#utility.yul\":11497:11509   */\n      div\n        /* \"#utility.yul\":11487:11509   */\n      swap1\n      pop\n        /* \"#utility.yul\":11554:11555   */\n      0x01\n        /* \"#utility.yul\":11548:11552   */\n      dup3\n        /* \"#utility.yul\":11544:11556   */\n      and\n        /* \"#utility.yul\":11575:11593   */\n      dup1\n        /* \"#utility.yul\":11565:11646   */\n      tag_281\n      jumpi\n        /* \"#utility.yul\":11631:11635   */\n      0x7f\n        /* \"#utility.yul\":11623:11629   */\n      dup3\n        /* \"#utility.yul\":11619:11636   */\n      and\n        /* \"#utility.yul\":11609:11636   */\n      swap2\n      pop\n        /* \"#utility.yul\":11565:11646   */\n    tag_281:\n        /* \"#utility.yul\":11693:11695   */\n      0x20\n        /* \"#utility.yul\":11685:11691   */\n      dup3\n        /* \"#utility.yul\":11682:11696   */\n      lt\n        /* \"#utility.yul\":11662:11680   */\n      dup2\n        /* \"#utility.yul\":11659:11697   */\n      eq\n        /* \"#utility.yul\":11656:11740   */\n      iszero\n      tag_282\n      jumpi\n        /* \"#utility.yul\":11712:11730   */\n      tag_283\n      tag_284\n      jump\t// in\n    tag_283:\n        /* \"#utility.yul\":11656:11740   */\n    tag_282:\n        /* \"#utility.yul\":11477:11746   */\n      pop\n        /* \"#utility.yul\":11426:11746   */\n      swap2\n      swap1\n      pop\n      jump\t// out\n        /* \"#utility.yul\":11752:12033   */\n    tag_248:\n        /* \"#utility.yul\":11835:11862   */\n      tag_286\n        /* \"#utility.yul\":11857:11861   */\n      dup3\n        /* \"#utility.yul\":11835:11862   */\n      tag_255\n      jump\t// in\n    tag_286:\n        /* \"#utility.yul\":11827:11833   */\n      dup2\n        /* \"#utility.yul\":11823:11863   */\n      add\n        /* \"#utility.yul\":11965:11971   */\n      dup2\n        /* \"#utility.yul\":11953:11963   */\n      dup2\n        /* \"#utility.yul\":11950:11972   */\n      lt\n        /* \"#utility.yul\":11929:11947   */\n      0xffffffffffffffff\n        /* \"#utility.yul\":11917:11927   */\n      dup3\n        /* \"#utility.yul\":11914:11948   */\n      gt\n        /* \"#utility.yul\":11911:11973   */\n      or\n        /* \"#utility.yul\":11908:11996   */\n      iszero\n      tag_287\n      jumpi\n        /* \"#utility.yul\":11976:11994   */\n      tag_288\n      tag_253\n      jump\t// in\n    tag_288:\n        /* \"#utility.yul\":11908:11996   */\n    tag_287:\n        /* \"#utility.yul\":12016:12026   */\n      dup1\n        /* \"#utility.yul\":12012:12014   */\n      0x40\n        /* \"#utility.yul\":12005:12027   */\n      mstore\n        /* \"#utility.yul\":11795:12033   */\n      pop\n        /* \"#utility.yul\":11752:12033   */\n      pop\n      pop\n      jump\t// out\n        /* \"#utility.yul\":12039:12219   */\n    tag_262:\n        /* \"#utility.yul\":12087:12164   */\n      0x4e487b7100000000000000000000000000000000000000000000000000000000\n        /* \"#utility.yul\":12084:12085   */\n      0x00\n        /* \"#utility.yul\":12077:12165   */\n      mstore\n        /* \"#utility.yul\":12184:12188   */\n      0x11\n        /* \"#utility.yul\":12181:12182   */\n      0x04\n        /* \"#utility.yul\":12174:12189   */\n      mstore\n        /* \"#utility.yul\":12208:12212   */\n      0x24\n        /* \"#utility.yul\":12205:12206   */\n      0x00\n        /* \"#utility.yul\":12198:12213   */\n      revert\n        /* \"#utility.yul\":12225:12405   */\n    tag_268:\n        /* \"#utility.yul\":12273:12350   */\n      0x4e487b7100000000000000000000000000000000000000000000000000000000\n        /* \"#utility.yul\":12270:12271   */\n      0x00\n        /* \"#utility.yul\":12263:12351   */\n      mstore\n        /* \"#utility.yul\":12370:12374   */\n      0x12\n        /* \"#utility.yul\":12367:12368   */\n      0x04\n        /* \"#utility.yul\":12360:12375   */\n      mstore\n        /* \"#utility.yul\":12394:12398   */\n      0x24\n        /* \"#utility.yul\":12391:12392   */\n      0x00\n        /* \"#utility.yul\":12384:12399   */\n      revert\n        /* \"#utility.yul\":12411:12591   */\n    tag_284:\n        /* \"#utility.yul\":12459:12536   */\n      0x4e487b7100000000000000000000000000000000000000000000000000000000\n        /* \"#utility.yul\":12456:12457   */\n      0x00\n        /* \"#utility.yul\":12449:12537   */\n      mstore\n        /* \"#utility.yul\":12556:12560   */\n      0x22\n        /* \"#utility.yul\":12553:12554   */\n      0x04\n        /* \"#utility.yul\":12546:12561   */\n      mstore\n        /* \"#utility.yul\":12580:12584   */\n      0x24\n        /* \"#utility.yul\":12577:12578   */\n      0x00\n        /* \"#utility.yul\":12570:12585   */\n      revert\n        /* \"#utility.yul\":12597:12777   */\n    tag_42:\n        /* \"#utility.yul\":12645:12722   */\n      0x4e487b7100000000000000000000000000000000000000000000000000000000\n        /* \"#utility.yul\":12642:12643   */\n      0x00\n        /* \"#utility.yul\":12635:12723   */\n      mstore\n        /* \"#utility.yul\":12742:12746   */\n      0x32\n        /* \"#utility.yul\":12739:12740   */\n      0x04\n        /* \"#utility.yul\":12732:12747   */\n      mstore\n        /* \"#utility.yul\":12766:12770   */\n      0x24\n        /* \"#utility.yul\":12763:12764   */\n      0x00\n        /* \"#utility.yul\":12756:12771   */\n      revert\n        /* \"#utility.yul\":12783:12963   */\n    tag_253:\n        /* \"#utility.yul\":12831:12908   */\n      0x4e487b7100000000000000000000000000000000000000000000000000000000\n        /* \"#utility.yul\":12828:12829   */\n      0x00\n        /* \"#utility.yul\":12821:12909   */\n      mstore\n        /* \"#utility.yul\":12928:12932   */\n      0x41\n        /* \"#utility.yul\":12925:12926   */\n      0x04\n        /* \"#utility.yul\":12918:12933   */\n      mstore\n        /* \"#utility.yul\":12952:12956   */\n      0x24\n        /* \"#utility.yul\":12949:12950   */\n      0x00\n        /* \"#utility.yul\":12942:12957   */\n      revert\n        /* \"#utility.yul\":12969:13086   */\n    tag_152:\n        /* \"#utility.yul\":13078:13079   */\n      0x00\n        /* \"#utility.yul\":13075:13076   */\n      dup1\n        /* \"#utility.yul\":13068:13080   */\n      revert\n        /* \"#utility.yul\":13092:13209   */\n    tag_141:\n        /* \"#utility.yul\":13201:13202   */\n      0x00\n        /* \"#utility.yul\":13198:13199   */\n      dup1\n        /* \"#utility.yul\":13191:13203   */\n      revert\n        /* \"#utility.yul\":13215:13332   */\n    tag_168:\n        /* \"#utility.yul\":13324:13325   */\n      0x00\n        /* \"#utility.yul\":13321:13322   */\n      dup1\n        /* \"#utility.yul\":13314:13326   */\n      revert\n        /* \"#utility.yul\":13338:13455   */\n    tag_161:\n        /* \"#utility.yul\":13447:13448   */\n      0x00\n        /* \"#utility.yul\":13444:13445   */\n      dup1\n        /* \"#utility.yul\":13437:13449   */\n      revert\n        /* \"#utility.yul\":13461:13563   */\n    tag_255:\n        /* \"#utility.yul\":13502:13508   */\n      0x00\n        /* \"#utility.yul\":13553:13555   */\n      0x1f\n        /* \"#utility.yul\":13549:13556   */\n      not\n        /* \"#utility.yul\":13544:13546   */\n      0x1f\n        /* \"#utility.yul\":13537:13542   */\n      dup4\n        /* \"#utility.yul\":13533:13547   */\n      add\n        /* \"#utility.yul\":13529:13557   */\n      and\n        /* \"#utility.yul\":13519:13557   */\n      swap1\n      pop\n        /* \"#utility.yul\":13461:13563   */\n      swap2\n      swap1\n      pop\n      jump\t// out\n        /* \"#utility.yul\":13569:13749   */\n    tag_189:\n        /* \"#utility.yul\":13709:13741   */\n      0x596f752063616e277420626964206f6e20796f7572206f776e20706f73740000\n        /* \"#utility.yul\":13705:13706   */\n      0x00\n        /* \"#utility.yul\":13697:13703   */\n      dup3\n        /* \"#utility.yul\":13693:13707   */\n      add\n        /* \"#utility.yul\":13686:13742   */\n      mstore\n        /* \"#utility.yul\":13569:13749   */\n      pop\n      jump\t// out\n        /* \"#utility.yul\":13755:13926   */\n    tag_194:\n        /* \"#utility.yul\":13895:13918   */\n      0x496e76616c696420616d6f756e74206f66204269640000000000000000000000\n        /* \"#utility.yul\":13891:13892   */\n      0x00\n        /* \"#utility.yul\":13883:13889   */\n      dup3\n        /* \"#utility.yul\":13879:13893   */\n      add\n        /* \"#utility.yul\":13872:13919   */\n      mstore\n        /* \"#utility.yul\":13755:13926   */\n      pop\n      jump\t// out\n        /* \"#utility.yul\":13932:14107   */\n    tag_199:\n        /* \"#utility.yul\":14072:14099   */\n      0x596f7520646f6e27742068617665207065726d697373696f6e00000000000000\n        /* \"#utility.yul\":14068:14069   */\n      0x00\n        /* \"#utility.yul\":14060:14066   */\n      dup3\n        /* \"#utility.yul\":14056:14070   */\n      add\n        /* \"#utility.yul\":14049:14100   */\n      mstore\n        /* \"#utility.yul\":13932:14107   */\n      pop\n      jump\t// out\n        /* \"#utility.yul\":14113:14287   */\n    tag_204:\n        /* \"#utility.yul\":14253:14279   */\n      0x546869732061756374696f6e2069732066696e69736865640000000000000000\n        /* \"#utility.yul\":14249:14250   */\n      0x00\n        /* \"#utility.yul\":14241:14247   */\n      dup3\n        /* \"#utility.yul\":14237:14251   */\n      add\n        /* \"#utility.yul\":14230:14280   */\n      mstore\n        /* \"#utility.yul\":14113:14287   */\n      pop\n      jump\t// out\n        /* \"#utility.yul\":14293:14524   */\n    tag_209:\n        /* \"#utility.yul\":14433:14467   */\n      0x5468697320626964206e6565647320746f206265206d6f7265207468616e206d\n        /* \"#utility.yul\":14429:14430   */\n      0x00\n        /* \"#utility.yul\":14421:14427   */\n      dup3\n        /* \"#utility.yul\":14417:14431   */\n      add\n        /* \"#utility.yul\":14410:14468   */\n      mstore\n        /* \"#utility.yul\":14502:14516   */\n      0x696e206269642076616c75650000000000000000000000000000000000000000\n        /* \"#utility.yul\":14497:14499   */\n      0x20\n        /* \"#utility.yul\":14489:14495   */\n      dup3\n        /* \"#utility.yul\":14485:14500   */\n      add\n        /* \"#utility.yul\":14478:14517   */\n      mstore\n        /* \"#utility.yul\":14293:14524   */\n      pop\n      jump\t// out\n        /* \"#utility.yul\":14530:14701   */\n    tag_214:\n        /* \"#utility.yul\":14670:14693   */\n      0x5468652061756374696f6e2068617320656e6465640000000000000000000000\n        /* \"#utility.yul\":14666:14667   */\n      0x00\n        /* \"#utility.yul\":14658:14664   */\n      dup3\n        /* \"#utility.yul\":14654:14668   */\n      add\n        /* \"#utility.yul\":14647:14694   */\n      mstore\n        /* \"#utility.yul\":14530:14701   */\n      pop\n      jump\t// out\n        /* \"#utility.yul\":14707:14881   */\n    tag_219:\n        /* \"#utility.yul\":14847:14873   */\n      0x5468652062696420686173206265656e20657870697265640000000000000000\n        /* \"#utility.yul\":14843:14844   */\n      0x00\n        /* \"#utility.yul\":14835:14841   */\n      dup3\n        /* \"#utility.yul\":14831:14845   */\n      add\n        /* \"#utility.yul\":14824:14874   */\n      mstore\n        /* \"#utility.yul\":14707:14881   */\n      pop\n      jump\t// out\n        /* \"#utility.yul\":14887:15009   */\n    tag_147:\n        /* \"#utility.yul\":14960:14984   */\n      tag_307\n        /* \"#utility.yul\":14978:14983   */\n      dup2\n        /* \"#utility.yul\":14960:14984   */\n      tag_183\n      jump\t// in\n    tag_307:\n        /* \"#utility.yul\":14953:14958   */\n      dup2\n        /* \"#utility.yul\":14950:14985   */\n      eq\n        /* \"#utility.yul\":14940:15003   */\n      tag_308\n      jumpi\n        /* \"#utility.yul\":14999:15000   */\n      0x00\n        /* \"#utility.yul\":14996:14997   */\n      dup1\n        /* \"#utility.yul\":14989:15001   */\n      revert\n        /* \"#utility.yul\":14940:15003   */\n    tag_308:\n        /* \"#utility.yul\":14887:15009   */\n      pop\n      jump\t// out\n        /* \"#utility.yul\":15015:15137   */\n    tag_157:\n        /* \"#utility.yul\":15088:15112   */\n      tag_310\n        /* \"#utility.yul\":15106:15111   */\n      dup2\n        /* \"#utility.yul\":15088:15112   */\n      tag_223\n      jump\t// in\n    tag_310:\n        /* \"#utility.yul\":15081:15086   */\n      dup2\n        /* \"#utility.yul\":15078:15113   */\n      eq\n        /* \"#utility.yul\":15068:15131   */\n      tag_311\n      jumpi\n        /* \"#utility.yul\":15127:15128   */\n      0x00\n        /* \"#utility.yul\":15124:15125   */\n      dup1\n        /* \"#utility.yul\":15117:15129   */\n      revert\n        /* \"#utility.yul\":15068:15131   */\n    tag_311:\n        /* \"#utility.yul\":15015:15137   */\n      pop\n      jump\t// out\n\n    auxdata: 0xa26469706673582212207173c24de669af0565ad1219e563cbf3f27ab82fe59deb7a5959c105cdc7908b64736f6c63430008070033\n}\n",
				"bytecode": {
					"linkReferences": {},
					"object": "608060405234801561001057600080fd5b50611689806100206000396000f3fe6080604052600436106100555760003560e01c806302e9d5e41461005a5780631252cb4814610076578063659dd2b41461009f5780638e5bc606146100bb578063e135268d146100f8578063f8b2cb4f14610137575b600080fd5b610074600480360381019061006f9190610f55565b610174565b005b34801561008257600080fd5b5061009d60048036038101906100989190610ecc565b6103fa565b005b6100b960048036038101906100b49190610f28565b6104da565b005b3480156100c757600080fd5b506100e260048036038101906100dd9190610f28565b6108ac565b6040516100ef91906111bf565b60405180910390f35b34801561010457600080fd5b5061011f600480360381019061011a9190610f55565b610a6b565b60405161012e939291906110a8565b60405180910390f35b34801561014357600080fd5b5061015e60048036038101906101599190610e9f565b610d06565b60405161016b91906111bf565b60405180910390f35b60008083815481106101895761018861145d565b5b90600052602060002090600402016040518060800160405290816000820160009054906101000a900473ffffffffffffffffffffffffffffffffffffffff1673ffffffffffffffffffffffffffffffffffffffff1673ffffffffffffffffffffffffffffffffffffffff168152602001600182015481526020016002820180546102129061136d565b80601f016020809104026020016040519081016040528092919081815260200182805461023e9061136d565b801561028b5780601f106102605761010080835404028352916020019161028b565b820191906000526020600020905b81548152906001019060200180831161026e57829003601f168201915b50505050508152602001600382015481525050905060006001600085815260200190815260200160002083815481106102c7576102c661145d565b5b90600052602060002090600402019050816000015173ffffffffffffffffffffffffffffffffffffffff163373ffffffffffffffffffffffffffffffffffffffff1614610349576040517f08c379a00000000000000000000000000000000000000000000000000000000081526004016103409061111f565b60405180910390fd5b600015158160030160009054906101000a900460ff161515146103a1576040517f08c379a00000000000000000000000000000000000000000000000000000000081526004016103989061117f565b60405180910390fd5b4261019082600201546103b49190611241565b116103f4576040517f08c379a00000000000000000000000000000000000000000000000000000000081526004016103eb9061119f565b60405180910390fd5b50505050565b600060405180608001604052803373ffffffffffffffffffffffffffffffffffffffff16815260200183815260200184815260200142815250908060018154018082558091505060019003906000526020600020906004020160009091909190915060008201518160000160006101000a81548173ffffffffffffffffffffffffffffffffffffffff021916908373ffffffffffffffffffffffffffffffffffffffff1602179055506020820151816001015560408201518160020190805190602001906104c9929190610d62565b506060820151816003015550505050565b60008082815481106104ef576104ee61145d565b5b90600052602060002090600402016040518060800160405290816000820160009054906101000a900473ffffffffffffffffffffffffffffffffffffffff1673ffffffffffffffffffffffffffffffffffffffff1673ffffffffffffffffffffffffffffffffffffffff168152602001600182015481526020016002820180546105789061136d565b80601f01602080910402602001604051908101604052809291908181526020018280546105a49061136d565b80156105f15780601f106105c6576101008083540402835291602001916105f1565b820191906000526020600020905b8154815290600101906020018083116105d457829003601f168201915b505050505081526020016003820154815250509050806000015173ffffffffffffffffffffffffffffffffffffffff163373ffffffffffffffffffffffffffffffffffffffff161415610679576040517f08c379a0000000000000000000000000000000000000000000000000000000008152600401610670906110df565b60405180910390fd5b60003414156106bd576040517f08c379a00000000000000000000000000000000000000000000000000000000081526004016106b4906110ff565b60405180910390fd5b610190816060015110610705576040517f08c379a00000000000000000000000000000000000000000000000000000000081526004016106fc9061113f565b60405180910390fd5b670de0b6b3a7640000816020015161071d91906112c8565b34101561075f576040517f08c379a00000000000000000000000000000000000000000000000000000000081526004016107569061115f565b60405180910390fd5b6001600083815260200190815260200160002060405180608001604052803373ffffffffffffffffffffffffffffffffffffffff16815260200134815260200142815260200160001515815250908060018154018082558091505060019003906000526020600020906004020160009091909190915060008201518160000160006101000a81548173ffffffffffffffffffffffffffffffffffffffff021916908373ffffffffffffffffffffffffffffffffffffffff160217905550602082015181600101556040820151816002015560608201518160030160006101000a81548160ff021916908315150217905550505034600260003073ffffffffffffffffffffffffffffffffffffffff1673ffffffffffffffffffffffffffffffffffffffff16815260200190815260200160002060008282546108a19190611241565b925050819055505050565b600080600083815481106108c3576108c261145d565b5b90600052602060002090600402016040518060800160405290816000820160009054906101000a900473ffffffffffffffffffffffffffffffffffffffff1673ffffffffffffffffffffffffffffffffffffffff1673ffffffffffffffffffffffffffffffffffffffff1681526020016001820154815260200160028201805461094c9061136d565b80601f01602080910402602001604051908101604052809291908181526020018280546109789061136d565b80156109c55780601f1061099a576101008083540402835291602001916109c5565b820191906000526020600020905b8154815290600101906020018083116109a857829003601f168201915b505050505081526020016003820154815250509050806000015173ffffffffffffffffffffffffffffffffffffffff163373ffffffffffffffffffffffffffffffffffffffff1614610a4c576040517f08c379a0000000000000000000000000000000000000000000000000000000008152600401610a439061111f565b60405180910390fd5b6001600084815260200190815260200160002080549050915050919050565b60008060008060008681548110610a8557610a8461145d565b5b90600052602060002090600402016040518060800160405290816000820160009054906101000a900473ffffffffffffffffffffffffffffffffffffffff1673ffffffffffffffffffffffffffffffffffffffff1673ffffffffffffffffffffffffffffffffffffffff16815260200160018201548152602001600282018054610b0e9061136d565b80601f0160208091040260200160405190810160405280929190818152602001828054610b3a9061136d565b8015610b875780601f10610b5c57610100808354040283529160200191610b87565b820191906000526020600020905b815481529060010190602001808311610b6a57829003601f168201915b5050505050815260200160038201548152505090506000600160008881526020019081526020016000208681548110610bc357610bc261145d565b5b90600052602060002090600402016040518060800160405290816000820160009054906101000a900473ffffffffffffffffffffffffffffffffffffffff1673ffffffffffffffffffffffffffffffffffffffff1673ffffffffffffffffffffffffffffffffffffffff16815260200160018201548152602001600282015481526020016003820160009054906101000a900460ff1615151515815250509050816000015173ffffffffffffffffffffffffffffffffffffffff163373ffffffffffffffffffffffffffffffffffffffff1614610cd5576040517f08c379a0000000000000000000000000000000000000000000000000000000008152600401610ccc9061111f565b60405180910390fd5b8060000151670de0b6b3a76400008260200151610cf29190611297565b826040015194509450945050509250925092565b6000670de0b6b3a7640000600260008473ffffffffffffffffffffffffffffffffffffffff1673ffffffffffffffffffffffffffffffffffffffff16815260200190815260200160002054610d5b9190611297565b9050919050565b828054610d6e9061136d565b90600052602060002090601f016020900481019282610d905760008555610dd7565b82601f10610da957805160ff1916838001178555610dd7565b82800160010185558215610dd7579182015b82811115610dd6578251825591602001919060010190610dbb565b5b509050610de49190610de8565b5090565b5b80821115610e01576000816000905550600101610de9565b5090565b6000610e18610e13846111ff565b6111da565b905082815260208101848484011115610e3457610e336114c0565b5b610e3f84828561135e565b509392505050565b600081359050610e5681611625565b92915050565b600082601f830112610e7157610e706114bb565b5b8135610e81848260208601610e05565b91505092915050565b600081359050610e998161163c565b92915050565b600060208284031215610eb557610eb46114ca565b5b6000610ec384828501610e47565b91505092915050565b60008060408385031215610ee357610ee26114ca565b5b600083013567ffffffffffffffff811115610f0157610f006114c5565b5b610f0d85828601610e5c565b9250506020610f1e85828601610e8a565b9150509250929050565b600060208284031215610f3e57610f3d6114ca565b5b6000610f4c84828501610e8a565b91505092915050565b60008060408385031215610f6c57610f6b6114ca565b5b6000610f7a85828601610e8a565b9250506020610f8b85828601610e8a565b9150509250929050565b610f9e81611322565b82525050565b6000610fb1601e83611230565b9150610fbc826114e0565b602082019050919050565b6000610fd4601583611230565b9150610fdf82611509565b602082019050919050565b6000610ff7601983611230565b915061100282611532565b602082019050919050565b600061101a601883611230565b91506110258261155b565b602082019050919050565b600061103d602c83611230565b915061104882611584565b604082019050919050565b6000611060601583611230565b915061106b826115d3565b602082019050919050565b6000611083601883611230565b915061108e826115fc565b602082019050919050565b6110a281611354565b82525050565b60006060820190506110bd6000830186610f95565b6110ca6020830185611099565b6110d76040830184611099565b949350505050565b600060208201905081810360008301526110f881610fa4565b9050919050565b6000602082019050818103600083015261111881610fc7565b9050919050565b6000602082019050818103600083015261113881610fea565b9050919050565b600060208201905081810360008301526111588161100d565b9050919050565b6000602082019050818103600083015261117881611030565b9050919050565b6000602082019050818103600083015261119881611053565b9050919050565b600060208201905081810360008301526111b881611076565b9050919050565b60006020820190506111d46000830184611099565b92915050565b60006111e46111f5565b90506111f0828261139f565b919050565b6000604051905090565b600067ffffffffffffffff82111561121a5761121961148c565b5b611223826114cf565b9050602081019050919050565b600082825260208201905092915050565b600061124c82611354565b915061125783611354565b9250827fffffffffffffffffffffffffffffffffffffffffffffffffffffffffffffffff0382111561128c5761128b6113d0565b5b828201905092915050565b60006112a282611354565b91506112ad83611354565b9250826112bd576112bc6113ff565b5b828204905092915050565b60006112d382611354565b91506112de83611354565b9250817fffffffffffffffffffffffffffffffffffffffffffffffffffffffffffffffff0483118215151615611317576113166113d0565b5b828202905092915050565b600061132d82611334565b9050919050565b600073ffffffffffffffffffffffffffffffffffffffff82169050919050565b6000819050919050565b82818337600083830152505050565b6000600282049050600182168061138557607f821691505b602082108114156113995761139861142e565b5b50919050565b6113a8826114cf565b810181811067ffffffffffffffff821117156113c7576113c661148c565b5b80604052505050565b7f4e487b7100000000000000000000000000000000000000000000000000000000600052601160045260246000fd5b7f4e487b7100000000000000000000000000000000000000000000000000000000600052601260045260246000fd5b7f4e487b7100000000000000000000000000000000000000000000000000000000600052602260045260246000fd5b7f4e487b7100000000000000000000000000000000000000000000000000000000600052603260045260246000fd5b7f4e487b7100000000000000000000000000000000000000000000000000000000600052604160045260246000fd5b600080fd5b600080fd5b600080fd5b600080fd5b6000601f19601f8301169050919050565b7f596f752063616e277420626964206f6e20796f7572206f776e20706f73740000600082015250565b7f496e76616c696420616d6f756e74206f66204269640000000000000000000000600082015250565b7f596f7520646f6e27742068617665207065726d697373696f6e00000000000000600082015250565b7f546869732061756374696f6e2069732066696e69736865640000000000000000600082015250565b7f5468697320626964206e6565647320746f206265206d6f7265207468616e206d60008201527f696e206269642076616c75650000000000000000000000000000000000000000602082015250565b7f5468652061756374696f6e2068617320656e6465640000000000000000000000600082015250565b7f5468652062696420686173206265656e20657870697265640000000000000000600082015250565b61162e81611322565b811461163957600080fd5b50565b61164581611354565b811461165057600080fd5b5056fea26469706673582212207173c24de669af0565ad1219e563cbf3f27ab82fe59deb7a5959c105cdc7908b64736f6c63430008070033",
					"opcodes": "PUSH1 0x80 PUSH1 0x40 MSTORE CALLVALUE DUP1 ISZERO PUSH2 0x10 JUMPI PUSH1 0x0 DUP1 REVERT JUMPDEST POP PUSH2 0x1689 DUP1 PUSH2 0x20 PUSH1 0x0 CODECOPY PUSH1 0x0 RETURN INVALID PUSH1 0x80 PUSH1 0x40 MSTORE PUSH1 0x4 CALLDATASIZE LT PUSH2 0x55 JUMPI PUSH1 0x0 CALLDATALOAD PUSH1 0xE0 SHR DUP1 PUSH4 0x2E9D5E4 EQ PUSH2 0x5A JUMPI DUP1 PUSH4 0x1252CB48 EQ PUSH2 0x76 JUMPI DUP1 PUSH4 0x659DD2B4 EQ PUSH2 0x9F JUMPI DUP1 PUSH4 0x8E5BC606 EQ PUSH2 0xBB JUMPI DUP1 PUSH4 0xE135268D EQ PUSH2 0xF8 JUMPI DUP1 PUSH4 0xF8B2CB4F EQ PUSH2 0x137 JUMPI JUMPDEST PUSH1 0x0 DUP1 REVERT JUMPDEST PUSH2 0x74 PUSH1 0x4 DUP1 CALLDATASIZE SUB DUP2 ADD SWAP1 PUSH2 0x6F SWAP2 SWAP1 PUSH2 0xF55 JUMP JUMPDEST PUSH2 0x174 JUMP JUMPDEST STOP JUMPDEST CALLVALUE DUP1 ISZERO PUSH2 0x82 JUMPI PUSH1 0x0 DUP1 REVERT JUMPDEST POP PUSH2 0x9D PUSH1 0x4 DUP1 CALLDATASIZE SUB DUP2 ADD SWAP1 PUSH2 0x98 SWAP2 SWAP1 PUSH2 0xECC JUMP JUMPDEST PUSH2 0x3FA JUMP JUMPDEST STOP JUMPDEST PUSH2 0xB9 PUSH1 0x4 DUP1 CALLDATASIZE SUB DUP2 ADD SWAP1 PUSH2 0xB4 SWAP2 SWAP1 PUSH2 0xF28 JUMP JUMPDEST PUSH2 0x4DA JUMP JUMPDEST STOP JUMPDEST CALLVALUE DUP1 ISZERO PUSH2 0xC7 JUMPI PUSH1 0x0 DUP1 REVERT JUMPDEST POP PUSH2 0xE2 PUSH1 0x4 DUP1 CALLDATASIZE SUB DUP2 ADD SWAP1 PUSH2 0xDD SWAP2 SWAP1 PUSH2 0xF28 JUMP JUMPDEST PUSH2 0x8AC JUMP JUMPDEST PUSH1 0x40 MLOAD PUSH2 0xEF SWAP2 SWAP1 PUSH2 0x11BF JUMP JUMPDEST PUSH1 0x40 MLOAD DUP1 SWAP2 SUB SWAP1 RETURN JUMPDEST CALLVALUE DUP1 ISZERO PUSH2 0x104 JUMPI PUSH1 0x0 DUP1 REVERT JUMPDEST POP PUSH2 0x11F PUSH1 0x4 DUP1 CALLDATASIZE SUB DUP2 ADD SWAP1 PUSH2 0x11A SWAP2 SWAP1 PUSH2 0xF55 JUMP JUMPDEST PUSH2 0xA6B JUMP JUMPDEST PUSH1 0x40 MLOAD PUSH2 0x12E SWAP4 SWAP3 SWAP2 SWAP1 PUSH2 0x10A8 JUMP JUMPDEST PUSH1 0x40 MLOAD DUP1 SWAP2 SUB SWAP1 RETURN JUMPDEST CALLVALUE DUP1 ISZERO PUSH2 0x143 JUMPI PUSH1 0x0 DUP1 REVERT JUMPDEST POP PUSH2 0x15E PUSH1 0x4 DUP1 CALLDATASIZE SUB DUP2 ADD SWAP1 PUSH2 0x159 SWAP2 SWAP1 PUSH2 0xE9F JUMP JUMPDEST PUSH2 0xD06 JUMP JUMPDEST PUSH1 0x40 MLOAD PUSH2 0x16B SWAP2 SWAP1 PUSH2 0x11BF JUMP JUMPDEST PUSH1 0x40 MLOAD DUP1 SWAP2 SUB SWAP1 RETURN JUMPDEST PUSH1 0x0 DUP1 DUP4 DUP2 SLOAD DUP2 LT PUSH2 0x189 JUMPI PUSH2 0x188 PUSH2 0x145D JUMP JUMPDEST JUMPDEST SWAP1 PUSH1 0x0 MSTORE PUSH1 0x20 PUSH1 0x0 KECCAK256 SWAP1 PUSH1 0x4 MUL ADD PUSH1 0x40 MLOAD DUP1 PUSH1 0x80 ADD PUSH1 0x40 MSTORE SWAP1 DUP2 PUSH1 0x0 DUP3 ADD PUSH1 0x0 SWAP1 SLOAD SWAP1 PUSH2 0x100 EXP SWAP1 DIV PUSH20 0xFFFFFFFFFFFFFFFFFFFFFFFFFFFFFFFFFFFFFFFF AND PUSH20 0xFFFFFFFFFFFFFFFFFFFFFFFFFFFFFFFFFFFFFFFF AND PUSH20 0xFFFFFFFFFFFFFFFFFFFFFFFFFFFFFFFFFFFFFFFF AND DUP2 MSTORE PUSH1 0x20 ADD PUSH1 0x1 DUP3 ADD SLOAD DUP2 MSTORE PUSH1 0x20 ADD PUSH1 0x2 DUP3 ADD DUP1 SLOAD PUSH2 0x212 SWAP1 PUSH2 0x136D JUMP JUMPDEST DUP1 PUSH1 0x1F ADD PUSH1 0x20 DUP1 SWAP2 DIV MUL PUSH1 0x20 ADD PUSH1 0x40 MLOAD SWAP1 DUP2 ADD PUSH1 0x40 MSTORE DUP1 SWAP3 SWAP2 SWAP1 DUP2 DUP2 MSTORE PUSH1 0x20 ADD DUP3 DUP1 SLOAD PUSH2 0x23E SWAP1 PUSH2 0x136D JUMP JUMPDEST DUP1 ISZERO PUSH2 0x28B JUMPI DUP1 PUSH1 0x1F LT PUSH2 0x260 JUMPI PUSH2 0x100 DUP1 DUP4 SLOAD DIV MUL DUP4 MSTORE SWAP2 PUSH1 0x20 ADD SWAP2 PUSH2 0x28B JUMP JUMPDEST DUP3 ADD SWAP2 SWAP1 PUSH1 0x0 MSTORE PUSH1 0x20 PUSH1 0x0 KECCAK256 SWAP1 JUMPDEST DUP2 SLOAD DUP2 MSTORE SWAP1 PUSH1 0x1 ADD SWAP1 PUSH1 0x20 ADD DUP1 DUP4 GT PUSH2 0x26E JUMPI DUP3 SWAP1 SUB PUSH1 0x1F AND DUP3 ADD SWAP2 JUMPDEST POP POP POP POP POP DUP2 MSTORE PUSH1 0x20 ADD PUSH1 0x3 DUP3 ADD SLOAD DUP2 MSTORE POP POP SWAP1 POP PUSH1 0x0 PUSH1 0x1 PUSH1 0x0 DUP6 DUP2 MSTORE PUSH1 0x20 ADD SWAP1 DUP2 MSTORE PUSH1 0x20 ADD PUSH1 0x0 KECCAK256 DUP4 DUP2 SLOAD DUP2 LT PUSH2 0x2C7 JUMPI PUSH2 0x2C6 PUSH2 0x145D JUMP JUMPDEST JUMPDEST SWAP1 PUSH1 0x0 MSTORE PUSH1 0x20 PUSH1 0x0 KECCAK256 SWAP1 PUSH1 0x4 MUL ADD SWAP1 POP DUP2 PUSH1 0x0 ADD MLOAD PUSH20 0xFFFFFFFFFFFFFFFFFFFFFFFFFFFFFFFFFFFFFFFF AND CALLER PUSH20 0xFFFFFFFFFFFFFFFFFFFFFFFFFFFFFFFFFFFFFFFF AND EQ PUSH2 0x349 JUMPI PUSH1 0x40 MLOAD PUSH32 0x8C379A000000000000000000000000000000000000000000000000000000000 DUP2 MSTORE PUSH1 0x4 ADD PUSH2 0x340 SWAP1 PUSH2 0x111F JUMP JUMPDEST PUSH1 0x40 MLOAD DUP1 SWAP2 SUB SWAP1 REVERT JUMPDEST PUSH1 0x0 ISZERO ISZERO DUP2 PUSH1 0x3 ADD PUSH1 0x0 SWAP1 SLOAD SWAP1 PUSH2 0x100 EXP SWAP1 DIV PUSH1 0xFF AND ISZERO ISZERO EQ PUSH2 0x3A1 JUMPI PUSH1 0x40 MLOAD PUSH32 0x8C379A000000000000000000000000000000000000000000000000000000000 DUP2 MSTORE PUSH1 0x4 ADD PUSH2 0x398 SWAP1 PUSH2 0x117F JUMP JUMPDEST PUSH1 0x40 MLOAD DUP1 SWAP2 SUB SWAP1 REVERT JUMPDEST TIMESTAMP PUSH2 0x190 DUP3 PUSH1 0x2 ADD SLOAD PUSH2 0x3B4 SWAP2 SWAP1 PUSH2 0x1241 JUMP JUMPDEST GT PUSH2 0x3F4 JUMPI PUSH1 0x40 MLOAD PUSH32 0x8C379A000000000000000000000000000000000000000000000000000000000 DUP2 MSTORE PUSH1 0x4 ADD PUSH2 0x3EB SWAP1 PUSH2 0x119F JUMP JUMPDEST PUSH1 0x40 MLOAD DUP1 SWAP2 SUB SWAP1 REVERT JUMPDEST POP POP POP POP JUMP JUMPDEST PUSH1 0x0 PUSH1 0x40 MLOAD DUP1 PUSH1 0x80 ADD PUSH1 0x40 MSTORE DUP1 CALLER PUSH20 0xFFFFFFFFFFFFFFFFFFFFFFFFFFFFFFFFFFFFFFFF AND DUP2 MSTORE PUSH1 0x20 ADD DUP4 DUP2 MSTORE PUSH1 0x20 ADD DUP5 DUP2 MSTORE PUSH1 0x20 ADD TIMESTAMP DUP2 MSTORE POP SWAP1 DUP1 PUSH1 0x1 DUP2 SLOAD ADD DUP1 DUP3 SSTORE DUP1 SWAP2 POP POP PUSH1 0x1 SWAP1 SUB SWAP1 PUSH1 0x0 MSTORE PUSH1 0x20 PUSH1 0x0 KECCAK256 SWAP1 PUSH1 0x4 MUL ADD PUSH1 0x0 SWAP1 SWAP2 SWAP1 SWAP2 SWAP1 SWAP2 POP PUSH1 0x0 DUP3 ADD MLOAD DUP2 PUSH1 0x0 ADD PUSH1 0x0 PUSH2 0x100 EXP DUP2 SLOAD DUP2 PUSH20 0xFFFFFFFFFFFFFFFFFFFFFFFFFFFFFFFFFFFFFFFF MUL NOT AND SWAP1 DUP4 PUSH20 0xFFFFFFFFFFFFFFFFFFFFFFFFFFFFFFFFFFFFFFFF AND MUL OR SWAP1 SSTORE POP PUSH1 0x20 DUP3 ADD MLOAD DUP2 PUSH1 0x1 ADD SSTORE PUSH1 0x40 DUP3 ADD MLOAD DUP2 PUSH1 0x2 ADD SWAP1 DUP1 MLOAD SWAP1 PUSH1 0x20 ADD SWAP1 PUSH2 0x4C9 SWAP3 SWAP2 SWAP1 PUSH2 0xD62 JUMP JUMPDEST POP PUSH1 0x60 DUP3 ADD MLOAD DUP2 PUSH1 0x3 ADD SSTORE POP POP POP POP JUMP JUMPDEST PUSH1 0x0 DUP1 DUP3 DUP2 SLOAD DUP2 LT PUSH2 0x4EF JUMPI PUSH2 0x4EE PUSH2 0x145D JUMP JUMPDEST JUMPDEST SWAP1 PUSH1 0x0 MSTORE PUSH1 0x20 PUSH1 0x0 KECCAK256 SWAP1 PUSH1 0x4 MUL ADD PUSH1 0x40 MLOAD DUP1 PUSH1 0x80 ADD PUSH1 0x40 MSTORE SWAP1 DUP2 PUSH1 0x0 DUP3 ADD PUSH1 0x0 SWAP1 SLOAD SWAP1 PUSH2 0x100 EXP SWAP1 DIV PUSH20 0xFFFFFFFFFFFFFFFFFFFFFFFFFFFFFFFFFFFFFFFF AND PUSH20 0xFFFFFFFFFFFFFFFFFFFFFFFFFFFFFFFFFFFFFFFF AND PUSH20 0xFFFFFFFFFFFFFFFFFFFFFFFFFFFFFFFFFFFFFFFF AND DUP2 MSTORE PUSH1 0x20 ADD PUSH1 0x1 DUP3 ADD SLOAD DUP2 MSTORE PUSH1 0x20 ADD PUSH1 0x2 DUP3 ADD DUP1 SLOAD PUSH2 0x578 SWAP1 PUSH2 0x136D JUMP JUMPDEST DUP1 PUSH1 0x1F ADD PUSH1 0x20 DUP1 SWAP2 DIV MUL PUSH1 0x20 ADD PUSH1 0x40 MLOAD SWAP1 DUP2 ADD PUSH1 0x40 MSTORE DUP1 SWAP3 SWAP2 SWAP1 DUP2 DUP2 MSTORE PUSH1 0x20 ADD DUP3 DUP1 SLOAD PUSH2 0x5A4 SWAP1 PUSH2 0x136D JUMP JUMPDEST DUP1 ISZERO PUSH2 0x5F1 JUMPI DUP1 PUSH1 0x1F LT PUSH2 0x5C6 JUMPI PUSH2 0x100 DUP1 DUP4 SLOAD DIV MUL DUP4 MSTORE SWAP2 PUSH1 0x20 ADD SWAP2 PUSH2 0x5F1 JUMP JUMPDEST DUP3 ADD SWAP2 SWAP1 PUSH1 0x0 MSTORE PUSH1 0x20 PUSH1 0x0 KECCAK256 SWAP1 JUMPDEST DUP2 SLOAD DUP2 MSTORE SWAP1 PUSH1 0x1 ADD SWAP1 PUSH1 0x20 ADD DUP1 DUP4 GT PUSH2 0x5D4 JUMPI DUP3 SWAP1 SUB PUSH1 0x1F AND DUP3 ADD SWAP2 JUMPDEST POP POP POP POP POP DUP2 MSTORE PUSH1 0x20 ADD PUSH1 0x3 DUP3 ADD SLOAD DUP2 MSTORE POP POP SWAP1 POP DUP1 PUSH1 0x0 ADD MLOAD PUSH20 0xFFFFFFFFFFFFFFFFFFFFFFFFFFFFFFFFFFFFFFFF AND CALLER PUSH20 0xFFFFFFFFFFFFFFFFFFFFFFFFFFFFFFFFFFFFFFFF AND EQ ISZERO PUSH2 0x679 JUMPI PUSH1 0x40 MLOAD PUSH32 0x8C379A000000000000000000000000000000000000000000000000000000000 DUP2 MSTORE PUSH1 0x4 ADD PUSH2 0x670 SWAP1 PUSH2 0x10DF JUMP JUMPDEST PUSH1 0x40 MLOAD DUP1 SWAP2 SUB SWAP1 REVERT JUMPDEST PUSH1 0x0 CALLVALUE EQ ISZERO PUSH2 0x6BD JUMPI PUSH1 0x40 MLOAD PUSH32 0x8C379A000000000000000000000000000000000000000000000000000000000 DUP2 MSTORE PUSH1 0x4 ADD PUSH2 0x6B4 SWAP1 PUSH2 0x10FF JUMP JUMPDEST PUSH1 0x40 MLOAD DUP1 SWAP2 SUB SWAP1 REVERT JUMPDEST PUSH2 0x190 DUP2 PUSH1 0x60 ADD MLOAD LT PUSH2 0x705 JUMPI PUSH1 0x40 MLOAD PUSH32 0x8C379A000000000000000000000000000000000000000000000000000000000 DUP2 MSTORE PUSH1 0x4 ADD PUSH2 0x6FC SWAP1 PUSH2 0x113F JUMP JUMPDEST PUSH1 0x40 MLOAD DUP1 SWAP2 SUB SWAP1 REVERT JUMPDEST PUSH8 0xDE0B6B3A7640000 DUP2 PUSH1 0x20 ADD MLOAD PUSH2 0x71D SWAP2 SWAP1 PUSH2 0x12C8 JUMP JUMPDEST CALLVALUE LT ISZERO PUSH2 0x75F JUMPI PUSH1 0x40 MLOAD PUSH32 0x8C379A000000000000000000000000000000000000000000000000000000000 DUP2 MSTORE PUSH1 0x4 ADD PUSH2 0x756 SWAP1 PUSH2 0x115F JUMP JUMPDEST PUSH1 0x40 MLOAD DUP1 SWAP2 SUB SWAP1 REVERT JUMPDEST PUSH1 0x1 PUSH1 0x0 DUP4 DUP2 MSTORE PUSH1 0x20 ADD SWAP1 DUP2 MSTORE PUSH1 0x20 ADD PUSH1 0x0 KECCAK256 PUSH1 0x40 MLOAD DUP1 PUSH1 0x80 ADD PUSH1 0x40 MSTORE DUP1 CALLER PUSH20 0xFFFFFFFFFFFFFFFFFFFFFFFFFFFFFFFFFFFFFFFF AND DUP2 MSTORE PUSH1 0x20 ADD CALLVALUE DUP2 MSTORE PUSH1 0x20 ADD TIMESTAMP DUP2 MSTORE PUSH1 0x20 ADD PUSH1 0x0 ISZERO ISZERO DUP2 MSTORE POP SWAP1 DUP1 PUSH1 0x1 DUP2 SLOAD ADD DUP1 DUP3 SSTORE DUP1 SWAP2 POP POP PUSH1 0x1 SWAP1 SUB SWAP1 PUSH1 0x0 MSTORE PUSH1 0x20 PUSH1 0x0 KECCAK256 SWAP1 PUSH1 0x4 MUL ADD PUSH1 0x0 SWAP1 SWAP2 SWAP1 SWAP2 SWAP1 SWAP2 POP PUSH1 0x0 DUP3 ADD MLOAD DUP2 PUSH1 0x0 ADD PUSH1 0x0 PUSH2 0x100 EXP DUP2 SLOAD DUP2 PUSH20 0xFFFFFFFFFFFFFFFFFFFFFFFFFFFFFFFFFFFFFFFF MUL NOT AND SWAP1 DUP4 PUSH20 0xFFFFFFFFFFFFFFFFFFFFFFFFFFFFFFFFFFFFFFFF AND MUL OR SWAP1 SSTORE POP PUSH1 0x20 DUP3 ADD MLOAD DUP2 PUSH1 0x1 ADD SSTORE PUSH1 0x40 DUP3 ADD MLOAD DUP2 PUSH1 0x2 ADD SSTORE PUSH1 0x60 DUP3 ADD MLOAD DUP2 PUSH1 0x3 ADD PUSH1 0x0 PUSH2 0x100 EXP DUP2 SLOAD DUP2 PUSH1 0xFF MUL NOT AND SWAP1 DUP4 ISZERO ISZERO MUL OR SWAP1 SSTORE POP POP POP CALLVALUE PUSH1 0x2 PUSH1 0x0 ADDRESS PUSH20 0xFFFFFFFFFFFFFFFFFFFFFFFFFFFFFFFFFFFFFFFF AND PUSH20 0xFFFFFFFFFFFFFFFFFFFFFFFFFFFFFFFFFFFFFFFF AND DUP2 MSTORE PUSH1 0x20 ADD SWAP1 DUP2 MSTORE PUSH1 0x20 ADD PUSH1 0x0 KECCAK256 PUSH1 0x0 DUP3 DUP3 SLOAD PUSH2 0x8A1 SWAP2 SWAP1 PUSH2 0x1241 JUMP JUMPDEST SWAP3 POP POP DUP2 SWAP1 SSTORE POP POP POP JUMP JUMPDEST PUSH1 0x0 DUP1 PUSH1 0x0 DUP4 DUP2 SLOAD DUP2 LT PUSH2 0x8C3 JUMPI PUSH2 0x8C2 PUSH2 0x145D JUMP JUMPDEST JUMPDEST SWAP1 PUSH1 0x0 MSTORE PUSH1 0x20 PUSH1 0x0 KECCAK256 SWAP1 PUSH1 0x4 MUL ADD PUSH1 0x40 MLOAD DUP1 PUSH1 0x80 ADD PUSH1 0x40 MSTORE SWAP1 DUP2 PUSH1 0x0 DUP3 ADD PUSH1 0x0 SWAP1 SLOAD SWAP1 PUSH2 0x100 EXP SWAP1 DIV PUSH20 0xFFFFFFFFFFFFFFFFFFFFFFFFFFFFFFFFFFFFFFFF AND PUSH20 0xFFFFFFFFFFFFFFFFFFFFFFFFFFFFFFFFFFFFFFFF AND PUSH20 0xFFFFFFFFFFFFFFFFFFFFFFFFFFFFFFFFFFFFFFFF AND DUP2 MSTORE PUSH1 0x20 ADD PUSH1 0x1 DUP3 ADD SLOAD DUP2 MSTORE PUSH1 0x20 ADD PUSH1 0x2 DUP3 ADD DUP1 SLOAD PUSH2 0x94C SWAP1 PUSH2 0x136D JUMP JUMPDEST DUP1 PUSH1 0x1F ADD PUSH1 0x20 DUP1 SWAP2 DIV MUL PUSH1 0x20 ADD PUSH1 0x40 MLOAD SWAP1 DUP2 ADD PUSH1 0x40 MSTORE DUP1 SWAP3 SWAP2 SWAP1 DUP2 DUP2 MSTORE PUSH1 0x20 ADD DUP3 DUP1 SLOAD PUSH2 0x978 SWAP1 PUSH2 0x136D JUMP JUMPDEST DUP1 ISZERO PUSH2 0x9C5 JUMPI DUP1 PUSH1 0x1F LT PUSH2 0x99A JUMPI PUSH2 0x100 DUP1 DUP4 SLOAD DIV MUL DUP4 MSTORE SWAP2 PUSH1 0x20 ADD SWAP2 PUSH2 0x9C5 JUMP JUMPDEST DUP3 ADD SWAP2 SWAP1 PUSH1 0x0 MSTORE PUSH1 0x20 PUSH1 0x0 KECCAK256 SWAP1 JUMPDEST DUP2 SLOAD DUP2 MSTORE SWAP1 PUSH1 0x1 ADD SWAP1 PUSH1 0x20 ADD DUP1 DUP4 GT PUSH2 0x9A8 JUMPI DUP3 SWAP1 SUB PUSH1 0x1F AND DUP3 ADD SWAP2 JUMPDEST POP POP POP POP POP DUP2 MSTORE PUSH1 0x20 ADD PUSH1 0x3 DUP3 ADD SLOAD DUP2 MSTORE POP POP SWAP1 POP DUP1 PUSH1 0x0 ADD MLOAD PUSH20 0xFFFFFFFFFFFFFFFFFFFFFFFFFFFFFFFFFFFFFFFF AND CALLER PUSH20 0xFFFFFFFFFFFFFFFFFFFFFFFFFFFFFFFFFFFFFFFF AND EQ PUSH2 0xA4C JUMPI PUSH1 0x40 MLOAD PUSH32 0x8C379A000000000000000000000000000000000000000000000000000000000 DUP2 MSTORE PUSH1 0x4 ADD PUSH2 0xA43 SWAP1 PUSH2 0x111F JUMP JUMPDEST PUSH1 0x40 MLOAD DUP1 SWAP2 SUB SWAP1 REVERT JUMPDEST PUSH1 0x1 PUSH1 0x0 DUP5 DUP2 MSTORE PUSH1 0x20 ADD SWAP1 DUP2 MSTORE PUSH1 0x20 ADD PUSH1 0x0 KECCAK256 DUP1 SLOAD SWAP1 POP SWAP2 POP POP SWAP2 SWAP1 POP JUMP JUMPDEST PUSH1 0x0 DUP1 PUSH1 0x0 DUP1 PUSH1 0x0 DUP7 DUP2 SLOAD DUP2 LT PUSH2 0xA85 JUMPI PUSH2 0xA84 PUSH2 0x145D JUMP JUMPDEST JUMPDEST SWAP1 PUSH1 0x0 MSTORE PUSH1 0x20 PUSH1 0x0 KECCAK256 SWAP1 PUSH1 0x4 MUL ADD PUSH1 0x40 MLOAD DUP1 PUSH1 0x80 ADD PUSH1 0x40 MSTORE SWAP1 DUP2 PUSH1 0x0 DUP3 ADD PUSH1 0x0 SWAP1 SLOAD SWAP1 PUSH2 0x100 EXP SWAP1 DIV PUSH20 0xFFFFFFFFFFFFFFFFFFFFFFFFFFFFFFFFFFFFFFFF AND PUSH20 0xFFFFFFFFFFFFFFFFFFFFFFFFFFFFFFFFFFFFFFFF AND PUSH20 0xFFFFFFFFFFFFFFFFFFFFFFFFFFFFFFFFFFFFFFFF AND DUP2 MSTORE PUSH1 0x20 ADD PUSH1 0x1 DUP3 ADD SLOAD DUP2 MSTORE PUSH1 0x20 ADD PUSH1 0x2 DUP3 ADD DUP1 SLOAD PUSH2 0xB0E SWAP1 PUSH2 0x136D JUMP JUMPDEST DUP1 PUSH1 0x1F ADD PUSH1 0x20 DUP1 SWAP2 DIV MUL PUSH1 0x20 ADD PUSH1 0x40 MLOAD SWAP1 DUP2 ADD PUSH1 0x40 MSTORE DUP1 SWAP3 SWAP2 SWAP1 DUP2 DUP2 MSTORE PUSH1 0x20 ADD DUP3 DUP1 SLOAD PUSH2 0xB3A SWAP1 PUSH2 0x136D JUMP JUMPDEST DUP1 ISZERO PUSH2 0xB87 JUMPI DUP1 PUSH1 0x1F LT PUSH2 0xB5C JUMPI PUSH2 0x100 DUP1 DUP4 SLOAD DIV MUL DUP4 MSTORE SWAP2 PUSH1 0x20 ADD SWAP2 PUSH2 0xB87 JUMP JUMPDEST DUP3 ADD SWAP2 SWAP1 PUSH1 0x0 MSTORE PUSH1 0x20 PUSH1 0x0 KECCAK256 SWAP1 JUMPDEST DUP2 SLOAD DUP2 MSTORE SWAP1 PUSH1 0x1 ADD SWAP1 PUSH1 0x20 ADD DUP1 DUP4 GT PUSH2 0xB6A JUMPI DUP3 SWAP1 SUB PUSH1 0x1F AND DUP3 ADD SWAP2 JUMPDEST POP POP POP POP POP DUP2 MSTORE PUSH1 0x20 ADD PUSH1 0x3 DUP3 ADD SLOAD DUP2 MSTORE POP POP SWAP1 POP PUSH1 0x0 PUSH1 0x1 PUSH1 0x0 DUP9 DUP2 MSTORE PUSH1 0x20 ADD SWAP1 DUP2 MSTORE PUSH1 0x20 ADD PUSH1 0x0 KECCAK256 DUP7 DUP2 SLOAD DUP2 LT PUSH2 0xBC3 JUMPI PUSH2 0xBC2 PUSH2 0x145D JUMP JUMPDEST JUMPDEST SWAP1 PUSH1 0x0 MSTORE PUSH1 0x20 PUSH1 0x0 KECCAK256 SWAP1 PUSH1 0x4 MUL ADD PUSH1 0x40 MLOAD DUP1 PUSH1 0x80 ADD PUSH1 0x40 MSTORE SWAP1 DUP2 PUSH1 0x0 DUP3 ADD PUSH1 0x0 SWAP1 SLOAD SWAP1 PUSH2 0x100 EXP SWAP1 DIV PUSH20 0xFFFFFFFFFFFFFFFFFFFFFFFFFFFFFFFFFFFFFFFF AND PUSH20 0xFFFFFFFFFFFFFFFFFFFFFFFFFFFFFFFFFFFFFFFF AND PUSH20 0xFFFFFFFFFFFFFFFFFFFFFFFFFFFFFFFFFFFFFFFF AND DUP2 MSTORE PUSH1 0x20 ADD PUSH1 0x1 DUP3 ADD SLOAD DUP2 MSTORE PUSH1 0x20 ADD PUSH1 0x2 DUP3 ADD SLOAD DUP2 MSTORE PUSH1 0x20 ADD PUSH1 0x3 DUP3 ADD PUSH1 0x0 SWAP1 SLOAD SWAP1 PUSH2 0x100 EXP SWAP1 DIV PUSH1 0xFF AND ISZERO ISZERO ISZERO ISZERO DUP2 MSTORE POP POP SWAP1 POP DUP2 PUSH1 0x0 ADD MLOAD PUSH20 0xFFFFFFFFFFFFFFFFFFFFFFFFFFFFFFFFFFFFFFFF AND CALLER PUSH20 0xFFFFFFFFFFFFFFFFFFFFFFFFFFFFFFFFFFFFFFFF AND EQ PUSH2 0xCD5 JUMPI PUSH1 0x40 MLOAD PUSH32 0x8C379A000000000000000000000000000000000000000000000000000000000 DUP2 MSTORE PUSH1 0x4 ADD PUSH2 0xCCC SWAP1 PUSH2 0x111F JUMP JUMPDEST PUSH1 0x40 MLOAD DUP1 SWAP2 SUB SWAP1 REVERT JUMPDEST DUP1 PUSH1 0x0 ADD MLOAD PUSH8 0xDE0B6B3A7640000 DUP3 PUSH1 0x20 ADD MLOAD PUSH2 0xCF2 SWAP2 SWAP1 PUSH2 0x1297 JUMP JUMPDEST DUP3 PUSH1 0x40 ADD MLOAD SWAP5 POP SWAP5 POP SWAP5 POP POP POP SWAP3 POP SWAP3 POP SWAP3 JUMP JUMPDEST PUSH1 0x0 PUSH8 0xDE0B6B3A7640000 PUSH1 0x2 PUSH1 0x0 DUP5 PUSH20 0xFFFFFFFFFFFFFFFFFFFFFFFFFFFFFFFFFFFFFFFF AND PUSH20 0xFFFFFFFFFFFFFFFFFFFFFFFFFFFFFFFFFFFFFFFF AND DUP2 MSTORE PUSH1 0x20 ADD SWAP1 DUP2 MSTORE PUSH1 0x20 ADD PUSH1 0x0 KECCAK256 SLOAD PUSH2 0xD5B SWAP2 SWAP1 PUSH2 0x1297 JUMP JUMPDEST SWAP1 POP SWAP2 SWAP1 POP JUMP JUMPDEST DUP3 DUP1 SLOAD PUSH2 0xD6E SWAP1 PUSH2 0x136D JUMP JUMPDEST SWAP1 PUSH1 0x0 MSTORE PUSH1 0x20 PUSH1 0x0 KECCAK256 SWAP1 PUSH1 0x1F ADD PUSH1 0x20 SWAP1 DIV DUP2 ADD SWAP3 DUP3 PUSH2 0xD90 JUMPI PUSH1 0x0 DUP6 SSTORE PUSH2 0xDD7 JUMP JUMPDEST DUP3 PUSH1 0x1F LT PUSH2 0xDA9 JUMPI DUP1 MLOAD PUSH1 0xFF NOT AND DUP4 DUP1 ADD OR DUP6 SSTORE PUSH2 0xDD7 JUMP JUMPDEST DUP3 DUP1 ADD PUSH1 0x1 ADD DUP6 SSTORE DUP3 ISZERO PUSH2 0xDD7 JUMPI SWAP2 DUP3 ADD JUMPDEST DUP3 DUP2 GT ISZERO PUSH2 0xDD6 JUMPI DUP3 MLOAD DUP3 SSTORE SWAP2 PUSH1 0x20 ADD SWAP2 SWAP1 PUSH1 0x1 ADD SWAP1 PUSH2 0xDBB JUMP JUMPDEST JUMPDEST POP SWAP1 POP PUSH2 0xDE4 SWAP2 SWAP1 PUSH2 0xDE8 JUMP JUMPDEST POP SWAP1 JUMP JUMPDEST JUMPDEST DUP1 DUP3 GT ISZERO PUSH2 0xE01 JUMPI PUSH1 0x0 DUP2 PUSH1 0x0 SWAP1 SSTORE POP PUSH1 0x1 ADD PUSH2 0xDE9 JUMP JUMPDEST POP SWAP1 JUMP JUMPDEST PUSH1 0x0 PUSH2 0xE18 PUSH2 0xE13 DUP5 PUSH2 0x11FF JUMP JUMPDEST PUSH2 0x11DA JUMP JUMPDEST SWAP1 POP DUP3 DUP2 MSTORE PUSH1 0x20 DUP2 ADD DUP5 DUP5 DUP5 ADD GT ISZERO PUSH2 0xE34 JUMPI PUSH2 0xE33 PUSH2 0x14C0 JUMP JUMPDEST JUMPDEST PUSH2 0xE3F DUP5 DUP3 DUP6 PUSH2 0x135E JUMP JUMPDEST POP SWAP4 SWAP3 POP POP POP JUMP JUMPDEST PUSH1 0x0 DUP2 CALLDATALOAD SWAP1 POP PUSH2 0xE56 DUP2 PUSH2 0x1625 JUMP JUMPDEST SWAP3 SWAP2 POP POP JUMP JUMPDEST PUSH1 0x0 DUP3 PUSH1 0x1F DUP4 ADD SLT PUSH2 0xE71 JUMPI PUSH2 0xE70 PUSH2 0x14BB JUMP JUMPDEST JUMPDEST DUP2 CALLDATALOAD PUSH2 0xE81 DUP5 DUP3 PUSH1 0x20 DUP7 ADD PUSH2 0xE05 JUMP JUMPDEST SWAP2 POP POP SWAP3 SWAP2 POP POP JUMP JUMPDEST PUSH1 0x0 DUP2 CALLDATALOAD SWAP1 POP PUSH2 0xE99 DUP2 PUSH2 0x163C JUMP JUMPDEST SWAP3 SWAP2 POP POP JUMP JUMPDEST PUSH1 0x0 PUSH1 0x20 DUP3 DUP5 SUB SLT ISZERO PUSH2 0xEB5 JUMPI PUSH2 0xEB4 PUSH2 0x14CA JUMP JUMPDEST JUMPDEST PUSH1 0x0 PUSH2 0xEC3 DUP5 DUP3 DUP6 ADD PUSH2 0xE47 JUMP JUMPDEST SWAP2 POP POP SWAP3 SWAP2 POP POP JUMP JUMPDEST PUSH1 0x0 DUP1 PUSH1 0x40 DUP4 DUP6 SUB SLT ISZERO PUSH2 0xEE3 JUMPI PUSH2 0xEE2 PUSH2 0x14CA JUMP JUMPDEST JUMPDEST PUSH1 0x0 DUP4 ADD CALLDATALOAD PUSH8 0xFFFFFFFFFFFFFFFF DUP2 GT ISZERO PUSH2 0xF01 JUMPI PUSH2 0xF00 PUSH2 0x14C5 JUMP JUMPDEST JUMPDEST PUSH2 0xF0D DUP6 DUP3 DUP7 ADD PUSH2 0xE5C JUMP JUMPDEST SWAP3 POP POP PUSH1 0x20 PUSH2 0xF1E DUP6 DUP3 DUP7 ADD PUSH2 0xE8A JUMP JUMPDEST SWAP2 POP POP SWAP3 POP SWAP3 SWAP1 POP JUMP JUMPDEST PUSH1 0x0 PUSH1 0x20 DUP3 DUP5 SUB SLT ISZERO PUSH2 0xF3E JUMPI PUSH2 0xF3D PUSH2 0x14CA JUMP JUMPDEST JUMPDEST PUSH1 0x0 PUSH2 0xF4C DUP5 DUP3 DUP6 ADD PUSH2 0xE8A JUMP JUMPDEST SWAP2 POP POP SWAP3 SWAP2 POP POP JUMP JUMPDEST PUSH1 0x0 DUP1 PUSH1 0x40 DUP4 DUP6 SUB SLT ISZERO PUSH2 0xF6C JUMPI PUSH2 0xF6B PUSH2 0x14CA JUMP JUMPDEST JUMPDEST PUSH1 0x0 PUSH2 0xF7A DUP6 DUP3 DUP7 ADD PUSH2 0xE8A JUMP JUMPDEST SWAP3 POP POP PUSH1 0x20 PUSH2 0xF8B DUP6 DUP3 DUP7 ADD PUSH2 0xE8A JUMP JUMPDEST SWAP2 POP POP SWAP3 POP SWAP3 SWAP1 POP JUMP JUMPDEST PUSH2 0xF9E DUP2 PUSH2 0x1322 JUMP JUMPDEST DUP3 MSTORE POP POP JUMP JUMPDEST PUSH1 0x0 PUSH2 0xFB1 PUSH1 0x1E DUP4 PUSH2 0x1230 JUMP JUMPDEST SWAP2 POP PUSH2 0xFBC DUP3 PUSH2 0x14E0 JUMP JUMPDEST PUSH1 0x20 DUP3 ADD SWAP1 POP SWAP2 SWAP1 POP JUMP JUMPDEST PUSH1 0x0 PUSH2 0xFD4 PUSH1 0x15 DUP4 PUSH2 0x1230 JUMP JUMPDEST SWAP2 POP PUSH2 0xFDF DUP3 PUSH2 0x1509 JUMP JUMPDEST PUSH1 0x20 DUP3 ADD SWAP1 POP SWAP2 SWAP1 POP JUMP JUMPDEST PUSH1 0x0 PUSH2 0xFF7 PUSH1 0x19 DUP4 PUSH2 0x1230 JUMP JUMPDEST SWAP2 POP PUSH2 0x1002 DUP3 PUSH2 0x1532 JUMP JUMPDEST PUSH1 0x20 DUP3 ADD SWAP1 POP SWAP2 SWAP1 POP JUMP JUMPDEST PUSH1 0x0 PUSH2 0x101A PUSH1 0x18 DUP4 PUSH2 0x1230 JUMP JUMPDEST SWAP2 POP PUSH2 0x1025 DUP3 PUSH2 0x155B JUMP JUMPDEST PUSH1 0x20 DUP3 ADD SWAP1 POP SWAP2 SWAP1 POP JUMP JUMPDEST PUSH1 0x0 PUSH2 0x103D PUSH1 0x2C DUP4 PUSH2 0x1230 JUMP JUMPDEST SWAP2 POP PUSH2 0x1048 DUP3 PUSH2 0x1584 JUMP JUMPDEST PUSH1 0x40 DUP3 ADD SWAP1 POP SWAP2 SWAP1 POP JUMP JUMPDEST PUSH1 0x0 PUSH2 0x1060 PUSH1 0x15 DUP4 PUSH2 0x1230 JUMP JUMPDEST SWAP2 POP PUSH2 0x106B DUP3 PUSH2 0x15D3 JUMP JUMPDEST PUSH1 0x20 DUP3 ADD SWAP1 POP SWAP2 SWAP1 POP JUMP JUMPDEST PUSH1 0x0 PUSH2 0x1083 PUSH1 0x18 DUP4 PUSH2 0x1230 JUMP JUMPDEST SWAP2 POP PUSH2 0x108E DUP3 PUSH2 0x15FC JUMP JUMPDEST PUSH1 0x20 DUP3 ADD SWAP1 POP SWAP2 SWAP1 POP JUMP JUMPDEST PUSH2 0x10A2 DUP2 PUSH2 0x1354 JUMP JUMPDEST DUP3 MSTORE POP POP JUMP JUMPDEST PUSH1 0x0 PUSH1 0x60 DUP3 ADD SWAP1 POP PUSH2 0x10BD PUSH1 0x0 DUP4 ADD DUP7 PUSH2 0xF95 JUMP JUMPDEST PUSH2 0x10CA PUSH1 0x20 DUP4 ADD DUP6 PUSH2 0x1099 JUMP JUMPDEST PUSH2 0x10D7 PUSH1 0x40 DUP4 ADD DUP5 PUSH2 0x1099 JUMP JUMPDEST SWAP5 SWAP4 POP POP POP POP JUMP JUMPDEST PUSH1 0x0 PUSH1 0x20 DUP3 ADD SWAP1 POP DUP2 DUP2 SUB PUSH1 0x0 DUP4 ADD MSTORE PUSH2 0x10F8 DUP2 PUSH2 0xFA4 JUMP JUMPDEST SWAP1 POP SWAP2 SWAP1 POP JUMP JUMPDEST PUSH1 0x0 PUSH1 0x20 DUP3 ADD SWAP1 POP DUP2 DUP2 SUB PUSH1 0x0 DUP4 ADD MSTORE PUSH2 0x1118 DUP2 PUSH2 0xFC7 JUMP JUMPDEST SWAP1 POP SWAP2 SWAP1 POP JUMP JUMPDEST PUSH1 0x0 PUSH1 0x20 DUP3 ADD SWAP1 POP DUP2 DUP2 SUB PUSH1 0x0 DUP4 ADD MSTORE PUSH2 0x1138 DUP2 PUSH2 0xFEA JUMP JUMPDEST SWAP1 POP SWAP2 SWAP1 POP JUMP JUMPDEST PUSH1 0x0 PUSH1 0x20 DUP3 ADD SWAP1 POP DUP2 DUP2 SUB PUSH1 0x0 DUP4 ADD MSTORE PUSH2 0x1158 DUP2 PUSH2 0x100D JUMP JUMPDEST SWAP1 POP SWAP2 SWAP1 POP JUMP JUMPDEST PUSH1 0x0 PUSH1 0x20 DUP3 ADD SWAP1 POP DUP2 DUP2 SUB PUSH1 0x0 DUP4 ADD MSTORE PUSH2 0x1178 DUP2 PUSH2 0x1030 JUMP JUMPDEST SWAP1 POP SWAP2 SWAP1 POP JUMP JUMPDEST PUSH1 0x0 PUSH1 0x20 DUP3 ADD SWAP1 POP DUP2 DUP2 SUB PUSH1 0x0 DUP4 ADD MSTORE PUSH2 0x1198 DUP2 PUSH2 0x1053 JUMP JUMPDEST SWAP1 POP SWAP2 SWAP1 POP JUMP JUMPDEST PUSH1 0x0 PUSH1 0x20 DUP3 ADD SWAP1 POP DUP2 DUP2 SUB PUSH1 0x0 DUP4 ADD MSTORE PUSH2 0x11B8 DUP2 PUSH2 0x1076 JUMP JUMPDEST SWAP1 POP SWAP2 SWAP1 POP JUMP JUMPDEST PUSH1 0x0 PUSH1 0x20 DUP3 ADD SWAP1 POP PUSH2 0x11D4 PUSH1 0x0 DUP4 ADD DUP5 PUSH2 0x1099 JUMP JUMPDEST SWAP3 SWAP2 POP POP JUMP JUMPDEST PUSH1 0x0 PUSH2 0x11E4 PUSH2 0x11F5 JUMP JUMPDEST SWAP1 POP PUSH2 0x11F0 DUP3 DUP3 PUSH2 0x139F JUMP JUMPDEST SWAP2 SWAP1 POP JUMP JUMPDEST PUSH1 0x0 PUSH1 0x40 MLOAD SWAP1 POP SWAP1 JUMP JUMPDEST PUSH1 0x0 PUSH8 0xFFFFFFFFFFFFFFFF DUP3 GT ISZERO PUSH2 0x121A JUMPI PUSH2 0x1219 PUSH2 0x148C JUMP JUMPDEST JUMPDEST PUSH2 0x1223 DUP3 PUSH2 0x14CF JUMP JUMPDEST SWAP1 POP PUSH1 0x20 DUP2 ADD SWAP1 POP SWAP2 SWAP1 POP JUMP JUMPDEST PUSH1 0x0 DUP3 DUP3 MSTORE PUSH1 0x20 DUP3 ADD SWAP1 POP SWAP3 SWAP2 POP POP JUMP JUMPDEST PUSH1 0x0 PUSH2 0x124C DUP3 PUSH2 0x1354 JUMP JUMPDEST SWAP2 POP PUSH2 0x1257 DUP4 PUSH2 0x1354 JUMP JUMPDEST SWAP3 POP DUP3 PUSH32 0xFFFFFFFFFFFFFFFFFFFFFFFFFFFFFFFFFFFFFFFFFFFFFFFFFFFFFFFFFFFFFFFF SUB DUP3 GT ISZERO PUSH2 0x128C JUMPI PUSH2 0x128B PUSH2 0x13D0 JUMP JUMPDEST JUMPDEST DUP3 DUP3 ADD SWAP1 POP SWAP3 SWAP2 POP POP JUMP JUMPDEST PUSH1 0x0 PUSH2 0x12A2 DUP3 PUSH2 0x1354 JUMP JUMPDEST SWAP2 POP PUSH2 0x12AD DUP4 PUSH2 0x1354 JUMP JUMPDEST SWAP3 POP DUP3 PUSH2 0x12BD JUMPI PUSH2 0x12BC PUSH2 0x13FF JUMP JUMPDEST JUMPDEST DUP3 DUP3 DIV SWAP1 POP SWAP3 SWAP2 POP POP JUMP JUMPDEST PUSH1 0x0 PUSH2 0x12D3 DUP3 PUSH2 0x1354 JUMP JUMPDEST SWAP2 POP PUSH2 0x12DE DUP4 PUSH2 0x1354 JUMP JUMPDEST SWAP3 POP DUP2 PUSH32 0xFFFFFFFFFFFFFFFFFFFFFFFFFFFFFFFFFFFFFFFFFFFFFFFFFFFFFFFFFFFFFFFF DIV DUP4 GT DUP3 ISZERO ISZERO AND ISZERO PUSH2 0x1317 JUMPI PUSH2 0x1316 PUSH2 0x13D0 JUMP JUMPDEST JUMPDEST DUP3 DUP3 MUL SWAP1 POP SWAP3 SWAP2 POP POP JUMP JUMPDEST PUSH1 0x0 PUSH2 0x132D DUP3 PUSH2 0x1334 JUMP JUMPDEST SWAP1 POP SWAP2 SWAP1 POP JUMP JUMPDEST PUSH1 0x0 PUSH20 0xFFFFFFFFFFFFFFFFFFFFFFFFFFFFFFFFFFFFFFFF DUP3 AND SWAP1 POP SWAP2 SWAP1 POP JUMP JUMPDEST PUSH1 0x0 DUP2 SWAP1 POP SWAP2 SWAP1 POP JUMP JUMPDEST DUP3 DUP2 DUP4 CALLDATACOPY PUSH1 0x0 DUP4 DUP4 ADD MSTORE POP POP POP JUMP JUMPDEST PUSH1 0x0 PUSH1 0x2 DUP3 DIV SWAP1 POP PUSH1 0x1 DUP3 AND DUP1 PUSH2 0x1385 JUMPI PUSH1 0x7F DUP3 AND SWAP2 POP JUMPDEST PUSH1 0x20 DUP3 LT DUP2 EQ ISZERO PUSH2 0x1399 JUMPI PUSH2 0x1398 PUSH2 0x142E JUMP JUMPDEST JUMPDEST POP SWAP2 SWAP1 POP JUMP JUMPDEST PUSH2 0x13A8 DUP3 PUSH2 0x14CF JUMP JUMPDEST DUP2 ADD DUP2 DUP2 LT PUSH8 0xFFFFFFFFFFFFFFFF DUP3 GT OR ISZERO PUSH2 0x13C7 JUMPI PUSH2 0x13C6 PUSH2 0x148C JUMP JUMPDEST JUMPDEST DUP1 PUSH1 0x40 MSTORE POP POP POP JUMP JUMPDEST PUSH32 0x4E487B7100000000000000000000000000000000000000000000000000000000 PUSH1 0x0 MSTORE PUSH1 0x11 PUSH1 0x4 MSTORE PUSH1 0x24 PUSH1 0x0 REVERT JUMPDEST PUSH32 0x4E487B7100000000000000000000000000000000000000000000000000000000 PUSH1 0x0 MSTORE PUSH1 0x12 PUSH1 0x4 MSTORE PUSH1 0x24 PUSH1 0x0 REVERT JUMPDEST PUSH32 0x4E487B7100000000000000000000000000000000000000000000000000000000 PUSH1 0x0 MSTORE PUSH1 0x22 PUSH1 0x4 MSTORE PUSH1 0x24 PUSH1 0x0 REVERT JUMPDEST PUSH32 0x4E487B7100000000000000000000000000000000000000000000000000000000 PUSH1 0x0 MSTORE PUSH1 0x32 PUSH1 0x4 MSTORE PUSH1 0x24 PUSH1 0x0 REVERT JUMPDEST PUSH32 0x4E487B7100000000000000000000000000000000000000000000000000000000 PUSH1 0x0 MSTORE PUSH1 0x41 PUSH1 0x4 MSTORE PUSH1 0x24 PUSH1 0x0 REVERT JUMPDEST PUSH1 0x0 DUP1 REVERT JUMPDEST PUSH1 0x0 DUP1 REVERT JUMPDEST PUSH1 0x0 DUP1 REVERT JUMPDEST PUSH1 0x0 DUP1 REVERT JUMPDEST PUSH1 0x0 PUSH1 0x1F NOT PUSH1 0x1F DUP4 ADD AND SWAP1 POP SWAP2 SWAP1 POP JUMP JUMPDEST PUSH32 0x596F752063616E277420626964206F6E20796F7572206F776E20706F73740000 PUSH1 0x0 DUP3 ADD MSTORE POP JUMP JUMPDEST PUSH32 0x496E76616C696420616D6F756E74206F66204269640000000000000000000000 PUSH1 0x0 DUP3 ADD MSTORE POP JUMP JUMPDEST PUSH32 0x596F7520646F6E27742068617665207065726D697373696F6E00000000000000 PUSH1 0x0 DUP3 ADD MSTORE POP JUMP JUMPDEST PUSH32 0x546869732061756374696F6E2069732066696E69736865640000000000000000 PUSH1 0x0 DUP3 ADD MSTORE POP JUMP JUMPDEST PUSH32 0x5468697320626964206E6565647320746F206265206D6F7265207468616E206D PUSH1 0x0 DUP3 ADD MSTORE PUSH32 0x696E206269642076616C75650000000000000000000000000000000000000000 PUSH1 0x20 DUP3 ADD MSTORE POP JUMP JUMPDEST PUSH32 0x5468652061756374696F6E2068617320656E6465640000000000000000000000 PUSH1 0x0 DUP3 ADD MSTORE POP JUMP JUMPDEST PUSH32 0x5468652062696420686173206265656E20657870697265640000000000000000 PUSH1 0x0 DUP3 ADD MSTORE POP JUMP JUMPDEST PUSH2 0x162E DUP2 PUSH2 0x1322 JUMP JUMPDEST DUP2 EQ PUSH2 0x1639 JUMPI PUSH1 0x0 DUP1 REVERT JUMPDEST POP JUMP JUMPDEST PUSH2 0x1645 DUP2 PUSH2 0x1354 JUMP JUMPDEST DUP2 EQ PUSH2 0x1650 JUMPI PUSH1 0x0 DUP1 REVERT JUMPDEST POP JUMP INVALID LOG2 PUSH5 0x6970667358 0x22 SLT KECCAK256 PUSH18 0x73C24DE669AF0565AD1219E563CBF3F27AB8 0x2F 0xE5 SWAP14 0xEB PUSH27 0x5959C105CDC7908B64736F6C634300080700330000000000000000 "
				},
				"gasEstimates": {
					"creation": {
						"codeDepositCost": "1153800",
						"executionCost": "1200",
						"totalCost": "1155000"
					},
					"external": {
						"acceptBid(uint256,uint256)": "infinite",
						"createBid(uint256)": "infinite",
						"createPost(string,uint256)": "infinite",
						"getBalance(address)": "infinite",
						"getPostBid(uint256,uint256)": "infinite",
						"getTotalBids(uint256)": "infinite"
					}
				},
				"methodIdentifiers": {
					"acceptBid(uint256,uint256)": "02e9d5e4",
					"createBid(uint256)": "659dd2b4",
					"createPost(string,uint256)": "1252cb48",
					"getBalance(address)": "f8b2cb4f",
					"getPostBid(uint256,uint256)": "e135268d",
					"getTotalBids(uint256)": "8e5bc606"
				}
			},
			"storageLayout": {
				"storage": [
					{
						"astId": 23,
						"contract": "contracts/Auction.sol:Auction",
						"label": "posts",
						"offset": 0,
						"slot": "0",
						"type": "t_array(t_struct(Post)10_storage)dyn_storage"
					},
					{
						"astId": 29,
						"contract": "contracts/Auction.sol:Auction",
						"label": "bids",
						"offset": 0,
						"slot": "1",
						"type": "t_mapping(t_uint256,t_array(t_struct(Bid)19_storage)dyn_storage)"
					},
					{
						"astId": 33,
						"contract": "contracts/Auction.sol:Auction",
						"label": "balances",
						"offset": 0,
						"slot": "2",
						"type": "t_mapping(t_address,t_uint256)"
					}
				],
				"types": {
					"t_address": {
						"encoding": "inplace",
						"label": "address",
						"numberOfBytes": "20"
					},
					"t_address_payable": {
						"encoding": "inplace",
						"label": "address payable",
						"numberOfBytes": "20"
					},
					"t_array(t_struct(Bid)19_storage)dyn_storage": {
						"base": "t_struct(Bid)19_storage",
						"encoding": "dynamic_array",
						"label": "struct Auction.Bid[]",
						"numberOfBytes": "32"
					},
					"t_array(t_struct(Post)10_storage)dyn_storage": {
						"base": "t_struct(Post)10_storage",
						"encoding": "dynamic_array",
						"label": "struct Auction.Post[]",
						"numberOfBytes": "32"
					},
					"t_bool": {
						"encoding": "inplace",
						"label": "bool",
						"numberOfBytes": "1"
					},
					"t_mapping(t_address,t_uint256)": {
						"encoding": "mapping",
						"key": "t_address",
						"label": "mapping(address => uint256)",
						"numberOfBytes": "32",
						"value": "t_uint256"
					},
					"t_mapping(t_uint256,t_array(t_struct(Bid)19_storage)dyn_storage)": {
						"encoding": "mapping",
						"key": "t_uint256",
						"label": "mapping(uint256 => struct Auction.Bid[])",
						"numberOfBytes": "32",
						"value": "t_array(t_struct(Bid)19_storage)dyn_storage"
					},
					"t_string_storage": {
						"encoding": "bytes",
						"label": "string",
						"numberOfBytes": "32"
					},
					"t_struct(Bid)19_storage": {
						"encoding": "inplace",
						"label": "struct Auction.Bid",
						"members": [
							{
								"astId": 12,
								"contract": "contracts/Auction.sol:Auction",
								"label": "buyer",
								"offset": 0,
								"slot": "0",
								"type": "t_address_payable"
							},
							{
								"astId": 14,
								"contract": "contracts/Auction.sol:Auction",
								"label": "amount",
								"offset": 0,
								"slot": "1",
								"type": "t_uint256"
							},
							{
								"astId": 16,
								"contract": "contracts/Auction.sol:Auction",
								"label": "time",
								"offset": 0,
								"slot": "2",
								"type": "t_uint256"
							},
							{
								"astId": 18,
								"contract": "contracts/Auction.sol:Auction",
								"label": "isFinished",
								"offset": 0,
								"slot": "3",
								"type": "t_bool"
							}
						],
						"numberOfBytes": "128"
					},
					"t_struct(Post)10_storage": {
						"encoding": "inplace",
						"label": "struct Auction.Post",
						"members": [
							{
								"astId": 3,
								"contract": "contracts/Auction.sol:Auction",
								"label": "seller",
								"offset": 0,
								"slot": "0",
								"type": "t_address_payable"
							},
							{
								"astId": 5,
								"contract": "contracts/Auction.sol:Auction",
								"label": "minBid",
								"offset": 0,
								"slot": "1",
								"type": "t_uint256"
							},
							{
								"astId": 7,
								"contract": "contracts/Auction.sol:Auction",
								"label": "name",
								"offset": 0,
								"slot": "2",
								"type": "t_string_storage"
							},
							{
								"astId": 9,
								"contract": "contracts/Auction.sol:Auction",
								"label": "time",
								"offset": 0,
								"slot": "3",
								"type": "t_uint256"
							}
						],
						"numberOfBytes": "128"
					},
					"t_uint256": {
						"encoding": "inplace",
						"label": "uint256",
						"numberOfBytes": "32"
					}
				}
			},
			"userdoc": {
				"kind": "user",
				"methods": {},
				"version": 1
			}
		}
	}
}