{
	"contracts/MyToken.sol": {
		"MyToken": {
			"abi": [
				{
					"inputs": [],
					"stateMutability": "nonpayable",
					"type": "constructor"
				},
				{
					"anonymous": false,
					"inputs": [
						{
							"indexed": true,
							"internalType": "address",
							"name": "owner",
							"type": "address"
						},
						{
							"indexed": true,
							"internalType": "address",
							"name": "spender",
							"type": "address"
						},
						{
							"indexed": true,
							"internalType": "uint256",
							"name": "amount",
							"type": "uint256"
						}
					],
					"name": "_Approval",
					"type": "event"
				},
				{
					"anonymous": false,
					"inputs": [
						{
							"indexed": true,
							"internalType": "address",
							"name": "sender",
							"type": "address"
						},
						{
							"indexed": true,
							"internalType": "address",
							"name": "reciever",
							"type": "address"
						},
						{
							"indexed": true,
							"internalType": "uint256",
							"name": "amount",
							"type": "uint256"
						}
					],
					"name": "_Transfer",
					"type": "event"
				},
				{
					"inputs": [
						{
							"internalType": "address",
							"name": "_owner",
							"type": "address"
						},
						{
							"internalType": "address",
							"name": "_spender",
							"type": "address"
						}
					],
					"name": "Allowance",
					"outputs": [
						{
							"internalType": "uint256",
							"name": "",
							"type": "uint256"
						}
					],
					"stateMutability": "view",
					"type": "function"
				},
				{
					"inputs": [
						{
							"internalType": "address",
							"name": "_reciever",
							"type": "address"
						},
						{
							"internalType": "uint256",
							"name": "_amount",
							"type": "uint256"
						}
					],
					"name": "Approve",
					"outputs": [
						{
							"internalType": "bool",
							"name": "",
							"type": "bool"
						}
					],
					"stateMutability": "nonpayable",
					"type": "function"
				},
				{
					"inputs": [
						{
							"internalType": "address",
							"name": "_reciever",
							"type": "address"
						},
						{
							"internalType": "uint256",
							"name": "_amount",
							"type": "uint256"
						}
					],
					"name": "Transfer",
					"outputs": [
						{
							"internalType": "bool",
							"name": "",
							"type": "bool"
						}
					],
					"stateMutability": "nonpayable",
					"type": "function"
				},
				{
					"inputs": [
						{
							"internalType": "address",
							"name": "_sender",
							"type": "address"
						},
						{
							"internalType": "address",
							"name": "_reciever",
							"type": "address"
						},
						{
							"internalType": "uint256",
							"name": "_amount",
							"type": "uint256"
						}
					],
					"name": "TransferFrom",
					"outputs": [],
					"stateMutability": "nonpayable",
					"type": "function"
				},
				{
					"inputs": [
						{
							"internalType": "address",
							"name": "_account",
							"type": "address"
						}
					],
					"name": "balanceOf",
					"outputs": [
						{
							"internalType": "uint256",
							"name": "",
							"type": "uint256"
						}
					],
					"stateMutability": "view",
					"type": "function"
				},
				{
					"inputs": [],
					"name": "decimal",
					"outputs": [
						{
							"internalType": "uint256",
							"name": "",
							"type": "uint256"
						}
					],
					"stateMutability": "view",
					"type": "function"
				},
				{
					"inputs": [],
					"name": "name",
					"outputs": [
						{
							"internalType": "string",
							"name": "",
							"type": "string"
						}
					],
					"stateMutability": "view",
					"type": "function"
				},
				{
					"inputs": [],
					"name": "symbol",
					"outputs": [
						{
							"internalType": "string",
							"name": "",
							"type": "string"
						}
					],
					"stateMutability": "view",
					"type": "function"
				},
				{
					"inputs": [],
					"name": "totalSupply",
					"outputs": [
						{
							"internalType": "uint256",
							"name": "",
							"type": "uint256"
						}
					],
					"stateMutability": "view",
					"type": "function"
				}
			],
			"devdoc": {
				"kind": "dev",
				"methods": {},
				"version": 1
			},
			"evm": {
				"assembly": "    /* \"contracts/MyToken.sol\":25:2716  contract MyToken {\r... */\n  mstore(0x40, 0x80)\n    /* \"contracts/MyToken.sol\":172:355  constructor(){\r... */\n  callvalue\n  dup1\n  iszero\n  tag_1\n  jumpi\n  0x00\n  dup1\n  revert\ntag_1:\n  pop\n    /* \"contracts/MyToken.sol\":196:220  _name = \"My first token\" */\n  mload(0x40)\n  dup1\n  0x40\n  add\n  0x40\n  mstore\n  dup1\n  0x0e\n  dup2\n  mstore\n  0x20\n  add\n  0x4d7920666972737420746f6b656e000000000000000000000000000000000000\n  dup2\n  mstore\n  pop\n    /* \"contracts/MyToken.sol\":196:201  _name */\n  0x00\n    /* \"contracts/MyToken.sol\":196:220  _name = \"My first token\" */\n  swap1\n  dup1\n  mload\n  swap1\n  0x20\n  add\n  swap1\n  tag_4\n  swap3\n  swap2\n  swap1\n  tag_5\n  jump\t// in\ntag_4:\n  pop\n    /* \"contracts/MyToken.sol\":231:246  _symbol = \"MFT\" */\n  mload(0x40)\n  dup1\n  0x40\n  add\n  0x40\n  mstore\n  dup1\n  0x03\n  dup2\n  mstore\n  0x20\n  add\n  0x4d46540000000000000000000000000000000000000000000000000000000000\n  dup2\n  mstore\n  pop\n    /* \"contracts/MyToken.sol\":231:238  _symbol */\n  0x01\n    /* \"contracts/MyToken.sol\":231:246  _symbol = \"MFT\" */\n  swap1\n  dup1\n  mload\n  swap1\n  0x20\n  add\n  swap1\n  tag_6\n  swap3\n  swap2\n  swap1\n  tag_5\n  jump\t// in\ntag_6:\n  pop\n    /* \"contracts/MyToken.sol\":268:269  0 */\n  0x00\n    /* \"contracts/MyToken.sol\":257:265  _decimal */\n  0x02\n  0x00\n    /* \"contracts/MyToken.sol\":257:269  _decimal = 0 */\n  0x0100\n  exp\n  dup2\n  sload\n  dup2\n  0xffffffff\n  mul\n  not\n  and\n  swap1\n  dup4\n  0xffffffff\n  and\n  mul\n  or\n  swap1\n  sstore\n  pop\n    /* \"contracts/MyToken.sol\":295:302  1000000 */\n  0x0f4240\n    /* \"contracts/MyToken.sol\":280:292  _totalSupply */\n  0x03\n    /* \"contracts/MyToken.sol\":280:302  _totalSupply = 1000000 */\n  dup2\n  swap1\n  sstore\n  pop\n    /* \"contracts/MyToken.sol\":335:347  _totalSupply */\n  sload(0x03)\n    /* \"contracts/MyToken.sol\":313:320  balance */\n  0x04\n    /* \"contracts/MyToken.sol\":313:332  balance[msg.sender] */\n  0x00\n    /* \"contracts/MyToken.sol\":321:331  msg.sender */\n  caller\n    /* \"contracts/MyToken.sol\":313:332  balance[msg.sender] */\n  0xffffffffffffffffffffffffffffffffffffffff\n  and\n  0xffffffffffffffffffffffffffffffffffffffff\n  and\n  dup2\n  mstore\n  0x20\n  add\n  swap1\n  dup2\n  mstore\n  0x20\n  add\n  0x00\n  keccak256\n    /* \"contracts/MyToken.sol\":313:347  balance[msg.sender] = _totalSupply */\n  dup2\n  swap1\n  sstore\n  pop\n    /* \"contracts/MyToken.sol\":25:2716  contract MyToken {\r... */\n  jump(tag_7)\ntag_5:\n  dup3\n  dup1\n  sload\n  tag_8\n  swap1\n  tag_9\n  jump\t// in\ntag_8:\n  swap1\n  0x00\n  mstore\n  keccak256(0x00, 0x20)\n  swap1\n  0x1f\n  add\n  0x20\n  swap1\n  div\n  dup2\n  add\n  swap3\n  dup3\n  tag_11\n  jumpi\n  0x00\n  dup6\n  sstore\n  jump(tag_10)\ntag_11:\n  dup3\n  0x1f\n  lt\n  tag_12\n  jumpi\n  dup1\n  mload\n  not(0xff)\n  and\n  dup4\n  dup1\n  add\n  or\n  dup6\n  sstore\n  jump(tag_10)\ntag_12:\n  dup3\n  dup1\n  add\n  0x01\n  add\n  dup6\n  sstore\n  dup3\n  iszero\n  tag_10\n  jumpi\n  swap2\n  dup3\n  add\ntag_13:\n  dup3\n  dup2\n  gt\n  iszero\n  tag_14\n  jumpi\n  dup3\n  mload\n  dup3\n  sstore\n  swap2\n  0x20\n  add\n  swap2\n  swap1\n  0x01\n  add\n  swap1\n  jump(tag_13)\ntag_14:\ntag_10:\n  pop\n  swap1\n  pop\n  tag_15\n  swap2\n  swap1\n  tag_16\n  jump\t// in\ntag_15:\n  pop\n  swap1\n  jump\t// out\ntag_16:\ntag_17:\n  dup1\n  dup3\n  gt\n  iszero\n  tag_18\n  jumpi\n  0x00\n  dup2\n  0x00\n  swap1\n  sstore\n  pop\n  0x01\n  add\n  jump(tag_17)\ntag_18:\n  pop\n  swap1\n  jump\t// out\n    /* \"#utility.yul\":7:327   */\ntag_9:\n    /* \"#utility.yul\":51:57   */\n  0x00\n    /* \"#utility.yul\":88:89   */\n  0x02\n    /* \"#utility.yul\":82:86   */\n  dup3\n    /* \"#utility.yul\":78:90   */\n  div\n    /* \"#utility.yul\":68:90   */\n  swap1\n  pop\n    /* \"#utility.yul\":135:136   */\n  0x01\n    /* \"#utility.yul\":129:133   */\n  dup3\n    /* \"#utility.yul\":125:137   */\n  and\n    /* \"#utility.yul\":156:174   */\n  dup1\n    /* \"#utility.yul\":146:227   */\n  tag_21\n  jumpi\n    /* \"#utility.yul\":212:216   */\n  0x7f\n    /* \"#utility.yul\":204:210   */\n  dup3\n    /* \"#utility.yul\":200:217   */\n  and\n    /* \"#utility.yul\":190:217   */\n  swap2\n  pop\n    /* \"#utility.yul\":146:227   */\ntag_21:\n    /* \"#utility.yul\":274:276   */\n  0x20\n    /* \"#utility.yul\":266:272   */\n  dup3\n    /* \"#utility.yul\":263:277   */\n  lt\n    /* \"#utility.yul\":243:261   */\n  dup2\n    /* \"#utility.yul\":240:278   */\n  eq\n    /* \"#utility.yul\":237:321   */\n  iszero\n  tag_22\n  jumpi\n    /* \"#utility.yul\":293:311   */\n  tag_23\n  tag_24\n  jump\t// in\ntag_23:\n    /* \"#utility.yul\":237:321   */\ntag_22:\n    /* \"#utility.yul\":58:327   */\n  pop\n    /* \"#utility.yul\":7:327   */\n  swap2\n  swap1\n  pop\n  jump\t// out\n    /* \"#utility.yul\":333:513   */\ntag_24:\n    /* \"#utility.yul\":381:458   */\n  0x4e487b7100000000000000000000000000000000000000000000000000000000\n    /* \"#utility.yul\":378:379   */\n  0x00\n    /* \"#utility.yul\":371:459   */\n  mstore\n    /* \"#utility.yul\":478:482   */\n  0x22\n    /* \"#utility.yul\":475:476   */\n  0x04\n    /* \"#utility.yul\":468:483   */\n  mstore\n    /* \"#utility.yul\":502:506   */\n  0x24\n    /* \"#utility.yul\":499:500   */\n  0x00\n    /* \"#utility.yul\":492:507   */\n  revert\n    /* \"contracts/MyToken.sol\":25:2716  contract MyToken {\r... */\ntag_7:\n  dataSize(sub_0)\n  dup1\n  dataOffset(sub_0)\n  0x00\n  codecopy\n  0x00\n  return\nstop\n\nsub_0: assembly {\n        /* \"contracts/MyToken.sol\":25:2716  contract MyToken {\r... */\n      mstore(0x40, 0x80)\n      callvalue\n      dup1\n      iszero\n      tag_1\n      jumpi\n      0x00\n      dup1\n      revert\n    tag_1:\n      pop\n      jumpi(tag_2, lt(calldatasize, 0x04))\n      shr(0xe0, calldataload(0x00))\n      dup1\n      0x70a08231\n      gt\n      tag_12\n      jumpi\n      dup1\n      0x70a08231\n      eq\n      tag_7\n      jumpi\n      dup1\n      0x76809ce3\n      eq\n      tag_8\n      jumpi\n      dup1\n      0x90ec57f1\n      eq\n      tag_9\n      jumpi\n      dup1\n      0x95d89b41\n      eq\n      tag_10\n      jumpi\n      dup1\n      0xc0d84ce5\n      eq\n      tag_11\n      jumpi\n      jump(tag_2)\n    tag_12:\n      dup1\n      0x06fdde03\n      eq\n      tag_3\n      jumpi\n      dup1\n      0x18160ddd\n      eq\n      tag_4\n      jumpi\n      dup1\n      0x69ca02dd\n      eq\n      tag_5\n      jumpi\n      dup1\n      0x6dcdd00f\n      eq\n      tag_6\n      jumpi\n    tag_2:\n      0x00\n      dup1\n      revert\n        /* \"contracts/MyToken.sol\":638:720  function name() public view returns (string memory){\r... */\n    tag_3:\n      tag_13\n      tag_14\n      jump\t// in\n    tag_13:\n      mload(0x40)\n      tag_15\n      swap2\n      swap1\n      tag_16\n      jump\t// in\n    tag_15:\n      mload(0x40)\n      dup1\n      swap2\n      sub\n      swap1\n      return\n        /* \"contracts/MyToken.sol\":909:999  function totalSupply() public view returns (uint256){\r... */\n    tag_4:\n      tag_17\n      tag_18\n      jump\t// in\n    tag_17:\n      mload(0x40)\n      tag_19\n      swap2\n      swap1\n      tag_20\n      jump\t// in\n    tag_19:\n      mload(0x40)\n      dup1\n      swap2\n      sub\n      swap1\n      return\n        /* \"contracts/MyToken.sol\":1124:1661  function Transfer(address _reciever,uint _amount) public returns (bool){\r... */\n    tag_5:\n      tag_21\n      0x04\n      dup1\n      calldatasize\n      sub\n      dup2\n      add\n      swap1\n      tag_22\n      swap2\n      swap1\n      tag_23\n      jump\t// in\n    tag_22:\n      tag_24\n      jump\t// in\n    tag_21:\n      mload(0x40)\n      tag_25\n      swap2\n      swap1\n      tag_26\n      jump\t// in\n    tag_25:\n      mload(0x40)\n      dup1\n      swap2\n      sub\n      swap1\n      return\n        /* \"contracts/MyToken.sol\":2229:2359  function Allowance (address _owner , address _spender) public view returns (uint){\r... */\n    tag_6:\n      tag_27\n      0x04\n      dup1\n      calldatasize\n      sub\n      dup2\n      add\n      swap1\n      tag_28\n      swap2\n      swap1\n      tag_29\n      jump\t// in\n    tag_28:\n      tag_30\n      jump\t// in\n    tag_27:\n      mload(0x40)\n      tag_31\n      swap2\n      swap1\n      tag_20\n      jump\t// in\n    tag_31:\n      mload(0x40)\n      dup1\n      swap2\n      sub\n      swap1\n      return\n        /* \"contracts/MyToken.sol\":1007:1116  function balanceOf(address _account) public view returns (uint256){\r... */\n    tag_7:\n      tag_32\n      0x04\n      dup1\n      calldatasize\n      sub\n      dup2\n      add\n      swap1\n      tag_33\n      swap2\n      swap1\n      tag_34\n      jump\t// in\n    tag_33:\n      tag_35\n      jump\t// in\n    tag_32:\n      mload(0x40)\n      tag_36\n      swap2\n      swap1\n      tag_20\n      jump\t// in\n    tag_36:\n      mload(0x40)\n      dup1\n      swap2\n      sub\n      swap1\n      return\n        /* \"contracts/MyToken.sol\":822:901  function decimal() public view returns (uint){\r... */\n    tag_8:\n      tag_37\n      tag_38\n      jump\t// in\n    tag_37:\n      mload(0x40)\n      tag_39\n      swap2\n      swap1\n      tag_20\n      jump\t// in\n    tag_39:\n      mload(0x40)\n      dup1\n      swap2\n      sub\n      swap1\n      return\n        /* \"contracts/MyToken.sol\":1743:2221  function Approve(address _reciever,uint _amount) public returns (bool){\r... */\n    tag_9:\n      tag_40\n      0x04\n      dup1\n      calldatasize\n      sub\n      dup2\n      add\n      swap1\n      tag_41\n      swap2\n      swap1\n      tag_23\n      jump\t// in\n    tag_41:\n      tag_42\n      jump\t// in\n    tag_40:\n      mload(0x40)\n      tag_43\n      swap2\n      swap1\n      tag_26\n      jump\t// in\n    tag_43:\n      mload(0x40)\n      dup1\n      swap2\n      sub\n      swap1\n      return\n        /* \"contracts/MyToken.sol\":728:814  function symbol() public view returns (string memory){\r... */\n    tag_10:\n      tag_44\n      tag_45\n      jump\t// in\n    tag_44:\n      mload(0x40)\n      tag_46\n      swap2\n      swap1\n      tag_16\n      jump\t// in\n    tag_46:\n      mload(0x40)\n      dup1\n      swap2\n      sub\n      swap1\n      return\n        /* \"contracts/MyToken.sol\":2367:2713  function TransferFrom(address _sender,address _reciever,uint256 _amount) public{\r... */\n    tag_11:\n      tag_47\n      0x04\n      dup1\n      calldatasize\n      sub\n      dup2\n      add\n      swap1\n      tag_48\n      swap2\n      swap1\n      tag_49\n      jump\t// in\n    tag_48:\n      tag_50\n      jump\t// in\n    tag_47:\n      stop\n        /* \"contracts/MyToken.sol\":638:720  function name() public view returns (string memory){\r... */\n    tag_14:\n        /* \"contracts/MyToken.sol\":675:688  string memory */\n      0x60\n        /* \"contracts/MyToken.sol\":707:712  _name */\n      0x00\n        /* \"contracts/MyToken.sol\":700:712  return _name */\n      dup1\n      sload\n      tag_52\n      swap1\n      tag_53\n      jump\t// in\n    tag_52:\n      dup1\n      0x1f\n      add\n      0x20\n      dup1\n      swap2\n      div\n      mul\n      0x20\n      add\n      mload(0x40)\n      swap1\n      dup2\n      add\n      0x40\n      mstore\n      dup1\n      swap3\n      swap2\n      swap1\n      dup2\n      dup2\n      mstore\n      0x20\n      add\n      dup3\n      dup1\n      sload\n      tag_54\n      swap1\n      tag_53\n      jump\t// in\n    tag_54:\n      dup1\n      iszero\n      tag_55\n      jumpi\n      dup1\n      0x1f\n      lt\n      tag_56\n      jumpi\n      0x0100\n      dup1\n      dup4\n      sload\n      div\n      mul\n      dup4\n      mstore\n      swap2\n      0x20\n      add\n      swap2\n      jump(tag_55)\n    tag_56:\n      dup3\n      add\n      swap2\n      swap1\n      0x00\n      mstore\n      keccak256(0x00, 0x20)\n      swap1\n    tag_57:\n      dup2\n      sload\n      dup2\n      mstore\n      swap1\n      0x01\n      add\n      swap1\n      0x20\n      add\n      dup1\n      dup4\n      gt\n      tag_57\n      jumpi\n      dup3\n      swap1\n      sub\n      0x1f\n      and\n      dup3\n      add\n      swap2\n    tag_55:\n      pop\n      pop\n      pop\n      pop\n      pop\n      swap1\n      pop\n        /* \"contracts/MyToken.sol\":638:720  function name() public view returns (string memory){\r... */\n      swap1\n      jump\t// out\n        /* \"contracts/MyToken.sol\":909:999  function totalSupply() public view returns (uint256){\r... */\n    tag_18:\n        /* \"contracts/MyToken.sol\":953:960  uint256 */\n      0x00\n        /* \"contracts/MyToken.sol\":979:991  _totalSupply */\n      sload(0x03)\n        /* \"contracts/MyToken.sol\":972:991  return _totalSupply */\n      swap1\n      pop\n        /* \"contracts/MyToken.sol\":909:999  function totalSupply() public view returns (uint256){\r... */\n      swap1\n      jump\t// out\n        /* \"contracts/MyToken.sol\":1124:1661  function Transfer(address _reciever,uint _amount) public returns (bool){\r... */\n    tag_24:\n        /* \"contracts/MyToken.sol\":1190:1194  bool */\n      0x00\n        /* \"contracts/MyToken.sol\":1321:1322  0 */\n      dup1\n        /* \"contracts/MyToken.sol\":1301:1323  _reciever!= address(0) */\n      0xffffffffffffffffffffffffffffffffffffffff\n      and\n        /* \"contracts/MyToken.sol\":1301:1310  _reciever */\n      dup4\n        /* \"contracts/MyToken.sol\":1301:1323  _reciever!= address(0) */\n      0xffffffffffffffffffffffffffffffffffffffff\n      and\n      eq\n      iszero\n        /* \"contracts/MyToken.sol\":1293:1342  require(_reciever!= address(0),\"Invalid Address\") */\n      tag_60\n      jumpi\n      mload(0x40)\n      0x08c379a000000000000000000000000000000000000000000000000000000000\n      dup2\n      mstore\n      0x04\n      add\n      tag_61\n      swap1\n      tag_62\n      jump\t// in\n    tag_61:\n      mload(0x40)\n      dup1\n      swap2\n      sub\n      swap1\n      revert\n    tag_60:\n        /* \"contracts/MyToken.sol\":1447:1454  _amount */\n      dup2\n        /* \"contracts/MyToken.sol\":1425:1432  balance */\n      0x04\n        /* \"contracts/MyToken.sol\":1425:1444  balance[msg.sender] */\n      0x00\n        /* \"contracts/MyToken.sol\":1433:1443  msg.sender */\n      caller\n        /* \"contracts/MyToken.sol\":1425:1444  balance[msg.sender] */\n      0xffffffffffffffffffffffffffffffffffffffff\n      and\n      0xffffffffffffffffffffffffffffffffffffffff\n      and\n      dup2\n      mstore\n      0x20\n      add\n      swap1\n      dup2\n      mstore\n      0x20\n      add\n      0x00\n      keccak256\n      sload\n        /* \"contracts/MyToken.sol\":1425:1454  balance[msg.sender]>= _amount */\n      lt\n      iszero\n        /* \"contracts/MyToken.sol\":1417:1474  require(balance[msg.sender]>= _amount,\"Not Enough Money\") */\n      tag_63\n      jumpi\n      mload(0x40)\n      0x08c379a000000000000000000000000000000000000000000000000000000000\n      dup2\n      mstore\n      0x04\n      add\n      tag_64\n      swap1\n      tag_65\n      jump\t// in\n    tag_64:\n      mload(0x40)\n      dup1\n      swap2\n      sub\n      swap1\n      revert\n    tag_63:\n        /* \"contracts/MyToken.sol\":1528:1535  _amount */\n      dup2\n        /* \"contracts/MyToken.sol\":1505:1512  balance */\n      0x04\n        /* \"contracts/MyToken.sol\":1505:1524  balance[msg.sender] */\n      0x00\n        /* \"contracts/MyToken.sol\":1513:1523  msg.sender */\n      caller\n        /* \"contracts/MyToken.sol\":1505:1524  balance[msg.sender] */\n      0xffffffffffffffffffffffffffffffffffffffff\n      and\n      0xffffffffffffffffffffffffffffffffffffffff\n      and\n      dup2\n      mstore\n      0x20\n      add\n      swap1\n      dup2\n      mstore\n      0x20\n      add\n      0x00\n      keccak256\n      0x00\n        /* \"contracts/MyToken.sol\":1505:1535  balance[msg.sender] -= _amount */\n      dup3\n      dup3\n      sload\n      tag_66\n      swap2\n      swap1\n      tag_67\n      jump\t// in\n    tag_66:\n      swap3\n      pop\n      pop\n      dup2\n      swap1\n      sstore\n      pop\n        /* \"contracts/MyToken.sol\":1568:1575  _amount */\n      dup2\n        /* \"contracts/MyToken.sol\":1546:1553  balance */\n      0x04\n        /* \"contracts/MyToken.sol\":1546:1564  balance[_reciever] */\n      0x00\n        /* \"contracts/MyToken.sol\":1554:1563  _reciever */\n      dup6\n        /* \"contracts/MyToken.sol\":1546:1564  balance[_reciever] */\n      0xffffffffffffffffffffffffffffffffffffffff\n      and\n      0xffffffffffffffffffffffffffffffffffffffff\n      and\n      dup2\n      mstore\n      0x20\n      add\n      swap1\n      dup2\n      mstore\n      0x20\n      add\n      0x00\n      keccak256\n      0x00\n        /* \"contracts/MyToken.sol\":1546:1575  balance[_reciever] += _amount */\n      dup3\n      dup3\n      sload\n      tag_68\n      swap2\n      swap1\n      tag_69\n      jump\t// in\n    tag_68:\n      swap3\n      pop\n      pop\n      dup2\n      swap1\n      sstore\n      pop\n        /* \"contracts/MyToken.sol\":1622:1629  _amount */\n      dup2\n        /* \"contracts/MyToken.sol\":1612:1621  _reciever */\n      dup4\n        /* \"contracts/MyToken.sol\":1591:1630  _Transfer(msg.sender,_reciever,_amount) */\n      0xffffffffffffffffffffffffffffffffffffffff\n      and\n        /* \"contracts/MyToken.sol\":1601:1611  msg.sender */\n      caller\n        /* \"contracts/MyToken.sol\":1591:1630  _Transfer(msg.sender,_reciever,_amount) */\n      0xffffffffffffffffffffffffffffffffffffffff\n      and\n      0xe156b1b6735c69d856fb922554b4fb7420f470e899a3dc4e8cff66f6bb8a8f77\n      mload(0x40)\n      mload(0x40)\n      dup1\n      swap2\n      sub\n      swap1\n      log4\n        /* \"contracts/MyToken.sol\":1648:1652  true */\n      0x01\n        /* \"contracts/MyToken.sol\":1641:1652  return true */\n      swap1\n      pop\n        /* \"contracts/MyToken.sol\":1124:1661  function Transfer(address _reciever,uint _amount) public returns (bool){\r... */\n      swap3\n      swap2\n      pop\n      pop\n      jump\t// out\n        /* \"contracts/MyToken.sol\":2229:2359  function Allowance (address _owner , address _spender) public view returns (uint){\r... */\n    tag_30:\n        /* \"contracts/MyToken.sol\":2305:2309  uint */\n      0x00\n        /* \"contracts/MyToken.sol\":2328:2333  allow */\n      0x05\n        /* \"contracts/MyToken.sol\":2328:2341  allow[_owner] */\n      0x00\n        /* \"contracts/MyToken.sol\":2334:2340  _owner */\n      dup5\n        /* \"contracts/MyToken.sol\":2328:2341  allow[_owner] */\n      0xffffffffffffffffffffffffffffffffffffffff\n      and\n      0xffffffffffffffffffffffffffffffffffffffff\n      and\n      dup2\n      mstore\n      0x20\n      add\n      swap1\n      dup2\n      mstore\n      0x20\n      add\n      0x00\n      keccak256\n        /* \"contracts/MyToken.sol\":2328:2351  allow[_owner][_spender] */\n      0x00\n        /* \"contracts/MyToken.sol\":2342:2350  _spender */\n      dup4\n        /* \"contracts/MyToken.sol\":2328:2351  allow[_owner][_spender] */\n      0xffffffffffffffffffffffffffffffffffffffff\n      and\n      0xffffffffffffffffffffffffffffffffffffffff\n      and\n      dup2\n      mstore\n      0x20\n      add\n      swap1\n      dup2\n      mstore\n      0x20\n      add\n      0x00\n      keccak256\n      sload\n        /* \"contracts/MyToken.sol\":2321:2351  return allow[_owner][_spender] */\n      swap1\n      pop\n        /* \"contracts/MyToken.sol\":2229:2359  function Allowance (address _owner , address _spender) public view returns (uint){\r... */\n      swap3\n      swap2\n      pop\n      pop\n      jump\t// out\n        /* \"contracts/MyToken.sol\":1007:1116  function balanceOf(address _account) public view returns (uint256){\r... */\n    tag_35:\n        /* \"contracts/MyToken.sol\":1065:1072  uint256 */\n      0x00\n        /* \"contracts/MyToken.sol\":1091:1098  balance */\n      0x04\n        /* \"contracts/MyToken.sol\":1091:1108  balance[_account] */\n      0x00\n        /* \"contracts/MyToken.sol\":1099:1107  _account */\n      dup4\n        /* \"contracts/MyToken.sol\":1091:1108  balance[_account] */\n      0xffffffffffffffffffffffffffffffffffffffff\n      and\n      0xffffffffffffffffffffffffffffffffffffffff\n      and\n      dup2\n      mstore\n      0x20\n      add\n      swap1\n      dup2\n      mstore\n      0x20\n      add\n      0x00\n      keccak256\n      sload\n        /* \"contracts/MyToken.sol\":1084:1108  return balance[_account] */\n      swap1\n      pop\n        /* \"contracts/MyToken.sol\":1007:1116  function balanceOf(address _account) public view returns (uint256){\r... */\n      swap2\n      swap1\n      pop\n      jump\t// out\n        /* \"contracts/MyToken.sol\":822:901  function decimal() public view returns (uint){\r... */\n    tag_38:\n        /* \"contracts/MyToken.sol\":862:866  uint */\n      0x00\n        /* \"contracts/MyToken.sol\":885:893  _decimal */\n      0x02\n      0x00\n      swap1\n      sload\n      swap1\n      0x0100\n      exp\n      swap1\n      div\n      0xffffffff\n      and\n        /* \"contracts/MyToken.sol\":878:893  return _decimal */\n      0xffffffff\n      and\n      swap1\n      pop\n        /* \"contracts/MyToken.sol\":822:901  function decimal() public view returns (uint){\r... */\n      swap1\n      jump\t// out\n        /* \"contracts/MyToken.sol\":1743:2221  function Approve(address _reciever,uint _amount) public returns (bool){\r... */\n    tag_42:\n        /* \"contracts/MyToken.sol\":1808:1812  bool */\n      0x00\n        /* \"contracts/MyToken.sol\":1922:1923  0 */\n      dup1\n        /* \"contracts/MyToken.sol\":1900:1924  msg.sender != address(0) */\n      0xffffffffffffffffffffffffffffffffffffffff\n      and\n        /* \"contracts/MyToken.sol\":1900:1910  msg.sender */\n      caller\n        /* \"contracts/MyToken.sol\":1900:1924  msg.sender != address(0) */\n      0xffffffffffffffffffffffffffffffffffffffff\n      and\n      eq\n      iszero\n        /* \"contracts/MyToken.sol\":1892:1943  require(msg.sender != address(0),\"Invalid Address\") */\n      tag_74\n      jumpi\n      mload(0x40)\n      0x08c379a000000000000000000000000000000000000000000000000000000000\n      dup2\n      mstore\n      0x04\n      add\n      tag_75\n      swap1\n      tag_62\n      jump\t// in\n    tag_75:\n      mload(0x40)\n      dup1\n      swap2\n      sub\n      swap1\n      revert\n    tag_74:\n        /* \"contracts/MyToken.sol\":1982:1983  0 */\n      0x00\n        /* \"contracts/MyToken.sol\":1962:1984  _reciever!= address(0) */\n      0xffffffffffffffffffffffffffffffffffffffff\n      and\n        /* \"contracts/MyToken.sol\":1962:1971  _reciever */\n      dup4\n        /* \"contracts/MyToken.sol\":1962:1984  _reciever!= address(0) */\n      0xffffffffffffffffffffffffffffffffffffffff\n      and\n      eq\n      iszero\n        /* \"contracts/MyToken.sol\":1954:2003  require(_reciever!= address(0),\"Invalid Address\") */\n      tag_76\n      jumpi\n      mload(0x40)\n      0x08c379a000000000000000000000000000000000000000000000000000000000\n      dup2\n      mstore\n      0x04\n      add\n      tag_77\n      swap1\n      tag_62\n      jump\t// in\n    tag_77:\n      mload(0x40)\n      dup1\n      swap2\n      sub\n      swap1\n      revert\n    tag_76:\n        /* \"contracts/MyToken.sol\":2126:2133  _amount */\n      dup2\n        /* \"contracts/MyToken.sol\":2095:2100  allow */\n      0x05\n        /* \"contracts/MyToken.sol\":2095:2112  allow[msg.sender] */\n      0x00\n        /* \"contracts/MyToken.sol\":2101:2111  msg.sender */\n      caller\n        /* \"contracts/MyToken.sol\":2095:2112  allow[msg.sender] */\n      0xffffffffffffffffffffffffffffffffffffffff\n      and\n      0xffffffffffffffffffffffffffffffffffffffff\n      and\n      dup2\n      mstore\n      0x20\n      add\n      swap1\n      dup2\n      mstore\n      0x20\n      add\n      0x00\n      keccak256\n        /* \"contracts/MyToken.sol\":2095:2123  allow[msg.sender][_reciever] */\n      0x00\n        /* \"contracts/MyToken.sol\":2113:2122  _reciever */\n      dup6\n        /* \"contracts/MyToken.sol\":2095:2123  allow[msg.sender][_reciever] */\n      0xffffffffffffffffffffffffffffffffffffffff\n      and\n      0xffffffffffffffffffffffffffffffffffffffff\n      and\n      dup2\n      mstore\n      0x20\n      add\n      swap1\n      dup2\n      mstore\n      0x20\n      add\n      0x00\n      keccak256\n        /* \"contracts/MyToken.sol\":2095:2133  allow[msg.sender][_reciever] = _amount */\n      dup2\n      swap1\n      sstore\n      pop\n        /* \"contracts/MyToken.sol\":2180:2187  _amount */\n      dup2\n        /* \"contracts/MyToken.sol\":2170:2179  _reciever */\n      dup4\n        /* \"contracts/MyToken.sol\":2149:2188  _Approval(msg.sender,_reciever,_amount) */\n      0xffffffffffffffffffffffffffffffffffffffff\n      and\n        /* \"contracts/MyToken.sol\":2159:2169  msg.sender */\n      caller\n        /* \"contracts/MyToken.sol\":2149:2188  _Approval(msg.sender,_reciever,_amount) */\n      0xffffffffffffffffffffffffffffffffffffffff\n      and\n      0xacfd752d48a417d90cfd4cb230c1bd38b8535ad2e8291bd8173e1ce6122c1e6e\n      mload(0x40)\n      mload(0x40)\n      dup1\n      swap2\n      sub\n      swap1\n      log4\n        /* \"contracts/MyToken.sol\":2206:2210  true */\n      0x01\n        /* \"contracts/MyToken.sol\":2199:2210  return true */\n      swap1\n      pop\n        /* \"contracts/MyToken.sol\":1743:2221  function Approve(address _reciever,uint _amount) public returns (bool){\r... */\n      swap3\n      swap2\n      pop\n      pop\n      jump\t// out\n        /* \"contracts/MyToken.sol\":728:814  function symbol() public view returns (string memory){\r... */\n    tag_45:\n        /* \"contracts/MyToken.sol\":767:780  string memory */\n      0x60\n        /* \"contracts/MyToken.sol\":799:806  _symbol */\n      0x01\n        /* \"contracts/MyToken.sol\":792:806  return _symbol */\n      dup1\n      sload\n      tag_79\n      swap1\n      tag_53\n      jump\t// in\n    tag_79:\n      dup1\n      0x1f\n      add\n      0x20\n      dup1\n      swap2\n      div\n      mul\n      0x20\n      add\n      mload(0x40)\n      swap1\n      dup2\n      add\n      0x40\n      mstore\n      dup1\n      swap3\n      swap2\n      swap1\n      dup2\n      dup2\n      mstore\n      0x20\n      add\n      dup3\n      dup1\n      sload\n      tag_80\n      swap1\n      tag_53\n      jump\t// in\n    tag_80:\n      dup1\n      iszero\n      tag_81\n      jumpi\n      dup1\n      0x1f\n      lt\n      tag_82\n      jumpi\n      0x0100\n      dup1\n      dup4\n      sload\n      div\n      mul\n      dup4\n      mstore\n      swap2\n      0x20\n      add\n      swap2\n      jump(tag_81)\n    tag_82:\n      dup3\n      add\n      swap2\n      swap1\n      0x00\n      mstore\n      keccak256(0x00, 0x20)\n      swap1\n    tag_83:\n      dup2\n      sload\n      dup2\n      mstore\n      swap1\n      0x01\n      add\n      swap1\n      0x20\n      add\n      dup1\n      dup4\n      gt\n      tag_83\n      jumpi\n      dup3\n      swap1\n      sub\n      0x1f\n      and\n      dup3\n      add\n      swap2\n    tag_81:\n      pop\n      pop\n      pop\n      pop\n      pop\n      swap1\n      pop\n        /* \"contracts/MyToken.sol\":728:814  function symbol() public view returns (string memory){\r... */\n      swap1\n      jump\t// out\n        /* \"contracts/MyToken.sol\":2367:2713  function TransferFrom(address _sender,address _reciever,uint256 _amount) public{\r... */\n    tag_50:\n        /* \"contracts/MyToken.sol\":2485:2486  0 */\n      0x00\n        /* \"contracts/MyToken.sol\":2466:2487  _sender != address(0) */\n      0xffffffffffffffffffffffffffffffffffffffff\n      and\n        /* \"contracts/MyToken.sol\":2466:2473  _sender */\n      dup4\n        /* \"contracts/MyToken.sol\":2466:2487  _sender != address(0) */\n      0xffffffffffffffffffffffffffffffffffffffff\n      and\n      eq\n      iszero\n        /* \"contracts/MyToken.sol\":2457:2506  require (_sender != address(0),\"Invalid Address\") */\n      tag_85\n      jumpi\n      mload(0x40)\n      0x08c379a000000000000000000000000000000000000000000000000000000000\n      dup2\n      mstore\n      0x04\n      add\n      tag_86\n      swap1\n      tag_62\n      jump\t// in\n    tag_86:\n      mload(0x40)\n      dup1\n      swap2\n      sub\n      swap1\n      revert\n    tag_85:\n        /* \"contracts/MyToken.sol\":2536:2537  0 */\n      0x00\n        /* \"contracts/MyToken.sol\":2526:2533  _amount */\n      dup2\n        /* \"contracts/MyToken.sol\":2526:2537  _amount > 0 */\n      gt\n        /* \"contracts/MyToken.sol\":2517:2559  require (_amount > 0 , \"Not Enough Money\") */\n      tag_87\n      jumpi\n      mload(0x40)\n      0x08c379a000000000000000000000000000000000000000000000000000000000\n      dup2\n      mstore\n      0x04\n      add\n      tag_88\n      swap1\n      tag_65\n      jump\t// in\n    tag_88:\n      mload(0x40)\n      dup1\n      swap2\n      sub\n      swap1\n      revert\n    tag_87:\n        /* \"contracts/MyToken.sol\":2600:2601  0 */\n      0x00\n        /* \"contracts/MyToken.sol\":2579:2602  _reciever != address(0) */\n      0xffffffffffffffffffffffffffffffffffffffff\n      and\n        /* \"contracts/MyToken.sol\":2579:2588  _reciever */\n      dup3\n        /* \"contracts/MyToken.sol\":2579:2602  _reciever != address(0) */\n      0xffffffffffffffffffffffffffffffffffffffff\n      and\n      eq\n      iszero\n        /* \"contracts/MyToken.sol\":2570:2623  require (_reciever != address(0) , \"Invalid Address\") */\n      tag_89\n      jumpi\n      mload(0x40)\n      0x08c379a000000000000000000000000000000000000000000000000000000000\n      dup2\n      mstore\n      0x04\n      add\n      tag_90\n      swap1\n      tag_62\n      jump\t// in\n    tag_90:\n      mload(0x40)\n      dup1\n      swap2\n      sub\n      swap1\n      revert\n    tag_89:\n        /* \"contracts/MyToken.sol\":2662:2669  _amount */\n      dup1\n        /* \"contracts/MyToken.sol\":2643:2650  balance */\n      0x04\n        /* \"contracts/MyToken.sol\":2643:2659  balance[_sender] */\n      0x00\n        /* \"contracts/MyToken.sol\":2651:2658  _sender */\n      dup6\n        /* \"contracts/MyToken.sol\":2643:2659  balance[_sender] */\n      0xffffffffffffffffffffffffffffffffffffffff\n      and\n      0xffffffffffffffffffffffffffffffffffffffff\n      and\n      dup2\n      mstore\n      0x20\n      add\n      swap1\n      dup2\n      mstore\n      0x20\n      add\n      0x00\n      keccak256\n      sload\n        /* \"contracts/MyToken.sol\":2643:2669  balance[_sender]>= _amount */\n      lt\n      iszero\n        /* \"contracts/MyToken.sol\":2634:2689  require (balance[_sender]>= _amount,\"Not Enough Money\") */\n      tag_91\n      jumpi\n      mload(0x40)\n      0x08c379a000000000000000000000000000000000000000000000000000000000\n      dup2\n      mstore\n      0x04\n      add\n      tag_92\n      swap1\n      tag_65\n      jump\t// in\n    tag_92:\n      mload(0x40)\n      dup1\n      swap2\n      sub\n      swap1\n      revert\n    tag_91:\n        /* \"contracts/MyToken.sol\":2367:2713  function TransferFrom(address _sender,address _reciever,uint256 _amount) public{\r... */\n      pop\n      pop\n      pop\n      jump\t// out\n        /* \"#utility.yul\":7:146   */\n    tag_94:\n        /* \"#utility.yul\":53:58   */\n      0x00\n        /* \"#utility.yul\":91:97   */\n      dup2\n        /* \"#utility.yul\":78:98   */\n      calldataload\n        /* \"#utility.yul\":69:98   */\n      swap1\n      pop\n        /* \"#utility.yul\":107:140   */\n      tag_96\n        /* \"#utility.yul\":134:139   */\n      dup2\n        /* \"#utility.yul\":107:140   */\n      tag_97\n      jump\t// in\n    tag_96:\n        /* \"#utility.yul\":7:146   */\n      swap3\n      swap2\n      pop\n      pop\n      jump\t// out\n        /* \"#utility.yul\":152:291   */\n    tag_98:\n        /* \"#utility.yul\":198:203   */\n      0x00\n        /* \"#utility.yul\":236:242   */\n      dup2\n        /* \"#utility.yul\":223:243   */\n      calldataload\n        /* \"#utility.yul\":214:243   */\n      swap1\n      pop\n        /* \"#utility.yul\":252:285   */\n      tag_100\n        /* \"#utility.yul\":279:284   */\n      dup2\n        /* \"#utility.yul\":252:285   */\n      tag_101\n      jump\t// in\n    tag_100:\n        /* \"#utility.yul\":152:291   */\n      swap3\n      swap2\n      pop\n      pop\n      jump\t// out\n        /* \"#utility.yul\":297:626   */\n    tag_34:\n        /* \"#utility.yul\":356:362   */\n      0x00\n        /* \"#utility.yul\":405:407   */\n      0x20\n        /* \"#utility.yul\":393:402   */\n      dup3\n        /* \"#utility.yul\":384:391   */\n      dup5\n        /* \"#utility.yul\":380:403   */\n      sub\n        /* \"#utility.yul\":376:408   */\n      slt\n        /* \"#utility.yul\":373:492   */\n      iszero\n      tag_103\n      jumpi\n        /* \"#utility.yul\":411:490   */\n      tag_104\n      tag_105\n      jump\t// in\n    tag_104:\n        /* \"#utility.yul\":373:492   */\n    tag_103:\n        /* \"#utility.yul\":531:532   */\n      0x00\n        /* \"#utility.yul\":556:609   */\n      tag_106\n        /* \"#utility.yul\":601:608   */\n      dup5\n        /* \"#utility.yul\":592:598   */\n      dup3\n        /* \"#utility.yul\":581:590   */\n      dup6\n        /* \"#utility.yul\":577:599   */\n      add\n        /* \"#utility.yul\":556:609   */\n      tag_94\n      jump\t// in\n    tag_106:\n        /* \"#utility.yul\":546:609   */\n      swap2\n      pop\n        /* \"#utility.yul\":502:619   */\n      pop\n        /* \"#utility.yul\":297:626   */\n      swap3\n      swap2\n      pop\n      pop\n      jump\t// out\n        /* \"#utility.yul\":632:1106   */\n    tag_29:\n        /* \"#utility.yul\":700:706   */\n      0x00\n        /* \"#utility.yul\":708:714   */\n      dup1\n        /* \"#utility.yul\":757:759   */\n      0x40\n        /* \"#utility.yul\":745:754   */\n      dup4\n        /* \"#utility.yul\":736:743   */\n      dup6\n        /* \"#utility.yul\":732:755   */\n      sub\n        /* \"#utility.yul\":728:760   */\n      slt\n        /* \"#utility.yul\":725:844   */\n      iszero\n      tag_108\n      jumpi\n        /* \"#utility.yul\":763:842   */\n      tag_109\n      tag_105\n      jump\t// in\n    tag_109:\n        /* \"#utility.yul\":725:844   */\n    tag_108:\n        /* \"#utility.yul\":883:884   */\n      0x00\n        /* \"#utility.yul\":908:961   */\n      tag_110\n        /* \"#utility.yul\":953:960   */\n      dup6\n        /* \"#utility.yul\":944:950   */\n      dup3\n        /* \"#utility.yul\":933:942   */\n      dup7\n        /* \"#utility.yul\":929:951   */\n      add\n        /* \"#utility.yul\":908:961   */\n      tag_94\n      jump\t// in\n    tag_110:\n        /* \"#utility.yul\":898:961   */\n      swap3\n      pop\n        /* \"#utility.yul\":854:971   */\n      pop\n        /* \"#utility.yul\":1010:1012   */\n      0x20\n        /* \"#utility.yul\":1036:1089   */\n      tag_111\n        /* \"#utility.yul\":1081:1088   */\n      dup6\n        /* \"#utility.yul\":1072:1078   */\n      dup3\n        /* \"#utility.yul\":1061:1070   */\n      dup7\n        /* \"#utility.yul\":1057:1079   */\n      add\n        /* \"#utility.yul\":1036:1089   */\n      tag_94\n      jump\t// in\n    tag_111:\n        /* \"#utility.yul\":1026:1089   */\n      swap2\n      pop\n        /* \"#utility.yul\":981:1099   */\n      pop\n        /* \"#utility.yul\":632:1106   */\n      swap3\n      pop\n      swap3\n      swap1\n      pop\n      jump\t// out\n        /* \"#utility.yul\":1112:1731   */\n    tag_49:\n        /* \"#utility.yul\":1189:1195   */\n      0x00\n        /* \"#utility.yul\":1197:1203   */\n      dup1\n        /* \"#utility.yul\":1205:1211   */\n      0x00\n        /* \"#utility.yul\":1254:1256   */\n      0x60\n        /* \"#utility.yul\":1242:1251   */\n      dup5\n        /* \"#utility.yul\":1233:1240   */\n      dup7\n        /* \"#utility.yul\":1229:1252   */\n      sub\n        /* \"#utility.yul\":1225:1257   */\n      slt\n        /* \"#utility.yul\":1222:1341   */\n      iszero\n      tag_113\n      jumpi\n        /* \"#utility.yul\":1260:1339   */\n      tag_114\n      tag_105\n      jump\t// in\n    tag_114:\n        /* \"#utility.yul\":1222:1341   */\n    tag_113:\n        /* \"#utility.yul\":1380:1381   */\n      0x00\n        /* \"#utility.yul\":1405:1458   */\n      tag_115\n        /* \"#utility.yul\":1450:1457   */\n      dup7\n        /* \"#utility.yul\":1441:1447   */\n      dup3\n        /* \"#utility.yul\":1430:1439   */\n      dup8\n        /* \"#utility.yul\":1426:1448   */\n      add\n        /* \"#utility.yul\":1405:1458   */\n      tag_94\n      jump\t// in\n    tag_115:\n        /* \"#utility.yul\":1395:1458   */\n      swap4\n      pop\n        /* \"#utility.yul\":1351:1468   */\n      pop\n        /* \"#utility.yul\":1507:1509   */\n      0x20\n        /* \"#utility.yul\":1533:1586   */\n      tag_116\n        /* \"#utility.yul\":1578:1585   */\n      dup7\n        /* \"#utility.yul\":1569:1575   */\n      dup3\n        /* \"#utility.yul\":1558:1567   */\n      dup8\n        /* \"#utility.yul\":1554:1576   */\n      add\n        /* \"#utility.yul\":1533:1586   */\n      tag_94\n      jump\t// in\n    tag_116:\n        /* \"#utility.yul\":1523:1586   */\n      swap3\n      pop\n        /* \"#utility.yul\":1478:1596   */\n      pop\n        /* \"#utility.yul\":1635:1637   */\n      0x40\n        /* \"#utility.yul\":1661:1714   */\n      tag_117\n        /* \"#utility.yul\":1706:1713   */\n      dup7\n        /* \"#utility.yul\":1697:1703   */\n      dup3\n        /* \"#utility.yul\":1686:1695   */\n      dup8\n        /* \"#utility.yul\":1682:1704   */\n      add\n        /* \"#utility.yul\":1661:1714   */\n      tag_98\n      jump\t// in\n    tag_117:\n        /* \"#utility.yul\":1651:1714   */\n      swap2\n      pop\n        /* \"#utility.yul\":1606:1724   */\n      pop\n        /* \"#utility.yul\":1112:1731   */\n      swap3\n      pop\n      swap3\n      pop\n      swap3\n      jump\t// out\n        /* \"#utility.yul\":1737:2211   */\n    tag_23:\n        /* \"#utility.yul\":1805:1811   */\n      0x00\n        /* \"#utility.yul\":1813:1819   */\n      dup1\n        /* \"#utility.yul\":1862:1864   */\n      0x40\n        /* \"#utility.yul\":1850:1859   */\n      dup4\n        /* \"#utility.yul\":1841:1848   */\n      dup6\n        /* \"#utility.yul\":1837:1860   */\n      sub\n        /* \"#utility.yul\":1833:1865   */\n      slt\n        /* \"#utility.yul\":1830:1949   */\n      iszero\n      tag_119\n      jumpi\n        /* \"#utility.yul\":1868:1947   */\n      tag_120\n      tag_105\n      jump\t// in\n    tag_120:\n        /* \"#utility.yul\":1830:1949   */\n    tag_119:\n        /* \"#utility.yul\":1988:1989   */\n      0x00\n        /* \"#utility.yul\":2013:2066   */\n      tag_121\n        /* \"#utility.yul\":2058:2065   */\n      dup6\n        /* \"#utility.yul\":2049:2055   */\n      dup3\n        /* \"#utility.yul\":2038:2047   */\n      dup7\n        /* \"#utility.yul\":2034:2056   */\n      add\n        /* \"#utility.yul\":2013:2066   */\n      tag_94\n      jump\t// in\n    tag_121:\n        /* \"#utility.yul\":2003:2066   */\n      swap3\n      pop\n        /* \"#utility.yul\":1959:2076   */\n      pop\n        /* \"#utility.yul\":2115:2117   */\n      0x20\n        /* \"#utility.yul\":2141:2194   */\n      tag_122\n        /* \"#utility.yul\":2186:2193   */\n      dup6\n        /* \"#utility.yul\":2177:2183   */\n      dup3\n        /* \"#utility.yul\":2166:2175   */\n      dup7\n        /* \"#utility.yul\":2162:2184   */\n      add\n        /* \"#utility.yul\":2141:2194   */\n      tag_98\n      jump\t// in\n    tag_122:\n        /* \"#utility.yul\":2131:2194   */\n      swap2\n      pop\n        /* \"#utility.yul\":2086:2204   */\n      pop\n        /* \"#utility.yul\":1737:2211   */\n      swap3\n      pop\n      swap3\n      swap1\n      pop\n      jump\t// out\n        /* \"#utility.yul\":2217:2326   */\n    tag_123:\n        /* \"#utility.yul\":2298:2319   */\n      tag_125\n        /* \"#utility.yul\":2313:2318   */\n      dup2\n        /* \"#utility.yul\":2298:2319   */\n      tag_126\n      jump\t// in\n    tag_125:\n        /* \"#utility.yul\":2293:2296   */\n      dup3\n        /* \"#utility.yul\":2286:2320   */\n      mstore\n        /* \"#utility.yul\":2217:2326   */\n      pop\n      pop\n      jump\t// out\n        /* \"#utility.yul\":2332:2696   */\n    tag_127:\n        /* \"#utility.yul\":2420:2423   */\n      0x00\n        /* \"#utility.yul\":2448:2487   */\n      tag_129\n        /* \"#utility.yul\":2481:2486   */\n      dup3\n        /* \"#utility.yul\":2448:2487   */\n      tag_130\n      jump\t// in\n    tag_129:\n        /* \"#utility.yul\":2503:2574   */\n      tag_131\n        /* \"#utility.yul\":2567:2573   */\n      dup2\n        /* \"#utility.yul\":2562:2565   */\n      dup6\n        /* \"#utility.yul\":2503:2574   */\n      tag_132\n      jump\t// in\n    tag_131:\n        /* \"#utility.yul\":2496:2574   */\n      swap4\n      pop\n        /* \"#utility.yul\":2583:2635   */\n      tag_133\n        /* \"#utility.yul\":2628:2634   */\n      dup2\n        /* \"#utility.yul\":2623:2626   */\n      dup6\n        /* \"#utility.yul\":2616:2620   */\n      0x20\n        /* \"#utility.yul\":2609:2614   */\n      dup7\n        /* \"#utility.yul\":2605:2621   */\n      add\n        /* \"#utility.yul\":2583:2635   */\n      tag_134\n      jump\t// in\n    tag_133:\n        /* \"#utility.yul\":2660:2689   */\n      tag_135\n        /* \"#utility.yul\":2682:2688   */\n      dup2\n        /* \"#utility.yul\":2660:2689   */\n      tag_136\n      jump\t// in\n    tag_135:\n        /* \"#utility.yul\":2655:2658   */\n      dup5\n        /* \"#utility.yul\":2651:2690   */\n      add\n        /* \"#utility.yul\":2644:2690   */\n      swap2\n      pop\n        /* \"#utility.yul\":2424:2696   */\n      pop\n        /* \"#utility.yul\":2332:2696   */\n      swap3\n      swap2\n      pop\n      pop\n      jump\t// out\n        /* \"#utility.yul\":2702:3068   */\n    tag_137:\n        /* \"#utility.yul\":2844:2847   */\n      0x00\n        /* \"#utility.yul\":2865:2932   */\n      tag_139\n        /* \"#utility.yul\":2929:2931   */\n      0x10\n        /* \"#utility.yul\":2924:2927   */\n      dup4\n        /* \"#utility.yul\":2865:2932   */\n      tag_132\n      jump\t// in\n    tag_139:\n        /* \"#utility.yul\":2858:2932   */\n      swap2\n      pop\n        /* \"#utility.yul\":2941:3034   */\n      tag_140\n        /* \"#utility.yul\":3030:3033   */\n      dup3\n        /* \"#utility.yul\":2941:3034   */\n      tag_141\n      jump\t// in\n    tag_140:\n        /* \"#utility.yul\":3059:3061   */\n      0x20\n        /* \"#utility.yul\":3054:3057   */\n      dup3\n        /* \"#utility.yul\":3050:3062   */\n      add\n        /* \"#utility.yul\":3043:3062   */\n      swap1\n      pop\n        /* \"#utility.yul\":2702:3068   */\n      swap2\n      swap1\n      pop\n      jump\t// out\n        /* \"#utility.yul\":3074:3440   */\n    tag_142:\n        /* \"#utility.yul\":3216:3219   */\n      0x00\n        /* \"#utility.yul\":3237:3304   */\n      tag_144\n        /* \"#utility.yul\":3301:3303   */\n      0x0f\n        /* \"#utility.yul\":3296:3299   */\n      dup4\n        /* \"#utility.yul\":3237:3304   */\n      tag_132\n      jump\t// in\n    tag_144:\n        /* \"#utility.yul\":3230:3304   */\n      swap2\n      pop\n        /* \"#utility.yul\":3313:3406   */\n      tag_145\n        /* \"#utility.yul\":3402:3405   */\n      dup3\n        /* \"#utility.yul\":3313:3406   */\n      tag_146\n      jump\t// in\n    tag_145:\n        /* \"#utility.yul\":3431:3433   */\n      0x20\n        /* \"#utility.yul\":3426:3429   */\n      dup3\n        /* \"#utility.yul\":3422:3434   */\n      add\n        /* \"#utility.yul\":3415:3434   */\n      swap1\n      pop\n        /* \"#utility.yul\":3074:3440   */\n      swap2\n      swap1\n      pop\n      jump\t// out\n        /* \"#utility.yul\":3446:3564   */\n    tag_147:\n        /* \"#utility.yul\":3533:3557   */\n      tag_149\n        /* \"#utility.yul\":3551:3556   */\n      dup2\n        /* \"#utility.yul\":3533:3557   */\n      tag_150\n      jump\t// in\n    tag_149:\n        /* \"#utility.yul\":3528:3531   */\n      dup3\n        /* \"#utility.yul\":3521:3558   */\n      mstore\n        /* \"#utility.yul\":3446:3564   */\n      pop\n      pop\n      jump\t// out\n        /* \"#utility.yul\":3570:3780   */\n    tag_26:\n        /* \"#utility.yul\":3657:3661   */\n      0x00\n        /* \"#utility.yul\":3695:3697   */\n      0x20\n        /* \"#utility.yul\":3684:3693   */\n      dup3\n        /* \"#utility.yul\":3680:3698   */\n      add\n        /* \"#utility.yul\":3672:3698   */\n      swap1\n      pop\n        /* \"#utility.yul\":3708:3773   */\n      tag_152\n        /* \"#utility.yul\":3770:3771   */\n      0x00\n        /* \"#utility.yul\":3759:3768   */\n      dup4\n        /* \"#utility.yul\":3755:3772   */\n      add\n        /* \"#utility.yul\":3746:3752   */\n      dup5\n        /* \"#utility.yul\":3708:3773   */\n      tag_123\n      jump\t// in\n    tag_152:\n        /* \"#utility.yul\":3570:3780   */\n      swap3\n      swap2\n      pop\n      pop\n      jump\t// out\n        /* \"#utility.yul\":3786:4099   */\n    tag_16:\n        /* \"#utility.yul\":3899:3903   */\n      0x00\n        /* \"#utility.yul\":3937:3939   */\n      0x20\n        /* \"#utility.yul\":3926:3935   */\n      dup3\n        /* \"#utility.yul\":3922:3940   */\n      add\n        /* \"#utility.yul\":3914:3940   */\n      swap1\n      pop\n        /* \"#utility.yul\":3986:3995   */\n      dup2\n        /* \"#utility.yul\":3980:3984   */\n      dup2\n        /* \"#utility.yul\":3976:3996   */\n      sub\n        /* \"#utility.yul\":3972:3973   */\n      0x00\n        /* \"#utility.yul\":3961:3970   */\n      dup4\n        /* \"#utility.yul\":3957:3974   */\n      add\n        /* \"#utility.yul\":3950:3997   */\n      mstore\n        /* \"#utility.yul\":4014:4092   */\n      tag_154\n        /* \"#utility.yul\":4087:4091   */\n      dup2\n        /* \"#utility.yul\":4078:4084   */\n      dup5\n        /* \"#utility.yul\":4014:4092   */\n      tag_127\n      jump\t// in\n    tag_154:\n        /* \"#utility.yul\":4006:4092   */\n      swap1\n      pop\n        /* \"#utility.yul\":3786:4099   */\n      swap3\n      swap2\n      pop\n      pop\n      jump\t// out\n        /* \"#utility.yul\":4105:4524   */\n    tag_65:\n        /* \"#utility.yul\":4271:4275   */\n      0x00\n        /* \"#utility.yul\":4309:4311   */\n      0x20\n        /* \"#utility.yul\":4298:4307   */\n      dup3\n        /* \"#utility.yul\":4294:4312   */\n      add\n        /* \"#utility.yul\":4286:4312   */\n      swap1\n      pop\n        /* \"#utility.yul\":4358:4367   */\n      dup2\n        /* \"#utility.yul\":4352:4356   */\n      dup2\n        /* \"#utility.yul\":4348:4368   */\n      sub\n        /* \"#utility.yul\":4344:4345   */\n      0x00\n        /* \"#utility.yul\":4333:4342   */\n      dup4\n        /* \"#utility.yul\":4329:4346   */\n      add\n        /* \"#utility.yul\":4322:4369   */\n      mstore\n        /* \"#utility.yul\":4386:4517   */\n      tag_156\n        /* \"#utility.yul\":4512:4516   */\n      dup2\n        /* \"#utility.yul\":4386:4517   */\n      tag_137\n      jump\t// in\n    tag_156:\n        /* \"#utility.yul\":4378:4517   */\n      swap1\n      pop\n        /* \"#utility.yul\":4105:4524   */\n      swap2\n      swap1\n      pop\n      jump\t// out\n        /* \"#utility.yul\":4530:4949   */\n    tag_62:\n        /* \"#utility.yul\":4696:4700   */\n      0x00\n        /* \"#utility.yul\":4734:4736   */\n      0x20\n        /* \"#utility.yul\":4723:4732   */\n      dup3\n        /* \"#utility.yul\":4719:4737   */\n      add\n        /* \"#utility.yul\":4711:4737   */\n      swap1\n      pop\n        /* \"#utility.yul\":4783:4792   */\n      dup2\n        /* \"#utility.yul\":4777:4781   */\n      dup2\n        /* \"#utility.yul\":4773:4793   */\n      sub\n        /* \"#utility.yul\":4769:4770   */\n      0x00\n        /* \"#utility.yul\":4758:4767   */\n      dup4\n        /* \"#utility.yul\":4754:4771   */\n      add\n        /* \"#utility.yul\":4747:4794   */\n      mstore\n        /* \"#utility.yul\":4811:4942   */\n      tag_158\n        /* \"#utility.yul\":4937:4941   */\n      dup2\n        /* \"#utility.yul\":4811:4942   */\n      tag_142\n      jump\t// in\n    tag_158:\n        /* \"#utility.yul\":4803:4942   */\n      swap1\n      pop\n        /* \"#utility.yul\":4530:4949   */\n      swap2\n      swap1\n      pop\n      jump\t// out\n        /* \"#utility.yul\":4955:5177   */\n    tag_20:\n        /* \"#utility.yul\":5048:5052   */\n      0x00\n        /* \"#utility.yul\":5086:5088   */\n      0x20\n        /* \"#utility.yul\":5075:5084   */\n      dup3\n        /* \"#utility.yul\":5071:5089   */\n      add\n        /* \"#utility.yul\":5063:5089   */\n      swap1\n      pop\n        /* \"#utility.yul\":5099:5170   */\n      tag_160\n        /* \"#utility.yul\":5167:5168   */\n      0x00\n        /* \"#utility.yul\":5156:5165   */\n      dup4\n        /* \"#utility.yul\":5152:5169   */\n      add\n        /* \"#utility.yul\":5143:5149   */\n      dup5\n        /* \"#utility.yul\":5099:5170   */\n      tag_147\n      jump\t// in\n    tag_160:\n        /* \"#utility.yul\":4955:5177   */\n      swap3\n      swap2\n      pop\n      pop\n      jump\t// out\n        /* \"#utility.yul\":5264:5363   */\n    tag_130:\n        /* \"#utility.yul\":5316:5322   */\n      0x00\n        /* \"#utility.yul\":5350:5355   */\n      dup2\n        /* \"#utility.yul\":5344:5356   */\n      mload\n        /* \"#utility.yul\":5334:5356   */\n      swap1\n      pop\n        /* \"#utility.yul\":5264:5363   */\n      swap2\n      swap1\n      pop\n      jump\t// out\n        /* \"#utility.yul\":5369:5538   */\n    tag_132:\n        /* \"#utility.yul\":5453:5464   */\n      0x00\n        /* \"#utility.yul\":5487:5493   */\n      dup3\n        /* \"#utility.yul\":5482:5485   */\n      dup3\n        /* \"#utility.yul\":5475:5494   */\n      mstore\n        /* \"#utility.yul\":5527:5531   */\n      0x20\n        /* \"#utility.yul\":5522:5525   */\n      dup3\n        /* \"#utility.yul\":5518:5532   */\n      add\n        /* \"#utility.yul\":5503:5532   */\n      swap1\n      pop\n        /* \"#utility.yul\":5369:5538   */\n      swap3\n      swap2\n      pop\n      pop\n      jump\t// out\n        /* \"#utility.yul\":5544:5849   */\n    tag_69:\n        /* \"#utility.yul\":5584:5587   */\n      0x00\n        /* \"#utility.yul\":5603:5623   */\n      tag_166\n        /* \"#utility.yul\":5621:5622   */\n      dup3\n        /* \"#utility.yul\":5603:5623   */\n      tag_150\n      jump\t// in\n    tag_166:\n        /* \"#utility.yul\":5598:5623   */\n      swap2\n      pop\n        /* \"#utility.yul\":5637:5657   */\n      tag_167\n        /* \"#utility.yul\":5655:5656   */\n      dup4\n        /* \"#utility.yul\":5637:5657   */\n      tag_150\n      jump\t// in\n    tag_167:\n        /* \"#utility.yul\":5632:5657   */\n      swap3\n      pop\n        /* \"#utility.yul\":5791:5792   */\n      dup3\n        /* \"#utility.yul\":5723:5789   */\n      0xffffffffffffffffffffffffffffffffffffffffffffffffffffffffffffffff\n        /* \"#utility.yul\":5719:5793   */\n      sub\n        /* \"#utility.yul\":5716:5717   */\n      dup3\n        /* \"#utility.yul\":5713:5794   */\n      gt\n        /* \"#utility.yul\":5710:5817   */\n      iszero\n      tag_168\n      jumpi\n        /* \"#utility.yul\":5797:5815   */\n      tag_169\n      tag_170\n      jump\t// in\n    tag_169:\n        /* \"#utility.yul\":5710:5817   */\n    tag_168:\n        /* \"#utility.yul\":5841:5842   */\n      dup3\n        /* \"#utility.yul\":5838:5839   */\n      dup3\n        /* \"#utility.yul\":5834:5843   */\n      add\n        /* \"#utility.yul\":5827:5843   */\n      swap1\n      pop\n        /* \"#utility.yul\":5544:5849   */\n      swap3\n      swap2\n      pop\n      pop\n      jump\t// out\n        /* \"#utility.yul\":5855:6046   */\n    tag_67:\n        /* \"#utility.yul\":5895:5899   */\n      0x00\n        /* \"#utility.yul\":5915:5935   */\n      tag_172\n        /* \"#utility.yul\":5933:5934   */\n      dup3\n        /* \"#utility.yul\":5915:5935   */\n      tag_150\n      jump\t// in\n    tag_172:\n        /* \"#utility.yul\":5910:5935   */\n      swap2\n      pop\n        /* \"#utility.yul\":5949:5969   */\n      tag_173\n        /* \"#utility.yul\":5967:5968   */\n      dup4\n        /* \"#utility.yul\":5949:5969   */\n      tag_150\n      jump\t// in\n    tag_173:\n        /* \"#utility.yul\":5944:5969   */\n      swap3\n      pop\n        /* \"#utility.yul\":5988:5989   */\n      dup3\n        /* \"#utility.yul\":5985:5986   */\n      dup3\n        /* \"#utility.yul\":5982:5990   */\n      lt\n        /* \"#utility.yul\":5979:6013   */\n      iszero\n      tag_174\n      jumpi\n        /* \"#utility.yul\":5993:6011   */\n      tag_175\n      tag_170\n      jump\t// in\n    tag_175:\n        /* \"#utility.yul\":5979:6013   */\n    tag_174:\n        /* \"#utility.yul\":6038:6039   */\n      dup3\n        /* \"#utility.yul\":6035:6036   */\n      dup3\n        /* \"#utility.yul\":6031:6040   */\n      sub\n        /* \"#utility.yul\":6023:6040   */\n      swap1\n      pop\n        /* \"#utility.yul\":5855:6046   */\n      swap3\n      swap2\n      pop\n      pop\n      jump\t// out\n        /* \"#utility.yul\":6052:6148   */\n    tag_176:\n        /* \"#utility.yul\":6089:6096   */\n      0x00\n        /* \"#utility.yul\":6118:6142   */\n      tag_178\n        /* \"#utility.yul\":6136:6141   */\n      dup3\n        /* \"#utility.yul\":6118:6142   */\n      tag_179\n      jump\t// in\n    tag_178:\n        /* \"#utility.yul\":6107:6142   */\n      swap1\n      pop\n        /* \"#utility.yul\":6052:6148   */\n      swap2\n      swap1\n      pop\n      jump\t// out\n        /* \"#utility.yul\":6154:6244   */\n    tag_126:\n        /* \"#utility.yul\":6188:6195   */\n      0x00\n        /* \"#utility.yul\":6231:6236   */\n      dup2\n        /* \"#utility.yul\":6224:6237   */\n      iszero\n        /* \"#utility.yul\":6217:6238   */\n      iszero\n        /* \"#utility.yul\":6206:6238   */\n      swap1\n      pop\n        /* \"#utility.yul\":6154:6244   */\n      swap2\n      swap1\n      pop\n      jump\t// out\n        /* \"#utility.yul\":6250:6376   */\n    tag_179:\n        /* \"#utility.yul\":6287:6294   */\n      0x00\n        /* \"#utility.yul\":6327:6369   */\n      0xffffffffffffffffffffffffffffffffffffffff\n        /* \"#utility.yul\":6320:6325   */\n      dup3\n        /* \"#utility.yul\":6316:6370   */\n      and\n        /* \"#utility.yul\":6305:6370   */\n      swap1\n      pop\n        /* \"#utility.yul\":6250:6376   */\n      swap2\n      swap1\n      pop\n      jump\t// out\n        /* \"#utility.yul\":6382:6459   */\n    tag_150:\n        /* \"#utility.yul\":6419:6426   */\n      0x00\n        /* \"#utility.yul\":6448:6453   */\n      dup2\n        /* \"#utility.yul\":6437:6453   */\n      swap1\n      pop\n        /* \"#utility.yul\":6382:6459   */\n      swap2\n      swap1\n      pop\n      jump\t// out\n        /* \"#utility.yul\":6465:6772   */\n    tag_134:\n        /* \"#utility.yul\":6533:6534   */\n      0x00\n        /* \"#utility.yul\":6543:6656   */\n    tag_184:\n        /* \"#utility.yul\":6557:6563   */\n      dup4\n        /* \"#utility.yul\":6554:6555   */\n      dup2\n        /* \"#utility.yul\":6551:6564   */\n      lt\n        /* \"#utility.yul\":6543:6656   */\n      iszero\n      tag_186\n      jumpi\n        /* \"#utility.yul\":6642:6643   */\n      dup1\n        /* \"#utility.yul\":6637:6640   */\n      dup3\n        /* \"#utility.yul\":6633:6644   */\n      add\n        /* \"#utility.yul\":6627:6645   */\n      mload\n        /* \"#utility.yul\":6623:6624   */\n      dup2\n        /* \"#utility.yul\":6618:6621   */\n      dup5\n        /* \"#utility.yul\":6614:6625   */\n      add\n        /* \"#utility.yul\":6607:6646   */\n      mstore\n        /* \"#utility.yul\":6579:6581   */\n      0x20\n        /* \"#utility.yul\":6576:6577   */\n      dup2\n        /* \"#utility.yul\":6572:6582   */\n      add\n        /* \"#utility.yul\":6567:6582   */\n      swap1\n      pop\n        /* \"#utility.yul\":6543:6656   */\n      jump(tag_184)\n    tag_186:\n        /* \"#utility.yul\":6674:6680   */\n      dup4\n        /* \"#utility.yul\":6671:6672   */\n      dup2\n        /* \"#utility.yul\":6668:6681   */\n      gt\n        /* \"#utility.yul\":6665:6766   */\n      iszero\n      tag_187\n      jumpi\n        /* \"#utility.yul\":6754:6755   */\n      0x00\n        /* \"#utility.yul\":6745:6751   */\n      dup5\n        /* \"#utility.yul\":6740:6743   */\n      dup5\n        /* \"#utility.yul\":6736:6752   */\n      add\n        /* \"#utility.yul\":6729:6756   */\n      mstore\n        /* \"#utility.yul\":6665:6766   */\n    tag_187:\n        /* \"#utility.yul\":6514:6772   */\n      pop\n        /* \"#utility.yul\":6465:6772   */\n      pop\n      pop\n      pop\n      jump\t// out\n        /* \"#utility.yul\":6778:7098   */\n    tag_53:\n        /* \"#utility.yul\":6822:6828   */\n      0x00\n        /* \"#utility.yul\":6859:6860   */\n      0x02\n        /* \"#utility.yul\":6853:6857   */\n      dup3\n        /* \"#utility.yul\":6849:6861   */\n      div\n        /* \"#utility.yul\":6839:6861   */\n      swap1\n      pop\n        /* \"#utility.yul\":6906:6907   */\n      0x01\n        /* \"#utility.yul\":6900:6904   */\n      dup3\n        /* \"#utility.yul\":6896:6908   */\n      and\n        /* \"#utility.yul\":6927:6945   */\n      dup1\n        /* \"#utility.yul\":6917:6998   */\n      tag_189\n      jumpi\n        /* \"#utility.yul\":6983:6987   */\n      0x7f\n        /* \"#utility.yul\":6975:6981   */\n      dup3\n        /* \"#utility.yul\":6971:6988   */\n      and\n        /* \"#utility.yul\":6961:6988   */\n      swap2\n      pop\n        /* \"#utility.yul\":6917:6998   */\n    tag_189:\n        /* \"#utility.yul\":7045:7047   */\n      0x20\n        /* \"#utility.yul\":7037:7043   */\n      dup3\n        /* \"#utility.yul\":7034:7048   */\n      lt\n        /* \"#utility.yul\":7014:7032   */\n      dup2\n        /* \"#utility.yul\":7011:7049   */\n      eq\n        /* \"#utility.yul\":7008:7092   */\n      iszero\n      tag_190\n      jumpi\n        /* \"#utility.yul\":7064:7082   */\n      tag_191\n      tag_192\n      jump\t// in\n    tag_191:\n        /* \"#utility.yul\":7008:7092   */\n    tag_190:\n        /* \"#utility.yul\":6829:7098   */\n      pop\n        /* \"#utility.yul\":6778:7098   */\n      swap2\n      swap1\n      pop\n      jump\t// out\n        /* \"#utility.yul\":7104:7284   */\n    tag_170:\n        /* \"#utility.yul\":7152:7229   */\n      0x4e487b7100000000000000000000000000000000000000000000000000000000\n        /* \"#utility.yul\":7149:7150   */\n      0x00\n        /* \"#utility.yul\":7142:7230   */\n      mstore\n        /* \"#utility.yul\":7249:7253   */\n      0x11\n        /* \"#utility.yul\":7246:7247   */\n      0x04\n        /* \"#utility.yul\":7239:7254   */\n      mstore\n        /* \"#utility.yul\":7273:7277   */\n      0x24\n        /* \"#utility.yul\":7270:7271   */\n      0x00\n        /* \"#utility.yul\":7263:7278   */\n      revert\n        /* \"#utility.yul\":7290:7470   */\n    tag_192:\n        /* \"#utility.yul\":7338:7415   */\n      0x4e487b7100000000000000000000000000000000000000000000000000000000\n        /* \"#utility.yul\":7335:7336   */\n      0x00\n        /* \"#utility.yul\":7328:7416   */\n      mstore\n        /* \"#utility.yul\":7435:7439   */\n      0x22\n        /* \"#utility.yul\":7432:7433   */\n      0x04\n        /* \"#utility.yul\":7425:7440   */\n      mstore\n        /* \"#utility.yul\":7459:7463   */\n      0x24\n        /* \"#utility.yul\":7456:7457   */\n      0x00\n        /* \"#utility.yul\":7449:7464   */\n      revert\n        /* \"#utility.yul\":7599:7716   */\n    tag_105:\n        /* \"#utility.yul\":7708:7709   */\n      0x00\n        /* \"#utility.yul\":7705:7706   */\n      dup1\n        /* \"#utility.yul\":7698:7710   */\n      revert\n        /* \"#utility.yul\":7722:7824   */\n    tag_136:\n        /* \"#utility.yul\":7763:7769   */\n      0x00\n        /* \"#utility.yul\":7814:7816   */\n      0x1f\n        /* \"#utility.yul\":7810:7817   */\n      not\n        /* \"#utility.yul\":7805:7807   */\n      0x1f\n        /* \"#utility.yul\":7798:7803   */\n      dup4\n        /* \"#utility.yul\":7794:7808   */\n      add\n        /* \"#utility.yul\":7790:7818   */\n      and\n        /* \"#utility.yul\":7780:7818   */\n      swap1\n      pop\n        /* \"#utility.yul\":7722:7824   */\n      swap2\n      swap1\n      pop\n      jump\t// out\n        /* \"#utility.yul\":7830:7996   */\n    tag_141:\n        /* \"#utility.yul\":7970:7988   */\n      0x4e6f7420456e6f756768204d6f6e657900000000000000000000000000000000\n        /* \"#utility.yul\":7966:7967   */\n      0x00\n        /* \"#utility.yul\":7958:7964   */\n      dup3\n        /* \"#utility.yul\":7954:7968   */\n      add\n        /* \"#utility.yul\":7947:7989   */\n      mstore\n        /* \"#utility.yul\":7830:7996   */\n      pop\n      jump\t// out\n        /* \"#utility.yul\":8002:8167   */\n    tag_146:\n        /* \"#utility.yul\":8142:8159   */\n      0x496e76616c696420416464726573730000000000000000000000000000000000\n        /* \"#utility.yul\":8138:8139   */\n      0x00\n        /* \"#utility.yul\":8130:8136   */\n      dup3\n        /* \"#utility.yul\":8126:8140   */\n      add\n        /* \"#utility.yul\":8119:8160   */\n      mstore\n        /* \"#utility.yul\":8002:8167   */\n      pop\n      jump\t// out\n        /* \"#utility.yul\":8173:8295   */\n    tag_97:\n        /* \"#utility.yul\":8246:8270   */\n      tag_202\n        /* \"#utility.yul\":8264:8269   */\n      dup2\n        /* \"#utility.yul\":8246:8270   */\n      tag_176\n      jump\t// in\n    tag_202:\n        /* \"#utility.yul\":8239:8244   */\n      dup2\n        /* \"#utility.yul\":8236:8271   */\n      eq\n        /* \"#utility.yul\":8226:8289   */\n      tag_203\n      jumpi\n        /* \"#utility.yul\":8285:8286   */\n      0x00\n        /* \"#utility.yul\":8282:8283   */\n      dup1\n        /* \"#utility.yul\":8275:8287   */\n      revert\n        /* \"#utility.yul\":8226:8289   */\n    tag_203:\n        /* \"#utility.yul\":8173:8295   */\n      pop\n      jump\t// out\n        /* \"#utility.yul\":8301:8423   */\n    tag_101:\n        /* \"#utility.yul\":8374:8398   */\n      tag_205\n        /* \"#utility.yul\":8392:8397   */\n      dup2\n        /* \"#utility.yul\":8374:8398   */\n      tag_150\n      jump\t// in\n    tag_205:\n        /* \"#utility.yul\":8367:8372   */\n      dup2\n        /* \"#utility.yul\":8364:8399   */\n      eq\n        /* \"#utility.yul\":8354:8417   */\n      tag_206\n      jumpi\n        /* \"#utility.yul\":8413:8414   */\n      0x00\n        /* \"#utility.yul\":8410:8411   */\n      dup1\n        /* \"#utility.yul\":8403:8415   */\n      revert\n        /* \"#utility.yul\":8354:8417   */\n    tag_206:\n        /* \"#utility.yul\":8301:8423   */\n      pop\n      jump\t// out\n\n    auxdata: 0xa264697066735822122093a400c90af9c45d0baada5f8ad787b45ec29440bdebd8d1f23f238ce78b11ea64736f6c63430008070033\n}\n",
				"bytecode": {
					"linkReferences": {},
					"object": "60806040523480156200001157600080fd5b506040518060400160405280600e81526020017f4d7920666972737420746f6b656e000000000000000000000000000000000000815250600090805190602001906200005f92919062000126565b506040518060400160405280600381526020017f4d4654000000000000000000000000000000000000000000000000000000000081525060019080519060200190620000ad92919062000126565b506000600260006101000a81548163ffffffff021916908363ffffffff160217905550620f4240600381905550600354600460003373ffffffffffffffffffffffffffffffffffffffff1673ffffffffffffffffffffffffffffffffffffffff168152602001908152602001600020819055506200023b565b8280546200013490620001d6565b90600052602060002090601f016020900481019282620001585760008555620001a4565b82601f106200017357805160ff1916838001178555620001a4565b82800160010185558215620001a4579182015b82811115620001a357825182559160200191906001019062000186565b5b509050620001b39190620001b7565b5090565b5b80821115620001d2576000816000905550600101620001b8565b5090565b60006002820490506001821680620001ef57607f821691505b602082108114156200020657620002056200020c565b5b50919050565b7f4e487b7100000000000000000000000000000000000000000000000000000000600052602260045260246000fd5b610e5b806200024b6000396000f3fe608060405234801561001057600080fd5b50600436106100935760003560e01c806370a082311161006657806370a082311461013457806376809ce31461016457806390ec57f11461018257806395d89b41146101b2578063c0d84ce5146101d057610093565b806306fdde031461009857806318160ddd146100b657806369ca02dd146100d45780636dcdd00f14610104575b600080fd5b6100a06101ec565b6040516100ad9190610b61565b60405180910390f35b6100be61027e565b6040516100cb9190610bc3565b60405180910390f35b6100ee60048036038101906100e99190610a69565b610288565b6040516100fb9190610b46565b60405180910390f35b61011e600480360381019061011991906109d6565b61048c565b60405161012b9190610bc3565b60405180910390f35b61014e600480360381019061014991906109a9565b610513565b60405161015b9190610bc3565b60405180910390f35b61016c61055c565b6040516101799190610bc3565b60405180910390f35b61019c60048036038101906101979190610a69565b61057c565b6040516101a99190610b46565b60405180910390f35b6101ba610743565b6040516101c79190610b61565b60405180910390f35b6101ea60048036038101906101e59190610a16565b6107d5565b005b6060600080546101fb90610cff565b80601f016020809104026020016040519081016040528092919081815260200182805461022790610cff565b80156102745780601f1061024957610100808354040283529160200191610274565b820191906000526020600020905b81548152906001019060200180831161025757829003601f168201915b5050505050905090565b6000600354905090565b60008073ffffffffffffffffffffffffffffffffffffffff168373ffffffffffffffffffffffffffffffffffffffff1614156102f9576040517f08c379a00000000000000000000000000000000000000000000000000000000081526004016102f090610ba3565b60405180910390fd5b81600460003373ffffffffffffffffffffffffffffffffffffffff1673ffffffffffffffffffffffffffffffffffffffff16815260200190815260200160002054101561037b576040517f08c379a000000000000000000000000000000000000000000000000000000000815260040161037290610b83565b60405180910390fd5b81600460003373ffffffffffffffffffffffffffffffffffffffff1673ffffffffffffffffffffffffffffffffffffffff16815260200190815260200160002060008282546103ca9190610c50565b9250508190555081600460008573ffffffffffffffffffffffffffffffffffffffff1673ffffffffffffffffffffffffffffffffffffffff16815260200190815260200160002060008282546104209190610bfa565b92505081905550818373ffffffffffffffffffffffffffffffffffffffff163373ffffffffffffffffffffffffffffffffffffffff167fe156b1b6735c69d856fb922554b4fb7420f470e899a3dc4e8cff66f6bb8a8f7760405160405180910390a46001905092915050565b6000600560008473ffffffffffffffffffffffffffffffffffffffff1673ffffffffffffffffffffffffffffffffffffffff16815260200190815260200160002060008373ffffffffffffffffffffffffffffffffffffffff1673ffffffffffffffffffffffffffffffffffffffff16815260200190815260200160002054905092915050565b6000600460008373ffffffffffffffffffffffffffffffffffffffff1673ffffffffffffffffffffffffffffffffffffffff168152602001908152602001600020549050919050565b6000600260009054906101000a900463ffffffff1663ffffffff16905090565b60008073ffffffffffffffffffffffffffffffffffffffff163373ffffffffffffffffffffffffffffffffffffffff1614156105ed576040517f08c379a00000000000000000000000000000000000000000000000000000000081526004016105e490610ba3565b60405180910390fd5b600073ffffffffffffffffffffffffffffffffffffffff168373ffffffffffffffffffffffffffffffffffffffff16141561065d576040517f08c379a000000000000000000000000000000000000000000000000000000000815260040161065490610ba3565b60405180910390fd5b81600560003373ffffffffffffffffffffffffffffffffffffffff1673ffffffffffffffffffffffffffffffffffffffff16815260200190815260200160002060008573ffffffffffffffffffffffffffffffffffffffff1673ffffffffffffffffffffffffffffffffffffffff16815260200190815260200160002081905550818373ffffffffffffffffffffffffffffffffffffffff163373ffffffffffffffffffffffffffffffffffffffff167facfd752d48a417d90cfd4cb230c1bd38b8535ad2e8291bd8173e1ce6122c1e6e60405160405180910390a46001905092915050565b60606001805461075290610cff565b80601f016020809104026020016040519081016040528092919081815260200182805461077e90610cff565b80156107cb5780601f106107a0576101008083540402835291602001916107cb565b820191906000526020600020905b8154815290600101906020018083116107ae57829003601f168201915b5050505050905090565b600073ffffffffffffffffffffffffffffffffffffffff168373ffffffffffffffffffffffffffffffffffffffff161415610845576040517f08c379a000000000000000000000000000000000000000000000000000000000815260040161083c90610ba3565b60405180910390fd5b60008111610888576040517f08c379a000000000000000000000000000000000000000000000000000000000815260040161087f90610b83565b60405180910390fd5b600073ffffffffffffffffffffffffffffffffffffffff168273ffffffffffffffffffffffffffffffffffffffff1614156108f8576040517f08c379a00000000000000000000000000000000000000000000000000000000081526004016108ef90610ba3565b60405180910390fd5b80600460008573ffffffffffffffffffffffffffffffffffffffff1673ffffffffffffffffffffffffffffffffffffffff16815260200190815260200160002054101561097a576040517f08c379a000000000000000000000000000000000000000000000000000000000815260040161097190610b83565b60405180910390fd5b505050565b60008135905061098e81610df7565b92915050565b6000813590506109a381610e0e565b92915050565b6000602082840312156109bf576109be610d8f565b5b60006109cd8482850161097f565b91505092915050565b600080604083850312156109ed576109ec610d8f565b5b60006109fb8582860161097f565b9250506020610a0c8582860161097f565b9150509250929050565b600080600060608486031215610a2f57610a2e610d8f565b5b6000610a3d8682870161097f565b9350506020610a4e8682870161097f565b9250506040610a5f86828701610994565b9150509250925092565b60008060408385031215610a8057610a7f610d8f565b5b6000610a8e8582860161097f565b9250506020610a9f85828601610994565b9150509250929050565b610ab281610c96565b82525050565b6000610ac382610bde565b610acd8185610be9565b9350610add818560208601610ccc565b610ae681610d94565b840191505092915050565b6000610afe601083610be9565b9150610b0982610da5565b602082019050919050565b6000610b21600f83610be9565b9150610b2c82610dce565b602082019050919050565b610b4081610cc2565b82525050565b6000602082019050610b5b6000830184610aa9565b92915050565b60006020820190508181036000830152610b7b8184610ab8565b905092915050565b60006020820190508181036000830152610b9c81610af1565b9050919050565b60006020820190508181036000830152610bbc81610b14565b9050919050565b6000602082019050610bd86000830184610b37565b92915050565b600081519050919050565b600082825260208201905092915050565b6000610c0582610cc2565b9150610c1083610cc2565b9250827fffffffffffffffffffffffffffffffffffffffffffffffffffffffffffffffff03821115610c4557610c44610d31565b5b828201905092915050565b6000610c5b82610cc2565b9150610c6683610cc2565b925082821015610c7957610c78610d31565b5b828203905092915050565b6000610c8f82610ca2565b9050919050565b60008115159050919050565b600073ffffffffffffffffffffffffffffffffffffffff82169050919050565b6000819050919050565b60005b83811015610cea578082015181840152602081019050610ccf565b83811115610cf9576000848401525b50505050565b60006002820490506001821680610d1757607f821691505b60208210811415610d2b57610d2a610d60565b5b50919050565b7f4e487b7100000000000000000000000000000000000000000000000000000000600052601160045260246000fd5b7f4e487b7100000000000000000000000000000000000000000000000000000000600052602260045260246000fd5b600080fd5b6000601f19601f8301169050919050565b7f4e6f7420456e6f756768204d6f6e657900000000000000000000000000000000600082015250565b7f496e76616c696420416464726573730000000000000000000000000000000000600082015250565b610e0081610c84565b8114610e0b57600080fd5b50565b610e1781610cc2565b8114610e2257600080fd5b5056fea264697066735822122093a400c90af9c45d0baada5f8ad787b45ec29440bdebd8d1f23f238ce78b11ea64736f6c63430008070033",
					"opcodes": "PUSH1 0x80 PUSH1 0x40 MSTORE CALLVALUE DUP1 ISZERO PUSH3 0x11 JUMPI PUSH1 0x0 DUP1 REVERT JUMPDEST POP PUSH1 0x40 MLOAD DUP1 PUSH1 0x40 ADD PUSH1 0x40 MSTORE DUP1 PUSH1 0xE DUP2 MSTORE PUSH1 0x20 ADD PUSH32 0x4D7920666972737420746F6B656E000000000000000000000000000000000000 DUP2 MSTORE POP PUSH1 0x0 SWAP1 DUP1 MLOAD SWAP1 PUSH1 0x20 ADD SWAP1 PUSH3 0x5F SWAP3 SWAP2 SWAP1 PUSH3 0x126 JUMP JUMPDEST POP PUSH1 0x40 MLOAD DUP1 PUSH1 0x40 ADD PUSH1 0x40 MSTORE DUP1 PUSH1 0x3 DUP2 MSTORE PUSH1 0x20 ADD PUSH32 0x4D46540000000000000000000000000000000000000000000000000000000000 DUP2 MSTORE POP PUSH1 0x1 SWAP1 DUP1 MLOAD SWAP1 PUSH1 0x20 ADD SWAP1 PUSH3 0xAD SWAP3 SWAP2 SWAP1 PUSH3 0x126 JUMP JUMPDEST POP PUSH1 0x0 PUSH1 0x2 PUSH1 0x0 PUSH2 0x100 EXP DUP2 SLOAD DUP2 PUSH4 0xFFFFFFFF MUL NOT AND SWAP1 DUP4 PUSH4 0xFFFFFFFF AND MUL OR SWAP1 SSTORE POP PUSH3 0xF4240 PUSH1 0x3 DUP2 SWAP1 SSTORE POP PUSH1 0x3 SLOAD PUSH1 0x4 PUSH1 0x0 CALLER PUSH20 0xFFFFFFFFFFFFFFFFFFFFFFFFFFFFFFFFFFFFFFFF AND PUSH20 0xFFFFFFFFFFFFFFFFFFFFFFFFFFFFFFFFFFFFFFFF AND DUP2 MSTORE PUSH1 0x20 ADD SWAP1 DUP2 MSTORE PUSH1 0x20 ADD PUSH1 0x0 KECCAK256 DUP2 SWAP1 SSTORE POP PUSH3 0x23B JUMP JUMPDEST DUP3 DUP1 SLOAD PUSH3 0x134 SWAP1 PUSH3 0x1D6 JUMP JUMPDEST SWAP1 PUSH1 0x0 MSTORE PUSH1 0x20 PUSH1 0x0 KECCAK256 SWAP1 PUSH1 0x1F ADD PUSH1 0x20 SWAP1 DIV DUP2 ADD SWAP3 DUP3 PUSH3 0x158 JUMPI PUSH1 0x0 DUP6 SSTORE PUSH3 0x1A4 JUMP JUMPDEST DUP3 PUSH1 0x1F LT PUSH3 0x173 JUMPI DUP1 MLOAD PUSH1 0xFF NOT AND DUP4 DUP1 ADD OR DUP6 SSTORE PUSH3 0x1A4 JUMP JUMPDEST DUP3 DUP1 ADD PUSH1 0x1 ADD DUP6 SSTORE DUP3 ISZERO PUSH3 0x1A4 JUMPI SWAP2 DUP3 ADD JUMPDEST DUP3 DUP2 GT ISZERO PUSH3 0x1A3 JUMPI DUP3 MLOAD DUP3 SSTORE SWAP2 PUSH1 0x20 ADD SWAP2 SWAP1 PUSH1 0x1 ADD SWAP1 PUSH3 0x186 JUMP JUMPDEST JUMPDEST POP SWAP1 POP PUSH3 0x1B3 SWAP2 SWAP1 PUSH3 0x1B7 JUMP JUMPDEST POP SWAP1 JUMP JUMPDEST JUMPDEST DUP1 DUP3 GT ISZERO PUSH3 0x1D2 JUMPI PUSH1 0x0 DUP2 PUSH1 0x0 SWAP1 SSTORE POP PUSH1 0x1 ADD PUSH3 0x1B8 JUMP JUMPDEST POP SWAP1 JUMP JUMPDEST PUSH1 0x0 PUSH1 0x2 DUP3 DIV SWAP1 POP PUSH1 0x1 DUP3 AND DUP1 PUSH3 0x1EF JUMPI PUSH1 0x7F DUP3 AND SWAP2 POP JUMPDEST PUSH1 0x20 DUP3 LT DUP2 EQ ISZERO PUSH3 0x206 JUMPI PUSH3 0x205 PUSH3 0x20C JUMP JUMPDEST JUMPDEST POP SWAP2 SWAP1 POP JUMP JUMPDEST PUSH32 0x4E487B7100000000000000000000000000000000000000000000000000000000 PUSH1 0x0 MSTORE PUSH1 0x22 PUSH1 0x4 MSTORE PUSH1 0x24 PUSH1 0x0 REVERT JUMPDEST PUSH2 0xE5B DUP1 PUSH3 0x24B PUSH1 0x0 CODECOPY PUSH1 0x0 RETURN INVALID PUSH1 0x80 PUSH1 0x40 MSTORE CALLVALUE DUP1 ISZERO PUSH2 0x10 JUMPI PUSH1 0x0 DUP1 REVERT JUMPDEST POP PUSH1 0x4 CALLDATASIZE LT PUSH2 0x93 JUMPI PUSH1 0x0 CALLDATALOAD PUSH1 0xE0 SHR DUP1 PUSH4 0x70A08231 GT PUSH2 0x66 JUMPI DUP1 PUSH4 0x70A08231 EQ PUSH2 0x134 JUMPI DUP1 PUSH4 0x76809CE3 EQ PUSH2 0x164 JUMPI DUP1 PUSH4 0x90EC57F1 EQ PUSH2 0x182 JUMPI DUP1 PUSH4 0x95D89B41 EQ PUSH2 0x1B2 JUMPI DUP1 PUSH4 0xC0D84CE5 EQ PUSH2 0x1D0 JUMPI PUSH2 0x93 JUMP JUMPDEST DUP1 PUSH4 0x6FDDE03 EQ PUSH2 0x98 JUMPI DUP1 PUSH4 0x18160DDD EQ PUSH2 0xB6 JUMPI DUP1 PUSH4 0x69CA02DD EQ PUSH2 0xD4 JUMPI DUP1 PUSH4 0x6DCDD00F EQ PUSH2 0x104 JUMPI JUMPDEST PUSH1 0x0 DUP1 REVERT JUMPDEST PUSH2 0xA0 PUSH2 0x1EC JUMP JUMPDEST PUSH1 0x40 MLOAD PUSH2 0xAD SWAP2 SWAP1 PUSH2 0xB61 JUMP JUMPDEST PUSH1 0x40 MLOAD DUP1 SWAP2 SUB SWAP1 RETURN JUMPDEST PUSH2 0xBE PUSH2 0x27E JUMP JUMPDEST PUSH1 0x40 MLOAD PUSH2 0xCB SWAP2 SWAP1 PUSH2 0xBC3 JUMP JUMPDEST PUSH1 0x40 MLOAD DUP1 SWAP2 SUB SWAP1 RETURN JUMPDEST PUSH2 0xEE PUSH1 0x4 DUP1 CALLDATASIZE SUB DUP2 ADD SWAP1 PUSH2 0xE9 SWAP2 SWAP1 PUSH2 0xA69 JUMP JUMPDEST PUSH2 0x288 JUMP JUMPDEST PUSH1 0x40 MLOAD PUSH2 0xFB SWAP2 SWAP1 PUSH2 0xB46 JUMP JUMPDEST PUSH1 0x40 MLOAD DUP1 SWAP2 SUB SWAP1 RETURN JUMPDEST PUSH2 0x11E PUSH1 0x4 DUP1 CALLDATASIZE SUB DUP2 ADD SWAP1 PUSH2 0x119 SWAP2 SWAP1 PUSH2 0x9D6 JUMP JUMPDEST PUSH2 0x48C JUMP JUMPDEST PUSH1 0x40 MLOAD PUSH2 0x12B SWAP2 SWAP1 PUSH2 0xBC3 JUMP JUMPDEST PUSH1 0x40 MLOAD DUP1 SWAP2 SUB SWAP1 RETURN JUMPDEST PUSH2 0x14E PUSH1 0x4 DUP1 CALLDATASIZE SUB DUP2 ADD SWAP1 PUSH2 0x149 SWAP2 SWAP1 PUSH2 0x9A9 JUMP JUMPDEST PUSH2 0x513 JUMP JUMPDEST PUSH1 0x40 MLOAD PUSH2 0x15B SWAP2 SWAP1 PUSH2 0xBC3 JUMP JUMPDEST PUSH1 0x40 MLOAD DUP1 SWAP2 SUB SWAP1 RETURN JUMPDEST PUSH2 0x16C PUSH2 0x55C JUMP JUMPDEST PUSH1 0x40 MLOAD PUSH2 0x179 SWAP2 SWAP1 PUSH2 0xBC3 JUMP JUMPDEST PUSH1 0x40 MLOAD DUP1 SWAP2 SUB SWAP1 RETURN JUMPDEST PUSH2 0x19C PUSH1 0x4 DUP1 CALLDATASIZE SUB DUP2 ADD SWAP1 PUSH2 0x197 SWAP2 SWAP1 PUSH2 0xA69 JUMP JUMPDEST PUSH2 0x57C JUMP JUMPDEST PUSH1 0x40 MLOAD PUSH2 0x1A9 SWAP2 SWAP1 PUSH2 0xB46 JUMP JUMPDEST PUSH1 0x40 MLOAD DUP1 SWAP2 SUB SWAP1 RETURN JUMPDEST PUSH2 0x1BA PUSH2 0x743 JUMP JUMPDEST PUSH1 0x40 MLOAD PUSH2 0x1C7 SWAP2 SWAP1 PUSH2 0xB61 JUMP JUMPDEST PUSH1 0x40 MLOAD DUP1 SWAP2 SUB SWAP1 RETURN JUMPDEST PUSH2 0x1EA PUSH1 0x4 DUP1 CALLDATASIZE SUB DUP2 ADD SWAP1 PUSH2 0x1E5 SWAP2 SWAP1 PUSH2 0xA16 JUMP JUMPDEST PUSH2 0x7D5 JUMP JUMPDEST STOP JUMPDEST PUSH1 0x60 PUSH1 0x0 DUP1 SLOAD PUSH2 0x1FB SWAP1 PUSH2 0xCFF JUMP JUMPDEST DUP1 PUSH1 0x1F ADD PUSH1 0x20 DUP1 SWAP2 DIV MUL PUSH1 0x20 ADD PUSH1 0x40 MLOAD SWAP1 DUP2 ADD PUSH1 0x40 MSTORE DUP1 SWAP3 SWAP2 SWAP1 DUP2 DUP2 MSTORE PUSH1 0x20 ADD DUP3 DUP1 SLOAD PUSH2 0x227 SWAP1 PUSH2 0xCFF JUMP JUMPDEST DUP1 ISZERO PUSH2 0x274 JUMPI DUP1 PUSH1 0x1F LT PUSH2 0x249 JUMPI PUSH2 0x100 DUP1 DUP4 SLOAD DIV MUL DUP4 MSTORE SWAP2 PUSH1 0x20 ADD SWAP2 PUSH2 0x274 JUMP JUMPDEST DUP3 ADD SWAP2 SWAP1 PUSH1 0x0 MSTORE PUSH1 0x20 PUSH1 0x0 KECCAK256 SWAP1 JUMPDEST DUP2 SLOAD DUP2 MSTORE SWAP1 PUSH1 0x1 ADD SWAP1 PUSH1 0x20 ADD DUP1 DUP4 GT PUSH2 0x257 JUMPI DUP3 SWAP1 SUB PUSH1 0x1F AND DUP3 ADD SWAP2 JUMPDEST POP POP POP POP POP SWAP1 POP SWAP1 JUMP JUMPDEST PUSH1 0x0 PUSH1 0x3 SLOAD SWAP1 POP SWAP1 JUMP JUMPDEST PUSH1 0x0 DUP1 PUSH20 0xFFFFFFFFFFFFFFFFFFFFFFFFFFFFFFFFFFFFFFFF AND DUP4 PUSH20 0xFFFFFFFFFFFFFFFFFFFFFFFFFFFFFFFFFFFFFFFF AND EQ ISZERO PUSH2 0x2F9 JUMPI PUSH1 0x40 MLOAD PUSH32 0x8C379A000000000000000000000000000000000000000000000000000000000 DUP2 MSTORE PUSH1 0x4 ADD PUSH2 0x2F0 SWAP1 PUSH2 0xBA3 JUMP JUMPDEST PUSH1 0x40 MLOAD DUP1 SWAP2 SUB SWAP1 REVERT JUMPDEST DUP2 PUSH1 0x4 PUSH1 0x0 CALLER PUSH20 0xFFFFFFFFFFFFFFFFFFFFFFFFFFFFFFFFFFFFFFFF AND PUSH20 0xFFFFFFFFFFFFFFFFFFFFFFFFFFFFFFFFFFFFFFFF AND DUP2 MSTORE PUSH1 0x20 ADD SWAP1 DUP2 MSTORE PUSH1 0x20 ADD PUSH1 0x0 KECCAK256 SLOAD LT ISZERO PUSH2 0x37B JUMPI PUSH1 0x40 MLOAD PUSH32 0x8C379A000000000000000000000000000000000000000000000000000000000 DUP2 MSTORE PUSH1 0x4 ADD PUSH2 0x372 SWAP1 PUSH2 0xB83 JUMP JUMPDEST PUSH1 0x40 MLOAD DUP1 SWAP2 SUB SWAP1 REVERT JUMPDEST DUP2 PUSH1 0x4 PUSH1 0x0 CALLER PUSH20 0xFFFFFFFFFFFFFFFFFFFFFFFFFFFFFFFFFFFFFFFF AND PUSH20 0xFFFFFFFFFFFFFFFFFFFFFFFFFFFFFFFFFFFFFFFF AND DUP2 MSTORE PUSH1 0x20 ADD SWAP1 DUP2 MSTORE PUSH1 0x20 ADD PUSH1 0x0 KECCAK256 PUSH1 0x0 DUP3 DUP3 SLOAD PUSH2 0x3CA SWAP2 SWAP1 PUSH2 0xC50 JUMP JUMPDEST SWAP3 POP POP DUP2 SWAP1 SSTORE POP DUP2 PUSH1 0x4 PUSH1 0x0 DUP6 PUSH20 0xFFFFFFFFFFFFFFFFFFFFFFFFFFFFFFFFFFFFFFFF AND PUSH20 0xFFFFFFFFFFFFFFFFFFFFFFFFFFFFFFFFFFFFFFFF AND DUP2 MSTORE PUSH1 0x20 ADD SWAP1 DUP2 MSTORE PUSH1 0x20 ADD PUSH1 0x0 KECCAK256 PUSH1 0x0 DUP3 DUP3 SLOAD PUSH2 0x420 SWAP2 SWAP1 PUSH2 0xBFA JUMP JUMPDEST SWAP3 POP POP DUP2 SWAP1 SSTORE POP DUP2 DUP4 PUSH20 0xFFFFFFFFFFFFFFFFFFFFFFFFFFFFFFFFFFFFFFFF AND CALLER PUSH20 0xFFFFFFFFFFFFFFFFFFFFFFFFFFFFFFFFFFFFFFFF AND PUSH32 0xE156B1B6735C69D856FB922554B4FB7420F470E899A3DC4E8CFF66F6BB8A8F77 PUSH1 0x40 MLOAD PUSH1 0x40 MLOAD DUP1 SWAP2 SUB SWAP1 LOG4 PUSH1 0x1 SWAP1 POP SWAP3 SWAP2 POP POP JUMP JUMPDEST PUSH1 0x0 PUSH1 0x5 PUSH1 0x0 DUP5 PUSH20 0xFFFFFFFFFFFFFFFFFFFFFFFFFFFFFFFFFFFFFFFF AND PUSH20 0xFFFFFFFFFFFFFFFFFFFFFFFFFFFFFFFFFFFFFFFF AND DUP2 MSTORE PUSH1 0x20 ADD SWAP1 DUP2 MSTORE PUSH1 0x20 ADD PUSH1 0x0 KECCAK256 PUSH1 0x0 DUP4 PUSH20 0xFFFFFFFFFFFFFFFFFFFFFFFFFFFFFFFFFFFFFFFF AND PUSH20 0xFFFFFFFFFFFFFFFFFFFFFFFFFFFFFFFFFFFFFFFF AND DUP2 MSTORE PUSH1 0x20 ADD SWAP1 DUP2 MSTORE PUSH1 0x20 ADD PUSH1 0x0 KECCAK256 SLOAD SWAP1 POP SWAP3 SWAP2 POP POP JUMP JUMPDEST PUSH1 0x0 PUSH1 0x4 PUSH1 0x0 DUP4 PUSH20 0xFFFFFFFFFFFFFFFFFFFFFFFFFFFFFFFFFFFFFFFF AND PUSH20 0xFFFFFFFFFFFFFFFFFFFFFFFFFFFFFFFFFFFFFFFF AND DUP2 MSTORE PUSH1 0x20 ADD SWAP1 DUP2 MSTORE PUSH1 0x20 ADD PUSH1 0x0 KECCAK256 SLOAD SWAP1 POP SWAP2 SWAP1 POP JUMP JUMPDEST PUSH1 0x0 PUSH1 0x2 PUSH1 0x0 SWAP1 SLOAD SWAP1 PUSH2 0x100 EXP SWAP1 DIV PUSH4 0xFFFFFFFF AND PUSH4 0xFFFFFFFF AND SWAP1 POP SWAP1 JUMP JUMPDEST PUSH1 0x0 DUP1 PUSH20 0xFFFFFFFFFFFFFFFFFFFFFFFFFFFFFFFFFFFFFFFF AND CALLER PUSH20 0xFFFFFFFFFFFFFFFFFFFFFFFFFFFFFFFFFFFFFFFF AND EQ ISZERO PUSH2 0x5ED JUMPI PUSH1 0x40 MLOAD PUSH32 0x8C379A000000000000000000000000000000000000000000000000000000000 DUP2 MSTORE PUSH1 0x4 ADD PUSH2 0x5E4 SWAP1 PUSH2 0xBA3 JUMP JUMPDEST PUSH1 0x40 MLOAD DUP1 SWAP2 SUB SWAP1 REVERT JUMPDEST PUSH1 0x0 PUSH20 0xFFFFFFFFFFFFFFFFFFFFFFFFFFFFFFFFFFFFFFFF AND DUP4 PUSH20 0xFFFFFFFFFFFFFFFFFFFFFFFFFFFFFFFFFFFFFFFF AND EQ ISZERO PUSH2 0x65D JUMPI PUSH1 0x40 MLOAD PUSH32 0x8C379A000000000000000000000000000000000000000000000000000000000 DUP2 MSTORE PUSH1 0x4 ADD PUSH2 0x654 SWAP1 PUSH2 0xBA3 JUMP JUMPDEST PUSH1 0x40 MLOAD DUP1 SWAP2 SUB SWAP1 REVERT JUMPDEST DUP2 PUSH1 0x5 PUSH1 0x0 CALLER PUSH20 0xFFFFFFFFFFFFFFFFFFFFFFFFFFFFFFFFFFFFFFFF AND PUSH20 0xFFFFFFFFFFFFFFFFFFFFFFFFFFFFFFFFFFFFFFFF AND DUP2 MSTORE PUSH1 0x20 ADD SWAP1 DUP2 MSTORE PUSH1 0x20 ADD PUSH1 0x0 KECCAK256 PUSH1 0x0 DUP6 PUSH20 0xFFFFFFFFFFFFFFFFFFFFFFFFFFFFFFFFFFFFFFFF AND PUSH20 0xFFFFFFFFFFFFFFFFFFFFFFFFFFFFFFFFFFFFFFFF AND DUP2 MSTORE PUSH1 0x20 ADD SWAP1 DUP2 MSTORE PUSH1 0x20 ADD PUSH1 0x0 KECCAK256 DUP2 SWAP1 SSTORE POP DUP2 DUP4 PUSH20 0xFFFFFFFFFFFFFFFFFFFFFFFFFFFFFFFFFFFFFFFF AND CALLER PUSH20 0xFFFFFFFFFFFFFFFFFFFFFFFFFFFFFFFFFFFFFFFF AND PUSH32 0xACFD752D48A417D90CFD4CB230C1BD38B8535AD2E8291BD8173E1CE6122C1E6E PUSH1 0x40 MLOAD PUSH1 0x40 MLOAD DUP1 SWAP2 SUB SWAP1 LOG4 PUSH1 0x1 SWAP1 POP SWAP3 SWAP2 POP POP JUMP JUMPDEST PUSH1 0x60 PUSH1 0x1 DUP1 SLOAD PUSH2 0x752 SWAP1 PUSH2 0xCFF JUMP JUMPDEST DUP1 PUSH1 0x1F ADD PUSH1 0x20 DUP1 SWAP2 DIV MUL PUSH1 0x20 ADD PUSH1 0x40 MLOAD SWAP1 DUP2 ADD PUSH1 0x40 MSTORE DUP1 SWAP3 SWAP2 SWAP1 DUP2 DUP2 MSTORE PUSH1 0x20 ADD DUP3 DUP1 SLOAD PUSH2 0x77E SWAP1 PUSH2 0xCFF JUMP JUMPDEST DUP1 ISZERO PUSH2 0x7CB JUMPI DUP1 PUSH1 0x1F LT PUSH2 0x7A0 JUMPI PUSH2 0x100 DUP1 DUP4 SLOAD DIV MUL DUP4 MSTORE SWAP2 PUSH1 0x20 ADD SWAP2 PUSH2 0x7CB JUMP JUMPDEST DUP3 ADD SWAP2 SWAP1 PUSH1 0x0 MSTORE PUSH1 0x20 PUSH1 0x0 KECCAK256 SWAP1 JUMPDEST DUP2 SLOAD DUP2 MSTORE SWAP1 PUSH1 0x1 ADD SWAP1 PUSH1 0x20 ADD DUP1 DUP4 GT PUSH2 0x7AE JUMPI DUP3 SWAP1 SUB PUSH1 0x1F AND DUP3 ADD SWAP2 JUMPDEST POP POP POP POP POP SWAP1 POP SWAP1 JUMP JUMPDEST PUSH1 0x0 PUSH20 0xFFFFFFFFFFFFFFFFFFFFFFFFFFFFFFFFFFFFFFFF AND DUP4 PUSH20 0xFFFFFFFFFFFFFFFFFFFFFFFFFFFFFFFFFFFFFFFF AND EQ ISZERO PUSH2 0x845 JUMPI PUSH1 0x40 MLOAD PUSH32 0x8C379A000000000000000000000000000000000000000000000000000000000 DUP2 MSTORE PUSH1 0x4 ADD PUSH2 0x83C SWAP1 PUSH2 0xBA3 JUMP JUMPDEST PUSH1 0x40 MLOAD DUP1 SWAP2 SUB SWAP1 REVERT JUMPDEST PUSH1 0x0 DUP2 GT PUSH2 0x888 JUMPI PUSH1 0x40 MLOAD PUSH32 0x8C379A000000000000000000000000000000000000000000000000000000000 DUP2 MSTORE PUSH1 0x4 ADD PUSH2 0x87F SWAP1 PUSH2 0xB83 JUMP JUMPDEST PUSH1 0x40 MLOAD DUP1 SWAP2 SUB SWAP1 REVERT JUMPDEST PUSH1 0x0 PUSH20 0xFFFFFFFFFFFFFFFFFFFFFFFFFFFFFFFFFFFFFFFF AND DUP3 PUSH20 0xFFFFFFFFFFFFFFFFFFFFFFFFFFFFFFFFFFFFFFFF AND EQ ISZERO PUSH2 0x8F8 JUMPI PUSH1 0x40 MLOAD PUSH32 0x8C379A000000000000000000000000000000000000000000000000000000000 DUP2 MSTORE PUSH1 0x4 ADD PUSH2 0x8EF SWAP1 PUSH2 0xBA3 JUMP JUMPDEST PUSH1 0x40 MLOAD DUP1 SWAP2 SUB SWAP1 REVERT JUMPDEST DUP1 PUSH1 0x4 PUSH1 0x0 DUP6 PUSH20 0xFFFFFFFFFFFFFFFFFFFFFFFFFFFFFFFFFFFFFFFF AND PUSH20 0xFFFFFFFFFFFFFFFFFFFFFFFFFFFFFFFFFFFFFFFF AND DUP2 MSTORE PUSH1 0x20 ADD SWAP1 DUP2 MSTORE PUSH1 0x20 ADD PUSH1 0x0 KECCAK256 SLOAD LT ISZERO PUSH2 0x97A JUMPI PUSH1 0x40 MLOAD PUSH32 0x8C379A000000000000000000000000000000000000000000000000000000000 DUP2 MSTORE PUSH1 0x4 ADD PUSH2 0x971 SWAP1 PUSH2 0xB83 JUMP JUMPDEST PUSH1 0x40 MLOAD DUP1 SWAP2 SUB SWAP1 REVERT JUMPDEST POP POP POP JUMP JUMPDEST PUSH1 0x0 DUP2 CALLDATALOAD SWAP1 POP PUSH2 0x98E DUP2 PUSH2 0xDF7 JUMP JUMPDEST SWAP3 SWAP2 POP POP JUMP JUMPDEST PUSH1 0x0 DUP2 CALLDATALOAD SWAP1 POP PUSH2 0x9A3 DUP2 PUSH2 0xE0E JUMP JUMPDEST SWAP3 SWAP2 POP POP JUMP JUMPDEST PUSH1 0x0 PUSH1 0x20 DUP3 DUP5 SUB SLT ISZERO PUSH2 0x9BF JUMPI PUSH2 0x9BE PUSH2 0xD8F JUMP JUMPDEST JUMPDEST PUSH1 0x0 PUSH2 0x9CD DUP5 DUP3 DUP6 ADD PUSH2 0x97F JUMP JUMPDEST SWAP2 POP POP SWAP3 SWAP2 POP POP JUMP JUMPDEST PUSH1 0x0 DUP1 PUSH1 0x40 DUP4 DUP6 SUB SLT ISZERO PUSH2 0x9ED JUMPI PUSH2 0x9EC PUSH2 0xD8F JUMP JUMPDEST JUMPDEST PUSH1 0x0 PUSH2 0x9FB DUP6 DUP3 DUP7 ADD PUSH2 0x97F JUMP JUMPDEST SWAP3 POP POP PUSH1 0x20 PUSH2 0xA0C DUP6 DUP3 DUP7 ADD PUSH2 0x97F JUMP JUMPDEST SWAP2 POP POP SWAP3 POP SWAP3 SWAP1 POP JUMP JUMPDEST PUSH1 0x0 DUP1 PUSH1 0x0 PUSH1 0x60 DUP5 DUP7 SUB SLT ISZERO PUSH2 0xA2F JUMPI PUSH2 0xA2E PUSH2 0xD8F JUMP JUMPDEST JUMPDEST PUSH1 0x0 PUSH2 0xA3D DUP7 DUP3 DUP8 ADD PUSH2 0x97F JUMP JUMPDEST SWAP4 POP POP PUSH1 0x20 PUSH2 0xA4E DUP7 DUP3 DUP8 ADD PUSH2 0x97F JUMP JUMPDEST SWAP3 POP POP PUSH1 0x40 PUSH2 0xA5F DUP7 DUP3 DUP8 ADD PUSH2 0x994 JUMP JUMPDEST SWAP2 POP POP SWAP3 POP SWAP3 POP SWAP3 JUMP JUMPDEST PUSH1 0x0 DUP1 PUSH1 0x40 DUP4 DUP6 SUB SLT ISZERO PUSH2 0xA80 JUMPI PUSH2 0xA7F PUSH2 0xD8F JUMP JUMPDEST JUMPDEST PUSH1 0x0 PUSH2 0xA8E DUP6 DUP3 DUP7 ADD PUSH2 0x97F JUMP JUMPDEST SWAP3 POP POP PUSH1 0x20 PUSH2 0xA9F DUP6 DUP3 DUP7 ADD PUSH2 0x994 JUMP JUMPDEST SWAP2 POP POP SWAP3 POP SWAP3 SWAP1 POP JUMP JUMPDEST PUSH2 0xAB2 DUP2 PUSH2 0xC96 JUMP JUMPDEST DUP3 MSTORE POP POP JUMP JUMPDEST PUSH1 0x0 PUSH2 0xAC3 DUP3 PUSH2 0xBDE JUMP JUMPDEST PUSH2 0xACD DUP2 DUP6 PUSH2 0xBE9 JUMP JUMPDEST SWAP4 POP PUSH2 0xADD DUP2 DUP6 PUSH1 0x20 DUP7 ADD PUSH2 0xCCC JUMP JUMPDEST PUSH2 0xAE6 DUP2 PUSH2 0xD94 JUMP JUMPDEST DUP5 ADD SWAP2 POP POP SWAP3 SWAP2 POP POP JUMP JUMPDEST PUSH1 0x0 PUSH2 0xAFE PUSH1 0x10 DUP4 PUSH2 0xBE9 JUMP JUMPDEST SWAP2 POP PUSH2 0xB09 DUP3 PUSH2 0xDA5 JUMP JUMPDEST PUSH1 0x20 DUP3 ADD SWAP1 POP SWAP2 SWAP1 POP JUMP JUMPDEST PUSH1 0x0 PUSH2 0xB21 PUSH1 0xF DUP4 PUSH2 0xBE9 JUMP JUMPDEST SWAP2 POP PUSH2 0xB2C DUP3 PUSH2 0xDCE JUMP JUMPDEST PUSH1 0x20 DUP3 ADD SWAP1 POP SWAP2 SWAP1 POP JUMP JUMPDEST PUSH2 0xB40 DUP2 PUSH2 0xCC2 JUMP JUMPDEST DUP3 MSTORE POP POP JUMP JUMPDEST PUSH1 0x0 PUSH1 0x20 DUP3 ADD SWAP1 POP PUSH2 0xB5B PUSH1 0x0 DUP4 ADD DUP5 PUSH2 0xAA9 JUMP JUMPDEST SWAP3 SWAP2 POP POP JUMP JUMPDEST PUSH1 0x0 PUSH1 0x20 DUP3 ADD SWAP1 POP DUP2 DUP2 SUB PUSH1 0x0 DUP4 ADD MSTORE PUSH2 0xB7B DUP2 DUP5 PUSH2 0xAB8 JUMP JUMPDEST SWAP1 POP SWAP3 SWAP2 POP POP JUMP JUMPDEST PUSH1 0x0 PUSH1 0x20 DUP3 ADD SWAP1 POP DUP2 DUP2 SUB PUSH1 0x0 DUP4 ADD MSTORE PUSH2 0xB9C DUP2 PUSH2 0xAF1 JUMP JUMPDEST SWAP1 POP SWAP2 SWAP1 POP JUMP JUMPDEST PUSH1 0x0 PUSH1 0x20 DUP3 ADD SWAP1 POP DUP2 DUP2 SUB PUSH1 0x0 DUP4 ADD MSTORE PUSH2 0xBBC DUP2 PUSH2 0xB14 JUMP JUMPDEST SWAP1 POP SWAP2 SWAP1 POP JUMP JUMPDEST PUSH1 0x0 PUSH1 0x20 DUP3 ADD SWAP1 POP PUSH2 0xBD8 PUSH1 0x0 DUP4 ADD DUP5 PUSH2 0xB37 JUMP JUMPDEST SWAP3 SWAP2 POP POP JUMP JUMPDEST PUSH1 0x0 DUP2 MLOAD SWAP1 POP SWAP2 SWAP1 POP JUMP JUMPDEST PUSH1 0x0 DUP3 DUP3 MSTORE PUSH1 0x20 DUP3 ADD SWAP1 POP SWAP3 SWAP2 POP POP JUMP JUMPDEST PUSH1 0x0 PUSH2 0xC05 DUP3 PUSH2 0xCC2 JUMP JUMPDEST SWAP2 POP PUSH2 0xC10 DUP4 PUSH2 0xCC2 JUMP JUMPDEST SWAP3 POP DUP3 PUSH32 0xFFFFFFFFFFFFFFFFFFFFFFFFFFFFFFFFFFFFFFFFFFFFFFFFFFFFFFFFFFFFFFFF SUB DUP3 GT ISZERO PUSH2 0xC45 JUMPI PUSH2 0xC44 PUSH2 0xD31 JUMP JUMPDEST JUMPDEST DUP3 DUP3 ADD SWAP1 POP SWAP3 SWAP2 POP POP JUMP JUMPDEST PUSH1 0x0 PUSH2 0xC5B DUP3 PUSH2 0xCC2 JUMP JUMPDEST SWAP2 POP PUSH2 0xC66 DUP4 PUSH2 0xCC2 JUMP JUMPDEST SWAP3 POP DUP3 DUP3 LT ISZERO PUSH2 0xC79 JUMPI PUSH2 0xC78 PUSH2 0xD31 JUMP JUMPDEST JUMPDEST DUP3 DUP3 SUB SWAP1 POP SWAP3 SWAP2 POP POP JUMP JUMPDEST PUSH1 0x0 PUSH2 0xC8F DUP3 PUSH2 0xCA2 JUMP JUMPDEST SWAP1 POP SWAP2 SWAP1 POP JUMP JUMPDEST PUSH1 0x0 DUP2 ISZERO ISZERO SWAP1 POP SWAP2 SWAP1 POP JUMP JUMPDEST PUSH1 0x0 PUSH20 0xFFFFFFFFFFFFFFFFFFFFFFFFFFFFFFFFFFFFFFFF DUP3 AND SWAP1 POP SWAP2 SWAP1 POP JUMP JUMPDEST PUSH1 0x0 DUP2 SWAP1 POP SWAP2 SWAP1 POP JUMP JUMPDEST PUSH1 0x0 JUMPDEST DUP4 DUP2 LT ISZERO PUSH2 0xCEA JUMPI DUP1 DUP3 ADD MLOAD DUP2 DUP5 ADD MSTORE PUSH1 0x20 DUP2 ADD SWAP1 POP PUSH2 0xCCF JUMP JUMPDEST DUP4 DUP2 GT ISZERO PUSH2 0xCF9 JUMPI PUSH1 0x0 DUP5 DUP5 ADD MSTORE JUMPDEST POP POP POP POP JUMP JUMPDEST PUSH1 0x0 PUSH1 0x2 DUP3 DIV SWAP1 POP PUSH1 0x1 DUP3 AND DUP1 PUSH2 0xD17 JUMPI PUSH1 0x7F DUP3 AND SWAP2 POP JUMPDEST PUSH1 0x20 DUP3 LT DUP2 EQ ISZERO PUSH2 0xD2B JUMPI PUSH2 0xD2A PUSH2 0xD60 JUMP JUMPDEST JUMPDEST POP SWAP2 SWAP1 POP JUMP JUMPDEST PUSH32 0x4E487B7100000000000000000000000000000000000000000000000000000000 PUSH1 0x0 MSTORE PUSH1 0x11 PUSH1 0x4 MSTORE PUSH1 0x24 PUSH1 0x0 REVERT JUMPDEST PUSH32 0x4E487B7100000000000000000000000000000000000000000000000000000000 PUSH1 0x0 MSTORE PUSH1 0x22 PUSH1 0x4 MSTORE PUSH1 0x24 PUSH1 0x0 REVERT JUMPDEST PUSH1 0x0 DUP1 REVERT JUMPDEST PUSH1 0x0 PUSH1 0x1F NOT PUSH1 0x1F DUP4 ADD AND SWAP1 POP SWAP2 SWAP1 POP JUMP JUMPDEST PUSH32 0x4E6F7420456E6F756768204D6F6E657900000000000000000000000000000000 PUSH1 0x0 DUP3 ADD MSTORE POP JUMP JUMPDEST PUSH32 0x496E76616C696420416464726573730000000000000000000000000000000000 PUSH1 0x0 DUP3 ADD MSTORE POP JUMP JUMPDEST PUSH2 0xE00 DUP2 PUSH2 0xC84 JUMP JUMPDEST DUP2 EQ PUSH2 0xE0B JUMPI PUSH1 0x0 DUP1 REVERT JUMPDEST POP JUMP JUMPDEST PUSH2 0xE17 DUP2 PUSH2 0xCC2 JUMP JUMPDEST DUP2 EQ PUSH2 0xE22 JUMPI PUSH1 0x0 DUP1 REVERT JUMPDEST POP JUMP INVALID LOG2 PUSH5 0x6970667358 0x22 SLT KECCAK256 SWAP4 LOG4 STOP 0xC9 EXP 0xF9 0xC4 0x5D SIGNEXTEND 0xAA 0xDA 0x5F DUP11 0xD7 DUP8 0xB4 0x5E 0xC2 SWAP5 BLOCKHASH 0xBD 0xEB 0xD8 0xD1 CALLCODE EXTCODEHASH 0x23 DUP13 0xE7 DUP12 GT 0xEA PUSH5 0x736F6C6343 STOP ADDMOD SMOD STOP CALLER "
				},
				"gasEstimates": {
					"creation": {
						"codeDepositCost": "735000",
						"executionCost": "infinite",
						"totalCost": "infinite"
					},
					"external": {
						"Allowance(address,address)": "infinite",
						"Approve(address,uint256)": "25164",
						"Transfer(address,uint256)": "infinite",
						"TransferFrom(address,address,uint256)": "infinite",
						"balanceOf(address)": "2841",
						"decimal()": "2501",
						"name()": "infinite",
						"symbol()": "infinite",
						"totalSupply()": "2460"
					}
				},
				"methodIdentifiers": {
					"Allowance(address,address)": "6dcdd00f",
					"Approve(address,uint256)": "90ec57f1",
					"Transfer(address,uint256)": "69ca02dd",
					"TransferFrom(address,address,uint256)": "c0d84ce5",
					"balanceOf(address)": "70a08231",
					"decimal()": "76809ce3",
					"name()": "06fdde03",
					"symbol()": "95d89b41",
					"totalSupply()": "18160ddd"
				}
			},
			"storageLayout": {
				"storage": [
					{
						"astId": 3,
						"contract": "contracts/MyToken.sol:MyToken",
						"label": "_name",
						"offset": 0,
						"slot": "0",
						"type": "t_string_storage"
					},
					{
						"astId": 5,
						"contract": "contracts/MyToken.sol:MyToken",
						"label": "_symbol",
						"offset": 0,
						"slot": "1",
						"type": "t_string_storage"
					},
					{
						"astId": 7,
						"contract": "contracts/MyToken.sol:MyToken",
						"label": "_decimal",
						"offset": 0,
						"slot": "2",
						"type": "t_uint32"
					},
					{
						"astId": 9,
						"contract": "contracts/MyToken.sol:MyToken",
						"label": "_totalSupply",
						"offset": 0,
						"slot": "3",
						"type": "t_uint256"
					},
					{
						"astId": 40,
						"contract": "contracts/MyToken.sol:MyToken",
						"label": "balance",
						"offset": 0,
						"slot": "4",
						"type": "t_mapping(t_address,t_uint256)"
					},
					{
						"astId": 46,
						"contract": "contracts/MyToken.sol:MyToken",
						"label": "allow",
						"offset": 0,
						"slot": "5",
						"type": "t_mapping(t_address,t_mapping(t_address,t_uint256))"
					}
				],
				"types": {
					"t_address": {
						"encoding": "inplace",
						"label": "address",
						"numberOfBytes": "20"
					},
					"t_mapping(t_address,t_mapping(t_address,t_uint256))": {
						"encoding": "mapping",
						"key": "t_address",
						"label": "mapping(address => mapping(address => uint256))",
						"numberOfBytes": "32",
						"value": "t_mapping(t_address,t_uint256)"
					},
					"t_mapping(t_address,t_uint256)": {
						"encoding": "mapping",
						"key": "t_address",
						"label": "mapping(address => uint256)",
						"numberOfBytes": "32",
						"value": "t_uint256"
					},
					"t_string_storage": {
						"encoding": "bytes",
						"label": "string",
						"numberOfBytes": "32"
					},
					"t_uint256": {
						"encoding": "inplace",
						"label": "uint256",
						"numberOfBytes": "32"
					},
					"t_uint32": {
						"encoding": "inplace",
						"label": "uint32",
						"numberOfBytes": "4"
					}
				}
			},
			"userdoc": {
				"kind": "user",
				"methods": {},
				"version": 1
			}
		}
	}
}