{
	"contracts/Auction.sol": {
		"Auction": {
			"abi": [
				{
					"inputs": [
						{
							"internalType": "uint256",
							"name": "_postId",
							"type": "uint256"
						}
					],
					"name": "createBid",
					"outputs": [],
					"stateMutability": "payable",
					"type": "function"
				},
				{
					"inputs": [
						{
							"internalType": "string",
							"name": "_name",
							"type": "string"
						},
						{
							"internalType": "uint256",
							"name": "_minBid",
							"type": "uint256"
						}
					],
					"name": "createPost",
					"outputs": [],
					"stateMutability": "nonpayable",
					"type": "function"
				},
				{
					"inputs": [
						{
							"internalType": "address",
							"name": "_address",
							"type": "address"
						}
					],
					"name": "getBalance",
					"outputs": [
						{
							"internalType": "uint256",
							"name": "",
							"type": "uint256"
						}
					],
					"stateMutability": "view",
					"type": "function"
				},
				{
					"inputs": [
						{
							"internalType": "uint256",
							"name": "_postId",
							"type": "uint256"
						}
					],
					"name": "getTotalBids",
					"outputs": [
						{
							"internalType": "uint256",
							"name": "",
							"type": "uint256"
						}
					],
					"stateMutability": "view",
					"type": "function"
				}
			],
			"devdoc": {
				"kind": "dev",
				"methods": {},
				"version": 1
			},
			"evm": {
				"assembly": "    /* \"contracts/Auction.sol\":27:1971  contract Auction{\r... */\n  mstore(0x40, 0x80)\n  callvalue\n  dup1\n  iszero\n  tag_1\n  jumpi\n  0x00\n  dup1\n  revert\ntag_1:\n  pop\n  dataSize(sub_0)\n  dup1\n  dataOffset(sub_0)\n  0x00\n  codecopy\n  0x00\n  return\nstop\n\nsub_0: assembly {\n        /* \"contracts/Auction.sol\":27:1971  contract Auction{\r... */\n      mstore(0x40, 0x80)\n      jumpi(tag_1, lt(calldatasize, 0x04))\n      shr(0xe0, calldataload(0x00))\n      dup1\n      0x1252cb48\n      eq\n      tag_2\n      jumpi\n      dup1\n      0x659dd2b4\n      eq\n      tag_3\n      jumpi\n      dup1\n      0x8e5bc606\n      eq\n      tag_4\n      jumpi\n      dup1\n      0xf8b2cb4f\n      eq\n      tag_5\n      jumpi\n    tag_1:\n      0x00\n      dup1\n      revert\n        /* \"contracts/Auction.sol\":629:805  function createPost (string memory _name,uint _minBid) public {\r... */\n    tag_2:\n      callvalue\n      dup1\n      iszero\n      tag_6\n      jumpi\n      0x00\n      dup1\n      revert\n    tag_6:\n      pop\n      tag_7\n      0x04\n      dup1\n      calldatasize\n      sub\n      dup2\n      add\n      swap1\n      tag_8\n      swap2\n      swap1\n      tag_9\n      jump\t// in\n    tag_8:\n      tag_10\n      jump\t// in\n    tag_7:\n      stop\n        /* \"contracts/Auction.sol\":846:1601  function createBid (uint _postId) public payable {\r... */\n    tag_3:\n      tag_11\n      0x04\n      dup1\n      calldatasize\n      sub\n      dup2\n      add\n      swap1\n      tag_12\n      swap2\n      swap1\n      tag_13\n      jump\t// in\n    tag_12:\n      tag_14\n      jump\t// in\n    tag_11:\n      stop\n        /* \"contracts/Auction.sol\":1745:1968  function getTotalBids(uint _postId) public view returns (uint){\r... */\n    tag_4:\n      callvalue\n      dup1\n      iszero\n      tag_15\n      jumpi\n      0x00\n      dup1\n      revert\n    tag_15:\n      pop\n      tag_16\n      0x04\n      dup1\n      calldatasize\n      sub\n      dup2\n      add\n      swap1\n      tag_17\n      swap2\n      swap1\n      tag_13\n      jump\t// in\n    tag_17:\n      tag_18\n      jump\t// in\n    tag_16:\n      mload(0x40)\n      tag_19\n      swap2\n      swap1\n      tag_20\n      jump\t// in\n    tag_19:\n      mload(0x40)\n      dup1\n      swap2\n      sub\n      swap1\n      return\n        /* \"contracts/Auction.sol\":1609:1737  function getBalance(address _address) public view returns (uint){\r... */\n    tag_5:\n      callvalue\n      dup1\n      iszero\n      tag_21\n      jumpi\n      0x00\n      dup1\n      revert\n    tag_21:\n      pop\n      tag_22\n      0x04\n      dup1\n      calldatasize\n      sub\n      dup2\n      add\n      swap1\n      tag_23\n      swap2\n      swap1\n      tag_24\n      jump\t// in\n    tag_23:\n      tag_25\n      jump\t// in\n    tag_22:\n      mload(0x40)\n      tag_26\n      swap2\n      swap1\n      tag_20\n      jump\t// in\n    tag_26:\n      mload(0x40)\n      dup1\n      swap2\n      sub\n      swap1\n      return\n        /* \"contracts/Auction.sol\":629:805  function createPost (string memory _name,uint _minBid) public {\r... */\n    tag_10:\n        /* \"contracts/Auction.sol\":702:707  posts */\n      0x00\n        /* \"contracts/Auction.sol\":713:796  Post({seller: payable(msg.sender),minBid: _minBid,name:_name,time:block.timestamp}) */\n      mload(0x40)\n      dup1\n      0x80\n      add\n      0x40\n      mstore\n      dup1\n        /* \"contracts/Auction.sol\":735:745  msg.sender */\n      caller\n        /* \"contracts/Auction.sol\":713:796  Post({seller: payable(msg.sender),minBid: _minBid,name:_name,time:block.timestamp}) */\n      0xffffffffffffffffffffffffffffffffffffffff\n      and\n      dup2\n      mstore\n      0x20\n      add\n        /* \"contracts/Auction.sol\":755:762  _minBid */\n      dup4\n        /* \"contracts/Auction.sol\":713:796  Post({seller: payable(msg.sender),minBid: _minBid,name:_name,time:block.timestamp}) */\n      dup2\n      mstore\n      0x20\n      add\n        /* \"contracts/Auction.sol\":768:773  _name */\n      dup5\n        /* \"contracts/Auction.sol\":713:796  Post({seller: payable(msg.sender),minBid: _minBid,name:_name,time:block.timestamp}) */\n      dup2\n      mstore\n      0x20\n      add\n        /* \"contracts/Auction.sol\":779:794  block.timestamp */\n      timestamp\n        /* \"contracts/Auction.sol\":713:796  Post({seller: payable(msg.sender),minBid: _minBid,name:_name,time:block.timestamp}) */\n      dup2\n      mstore\n      pop\n        /* \"contracts/Auction.sol\":702:797  posts.push(Post({seller: payable(msg.sender),minBid: _minBid,name:_name,time:block.timestamp})) */\n      swap1\n      dup1\n      0x01\n      dup2\n      sload\n      add\n      dup1\n      dup3\n      sstore\n      dup1\n      swap2\n      pop\n      pop\n      0x01\n      swap1\n      sub\n      swap1\n      0x00\n      mstore\n      keccak256(0x00, 0x20)\n      swap1\n      0x04\n      mul\n      add\n      0x00\n      swap1\n      swap2\n      swap1\n      swap2\n      swap1\n      swap2\n      pop\n      0x00\n      dup3\n      add\n      mload\n      dup2\n      0x00\n      add\n      exp(0x0100, 0x00)\n      dup2\n      sload\n      dup2\n      0xffffffffffffffffffffffffffffffffffffffff\n      mul\n      not\n      and\n      swap1\n      dup4\n      0xffffffffffffffffffffffffffffffffffffffff\n      and\n      mul\n      or\n      swap1\n      sstore\n      pop\n      0x20\n      dup3\n      add\n      mload\n      dup2\n      0x01\n      add\n      sstore\n      0x40\n      dup3\n      add\n      mload\n      dup2\n      0x02\n      add\n      swap1\n      dup1\n      mload\n      swap1\n      0x20\n      add\n      swap1\n      tag_29\n      swap3\n      swap2\n      swap1\n      tag_30\n      jump\t// in\n    tag_29:\n      pop\n      0x60\n      dup3\n      add\n      mload\n      dup2\n      0x03\n      add\n      sstore\n      pop\n      pop\n        /* \"contracts/Auction.sol\":629:805  function createPost (string memory _name,uint _minBid) public {\r... */\n      pop\n      pop\n      jump\t// out\n        /* \"contracts/Auction.sol\":846:1601  function createBid (uint _postId) public payable {\r... */\n    tag_14:\n        /* \"contracts/Auction.sol\":906:922  Post memory post */\n      0x00\n        /* \"contracts/Auction.sol\":925:930  posts */\n      dup1\n        /* \"contracts/Auction.sol\":931:938  _postId */\n      dup3\n        /* \"contracts/Auction.sol\":925:939  posts[_postId] */\n      dup2\n      sload\n      dup2\n      lt\n      tag_32\n      jumpi\n      tag_33\n      tag_34\n      jump\t// in\n    tag_33:\n    tag_32:\n      swap1\n      0x00\n      mstore\n      keccak256(0x00, 0x20)\n      swap1\n      0x04\n      mul\n      add\n        /* \"contracts/Auction.sol\":906:939  Post memory post = posts[_postId] */\n      mload(0x40)\n      dup1\n      0x80\n      add\n      0x40\n      mstore\n      swap1\n      dup2\n      0x00\n      dup3\n      add\n      0x00\n      swap1\n      sload\n      swap1\n      0x0100\n      exp\n      swap1\n      div\n      0xffffffffffffffffffffffffffffffffffffffff\n      and\n      0xffffffffffffffffffffffffffffffffffffffff\n      and\n      0xffffffffffffffffffffffffffffffffffffffff\n      and\n      dup2\n      mstore\n      0x20\n      add\n      0x01\n      dup3\n      add\n      sload\n      dup2\n      mstore\n      0x20\n      add\n      0x02\n      dup3\n      add\n      dup1\n      sload\n      tag_36\n      swap1\n      tag_37\n      jump\t// in\n    tag_36:\n      dup1\n      0x1f\n      add\n      0x20\n      dup1\n      swap2\n      div\n      mul\n      0x20\n      add\n      mload(0x40)\n      swap1\n      dup2\n      add\n      0x40\n      mstore\n      dup1\n      swap3\n      swap2\n      swap1\n      dup2\n      dup2\n      mstore\n      0x20\n      add\n      dup3\n      dup1\n      sload\n      tag_38\n      swap1\n      tag_37\n      jump\t// in\n    tag_38:\n      dup1\n      iszero\n      tag_39\n      jumpi\n      dup1\n      0x1f\n      lt\n      tag_40\n      jumpi\n      0x0100\n      dup1\n      dup4\n      sload\n      div\n      mul\n      dup4\n      mstore\n      swap2\n      0x20\n      add\n      swap2\n      jump(tag_39)\n    tag_40:\n      dup3\n      add\n      swap2\n      swap1\n      0x00\n      mstore\n      keccak256(0x00, 0x20)\n      swap1\n    tag_41:\n      dup2\n      sload\n      dup2\n      mstore\n      swap1\n      0x01\n      add\n      swap1\n      0x20\n      add\n      dup1\n      dup4\n      gt\n      tag_41\n      jumpi\n      dup3\n      swap1\n      sub\n      0x1f\n      and\n      dup3\n      add\n      swap2\n    tag_39:\n      pop\n      pop\n      pop\n      pop\n      pop\n      dup2\n      mstore\n      0x20\n      add\n      0x03\n      dup3\n      add\n      sload\n      dup2\n      mstore\n      pop\n      pop\n      swap1\n      pop\n        /* \"contracts/Auction.sol\":1026:1030  post */\n      dup1\n        /* \"contracts/Auction.sol\":1026:1037  post.seller */\n      0x00\n      add\n      mload\n        /* \"contracts/Auction.sol\":1013:1037  msg.sender!= post.seller */\n      0xffffffffffffffffffffffffffffffffffffffff\n      and\n        /* \"contracts/Auction.sol\":1013:1023  msg.sender */\n      caller\n        /* \"contracts/Auction.sol\":1013:1037  msg.sender!= post.seller */\n      0xffffffffffffffffffffffffffffffffffffffff\n      and\n      eq\n      iszero\n        /* \"contracts/Auction.sol\":1004:1071  require (msg.sender!= post.seller,\"You can't bid on your own post\") */\n      tag_42\n      jumpi\n      mload(0x40)\n      0x08c379a000000000000000000000000000000000000000000000000000000000\n      dup2\n      mstore\n      0x04\n      add\n      tag_43\n      swap1\n      tag_44\n      jump\t// in\n    tag_43:\n      mload(0x40)\n      dup1\n      swap2\n      sub\n      swap1\n      revert\n    tag_42:\n        /* \"contracts/Auction.sol\":1146:1147  0 */\n      0x00\n        /* \"contracts/Auction.sol\":1133:1142  msg.value */\n      callvalue\n        /* \"contracts/Auction.sol\":1133:1147  msg.value != 0 */\n      eq\n      iszero\n        /* \"contracts/Auction.sol\":1124:1173  require (msg.value != 0, \"Invalid amount of Bid\") */\n      tag_45\n      jumpi\n      mload(0x40)\n      0x08c379a000000000000000000000000000000000000000000000000000000000\n      dup2\n      mstore\n      0x04\n      add\n      tag_46\n      swap1\n      tag_47\n      jump\t// in\n    tag_46:\n      mload(0x40)\n      dup1\n      swap2\n      sub\n      swap1\n      revert\n    tag_45:\n        /* \"contracts/Auction.sol\":1205:1208  400 */\n      0x0190\n        /* \"contracts/Auction.sol\":1193:1197  post */\n      dup2\n        /* \"contracts/Auction.sol\":1193:1202  post.time */\n      0x60\n      add\n      mload\n        /* \"contracts/Auction.sol\":1193:1208  post.time < 400 */\n      lt\n        /* \"contracts/Auction.sol\":1184:1237  require (post.time < 400, \"This auction is finished\") */\n      tag_48\n      jumpi\n      mload(0x40)\n      0x08c379a000000000000000000000000000000000000000000000000000000000\n      dup2\n      mstore\n      0x04\n      add\n      tag_49\n      swap1\n      tag_50\n      jump\t// in\n    tag_49:\n      mload(0x40)\n      dup1\n      swap2\n      sub\n      swap1\n      revert\n    tag_48:\n        /* \"contracts/Auction.sol\":1284:1303  1000000000000000000 */\n      0x0de0b6b3a7640000\n        /* \"contracts/Auction.sol\":1270:1274  post */\n      dup2\n        /* \"contracts/Auction.sol\":1270:1281  post.minBid */\n      0x20\n      add\n      mload\n        /* \"contracts/Auction.sol\":1270:1303  post.minBid * 1000000000000000000 */\n      tag_51\n      swap2\n      swap1\n      tag_52\n      jump\t// in\n    tag_51:\n        /* \"contracts/Auction.sol\":1257:1266  msg.value */\n      callvalue\n        /* \"contracts/Auction.sol\":1257:1303  msg.value >= post.minBid * 1000000000000000000 */\n      lt\n      iszero\n        /* \"contracts/Auction.sol\":1248:1353  require (msg.value >= post.minBid * 1000000000000000000 , \"This bid needs to be more than min bid value\") */\n      tag_53\n      jumpi\n      mload(0x40)\n      0x08c379a000000000000000000000000000000000000000000000000000000000\n      dup2\n      mstore\n      0x04\n      add\n      tag_54\n      swap1\n      tag_55\n      jump\t// in\n    tag_54:\n      mload(0x40)\n      dup1\n      swap2\n      sub\n      swap1\n      revert\n    tag_53:\n        /* \"contracts/Auction.sol\":1366:1370  bids */\n      0x01\n        /* \"contracts/Auction.sol\":1366:1379  bids[_postId] */\n      0x00\n        /* \"contracts/Auction.sol\":1371:1378  _postId */\n      dup4\n        /* \"contracts/Auction.sol\":1366:1379  bids[_postId] */\n      dup2\n      mstore\n      0x20\n      add\n      swap1\n      dup2\n      mstore\n      0x20\n      add\n      0x00\n      keccak256\n        /* \"contracts/Auction.sol\":1385:1543  Bid({\r... */\n      mload(0x40)\n      dup1\n      0x80\n      add\n      0x40\n      mstore\n      dup1\n        /* \"contracts/Auction.sol\":1452:1462  msg.sender */\n      caller\n        /* \"contracts/Auction.sol\":1385:1543  Bid({\r... */\n      0xffffffffffffffffffffffffffffffffffffffff\n      and\n      dup2\n      mstore\n      0x20\n      add\n        /* \"contracts/Auction.sol\":1412:1421  msg.value */\n      callvalue\n        /* \"contracts/Auction.sol\":1385:1543  Bid({\r... */\n      dup2\n      mstore\n      0x20\n      add\n        /* \"contracts/Auction.sol\":1485:1500  block.timestamp */\n      timestamp\n        /* \"contracts/Auction.sol\":1385:1543  Bid({\r... */\n      dup2\n      mstore\n      0x20\n      add\n        /* \"contracts/Auction.sol\":1526:1531  false */\n      0x00\n        /* \"contracts/Auction.sol\":1385:1543  Bid({\r... */\n      iszero\n      iszero\n      dup2\n      mstore\n      pop\n        /* \"contracts/Auction.sol\":1366:1544  bids[_postId].push(Bid({\r... */\n      swap1\n      dup1\n      0x01\n      dup2\n      sload\n      add\n      dup1\n      dup3\n      sstore\n      dup1\n      swap2\n      pop\n      pop\n      0x01\n      swap1\n      sub\n      swap1\n      0x00\n      mstore\n      keccak256(0x00, 0x20)\n      swap1\n      0x04\n      mul\n      add\n      0x00\n      swap1\n      swap2\n      swap1\n      swap2\n      swap1\n      swap2\n      pop\n      0x00\n      dup3\n      add\n      mload\n      dup2\n      0x00\n      add\n      exp(0x0100, 0x00)\n      dup2\n      sload\n      dup2\n      0xffffffffffffffffffffffffffffffffffffffff\n      mul\n      not\n      and\n      swap1\n      dup4\n      0xffffffffffffffffffffffffffffffffffffffff\n      and\n      mul\n      or\n      swap1\n      sstore\n      pop\n      0x20\n      dup3\n      add\n      mload\n      dup2\n      0x01\n      add\n      sstore\n      0x40\n      dup3\n      add\n      mload\n      dup2\n      0x02\n      add\n      sstore\n      0x60\n      dup3\n      add\n      mload\n      dup2\n      0x03\n      add\n      exp(0x0100, 0x00)\n      dup2\n      sload\n      dup2\n      0xff\n      mul\n      not\n      and\n      swap1\n      dup4\n      iszero\n      iszero\n      mul\n      or\n      swap1\n      sstore\n      pop\n      pop\n      pop\n        /* \"contracts/Auction.sol\":1584:1593  msg.value */\n      callvalue\n        /* \"contracts/Auction.sol\":1557:1565  balances */\n      0x02\n        /* \"contracts/Auction.sol\":1557:1580  balances[address(this)] */\n      0x00\n        /* \"contracts/Auction.sol\":1574:1578  this */\n      address\n        /* \"contracts/Auction.sol\":1557:1580  balances[address(this)] */\n      0xffffffffffffffffffffffffffffffffffffffff\n      and\n      0xffffffffffffffffffffffffffffffffffffffff\n      and\n      dup2\n      mstore\n      0x20\n      add\n      swap1\n      dup2\n      mstore\n      0x20\n      add\n      0x00\n      keccak256\n      0x00\n        /* \"contracts/Auction.sol\":1557:1593  balances[address(this)] += msg.value */\n      dup3\n      dup3\n      sload\n      tag_57\n      swap2\n      swap1\n      tag_58\n      jump\t// in\n    tag_57:\n      swap3\n      pop\n      pop\n      dup2\n      swap1\n      sstore\n      pop\n        /* \"contracts/Auction.sol\":895:1601  {\r... */\n      pop\n        /* \"contracts/Auction.sol\":846:1601  function createBid (uint _postId) public payable {\r... */\n      pop\n      jump\t// out\n        /* \"contracts/Auction.sol\":1745:1968  function getTotalBids(uint _postId) public view returns (uint){\r... */\n    tag_18:\n        /* \"contracts/Auction.sol\":1802:1806  uint */\n      0x00\n        /* \"contracts/Auction.sol\":1818:1834  Post memory post */\n      dup1\n        /* \"contracts/Auction.sol\":1837:1842  posts */\n      0x00\n        /* \"contracts/Auction.sol\":1843:1850  _postId */\n      dup4\n        /* \"contracts/Auction.sol\":1837:1851  posts[_postId] */\n      dup2\n      sload\n      dup2\n      lt\n      tag_60\n      jumpi\n      tag_61\n      tag_34\n      jump\t// in\n    tag_61:\n    tag_60:\n      swap1\n      0x00\n      mstore\n      keccak256(0x00, 0x20)\n      swap1\n      0x04\n      mul\n      add\n        /* \"contracts/Auction.sol\":1818:1851  Post memory post = posts[_postId] */\n      mload(0x40)\n      dup1\n      0x80\n      add\n      0x40\n      mstore\n      swap1\n      dup2\n      0x00\n      dup3\n      add\n      0x00\n      swap1\n      sload\n      swap1\n      0x0100\n      exp\n      swap1\n      div\n      0xffffffffffffffffffffffffffffffffffffffff\n      and\n      0xffffffffffffffffffffffffffffffffffffffff\n      and\n      0xffffffffffffffffffffffffffffffffffffffff\n      and\n      dup2\n      mstore\n      0x20\n      add\n      0x01\n      dup3\n      add\n      sload\n      dup2\n      mstore\n      0x20\n      add\n      0x02\n      dup3\n      add\n      dup1\n      sload\n      tag_63\n      swap1\n      tag_37\n      jump\t// in\n    tag_63:\n      dup1\n      0x1f\n      add\n      0x20\n      dup1\n      swap2\n      div\n      mul\n      0x20\n      add\n      mload(0x40)\n      swap1\n      dup2\n      add\n      0x40\n      mstore\n      dup1\n      swap3\n      swap2\n      swap1\n      dup2\n      dup2\n      mstore\n      0x20\n      add\n      dup3\n      dup1\n      sload\n      tag_64\n      swap1\n      tag_37\n      jump\t// in\n    tag_64:\n      dup1\n      iszero\n      tag_65\n      jumpi\n      dup1\n      0x1f\n      lt\n      tag_66\n      jumpi\n      0x0100\n      dup1\n      dup4\n      sload\n      div\n      mul\n      dup4\n      mstore\n      swap2\n      0x20\n      add\n      swap2\n      jump(tag_65)\n    tag_66:\n      dup3\n      add\n      swap2\n      swap1\n      0x00\n      mstore\n      keccak256(0x00, 0x20)\n      swap1\n    tag_67:\n      dup2\n      sload\n      dup2\n      mstore\n      swap1\n      0x01\n      add\n      swap1\n      0x20\n      add\n      dup1\n      dup4\n      gt\n      tag_67\n      jumpi\n      dup3\n      swap1\n      sub\n      0x1f\n      and\n      dup3\n      add\n      swap2\n    tag_65:\n      pop\n      pop\n      pop\n      pop\n      pop\n      dup2\n      mstore\n      0x20\n      add\n      0x03\n      dup3\n      add\n      sload\n      dup2\n      mstore\n      pop\n      pop\n      swap1\n      pop\n        /* \"contracts/Auction.sol\":1882:1886  post */\n      dup1\n        /* \"contracts/Auction.sol\":1882:1893  post.seller */\n      0x00\n      add\n      mload\n        /* \"contracts/Auction.sol\":1870:1893  msg.sender==post.seller */\n      0xffffffffffffffffffffffffffffffffffffffff\n      and\n        /* \"contracts/Auction.sol\":1870:1880  msg.sender */\n      caller\n        /* \"contracts/Auction.sol\":1870:1893  msg.sender==post.seller */\n      0xffffffffffffffffffffffffffffffffffffffff\n      and\n      eq\n        /* \"contracts/Auction.sol\":1862:1922  require(msg.sender==post.seller,\"You don't have permission\") */\n      tag_68\n      jumpi\n      mload(0x40)\n      0x08c379a000000000000000000000000000000000000000000000000000000000\n      dup2\n      mstore\n      0x04\n      add\n      tag_69\n      swap1\n      tag_70\n      jump\t// in\n    tag_69:\n      mload(0x40)\n      dup1\n      swap2\n      sub\n      swap1\n      revert\n    tag_68:\n        /* \"contracts/Auction.sol\":1940:1944  bids */\n      0x01\n        /* \"contracts/Auction.sol\":1940:1953  bids[_postId] */\n      0x00\n        /* \"contracts/Auction.sol\":1945:1952  _postId */\n      dup5\n        /* \"contracts/Auction.sol\":1940:1953  bids[_postId] */\n      dup2\n      mstore\n      0x20\n      add\n      swap1\n      dup2\n      mstore\n      0x20\n      add\n      0x00\n      keccak256\n        /* \"contracts/Auction.sol\":1940:1960  bids[_postId].length */\n      dup1\n      sload\n      swap1\n      pop\n        /* \"contracts/Auction.sol\":1933:1960  return bids[_postId].length */\n      swap2\n      pop\n      pop\n        /* \"contracts/Auction.sol\":1745:1968  function getTotalBids(uint _postId) public view returns (uint){\r... */\n      swap2\n      swap1\n      pop\n      jump\t// out\n        /* \"contracts/Auction.sol\":1609:1737  function getBalance(address _address) public view returns (uint){\r... */\n    tag_25:\n        /* \"contracts/Auction.sol\":1668:1672  uint */\n      0x00\n        /* \"contracts/Auction.sol\":1710:1729  1000000000000000000 */\n      0x0de0b6b3a7640000\n        /* \"contracts/Auction.sol\":1691:1699  balances */\n      0x02\n        /* \"contracts/Auction.sol\":1691:1709  balances[_address] */\n      0x00\n        /* \"contracts/Auction.sol\":1700:1708  _address */\n      dup5\n        /* \"contracts/Auction.sol\":1691:1709  balances[_address] */\n      0xffffffffffffffffffffffffffffffffffffffff\n      and\n      0xffffffffffffffffffffffffffffffffffffffff\n      and\n      dup2\n      mstore\n      0x20\n      add\n      swap1\n      dup2\n      mstore\n      0x20\n      add\n      0x00\n      keccak256\n      sload\n        /* \"contracts/Auction.sol\":1691:1729  balances[_address]/1000000000000000000 */\n      tag_72\n      swap2\n      swap1\n      tag_73\n      jump\t// in\n    tag_72:\n        /* \"contracts/Auction.sol\":1684:1729  return balances[_address]/1000000000000000000 */\n      swap1\n      pop\n        /* \"contracts/Auction.sol\":1609:1737  function getBalance(address _address) public view returns (uint){\r... */\n      swap2\n      swap1\n      pop\n      jump\t// out\n    tag_30:\n      dup3\n      dup1\n      sload\n      tag_74\n      swap1\n      tag_37\n      jump\t// in\n    tag_74:\n      swap1\n      0x00\n      mstore\n      keccak256(0x00, 0x20)\n      swap1\n      0x1f\n      add\n      0x20\n      swap1\n      div\n      dup2\n      add\n      swap3\n      dup3\n      tag_76\n      jumpi\n      0x00\n      dup6\n      sstore\n      jump(tag_75)\n    tag_76:\n      dup3\n      0x1f\n      lt\n      tag_77\n      jumpi\n      dup1\n      mload\n      not(0xff)\n      and\n      dup4\n      dup1\n      add\n      or\n      dup6\n      sstore\n      jump(tag_75)\n    tag_77:\n      dup3\n      dup1\n      add\n      0x01\n      add\n      dup6\n      sstore\n      dup3\n      iszero\n      tag_75\n      jumpi\n      swap2\n      dup3\n      add\n    tag_78:\n      dup3\n      dup2\n      gt\n      iszero\n      tag_79\n      jumpi\n      dup3\n      mload\n      dup3\n      sstore\n      swap2\n      0x20\n      add\n      swap2\n      swap1\n      0x01\n      add\n      swap1\n      jump(tag_78)\n    tag_79:\n    tag_75:\n      pop\n      swap1\n      pop\n      tag_80\n      swap2\n      swap1\n      tag_81\n      jump\t// in\n    tag_80:\n      pop\n      swap1\n      jump\t// out\n    tag_81:\n    tag_82:\n      dup1\n      dup3\n      gt\n      iszero\n      tag_83\n      jumpi\n      0x00\n      dup2\n      0x00\n      swap1\n      sstore\n      pop\n      0x01\n      add\n      jump(tag_82)\n    tag_83:\n      pop\n      swap1\n      jump\t// out\n        /* \"#utility.yul\":7:419   */\n    tag_85:\n        /* \"#utility.yul\":85:90   */\n      0x00\n        /* \"#utility.yul\":110:176   */\n      tag_87\n        /* \"#utility.yul\":126:175   */\n      tag_88\n        /* \"#utility.yul\":168:174   */\n      dup5\n        /* \"#utility.yul\":126:175   */\n      tag_89\n      jump\t// in\n    tag_88:\n        /* \"#utility.yul\":110:176   */\n      tag_90\n      jump\t// in\n    tag_87:\n        /* \"#utility.yul\":101:176   */\n      swap1\n      pop\n        /* \"#utility.yul\":199:205   */\n      dup3\n        /* \"#utility.yul\":192:197   */\n      dup2\n        /* \"#utility.yul\":185:206   */\n      mstore\n        /* \"#utility.yul\":237:241   */\n      0x20\n        /* \"#utility.yul\":230:235   */\n      dup2\n        /* \"#utility.yul\":226:242   */\n      add\n        /* \"#utility.yul\":275:278   */\n      dup5\n        /* \"#utility.yul\":266:272   */\n      dup5\n        /* \"#utility.yul\":261:264   */\n      dup5\n        /* \"#utility.yul\":257:273   */\n      add\n        /* \"#utility.yul\":254:279   */\n      gt\n        /* \"#utility.yul\":251:363   */\n      iszero\n      tag_91\n      jumpi\n        /* \"#utility.yul\":282:361   */\n      tag_92\n      tag_93\n      jump\t// in\n    tag_92:\n        /* \"#utility.yul\":251:363   */\n    tag_91:\n        /* \"#utility.yul\":372:413   */\n      tag_94\n        /* \"#utility.yul\":406:412   */\n      dup5\n        /* \"#utility.yul\":401:404   */\n      dup3\n        /* \"#utility.yul\":396:399   */\n      dup6\n        /* \"#utility.yul\":372:413   */\n      tag_95\n      jump\t// in\n    tag_94:\n        /* \"#utility.yul\":91:419   */\n      pop\n        /* \"#utility.yul\":7:419   */\n      swap4\n      swap3\n      pop\n      pop\n      pop\n      jump\t// out\n        /* \"#utility.yul\":425:564   */\n    tag_96:\n        /* \"#utility.yul\":471:476   */\n      0x00\n        /* \"#utility.yul\":509:515   */\n      dup2\n        /* \"#utility.yul\":496:516   */\n      calldataload\n        /* \"#utility.yul\":487:516   */\n      swap1\n      pop\n        /* \"#utility.yul\":525:558   */\n      tag_98\n        /* \"#utility.yul\":552:557   */\n      dup2\n        /* \"#utility.yul\":525:558   */\n      tag_99\n      jump\t// in\n    tag_98:\n        /* \"#utility.yul\":425:564   */\n      swap3\n      swap2\n      pop\n      pop\n      jump\t// out\n        /* \"#utility.yul\":584:924   */\n    tag_100:\n        /* \"#utility.yul\":640:645   */\n      0x00\n        /* \"#utility.yul\":689:692   */\n      dup3\n        /* \"#utility.yul\":682:686   */\n      0x1f\n        /* \"#utility.yul\":674:680   */\n      dup4\n        /* \"#utility.yul\":670:687   */\n      add\n        /* \"#utility.yul\":666:693   */\n      slt\n        /* \"#utility.yul\":656:778   */\n      tag_102\n      jumpi\n        /* \"#utility.yul\":697:776   */\n      tag_103\n      tag_104\n      jump\t// in\n    tag_103:\n        /* \"#utility.yul\":656:778   */\n    tag_102:\n        /* \"#utility.yul\":814:820   */\n      dup2\n        /* \"#utility.yul\":801:821   */\n      calldataload\n        /* \"#utility.yul\":839:918   */\n      tag_105\n        /* \"#utility.yul\":914:917   */\n      dup5\n        /* \"#utility.yul\":906:912   */\n      dup3\n        /* \"#utility.yul\":899:903   */\n      0x20\n        /* \"#utility.yul\":891:897   */\n      dup7\n        /* \"#utility.yul\":887:904   */\n      add\n        /* \"#utility.yul\":839:918   */\n      tag_85\n      jump\t// in\n    tag_105:\n        /* \"#utility.yul\":830:918   */\n      swap2\n      pop\n        /* \"#utility.yul\":646:924   */\n      pop\n        /* \"#utility.yul\":584:924   */\n      swap3\n      swap2\n      pop\n      pop\n      jump\t// out\n        /* \"#utility.yul\":930:1069   */\n    tag_106:\n        /* \"#utility.yul\":976:981   */\n      0x00\n        /* \"#utility.yul\":1014:1020   */\n      dup2\n        /* \"#utility.yul\":1001:1021   */\n      calldataload\n        /* \"#utility.yul\":992:1021   */\n      swap1\n      pop\n        /* \"#utility.yul\":1030:1063   */\n      tag_108\n        /* \"#utility.yul\":1057:1062   */\n      dup2\n        /* \"#utility.yul\":1030:1063   */\n      tag_109\n      jump\t// in\n    tag_108:\n        /* \"#utility.yul\":930:1069   */\n      swap3\n      swap2\n      pop\n      pop\n      jump\t// out\n        /* \"#utility.yul\":1075:1404   */\n    tag_24:\n        /* \"#utility.yul\":1134:1140   */\n      0x00\n        /* \"#utility.yul\":1183:1185   */\n      0x20\n        /* \"#utility.yul\":1171:1180   */\n      dup3\n        /* \"#utility.yul\":1162:1169   */\n      dup5\n        /* \"#utility.yul\":1158:1181   */\n      sub\n        /* \"#utility.yul\":1154:1186   */\n      slt\n        /* \"#utility.yul\":1151:1270   */\n      iszero\n      tag_111\n      jumpi\n        /* \"#utility.yul\":1189:1268   */\n      tag_112\n      tag_113\n      jump\t// in\n    tag_112:\n        /* \"#utility.yul\":1151:1270   */\n    tag_111:\n        /* \"#utility.yul\":1309:1310   */\n      0x00\n        /* \"#utility.yul\":1334:1387   */\n      tag_114\n        /* \"#utility.yul\":1379:1386   */\n      dup5\n        /* \"#utility.yul\":1370:1376   */\n      dup3\n        /* \"#utility.yul\":1359:1368   */\n      dup6\n        /* \"#utility.yul\":1355:1377   */\n      add\n        /* \"#utility.yul\":1334:1387   */\n      tag_96\n      jump\t// in\n    tag_114:\n        /* \"#utility.yul\":1324:1387   */\n      swap2\n      pop\n        /* \"#utility.yul\":1280:1397   */\n      pop\n        /* \"#utility.yul\":1075:1404   */\n      swap3\n      swap2\n      pop\n      pop\n      jump\t// out\n        /* \"#utility.yul\":1410:2064   */\n    tag_9:\n        /* \"#utility.yul\":1488:1494   */\n      0x00\n        /* \"#utility.yul\":1496:1502   */\n      dup1\n        /* \"#utility.yul\":1545:1547   */\n      0x40\n        /* \"#utility.yul\":1533:1542   */\n      dup4\n        /* \"#utility.yul\":1524:1531   */\n      dup6\n        /* \"#utility.yul\":1520:1543   */\n      sub\n        /* \"#utility.yul\":1516:1548   */\n      slt\n        /* \"#utility.yul\":1513:1632   */\n      iszero\n      tag_116\n      jumpi\n        /* \"#utility.yul\":1551:1630   */\n      tag_117\n      tag_113\n      jump\t// in\n    tag_117:\n        /* \"#utility.yul\":1513:1632   */\n    tag_116:\n        /* \"#utility.yul\":1699:1700   */\n      0x00\n        /* \"#utility.yul\":1688:1697   */\n      dup4\n        /* \"#utility.yul\":1684:1701   */\n      add\n        /* \"#utility.yul\":1671:1702   */\n      calldataload\n        /* \"#utility.yul\":1729:1747   */\n      0xffffffffffffffff\n        /* \"#utility.yul\":1721:1727   */\n      dup2\n        /* \"#utility.yul\":1718:1748   */\n      gt\n        /* \"#utility.yul\":1715:1832   */\n      iszero\n      tag_118\n      jumpi\n        /* \"#utility.yul\":1751:1830   */\n      tag_119\n      tag_120\n      jump\t// in\n    tag_119:\n        /* \"#utility.yul\":1715:1832   */\n    tag_118:\n        /* \"#utility.yul\":1856:1919   */\n      tag_121\n        /* \"#utility.yul\":1911:1918   */\n      dup6\n        /* \"#utility.yul\":1902:1908   */\n      dup3\n        /* \"#utility.yul\":1891:1900   */\n      dup7\n        /* \"#utility.yul\":1887:1909   */\n      add\n        /* \"#utility.yul\":1856:1919   */\n      tag_100\n      jump\t// in\n    tag_121:\n        /* \"#utility.yul\":1846:1919   */\n      swap3\n      pop\n        /* \"#utility.yul\":1642:1929   */\n      pop\n        /* \"#utility.yul\":1968:1970   */\n      0x20\n        /* \"#utility.yul\":1994:2047   */\n      tag_122\n        /* \"#utility.yul\":2039:2046   */\n      dup6\n        /* \"#utility.yul\":2030:2036   */\n      dup3\n        /* \"#utility.yul\":2019:2028   */\n      dup7\n        /* \"#utility.yul\":2015:2037   */\n      add\n        /* \"#utility.yul\":1994:2047   */\n      tag_106\n      jump\t// in\n    tag_122:\n        /* \"#utility.yul\":1984:2047   */\n      swap2\n      pop\n        /* \"#utility.yul\":1939:2057   */\n      pop\n        /* \"#utility.yul\":1410:2064   */\n      swap3\n      pop\n      swap3\n      swap1\n      pop\n      jump\t// out\n        /* \"#utility.yul\":2070:2399   */\n    tag_13:\n        /* \"#utility.yul\":2129:2135   */\n      0x00\n        /* \"#utility.yul\":2178:2180   */\n      0x20\n        /* \"#utility.yul\":2166:2175   */\n      dup3\n        /* \"#utility.yul\":2157:2164   */\n      dup5\n        /* \"#utility.yul\":2153:2176   */\n      sub\n        /* \"#utility.yul\":2149:2181   */\n      slt\n        /* \"#utility.yul\":2146:2265   */\n      iszero\n      tag_124\n      jumpi\n        /* \"#utility.yul\":2184:2263   */\n      tag_125\n      tag_113\n      jump\t// in\n    tag_125:\n        /* \"#utility.yul\":2146:2265   */\n    tag_124:\n        /* \"#utility.yul\":2304:2305   */\n      0x00\n        /* \"#utility.yul\":2329:2382   */\n      tag_126\n        /* \"#utility.yul\":2374:2381   */\n      dup5\n        /* \"#utility.yul\":2365:2371   */\n      dup3\n        /* \"#utility.yul\":2354:2363   */\n      dup6\n        /* \"#utility.yul\":2350:2372   */\n      add\n        /* \"#utility.yul\":2329:2382   */\n      tag_106\n      jump\t// in\n    tag_126:\n        /* \"#utility.yul\":2319:2382   */\n      swap2\n      pop\n        /* \"#utility.yul\":2275:2392   */\n      pop\n        /* \"#utility.yul\":2070:2399   */\n      swap3\n      swap2\n      pop\n      pop\n      jump\t// out\n        /* \"#utility.yul\":2405:2771   */\n    tag_127:\n        /* \"#utility.yul\":2547:2550   */\n      0x00\n        /* \"#utility.yul\":2568:2635   */\n      tag_129\n        /* \"#utility.yul\":2632:2634   */\n      0x1e\n        /* \"#utility.yul\":2627:2630   */\n      dup4\n        /* \"#utility.yul\":2568:2635   */\n      tag_130\n      jump\t// in\n    tag_129:\n        /* \"#utility.yul\":2561:2635   */\n      swap2\n      pop\n        /* \"#utility.yul\":2644:2737   */\n      tag_131\n        /* \"#utility.yul\":2733:2736   */\n      dup3\n        /* \"#utility.yul\":2644:2737   */\n      tag_132\n      jump\t// in\n    tag_131:\n        /* \"#utility.yul\":2762:2764   */\n      0x20\n        /* \"#utility.yul\":2757:2760   */\n      dup3\n        /* \"#utility.yul\":2753:2765   */\n      add\n        /* \"#utility.yul\":2746:2765   */\n      swap1\n      pop\n        /* \"#utility.yul\":2405:2771   */\n      swap2\n      swap1\n      pop\n      jump\t// out\n        /* \"#utility.yul\":2777:3143   */\n    tag_133:\n        /* \"#utility.yul\":2919:2922   */\n      0x00\n        /* \"#utility.yul\":2940:3007   */\n      tag_135\n        /* \"#utility.yul\":3004:3006   */\n      0x15\n        /* \"#utility.yul\":2999:3002   */\n      dup4\n        /* \"#utility.yul\":2940:3007   */\n      tag_130\n      jump\t// in\n    tag_135:\n        /* \"#utility.yul\":2933:3007   */\n      swap2\n      pop\n        /* \"#utility.yul\":3016:3109   */\n      tag_136\n        /* \"#utility.yul\":3105:3108   */\n      dup3\n        /* \"#utility.yul\":3016:3109   */\n      tag_137\n      jump\t// in\n    tag_136:\n        /* \"#utility.yul\":3134:3136   */\n      0x20\n        /* \"#utility.yul\":3129:3132   */\n      dup3\n        /* \"#utility.yul\":3125:3137   */\n      add\n        /* \"#utility.yul\":3118:3137   */\n      swap1\n      pop\n        /* \"#utility.yul\":2777:3143   */\n      swap2\n      swap1\n      pop\n      jump\t// out\n        /* \"#utility.yul\":3149:3515   */\n    tag_138:\n        /* \"#utility.yul\":3291:3294   */\n      0x00\n        /* \"#utility.yul\":3312:3379   */\n      tag_140\n        /* \"#utility.yul\":3376:3378   */\n      0x19\n        /* \"#utility.yul\":3371:3374   */\n      dup4\n        /* \"#utility.yul\":3312:3379   */\n      tag_130\n      jump\t// in\n    tag_140:\n        /* \"#utility.yul\":3305:3379   */\n      swap2\n      pop\n        /* \"#utility.yul\":3388:3481   */\n      tag_141\n        /* \"#utility.yul\":3477:3480   */\n      dup3\n        /* \"#utility.yul\":3388:3481   */\n      tag_142\n      jump\t// in\n    tag_141:\n        /* \"#utility.yul\":3506:3508   */\n      0x20\n        /* \"#utility.yul\":3501:3504   */\n      dup3\n        /* \"#utility.yul\":3497:3509   */\n      add\n        /* \"#utility.yul\":3490:3509   */\n      swap1\n      pop\n        /* \"#utility.yul\":3149:3515   */\n      swap2\n      swap1\n      pop\n      jump\t// out\n        /* \"#utility.yul\":3521:3887   */\n    tag_143:\n        /* \"#utility.yul\":3663:3666   */\n      0x00\n        /* \"#utility.yul\":3684:3751   */\n      tag_145\n        /* \"#utility.yul\":3748:3750   */\n      0x18\n        /* \"#utility.yul\":3743:3746   */\n      dup4\n        /* \"#utility.yul\":3684:3751   */\n      tag_130\n      jump\t// in\n    tag_145:\n        /* \"#utility.yul\":3677:3751   */\n      swap2\n      pop\n        /* \"#utility.yul\":3760:3853   */\n      tag_146\n        /* \"#utility.yul\":3849:3852   */\n      dup3\n        /* \"#utility.yul\":3760:3853   */\n      tag_147\n      jump\t// in\n    tag_146:\n        /* \"#utility.yul\":3878:3880   */\n      0x20\n        /* \"#utility.yul\":3873:3876   */\n      dup3\n        /* \"#utility.yul\":3869:3881   */\n      add\n        /* \"#utility.yul\":3862:3881   */\n      swap1\n      pop\n        /* \"#utility.yul\":3521:3887   */\n      swap2\n      swap1\n      pop\n      jump\t// out\n        /* \"#utility.yul\":3893:4259   */\n    tag_148:\n        /* \"#utility.yul\":4035:4038   */\n      0x00\n        /* \"#utility.yul\":4056:4123   */\n      tag_150\n        /* \"#utility.yul\":4120:4122   */\n      0x2c\n        /* \"#utility.yul\":4115:4118   */\n      dup4\n        /* \"#utility.yul\":4056:4123   */\n      tag_130\n      jump\t// in\n    tag_150:\n        /* \"#utility.yul\":4049:4123   */\n      swap2\n      pop\n        /* \"#utility.yul\":4132:4225   */\n      tag_151\n        /* \"#utility.yul\":4221:4224   */\n      dup3\n        /* \"#utility.yul\":4132:4225   */\n      tag_152\n      jump\t// in\n    tag_151:\n        /* \"#utility.yul\":4250:4252   */\n      0x40\n        /* \"#utility.yul\":4245:4248   */\n      dup3\n        /* \"#utility.yul\":4241:4253   */\n      add\n        /* \"#utility.yul\":4234:4253   */\n      swap1\n      pop\n        /* \"#utility.yul\":3893:4259   */\n      swap2\n      swap1\n      pop\n      jump\t// out\n        /* \"#utility.yul\":4265:4383   */\n    tag_153:\n        /* \"#utility.yul\":4352:4376   */\n      tag_155\n        /* \"#utility.yul\":4370:4375   */\n      dup2\n        /* \"#utility.yul\":4352:4376   */\n      tag_156\n      jump\t// in\n    tag_155:\n        /* \"#utility.yul\":4347:4350   */\n      dup3\n        /* \"#utility.yul\":4340:4377   */\n      mstore\n        /* \"#utility.yul\":4265:4383   */\n      pop\n      pop\n      jump\t// out\n        /* \"#utility.yul\":4389:4808   */\n    tag_44:\n        /* \"#utility.yul\":4555:4559   */\n      0x00\n        /* \"#utility.yul\":4593:4595   */\n      0x20\n        /* \"#utility.yul\":4582:4591   */\n      dup3\n        /* \"#utility.yul\":4578:4596   */\n      add\n        /* \"#utility.yul\":4570:4596   */\n      swap1\n      pop\n        /* \"#utility.yul\":4642:4651   */\n      dup2\n        /* \"#utility.yul\":4636:4640   */\n      dup2\n        /* \"#utility.yul\":4632:4652   */\n      sub\n        /* \"#utility.yul\":4628:4629   */\n      0x00\n        /* \"#utility.yul\":4617:4626   */\n      dup4\n        /* \"#utility.yul\":4613:4630   */\n      add\n        /* \"#utility.yul\":4606:4653   */\n      mstore\n        /* \"#utility.yul\":4670:4801   */\n      tag_158\n        /* \"#utility.yul\":4796:4800   */\n      dup2\n        /* \"#utility.yul\":4670:4801   */\n      tag_127\n      jump\t// in\n    tag_158:\n        /* \"#utility.yul\":4662:4801   */\n      swap1\n      pop\n        /* \"#utility.yul\":4389:4808   */\n      swap2\n      swap1\n      pop\n      jump\t// out\n        /* \"#utility.yul\":4814:5233   */\n    tag_47:\n        /* \"#utility.yul\":4980:4984   */\n      0x00\n        /* \"#utility.yul\":5018:5020   */\n      0x20\n        /* \"#utility.yul\":5007:5016   */\n      dup3\n        /* \"#utility.yul\":5003:5021   */\n      add\n        /* \"#utility.yul\":4995:5021   */\n      swap1\n      pop\n        /* \"#utility.yul\":5067:5076   */\n      dup2\n        /* \"#utility.yul\":5061:5065   */\n      dup2\n        /* \"#utility.yul\":5057:5077   */\n      sub\n        /* \"#utility.yul\":5053:5054   */\n      0x00\n        /* \"#utility.yul\":5042:5051   */\n      dup4\n        /* \"#utility.yul\":5038:5055   */\n      add\n        /* \"#utility.yul\":5031:5078   */\n      mstore\n        /* \"#utility.yul\":5095:5226   */\n      tag_160\n        /* \"#utility.yul\":5221:5225   */\n      dup2\n        /* \"#utility.yul\":5095:5226   */\n      tag_133\n      jump\t// in\n    tag_160:\n        /* \"#utility.yul\":5087:5226   */\n      swap1\n      pop\n        /* \"#utility.yul\":4814:5233   */\n      swap2\n      swap1\n      pop\n      jump\t// out\n        /* \"#utility.yul\":5239:5658   */\n    tag_70:\n        /* \"#utility.yul\":5405:5409   */\n      0x00\n        /* \"#utility.yul\":5443:5445   */\n      0x20\n        /* \"#utility.yul\":5432:5441   */\n      dup3\n        /* \"#utility.yul\":5428:5446   */\n      add\n        /* \"#utility.yul\":5420:5446   */\n      swap1\n      pop\n        /* \"#utility.yul\":5492:5501   */\n      dup2\n        /* \"#utility.yul\":5486:5490   */\n      dup2\n        /* \"#utility.yul\":5482:5502   */\n      sub\n        /* \"#utility.yul\":5478:5479   */\n      0x00\n        /* \"#utility.yul\":5467:5476   */\n      dup4\n        /* \"#utility.yul\":5463:5480   */\n      add\n        /* \"#utility.yul\":5456:5503   */\n      mstore\n        /* \"#utility.yul\":5520:5651   */\n      tag_162\n        /* \"#utility.yul\":5646:5650   */\n      dup2\n        /* \"#utility.yul\":5520:5651   */\n      tag_138\n      jump\t// in\n    tag_162:\n        /* \"#utility.yul\":5512:5651   */\n      swap1\n      pop\n        /* \"#utility.yul\":5239:5658   */\n      swap2\n      swap1\n      pop\n      jump\t// out\n        /* \"#utility.yul\":5664:6083   */\n    tag_50:\n        /* \"#utility.yul\":5830:5834   */\n      0x00\n        /* \"#utility.yul\":5868:5870   */\n      0x20\n        /* \"#utility.yul\":5857:5866   */\n      dup3\n        /* \"#utility.yul\":5853:5871   */\n      add\n        /* \"#utility.yul\":5845:5871   */\n      swap1\n      pop\n        /* \"#utility.yul\":5917:5926   */\n      dup2\n        /* \"#utility.yul\":5911:5915   */\n      dup2\n        /* \"#utility.yul\":5907:5927   */\n      sub\n        /* \"#utility.yul\":5903:5904   */\n      0x00\n        /* \"#utility.yul\":5892:5901   */\n      dup4\n        /* \"#utility.yul\":5888:5905   */\n      add\n        /* \"#utility.yul\":5881:5928   */\n      mstore\n        /* \"#utility.yul\":5945:6076   */\n      tag_164\n        /* \"#utility.yul\":6071:6075   */\n      dup2\n        /* \"#utility.yul\":5945:6076   */\n      tag_143\n      jump\t// in\n    tag_164:\n        /* \"#utility.yul\":5937:6076   */\n      swap1\n      pop\n        /* \"#utility.yul\":5664:6083   */\n      swap2\n      swap1\n      pop\n      jump\t// out\n        /* \"#utility.yul\":6089:6508   */\n    tag_55:\n        /* \"#utility.yul\":6255:6259   */\n      0x00\n        /* \"#utility.yul\":6293:6295   */\n      0x20\n        /* \"#utility.yul\":6282:6291   */\n      dup3\n        /* \"#utility.yul\":6278:6296   */\n      add\n        /* \"#utility.yul\":6270:6296   */\n      swap1\n      pop\n        /* \"#utility.yul\":6342:6351   */\n      dup2\n        /* \"#utility.yul\":6336:6340   */\n      dup2\n        /* \"#utility.yul\":6332:6352   */\n      sub\n        /* \"#utility.yul\":6328:6329   */\n      0x00\n        /* \"#utility.yul\":6317:6326   */\n      dup4\n        /* \"#utility.yul\":6313:6330   */\n      add\n        /* \"#utility.yul\":6306:6353   */\n      mstore\n        /* \"#utility.yul\":6370:6501   */\n      tag_166\n        /* \"#utility.yul\":6496:6500   */\n      dup2\n        /* \"#utility.yul\":6370:6501   */\n      tag_148\n      jump\t// in\n    tag_166:\n        /* \"#utility.yul\":6362:6501   */\n      swap1\n      pop\n        /* \"#utility.yul\":6089:6508   */\n      swap2\n      swap1\n      pop\n      jump\t// out\n        /* \"#utility.yul\":6514:6736   */\n    tag_20:\n        /* \"#utility.yul\":6607:6611   */\n      0x00\n        /* \"#utility.yul\":6645:6647   */\n      0x20\n        /* \"#utility.yul\":6634:6643   */\n      dup3\n        /* \"#utility.yul\":6630:6648   */\n      add\n        /* \"#utility.yul\":6622:6648   */\n      swap1\n      pop\n        /* \"#utility.yul\":6658:6729   */\n      tag_168\n        /* \"#utility.yul\":6726:6727   */\n      0x00\n        /* \"#utility.yul\":6715:6724   */\n      dup4\n        /* \"#utility.yul\":6711:6728   */\n      add\n        /* \"#utility.yul\":6702:6708   */\n      dup5\n        /* \"#utility.yul\":6658:6729   */\n      tag_153\n      jump\t// in\n    tag_168:\n        /* \"#utility.yul\":6514:6736   */\n      swap3\n      swap2\n      pop\n      pop\n      jump\t// out\n        /* \"#utility.yul\":6742:6871   */\n    tag_90:\n        /* \"#utility.yul\":6776:6782   */\n      0x00\n        /* \"#utility.yul\":6803:6823   */\n      tag_170\n      tag_171\n      jump\t// in\n    tag_170:\n        /* \"#utility.yul\":6793:6823   */\n      swap1\n      pop\n        /* \"#utility.yul\":6832:6865   */\n      tag_172\n        /* \"#utility.yul\":6860:6864   */\n      dup3\n        /* \"#utility.yul\":6852:6858   */\n      dup3\n        /* \"#utility.yul\":6832:6865   */\n      tag_173\n      jump\t// in\n    tag_172:\n        /* \"#utility.yul\":6742:6871   */\n      swap2\n      swap1\n      pop\n      jump\t// out\n        /* \"#utility.yul\":6877:6952   */\n    tag_171:\n        /* \"#utility.yul\":6910:6916   */\n      0x00\n        /* \"#utility.yul\":6943:6945   */\n      0x40\n        /* \"#utility.yul\":6937:6946   */\n      mload\n        /* \"#utility.yul\":6927:6946   */\n      swap1\n      pop\n        /* \"#utility.yul\":6877:6952   */\n      swap1\n      jump\t// out\n        /* \"#utility.yul\":6958:7266   */\n    tag_89:\n        /* \"#utility.yul\":7020:7024   */\n      0x00\n        /* \"#utility.yul\":7110:7128   */\n      0xffffffffffffffff\n        /* \"#utility.yul\":7102:7108   */\n      dup3\n        /* \"#utility.yul\":7099:7129   */\n      gt\n        /* \"#utility.yul\":7096:7152   */\n      iszero\n      tag_176\n      jumpi\n        /* \"#utility.yul\":7132:7150   */\n      tag_177\n      tag_178\n      jump\t// in\n    tag_177:\n        /* \"#utility.yul\":7096:7152   */\n    tag_176:\n        /* \"#utility.yul\":7170:7199   */\n      tag_179\n        /* \"#utility.yul\":7192:7198   */\n      dup3\n        /* \"#utility.yul\":7170:7199   */\n      tag_180\n      jump\t// in\n    tag_179:\n        /* \"#utility.yul\":7162:7199   */\n      swap1\n      pop\n        /* \"#utility.yul\":7254:7258   */\n      0x20\n        /* \"#utility.yul\":7248:7252   */\n      dup2\n        /* \"#utility.yul\":7244:7259   */\n      add\n        /* \"#utility.yul\":7236:7259   */\n      swap1\n      pop\n        /* \"#utility.yul\":6958:7266   */\n      swap2\n      swap1\n      pop\n      jump\t// out\n        /* \"#utility.yul\":7272:7441   */\n    tag_130:\n        /* \"#utility.yul\":7356:7367   */\n      0x00\n        /* \"#utility.yul\":7390:7396   */\n      dup3\n        /* \"#utility.yul\":7385:7388   */\n      dup3\n        /* \"#utility.yul\":7378:7397   */\n      mstore\n        /* \"#utility.yul\":7430:7434   */\n      0x20\n        /* \"#utility.yul\":7425:7428   */\n      dup3\n        /* \"#utility.yul\":7421:7435   */\n      add\n        /* \"#utility.yul\":7406:7435   */\n      swap1\n      pop\n        /* \"#utility.yul\":7272:7441   */\n      swap3\n      swap2\n      pop\n      pop\n      jump\t// out\n        /* \"#utility.yul\":7447:7752   */\n    tag_58:\n        /* \"#utility.yul\":7487:7490   */\n      0x00\n        /* \"#utility.yul\":7506:7526   */\n      tag_183\n        /* \"#utility.yul\":7524:7525   */\n      dup3\n        /* \"#utility.yul\":7506:7526   */\n      tag_156\n      jump\t// in\n    tag_183:\n        /* \"#utility.yul\":7501:7526   */\n      swap2\n      pop\n        /* \"#utility.yul\":7540:7560   */\n      tag_184\n        /* \"#utility.yul\":7558:7559   */\n      dup4\n        /* \"#utility.yul\":7540:7560   */\n      tag_156\n      jump\t// in\n    tag_184:\n        /* \"#utility.yul\":7535:7560   */\n      swap3\n      pop\n        /* \"#utility.yul\":7694:7695   */\n      dup3\n        /* \"#utility.yul\":7626:7692   */\n      0xffffffffffffffffffffffffffffffffffffffffffffffffffffffffffffffff\n        /* \"#utility.yul\":7622:7696   */\n      sub\n        /* \"#utility.yul\":7619:7620   */\n      dup3\n        /* \"#utility.yul\":7616:7697   */\n      gt\n        /* \"#utility.yul\":7613:7720   */\n      iszero\n      tag_185\n      jumpi\n        /* \"#utility.yul\":7700:7718   */\n      tag_186\n      tag_187\n      jump\t// in\n    tag_186:\n        /* \"#utility.yul\":7613:7720   */\n    tag_185:\n        /* \"#utility.yul\":7744:7745   */\n      dup3\n        /* \"#utility.yul\":7741:7742   */\n      dup3\n        /* \"#utility.yul\":7737:7746   */\n      add\n        /* \"#utility.yul\":7730:7746   */\n      swap1\n      pop\n        /* \"#utility.yul\":7447:7752   */\n      swap3\n      swap2\n      pop\n      pop\n      jump\t// out\n        /* \"#utility.yul\":7758:7943   */\n    tag_73:\n        /* \"#utility.yul\":7798:7799   */\n      0x00\n        /* \"#utility.yul\":7815:7835   */\n      tag_189\n        /* \"#utility.yul\":7833:7834   */\n      dup3\n        /* \"#utility.yul\":7815:7835   */\n      tag_156\n      jump\t// in\n    tag_189:\n        /* \"#utility.yul\":7810:7835   */\n      swap2\n      pop\n        /* \"#utility.yul\":7849:7869   */\n      tag_190\n        /* \"#utility.yul\":7867:7868   */\n      dup4\n        /* \"#utility.yul\":7849:7869   */\n      tag_156\n      jump\t// in\n    tag_190:\n        /* \"#utility.yul\":7844:7869   */\n      swap3\n      pop\n        /* \"#utility.yul\":7888:7889   */\n      dup3\n        /* \"#utility.yul\":7878:7913   */\n      tag_191\n      jumpi\n        /* \"#utility.yul\":7893:7911   */\n      tag_192\n      tag_193\n      jump\t// in\n    tag_192:\n        /* \"#utility.yul\":7878:7913   */\n    tag_191:\n        /* \"#utility.yul\":7935:7936   */\n      dup3\n        /* \"#utility.yul\":7932:7933   */\n      dup3\n        /* \"#utility.yul\":7928:7937   */\n      div\n        /* \"#utility.yul\":7923:7937   */\n      swap1\n      pop\n        /* \"#utility.yul\":7758:7943   */\n      swap3\n      swap2\n      pop\n      pop\n      jump\t// out\n        /* \"#utility.yul\":7949:8297   */\n    tag_52:\n        /* \"#utility.yul\":7989:7996   */\n      0x00\n        /* \"#utility.yul\":8012:8032   */\n      tag_195\n        /* \"#utility.yul\":8030:8031   */\n      dup3\n        /* \"#utility.yul\":8012:8032   */\n      tag_156\n      jump\t// in\n    tag_195:\n        /* \"#utility.yul\":8007:8032   */\n      swap2\n      pop\n        /* \"#utility.yul\":8046:8066   */\n      tag_196\n        /* \"#utility.yul\":8064:8065   */\n      dup4\n        /* \"#utility.yul\":8046:8066   */\n      tag_156\n      jump\t// in\n    tag_196:\n        /* \"#utility.yul\":8041:8066   */\n      swap3\n      pop\n        /* \"#utility.yul\":8234:8235   */\n      dup2\n        /* \"#utility.yul\":8166:8232   */\n      0xffffffffffffffffffffffffffffffffffffffffffffffffffffffffffffffff\n        /* \"#utility.yul\":8162:8236   */\n      div\n        /* \"#utility.yul\":8159:8160   */\n      dup4\n        /* \"#utility.yul\":8156:8237   */\n      gt\n        /* \"#utility.yul\":8151:8152   */\n      dup3\n        /* \"#utility.yul\":8144:8153   */\n      iszero\n        /* \"#utility.yul\":8137:8154   */\n      iszero\n        /* \"#utility.yul\":8133:8238   */\n      and\n        /* \"#utility.yul\":8130:8261   */\n      iszero\n      tag_197\n      jumpi\n        /* \"#utility.yul\":8241:8259   */\n      tag_198\n      tag_187\n      jump\t// in\n    tag_198:\n        /* \"#utility.yul\":8130:8261   */\n    tag_197:\n        /* \"#utility.yul\":8289:8290   */\n      dup3\n        /* \"#utility.yul\":8286:8287   */\n      dup3\n        /* \"#utility.yul\":8282:8291   */\n      mul\n        /* \"#utility.yul\":8271:8291   */\n      swap1\n      pop\n        /* \"#utility.yul\":7949:8297   */\n      swap3\n      swap2\n      pop\n      pop\n      jump\t// out\n        /* \"#utility.yul\":8303:8399   */\n    tag_199:\n        /* \"#utility.yul\":8340:8347   */\n      0x00\n        /* \"#utility.yul\":8369:8393   */\n      tag_201\n        /* \"#utility.yul\":8387:8392   */\n      dup3\n        /* \"#utility.yul\":8369:8393   */\n      tag_202\n      jump\t// in\n    tag_201:\n        /* \"#utility.yul\":8358:8393   */\n      swap1\n      pop\n        /* \"#utility.yul\":8303:8399   */\n      swap2\n      swap1\n      pop\n      jump\t// out\n        /* \"#utility.yul\":8405:8531   */\n    tag_202:\n        /* \"#utility.yul\":8442:8449   */\n      0x00\n        /* \"#utility.yul\":8482:8524   */\n      0xffffffffffffffffffffffffffffffffffffffff\n        /* \"#utility.yul\":8475:8480   */\n      dup3\n        /* \"#utility.yul\":8471:8525   */\n      and\n        /* \"#utility.yul\":8460:8525   */\n      swap1\n      pop\n        /* \"#utility.yul\":8405:8531   */\n      swap2\n      swap1\n      pop\n      jump\t// out\n        /* \"#utility.yul\":8537:8614   */\n    tag_156:\n        /* \"#utility.yul\":8574:8581   */\n      0x00\n        /* \"#utility.yul\":8603:8608   */\n      dup2\n        /* \"#utility.yul\":8592:8608   */\n      swap1\n      pop\n        /* \"#utility.yul\":8537:8614   */\n      swap2\n      swap1\n      pop\n      jump\t// out\n        /* \"#utility.yul\":8620:8774   */\n    tag_95:\n        /* \"#utility.yul\":8704:8710   */\n      dup3\n        /* \"#utility.yul\":8699:8702   */\n      dup2\n        /* \"#utility.yul\":8694:8697   */\n      dup4\n        /* \"#utility.yul\":8681:8711   */\n      calldatacopy\n        /* \"#utility.yul\":8766:8767   */\n      0x00\n        /* \"#utility.yul\":8757:8763   */\n      dup4\n        /* \"#utility.yul\":8752:8755   */\n      dup4\n        /* \"#utility.yul\":8748:8764   */\n      add\n        /* \"#utility.yul\":8741:8768   */\n      mstore\n        /* \"#utility.yul\":8620:8774   */\n      pop\n      pop\n      pop\n      jump\t// out\n        /* \"#utility.yul\":8780:9100   */\n    tag_37:\n        /* \"#utility.yul\":8824:8830   */\n      0x00\n        /* \"#utility.yul\":8861:8862   */\n      0x02\n        /* \"#utility.yul\":8855:8859   */\n      dup3\n        /* \"#utility.yul\":8851:8863   */\n      div\n        /* \"#utility.yul\":8841:8863   */\n      swap1\n      pop\n        /* \"#utility.yul\":8908:8909   */\n      0x01\n        /* \"#utility.yul\":8902:8906   */\n      dup3\n        /* \"#utility.yul\":8898:8910   */\n      and\n        /* \"#utility.yul\":8929:8947   */\n      dup1\n        /* \"#utility.yul\":8919:9000   */\n      tag_207\n      jumpi\n        /* \"#utility.yul\":8985:8989   */\n      0x7f\n        /* \"#utility.yul\":8977:8983   */\n      dup3\n        /* \"#utility.yul\":8973:8990   */\n      and\n        /* \"#utility.yul\":8963:8990   */\n      swap2\n      pop\n        /* \"#utility.yul\":8919:9000   */\n    tag_207:\n        /* \"#utility.yul\":9047:9049   */\n      0x20\n        /* \"#utility.yul\":9039:9045   */\n      dup3\n        /* \"#utility.yul\":9036:9050   */\n      lt\n        /* \"#utility.yul\":9016:9034   */\n      dup2\n        /* \"#utility.yul\":9013:9051   */\n      eq\n        /* \"#utility.yul\":9010:9094   */\n      iszero\n      tag_208\n      jumpi\n        /* \"#utility.yul\":9066:9084   */\n      tag_209\n      tag_210\n      jump\t// in\n    tag_209:\n        /* \"#utility.yul\":9010:9094   */\n    tag_208:\n        /* \"#utility.yul\":8831:9100   */\n      pop\n        /* \"#utility.yul\":8780:9100   */\n      swap2\n      swap1\n      pop\n      jump\t// out\n        /* \"#utility.yul\":9106:9387   */\n    tag_173:\n        /* \"#utility.yul\":9189:9216   */\n      tag_212\n        /* \"#utility.yul\":9211:9215   */\n      dup3\n        /* \"#utility.yul\":9189:9216   */\n      tag_180\n      jump\t// in\n    tag_212:\n        /* \"#utility.yul\":9181:9187   */\n      dup2\n        /* \"#utility.yul\":9177:9217   */\n      add\n        /* \"#utility.yul\":9319:9325   */\n      dup2\n        /* \"#utility.yul\":9307:9317   */\n      dup2\n        /* \"#utility.yul\":9304:9326   */\n      lt\n        /* \"#utility.yul\":9283:9301   */\n      0xffffffffffffffff\n        /* \"#utility.yul\":9271:9281   */\n      dup3\n        /* \"#utility.yul\":9268:9302   */\n      gt\n        /* \"#utility.yul\":9265:9327   */\n      or\n        /* \"#utility.yul\":9262:9350   */\n      iszero\n      tag_213\n      jumpi\n        /* \"#utility.yul\":9330:9348   */\n      tag_214\n      tag_178\n      jump\t// in\n    tag_214:\n        /* \"#utility.yul\":9262:9350   */\n    tag_213:\n        /* \"#utility.yul\":9370:9380   */\n      dup1\n        /* \"#utility.yul\":9366:9368   */\n      0x40\n        /* \"#utility.yul\":9359:9381   */\n      mstore\n        /* \"#utility.yul\":9149:9387   */\n      pop\n        /* \"#utility.yul\":9106:9387   */\n      pop\n      pop\n      jump\t// out\n        /* \"#utility.yul\":9393:9573   */\n    tag_187:\n        /* \"#utility.yul\":9441:9518   */\n      0x4e487b7100000000000000000000000000000000000000000000000000000000\n        /* \"#utility.yul\":9438:9439   */\n      0x00\n        /* \"#utility.yul\":9431:9519   */\n      mstore\n        /* \"#utility.yul\":9538:9542   */\n      0x11\n        /* \"#utility.yul\":9535:9536   */\n      0x04\n        /* \"#utility.yul\":9528:9543   */\n      mstore\n        /* \"#utility.yul\":9562:9566   */\n      0x24\n        /* \"#utility.yul\":9559:9560   */\n      0x00\n        /* \"#utility.yul\":9552:9567   */\n      revert\n        /* \"#utility.yul\":9579:9759   */\n    tag_193:\n        /* \"#utility.yul\":9627:9704   */\n      0x4e487b7100000000000000000000000000000000000000000000000000000000\n        /* \"#utility.yul\":9624:9625   */\n      0x00\n        /* \"#utility.yul\":9617:9705   */\n      mstore\n        /* \"#utility.yul\":9724:9728   */\n      0x12\n        /* \"#utility.yul\":9721:9722   */\n      0x04\n        /* \"#utility.yul\":9714:9729   */\n      mstore\n        /* \"#utility.yul\":9748:9752   */\n      0x24\n        /* \"#utility.yul\":9745:9746   */\n      0x00\n        /* \"#utility.yul\":9738:9753   */\n      revert\n        /* \"#utility.yul\":9765:9945   */\n    tag_210:\n        /* \"#utility.yul\":9813:9890   */\n      0x4e487b7100000000000000000000000000000000000000000000000000000000\n        /* \"#utility.yul\":9810:9811   */\n      0x00\n        /* \"#utility.yul\":9803:9891   */\n      mstore\n        /* \"#utility.yul\":9910:9914   */\n      0x22\n        /* \"#utility.yul\":9907:9908   */\n      0x04\n        /* \"#utility.yul\":9900:9915   */\n      mstore\n        /* \"#utility.yul\":9934:9938   */\n      0x24\n        /* \"#utility.yul\":9931:9932   */\n      0x00\n        /* \"#utility.yul\":9924:9939   */\n      revert\n        /* \"#utility.yul\":9951:10131   */\n    tag_34:\n        /* \"#utility.yul\":9999:10076   */\n      0x4e487b7100000000000000000000000000000000000000000000000000000000\n        /* \"#utility.yul\":9996:9997   */\n      0x00\n        /* \"#utility.yul\":9989:10077   */\n      mstore\n        /* \"#utility.yul\":10096:10100   */\n      0x32\n        /* \"#utility.yul\":10093:10094   */\n      0x04\n        /* \"#utility.yul\":10086:10101   */\n      mstore\n        /* \"#utility.yul\":10120:10124   */\n      0x24\n        /* \"#utility.yul\":10117:10118   */\n      0x00\n        /* \"#utility.yul\":10110:10125   */\n      revert\n        /* \"#utility.yul\":10137:10317   */\n    tag_178:\n        /* \"#utility.yul\":10185:10262   */\n      0x4e487b7100000000000000000000000000000000000000000000000000000000\n        /* \"#utility.yul\":10182:10183   */\n      0x00\n        /* \"#utility.yul\":10175:10263   */\n      mstore\n        /* \"#utility.yul\":10282:10286   */\n      0x41\n        /* \"#utility.yul\":10279:10280   */\n      0x04\n        /* \"#utility.yul\":10272:10287   */\n      mstore\n        /* \"#utility.yul\":10306:10310   */\n      0x24\n        /* \"#utility.yul\":10303:10304   */\n      0x00\n        /* \"#utility.yul\":10296:10311   */\n      revert\n        /* \"#utility.yul\":10323:10440   */\n    tag_104:\n        /* \"#utility.yul\":10432:10433   */\n      0x00\n        /* \"#utility.yul\":10429:10430   */\n      dup1\n        /* \"#utility.yul\":10422:10434   */\n      revert\n        /* \"#utility.yul\":10446:10563   */\n    tag_93:\n        /* \"#utility.yul\":10555:10556   */\n      0x00\n        /* \"#utility.yul\":10552:10553   */\n      dup1\n        /* \"#utility.yul\":10545:10557   */\n      revert\n        /* \"#utility.yul\":10569:10686   */\n    tag_120:\n        /* \"#utility.yul\":10678:10679   */\n      0x00\n        /* \"#utility.yul\":10675:10676   */\n      dup1\n        /* \"#utility.yul\":10668:10680   */\n      revert\n        /* \"#utility.yul\":10692:10809   */\n    tag_113:\n        /* \"#utility.yul\":10801:10802   */\n      0x00\n        /* \"#utility.yul\":10798:10799   */\n      dup1\n        /* \"#utility.yul\":10791:10803   */\n      revert\n        /* \"#utility.yul\":10815:10917   */\n    tag_180:\n        /* \"#utility.yul\":10856:10862   */\n      0x00\n        /* \"#utility.yul\":10907:10909   */\n      0x1f\n        /* \"#utility.yul\":10903:10910   */\n      not\n        /* \"#utility.yul\":10898:10900   */\n      0x1f\n        /* \"#utility.yul\":10891:10896   */\n      dup4\n        /* \"#utility.yul\":10887:10901   */\n      add\n        /* \"#utility.yul\":10883:10911   */\n      and\n        /* \"#utility.yul\":10873:10911   */\n      swap1\n      pop\n        /* \"#utility.yul\":10815:10917   */\n      swap2\n      swap1\n      pop\n      jump\t// out\n        /* \"#utility.yul\":10923:11103   */\n    tag_132:\n        /* \"#utility.yul\":11063:11095   */\n      0x596f752063616e277420626964206f6e20796f7572206f776e20706f73740000\n        /* \"#utility.yul\":11059:11060   */\n      0x00\n        /* \"#utility.yul\":11051:11057   */\n      dup3\n        /* \"#utility.yul\":11047:11061   */\n      add\n        /* \"#utility.yul\":11040:11096   */\n      mstore\n        /* \"#utility.yul\":10923:11103   */\n      pop\n      jump\t// out\n        /* \"#utility.yul\":11109:11280   */\n    tag_137:\n        /* \"#utility.yul\":11249:11272   */\n      0x496e76616c696420616d6f756e74206f66204269640000000000000000000000\n        /* \"#utility.yul\":11245:11246   */\n      0x00\n        /* \"#utility.yul\":11237:11243   */\n      dup3\n        /* \"#utility.yul\":11233:11247   */\n      add\n        /* \"#utility.yul\":11226:11273   */\n      mstore\n        /* \"#utility.yul\":11109:11280   */\n      pop\n      jump\t// out\n        /* \"#utility.yul\":11286:11461   */\n    tag_142:\n        /* \"#utility.yul\":11426:11453   */\n      0x596f7520646f6e27742068617665207065726d697373696f6e00000000000000\n        /* \"#utility.yul\":11422:11423   */\n      0x00\n        /* \"#utility.yul\":11414:11420   */\n      dup3\n        /* \"#utility.yul\":11410:11424   */\n      add\n        /* \"#utility.yul\":11403:11454   */\n      mstore\n        /* \"#utility.yul\":11286:11461   */\n      pop\n      jump\t// out\n        /* \"#utility.yul\":11467:11641   */\n    tag_147:\n        /* \"#utility.yul\":11607:11633   */\n      0x546869732061756374696f6e2069732066696e69736865640000000000000000\n        /* \"#utility.yul\":11603:11604   */\n      0x00\n        /* \"#utility.yul\":11595:11601   */\n      dup3\n        /* \"#utility.yul\":11591:11605   */\n      add\n        /* \"#utility.yul\":11584:11634   */\n      mstore\n        /* \"#utility.yul\":11467:11641   */\n      pop\n      jump\t// out\n        /* \"#utility.yul\":11647:11878   */\n    tag_152:\n        /* \"#utility.yul\":11787:11821   */\n      0x5468697320626964206e6565647320746f206265206d6f7265207468616e206d\n        /* \"#utility.yul\":11783:11784   */\n      0x00\n        /* \"#utility.yul\":11775:11781   */\n      dup3\n        /* \"#utility.yul\":11771:11785   */\n      add\n        /* \"#utility.yul\":11764:11822   */\n      mstore\n        /* \"#utility.yul\":11856:11870   */\n      0x696e206269642076616c75650000000000000000000000000000000000000000\n        /* \"#utility.yul\":11851:11853   */\n      0x20\n        /* \"#utility.yul\":11843:11849   */\n      dup3\n        /* \"#utility.yul\":11839:11854   */\n      add\n        /* \"#utility.yul\":11832:11871   */\n      mstore\n        /* \"#utility.yul\":11647:11878   */\n      pop\n      jump\t// out\n        /* \"#utility.yul\":11884:12006   */\n    tag_99:\n        /* \"#utility.yul\":11957:11981   */\n      tag_231\n        /* \"#utility.yul\":11975:11980   */\n      dup2\n        /* \"#utility.yul\":11957:11981   */\n      tag_199\n      jump\t// in\n    tag_231:\n        /* \"#utility.yul\":11950:11955   */\n      dup2\n        /* \"#utility.yul\":11947:11982   */\n      eq\n        /* \"#utility.yul\":11937:12000   */\n      tag_232\n      jumpi\n        /* \"#utility.yul\":11996:11997   */\n      0x00\n        /* \"#utility.yul\":11993:11994   */\n      dup1\n        /* \"#utility.yul\":11986:11998   */\n      revert\n        /* \"#utility.yul\":11937:12000   */\n    tag_232:\n        /* \"#utility.yul\":11884:12006   */\n      pop\n      jump\t// out\n        /* \"#utility.yul\":12012:12134   */\n    tag_109:\n        /* \"#utility.yul\":12085:12109   */\n      tag_234\n        /* \"#utility.yul\":12103:12108   */\n      dup2\n        /* \"#utility.yul\":12085:12109   */\n      tag_156\n      jump\t// in\n    tag_234:\n        /* \"#utility.yul\":12078:12083   */\n      dup2\n        /* \"#utility.yul\":12075:12110   */\n      eq\n        /* \"#utility.yul\":12065:12128   */\n      tag_235\n      jumpi\n        /* \"#utility.yul\":12124:12125   */\n      0x00\n        /* \"#utility.yul\":12121:12122   */\n      dup1\n        /* \"#utility.yul\":12114:12126   */\n      revert\n        /* \"#utility.yul\":12065:12128   */\n    tag_235:\n        /* \"#utility.yul\":12012:12134   */\n      pop\n      jump\t// out\n\n    auxdata: 0xa26469706673582212206ef580b01401130126c648278dcdcc9410c23c5375987e775df1a2f3b7d346f264736f6c63430008070033\n}\n",
				"bytecode": {
					"linkReferences": {},
					"object": "608060405234801561001057600080fd5b50610f99806100206000396000f3fe60806040526004361061003f5760003560e01c80631252cb4814610044578063659dd2b41461006d5780638e5bc60614610089578063f8b2cb4f146100c6575b600080fd5b34801561005057600080fd5b5061006b6004803603810190610066919061093a565b610103565b005b61008760048036038101906100829190610996565b6101e3565b005b34801561009557600080fd5b506100b060048036038101906100ab9190610996565b6105b5565b6040516100bd9190610b21565b60405180910390f35b3480156100d257600080fd5b506100ed60048036038101906100e8919061090d565b610774565b6040516100fa9190610b21565b60405180910390f35b600060405180608001604052803373ffffffffffffffffffffffffffffffffffffffff16815260200183815260200184815260200142815250908060018154018082558091505060019003906000526020600020906004020160009091909190915060008201518160000160006101000a81548173ffffffffffffffffffffffffffffffffffffffff021916908373ffffffffffffffffffffffffffffffffffffffff1602179055506020820151816001015560408201518160020190805190602001906101d29291906107d0565b506060820151816003015550505050565b60008082815481106101f8576101f7610dbf565b5b90600052602060002090600402016040518060800160405290816000820160009054906101000a900473ffffffffffffffffffffffffffffffffffffffff1673ffffffffffffffffffffffffffffffffffffffff1673ffffffffffffffffffffffffffffffffffffffff1681526020016001820154815260200160028201805461028190610ccf565b80601f01602080910402602001604051908101604052809291908181526020018280546102ad90610ccf565b80156102fa5780601f106102cf576101008083540402835291602001916102fa565b820191906000526020600020905b8154815290600101906020018083116102dd57829003601f168201915b505050505081526020016003820154815250509050806000015173ffffffffffffffffffffffffffffffffffffffff163373ffffffffffffffffffffffffffffffffffffffff161415610382576040517f08c379a000000000000000000000000000000000000000000000000000000000815260040161037990610a81565b60405180910390fd5b60003414156103c6576040517f08c379a00000000000000000000000000000000000000000000000000000000081526004016103bd90610aa1565b60405180910390fd5b61019081606001511061040e576040517f08c379a000000000000000000000000000000000000000000000000000000000815260040161040590610ae1565b60405180910390fd5b670de0b6b3a764000081602001516104269190610c2a565b341015610468576040517f08c379a000000000000000000000000000000000000000000000000000000000815260040161045f90610b01565b60405180910390fd5b6001600083815260200190815260200160002060405180608001604052803373ffffffffffffffffffffffffffffffffffffffff16815260200134815260200142815260200160001515815250908060018154018082558091505060019003906000526020600020906004020160009091909190915060008201518160000160006101000a81548173ffffffffffffffffffffffffffffffffffffffff021916908373ffffffffffffffffffffffffffffffffffffffff160217905550602082015181600101556040820151816002015560608201518160030160006101000a81548160ff021916908315150217905550505034600260003073ffffffffffffffffffffffffffffffffffffffff1673ffffffffffffffffffffffffffffffffffffffff16815260200190815260200160002060008282546105aa9190610ba3565b925050819055505050565b600080600083815481106105cc576105cb610dbf565b5b90600052602060002090600402016040518060800160405290816000820160009054906101000a900473ffffffffffffffffffffffffffffffffffffffff1673ffffffffffffffffffffffffffffffffffffffff1673ffffffffffffffffffffffffffffffffffffffff1681526020016001820154815260200160028201805461065590610ccf565b80601f016020809104026020016040519081016040528092919081815260200182805461068190610ccf565b80156106ce5780601f106106a3576101008083540402835291602001916106ce565b820191906000526020600020905b8154815290600101906020018083116106b157829003601f168201915b505050505081526020016003820154815250509050806000015173ffffffffffffffffffffffffffffffffffffffff163373ffffffffffffffffffffffffffffffffffffffff1614610755576040517f08c379a000000000000000000000000000000000000000000000000000000000815260040161074c90610ac1565b60405180910390fd5b6001600084815260200190815260200160002080549050915050919050565b6000670de0b6b3a7640000600260008473ffffffffffffffffffffffffffffffffffffffff1673ffffffffffffffffffffffffffffffffffffffff168152602001908152602001600020546107c99190610bf9565b9050919050565b8280546107dc90610ccf565b90600052602060002090601f0160209004810192826107fe5760008555610845565b82601f1061081757805160ff1916838001178555610845565b82800160010185558215610845579182015b82811115610844578251825591602001919060010190610829565b5b5090506108529190610856565b5090565b5b8082111561086f576000816000905550600101610857565b5090565b600061088661088184610b61565b610b3c565b9050828152602081018484840111156108a2576108a1610e22565b5b6108ad848285610cc0565b509392505050565b6000813590506108c481610f35565b92915050565b600082601f8301126108df576108de610e1d565b5b81356108ef848260208601610873565b91505092915050565b60008135905061090781610f4c565b92915050565b60006020828403121561092357610922610e2c565b5b6000610931848285016108b5565b91505092915050565b6000806040838503121561095157610950610e2c565b5b600083013567ffffffffffffffff81111561096f5761096e610e27565b5b61097b858286016108ca565b925050602061098c858286016108f8565b9150509250929050565b6000602082840312156109ac576109ab610e2c565b5b60006109ba848285016108f8565b91505092915050565b60006109d0601e83610b92565b91506109db82610e42565b602082019050919050565b60006109f3601583610b92565b91506109fe82610e6b565b602082019050919050565b6000610a16601983610b92565b9150610a2182610e94565b602082019050919050565b6000610a39601883610b92565b9150610a4482610ebd565b602082019050919050565b6000610a5c602c83610b92565b9150610a6782610ee6565b604082019050919050565b610a7b81610cb6565b82525050565b60006020820190508181036000830152610a9a816109c3565b9050919050565b60006020820190508181036000830152610aba816109e6565b9050919050565b60006020820190508181036000830152610ada81610a09565b9050919050565b60006020820190508181036000830152610afa81610a2c565b9050919050565b60006020820190508181036000830152610b1a81610a4f565b9050919050565b6000602082019050610b366000830184610a72565b92915050565b6000610b46610b57565b9050610b528282610d01565b919050565b6000604051905090565b600067ffffffffffffffff821115610b7c57610b7b610dee565b5b610b8582610e31565b9050602081019050919050565b600082825260208201905092915050565b6000610bae82610cb6565b9150610bb983610cb6565b9250827fffffffffffffffffffffffffffffffffffffffffffffffffffffffffffffffff03821115610bee57610bed610d32565b5b828201905092915050565b6000610c0482610cb6565b9150610c0f83610cb6565b925082610c1f57610c1e610d61565b5b828204905092915050565b6000610c3582610cb6565b9150610c4083610cb6565b9250817fffffffffffffffffffffffffffffffffffffffffffffffffffffffffffffffff0483118215151615610c7957610c78610d32565b5b828202905092915050565b6000610c8f82610c96565b9050919050565b600073ffffffffffffffffffffffffffffffffffffffff82169050919050565b6000819050919050565b82818337600083830152505050565b60006002820490506001821680610ce757607f821691505b60208210811415610cfb57610cfa610d90565b5b50919050565b610d0a82610e31565b810181811067ffffffffffffffff82111715610d2957610d28610dee565b5b80604052505050565b7f4e487b7100000000000000000000000000000000000000000000000000000000600052601160045260246000fd5b7f4e487b7100000000000000000000000000000000000000000000000000000000600052601260045260246000fd5b7f4e487b7100000000000000000000000000000000000000000000000000000000600052602260045260246000fd5b7f4e487b7100000000000000000000000000000000000000000000000000000000600052603260045260246000fd5b7f4e487b7100000000000000000000000000000000000000000000000000000000600052604160045260246000fd5b600080fd5b600080fd5b600080fd5b600080fd5b6000601f19601f8301169050919050565b7f596f752063616e277420626964206f6e20796f7572206f776e20706f73740000600082015250565b7f496e76616c696420616d6f756e74206f66204269640000000000000000000000600082015250565b7f596f7520646f6e27742068617665207065726d697373696f6e00000000000000600082015250565b7f546869732061756374696f6e2069732066696e69736865640000000000000000600082015250565b7f5468697320626964206e6565647320746f206265206d6f7265207468616e206d60008201527f696e206269642076616c75650000000000000000000000000000000000000000602082015250565b610f3e81610c84565b8114610f4957600080fd5b50565b610f5581610cb6565b8114610f6057600080fd5b5056fea26469706673582212206ef580b01401130126c648278dcdcc9410c23c5375987e775df1a2f3b7d346f264736f6c63430008070033",
					"opcodes": "PUSH1 0x80 PUSH1 0x40 MSTORE CALLVALUE DUP1 ISZERO PUSH2 0x10 JUMPI PUSH1 0x0 DUP1 REVERT JUMPDEST POP PUSH2 0xF99 DUP1 PUSH2 0x20 PUSH1 0x0 CODECOPY PUSH1 0x0 RETURN INVALID PUSH1 0x80 PUSH1 0x40 MSTORE PUSH1 0x4 CALLDATASIZE LT PUSH2 0x3F JUMPI PUSH1 0x0 CALLDATALOAD PUSH1 0xE0 SHR DUP1 PUSH4 0x1252CB48 EQ PUSH2 0x44 JUMPI DUP1 PUSH4 0x659DD2B4 EQ PUSH2 0x6D JUMPI DUP1 PUSH4 0x8E5BC606 EQ PUSH2 0x89 JUMPI DUP1 PUSH4 0xF8B2CB4F EQ PUSH2 0xC6 JUMPI JUMPDEST PUSH1 0x0 DUP1 REVERT JUMPDEST CALLVALUE DUP1 ISZERO PUSH2 0x50 JUMPI PUSH1 0x0 DUP1 REVERT JUMPDEST POP PUSH2 0x6B PUSH1 0x4 DUP1 CALLDATASIZE SUB DUP2 ADD SWAP1 PUSH2 0x66 SWAP2 SWAP1 PUSH2 0x93A JUMP JUMPDEST PUSH2 0x103 JUMP JUMPDEST STOP JUMPDEST PUSH2 0x87 PUSH1 0x4 DUP1 CALLDATASIZE SUB DUP2 ADD SWAP1 PUSH2 0x82 SWAP2 SWAP1 PUSH2 0x996 JUMP JUMPDEST PUSH2 0x1E3 JUMP JUMPDEST STOP JUMPDEST CALLVALUE DUP1 ISZERO PUSH2 0x95 JUMPI PUSH1 0x0 DUP1 REVERT JUMPDEST POP PUSH2 0xB0 PUSH1 0x4 DUP1 CALLDATASIZE SUB DUP2 ADD SWAP1 PUSH2 0xAB SWAP2 SWAP1 PUSH2 0x996 JUMP JUMPDEST PUSH2 0x5B5 JUMP JUMPDEST PUSH1 0x40 MLOAD PUSH2 0xBD SWAP2 SWAP1 PUSH2 0xB21 JUMP JUMPDEST PUSH1 0x40 MLOAD DUP1 SWAP2 SUB SWAP1 RETURN JUMPDEST CALLVALUE DUP1 ISZERO PUSH2 0xD2 JUMPI PUSH1 0x0 DUP1 REVERT JUMPDEST POP PUSH2 0xED PUSH1 0x4 DUP1 CALLDATASIZE SUB DUP2 ADD SWAP1 PUSH2 0xE8 SWAP2 SWAP1 PUSH2 0x90D JUMP JUMPDEST PUSH2 0x774 JUMP JUMPDEST PUSH1 0x40 MLOAD PUSH2 0xFA SWAP2 SWAP1 PUSH2 0xB21 JUMP JUMPDEST PUSH1 0x40 MLOAD DUP1 SWAP2 SUB SWAP1 RETURN JUMPDEST PUSH1 0x0 PUSH1 0x40 MLOAD DUP1 PUSH1 0x80 ADD PUSH1 0x40 MSTORE DUP1 CALLER PUSH20 0xFFFFFFFFFFFFFFFFFFFFFFFFFFFFFFFFFFFFFFFF AND DUP2 MSTORE PUSH1 0x20 ADD DUP4 DUP2 MSTORE PUSH1 0x20 ADD DUP5 DUP2 MSTORE PUSH1 0x20 ADD TIMESTAMP DUP2 MSTORE POP SWAP1 DUP1 PUSH1 0x1 DUP2 SLOAD ADD DUP1 DUP3 SSTORE DUP1 SWAP2 POP POP PUSH1 0x1 SWAP1 SUB SWAP1 PUSH1 0x0 MSTORE PUSH1 0x20 PUSH1 0x0 KECCAK256 SWAP1 PUSH1 0x4 MUL ADD PUSH1 0x0 SWAP1 SWAP2 SWAP1 SWAP2 SWAP1 SWAP2 POP PUSH1 0x0 DUP3 ADD MLOAD DUP2 PUSH1 0x0 ADD PUSH1 0x0 PUSH2 0x100 EXP DUP2 SLOAD DUP2 PUSH20 0xFFFFFFFFFFFFFFFFFFFFFFFFFFFFFFFFFFFFFFFF MUL NOT AND SWAP1 DUP4 PUSH20 0xFFFFFFFFFFFFFFFFFFFFFFFFFFFFFFFFFFFFFFFF AND MUL OR SWAP1 SSTORE POP PUSH1 0x20 DUP3 ADD MLOAD DUP2 PUSH1 0x1 ADD SSTORE PUSH1 0x40 DUP3 ADD MLOAD DUP2 PUSH1 0x2 ADD SWAP1 DUP1 MLOAD SWAP1 PUSH1 0x20 ADD SWAP1 PUSH2 0x1D2 SWAP3 SWAP2 SWAP1 PUSH2 0x7D0 JUMP JUMPDEST POP PUSH1 0x60 DUP3 ADD MLOAD DUP2 PUSH1 0x3 ADD SSTORE POP POP POP POP JUMP JUMPDEST PUSH1 0x0 DUP1 DUP3 DUP2 SLOAD DUP2 LT PUSH2 0x1F8 JUMPI PUSH2 0x1F7 PUSH2 0xDBF JUMP JUMPDEST JUMPDEST SWAP1 PUSH1 0x0 MSTORE PUSH1 0x20 PUSH1 0x0 KECCAK256 SWAP1 PUSH1 0x4 MUL ADD PUSH1 0x40 MLOAD DUP1 PUSH1 0x80 ADD PUSH1 0x40 MSTORE SWAP1 DUP2 PUSH1 0x0 DUP3 ADD PUSH1 0x0 SWAP1 SLOAD SWAP1 PUSH2 0x100 EXP SWAP1 DIV PUSH20 0xFFFFFFFFFFFFFFFFFFFFFFFFFFFFFFFFFFFFFFFF AND PUSH20 0xFFFFFFFFFFFFFFFFFFFFFFFFFFFFFFFFFFFFFFFF AND PUSH20 0xFFFFFFFFFFFFFFFFFFFFFFFFFFFFFFFFFFFFFFFF AND DUP2 MSTORE PUSH1 0x20 ADD PUSH1 0x1 DUP3 ADD SLOAD DUP2 MSTORE PUSH1 0x20 ADD PUSH1 0x2 DUP3 ADD DUP1 SLOAD PUSH2 0x281 SWAP1 PUSH2 0xCCF JUMP JUMPDEST DUP1 PUSH1 0x1F ADD PUSH1 0x20 DUP1 SWAP2 DIV MUL PUSH1 0x20 ADD PUSH1 0x40 MLOAD SWAP1 DUP2 ADD PUSH1 0x40 MSTORE DUP1 SWAP3 SWAP2 SWAP1 DUP2 DUP2 MSTORE PUSH1 0x20 ADD DUP3 DUP1 SLOAD PUSH2 0x2AD SWAP1 PUSH2 0xCCF JUMP JUMPDEST DUP1 ISZERO PUSH2 0x2FA JUMPI DUP1 PUSH1 0x1F LT PUSH2 0x2CF JUMPI PUSH2 0x100 DUP1 DUP4 SLOAD DIV MUL DUP4 MSTORE SWAP2 PUSH1 0x20 ADD SWAP2 PUSH2 0x2FA JUMP JUMPDEST DUP3 ADD SWAP2 SWAP1 PUSH1 0x0 MSTORE PUSH1 0x20 PUSH1 0x0 KECCAK256 SWAP1 JUMPDEST DUP2 SLOAD DUP2 MSTORE SWAP1 PUSH1 0x1 ADD SWAP1 PUSH1 0x20 ADD DUP1 DUP4 GT PUSH2 0x2DD JUMPI DUP3 SWAP1 SUB PUSH1 0x1F AND DUP3 ADD SWAP2 JUMPDEST POP POP POP POP POP DUP2 MSTORE PUSH1 0x20 ADD PUSH1 0x3 DUP3 ADD SLOAD DUP2 MSTORE POP POP SWAP1 POP DUP1 PUSH1 0x0 ADD MLOAD PUSH20 0xFFFFFFFFFFFFFFFFFFFFFFFFFFFFFFFFFFFFFFFF AND CALLER PUSH20 0xFFFFFFFFFFFFFFFFFFFFFFFFFFFFFFFFFFFFFFFF AND EQ ISZERO PUSH2 0x382 JUMPI PUSH1 0x40 MLOAD PUSH32 0x8C379A000000000000000000000000000000000000000000000000000000000 DUP2 MSTORE PUSH1 0x4 ADD PUSH2 0x379 SWAP1 PUSH2 0xA81 JUMP JUMPDEST PUSH1 0x40 MLOAD DUP1 SWAP2 SUB SWAP1 REVERT JUMPDEST PUSH1 0x0 CALLVALUE EQ ISZERO PUSH2 0x3C6 JUMPI PUSH1 0x40 MLOAD PUSH32 0x8C379A000000000000000000000000000000000000000000000000000000000 DUP2 MSTORE PUSH1 0x4 ADD PUSH2 0x3BD SWAP1 PUSH2 0xAA1 JUMP JUMPDEST PUSH1 0x40 MLOAD DUP1 SWAP2 SUB SWAP1 REVERT JUMPDEST PUSH2 0x190 DUP2 PUSH1 0x60 ADD MLOAD LT PUSH2 0x40E JUMPI PUSH1 0x40 MLOAD PUSH32 0x8C379A000000000000000000000000000000000000000000000000000000000 DUP2 MSTORE PUSH1 0x4 ADD PUSH2 0x405 SWAP1 PUSH2 0xAE1 JUMP JUMPDEST PUSH1 0x40 MLOAD DUP1 SWAP2 SUB SWAP1 REVERT JUMPDEST PUSH8 0xDE0B6B3A7640000 DUP2 PUSH1 0x20 ADD MLOAD PUSH2 0x426 SWAP2 SWAP1 PUSH2 0xC2A JUMP JUMPDEST CALLVALUE LT ISZERO PUSH2 0x468 JUMPI PUSH1 0x40 MLOAD PUSH32 0x8C379A000000000000000000000000000000000000000000000000000000000 DUP2 MSTORE PUSH1 0x4 ADD PUSH2 0x45F SWAP1 PUSH2 0xB01 JUMP JUMPDEST PUSH1 0x40 MLOAD DUP1 SWAP2 SUB SWAP1 REVERT JUMPDEST PUSH1 0x1 PUSH1 0x0 DUP4 DUP2 MSTORE PUSH1 0x20 ADD SWAP1 DUP2 MSTORE PUSH1 0x20 ADD PUSH1 0x0 KECCAK256 PUSH1 0x40 MLOAD DUP1 PUSH1 0x80 ADD PUSH1 0x40 MSTORE DUP1 CALLER PUSH20 0xFFFFFFFFFFFFFFFFFFFFFFFFFFFFFFFFFFFFFFFF AND DUP2 MSTORE PUSH1 0x20 ADD CALLVALUE DUP2 MSTORE PUSH1 0x20 ADD TIMESTAMP DUP2 MSTORE PUSH1 0x20 ADD PUSH1 0x0 ISZERO ISZERO DUP2 MSTORE POP SWAP1 DUP1 PUSH1 0x1 DUP2 SLOAD ADD DUP1 DUP3 SSTORE DUP1 SWAP2 POP POP PUSH1 0x1 SWAP1 SUB SWAP1 PUSH1 0x0 MSTORE PUSH1 0x20 PUSH1 0x0 KECCAK256 SWAP1 PUSH1 0x4 MUL ADD PUSH1 0x0 SWAP1 SWAP2 SWAP1 SWAP2 SWAP1 SWAP2 POP PUSH1 0x0 DUP3 ADD MLOAD DUP2 PUSH1 0x0 ADD PUSH1 0x0 PUSH2 0x100 EXP DUP2 SLOAD DUP2 PUSH20 0xFFFFFFFFFFFFFFFFFFFFFFFFFFFFFFFFFFFFFFFF MUL NOT AND SWAP1 DUP4 PUSH20 0xFFFFFFFFFFFFFFFFFFFFFFFFFFFFFFFFFFFFFFFF AND MUL OR SWAP1 SSTORE POP PUSH1 0x20 DUP3 ADD MLOAD DUP2 PUSH1 0x1 ADD SSTORE PUSH1 0x40 DUP3 ADD MLOAD DUP2 PUSH1 0x2 ADD SSTORE PUSH1 0x60 DUP3 ADD MLOAD DUP2 PUSH1 0x3 ADD PUSH1 0x0 PUSH2 0x100 EXP DUP2 SLOAD DUP2 PUSH1 0xFF MUL NOT AND SWAP1 DUP4 ISZERO ISZERO MUL OR SWAP1 SSTORE POP POP POP CALLVALUE PUSH1 0x2 PUSH1 0x0 ADDRESS PUSH20 0xFFFFFFFFFFFFFFFFFFFFFFFFFFFFFFFFFFFFFFFF AND PUSH20 0xFFFFFFFFFFFFFFFFFFFFFFFFFFFFFFFFFFFFFFFF AND DUP2 MSTORE PUSH1 0x20 ADD SWAP1 DUP2 MSTORE PUSH1 0x20 ADD PUSH1 0x0 KECCAK256 PUSH1 0x0 DUP3 DUP3 SLOAD PUSH2 0x5AA SWAP2 SWAP1 PUSH2 0xBA3 JUMP JUMPDEST SWAP3 POP POP DUP2 SWAP1 SSTORE POP POP POP JUMP JUMPDEST PUSH1 0x0 DUP1 PUSH1 0x0 DUP4 DUP2 SLOAD DUP2 LT PUSH2 0x5CC JUMPI PUSH2 0x5CB PUSH2 0xDBF JUMP JUMPDEST JUMPDEST SWAP1 PUSH1 0x0 MSTORE PUSH1 0x20 PUSH1 0x0 KECCAK256 SWAP1 PUSH1 0x4 MUL ADD PUSH1 0x40 MLOAD DUP1 PUSH1 0x80 ADD PUSH1 0x40 MSTORE SWAP1 DUP2 PUSH1 0x0 DUP3 ADD PUSH1 0x0 SWAP1 SLOAD SWAP1 PUSH2 0x100 EXP SWAP1 DIV PUSH20 0xFFFFFFFFFFFFFFFFFFFFFFFFFFFFFFFFFFFFFFFF AND PUSH20 0xFFFFFFFFFFFFFFFFFFFFFFFFFFFFFFFFFFFFFFFF AND PUSH20 0xFFFFFFFFFFFFFFFFFFFFFFFFFFFFFFFFFFFFFFFF AND DUP2 MSTORE PUSH1 0x20 ADD PUSH1 0x1 DUP3 ADD SLOAD DUP2 MSTORE PUSH1 0x20 ADD PUSH1 0x2 DUP3 ADD DUP1 SLOAD PUSH2 0x655 SWAP1 PUSH2 0xCCF JUMP JUMPDEST DUP1 PUSH1 0x1F ADD PUSH1 0x20 DUP1 SWAP2 DIV MUL PUSH1 0x20 ADD PUSH1 0x40 MLOAD SWAP1 DUP2 ADD PUSH1 0x40 MSTORE DUP1 SWAP3 SWAP2 SWAP1 DUP2 DUP2 MSTORE PUSH1 0x20 ADD DUP3 DUP1 SLOAD PUSH2 0x681 SWAP1 PUSH2 0xCCF JUMP JUMPDEST DUP1 ISZERO PUSH2 0x6CE JUMPI DUP1 PUSH1 0x1F LT PUSH2 0x6A3 JUMPI PUSH2 0x100 DUP1 DUP4 SLOAD DIV MUL DUP4 MSTORE SWAP2 PUSH1 0x20 ADD SWAP2 PUSH2 0x6CE JUMP JUMPDEST DUP3 ADD SWAP2 SWAP1 PUSH1 0x0 MSTORE PUSH1 0x20 PUSH1 0x0 KECCAK256 SWAP1 JUMPDEST DUP2 SLOAD DUP2 MSTORE SWAP1 PUSH1 0x1 ADD SWAP1 PUSH1 0x20 ADD DUP1 DUP4 GT PUSH2 0x6B1 JUMPI DUP3 SWAP1 SUB PUSH1 0x1F AND DUP3 ADD SWAP2 JUMPDEST POP POP POP POP POP DUP2 MSTORE PUSH1 0x20 ADD PUSH1 0x3 DUP3 ADD SLOAD DUP2 MSTORE POP POP SWAP1 POP DUP1 PUSH1 0x0 ADD MLOAD PUSH20 0xFFFFFFFFFFFFFFFFFFFFFFFFFFFFFFFFFFFFFFFF AND CALLER PUSH20 0xFFFFFFFFFFFFFFFFFFFFFFFFFFFFFFFFFFFFFFFF AND EQ PUSH2 0x755 JUMPI PUSH1 0x40 MLOAD PUSH32 0x8C379A000000000000000000000000000000000000000000000000000000000 DUP2 MSTORE PUSH1 0x4 ADD PUSH2 0x74C SWAP1 PUSH2 0xAC1 JUMP JUMPDEST PUSH1 0x40 MLOAD DUP1 SWAP2 SUB SWAP1 REVERT JUMPDEST PUSH1 0x1 PUSH1 0x0 DUP5 DUP2 MSTORE PUSH1 0x20 ADD SWAP1 DUP2 MSTORE PUSH1 0x20 ADD PUSH1 0x0 KECCAK256 DUP1 SLOAD SWAP1 POP SWAP2 POP POP SWAP2 SWAP1 POP JUMP JUMPDEST PUSH1 0x0 PUSH8 0xDE0B6B3A7640000 PUSH1 0x2 PUSH1 0x0 DUP5 PUSH20 0xFFFFFFFFFFFFFFFFFFFFFFFFFFFFFFFFFFFFFFFF AND PUSH20 0xFFFFFFFFFFFFFFFFFFFFFFFFFFFFFFFFFFFFFFFF AND DUP2 MSTORE PUSH1 0x20 ADD SWAP1 DUP2 MSTORE PUSH1 0x20 ADD PUSH1 0x0 KECCAK256 SLOAD PUSH2 0x7C9 SWAP2 SWAP1 PUSH2 0xBF9 JUMP JUMPDEST SWAP1 POP SWAP2 SWAP1 POP JUMP JUMPDEST DUP3 DUP1 SLOAD PUSH2 0x7DC SWAP1 PUSH2 0xCCF JUMP JUMPDEST SWAP1 PUSH1 0x0 MSTORE PUSH1 0x20 PUSH1 0x0 KECCAK256 SWAP1 PUSH1 0x1F ADD PUSH1 0x20 SWAP1 DIV DUP2 ADD SWAP3 DUP3 PUSH2 0x7FE JUMPI PUSH1 0x0 DUP6 SSTORE PUSH2 0x845 JUMP JUMPDEST DUP3 PUSH1 0x1F LT PUSH2 0x817 JUMPI DUP1 MLOAD PUSH1 0xFF NOT AND DUP4 DUP1 ADD OR DUP6 SSTORE PUSH2 0x845 JUMP JUMPDEST DUP3 DUP1 ADD PUSH1 0x1 ADD DUP6 SSTORE DUP3 ISZERO PUSH2 0x845 JUMPI SWAP2 DUP3 ADD JUMPDEST DUP3 DUP2 GT ISZERO PUSH2 0x844 JUMPI DUP3 MLOAD DUP3 SSTORE SWAP2 PUSH1 0x20 ADD SWAP2 SWAP1 PUSH1 0x1 ADD SWAP1 PUSH2 0x829 JUMP JUMPDEST JUMPDEST POP SWAP1 POP PUSH2 0x852 SWAP2 SWAP1 PUSH2 0x856 JUMP JUMPDEST POP SWAP1 JUMP JUMPDEST JUMPDEST DUP1 DUP3 GT ISZERO PUSH2 0x86F JUMPI PUSH1 0x0 DUP2 PUSH1 0x0 SWAP1 SSTORE POP PUSH1 0x1 ADD PUSH2 0x857 JUMP JUMPDEST POP SWAP1 JUMP JUMPDEST PUSH1 0x0 PUSH2 0x886 PUSH2 0x881 DUP5 PUSH2 0xB61 JUMP JUMPDEST PUSH2 0xB3C JUMP JUMPDEST SWAP1 POP DUP3 DUP2 MSTORE PUSH1 0x20 DUP2 ADD DUP5 DUP5 DUP5 ADD GT ISZERO PUSH2 0x8A2 JUMPI PUSH2 0x8A1 PUSH2 0xE22 JUMP JUMPDEST JUMPDEST PUSH2 0x8AD DUP5 DUP3 DUP6 PUSH2 0xCC0 JUMP JUMPDEST POP SWAP4 SWAP3 POP POP POP JUMP JUMPDEST PUSH1 0x0 DUP2 CALLDATALOAD SWAP1 POP PUSH2 0x8C4 DUP2 PUSH2 0xF35 JUMP JUMPDEST SWAP3 SWAP2 POP POP JUMP JUMPDEST PUSH1 0x0 DUP3 PUSH1 0x1F DUP4 ADD SLT PUSH2 0x8DF JUMPI PUSH2 0x8DE PUSH2 0xE1D JUMP JUMPDEST JUMPDEST DUP2 CALLDATALOAD PUSH2 0x8EF DUP5 DUP3 PUSH1 0x20 DUP7 ADD PUSH2 0x873 JUMP JUMPDEST SWAP2 POP POP SWAP3 SWAP2 POP POP JUMP JUMPDEST PUSH1 0x0 DUP2 CALLDATALOAD SWAP1 POP PUSH2 0x907 DUP2 PUSH2 0xF4C JUMP JUMPDEST SWAP3 SWAP2 POP POP JUMP JUMPDEST PUSH1 0x0 PUSH1 0x20 DUP3 DUP5 SUB SLT ISZERO PUSH2 0x923 JUMPI PUSH2 0x922 PUSH2 0xE2C JUMP JUMPDEST JUMPDEST PUSH1 0x0 PUSH2 0x931 DUP5 DUP3 DUP6 ADD PUSH2 0x8B5 JUMP JUMPDEST SWAP2 POP POP SWAP3 SWAP2 POP POP JUMP JUMPDEST PUSH1 0x0 DUP1 PUSH1 0x40 DUP4 DUP6 SUB SLT ISZERO PUSH2 0x951 JUMPI PUSH2 0x950 PUSH2 0xE2C JUMP JUMPDEST JUMPDEST PUSH1 0x0 DUP4 ADD CALLDATALOAD PUSH8 0xFFFFFFFFFFFFFFFF DUP2 GT ISZERO PUSH2 0x96F JUMPI PUSH2 0x96E PUSH2 0xE27 JUMP JUMPDEST JUMPDEST PUSH2 0x97B DUP6 DUP3 DUP7 ADD PUSH2 0x8CA JUMP JUMPDEST SWAP3 POP POP PUSH1 0x20 PUSH2 0x98C DUP6 DUP3 DUP7 ADD PUSH2 0x8F8 JUMP JUMPDEST SWAP2 POP POP SWAP3 POP SWAP3 SWAP1 POP JUMP JUMPDEST PUSH1 0x0 PUSH1 0x20 DUP3 DUP5 SUB SLT ISZERO PUSH2 0x9AC JUMPI PUSH2 0x9AB PUSH2 0xE2C JUMP JUMPDEST JUMPDEST PUSH1 0x0 PUSH2 0x9BA DUP5 DUP3 DUP6 ADD PUSH2 0x8F8 JUMP JUMPDEST SWAP2 POP POP SWAP3 SWAP2 POP POP JUMP JUMPDEST PUSH1 0x0 PUSH2 0x9D0 PUSH1 0x1E DUP4 PUSH2 0xB92 JUMP JUMPDEST SWAP2 POP PUSH2 0x9DB DUP3 PUSH2 0xE42 JUMP JUMPDEST PUSH1 0x20 DUP3 ADD SWAP1 POP SWAP2 SWAP1 POP JUMP JUMPDEST PUSH1 0x0 PUSH2 0x9F3 PUSH1 0x15 DUP4 PUSH2 0xB92 JUMP JUMPDEST SWAP2 POP PUSH2 0x9FE DUP3 PUSH2 0xE6B JUMP JUMPDEST PUSH1 0x20 DUP3 ADD SWAP1 POP SWAP2 SWAP1 POP JUMP JUMPDEST PUSH1 0x0 PUSH2 0xA16 PUSH1 0x19 DUP4 PUSH2 0xB92 JUMP JUMPDEST SWAP2 POP PUSH2 0xA21 DUP3 PUSH2 0xE94 JUMP JUMPDEST PUSH1 0x20 DUP3 ADD SWAP1 POP SWAP2 SWAP1 POP JUMP JUMPDEST PUSH1 0x0 PUSH2 0xA39 PUSH1 0x18 DUP4 PUSH2 0xB92 JUMP JUMPDEST SWAP2 POP PUSH2 0xA44 DUP3 PUSH2 0xEBD JUMP JUMPDEST PUSH1 0x20 DUP3 ADD SWAP1 POP SWAP2 SWAP1 POP JUMP JUMPDEST PUSH1 0x0 PUSH2 0xA5C PUSH1 0x2C DUP4 PUSH2 0xB92 JUMP JUMPDEST SWAP2 POP PUSH2 0xA67 DUP3 PUSH2 0xEE6 JUMP JUMPDEST PUSH1 0x40 DUP3 ADD SWAP1 POP SWAP2 SWAP1 POP JUMP JUMPDEST PUSH2 0xA7B DUP2 PUSH2 0xCB6 JUMP JUMPDEST DUP3 MSTORE POP POP JUMP JUMPDEST PUSH1 0x0 PUSH1 0x20 DUP3 ADD SWAP1 POP DUP2 DUP2 SUB PUSH1 0x0 DUP4 ADD MSTORE PUSH2 0xA9A DUP2 PUSH2 0x9C3 JUMP JUMPDEST SWAP1 POP SWAP2 SWAP1 POP JUMP JUMPDEST PUSH1 0x0 PUSH1 0x20 DUP3 ADD SWAP1 POP DUP2 DUP2 SUB PUSH1 0x0 DUP4 ADD MSTORE PUSH2 0xABA DUP2 PUSH2 0x9E6 JUMP JUMPDEST SWAP1 POP SWAP2 SWAP1 POP JUMP JUMPDEST PUSH1 0x0 PUSH1 0x20 DUP3 ADD SWAP1 POP DUP2 DUP2 SUB PUSH1 0x0 DUP4 ADD MSTORE PUSH2 0xADA DUP2 PUSH2 0xA09 JUMP JUMPDEST SWAP1 POP SWAP2 SWAP1 POP JUMP JUMPDEST PUSH1 0x0 PUSH1 0x20 DUP3 ADD SWAP1 POP DUP2 DUP2 SUB PUSH1 0x0 DUP4 ADD MSTORE PUSH2 0xAFA DUP2 PUSH2 0xA2C JUMP JUMPDEST SWAP1 POP SWAP2 SWAP1 POP JUMP JUMPDEST PUSH1 0x0 PUSH1 0x20 DUP3 ADD SWAP1 POP DUP2 DUP2 SUB PUSH1 0x0 DUP4 ADD MSTORE PUSH2 0xB1A DUP2 PUSH2 0xA4F JUMP JUMPDEST SWAP1 POP SWAP2 SWAP1 POP JUMP JUMPDEST PUSH1 0x0 PUSH1 0x20 DUP3 ADD SWAP1 POP PUSH2 0xB36 PUSH1 0x0 DUP4 ADD DUP5 PUSH2 0xA72 JUMP JUMPDEST SWAP3 SWAP2 POP POP JUMP JUMPDEST PUSH1 0x0 PUSH2 0xB46 PUSH2 0xB57 JUMP JUMPDEST SWAP1 POP PUSH2 0xB52 DUP3 DUP3 PUSH2 0xD01 JUMP JUMPDEST SWAP2 SWAP1 POP JUMP JUMPDEST PUSH1 0x0 PUSH1 0x40 MLOAD SWAP1 POP SWAP1 JUMP JUMPDEST PUSH1 0x0 PUSH8 0xFFFFFFFFFFFFFFFF DUP3 GT ISZERO PUSH2 0xB7C JUMPI PUSH2 0xB7B PUSH2 0xDEE JUMP JUMPDEST JUMPDEST PUSH2 0xB85 DUP3 PUSH2 0xE31 JUMP JUMPDEST SWAP1 POP PUSH1 0x20 DUP2 ADD SWAP1 POP SWAP2 SWAP1 POP JUMP JUMPDEST PUSH1 0x0 DUP3 DUP3 MSTORE PUSH1 0x20 DUP3 ADD SWAP1 POP SWAP3 SWAP2 POP POP JUMP JUMPDEST PUSH1 0x0 PUSH2 0xBAE DUP3 PUSH2 0xCB6 JUMP JUMPDEST SWAP2 POP PUSH2 0xBB9 DUP4 PUSH2 0xCB6 JUMP JUMPDEST SWAP3 POP DUP3 PUSH32 0xFFFFFFFFFFFFFFFFFFFFFFFFFFFFFFFFFFFFFFFFFFFFFFFFFFFFFFFFFFFFFFFF SUB DUP3 GT ISZERO PUSH2 0xBEE JUMPI PUSH2 0xBED PUSH2 0xD32 JUMP JUMPDEST JUMPDEST DUP3 DUP3 ADD SWAP1 POP SWAP3 SWAP2 POP POP JUMP JUMPDEST PUSH1 0x0 PUSH2 0xC04 DUP3 PUSH2 0xCB6 JUMP JUMPDEST SWAP2 POP PUSH2 0xC0F DUP4 PUSH2 0xCB6 JUMP JUMPDEST SWAP3 POP DUP3 PUSH2 0xC1F JUMPI PUSH2 0xC1E PUSH2 0xD61 JUMP JUMPDEST JUMPDEST DUP3 DUP3 DIV SWAP1 POP SWAP3 SWAP2 POP POP JUMP JUMPDEST PUSH1 0x0 PUSH2 0xC35 DUP3 PUSH2 0xCB6 JUMP JUMPDEST SWAP2 POP PUSH2 0xC40 DUP4 PUSH2 0xCB6 JUMP JUMPDEST SWAP3 POP DUP2 PUSH32 0xFFFFFFFFFFFFFFFFFFFFFFFFFFFFFFFFFFFFFFFFFFFFFFFFFFFFFFFFFFFFFFFF DIV DUP4 GT DUP3 ISZERO ISZERO AND ISZERO PUSH2 0xC79 JUMPI PUSH2 0xC78 PUSH2 0xD32 JUMP JUMPDEST JUMPDEST DUP3 DUP3 MUL SWAP1 POP SWAP3 SWAP2 POP POP JUMP JUMPDEST PUSH1 0x0 PUSH2 0xC8F DUP3 PUSH2 0xC96 JUMP JUMPDEST SWAP1 POP SWAP2 SWAP1 POP JUMP JUMPDEST PUSH1 0x0 PUSH20 0xFFFFFFFFFFFFFFFFFFFFFFFFFFFFFFFFFFFFFFFF DUP3 AND SWAP1 POP SWAP2 SWAP1 POP JUMP JUMPDEST PUSH1 0x0 DUP2 SWAP1 POP SWAP2 SWAP1 POP JUMP JUMPDEST DUP3 DUP2 DUP4 CALLDATACOPY PUSH1 0x0 DUP4 DUP4 ADD MSTORE POP POP POP JUMP JUMPDEST PUSH1 0x0 PUSH1 0x2 DUP3 DIV SWAP1 POP PUSH1 0x1 DUP3 AND DUP1 PUSH2 0xCE7 JUMPI PUSH1 0x7F DUP3 AND SWAP2 POP JUMPDEST PUSH1 0x20 DUP3 LT DUP2 EQ ISZERO PUSH2 0xCFB JUMPI PUSH2 0xCFA PUSH2 0xD90 JUMP JUMPDEST JUMPDEST POP SWAP2 SWAP1 POP JUMP JUMPDEST PUSH2 0xD0A DUP3 PUSH2 0xE31 JUMP JUMPDEST DUP2 ADD DUP2 DUP2 LT PUSH8 0xFFFFFFFFFFFFFFFF DUP3 GT OR ISZERO PUSH2 0xD29 JUMPI PUSH2 0xD28 PUSH2 0xDEE JUMP JUMPDEST JUMPDEST DUP1 PUSH1 0x40 MSTORE POP POP POP JUMP JUMPDEST PUSH32 0x4E487B7100000000000000000000000000000000000000000000000000000000 PUSH1 0x0 MSTORE PUSH1 0x11 PUSH1 0x4 MSTORE PUSH1 0x24 PUSH1 0x0 REVERT JUMPDEST PUSH32 0x4E487B7100000000000000000000000000000000000000000000000000000000 PUSH1 0x0 MSTORE PUSH1 0x12 PUSH1 0x4 MSTORE PUSH1 0x24 PUSH1 0x0 REVERT JUMPDEST PUSH32 0x4E487B7100000000000000000000000000000000000000000000000000000000 PUSH1 0x0 MSTORE PUSH1 0x22 PUSH1 0x4 MSTORE PUSH1 0x24 PUSH1 0x0 REVERT JUMPDEST PUSH32 0x4E487B7100000000000000000000000000000000000000000000000000000000 PUSH1 0x0 MSTORE PUSH1 0x32 PUSH1 0x4 MSTORE PUSH1 0x24 PUSH1 0x0 REVERT JUMPDEST PUSH32 0x4E487B7100000000000000000000000000000000000000000000000000000000 PUSH1 0x0 MSTORE PUSH1 0x41 PUSH1 0x4 MSTORE PUSH1 0x24 PUSH1 0x0 REVERT JUMPDEST PUSH1 0x0 DUP1 REVERT JUMPDEST PUSH1 0x0 DUP1 REVERT JUMPDEST PUSH1 0x0 DUP1 REVERT JUMPDEST PUSH1 0x0 DUP1 REVERT JUMPDEST PUSH1 0x0 PUSH1 0x1F NOT PUSH1 0x1F DUP4 ADD AND SWAP1 POP SWAP2 SWAP1 POP JUMP JUMPDEST PUSH32 0x596F752063616E277420626964206F6E20796F7572206F776E20706F73740000 PUSH1 0x0 DUP3 ADD MSTORE POP JUMP JUMPDEST PUSH32 0x496E76616C696420616D6F756E74206F66204269640000000000000000000000 PUSH1 0x0 DUP3 ADD MSTORE POP JUMP JUMPDEST PUSH32 0x596F7520646F6E27742068617665207065726D697373696F6E00000000000000 PUSH1 0x0 DUP3 ADD MSTORE POP JUMP JUMPDEST PUSH32 0x546869732061756374696F6E2069732066696E69736865640000000000000000 PUSH1 0x0 DUP3 ADD MSTORE POP JUMP JUMPDEST PUSH32 0x5468697320626964206E6565647320746F206265206D6F7265207468616E206D PUSH1 0x0 DUP3 ADD MSTORE PUSH32 0x696E206269642076616C75650000000000000000000000000000000000000000 PUSH1 0x20 DUP3 ADD MSTORE POP JUMP JUMPDEST PUSH2 0xF3E DUP2 PUSH2 0xC84 JUMP JUMPDEST DUP2 EQ PUSH2 0xF49 JUMPI PUSH1 0x0 DUP1 REVERT JUMPDEST POP JUMP JUMPDEST PUSH2 0xF55 DUP2 PUSH2 0xCB6 JUMP JUMPDEST DUP2 EQ PUSH2 0xF60 JUMPI PUSH1 0x0 DUP1 REVERT JUMPDEST POP JUMP INVALID LOG2 PUSH5 0x6970667358 0x22 SLT KECCAK256 PUSH15 0xF580B01401130126C648278DCDCC94 LT 0xC2 EXTCODECOPY MSTORE8 PUSH22 0x987E775DF1A2F3B7D346F264736F6C63430008070033 "
				},
				"gasEstimates": {
					"creation": {
						"codeDepositCost": "798600",
						"executionCost": "831",
						"totalCost": "799431"
					},
					"external": {
						"createBid(uint256)": "infinite",
						"createPost(string,uint256)": "infinite",
						"getBalance(address)": "infinite",
						"getTotalBids(uint256)": "infinite"
					}
				},
				"methodIdentifiers": {
					"createBid(uint256)": "659dd2b4",
					"createPost(string,uint256)": "1252cb48",
					"getBalance(address)": "f8b2cb4f",
					"getTotalBids(uint256)": "8e5bc606"
				}
			},
			"storageLayout": {
				"storage": [
					{
						"astId": 23,
						"contract": "contracts/Auction.sol:Auction",
						"label": "posts",
						"offset": 0,
						"slot": "0",
						"type": "t_array(t_struct(Post)10_storage)dyn_storage"
					},
					{
						"astId": 29,
						"contract": "contracts/Auction.sol:Auction",
						"label": "bids",
						"offset": 0,
						"slot": "1",
						"type": "t_mapping(t_uint256,t_array(t_struct(Bid)19_storage)dyn_storage)"
					},
					{
						"astId": 33,
						"contract": "contracts/Auction.sol:Auction",
						"label": "balances",
						"offset": 0,
						"slot": "2",
						"type": "t_mapping(t_address,t_uint256)"
					}
				],
				"types": {
					"t_address": {
						"encoding": "inplace",
						"label": "address",
						"numberOfBytes": "20"
					},
					"t_address_payable": {
						"encoding": "inplace",
						"label": "address payable",
						"numberOfBytes": "20"
					},
					"t_array(t_struct(Bid)19_storage)dyn_storage": {
						"base": "t_struct(Bid)19_storage",
						"encoding": "dynamic_array",
						"label": "struct Auction.Bid[]",
						"numberOfBytes": "32"
					},
					"t_array(t_struct(Post)10_storage)dyn_storage": {
						"base": "t_struct(Post)10_storage",
						"encoding": "dynamic_array",
						"label": "struct Auction.Post[]",
						"numberOfBytes": "32"
					},
					"t_bool": {
						"encoding": "inplace",
						"label": "bool",
						"numberOfBytes": "1"
					},
					"t_mapping(t_address,t_uint256)": {
						"encoding": "mapping",
						"key": "t_address",
						"label": "mapping(address => uint256)",
						"numberOfBytes": "32",
						"value": "t_uint256"
					},
					"t_mapping(t_uint256,t_array(t_struct(Bid)19_storage)dyn_storage)": {
						"encoding": "mapping",
						"key": "t_uint256",
						"label": "mapping(uint256 => struct Auction.Bid[])",
						"numberOfBytes": "32",
						"value": "t_array(t_struct(Bid)19_storage)dyn_storage"
					},
					"t_string_storage": {
						"encoding": "bytes",
						"label": "string",
						"numberOfBytes": "32"
					},
					"t_struct(Bid)19_storage": {
						"encoding": "inplace",
						"label": "struct Auction.Bid",
						"members": [
							{
								"astId": 12,
								"contract": "contracts/Auction.sol:Auction",
								"label": "buyer",
								"offset": 0,
								"slot": "0",
								"type": "t_address_payable"
							},
							{
								"astId": 14,
								"contract": "contracts/Auction.sol:Auction",
								"label": "amount",
								"offset": 0,
								"slot": "1",
								"type": "t_uint256"
							},
							{
								"astId": 16,
								"contract": "contracts/Auction.sol:Auction",
								"label": "time",
								"offset": 0,
								"slot": "2",
								"type": "t_uint256"
							},
							{
								"astId": 18,
								"contract": "contracts/Auction.sol:Auction",
								"label": "isFinished",
								"offset": 0,
								"slot": "3",
								"type": "t_bool"
							}
						],
						"numberOfBytes": "128"
					},
					"t_struct(Post)10_storage": {
						"encoding": "inplace",
						"label": "struct Auction.Post",
						"members": [
							{
								"astId": 3,
								"contract": "contracts/Auction.sol:Auction",
								"label": "seller",
								"offset": 0,
								"slot": "0",
								"type": "t_address_payable"
							},
							{
								"astId": 5,
								"contract": "contracts/Auction.sol:Auction",
								"label": "minBid",
								"offset": 0,
								"slot": "1",
								"type": "t_uint256"
							},
							{
								"astId": 7,
								"contract": "contracts/Auction.sol:Auction",
								"label": "name",
								"offset": 0,
								"slot": "2",
								"type": "t_string_storage"
							},
							{
								"astId": 9,
								"contract": "contracts/Auction.sol:Auction",
								"label": "time",
								"offset": 0,
								"slot": "3",
								"type": "t_uint256"
							}
						],
						"numberOfBytes": "128"
					},
					"t_uint256": {
						"encoding": "inplace",
						"label": "uint256",
						"numberOfBytes": "32"
					}
				}
			},
			"userdoc": {
				"kind": "user",
				"methods": {},
				"version": 1
			}
		}
	}
}