{
	"contracts/MyToken.sol": {
		"MyToken": {
			"abi": [
				{
					"inputs": [],
					"stateMutability": "nonpayable",
					"type": "constructor"
				},
				{
					"anonymous": false,
					"inputs": [
						{
							"indexed": true,
							"internalType": "address",
							"name": "owner",
							"type": "address"
						},
						{
							"indexed": true,
							"internalType": "address",
							"name": "spender",
							"type": "address"
						},
						{
							"indexed": true,
							"internalType": "uint256",
							"name": "amount",
							"type": "uint256"
						}
					],
					"name": "_Approval",
					"type": "event"
				},
				{
					"anonymous": false,
					"inputs": [
						{
							"indexed": true,
							"internalType": "address",
							"name": "sender",
							"type": "address"
						},
						{
							"indexed": true,
							"internalType": "address",
							"name": "reciever",
							"type": "address"
						},
						{
							"indexed": true,
							"internalType": "uint256",
							"name": "amount",
							"type": "uint256"
						}
					],
					"name": "_Transfer",
					"type": "event"
				},
				{
					"inputs": [
						{
							"internalType": "address",
							"name": "_spender",
							"type": "address"
						},
						{
							"internalType": "uint256",
							"name": "_amount",
							"type": "uint256"
						}
					],
					"name": "Approve",
					"outputs": [
						{
							"internalType": "bool",
							"name": "",
							"type": "bool"
						}
					],
					"stateMutability": "nonpayable",
					"type": "function"
				},
				{
					"inputs": [
						{
							"internalType": "address",
							"name": "_reciever",
							"type": "address"
						},
						{
							"internalType": "uint256",
							"name": "_amount",
							"type": "uint256"
						}
					],
					"name": "Transfer",
					"outputs": [
						{
							"internalType": "bool",
							"name": "",
							"type": "bool"
						}
					],
					"stateMutability": "nonpayable",
					"type": "function"
				},
				{
					"inputs": [
						{
							"internalType": "address",
							"name": "_account",
							"type": "address"
						}
					],
					"name": "balanceOf",
					"outputs": [
						{
							"internalType": "uint256",
							"name": "",
							"type": "uint256"
						}
					],
					"stateMutability": "view",
					"type": "function"
				},
				{
					"inputs": [],
					"name": "decimal",
					"outputs": [
						{
							"internalType": "uint256",
							"name": "",
							"type": "uint256"
						}
					],
					"stateMutability": "view",
					"type": "function"
				},
				{
					"inputs": [],
					"name": "name",
					"outputs": [
						{
							"internalType": "string",
							"name": "",
							"type": "string"
						}
					],
					"stateMutability": "view",
					"type": "function"
				},
				{
					"inputs": [],
					"name": "symbol",
					"outputs": [
						{
							"internalType": "string",
							"name": "",
							"type": "string"
						}
					],
					"stateMutability": "view",
					"type": "function"
				},
				{
					"inputs": [],
					"name": "totalSupply",
					"outputs": [
						{
							"internalType": "uint256",
							"name": "",
							"type": "uint256"
						}
					],
					"stateMutability": "view",
					"type": "function"
				}
			],
			"devdoc": {
				"kind": "dev",
				"methods": {},
				"version": 1
			},
			"evm": {
				"assembly": "    /* \"contracts/MyToken.sol\":25:1968  contract MyToken {\r... */\n  mstore(0x40, 0x80)\n    /* \"contracts/MyToken.sol\":172:355  constructor(){\r... */\n  callvalue\n  dup1\n  iszero\n  tag_1\n  jumpi\n  0x00\n  dup1\n  revert\ntag_1:\n  pop\n    /* \"contracts/MyToken.sol\":196:220  _name = \"My first token\" */\n  mload(0x40)\n  dup1\n  0x40\n  add\n  0x40\n  mstore\n  dup1\n  0x0e\n  dup2\n  mstore\n  0x20\n  add\n  0x4d7920666972737420746f6b656e000000000000000000000000000000000000\n  dup2\n  mstore\n  pop\n    /* \"contracts/MyToken.sol\":196:201  _name */\n  0x00\n    /* \"contracts/MyToken.sol\":196:220  _name = \"My first token\" */\n  swap1\n  dup1\n  mload\n  swap1\n  0x20\n  add\n  swap1\n  tag_4\n  swap3\n  swap2\n  swap1\n  tag_5\n  jump\t// in\ntag_4:\n  pop\n    /* \"contracts/MyToken.sol\":231:246  _symbol = \"MFT\" */\n  mload(0x40)\n  dup1\n  0x40\n  add\n  0x40\n  mstore\n  dup1\n  0x03\n  dup2\n  mstore\n  0x20\n  add\n  0x4d46540000000000000000000000000000000000000000000000000000000000\n  dup2\n  mstore\n  pop\n    /* \"contracts/MyToken.sol\":231:238  _symbol */\n  0x01\n    /* \"contracts/MyToken.sol\":231:246  _symbol = \"MFT\" */\n  swap1\n  dup1\n  mload\n  swap1\n  0x20\n  add\n  swap1\n  tag_6\n  swap3\n  swap2\n  swap1\n  tag_5\n  jump\t// in\ntag_6:\n  pop\n    /* \"contracts/MyToken.sol\":268:269  0 */\n  0x00\n    /* \"contracts/MyToken.sol\":257:265  _decimal */\n  0x02\n  0x00\n    /* \"contracts/MyToken.sol\":257:269  _decimal = 0 */\n  0x0100\n  exp\n  dup2\n  sload\n  dup2\n  0xffffffff\n  mul\n  not\n  and\n  swap1\n  dup4\n  0xffffffff\n  and\n  mul\n  or\n  swap1\n  sstore\n  pop\n    /* \"contracts/MyToken.sol\":295:302  1000000 */\n  0x0f4240\n    /* \"contracts/MyToken.sol\":280:292  _totalSupply */\n  0x03\n    /* \"contracts/MyToken.sol\":280:302  _totalSupply = 1000000 */\n  dup2\n  swap1\n  sstore\n  pop\n    /* \"contracts/MyToken.sol\":335:347  _totalSupply */\n  sload(0x03)\n    /* \"contracts/MyToken.sol\":313:320  balance */\n  0x04\n    /* \"contracts/MyToken.sol\":313:332  balance[msg.sender] */\n  0x00\n    /* \"contracts/MyToken.sol\":321:331  msg.sender */\n  caller\n    /* \"contracts/MyToken.sol\":313:332  balance[msg.sender] */\n  0xffffffffffffffffffffffffffffffffffffffff\n  and\n  0xffffffffffffffffffffffffffffffffffffffff\n  and\n  dup2\n  mstore\n  0x20\n  add\n  swap1\n  dup2\n  mstore\n  0x20\n  add\n  0x00\n  keccak256\n    /* \"contracts/MyToken.sol\":313:347  balance[msg.sender] = _totalSupply */\n  dup2\n  swap1\n  sstore\n  pop\n    /* \"contracts/MyToken.sol\":25:1968  contract MyToken {\r... */\n  jump(tag_7)\ntag_5:\n  dup3\n  dup1\n  sload\n  tag_8\n  swap1\n  tag_9\n  jump\t// in\ntag_8:\n  swap1\n  0x00\n  mstore\n  keccak256(0x00, 0x20)\n  swap1\n  0x1f\n  add\n  0x20\n  swap1\n  div\n  dup2\n  add\n  swap3\n  dup3\n  tag_11\n  jumpi\n  0x00\n  dup6\n  sstore\n  jump(tag_10)\ntag_11:\n  dup3\n  0x1f\n  lt\n  tag_12\n  jumpi\n  dup1\n  mload\n  not(0xff)\n  and\n  dup4\n  dup1\n  add\n  or\n  dup6\n  sstore\n  jump(tag_10)\ntag_12:\n  dup3\n  dup1\n  add\n  0x01\n  add\n  dup6\n  sstore\n  dup3\n  iszero\n  tag_10\n  jumpi\n  swap2\n  dup3\n  add\ntag_13:\n  dup3\n  dup2\n  gt\n  iszero\n  tag_14\n  jumpi\n  dup3\n  mload\n  dup3\n  sstore\n  swap2\n  0x20\n  add\n  swap2\n  swap1\n  0x01\n  add\n  swap1\n  jump(tag_13)\ntag_14:\ntag_10:\n  pop\n  swap1\n  pop\n  tag_15\n  swap2\n  swap1\n  tag_16\n  jump\t// in\ntag_15:\n  pop\n  swap1\n  jump\t// out\ntag_16:\ntag_17:\n  dup1\n  dup3\n  gt\n  iszero\n  tag_18\n  jumpi\n  0x00\n  dup2\n  0x00\n  swap1\n  sstore\n  pop\n  0x01\n  add\n  jump(tag_17)\ntag_18:\n  pop\n  swap1\n  jump\t// out\n    /* \"#utility.yul\":7:327   */\ntag_9:\n    /* \"#utility.yul\":51:57   */\n  0x00\n    /* \"#utility.yul\":88:89   */\n  0x02\n    /* \"#utility.yul\":82:86   */\n  dup3\n    /* \"#utility.yul\":78:90   */\n  div\n    /* \"#utility.yul\":68:90   */\n  swap1\n  pop\n    /* \"#utility.yul\":135:136   */\n  0x01\n    /* \"#utility.yul\":129:133   */\n  dup3\n    /* \"#utility.yul\":125:137   */\n  and\n    /* \"#utility.yul\":156:174   */\n  dup1\n    /* \"#utility.yul\":146:227   */\n  tag_21\n  jumpi\n    /* \"#utility.yul\":212:216   */\n  0x7f\n    /* \"#utility.yul\":204:210   */\n  dup3\n    /* \"#utility.yul\":200:217   */\n  and\n    /* \"#utility.yul\":190:217   */\n  swap2\n  pop\n    /* \"#utility.yul\":146:227   */\ntag_21:\n    /* \"#utility.yul\":274:276   */\n  0x20\n    /* \"#utility.yul\":266:272   */\n  dup3\n    /* \"#utility.yul\":263:277   */\n  lt\n    /* \"#utility.yul\":243:261   */\n  dup2\n    /* \"#utility.yul\":240:278   */\n  eq\n    /* \"#utility.yul\":237:321   */\n  iszero\n  tag_22\n  jumpi\n    /* \"#utility.yul\":293:311   */\n  tag_23\n  tag_24\n  jump\t// in\ntag_23:\n    /* \"#utility.yul\":237:321   */\ntag_22:\n    /* \"#utility.yul\":58:327   */\n  pop\n    /* \"#utility.yul\":7:327   */\n  swap2\n  swap1\n  pop\n  jump\t// out\n    /* \"#utility.yul\":333:513   */\ntag_24:\n    /* \"#utility.yul\":381:458   */\n  0x4e487b7100000000000000000000000000000000000000000000000000000000\n    /* \"#utility.yul\":378:379   */\n  0x00\n    /* \"#utility.yul\":371:459   */\n  mstore\n    /* \"#utility.yul\":478:482   */\n  0x22\n    /* \"#utility.yul\":475:476   */\n  0x04\n    /* \"#utility.yul\":468:483   */\n  mstore\n    /* \"#utility.yul\":502:506   */\n  0x24\n    /* \"#utility.yul\":499:500   */\n  0x00\n    /* \"#utility.yul\":492:507   */\n  revert\n    /* \"contracts/MyToken.sol\":25:1968  contract MyToken {\r... */\ntag_7:\n  dataSize(sub_0)\n  dup1\n  dataOffset(sub_0)\n  0x00\n  codecopy\n  0x00\n  return\nstop\n\nsub_0: assembly {\n        /* \"contracts/MyToken.sol\":25:1968  contract MyToken {\r... */\n      mstore(0x40, 0x80)\n      callvalue\n      dup1\n      iszero\n      tag_1\n      jumpi\n      0x00\n      dup1\n      revert\n    tag_1:\n      pop\n      jumpi(tag_2, lt(calldatasize, 0x04))\n      shr(0xe0, calldataload(0x00))\n      dup1\n      0x70a08231\n      gt\n      tag_10\n      jumpi\n      dup1\n      0x70a08231\n      eq\n      tag_6\n      jumpi\n      dup1\n      0x76809ce3\n      eq\n      tag_7\n      jumpi\n      dup1\n      0x90ec57f1\n      eq\n      tag_8\n      jumpi\n      dup1\n      0x95d89b41\n      eq\n      tag_9\n      jumpi\n      jump(tag_2)\n    tag_10:\n      dup1\n      0x06fdde03\n      eq\n      tag_3\n      jumpi\n      dup1\n      0x18160ddd\n      eq\n      tag_4\n      jumpi\n      dup1\n      0x69ca02dd\n      eq\n      tag_5\n      jumpi\n    tag_2:\n      0x00\n      dup1\n      revert\n        /* \"contracts/MyToken.sol\":638:720  function name() public view returns (string memory){\r... */\n    tag_3:\n      tag_11\n      tag_12\n      jump\t// in\n    tag_11:\n      mload(0x40)\n      tag_13\n      swap2\n      swap1\n      tag_14\n      jump\t// in\n    tag_13:\n      mload(0x40)\n      dup1\n      swap2\n      sub\n      swap1\n      return\n        /* \"contracts/MyToken.sol\":909:999  function totalSupply() public view returns (uint256){\r... */\n    tag_4:\n      tag_15\n      tag_16\n      jump\t// in\n    tag_15:\n      mload(0x40)\n      tag_17\n      swap2\n      swap1\n      tag_18\n      jump\t// in\n    tag_17:\n      mload(0x40)\n      dup1\n      swap2\n      sub\n      swap1\n      return\n        /* \"contracts/MyToken.sol\":1124:1633  function Transfer(address _reciever,uint _amount) public returns (bool){\r... */\n    tag_5:\n      tag_19\n      0x04\n      dup1\n      calldatasize\n      sub\n      dup2\n      add\n      swap1\n      tag_20\n      swap2\n      swap1\n      tag_21\n      jump\t// in\n    tag_20:\n      tag_22\n      jump\t// in\n    tag_19:\n      mload(0x40)\n      tag_23\n      swap2\n      swap1\n      tag_24\n      jump\t// in\n    tag_23:\n      mload(0x40)\n      dup1\n      swap2\n      sub\n      swap1\n      return\n        /* \"contracts/MyToken.sol\":1007:1116  function balanceOf(address _account) public view returns (uint256){\r... */\n    tag_6:\n      tag_25\n      0x04\n      dup1\n      calldatasize\n      sub\n      dup2\n      add\n      swap1\n      tag_26\n      swap2\n      swap1\n      tag_27\n      jump\t// in\n    tag_26:\n      tag_28\n      jump\t// in\n    tag_25:\n      mload(0x40)\n      tag_29\n      swap2\n      swap1\n      tag_18\n      jump\t// in\n    tag_29:\n      mload(0x40)\n      dup1\n      swap2\n      sub\n      swap1\n      return\n        /* \"contracts/MyToken.sol\":822:901  function decimal() public view returns (uint){\r... */\n    tag_7:\n      tag_30\n      tag_31\n      jump\t// in\n    tag_30:\n      mload(0x40)\n      tag_32\n      swap2\n      swap1\n      tag_18\n      jump\t// in\n    tag_32:\n      mload(0x40)\n      dup1\n      swap2\n      sub\n      swap1\n      return\n        /* \"contracts/MyToken.sol\":1641:1965  function Approve(address _spender,uint _amount) public returns (bool){\r... */\n    tag_8:\n      tag_33\n      0x04\n      dup1\n      calldatasize\n      sub\n      dup2\n      add\n      swap1\n      tag_34\n      swap2\n      swap1\n      tag_21\n      jump\t// in\n    tag_34:\n      tag_35\n      jump\t// in\n    tag_33:\n      mload(0x40)\n      tag_36\n      swap2\n      swap1\n      tag_24\n      jump\t// in\n    tag_36:\n      mload(0x40)\n      dup1\n      swap2\n      sub\n      swap1\n      return\n        /* \"contracts/MyToken.sol\":728:814  function symbol() public view returns (string memory){\r... */\n    tag_9:\n      tag_37\n      tag_38\n      jump\t// in\n    tag_37:\n      mload(0x40)\n      tag_39\n      swap2\n      swap1\n      tag_14\n      jump\t// in\n    tag_39:\n      mload(0x40)\n      dup1\n      swap2\n      sub\n      swap1\n      return\n        /* \"contracts/MyToken.sol\":638:720  function name() public view returns (string memory){\r... */\n    tag_12:\n        /* \"contracts/MyToken.sol\":675:688  string memory */\n      0x60\n        /* \"contracts/MyToken.sol\":707:712  _name */\n      0x00\n        /* \"contracts/MyToken.sol\":700:712  return _name */\n      dup1\n      sload\n      tag_41\n      swap1\n      tag_42\n      jump\t// in\n    tag_41:\n      dup1\n      0x1f\n      add\n      0x20\n      dup1\n      swap2\n      div\n      mul\n      0x20\n      add\n      mload(0x40)\n      swap1\n      dup2\n      add\n      0x40\n      mstore\n      dup1\n      swap3\n      swap2\n      swap1\n      dup2\n      dup2\n      mstore\n      0x20\n      add\n      dup3\n      dup1\n      sload\n      tag_43\n      swap1\n      tag_42\n      jump\t// in\n    tag_43:\n      dup1\n      iszero\n      tag_44\n      jumpi\n      dup1\n      0x1f\n      lt\n      tag_45\n      jumpi\n      0x0100\n      dup1\n      dup4\n      sload\n      div\n      mul\n      dup4\n      mstore\n      swap2\n      0x20\n      add\n      swap2\n      jump(tag_44)\n    tag_45:\n      dup3\n      add\n      swap2\n      swap1\n      0x00\n      mstore\n      keccak256(0x00, 0x20)\n      swap1\n    tag_46:\n      dup2\n      sload\n      dup2\n      mstore\n      swap1\n      0x01\n      add\n      swap1\n      0x20\n      add\n      dup1\n      dup4\n      gt\n      tag_46\n      jumpi\n      dup3\n      swap1\n      sub\n      0x1f\n      and\n      dup3\n      add\n      swap2\n    tag_44:\n      pop\n      pop\n      pop\n      pop\n      pop\n      swap1\n      pop\n        /* \"contracts/MyToken.sol\":638:720  function name() public view returns (string memory){\r... */\n      swap1\n      jump\t// out\n        /* \"contracts/MyToken.sol\":909:999  function totalSupply() public view returns (uint256){\r... */\n    tag_16:\n        /* \"contracts/MyToken.sol\":953:960  uint256 */\n      0x00\n        /* \"contracts/MyToken.sol\":979:991  _totalSupply */\n      sload(0x03)\n        /* \"contracts/MyToken.sol\":972:991  return _totalSupply */\n      swap1\n      pop\n        /* \"contracts/MyToken.sol\":909:999  function totalSupply() public view returns (uint256){\r... */\n      swap1\n      jump\t// out\n        /* \"contracts/MyToken.sol\":1124:1633  function Transfer(address _reciever,uint _amount) public returns (bool){\r... */\n    tag_22:\n        /* \"contracts/MyToken.sol\":1190:1194  bool */\n      0x00\n        /* \"contracts/MyToken.sol\":1321:1322  0 */\n      dup1\n        /* \"contracts/MyToken.sol\":1301:1323  _reciever!= address(0) */\n      0xffffffffffffffffffffffffffffffffffffffff\n      and\n        /* \"contracts/MyToken.sol\":1301:1310  _reciever */\n      dup4\n        /* \"contracts/MyToken.sol\":1301:1323  _reciever!= address(0) */\n      0xffffffffffffffffffffffffffffffffffffffff\n      and\n      eq\n      iszero\n        /* \"contracts/MyToken.sol\":1293:1342  require(_reciever!= address(0),\"Invalid Address\") */\n      tag_49\n      jumpi\n      mload(0x40)\n      0x08c379a000000000000000000000000000000000000000000000000000000000\n      dup2\n      mstore\n      0x04\n      add\n      tag_50\n      swap1\n      tag_51\n      jump\t// in\n    tag_50:\n      mload(0x40)\n      dup1\n      swap2\n      sub\n      swap1\n      revert\n    tag_49:\n        /* \"contracts/MyToken.sol\":1439:1446  _amount */\n      dup2\n        /* \"contracts/MyToken.sol\":1417:1424  balance */\n      0x04\n        /* \"contracts/MyToken.sol\":1417:1436  balance[msg.sender] */\n      0x00\n        /* \"contracts/MyToken.sol\":1425:1435  msg.sender */\n      caller\n        /* \"contracts/MyToken.sol\":1417:1436  balance[msg.sender] */\n      0xffffffffffffffffffffffffffffffffffffffff\n      and\n      0xffffffffffffffffffffffffffffffffffffffff\n      and\n      dup2\n      mstore\n      0x20\n      add\n      swap1\n      dup2\n      mstore\n      0x20\n      add\n      0x00\n      keccak256\n      sload\n        /* \"contracts/MyToken.sol\":1417:1446  balance[msg.sender]>= _amount */\n      lt\n      iszero\n        /* \"contracts/MyToken.sol\":1409:1466  require(balance[msg.sender]>= _amount,\"Not Enough Money\") */\n      tag_52\n      jumpi\n      mload(0x40)\n      0x08c379a000000000000000000000000000000000000000000000000000000000\n      dup2\n      mstore\n      0x04\n      add\n      tag_53\n      swap1\n      tag_54\n      jump\t// in\n    tag_53:\n      mload(0x40)\n      dup1\n      swap2\n      sub\n      swap1\n      revert\n    tag_52:\n        /* \"contracts/MyToken.sol\":1500:1507  _amount */\n      dup2\n        /* \"contracts/MyToken.sol\":1477:1484  balance */\n      0x04\n        /* \"contracts/MyToken.sol\":1477:1496  balance[msg.sender] */\n      0x00\n        /* \"contracts/MyToken.sol\":1485:1495  msg.sender */\n      caller\n        /* \"contracts/MyToken.sol\":1477:1496  balance[msg.sender] */\n      0xffffffffffffffffffffffffffffffffffffffff\n      and\n      0xffffffffffffffffffffffffffffffffffffffff\n      and\n      dup2\n      mstore\n      0x20\n      add\n      swap1\n      dup2\n      mstore\n      0x20\n      add\n      0x00\n      keccak256\n      0x00\n        /* \"contracts/MyToken.sol\":1477:1507  balance[msg.sender] -= _amount */\n      dup3\n      dup3\n      sload\n      tag_55\n      swap2\n      swap1\n      tag_56\n      jump\t// in\n    tag_55:\n      swap3\n      pop\n      pop\n      dup2\n      swap1\n      sstore\n      pop\n        /* \"contracts/MyToken.sol\":1540:1547  _amount */\n      dup2\n        /* \"contracts/MyToken.sol\":1518:1525  balance */\n      0x04\n        /* \"contracts/MyToken.sol\":1518:1536  balance[_reciever] */\n      0x00\n        /* \"contracts/MyToken.sol\":1526:1535  _reciever */\n      dup6\n        /* \"contracts/MyToken.sol\":1518:1536  balance[_reciever] */\n      0xffffffffffffffffffffffffffffffffffffffff\n      and\n      0xffffffffffffffffffffffffffffffffffffffff\n      and\n      dup2\n      mstore\n      0x20\n      add\n      swap1\n      dup2\n      mstore\n      0x20\n      add\n      0x00\n      keccak256\n      0x00\n        /* \"contracts/MyToken.sol\":1518:1547  balance[_reciever] += _amount */\n      dup3\n      dup3\n      sload\n      tag_57\n      swap2\n      swap1\n      tag_58\n      jump\t// in\n    tag_57:\n      swap3\n      pop\n      pop\n      dup2\n      swap1\n      sstore\n      pop\n        /* \"contracts/MyToken.sol\":1594:1601  _amount */\n      dup2\n        /* \"contracts/MyToken.sol\":1584:1593  _reciever */\n      dup4\n        /* \"contracts/MyToken.sol\":1563:1602  _Transfer(msg.sender,_reciever,_amount) */\n      0xffffffffffffffffffffffffffffffffffffffff\n      and\n        /* \"contracts/MyToken.sol\":1573:1583  msg.sender */\n      caller\n        /* \"contracts/MyToken.sol\":1563:1602  _Transfer(msg.sender,_reciever,_amount) */\n      0xffffffffffffffffffffffffffffffffffffffff\n      and\n      0xe156b1b6735c69d856fb922554b4fb7420f470e899a3dc4e8cff66f6bb8a8f77\n      mload(0x40)\n      mload(0x40)\n      dup1\n      swap2\n      sub\n      swap1\n      log4\n        /* \"contracts/MyToken.sol\":1620:1624  true */\n      0x01\n        /* \"contracts/MyToken.sol\":1613:1624  return true */\n      swap1\n      pop\n        /* \"contracts/MyToken.sol\":1124:1633  function Transfer(address _reciever,uint _amount) public returns (bool){\r... */\n      swap3\n      swap2\n      pop\n      pop\n      jump\t// out\n        /* \"contracts/MyToken.sol\":1007:1116  function balanceOf(address _account) public view returns (uint256){\r... */\n    tag_28:\n        /* \"contracts/MyToken.sol\":1065:1072  uint256 */\n      0x00\n        /* \"contracts/MyToken.sol\":1091:1098  balance */\n      0x04\n        /* \"contracts/MyToken.sol\":1091:1108  balance[_account] */\n      0x00\n        /* \"contracts/MyToken.sol\":1099:1107  _account */\n      dup4\n        /* \"contracts/MyToken.sol\":1091:1108  balance[_account] */\n      0xffffffffffffffffffffffffffffffffffffffff\n      and\n      0xffffffffffffffffffffffffffffffffffffffff\n      and\n      dup2\n      mstore\n      0x20\n      add\n      swap1\n      dup2\n      mstore\n      0x20\n      add\n      0x00\n      keccak256\n      sload\n        /* \"contracts/MyToken.sol\":1084:1108  return balance[_account] */\n      swap1\n      pop\n        /* \"contracts/MyToken.sol\":1007:1116  function balanceOf(address _account) public view returns (uint256){\r... */\n      swap2\n      swap1\n      pop\n      jump\t// out\n        /* \"contracts/MyToken.sol\":822:901  function decimal() public view returns (uint){\r... */\n    tag_31:\n        /* \"contracts/MyToken.sol\":862:866  uint */\n      0x00\n        /* \"contracts/MyToken.sol\":885:893  _decimal */\n      0x02\n      0x00\n      swap1\n      sload\n      swap1\n      0x0100\n      exp\n      swap1\n      div\n      0xffffffff\n      and\n        /* \"contracts/MyToken.sol\":878:893  return _decimal */\n      0xffffffff\n      and\n      swap1\n      pop\n        /* \"contracts/MyToken.sol\":822:901  function decimal() public view returns (uint){\r... */\n      swap1\n      jump\t// out\n        /* \"contracts/MyToken.sol\":1641:1965  function Approve(address _spender,uint _amount) public returns (bool){\r... */\n    tag_35:\n        /* \"contracts/MyToken.sol\":1705:1709  bool */\n      0x00\n        /* \"contracts/MyToken.sol\":1751:1752  0 */\n      dup1\n        /* \"contracts/MyToken.sol\":1729:1753  msg.sender != address(0) */\n      0xffffffffffffffffffffffffffffffffffffffff\n      and\n        /* \"contracts/MyToken.sol\":1729:1739  msg.sender */\n      caller\n        /* \"contracts/MyToken.sol\":1729:1753  msg.sender != address(0) */\n      0xffffffffffffffffffffffffffffffffffffffff\n      and\n      eq\n      iszero\n        /* \"contracts/MyToken.sol\":1721:1772  require(msg.sender != address(0),\"Invalid Address\") */\n      tag_62\n      jumpi\n      mload(0x40)\n      0x08c379a000000000000000000000000000000000000000000000000000000000\n      dup2\n      mstore\n      0x04\n      add\n      tag_63\n      swap1\n      tag_51\n      jump\t// in\n    tag_63:\n      mload(0x40)\n      dup1\n      swap2\n      sub\n      swap1\n      revert\n    tag_62:\n        /* \"contracts/MyToken.sol\":1810:1811  0 */\n      0x00\n        /* \"contracts/MyToken.sol\":1791:1812  _spender!= address(0) */\n      0xffffffffffffffffffffffffffffffffffffffff\n      and\n        /* \"contracts/MyToken.sol\":1791:1799  _spender */\n      dup4\n        /* \"contracts/MyToken.sol\":1791:1812  _spender!= address(0) */\n      0xffffffffffffffffffffffffffffffffffffffff\n      and\n      eq\n      iszero\n        /* \"contracts/MyToken.sol\":1783:1831  require(_spender!= address(0),\"Invalid Address\") */\n      tag_64\n      jumpi\n      mload(0x40)\n      0x08c379a000000000000000000000000000000000000000000000000000000000\n      dup2\n      mstore\n      0x04\n      add\n      tag_65\n      swap1\n      tag_51\n      jump\t// in\n    tag_65:\n      mload(0x40)\n      dup1\n      swap2\n      sub\n      swap1\n      revert\n    tag_64:\n        /* \"contracts/MyToken.sol\":1872:1879  _amount */\n      dup2\n        /* \"contracts/MyToken.sol\":1842:1847  allow */\n      0x05\n        /* \"contracts/MyToken.sol\":1842:1859  allow[msg.sender] */\n      0x00\n        /* \"contracts/MyToken.sol\":1848:1858  msg.sender */\n      caller\n        /* \"contracts/MyToken.sol\":1842:1859  allow[msg.sender] */\n      0xffffffffffffffffffffffffffffffffffffffff\n      and\n      0xffffffffffffffffffffffffffffffffffffffff\n      and\n      dup2\n      mstore\n      0x20\n      add\n      swap1\n      dup2\n      mstore\n      0x20\n      add\n      0x00\n      keccak256\n        /* \"contracts/MyToken.sol\":1842:1869  allow[msg.sender][_spender] */\n      0x00\n        /* \"contracts/MyToken.sol\":1860:1868  _spender */\n      dup6\n        /* \"contracts/MyToken.sol\":1842:1869  allow[msg.sender][_spender] */\n      0xffffffffffffffffffffffffffffffffffffffff\n      and\n      0xffffffffffffffffffffffffffffffffffffffff\n      and\n      dup2\n      mstore\n      0x20\n      add\n      swap1\n      dup2\n      mstore\n      0x20\n      add\n      0x00\n      keccak256\n        /* \"contracts/MyToken.sol\":1842:1879  allow[msg.sender][_spender] = _amount */\n      dup2\n      swap1\n      sstore\n      pop\n        /* \"contracts/MyToken.sol\":1925:1932  _amount */\n      dup2\n        /* \"contracts/MyToken.sol\":1916:1924  _spender */\n      dup4\n        /* \"contracts/MyToken.sol\":1895:1933  _Approval(msg.sender,_spender,_amount) */\n      0xffffffffffffffffffffffffffffffffffffffff\n      and\n        /* \"contracts/MyToken.sol\":1905:1915  msg.sender */\n      caller\n        /* \"contracts/MyToken.sol\":1895:1933  _Approval(msg.sender,_spender,_amount) */\n      0xffffffffffffffffffffffffffffffffffffffff\n      and\n      0xacfd752d48a417d90cfd4cb230c1bd38b8535ad2e8291bd8173e1ce6122c1e6e\n      mload(0x40)\n      mload(0x40)\n      dup1\n      swap2\n      sub\n      swap1\n      log4\n        /* \"contracts/MyToken.sol\":1951:1955  true */\n      0x01\n        /* \"contracts/MyToken.sol\":1944:1955  return true */\n      swap1\n      pop\n        /* \"contracts/MyToken.sol\":1641:1965  function Approve(address _spender,uint _amount) public returns (bool){\r... */\n      swap3\n      swap2\n      pop\n      pop\n      jump\t// out\n        /* \"contracts/MyToken.sol\":728:814  function symbol() public view returns (string memory){\r... */\n    tag_38:\n        /* \"contracts/MyToken.sol\":767:780  string memory */\n      0x60\n        /* \"contracts/MyToken.sol\":799:806  _symbol */\n      0x01\n        /* \"contracts/MyToken.sol\":792:806  return _symbol */\n      dup1\n      sload\n      tag_67\n      swap1\n      tag_42\n      jump\t// in\n    tag_67:\n      dup1\n      0x1f\n      add\n      0x20\n      dup1\n      swap2\n      div\n      mul\n      0x20\n      add\n      mload(0x40)\n      swap1\n      dup2\n      add\n      0x40\n      mstore\n      dup1\n      swap3\n      swap2\n      swap1\n      dup2\n      dup2\n      mstore\n      0x20\n      add\n      dup3\n      dup1\n      sload\n      tag_68\n      swap1\n      tag_42\n      jump\t// in\n    tag_68:\n      dup1\n      iszero\n      tag_69\n      jumpi\n      dup1\n      0x1f\n      lt\n      tag_70\n      jumpi\n      0x0100\n      dup1\n      dup4\n      sload\n      div\n      mul\n      dup4\n      mstore\n      swap2\n      0x20\n      add\n      swap2\n      jump(tag_69)\n    tag_70:\n      dup3\n      add\n      swap2\n      swap1\n      0x00\n      mstore\n      keccak256(0x00, 0x20)\n      swap1\n    tag_71:\n      dup2\n      sload\n      dup2\n      mstore\n      swap1\n      0x01\n      add\n      swap1\n      0x20\n      add\n      dup1\n      dup4\n      gt\n      tag_71\n      jumpi\n      dup3\n      swap1\n      sub\n      0x1f\n      and\n      dup3\n      add\n      swap2\n    tag_69:\n      pop\n      pop\n      pop\n      pop\n      pop\n      swap1\n      pop\n        /* \"contracts/MyToken.sol\":728:814  function symbol() public view returns (string memory){\r... */\n      swap1\n      jump\t// out\n        /* \"#utility.yul\":7:146   */\n    tag_73:\n        /* \"#utility.yul\":53:58   */\n      0x00\n        /* \"#utility.yul\":91:97   */\n      dup2\n        /* \"#utility.yul\":78:98   */\n      calldataload\n        /* \"#utility.yul\":69:98   */\n      swap1\n      pop\n        /* \"#utility.yul\":107:140   */\n      tag_75\n        /* \"#utility.yul\":134:139   */\n      dup2\n        /* \"#utility.yul\":107:140   */\n      tag_76\n      jump\t// in\n    tag_75:\n        /* \"#utility.yul\":7:146   */\n      swap3\n      swap2\n      pop\n      pop\n      jump\t// out\n        /* \"#utility.yul\":152:291   */\n    tag_77:\n        /* \"#utility.yul\":198:203   */\n      0x00\n        /* \"#utility.yul\":236:242   */\n      dup2\n        /* \"#utility.yul\":223:243   */\n      calldataload\n        /* \"#utility.yul\":214:243   */\n      swap1\n      pop\n        /* \"#utility.yul\":252:285   */\n      tag_79\n        /* \"#utility.yul\":279:284   */\n      dup2\n        /* \"#utility.yul\":252:285   */\n      tag_80\n      jump\t// in\n    tag_79:\n        /* \"#utility.yul\":152:291   */\n      swap3\n      swap2\n      pop\n      pop\n      jump\t// out\n        /* \"#utility.yul\":297:626   */\n    tag_27:\n        /* \"#utility.yul\":356:362   */\n      0x00\n        /* \"#utility.yul\":405:407   */\n      0x20\n        /* \"#utility.yul\":393:402   */\n      dup3\n        /* \"#utility.yul\":384:391   */\n      dup5\n        /* \"#utility.yul\":380:403   */\n      sub\n        /* \"#utility.yul\":376:408   */\n      slt\n        /* \"#utility.yul\":373:492   */\n      iszero\n      tag_82\n      jumpi\n        /* \"#utility.yul\":411:490   */\n      tag_83\n      tag_84\n      jump\t// in\n    tag_83:\n        /* \"#utility.yul\":373:492   */\n    tag_82:\n        /* \"#utility.yul\":531:532   */\n      0x00\n        /* \"#utility.yul\":556:609   */\n      tag_85\n        /* \"#utility.yul\":601:608   */\n      dup5\n        /* \"#utility.yul\":592:598   */\n      dup3\n        /* \"#utility.yul\":581:590   */\n      dup6\n        /* \"#utility.yul\":577:599   */\n      add\n        /* \"#utility.yul\":556:609   */\n      tag_73\n      jump\t// in\n    tag_85:\n        /* \"#utility.yul\":546:609   */\n      swap2\n      pop\n        /* \"#utility.yul\":502:619   */\n      pop\n        /* \"#utility.yul\":297:626   */\n      swap3\n      swap2\n      pop\n      pop\n      jump\t// out\n        /* \"#utility.yul\":632:1106   */\n    tag_21:\n        /* \"#utility.yul\":700:706   */\n      0x00\n        /* \"#utility.yul\":708:714   */\n      dup1\n        /* \"#utility.yul\":757:759   */\n      0x40\n        /* \"#utility.yul\":745:754   */\n      dup4\n        /* \"#utility.yul\":736:743   */\n      dup6\n        /* \"#utility.yul\":732:755   */\n      sub\n        /* \"#utility.yul\":728:760   */\n      slt\n        /* \"#utility.yul\":725:844   */\n      iszero\n      tag_87\n      jumpi\n        /* \"#utility.yul\":763:842   */\n      tag_88\n      tag_84\n      jump\t// in\n    tag_88:\n        /* \"#utility.yul\":725:844   */\n    tag_87:\n        /* \"#utility.yul\":883:884   */\n      0x00\n        /* \"#utility.yul\":908:961   */\n      tag_89\n        /* \"#utility.yul\":953:960   */\n      dup6\n        /* \"#utility.yul\":944:950   */\n      dup3\n        /* \"#utility.yul\":933:942   */\n      dup7\n        /* \"#utility.yul\":929:951   */\n      add\n        /* \"#utility.yul\":908:961   */\n      tag_73\n      jump\t// in\n    tag_89:\n        /* \"#utility.yul\":898:961   */\n      swap3\n      pop\n        /* \"#utility.yul\":854:971   */\n      pop\n        /* \"#utility.yul\":1010:1012   */\n      0x20\n        /* \"#utility.yul\":1036:1089   */\n      tag_90\n        /* \"#utility.yul\":1081:1088   */\n      dup6\n        /* \"#utility.yul\":1072:1078   */\n      dup3\n        /* \"#utility.yul\":1061:1070   */\n      dup7\n        /* \"#utility.yul\":1057:1079   */\n      add\n        /* \"#utility.yul\":1036:1089   */\n      tag_77\n      jump\t// in\n    tag_90:\n        /* \"#utility.yul\":1026:1089   */\n      swap2\n      pop\n        /* \"#utility.yul\":981:1099   */\n      pop\n        /* \"#utility.yul\":632:1106   */\n      swap3\n      pop\n      swap3\n      swap1\n      pop\n      jump\t// out\n        /* \"#utility.yul\":1112:1221   */\n    tag_91:\n        /* \"#utility.yul\":1193:1214   */\n      tag_93\n        /* \"#utility.yul\":1208:1213   */\n      dup2\n        /* \"#utility.yul\":1193:1214   */\n      tag_94\n      jump\t// in\n    tag_93:\n        /* \"#utility.yul\":1188:1191   */\n      dup3\n        /* \"#utility.yul\":1181:1215   */\n      mstore\n        /* \"#utility.yul\":1112:1221   */\n      pop\n      pop\n      jump\t// out\n        /* \"#utility.yul\":1227:1591   */\n    tag_95:\n        /* \"#utility.yul\":1315:1318   */\n      0x00\n        /* \"#utility.yul\":1343:1382   */\n      tag_97\n        /* \"#utility.yul\":1376:1381   */\n      dup3\n        /* \"#utility.yul\":1343:1382   */\n      tag_98\n      jump\t// in\n    tag_97:\n        /* \"#utility.yul\":1398:1469   */\n      tag_99\n        /* \"#utility.yul\":1462:1468   */\n      dup2\n        /* \"#utility.yul\":1457:1460   */\n      dup6\n        /* \"#utility.yul\":1398:1469   */\n      tag_100\n      jump\t// in\n    tag_99:\n        /* \"#utility.yul\":1391:1469   */\n      swap4\n      pop\n        /* \"#utility.yul\":1478:1530   */\n      tag_101\n        /* \"#utility.yul\":1523:1529   */\n      dup2\n        /* \"#utility.yul\":1518:1521   */\n      dup6\n        /* \"#utility.yul\":1511:1515   */\n      0x20\n        /* \"#utility.yul\":1504:1509   */\n      dup7\n        /* \"#utility.yul\":1500:1516   */\n      add\n        /* \"#utility.yul\":1478:1530   */\n      tag_102\n      jump\t// in\n    tag_101:\n        /* \"#utility.yul\":1555:1584   */\n      tag_103\n        /* \"#utility.yul\":1577:1583   */\n      dup2\n        /* \"#utility.yul\":1555:1584   */\n      tag_104\n      jump\t// in\n    tag_103:\n        /* \"#utility.yul\":1550:1553   */\n      dup5\n        /* \"#utility.yul\":1546:1585   */\n      add\n        /* \"#utility.yul\":1539:1585   */\n      swap2\n      pop\n        /* \"#utility.yul\":1319:1591   */\n      pop\n        /* \"#utility.yul\":1227:1591   */\n      swap3\n      swap2\n      pop\n      pop\n      jump\t// out\n        /* \"#utility.yul\":1597:1963   */\n    tag_105:\n        /* \"#utility.yul\":1739:1742   */\n      0x00\n        /* \"#utility.yul\":1760:1827   */\n      tag_107\n        /* \"#utility.yul\":1824:1826   */\n      0x10\n        /* \"#utility.yul\":1819:1822   */\n      dup4\n        /* \"#utility.yul\":1760:1827   */\n      tag_100\n      jump\t// in\n    tag_107:\n        /* \"#utility.yul\":1753:1827   */\n      swap2\n      pop\n        /* \"#utility.yul\":1836:1929   */\n      tag_108\n        /* \"#utility.yul\":1925:1928   */\n      dup3\n        /* \"#utility.yul\":1836:1929   */\n      tag_109\n      jump\t// in\n    tag_108:\n        /* \"#utility.yul\":1954:1956   */\n      0x20\n        /* \"#utility.yul\":1949:1952   */\n      dup3\n        /* \"#utility.yul\":1945:1957   */\n      add\n        /* \"#utility.yul\":1938:1957   */\n      swap1\n      pop\n        /* \"#utility.yul\":1597:1963   */\n      swap2\n      swap1\n      pop\n      jump\t// out\n        /* \"#utility.yul\":1969:2335   */\n    tag_110:\n        /* \"#utility.yul\":2111:2114   */\n      0x00\n        /* \"#utility.yul\":2132:2199   */\n      tag_112\n        /* \"#utility.yul\":2196:2198   */\n      0x0f\n        /* \"#utility.yul\":2191:2194   */\n      dup4\n        /* \"#utility.yul\":2132:2199   */\n      tag_100\n      jump\t// in\n    tag_112:\n        /* \"#utility.yul\":2125:2199   */\n      swap2\n      pop\n        /* \"#utility.yul\":2208:2301   */\n      tag_113\n        /* \"#utility.yul\":2297:2300   */\n      dup3\n        /* \"#utility.yul\":2208:2301   */\n      tag_114\n      jump\t// in\n    tag_113:\n        /* \"#utility.yul\":2326:2328   */\n      0x20\n        /* \"#utility.yul\":2321:2324   */\n      dup3\n        /* \"#utility.yul\":2317:2329   */\n      add\n        /* \"#utility.yul\":2310:2329   */\n      swap1\n      pop\n        /* \"#utility.yul\":1969:2335   */\n      swap2\n      swap1\n      pop\n      jump\t// out\n        /* \"#utility.yul\":2341:2459   */\n    tag_115:\n        /* \"#utility.yul\":2428:2452   */\n      tag_117\n        /* \"#utility.yul\":2446:2451   */\n      dup2\n        /* \"#utility.yul\":2428:2452   */\n      tag_118\n      jump\t// in\n    tag_117:\n        /* \"#utility.yul\":2423:2426   */\n      dup3\n        /* \"#utility.yul\":2416:2453   */\n      mstore\n        /* \"#utility.yul\":2341:2459   */\n      pop\n      pop\n      jump\t// out\n        /* \"#utility.yul\":2465:2675   */\n    tag_24:\n        /* \"#utility.yul\":2552:2556   */\n      0x00\n        /* \"#utility.yul\":2590:2592   */\n      0x20\n        /* \"#utility.yul\":2579:2588   */\n      dup3\n        /* \"#utility.yul\":2575:2593   */\n      add\n        /* \"#utility.yul\":2567:2593   */\n      swap1\n      pop\n        /* \"#utility.yul\":2603:2668   */\n      tag_120\n        /* \"#utility.yul\":2665:2666   */\n      0x00\n        /* \"#utility.yul\":2654:2663   */\n      dup4\n        /* \"#utility.yul\":2650:2667   */\n      add\n        /* \"#utility.yul\":2641:2647   */\n      dup5\n        /* \"#utility.yul\":2603:2668   */\n      tag_91\n      jump\t// in\n    tag_120:\n        /* \"#utility.yul\":2465:2675   */\n      swap3\n      swap2\n      pop\n      pop\n      jump\t// out\n        /* \"#utility.yul\":2681:2994   */\n    tag_14:\n        /* \"#utility.yul\":2794:2798   */\n      0x00\n        /* \"#utility.yul\":2832:2834   */\n      0x20\n        /* \"#utility.yul\":2821:2830   */\n      dup3\n        /* \"#utility.yul\":2817:2835   */\n      add\n        /* \"#utility.yul\":2809:2835   */\n      swap1\n      pop\n        /* \"#utility.yul\":2881:2890   */\n      dup2\n        /* \"#utility.yul\":2875:2879   */\n      dup2\n        /* \"#utility.yul\":2871:2891   */\n      sub\n        /* \"#utility.yul\":2867:2868   */\n      0x00\n        /* \"#utility.yul\":2856:2865   */\n      dup4\n        /* \"#utility.yul\":2852:2869   */\n      add\n        /* \"#utility.yul\":2845:2892   */\n      mstore\n        /* \"#utility.yul\":2909:2987   */\n      tag_122\n        /* \"#utility.yul\":2982:2986   */\n      dup2\n        /* \"#utility.yul\":2973:2979   */\n      dup5\n        /* \"#utility.yul\":2909:2987   */\n      tag_95\n      jump\t// in\n    tag_122:\n        /* \"#utility.yul\":2901:2987   */\n      swap1\n      pop\n        /* \"#utility.yul\":2681:2994   */\n      swap3\n      swap2\n      pop\n      pop\n      jump\t// out\n        /* \"#utility.yul\":3000:3419   */\n    tag_54:\n        /* \"#utility.yul\":3166:3170   */\n      0x00\n        /* \"#utility.yul\":3204:3206   */\n      0x20\n        /* \"#utility.yul\":3193:3202   */\n      dup3\n        /* \"#utility.yul\":3189:3207   */\n      add\n        /* \"#utility.yul\":3181:3207   */\n      swap1\n      pop\n        /* \"#utility.yul\":3253:3262   */\n      dup2\n        /* \"#utility.yul\":3247:3251   */\n      dup2\n        /* \"#utility.yul\":3243:3263   */\n      sub\n        /* \"#utility.yul\":3239:3240   */\n      0x00\n        /* \"#utility.yul\":3228:3237   */\n      dup4\n        /* \"#utility.yul\":3224:3241   */\n      add\n        /* \"#utility.yul\":3217:3264   */\n      mstore\n        /* \"#utility.yul\":3281:3412   */\n      tag_124\n        /* \"#utility.yul\":3407:3411   */\n      dup2\n        /* \"#utility.yul\":3281:3412   */\n      tag_105\n      jump\t// in\n    tag_124:\n        /* \"#utility.yul\":3273:3412   */\n      swap1\n      pop\n        /* \"#utility.yul\":3000:3419   */\n      swap2\n      swap1\n      pop\n      jump\t// out\n        /* \"#utility.yul\":3425:3844   */\n    tag_51:\n        /* \"#utility.yul\":3591:3595   */\n      0x00\n        /* \"#utility.yul\":3629:3631   */\n      0x20\n        /* \"#utility.yul\":3618:3627   */\n      dup3\n        /* \"#utility.yul\":3614:3632   */\n      add\n        /* \"#utility.yul\":3606:3632   */\n      swap1\n      pop\n        /* \"#utility.yul\":3678:3687   */\n      dup2\n        /* \"#utility.yul\":3672:3676   */\n      dup2\n        /* \"#utility.yul\":3668:3688   */\n      sub\n        /* \"#utility.yul\":3664:3665   */\n      0x00\n        /* \"#utility.yul\":3653:3662   */\n      dup4\n        /* \"#utility.yul\":3649:3666   */\n      add\n        /* \"#utility.yul\":3642:3689   */\n      mstore\n        /* \"#utility.yul\":3706:3837   */\n      tag_126\n        /* \"#utility.yul\":3832:3836   */\n      dup2\n        /* \"#utility.yul\":3706:3837   */\n      tag_110\n      jump\t// in\n    tag_126:\n        /* \"#utility.yul\":3698:3837   */\n      swap1\n      pop\n        /* \"#utility.yul\":3425:3844   */\n      swap2\n      swap1\n      pop\n      jump\t// out\n        /* \"#utility.yul\":3850:4072   */\n    tag_18:\n        /* \"#utility.yul\":3943:3947   */\n      0x00\n        /* \"#utility.yul\":3981:3983   */\n      0x20\n        /* \"#utility.yul\":3970:3979   */\n      dup3\n        /* \"#utility.yul\":3966:3984   */\n      add\n        /* \"#utility.yul\":3958:3984   */\n      swap1\n      pop\n        /* \"#utility.yul\":3994:4065   */\n      tag_128\n        /* \"#utility.yul\":4062:4063   */\n      0x00\n        /* \"#utility.yul\":4051:4060   */\n      dup4\n        /* \"#utility.yul\":4047:4064   */\n      add\n        /* \"#utility.yul\":4038:4044   */\n      dup5\n        /* \"#utility.yul\":3994:4065   */\n      tag_115\n      jump\t// in\n    tag_128:\n        /* \"#utility.yul\":3850:4072   */\n      swap3\n      swap2\n      pop\n      pop\n      jump\t// out\n        /* \"#utility.yul\":4159:4258   */\n    tag_98:\n        /* \"#utility.yul\":4211:4217   */\n      0x00\n        /* \"#utility.yul\":4245:4250   */\n      dup2\n        /* \"#utility.yul\":4239:4251   */\n      mload\n        /* \"#utility.yul\":4229:4251   */\n      swap1\n      pop\n        /* \"#utility.yul\":4159:4258   */\n      swap2\n      swap1\n      pop\n      jump\t// out\n        /* \"#utility.yul\":4264:4433   */\n    tag_100:\n        /* \"#utility.yul\":4348:4359   */\n      0x00\n        /* \"#utility.yul\":4382:4388   */\n      dup3\n        /* \"#utility.yul\":4377:4380   */\n      dup3\n        /* \"#utility.yul\":4370:4389   */\n      mstore\n        /* \"#utility.yul\":4422:4426   */\n      0x20\n        /* \"#utility.yul\":4417:4420   */\n      dup3\n        /* \"#utility.yul\":4413:4427   */\n      add\n        /* \"#utility.yul\":4398:4427   */\n      swap1\n      pop\n        /* \"#utility.yul\":4264:4433   */\n      swap3\n      swap2\n      pop\n      pop\n      jump\t// out\n        /* \"#utility.yul\":4439:4744   */\n    tag_58:\n        /* \"#utility.yul\":4479:4482   */\n      0x00\n        /* \"#utility.yul\":4498:4518   */\n      tag_134\n        /* \"#utility.yul\":4516:4517   */\n      dup3\n        /* \"#utility.yul\":4498:4518   */\n      tag_118\n      jump\t// in\n    tag_134:\n        /* \"#utility.yul\":4493:4518   */\n      swap2\n      pop\n        /* \"#utility.yul\":4532:4552   */\n      tag_135\n        /* \"#utility.yul\":4550:4551   */\n      dup4\n        /* \"#utility.yul\":4532:4552   */\n      tag_118\n      jump\t// in\n    tag_135:\n        /* \"#utility.yul\":4527:4552   */\n      swap3\n      pop\n        /* \"#utility.yul\":4686:4687   */\n      dup3\n        /* \"#utility.yul\":4618:4684   */\n      0xffffffffffffffffffffffffffffffffffffffffffffffffffffffffffffffff\n        /* \"#utility.yul\":4614:4688   */\n      sub\n        /* \"#utility.yul\":4611:4612   */\n      dup3\n        /* \"#utility.yul\":4608:4689   */\n      gt\n        /* \"#utility.yul\":4605:4712   */\n      iszero\n      tag_136\n      jumpi\n        /* \"#utility.yul\":4692:4710   */\n      tag_137\n      tag_138\n      jump\t// in\n    tag_137:\n        /* \"#utility.yul\":4605:4712   */\n    tag_136:\n        /* \"#utility.yul\":4736:4737   */\n      dup3\n        /* \"#utility.yul\":4733:4734   */\n      dup3\n        /* \"#utility.yul\":4729:4738   */\n      add\n        /* \"#utility.yul\":4722:4738   */\n      swap1\n      pop\n        /* \"#utility.yul\":4439:4744   */\n      swap3\n      swap2\n      pop\n      pop\n      jump\t// out\n        /* \"#utility.yul\":4750:4941   */\n    tag_56:\n        /* \"#utility.yul\":4790:4794   */\n      0x00\n        /* \"#utility.yul\":4810:4830   */\n      tag_140\n        /* \"#utility.yul\":4828:4829   */\n      dup3\n        /* \"#utility.yul\":4810:4830   */\n      tag_118\n      jump\t// in\n    tag_140:\n        /* \"#utility.yul\":4805:4830   */\n      swap2\n      pop\n        /* \"#utility.yul\":4844:4864   */\n      tag_141\n        /* \"#utility.yul\":4862:4863   */\n      dup4\n        /* \"#utility.yul\":4844:4864   */\n      tag_118\n      jump\t// in\n    tag_141:\n        /* \"#utility.yul\":4839:4864   */\n      swap3\n      pop\n        /* \"#utility.yul\":4883:4884   */\n      dup3\n        /* \"#utility.yul\":4880:4881   */\n      dup3\n        /* \"#utility.yul\":4877:4885   */\n      lt\n        /* \"#utility.yul\":4874:4908   */\n      iszero\n      tag_142\n      jumpi\n        /* \"#utility.yul\":4888:4906   */\n      tag_143\n      tag_138\n      jump\t// in\n    tag_143:\n        /* \"#utility.yul\":4874:4908   */\n    tag_142:\n        /* \"#utility.yul\":4933:4934   */\n      dup3\n        /* \"#utility.yul\":4930:4931   */\n      dup3\n        /* \"#utility.yul\":4926:4935   */\n      sub\n        /* \"#utility.yul\":4918:4935   */\n      swap1\n      pop\n        /* \"#utility.yul\":4750:4941   */\n      swap3\n      swap2\n      pop\n      pop\n      jump\t// out\n        /* \"#utility.yul\":4947:5043   */\n    tag_144:\n        /* \"#utility.yul\":4984:4991   */\n      0x00\n        /* \"#utility.yul\":5013:5037   */\n      tag_146\n        /* \"#utility.yul\":5031:5036   */\n      dup3\n        /* \"#utility.yul\":5013:5037   */\n      tag_147\n      jump\t// in\n    tag_146:\n        /* \"#utility.yul\":5002:5037   */\n      swap1\n      pop\n        /* \"#utility.yul\":4947:5043   */\n      swap2\n      swap1\n      pop\n      jump\t// out\n        /* \"#utility.yul\":5049:5139   */\n    tag_94:\n        /* \"#utility.yul\":5083:5090   */\n      0x00\n        /* \"#utility.yul\":5126:5131   */\n      dup2\n        /* \"#utility.yul\":5119:5132   */\n      iszero\n        /* \"#utility.yul\":5112:5133   */\n      iszero\n        /* \"#utility.yul\":5101:5133   */\n      swap1\n      pop\n        /* \"#utility.yul\":5049:5139   */\n      swap2\n      swap1\n      pop\n      jump\t// out\n        /* \"#utility.yul\":5145:5271   */\n    tag_147:\n        /* \"#utility.yul\":5182:5189   */\n      0x00\n        /* \"#utility.yul\":5222:5264   */\n      0xffffffffffffffffffffffffffffffffffffffff\n        /* \"#utility.yul\":5215:5220   */\n      dup3\n        /* \"#utility.yul\":5211:5265   */\n      and\n        /* \"#utility.yul\":5200:5265   */\n      swap1\n      pop\n        /* \"#utility.yul\":5145:5271   */\n      swap2\n      swap1\n      pop\n      jump\t// out\n        /* \"#utility.yul\":5277:5354   */\n    tag_118:\n        /* \"#utility.yul\":5314:5321   */\n      0x00\n        /* \"#utility.yul\":5343:5348   */\n      dup2\n        /* \"#utility.yul\":5332:5348   */\n      swap1\n      pop\n        /* \"#utility.yul\":5277:5354   */\n      swap2\n      swap1\n      pop\n      jump\t// out\n        /* \"#utility.yul\":5360:5667   */\n    tag_102:\n        /* \"#utility.yul\":5428:5429   */\n      0x00\n        /* \"#utility.yul\":5438:5551   */\n    tag_152:\n        /* \"#utility.yul\":5452:5458   */\n      dup4\n        /* \"#utility.yul\":5449:5450   */\n      dup2\n        /* \"#utility.yul\":5446:5459   */\n      lt\n        /* \"#utility.yul\":5438:5551   */\n      iszero\n      tag_154\n      jumpi\n        /* \"#utility.yul\":5537:5538   */\n      dup1\n        /* \"#utility.yul\":5532:5535   */\n      dup3\n        /* \"#utility.yul\":5528:5539   */\n      add\n        /* \"#utility.yul\":5522:5540   */\n      mload\n        /* \"#utility.yul\":5518:5519   */\n      dup2\n        /* \"#utility.yul\":5513:5516   */\n      dup5\n        /* \"#utility.yul\":5509:5520   */\n      add\n        /* \"#utility.yul\":5502:5541   */\n      mstore\n        /* \"#utility.yul\":5474:5476   */\n      0x20\n        /* \"#utility.yul\":5471:5472   */\n      dup2\n        /* \"#utility.yul\":5467:5477   */\n      add\n        /* \"#utility.yul\":5462:5477   */\n      swap1\n      pop\n        /* \"#utility.yul\":5438:5551   */\n      jump(tag_152)\n    tag_154:\n        /* \"#utility.yul\":5569:5575   */\n      dup4\n        /* \"#utility.yul\":5566:5567   */\n      dup2\n        /* \"#utility.yul\":5563:5576   */\n      gt\n        /* \"#utility.yul\":5560:5661   */\n      iszero\n      tag_155\n      jumpi\n        /* \"#utility.yul\":5649:5650   */\n      0x00\n        /* \"#utility.yul\":5640:5646   */\n      dup5\n        /* \"#utility.yul\":5635:5638   */\n      dup5\n        /* \"#utility.yul\":5631:5647   */\n      add\n        /* \"#utility.yul\":5624:5651   */\n      mstore\n        /* \"#utility.yul\":5560:5661   */\n    tag_155:\n        /* \"#utility.yul\":5409:5667   */\n      pop\n        /* \"#utility.yul\":5360:5667   */\n      pop\n      pop\n      pop\n      jump\t// out\n        /* \"#utility.yul\":5673:5993   */\n    tag_42:\n        /* \"#utility.yul\":5717:5723   */\n      0x00\n        /* \"#utility.yul\":5754:5755   */\n      0x02\n        /* \"#utility.yul\":5748:5752   */\n      dup3\n        /* \"#utility.yul\":5744:5756   */\n      div\n        /* \"#utility.yul\":5734:5756   */\n      swap1\n      pop\n        /* \"#utility.yul\":5801:5802   */\n      0x01\n        /* \"#utility.yul\":5795:5799   */\n      dup3\n        /* \"#utility.yul\":5791:5803   */\n      and\n        /* \"#utility.yul\":5822:5840   */\n      dup1\n        /* \"#utility.yul\":5812:5893   */\n      tag_157\n      jumpi\n        /* \"#utility.yul\":5878:5882   */\n      0x7f\n        /* \"#utility.yul\":5870:5876   */\n      dup3\n        /* \"#utility.yul\":5866:5883   */\n      and\n        /* \"#utility.yul\":5856:5883   */\n      swap2\n      pop\n        /* \"#utility.yul\":5812:5893   */\n    tag_157:\n        /* \"#utility.yul\":5940:5942   */\n      0x20\n        /* \"#utility.yul\":5932:5938   */\n      dup3\n        /* \"#utility.yul\":5929:5943   */\n      lt\n        /* \"#utility.yul\":5909:5927   */\n      dup2\n        /* \"#utility.yul\":5906:5944   */\n      eq\n        /* \"#utility.yul\":5903:5987   */\n      iszero\n      tag_158\n      jumpi\n        /* \"#utility.yul\":5959:5977   */\n      tag_159\n      tag_160\n      jump\t// in\n    tag_159:\n        /* \"#utility.yul\":5903:5987   */\n    tag_158:\n        /* \"#utility.yul\":5724:5993   */\n      pop\n        /* \"#utility.yul\":5673:5993   */\n      swap2\n      swap1\n      pop\n      jump\t// out\n        /* \"#utility.yul\":5999:6179   */\n    tag_138:\n        /* \"#utility.yul\":6047:6124   */\n      0x4e487b7100000000000000000000000000000000000000000000000000000000\n        /* \"#utility.yul\":6044:6045   */\n      0x00\n        /* \"#utility.yul\":6037:6125   */\n      mstore\n        /* \"#utility.yul\":6144:6148   */\n      0x11\n        /* \"#utility.yul\":6141:6142   */\n      0x04\n        /* \"#utility.yul\":6134:6149   */\n      mstore\n        /* \"#utility.yul\":6168:6172   */\n      0x24\n        /* \"#utility.yul\":6165:6166   */\n      0x00\n        /* \"#utility.yul\":6158:6173   */\n      revert\n        /* \"#utility.yul\":6185:6365   */\n    tag_160:\n        /* \"#utility.yul\":6233:6310   */\n      0x4e487b7100000000000000000000000000000000000000000000000000000000\n        /* \"#utility.yul\":6230:6231   */\n      0x00\n        /* \"#utility.yul\":6223:6311   */\n      mstore\n        /* \"#utility.yul\":6330:6334   */\n      0x22\n        /* \"#utility.yul\":6327:6328   */\n      0x04\n        /* \"#utility.yul\":6320:6335   */\n      mstore\n        /* \"#utility.yul\":6354:6358   */\n      0x24\n        /* \"#utility.yul\":6351:6352   */\n      0x00\n        /* \"#utility.yul\":6344:6359   */\n      revert\n        /* \"#utility.yul\":6494:6611   */\n    tag_84:\n        /* \"#utility.yul\":6603:6604   */\n      0x00\n        /* \"#utility.yul\":6600:6601   */\n      dup1\n        /* \"#utility.yul\":6593:6605   */\n      revert\n        /* \"#utility.yul\":6617:6719   */\n    tag_104:\n        /* \"#utility.yul\":6658:6664   */\n      0x00\n        /* \"#utility.yul\":6709:6711   */\n      0x1f\n        /* \"#utility.yul\":6705:6712   */\n      not\n        /* \"#utility.yul\":6700:6702   */\n      0x1f\n        /* \"#utility.yul\":6693:6698   */\n      dup4\n        /* \"#utility.yul\":6689:6703   */\n      add\n        /* \"#utility.yul\":6685:6713   */\n      and\n        /* \"#utility.yul\":6675:6713   */\n      swap1\n      pop\n        /* \"#utility.yul\":6617:6719   */\n      swap2\n      swap1\n      pop\n      jump\t// out\n        /* \"#utility.yul\":6725:6891   */\n    tag_109:\n        /* \"#utility.yul\":6865:6883   */\n      0x4e6f7420456e6f756768204d6f6e657900000000000000000000000000000000\n        /* \"#utility.yul\":6861:6862   */\n      0x00\n        /* \"#utility.yul\":6853:6859   */\n      dup3\n        /* \"#utility.yul\":6849:6863   */\n      add\n        /* \"#utility.yul\":6842:6884   */\n      mstore\n        /* \"#utility.yul\":6725:6891   */\n      pop\n      jump\t// out\n        /* \"#utility.yul\":6897:7062   */\n    tag_114:\n        /* \"#utility.yul\":7037:7054   */\n      0x496e76616c696420416464726573730000000000000000000000000000000000\n        /* \"#utility.yul\":7033:7034   */\n      0x00\n        /* \"#utility.yul\":7025:7031   */\n      dup3\n        /* \"#utility.yul\":7021:7035   */\n      add\n        /* \"#utility.yul\":7014:7055   */\n      mstore\n        /* \"#utility.yul\":6897:7062   */\n      pop\n      jump\t// out\n        /* \"#utility.yul\":7068:7190   */\n    tag_76:\n        /* \"#utility.yul\":7141:7165   */\n      tag_170\n        /* \"#utility.yul\":7159:7164   */\n      dup2\n        /* \"#utility.yul\":7141:7165   */\n      tag_144\n      jump\t// in\n    tag_170:\n        /* \"#utility.yul\":7134:7139   */\n      dup2\n        /* \"#utility.yul\":7131:7166   */\n      eq\n        /* \"#utility.yul\":7121:7184   */\n      tag_171\n      jumpi\n        /* \"#utility.yul\":7180:7181   */\n      0x00\n        /* \"#utility.yul\":7177:7178   */\n      dup1\n        /* \"#utility.yul\":7170:7182   */\n      revert\n        /* \"#utility.yul\":7121:7184   */\n    tag_171:\n        /* \"#utility.yul\":7068:7190   */\n      pop\n      jump\t// out\n        /* \"#utility.yul\":7196:7318   */\n    tag_80:\n        /* \"#utility.yul\":7269:7293   */\n      tag_173\n        /* \"#utility.yul\":7287:7292   */\n      dup2\n        /* \"#utility.yul\":7269:7293   */\n      tag_118\n      jump\t// in\n    tag_173:\n        /* \"#utility.yul\":7262:7267   */\n      dup2\n        /* \"#utility.yul\":7259:7294   */\n      eq\n        /* \"#utility.yul\":7249:7312   */\n      tag_174\n      jumpi\n        /* \"#utility.yul\":7308:7309   */\n      0x00\n        /* \"#utility.yul\":7305:7306   */\n      dup1\n        /* \"#utility.yul\":7298:7310   */\n      revert\n        /* \"#utility.yul\":7249:7312   */\n    tag_174:\n        /* \"#utility.yul\":7196:7318   */\n      pop\n      jump\t// out\n\n    auxdata: 0xa2646970667358221220431e5d2a741828e7107619a53326748b57151d3ef5795943141347a0a848326c64736f6c63430008070033\n}\n",
				"bytecode": {
					"linkReferences": {},
					"object": "60806040523480156200001157600080fd5b506040518060400160405280600e81526020017f4d7920666972737420746f6b656e000000000000000000000000000000000000815250600090805190602001906200005f92919062000126565b506040518060400160405280600381526020017f4d4654000000000000000000000000000000000000000000000000000000000081525060019080519060200190620000ad92919062000126565b506000600260006101000a81548163ffffffff021916908363ffffffff160217905550620f4240600381905550600354600460003373ffffffffffffffffffffffffffffffffffffffff1673ffffffffffffffffffffffffffffffffffffffff168152602001908152602001600020819055506200023b565b8280546200013490620001d6565b90600052602060002090601f016020900481019282620001585760008555620001a4565b82601f106200017357805160ff1916838001178555620001a4565b82800160010185558215620001a4579182015b82811115620001a357825182559160200191906001019062000186565b5b509050620001b39190620001b7565b5090565b5b80821115620001d2576000816000905550600101620001b8565b5090565b60006002820490506001821680620001ef57607f821691505b602082108114156200020657620002056200020c565b5b50919050565b7f4e487b7100000000000000000000000000000000000000000000000000000000600052602260045260246000fd5b610b35806200024b6000396000f3fe608060405234801561001057600080fd5b506004361061007d5760003560e01c806370a082311161005b57806370a08231146100ee57806376809ce31461011e57806390ec57f11461013c57806395d89b411461016c5761007d565b806306fdde031461008257806318160ddd146100a057806369ca02dd146100be575b600080fd5b61008a61018a565b604051610097919061083b565b60405180910390f35b6100a861021c565b6040516100b5919061089d565b60405180910390f35b6100d860048036038101906100d39190610743565b610226565b6040516100e59190610820565b60405180910390f35b61010860048036038101906101039190610716565b61042a565b604051610115919061089d565b60405180910390f35b610126610473565b604051610133919061089d565b60405180910390f35b61015660048036038101906101519190610743565b610493565b6040516101639190610820565b60405180910390f35b61017461065a565b604051610181919061083b565b60405180910390f35b606060008054610199906109d9565b80601f01602080910402602001604051908101604052809291908181526020018280546101c5906109d9565b80156102125780601f106101e757610100808354040283529160200191610212565b820191906000526020600020905b8154815290600101906020018083116101f557829003601f168201915b5050505050905090565b6000600354905090565b60008073ffffffffffffffffffffffffffffffffffffffff168373ffffffffffffffffffffffffffffffffffffffff161415610297576040517f08c379a000000000000000000000000000000000000000000000000000000000815260040161028e9061087d565b60405180910390fd5b81600460003373ffffffffffffffffffffffffffffffffffffffff1673ffffffffffffffffffffffffffffffffffffffff168152602001908152602001600020541015610319576040517f08c379a00000000000000000000000000000000000000000000000000000000081526004016103109061085d565b60405180910390fd5b81600460003373ffffffffffffffffffffffffffffffffffffffff1673ffffffffffffffffffffffffffffffffffffffff1681526020019081526020016000206000828254610368919061092a565b9250508190555081600460008573ffffffffffffffffffffffffffffffffffffffff1673ffffffffffffffffffffffffffffffffffffffff16815260200190815260200160002060008282546103be91906108d4565b92505081905550818373ffffffffffffffffffffffffffffffffffffffff163373ffffffffffffffffffffffffffffffffffffffff167fe156b1b6735c69d856fb922554b4fb7420f470e899a3dc4e8cff66f6bb8a8f7760405160405180910390a46001905092915050565b6000600460008373ffffffffffffffffffffffffffffffffffffffff1673ffffffffffffffffffffffffffffffffffffffff168152602001908152602001600020549050919050565b6000600260009054906101000a900463ffffffff1663ffffffff16905090565b60008073ffffffffffffffffffffffffffffffffffffffff163373ffffffffffffffffffffffffffffffffffffffff161415610504576040517f08c379a00000000000000000000000000000000000000000000000000000000081526004016104fb9061087d565b60405180910390fd5b600073ffffffffffffffffffffffffffffffffffffffff168373ffffffffffffffffffffffffffffffffffffffff161415610574576040517f08c379a000000000000000000000000000000000000000000000000000000000815260040161056b9061087d565b60405180910390fd5b81600560003373ffffffffffffffffffffffffffffffffffffffff1673ffffffffffffffffffffffffffffffffffffffff16815260200190815260200160002060008573ffffffffffffffffffffffffffffffffffffffff1673ffffffffffffffffffffffffffffffffffffffff16815260200190815260200160002081905550818373ffffffffffffffffffffffffffffffffffffffff163373ffffffffffffffffffffffffffffffffffffffff167facfd752d48a417d90cfd4cb230c1bd38b8535ad2e8291bd8173e1ce6122c1e6e60405160405180910390a46001905092915050565b606060018054610669906109d9565b80601f0160208091040260200160405190810160405280929190818152602001828054610695906109d9565b80156106e25780601f106106b7576101008083540402835291602001916106e2565b820191906000526020600020905b8154815290600101906020018083116106c557829003601f168201915b5050505050905090565b6000813590506106fb81610ad1565b92915050565b60008135905061071081610ae8565b92915050565b60006020828403121561072c5761072b610a69565b5b600061073a848285016106ec565b91505092915050565b6000806040838503121561075a57610759610a69565b5b6000610768858286016106ec565b925050602061077985828601610701565b9150509250929050565b61078c81610970565b82525050565b600061079d826108b8565b6107a781856108c3565b93506107b78185602086016109a6565b6107c081610a6e565b840191505092915050565b60006107d86010836108c3565b91506107e382610a7f565b602082019050919050565b60006107fb600f836108c3565b915061080682610aa8565b602082019050919050565b61081a8161099c565b82525050565b60006020820190506108356000830184610783565b92915050565b600060208201905081810360008301526108558184610792565b905092915050565b60006020820190508181036000830152610876816107cb565b9050919050565b60006020820190508181036000830152610896816107ee565b9050919050565b60006020820190506108b26000830184610811565b92915050565b600081519050919050565b600082825260208201905092915050565b60006108df8261099c565b91506108ea8361099c565b9250827fffffffffffffffffffffffffffffffffffffffffffffffffffffffffffffffff0382111561091f5761091e610a0b565b5b828201905092915050565b60006109358261099c565b91506109408361099c565b92508282101561095357610952610a0b565b5b828203905092915050565b60006109698261097c565b9050919050565b60008115159050919050565b600073ffffffffffffffffffffffffffffffffffffffff82169050919050565b6000819050919050565b60005b838110156109c45780820151818401526020810190506109a9565b838111156109d3576000848401525b50505050565b600060028204905060018216806109f157607f821691505b60208210811415610a0557610a04610a3a565b5b50919050565b7f4e487b7100000000000000000000000000000000000000000000000000000000600052601160045260246000fd5b7f4e487b7100000000000000000000000000000000000000000000000000000000600052602260045260246000fd5b600080fd5b6000601f19601f8301169050919050565b7f4e6f7420456e6f756768204d6f6e657900000000000000000000000000000000600082015250565b7f496e76616c696420416464726573730000000000000000000000000000000000600082015250565b610ada8161095e565b8114610ae557600080fd5b50565b610af18161099c565b8114610afc57600080fd5b5056fea2646970667358221220431e5d2a741828e7107619a53326748b57151d3ef5795943141347a0a848326c64736f6c63430008070033",
					"opcodes": "PUSH1 0x80 PUSH1 0x40 MSTORE CALLVALUE DUP1 ISZERO PUSH3 0x11 JUMPI PUSH1 0x0 DUP1 REVERT JUMPDEST POP PUSH1 0x40 MLOAD DUP1 PUSH1 0x40 ADD PUSH1 0x40 MSTORE DUP1 PUSH1 0xE DUP2 MSTORE PUSH1 0x20 ADD PUSH32 0x4D7920666972737420746F6B656E000000000000000000000000000000000000 DUP2 MSTORE POP PUSH1 0x0 SWAP1 DUP1 MLOAD SWAP1 PUSH1 0x20 ADD SWAP1 PUSH3 0x5F SWAP3 SWAP2 SWAP1 PUSH3 0x126 JUMP JUMPDEST POP PUSH1 0x40 MLOAD DUP1 PUSH1 0x40 ADD PUSH1 0x40 MSTORE DUP1 PUSH1 0x3 DUP2 MSTORE PUSH1 0x20 ADD PUSH32 0x4D46540000000000000000000000000000000000000000000000000000000000 DUP2 MSTORE POP PUSH1 0x1 SWAP1 DUP1 MLOAD SWAP1 PUSH1 0x20 ADD SWAP1 PUSH3 0xAD SWAP3 SWAP2 SWAP1 PUSH3 0x126 JUMP JUMPDEST POP PUSH1 0x0 PUSH1 0x2 PUSH1 0x0 PUSH2 0x100 EXP DUP2 SLOAD DUP2 PUSH4 0xFFFFFFFF MUL NOT AND SWAP1 DUP4 PUSH4 0xFFFFFFFF AND MUL OR SWAP1 SSTORE POP PUSH3 0xF4240 PUSH1 0x3 DUP2 SWAP1 SSTORE POP PUSH1 0x3 SLOAD PUSH1 0x4 PUSH1 0x0 CALLER PUSH20 0xFFFFFFFFFFFFFFFFFFFFFFFFFFFFFFFFFFFFFFFF AND PUSH20 0xFFFFFFFFFFFFFFFFFFFFFFFFFFFFFFFFFFFFFFFF AND DUP2 MSTORE PUSH1 0x20 ADD SWAP1 DUP2 MSTORE PUSH1 0x20 ADD PUSH1 0x0 KECCAK256 DUP2 SWAP1 SSTORE POP PUSH3 0x23B JUMP JUMPDEST DUP3 DUP1 SLOAD PUSH3 0x134 SWAP1 PUSH3 0x1D6 JUMP JUMPDEST SWAP1 PUSH1 0x0 MSTORE PUSH1 0x20 PUSH1 0x0 KECCAK256 SWAP1 PUSH1 0x1F ADD PUSH1 0x20 SWAP1 DIV DUP2 ADD SWAP3 DUP3 PUSH3 0x158 JUMPI PUSH1 0x0 DUP6 SSTORE PUSH3 0x1A4 JUMP JUMPDEST DUP3 PUSH1 0x1F LT PUSH3 0x173 JUMPI DUP1 MLOAD PUSH1 0xFF NOT AND DUP4 DUP1 ADD OR DUP6 SSTORE PUSH3 0x1A4 JUMP JUMPDEST DUP3 DUP1 ADD PUSH1 0x1 ADD DUP6 SSTORE DUP3 ISZERO PUSH3 0x1A4 JUMPI SWAP2 DUP3 ADD JUMPDEST DUP3 DUP2 GT ISZERO PUSH3 0x1A3 JUMPI DUP3 MLOAD DUP3 SSTORE SWAP2 PUSH1 0x20 ADD SWAP2 SWAP1 PUSH1 0x1 ADD SWAP1 PUSH3 0x186 JUMP JUMPDEST JUMPDEST POP SWAP1 POP PUSH3 0x1B3 SWAP2 SWAP1 PUSH3 0x1B7 JUMP JUMPDEST POP SWAP1 JUMP JUMPDEST JUMPDEST DUP1 DUP3 GT ISZERO PUSH3 0x1D2 JUMPI PUSH1 0x0 DUP2 PUSH1 0x0 SWAP1 SSTORE POP PUSH1 0x1 ADD PUSH3 0x1B8 JUMP JUMPDEST POP SWAP1 JUMP JUMPDEST PUSH1 0x0 PUSH1 0x2 DUP3 DIV SWAP1 POP PUSH1 0x1 DUP3 AND DUP1 PUSH3 0x1EF JUMPI PUSH1 0x7F DUP3 AND SWAP2 POP JUMPDEST PUSH1 0x20 DUP3 LT DUP2 EQ ISZERO PUSH3 0x206 JUMPI PUSH3 0x205 PUSH3 0x20C JUMP JUMPDEST JUMPDEST POP SWAP2 SWAP1 POP JUMP JUMPDEST PUSH32 0x4E487B7100000000000000000000000000000000000000000000000000000000 PUSH1 0x0 MSTORE PUSH1 0x22 PUSH1 0x4 MSTORE PUSH1 0x24 PUSH1 0x0 REVERT JUMPDEST PUSH2 0xB35 DUP1 PUSH3 0x24B PUSH1 0x0 CODECOPY PUSH1 0x0 RETURN INVALID PUSH1 0x80 PUSH1 0x40 MSTORE CALLVALUE DUP1 ISZERO PUSH2 0x10 JUMPI PUSH1 0x0 DUP1 REVERT JUMPDEST POP PUSH1 0x4 CALLDATASIZE LT PUSH2 0x7D JUMPI PUSH1 0x0 CALLDATALOAD PUSH1 0xE0 SHR DUP1 PUSH4 0x70A08231 GT PUSH2 0x5B JUMPI DUP1 PUSH4 0x70A08231 EQ PUSH2 0xEE JUMPI DUP1 PUSH4 0x76809CE3 EQ PUSH2 0x11E JUMPI DUP1 PUSH4 0x90EC57F1 EQ PUSH2 0x13C JUMPI DUP1 PUSH4 0x95D89B41 EQ PUSH2 0x16C JUMPI PUSH2 0x7D JUMP JUMPDEST DUP1 PUSH4 0x6FDDE03 EQ PUSH2 0x82 JUMPI DUP1 PUSH4 0x18160DDD EQ PUSH2 0xA0 JUMPI DUP1 PUSH4 0x69CA02DD EQ PUSH2 0xBE JUMPI JUMPDEST PUSH1 0x0 DUP1 REVERT JUMPDEST PUSH2 0x8A PUSH2 0x18A JUMP JUMPDEST PUSH1 0x40 MLOAD PUSH2 0x97 SWAP2 SWAP1 PUSH2 0x83B JUMP JUMPDEST PUSH1 0x40 MLOAD DUP1 SWAP2 SUB SWAP1 RETURN JUMPDEST PUSH2 0xA8 PUSH2 0x21C JUMP JUMPDEST PUSH1 0x40 MLOAD PUSH2 0xB5 SWAP2 SWAP1 PUSH2 0x89D JUMP JUMPDEST PUSH1 0x40 MLOAD DUP1 SWAP2 SUB SWAP1 RETURN JUMPDEST PUSH2 0xD8 PUSH1 0x4 DUP1 CALLDATASIZE SUB DUP2 ADD SWAP1 PUSH2 0xD3 SWAP2 SWAP1 PUSH2 0x743 JUMP JUMPDEST PUSH2 0x226 JUMP JUMPDEST PUSH1 0x40 MLOAD PUSH2 0xE5 SWAP2 SWAP1 PUSH2 0x820 JUMP JUMPDEST PUSH1 0x40 MLOAD DUP1 SWAP2 SUB SWAP1 RETURN JUMPDEST PUSH2 0x108 PUSH1 0x4 DUP1 CALLDATASIZE SUB DUP2 ADD SWAP1 PUSH2 0x103 SWAP2 SWAP1 PUSH2 0x716 JUMP JUMPDEST PUSH2 0x42A JUMP JUMPDEST PUSH1 0x40 MLOAD PUSH2 0x115 SWAP2 SWAP1 PUSH2 0x89D JUMP JUMPDEST PUSH1 0x40 MLOAD DUP1 SWAP2 SUB SWAP1 RETURN JUMPDEST PUSH2 0x126 PUSH2 0x473 JUMP JUMPDEST PUSH1 0x40 MLOAD PUSH2 0x133 SWAP2 SWAP1 PUSH2 0x89D JUMP JUMPDEST PUSH1 0x40 MLOAD DUP1 SWAP2 SUB SWAP1 RETURN JUMPDEST PUSH2 0x156 PUSH1 0x4 DUP1 CALLDATASIZE SUB DUP2 ADD SWAP1 PUSH2 0x151 SWAP2 SWAP1 PUSH2 0x743 JUMP JUMPDEST PUSH2 0x493 JUMP JUMPDEST PUSH1 0x40 MLOAD PUSH2 0x163 SWAP2 SWAP1 PUSH2 0x820 JUMP JUMPDEST PUSH1 0x40 MLOAD DUP1 SWAP2 SUB SWAP1 RETURN JUMPDEST PUSH2 0x174 PUSH2 0x65A JUMP JUMPDEST PUSH1 0x40 MLOAD PUSH2 0x181 SWAP2 SWAP1 PUSH2 0x83B JUMP JUMPDEST PUSH1 0x40 MLOAD DUP1 SWAP2 SUB SWAP1 RETURN JUMPDEST PUSH1 0x60 PUSH1 0x0 DUP1 SLOAD PUSH2 0x199 SWAP1 PUSH2 0x9D9 JUMP JUMPDEST DUP1 PUSH1 0x1F ADD PUSH1 0x20 DUP1 SWAP2 DIV MUL PUSH1 0x20 ADD PUSH1 0x40 MLOAD SWAP1 DUP2 ADD PUSH1 0x40 MSTORE DUP1 SWAP3 SWAP2 SWAP1 DUP2 DUP2 MSTORE PUSH1 0x20 ADD DUP3 DUP1 SLOAD PUSH2 0x1C5 SWAP1 PUSH2 0x9D9 JUMP JUMPDEST DUP1 ISZERO PUSH2 0x212 JUMPI DUP1 PUSH1 0x1F LT PUSH2 0x1E7 JUMPI PUSH2 0x100 DUP1 DUP4 SLOAD DIV MUL DUP4 MSTORE SWAP2 PUSH1 0x20 ADD SWAP2 PUSH2 0x212 JUMP JUMPDEST DUP3 ADD SWAP2 SWAP1 PUSH1 0x0 MSTORE PUSH1 0x20 PUSH1 0x0 KECCAK256 SWAP1 JUMPDEST DUP2 SLOAD DUP2 MSTORE SWAP1 PUSH1 0x1 ADD SWAP1 PUSH1 0x20 ADD DUP1 DUP4 GT PUSH2 0x1F5 JUMPI DUP3 SWAP1 SUB PUSH1 0x1F AND DUP3 ADD SWAP2 JUMPDEST POP POP POP POP POP SWAP1 POP SWAP1 JUMP JUMPDEST PUSH1 0x0 PUSH1 0x3 SLOAD SWAP1 POP SWAP1 JUMP JUMPDEST PUSH1 0x0 DUP1 PUSH20 0xFFFFFFFFFFFFFFFFFFFFFFFFFFFFFFFFFFFFFFFF AND DUP4 PUSH20 0xFFFFFFFFFFFFFFFFFFFFFFFFFFFFFFFFFFFFFFFF AND EQ ISZERO PUSH2 0x297 JUMPI PUSH1 0x40 MLOAD PUSH32 0x8C379A000000000000000000000000000000000000000000000000000000000 DUP2 MSTORE PUSH1 0x4 ADD PUSH2 0x28E SWAP1 PUSH2 0x87D JUMP JUMPDEST PUSH1 0x40 MLOAD DUP1 SWAP2 SUB SWAP1 REVERT JUMPDEST DUP2 PUSH1 0x4 PUSH1 0x0 CALLER PUSH20 0xFFFFFFFFFFFFFFFFFFFFFFFFFFFFFFFFFFFFFFFF AND PUSH20 0xFFFFFFFFFFFFFFFFFFFFFFFFFFFFFFFFFFFFFFFF AND DUP2 MSTORE PUSH1 0x20 ADD SWAP1 DUP2 MSTORE PUSH1 0x20 ADD PUSH1 0x0 KECCAK256 SLOAD LT ISZERO PUSH2 0x319 JUMPI PUSH1 0x40 MLOAD PUSH32 0x8C379A000000000000000000000000000000000000000000000000000000000 DUP2 MSTORE PUSH1 0x4 ADD PUSH2 0x310 SWAP1 PUSH2 0x85D JUMP JUMPDEST PUSH1 0x40 MLOAD DUP1 SWAP2 SUB SWAP1 REVERT JUMPDEST DUP2 PUSH1 0x4 PUSH1 0x0 CALLER PUSH20 0xFFFFFFFFFFFFFFFFFFFFFFFFFFFFFFFFFFFFFFFF AND PUSH20 0xFFFFFFFFFFFFFFFFFFFFFFFFFFFFFFFFFFFFFFFF AND DUP2 MSTORE PUSH1 0x20 ADD SWAP1 DUP2 MSTORE PUSH1 0x20 ADD PUSH1 0x0 KECCAK256 PUSH1 0x0 DUP3 DUP3 SLOAD PUSH2 0x368 SWAP2 SWAP1 PUSH2 0x92A JUMP JUMPDEST SWAP3 POP POP DUP2 SWAP1 SSTORE POP DUP2 PUSH1 0x4 PUSH1 0x0 DUP6 PUSH20 0xFFFFFFFFFFFFFFFFFFFFFFFFFFFFFFFFFFFFFFFF AND PUSH20 0xFFFFFFFFFFFFFFFFFFFFFFFFFFFFFFFFFFFFFFFF AND DUP2 MSTORE PUSH1 0x20 ADD SWAP1 DUP2 MSTORE PUSH1 0x20 ADD PUSH1 0x0 KECCAK256 PUSH1 0x0 DUP3 DUP3 SLOAD PUSH2 0x3BE SWAP2 SWAP1 PUSH2 0x8D4 JUMP JUMPDEST SWAP3 POP POP DUP2 SWAP1 SSTORE POP DUP2 DUP4 PUSH20 0xFFFFFFFFFFFFFFFFFFFFFFFFFFFFFFFFFFFFFFFF AND CALLER PUSH20 0xFFFFFFFFFFFFFFFFFFFFFFFFFFFFFFFFFFFFFFFF AND PUSH32 0xE156B1B6735C69D856FB922554B4FB7420F470E899A3DC4E8CFF66F6BB8A8F77 PUSH1 0x40 MLOAD PUSH1 0x40 MLOAD DUP1 SWAP2 SUB SWAP1 LOG4 PUSH1 0x1 SWAP1 POP SWAP3 SWAP2 POP POP JUMP JUMPDEST PUSH1 0x0 PUSH1 0x4 PUSH1 0x0 DUP4 PUSH20 0xFFFFFFFFFFFFFFFFFFFFFFFFFFFFFFFFFFFFFFFF AND PUSH20 0xFFFFFFFFFFFFFFFFFFFFFFFFFFFFFFFFFFFFFFFF AND DUP2 MSTORE PUSH1 0x20 ADD SWAP1 DUP2 MSTORE PUSH1 0x20 ADD PUSH1 0x0 KECCAK256 SLOAD SWAP1 POP SWAP2 SWAP1 POP JUMP JUMPDEST PUSH1 0x0 PUSH1 0x2 PUSH1 0x0 SWAP1 SLOAD SWAP1 PUSH2 0x100 EXP SWAP1 DIV PUSH4 0xFFFFFFFF AND PUSH4 0xFFFFFFFF AND SWAP1 POP SWAP1 JUMP JUMPDEST PUSH1 0x0 DUP1 PUSH20 0xFFFFFFFFFFFFFFFFFFFFFFFFFFFFFFFFFFFFFFFF AND CALLER PUSH20 0xFFFFFFFFFFFFFFFFFFFFFFFFFFFFFFFFFFFFFFFF AND EQ ISZERO PUSH2 0x504 JUMPI PUSH1 0x40 MLOAD PUSH32 0x8C379A000000000000000000000000000000000000000000000000000000000 DUP2 MSTORE PUSH1 0x4 ADD PUSH2 0x4FB SWAP1 PUSH2 0x87D JUMP JUMPDEST PUSH1 0x40 MLOAD DUP1 SWAP2 SUB SWAP1 REVERT JUMPDEST PUSH1 0x0 PUSH20 0xFFFFFFFFFFFFFFFFFFFFFFFFFFFFFFFFFFFFFFFF AND DUP4 PUSH20 0xFFFFFFFFFFFFFFFFFFFFFFFFFFFFFFFFFFFFFFFF AND EQ ISZERO PUSH2 0x574 JUMPI PUSH1 0x40 MLOAD PUSH32 0x8C379A000000000000000000000000000000000000000000000000000000000 DUP2 MSTORE PUSH1 0x4 ADD PUSH2 0x56B SWAP1 PUSH2 0x87D JUMP JUMPDEST PUSH1 0x40 MLOAD DUP1 SWAP2 SUB SWAP1 REVERT JUMPDEST DUP2 PUSH1 0x5 PUSH1 0x0 CALLER PUSH20 0xFFFFFFFFFFFFFFFFFFFFFFFFFFFFFFFFFFFFFFFF AND PUSH20 0xFFFFFFFFFFFFFFFFFFFFFFFFFFFFFFFFFFFFFFFF AND DUP2 MSTORE PUSH1 0x20 ADD SWAP1 DUP2 MSTORE PUSH1 0x20 ADD PUSH1 0x0 KECCAK256 PUSH1 0x0 DUP6 PUSH20 0xFFFFFFFFFFFFFFFFFFFFFFFFFFFFFFFFFFFFFFFF AND PUSH20 0xFFFFFFFFFFFFFFFFFFFFFFFFFFFFFFFFFFFFFFFF AND DUP2 MSTORE PUSH1 0x20 ADD SWAP1 DUP2 MSTORE PUSH1 0x20 ADD PUSH1 0x0 KECCAK256 DUP2 SWAP1 SSTORE POP DUP2 DUP4 PUSH20 0xFFFFFFFFFFFFFFFFFFFFFFFFFFFFFFFFFFFFFFFF AND CALLER PUSH20 0xFFFFFFFFFFFFFFFFFFFFFFFFFFFFFFFFFFFFFFFF AND PUSH32 0xACFD752D48A417D90CFD4CB230C1BD38B8535AD2E8291BD8173E1CE6122C1E6E PUSH1 0x40 MLOAD PUSH1 0x40 MLOAD DUP1 SWAP2 SUB SWAP1 LOG4 PUSH1 0x1 SWAP1 POP SWAP3 SWAP2 POP POP JUMP JUMPDEST PUSH1 0x60 PUSH1 0x1 DUP1 SLOAD PUSH2 0x669 SWAP1 PUSH2 0x9D9 JUMP JUMPDEST DUP1 PUSH1 0x1F ADD PUSH1 0x20 DUP1 SWAP2 DIV MUL PUSH1 0x20 ADD PUSH1 0x40 MLOAD SWAP1 DUP2 ADD PUSH1 0x40 MSTORE DUP1 SWAP3 SWAP2 SWAP1 DUP2 DUP2 MSTORE PUSH1 0x20 ADD DUP3 DUP1 SLOAD PUSH2 0x695 SWAP1 PUSH2 0x9D9 JUMP JUMPDEST DUP1 ISZERO PUSH2 0x6E2 JUMPI DUP1 PUSH1 0x1F LT PUSH2 0x6B7 JUMPI PUSH2 0x100 DUP1 DUP4 SLOAD DIV MUL DUP4 MSTORE SWAP2 PUSH1 0x20 ADD SWAP2 PUSH2 0x6E2 JUMP JUMPDEST DUP3 ADD SWAP2 SWAP1 PUSH1 0x0 MSTORE PUSH1 0x20 PUSH1 0x0 KECCAK256 SWAP1 JUMPDEST DUP2 SLOAD DUP2 MSTORE SWAP1 PUSH1 0x1 ADD SWAP1 PUSH1 0x20 ADD DUP1 DUP4 GT PUSH2 0x6C5 JUMPI DUP3 SWAP1 SUB PUSH1 0x1F AND DUP3 ADD SWAP2 JUMPDEST POP POP POP POP POP SWAP1 POP SWAP1 JUMP JUMPDEST PUSH1 0x0 DUP2 CALLDATALOAD SWAP1 POP PUSH2 0x6FB DUP2 PUSH2 0xAD1 JUMP JUMPDEST SWAP3 SWAP2 POP POP JUMP JUMPDEST PUSH1 0x0 DUP2 CALLDATALOAD SWAP1 POP PUSH2 0x710 DUP2 PUSH2 0xAE8 JUMP JUMPDEST SWAP3 SWAP2 POP POP JUMP JUMPDEST PUSH1 0x0 PUSH1 0x20 DUP3 DUP5 SUB SLT ISZERO PUSH2 0x72C JUMPI PUSH2 0x72B PUSH2 0xA69 JUMP JUMPDEST JUMPDEST PUSH1 0x0 PUSH2 0x73A DUP5 DUP3 DUP6 ADD PUSH2 0x6EC JUMP JUMPDEST SWAP2 POP POP SWAP3 SWAP2 POP POP JUMP JUMPDEST PUSH1 0x0 DUP1 PUSH1 0x40 DUP4 DUP6 SUB SLT ISZERO PUSH2 0x75A JUMPI PUSH2 0x759 PUSH2 0xA69 JUMP JUMPDEST JUMPDEST PUSH1 0x0 PUSH2 0x768 DUP6 DUP3 DUP7 ADD PUSH2 0x6EC JUMP JUMPDEST SWAP3 POP POP PUSH1 0x20 PUSH2 0x779 DUP6 DUP3 DUP7 ADD PUSH2 0x701 JUMP JUMPDEST SWAP2 POP POP SWAP3 POP SWAP3 SWAP1 POP JUMP JUMPDEST PUSH2 0x78C DUP2 PUSH2 0x970 JUMP JUMPDEST DUP3 MSTORE POP POP JUMP JUMPDEST PUSH1 0x0 PUSH2 0x79D DUP3 PUSH2 0x8B8 JUMP JUMPDEST PUSH2 0x7A7 DUP2 DUP6 PUSH2 0x8C3 JUMP JUMPDEST SWAP4 POP PUSH2 0x7B7 DUP2 DUP6 PUSH1 0x20 DUP7 ADD PUSH2 0x9A6 JUMP JUMPDEST PUSH2 0x7C0 DUP2 PUSH2 0xA6E JUMP JUMPDEST DUP5 ADD SWAP2 POP POP SWAP3 SWAP2 POP POP JUMP JUMPDEST PUSH1 0x0 PUSH2 0x7D8 PUSH1 0x10 DUP4 PUSH2 0x8C3 JUMP JUMPDEST SWAP2 POP PUSH2 0x7E3 DUP3 PUSH2 0xA7F JUMP JUMPDEST PUSH1 0x20 DUP3 ADD SWAP1 POP SWAP2 SWAP1 POP JUMP JUMPDEST PUSH1 0x0 PUSH2 0x7FB PUSH1 0xF DUP4 PUSH2 0x8C3 JUMP JUMPDEST SWAP2 POP PUSH2 0x806 DUP3 PUSH2 0xAA8 JUMP JUMPDEST PUSH1 0x20 DUP3 ADD SWAP1 POP SWAP2 SWAP1 POP JUMP JUMPDEST PUSH2 0x81A DUP2 PUSH2 0x99C JUMP JUMPDEST DUP3 MSTORE POP POP JUMP JUMPDEST PUSH1 0x0 PUSH1 0x20 DUP3 ADD SWAP1 POP PUSH2 0x835 PUSH1 0x0 DUP4 ADD DUP5 PUSH2 0x783 JUMP JUMPDEST SWAP3 SWAP2 POP POP JUMP JUMPDEST PUSH1 0x0 PUSH1 0x20 DUP3 ADD SWAP1 POP DUP2 DUP2 SUB PUSH1 0x0 DUP4 ADD MSTORE PUSH2 0x855 DUP2 DUP5 PUSH2 0x792 JUMP JUMPDEST SWAP1 POP SWAP3 SWAP2 POP POP JUMP JUMPDEST PUSH1 0x0 PUSH1 0x20 DUP3 ADD SWAP1 POP DUP2 DUP2 SUB PUSH1 0x0 DUP4 ADD MSTORE PUSH2 0x876 DUP2 PUSH2 0x7CB JUMP JUMPDEST SWAP1 POP SWAP2 SWAP1 POP JUMP JUMPDEST PUSH1 0x0 PUSH1 0x20 DUP3 ADD SWAP1 POP DUP2 DUP2 SUB PUSH1 0x0 DUP4 ADD MSTORE PUSH2 0x896 DUP2 PUSH2 0x7EE JUMP JUMPDEST SWAP1 POP SWAP2 SWAP1 POP JUMP JUMPDEST PUSH1 0x0 PUSH1 0x20 DUP3 ADD SWAP1 POP PUSH2 0x8B2 PUSH1 0x0 DUP4 ADD DUP5 PUSH2 0x811 JUMP JUMPDEST SWAP3 SWAP2 POP POP JUMP JUMPDEST PUSH1 0x0 DUP2 MLOAD SWAP1 POP SWAP2 SWAP1 POP JUMP JUMPDEST PUSH1 0x0 DUP3 DUP3 MSTORE PUSH1 0x20 DUP3 ADD SWAP1 POP SWAP3 SWAP2 POP POP JUMP JUMPDEST PUSH1 0x0 PUSH2 0x8DF DUP3 PUSH2 0x99C JUMP JUMPDEST SWAP2 POP PUSH2 0x8EA DUP4 PUSH2 0x99C JUMP JUMPDEST SWAP3 POP DUP3 PUSH32 0xFFFFFFFFFFFFFFFFFFFFFFFFFFFFFFFFFFFFFFFFFFFFFFFFFFFFFFFFFFFFFFFF SUB DUP3 GT ISZERO PUSH2 0x91F JUMPI PUSH2 0x91E PUSH2 0xA0B JUMP JUMPDEST JUMPDEST DUP3 DUP3 ADD SWAP1 POP SWAP3 SWAP2 POP POP JUMP JUMPDEST PUSH1 0x0 PUSH2 0x935 DUP3 PUSH2 0x99C JUMP JUMPDEST SWAP2 POP PUSH2 0x940 DUP4 PUSH2 0x99C JUMP JUMPDEST SWAP3 POP DUP3 DUP3 LT ISZERO PUSH2 0x953 JUMPI PUSH2 0x952 PUSH2 0xA0B JUMP JUMPDEST JUMPDEST DUP3 DUP3 SUB SWAP1 POP SWAP3 SWAP2 POP POP JUMP JUMPDEST PUSH1 0x0 PUSH2 0x969 DUP3 PUSH2 0x97C JUMP JUMPDEST SWAP1 POP SWAP2 SWAP1 POP JUMP JUMPDEST PUSH1 0x0 DUP2 ISZERO ISZERO SWAP1 POP SWAP2 SWAP1 POP JUMP JUMPDEST PUSH1 0x0 PUSH20 0xFFFFFFFFFFFFFFFFFFFFFFFFFFFFFFFFFFFFFFFF DUP3 AND SWAP1 POP SWAP2 SWAP1 POP JUMP JUMPDEST PUSH1 0x0 DUP2 SWAP1 POP SWAP2 SWAP1 POP JUMP JUMPDEST PUSH1 0x0 JUMPDEST DUP4 DUP2 LT ISZERO PUSH2 0x9C4 JUMPI DUP1 DUP3 ADD MLOAD DUP2 DUP5 ADD MSTORE PUSH1 0x20 DUP2 ADD SWAP1 POP PUSH2 0x9A9 JUMP JUMPDEST DUP4 DUP2 GT ISZERO PUSH2 0x9D3 JUMPI PUSH1 0x0 DUP5 DUP5 ADD MSTORE JUMPDEST POP POP POP POP JUMP JUMPDEST PUSH1 0x0 PUSH1 0x2 DUP3 DIV SWAP1 POP PUSH1 0x1 DUP3 AND DUP1 PUSH2 0x9F1 JUMPI PUSH1 0x7F DUP3 AND SWAP2 POP JUMPDEST PUSH1 0x20 DUP3 LT DUP2 EQ ISZERO PUSH2 0xA05 JUMPI PUSH2 0xA04 PUSH2 0xA3A JUMP JUMPDEST JUMPDEST POP SWAP2 SWAP1 POP JUMP JUMPDEST PUSH32 0x4E487B7100000000000000000000000000000000000000000000000000000000 PUSH1 0x0 MSTORE PUSH1 0x11 PUSH1 0x4 MSTORE PUSH1 0x24 PUSH1 0x0 REVERT JUMPDEST PUSH32 0x4E487B7100000000000000000000000000000000000000000000000000000000 PUSH1 0x0 MSTORE PUSH1 0x22 PUSH1 0x4 MSTORE PUSH1 0x24 PUSH1 0x0 REVERT JUMPDEST PUSH1 0x0 DUP1 REVERT JUMPDEST PUSH1 0x0 PUSH1 0x1F NOT PUSH1 0x1F DUP4 ADD AND SWAP1 POP SWAP2 SWAP1 POP JUMP JUMPDEST PUSH32 0x4E6F7420456E6F756768204D6F6E657900000000000000000000000000000000 PUSH1 0x0 DUP3 ADD MSTORE POP JUMP JUMPDEST PUSH32 0x496E76616C696420416464726573730000000000000000000000000000000000 PUSH1 0x0 DUP3 ADD MSTORE POP JUMP JUMPDEST PUSH2 0xADA DUP2 PUSH2 0x95E JUMP JUMPDEST DUP2 EQ PUSH2 0xAE5 JUMPI PUSH1 0x0 DUP1 REVERT JUMPDEST POP JUMP JUMPDEST PUSH2 0xAF1 DUP2 PUSH2 0x99C JUMP JUMPDEST DUP2 EQ PUSH2 0xAFC JUMPI PUSH1 0x0 DUP1 REVERT JUMPDEST POP JUMP INVALID LOG2 PUSH5 0x6970667358 0x22 SLT KECCAK256 NUMBER 0x1E 0x5D 0x2A PUSH21 0x1828E7107619A53326748B57151D3EF57959431413 SELFBALANCE LOG0 0xA8 BASEFEE ORIGIN PUSH13 0x64736F6C634300080700330000 "
				},
				"gasEstimates": {
					"creation": {
						"codeDepositCost": "573800",
						"executionCost": "infinite",
						"totalCost": "infinite"
					},
					"external": {
						"Approve(address,uint256)": "25164",
						"Transfer(address,uint256)": "infinite",
						"balanceOf(address)": "2841",
						"decimal()": "2501",
						"name()": "infinite",
						"symbol()": "infinite",
						"totalSupply()": "2460"
					}
				},
				"methodIdentifiers": {
					"Approve(address,uint256)": "90ec57f1",
					"Transfer(address,uint256)": "69ca02dd",
					"balanceOf(address)": "70a08231",
					"decimal()": "76809ce3",
					"name()": "06fdde03",
					"symbol()": "95d89b41",
					"totalSupply()": "18160ddd"
				}
			},
			"storageLayout": {
				"storage": [
					{
						"astId": 3,
						"contract": "contracts/MyToken.sol:MyToken",
						"label": "_name",
						"offset": 0,
						"slot": "0",
						"type": "t_string_storage"
					},
					{
						"astId": 5,
						"contract": "contracts/MyToken.sol:MyToken",
						"label": "_symbol",
						"offset": 0,
						"slot": "1",
						"type": "t_string_storage"
					},
					{
						"astId": 7,
						"contract": "contracts/MyToken.sol:MyToken",
						"label": "_decimal",
						"offset": 0,
						"slot": "2",
						"type": "t_uint32"
					},
					{
						"astId": 9,
						"contract": "contracts/MyToken.sol:MyToken",
						"label": "_totalSupply",
						"offset": 0,
						"slot": "3",
						"type": "t_uint256"
					},
					{
						"astId": 40,
						"contract": "contracts/MyToken.sol:MyToken",
						"label": "balance",
						"offset": 0,
						"slot": "4",
						"type": "t_mapping(t_address,t_uint256)"
					},
					{
						"astId": 46,
						"contract": "contracts/MyToken.sol:MyToken",
						"label": "allow",
						"offset": 0,
						"slot": "5",
						"type": "t_mapping(t_address,t_mapping(t_address,t_uint256))"
					}
				],
				"types": {
					"t_address": {
						"encoding": "inplace",
						"label": "address",
						"numberOfBytes": "20"
					},
					"t_mapping(t_address,t_mapping(t_address,t_uint256))": {
						"encoding": "mapping",
						"key": "t_address",
						"label": "mapping(address => mapping(address => uint256))",
						"numberOfBytes": "32",
						"value": "t_mapping(t_address,t_uint256)"
					},
					"t_mapping(t_address,t_uint256)": {
						"encoding": "mapping",
						"key": "t_address",
						"label": "mapping(address => uint256)",
						"numberOfBytes": "32",
						"value": "t_uint256"
					},
					"t_string_storage": {
						"encoding": "bytes",
						"label": "string",
						"numberOfBytes": "32"
					},
					"t_uint256": {
						"encoding": "inplace",
						"label": "uint256",
						"numberOfBytes": "32"
					},
					"t_uint32": {
						"encoding": "inplace",
						"label": "uint32",
						"numberOfBytes": "4"
					}
				}
			},
			"userdoc": {
				"kind": "user",
				"methods": {},
				"version": 1
			}
		}
	}
}